{
	"Desktop/EthCA/blockchain/EthCA.sol": {
		"EthCA": {
			"abi": [
				{
					"inputs": [],
					"name": "cancel_signup",
					"outputs": [],
					"stateMutability": "nonpayable",
					"type": "function"
				},
				{
					"inputs": [
						{
							"internalType": "string",
							"name": "domain",
							"type": "string"
						}
					],
					"name": "request_verification",
					"outputs": [
						{
							"internalType": "uint256",
							"name": "",
							"type": "uint256"
						}
					],
					"stateMutability": "payable",
					"type": "function"
				},
				{
					"inputs": [],
					"name": "sign_up",
					"outputs": [
						{
							"internalType": "uint256",
							"name": "",
							"type": "uint256"
						}
					],
					"stateMutability": "payable",
					"type": "function"
				}
			],
			"devdoc": {
				"kind": "dev",
				"methods": {},
				"version": 1
			},
			"evm": {
				"assembly": "    /* \"Desktop/EthCA/blockchain/EthCA.sol\":143:1670  contract EthCA {... */\n  mstore(0x40, 0x80)\n  callvalue\n  dup1\n  iszero\n  tag_1\n  jumpi\n  0x00\n  dup1\n  revert\ntag_1:\n  pop\n  dataSize(sub_0)\n  dup1\n  dataOffset(sub_0)\n  0x00\n  codecopy\n  0x00\n  return\nstop\n\nsub_0: assembly {\n        /* \"Desktop/EthCA/blockchain/EthCA.sol\":143:1670  contract EthCA {... */\n      mstore(0x40, 0x80)\n      jumpi(tag_1, lt(calldatasize, 0x04))\n      shr(0xe0, calldataload(0x00))\n      dup1\n      0x969b1567\n      eq\n      tag_2\n      jumpi\n      dup1\n      0xc09f8ff6\n      eq\n      tag_3\n      jumpi\n      dup1\n      0xc4fb3337\n      eq\n      tag_4\n      jumpi\n    tag_1:\n      0x00\n      dup1\n      revert\n        /* \"Desktop/EthCA/blockchain/EthCA.sol\":633:1067  function request_verification(string memory domain) public payable returns (uint) {... */\n    tag_2:\n      tag_5\n      0x04\n      dup1\n      calldatasize\n      sub\n      dup2\n      add\n      swap1\n      tag_6\n      swap2\n      swap1\n      tag_7\n      jump\t// in\n    tag_6:\n      tag_8\n      jump\t// in\n    tag_5:\n      mload(0x40)\n      tag_9\n      swap2\n      swap1\n      tag_10\n      jump\t// in\n    tag_9:\n      mload(0x40)\n      dup1\n      swap2\n      sub\n      swap1\n      return\n        /* \"Desktop/EthCA/blockchain/EthCA.sol\":1478:1668  function cancel_signup() public {... */\n    tag_3:\n      callvalue\n      dup1\n      iszero\n      tag_11\n      jumpi\n      0x00\n      dup1\n      revert\n    tag_11:\n      pop\n      tag_12\n      tag_13\n      jump\t// in\n    tag_12:\n      stop\n        /* \"Desktop/EthCA/blockchain/EthCA.sol\":1072:1391  function sign_up() public payable returns (uint) {... */\n    tag_4:\n      tag_14\n      tag_15\n      jump\t// in\n    tag_14:\n      mload(0x40)\n      tag_16\n      swap2\n      swap1\n      tag_10\n      jump\t// in\n    tag_16:\n      mload(0x40)\n      dup1\n      swap2\n      sub\n      swap1\n      return\n        /* \"Desktop/EthCA/blockchain/EthCA.sol\":633:1067  function request_verification(string memory domain) public payable returns (uint) {... */\n    tag_8:\n        /* \"Desktop/EthCA/blockchain/EthCA.sol\":709:713  uint */\n      0x00\n        /* \"Desktop/EthCA/blockchain/EthCA.sol\":746:754  10 ether */\n      0x8ac7230489e80000\n        /* \"Desktop/EthCA/blockchain/EthCA.sol\":733:742  msg.value */\n      callvalue\n        /* \"Desktop/EthCA/blockchain/EthCA.sol\":733:754  msg.value >= 10 ether */\n      lt\n      iszero\n        /* \"Desktop/EthCA/blockchain/EthCA.sol\":725:755  require(msg.value >= 10 ether) */\n      tag_18\n      jumpi\n      0x00\n      dup1\n      revert\n    tag_18:\n        /* \"Desktop/EthCA/blockchain/EthCA.sol\":765:775  uint nonce */\n      0x00\n        /* \"Desktop/EthCA/blockchain/EthCA.sol\":783:866  sha256(abi.encodePacked(block.timestamp, block.difficulty, msg.sender, numsignups)) */\n      0x02\n        /* \"Desktop/EthCA/blockchain/EthCA.sol\":807:822  block.timestamp */\n      timestamp\n        /* \"Desktop/EthCA/blockchain/EthCA.sol\":824:840  block.difficulty */\n      difficulty\n        /* \"Desktop/EthCA/blockchain/EthCA.sol\":842:852  msg.sender */\n      caller\n        /* \"Desktop/EthCA/blockchain/EthCA.sol\":854:864  numsignups */\n      sload(0x02)\n        /* \"Desktop/EthCA/blockchain/EthCA.sol\":790:865  abi.encodePacked(block.timestamp, block.difficulty, msg.sender, numsignups) */\n      add(0x20, mload(0x40))\n      tag_19\n      swap5\n      swap4\n      swap3\n      swap2\n      swap1\n      tag_20\n      jump\t// in\n    tag_19:\n      mload(0x40)\n      0x20\n      dup2\n      dup4\n      sub\n      sub\n      dup2\n      mstore\n      swap1\n      0x40\n      mstore\n        /* \"Desktop/EthCA/blockchain/EthCA.sol\":783:866  sha256(abi.encodePacked(block.timestamp, block.difficulty, msg.sender, numsignups)) */\n      mload(0x40)\n      tag_21\n      swap2\n      swap1\n      tag_22\n      jump\t// in\n    tag_21:\n      0x20\n      mload(0x40)\n      dup1\n      dup4\n      sub\n      dup2\n      dup6\n      gas\n      staticcall\n      iszero\n      dup1\n      iszero\n      tag_24\n      jumpi\n      returndatasize\n      0x00\n      dup1\n      returndatacopy\n      revert(0x00, returndatasize)\n    tag_24:\n      pop\n      pop\n      pop\n      mload(0x40)\n      returndatasize\n      not(0x1f)\n      0x1f\n      dup3\n      add\n      and\n      dup3\n      add\n      dup1\n      0x40\n      mstore\n      pop\n      dup2\n      add\n      swap1\n      tag_25\n      swap2\n      swap1\n      tag_26\n      jump\t// in\n    tag_25:\n        /* \"Desktop/EthCA/blockchain/EthCA.sol\":778:867  uint(sha256(abi.encodePacked(block.timestamp, block.difficulty, msg.sender, numsignups))) */\n      0x00\n      shr\n        /* \"Desktop/EthCA/blockchain/EthCA.sol\":765:867  uint nonce = uint(sha256(abi.encodePacked(block.timestamp, block.difficulty, msg.sender, numsignups))) */\n      swap1\n      pop\n        /* \"Desktop/EthCA/blockchain/EthCA.sol\":907:912  nonce */\n      dup1\n        /* \"Desktop/EthCA/blockchain/EthCA.sol\":877:885  requests */\n      0x01\n        /* \"Desktop/EthCA/blockchain/EthCA.sol\":877:898  requests[numRequests] */\n      0x00\n        /* \"Desktop/EthCA/blockchain/EthCA.sol\":886:897  numRequests */\n      sload(0x03)\n        /* \"Desktop/EthCA/blockchain/EthCA.sol\":877:898  requests[numRequests] */\n      dup2\n      mstore\n      0x20\n      add\n      swap1\n      dup2\n      mstore\n      0x20\n      add\n      0x00\n      keccak256\n        /* \"Desktop/EthCA/blockchain/EthCA.sol\":877:904  requests[numRequests].nonce */\n      0x01\n      add\n        /* \"Desktop/EthCA/blockchain/EthCA.sol\":877:912  requests[numRequests].nonce = nonce */\n      dup2\n      swap1\n      sstore\n      pop\n        /* \"Desktop/EthCA/blockchain/EthCA.sol\":949:960  numRequests */\n      sload(0x03)\n        /* \"Desktop/EthCA/blockchain/EthCA.sol\":922:930  requests */\n      0x01\n        /* \"Desktop/EthCA/blockchain/EthCA.sol\":922:943  requests[numRequests] */\n      0x00\n        /* \"Desktop/EthCA/blockchain/EthCA.sol\":931:942  numRequests */\n      sload(0x03)\n        /* \"Desktop/EthCA/blockchain/EthCA.sol\":922:943  requests[numRequests] */\n      dup2\n      mstore\n      0x20\n      add\n      swap1\n      dup2\n      mstore\n      0x20\n      add\n      0x00\n      keccak256\n        /* \"Desktop/EthCA/blockchain/EthCA.sol\":922:946  requests[numRequests].id */\n      0x00\n      add\n        /* \"Desktop/EthCA/blockchain/EthCA.sol\":922:960  requests[numRequests].id = numRequests */\n      dup2\n      swap1\n      sstore\n      pop\n        /* \"Desktop/EthCA/blockchain/EthCA.sol\":1001:1011  msg.sender */\n      caller\n        /* \"Desktop/EthCA/blockchain/EthCA.sol\":970:978  requests */\n      0x01\n        /* \"Desktop/EthCA/blockchain/EthCA.sol\":970:991  requests[numRequests] */\n      0x00\n        /* \"Desktop/EthCA/blockchain/EthCA.sol\":979:990  numRequests */\n      sload(0x03)\n        /* \"Desktop/EthCA/blockchain/EthCA.sol\":970:991  requests[numRequests] */\n      dup2\n      mstore\n      0x20\n      add\n      swap1\n      dup2\n      mstore\n      0x20\n      add\n      0x00\n      keccak256\n        /* \"Desktop/EthCA/blockchain/EthCA.sol\":970:998  requests[numRequests].sender */\n      0x04\n      add\n      0x00\n        /* \"Desktop/EthCA/blockchain/EthCA.sol\":970:1011  requests[numRequests].sender = msg.sender */\n      0x0100\n      exp\n      dup2\n      sload\n      dup2\n      0xffffffffffffffffffffffffffffffffffffffff\n      mul\n      not\n      and\n      swap1\n      dup4\n      0xffffffffffffffffffffffffffffffffffffffff\n      and\n      mul\n      or\n      swap1\n      sstore\n      pop\n        /* \"Desktop/EthCA/blockchain/EthCA.sol\":1052:1058  domain */\n      dup3\n        /* \"Desktop/EthCA/blockchain/EthCA.sol\":1021:1029  requests */\n      0x01\n        /* \"Desktop/EthCA/blockchain/EthCA.sol\":1021:1042  requests[numRequests] */\n      0x00\n        /* \"Desktop/EthCA/blockchain/EthCA.sol\":1030:1041  numRequests */\n      sload(0x03)\n        /* \"Desktop/EthCA/blockchain/EthCA.sol\":1021:1042  requests[numRequests] */\n      dup2\n      mstore\n      0x20\n      add\n      swap1\n      dup2\n      mstore\n      0x20\n      add\n      0x00\n      keccak256\n        /* \"Desktop/EthCA/blockchain/EthCA.sol\":1021:1049  requests[numRequests].domain */\n      0x03\n      add\n        /* \"Desktop/EthCA/blockchain/EthCA.sol\":1021:1058  requests[numRequests].domain = domain */\n      swap1\n      dup1\n      mload\n      swap1\n      0x20\n      add\n      swap1\n      tag_27\n      swap3\n      swap2\n      swap1\n      tag_28\n      jump\t// in\n    tag_27:\n      pop\n        /* \"Desktop/EthCA/blockchain/EthCA.sol\":715:1067  {... */\n      pop\n        /* \"Desktop/EthCA/blockchain/EthCA.sol\":633:1067  function request_verification(string memory domain) public payable returns (uint) {... */\n      swap2\n      swap1\n      pop\n      jump\t// out\n        /* \"Desktop/EthCA/blockchain/EthCA.sol\":1478:1668  function cancel_signup() public {... */\n    tag_13:\n        /* \"Desktop/EthCA/blockchain/EthCA.sol\":1552:1556  true */\n      0x01\n        /* \"Desktop/EthCA/blockchain/EthCA.sol\":1528:1556  signedup[msg.sender] == true */\n      iszero\n      iszero\n        /* \"Desktop/EthCA/blockchain/EthCA.sol\":1528:1536  signedup */\n      0x00\n        /* \"Desktop/EthCA/blockchain/EthCA.sol\":1528:1548  signedup[msg.sender] */\n      dup1\n        /* \"Desktop/EthCA/blockchain/EthCA.sol\":1537:1547  msg.sender */\n      caller\n        /* \"Desktop/EthCA/blockchain/EthCA.sol\":1528:1548  signedup[msg.sender] */\n      0xffffffffffffffffffffffffffffffffffffffff\n      and\n      0xffffffffffffffffffffffffffffffffffffffff\n      and\n      dup2\n      mstore\n      0x20\n      add\n      swap1\n      dup2\n      mstore\n      0x20\n      add\n      0x00\n      keccak256\n      0x00\n      swap1\n      sload\n      swap1\n      0x0100\n      exp\n      swap1\n      div\n      0xff\n      and\n        /* \"Desktop/EthCA/blockchain/EthCA.sol\":1528:1556  signedup[msg.sender] == true */\n      iszero\n      iszero\n      eq\n        /* \"Desktop/EthCA/blockchain/EthCA.sol\":1520:1575  require(signedup[msg.sender] == true, \"Not signed up!\") */\n      tag_30\n      jumpi\n      mload(0x40)\n      0x08c379a000000000000000000000000000000000000000000000000000000000\n      dup2\n      mstore\n      0x04\n      add\n      tag_31\n      swap1\n      tag_32\n      jump\t// in\n    tag_31:\n      mload(0x40)\n      dup1\n      swap2\n      sub\n      swap1\n      revert\n    tag_30:\n        /* \"Desktop/EthCA/blockchain/EthCA.sol\":1609:1614  false */\n      0x00\n        /* \"Desktop/EthCA/blockchain/EthCA.sol\":1585:1614  signedup[msg.sender] == false */\n      iszero\n      iszero\n        /* \"Desktop/EthCA/blockchain/EthCA.sol\":1585:1593  signedup */\n      0x00\n        /* \"Desktop/EthCA/blockchain/EthCA.sol\":1585:1605  signedup[msg.sender] */\n      dup1\n        /* \"Desktop/EthCA/blockchain/EthCA.sol\":1594:1604  msg.sender */\n      caller\n        /* \"Desktop/EthCA/blockchain/EthCA.sol\":1585:1605  signedup[msg.sender] */\n      0xffffffffffffffffffffffffffffffffffffffff\n      and\n      0xffffffffffffffffffffffffffffffffffffffff\n      and\n      dup2\n      mstore\n      0x20\n      add\n      swap1\n      dup2\n      mstore\n      0x20\n      add\n      0x00\n      keccak256\n      0x00\n      swap1\n      sload\n      swap1\n      0x0100\n      exp\n      swap1\n      pop\n      pop\n        /* \"Desktop/EthCA/blockchain/EthCA.sol\":1585:1614  signedup[msg.sender] == false */\n      pop\n        /* \"Desktop/EthCA/blockchain/EthCA.sol\":1632:1642  msg.sender */\n      caller\n        /* \"Desktop/EthCA/blockchain/EthCA.sol\":1624:1652  payable(msg.sender).transfer */\n      0xffffffffffffffffffffffffffffffffffffffff\n      and\n        /* \"Desktop/EthCA/blockchain/EthCA.sol\":1624:1661  payable(msg.sender).transfer(1 ether) */\n      0x08fc\n        /* \"Desktop/EthCA/blockchain/EthCA.sol\":1653:1660  1 ether */\n      0x0de0b6b3a7640000\n        /* \"Desktop/EthCA/blockchain/EthCA.sol\":1624:1661  payable(msg.sender).transfer(1 ether) */\n      swap1\n      dup2\n      iszero\n      mul\n      swap1\n      mload(0x40)\n      0x00\n      mload(0x40)\n      dup1\n      dup4\n      sub\n      dup2\n      dup6\n      dup9\n      dup9\n      call\n      swap4\n      pop\n      pop\n      pop\n      pop\n      iszero\n      dup1\n      iszero\n      tag_34\n      jumpi\n      returndatasize\n      0x00\n      dup1\n      returndatacopy\n      revert(0x00, returndatasize)\n    tag_34:\n      pop\n        /* \"Desktop/EthCA/blockchain/EthCA.sol\":1478:1668  function cancel_signup() public {... */\n      jump\t// out\n        /* \"Desktop/EthCA/blockchain/EthCA.sol\":1072:1391  function sign_up() public payable returns (uint) {... */\n    tag_15:\n        /* \"Desktop/EthCA/blockchain/EthCA.sol\":1115:1119  uint */\n      0x00\n        /* \"Desktop/EthCA/blockchain/EthCA.sol\":1202:1209  1 ether */\n      0x0de0b6b3a7640000\n        /* \"Desktop/EthCA/blockchain/EthCA.sol\":1189:1198  msg.value */\n      callvalue\n        /* \"Desktop/EthCA/blockchain/EthCA.sol\":1189:1209  msg.value == 1 ether */\n      eq\n        /* \"Desktop/EthCA/blockchain/EthCA.sol\":1181:1254  require(msg.value == 1 ether, \"Sign-up rejected! Inadequate stake value\") */\n      tag_36\n      jumpi\n      mload(0x40)\n      0x08c379a000000000000000000000000000000000000000000000000000000000\n      dup2\n      mstore\n      0x04\n      add\n      tag_37\n      swap1\n      tag_38\n      jump\t// in\n    tag_37:\n      mload(0x40)\n      dup1\n      swap2\n      sub\n      swap1\n      revert\n    tag_36:\n        /* \"Desktop/EthCA/blockchain/EthCA.sol\":1355:1360  false */\n      0x00\n        /* \"Desktop/EthCA/blockchain/EthCA.sol\":1331:1360  signedup[msg.sender] == false */\n      iszero\n      iszero\n        /* \"Desktop/EthCA/blockchain/EthCA.sol\":1331:1339  signedup */\n      0x00\n        /* \"Desktop/EthCA/blockchain/EthCA.sol\":1331:1351  signedup[msg.sender] */\n      dup1\n        /* \"Desktop/EthCA/blockchain/EthCA.sol\":1340:1350  msg.sender */\n      caller\n        /* \"Desktop/EthCA/blockchain/EthCA.sol\":1331:1351  signedup[msg.sender] */\n      0xffffffffffffffffffffffffffffffffffffffff\n      and\n      0xffffffffffffffffffffffffffffffffffffffff\n      and\n      dup2\n      mstore\n      0x20\n      add\n      swap1\n      dup2\n      mstore\n      0x20\n      add\n      0x00\n      keccak256\n      0x00\n      swap1\n      sload\n      swap1\n      0x0100\n      exp\n      swap1\n      div\n      0xff\n      and\n        /* \"Desktop/EthCA/blockchain/EthCA.sol\":1331:1360  signedup[msg.sender] == false */\n      iszero\n      iszero\n      eq\n        /* \"Desktop/EthCA/blockchain/EthCA.sol\":1323:1383  require(signedup[msg.sender] == false, \"Already Signed up!\") */\n      tag_39\n      jumpi\n      mload(0x40)\n      0x08c379a000000000000000000000000000000000000000000000000000000000\n      dup2\n      mstore\n      0x04\n      add\n      tag_40\n      swap1\n      tag_41\n      jump\t// in\n    tag_40:\n      mload(0x40)\n      dup1\n      swap2\n      sub\n      swap1\n      revert\n    tag_39:\n        /* \"Desktop/EthCA/blockchain/EthCA.sol\":1072:1391  function sign_up() public payable returns (uint) {... */\n      swap1\n      jump\t// out\n    tag_28:\n      dup3\n      dup1\n      sload\n      tag_42\n      swap1\n      tag_43\n      jump\t// in\n    tag_42:\n      swap1\n      0x00\n      mstore\n      keccak256(0x00, 0x20)\n      swap1\n      0x1f\n      add\n      0x20\n      swap1\n      div\n      dup2\n      add\n      swap3\n      dup3\n      tag_45\n      jumpi\n      0x00\n      dup6\n      sstore\n      jump(tag_44)\n    tag_45:\n      dup3\n      0x1f\n      lt\n      tag_46\n      jumpi\n      dup1\n      mload\n      not(0xff)\n      and\n      dup4\n      dup1\n      add\n      or\n      dup6\n      sstore\n      jump(tag_44)\n    tag_46:\n      dup3\n      dup1\n      add\n      0x01\n      add\n      dup6\n      sstore\n      dup3\n      iszero\n      tag_44\n      jumpi\n      swap2\n      dup3\n      add\n    tag_47:\n      dup3\n      dup2\n      gt\n      iszero\n      tag_48\n      jumpi\n      dup3\n      mload\n      dup3\n      sstore\n      swap2\n      0x20\n      add\n      swap2\n      swap1\n      0x01\n      add\n      swap1\n      jump(tag_47)\n    tag_48:\n    tag_44:\n      pop\n      swap1\n      pop\n      tag_49\n      swap2\n      swap1\n      tag_50\n      jump\t// in\n    tag_49:\n      pop\n      swap1\n      jump\t// out\n    tag_50:\n    tag_51:\n      dup1\n      dup3\n      gt\n      iszero\n      tag_52\n      jumpi\n      0x00\n      dup2\n      0x00\n      swap1\n      sstore\n      pop\n      0x01\n      add\n      jump(tag_51)\n    tag_52:\n      pop\n      swap1\n      jump\t// out\n        /* \"#utility.yul\":7:419   */\n    tag_54:\n        /* \"#utility.yul\":85:90   */\n      0x00\n        /* \"#utility.yul\":110:176   */\n      tag_56\n        /* \"#utility.yul\":126:175   */\n      tag_57\n        /* \"#utility.yul\":168:174   */\n      dup5\n        /* \"#utility.yul\":126:175   */\n      tag_58\n      jump\t// in\n    tag_57:\n        /* \"#utility.yul\":110:176   */\n      tag_59\n      jump\t// in\n    tag_56:\n        /* \"#utility.yul\":101:176   */\n      swap1\n      pop\n        /* \"#utility.yul\":199:205   */\n      dup3\n        /* \"#utility.yul\":192:197   */\n      dup2\n        /* \"#utility.yul\":185:206   */\n      mstore\n        /* \"#utility.yul\":237:241   */\n      0x20\n        /* \"#utility.yul\":230:235   */\n      dup2\n        /* \"#utility.yul\":226:242   */\n      add\n        /* \"#utility.yul\":275:278   */\n      dup5\n        /* \"#utility.yul\":266:272   */\n      dup5\n        /* \"#utility.yul\":261:264   */\n      dup5\n        /* \"#utility.yul\":257:273   */\n      add\n        /* \"#utility.yul\":254:279   */\n      gt\n        /* \"#utility.yul\":251:363   */\n      iszero\n      tag_60\n      jumpi\n        /* \"#utility.yul\":282:361   */\n      tag_61\n      tag_62\n      jump\t// in\n    tag_61:\n        /* \"#utility.yul\":251:363   */\n    tag_60:\n        /* \"#utility.yul\":372:413   */\n      tag_63\n        /* \"#utility.yul\":406:412   */\n      dup5\n        /* \"#utility.yul\":401:404   */\n      dup3\n        /* \"#utility.yul\":396:399   */\n      dup6\n        /* \"#utility.yul\":372:413   */\n      tag_64\n      jump\t// in\n    tag_63:\n        /* \"#utility.yul\":91:419   */\n      pop\n        /* \"#utility.yul\":7:419   */\n      swap4\n      swap3\n      pop\n      pop\n      pop\n      jump\t// out\n        /* \"#utility.yul\":425:568   */\n    tag_65:\n        /* \"#utility.yul\":482:487   */\n      0x00\n        /* \"#utility.yul\":513:519   */\n      dup2\n        /* \"#utility.yul\":507:520   */\n      mload\n        /* \"#utility.yul\":498:520   */\n      swap1\n      pop\n        /* \"#utility.yul\":529:562   */\n      tag_67\n        /* \"#utility.yul\":556:561   */\n      dup2\n        /* \"#utility.yul\":529:562   */\n      tag_68\n      jump\t// in\n    tag_67:\n        /* \"#utility.yul\":425:568   */\n      swap3\n      swap2\n      pop\n      pop\n      jump\t// out\n        /* \"#utility.yul\":588:928   */\n    tag_69:\n        /* \"#utility.yul\":644:649   */\n      0x00\n        /* \"#utility.yul\":693:696   */\n      dup3\n        /* \"#utility.yul\":686:690   */\n      0x1f\n        /* \"#utility.yul\":678:684   */\n      dup4\n        /* \"#utility.yul\":674:691   */\n      add\n        /* \"#utility.yul\":670:697   */\n      slt\n        /* \"#utility.yul\":660:782   */\n      tag_71\n      jumpi\n        /* \"#utility.yul\":701:780   */\n      tag_72\n      tag_73\n      jump\t// in\n    tag_72:\n        /* \"#utility.yul\":660:782   */\n    tag_71:\n        /* \"#utility.yul\":818:824   */\n      dup2\n        /* \"#utility.yul\":805:825   */\n      calldataload\n        /* \"#utility.yul\":843:922   */\n      tag_74\n        /* \"#utility.yul\":918:921   */\n      dup5\n        /* \"#utility.yul\":910:916   */\n      dup3\n        /* \"#utility.yul\":903:907   */\n      0x20\n        /* \"#utility.yul\":895:901   */\n      dup7\n        /* \"#utility.yul\":891:908   */\n      add\n        /* \"#utility.yul\":843:922   */\n      tag_54\n      jump\t// in\n    tag_74:\n        /* \"#utility.yul\":834:922   */\n      swap2\n      pop\n        /* \"#utility.yul\":650:928   */\n      pop\n        /* \"#utility.yul\":588:928   */\n      swap3\n      swap2\n      pop\n      pop\n      jump\t// out\n        /* \"#utility.yul\":934:1285   */\n    tag_26:\n        /* \"#utility.yul\":1004:1010   */\n      0x00\n        /* \"#utility.yul\":1053:1055   */\n      0x20\n        /* \"#utility.yul\":1041:1050   */\n      dup3\n        /* \"#utility.yul\":1032:1039   */\n      dup5\n        /* \"#utility.yul\":1028:1051   */\n      sub\n        /* \"#utility.yul\":1024:1056   */\n      slt\n        /* \"#utility.yul\":1021:1140   */\n      iszero\n      tag_76\n      jumpi\n        /* \"#utility.yul\":1059:1138   */\n      tag_77\n      tag_78\n      jump\t// in\n    tag_77:\n        /* \"#utility.yul\":1021:1140   */\n    tag_76:\n        /* \"#utility.yul\":1179:1180   */\n      0x00\n        /* \"#utility.yul\":1204:1268   */\n      tag_79\n        /* \"#utility.yul\":1260:1267   */\n      dup5\n        /* \"#utility.yul\":1251:1257   */\n      dup3\n        /* \"#utility.yul\":1240:1249   */\n      dup6\n        /* \"#utility.yul\":1236:1258   */\n      add\n        /* \"#utility.yul\":1204:1268   */\n      tag_65\n      jump\t// in\n    tag_79:\n        /* \"#utility.yul\":1194:1268   */\n      swap2\n      pop\n        /* \"#utility.yul\":1150:1278   */\n      pop\n        /* \"#utility.yul\":934:1285   */\n      swap3\n      swap2\n      pop\n      pop\n      jump\t// out\n        /* \"#utility.yul\":1291:1800   */\n    tag_7:\n        /* \"#utility.yul\":1360:1366   */\n      0x00\n        /* \"#utility.yul\":1409:1411   */\n      0x20\n        /* \"#utility.yul\":1397:1406   */\n      dup3\n        /* \"#utility.yul\":1388:1395   */\n      dup5\n        /* \"#utility.yul\":1384:1407   */\n      sub\n        /* \"#utility.yul\":1380:1412   */\n      slt\n        /* \"#utility.yul\":1377:1496   */\n      iszero\n      tag_81\n      jumpi\n        /* \"#utility.yul\":1415:1494   */\n      tag_82\n      tag_78\n      jump\t// in\n    tag_82:\n        /* \"#utility.yul\":1377:1496   */\n    tag_81:\n        /* \"#utility.yul\":1563:1564   */\n      0x00\n        /* \"#utility.yul\":1552:1561   */\n      dup3\n        /* \"#utility.yul\":1548:1565   */\n      add\n        /* \"#utility.yul\":1535:1566   */\n      calldataload\n        /* \"#utility.yul\":1593:1611   */\n      0xffffffffffffffff\n        /* \"#utility.yul\":1585:1591   */\n      dup2\n        /* \"#utility.yul\":1582:1612   */\n      gt\n        /* \"#utility.yul\":1579:1696   */\n      iszero\n      tag_83\n      jumpi\n        /* \"#utility.yul\":1615:1694   */\n      tag_84\n      tag_85\n      jump\t// in\n    tag_84:\n        /* \"#utility.yul\":1579:1696   */\n    tag_83:\n        /* \"#utility.yul\":1720:1783   */\n      tag_86\n        /* \"#utility.yul\":1775:1782   */\n      dup5\n        /* \"#utility.yul\":1766:1772   */\n      dup3\n        /* \"#utility.yul\":1755:1764   */\n      dup6\n        /* \"#utility.yul\":1751:1773   */\n      add\n        /* \"#utility.yul\":1720:1783   */\n      tag_69\n      jump\t// in\n    tag_86:\n        /* \"#utility.yul\":1710:1783   */\n      swap2\n      pop\n        /* \"#utility.yul\":1506:1793   */\n      pop\n        /* \"#utility.yul\":1291:1800   */\n      swap3\n      swap2\n      pop\n      pop\n      jump\t// out\n        /* \"#utility.yul\":1806:1963   */\n    tag_87:\n        /* \"#utility.yul\":1911:1956   */\n      tag_89\n        /* \"#utility.yul\":1931:1955   */\n      tag_90\n        /* \"#utility.yul\":1949:1954   */\n      dup3\n        /* \"#utility.yul\":1931:1955   */\n      tag_91\n      jump\t// in\n    tag_90:\n        /* \"#utility.yul\":1911:1956   */\n      tag_92\n      jump\t// in\n    tag_89:\n        /* \"#utility.yul\":1906:1909   */\n      dup3\n        /* \"#utility.yul\":1899:1957   */\n      mstore\n        /* \"#utility.yul\":1806:1963   */\n      pop\n      pop\n      jump\t// out\n        /* \"#utility.yul\":1969:2342   */\n    tag_93:\n        /* \"#utility.yul\":2073:2076   */\n      0x00\n        /* \"#utility.yul\":2101:2139   */\n      tag_95\n        /* \"#utility.yul\":2133:2138   */\n      dup3\n        /* \"#utility.yul\":2101:2139   */\n      tag_96\n      jump\t// in\n    tag_95:\n        /* \"#utility.yul\":2155:2243   */\n      tag_97\n        /* \"#utility.yul\":2236:2242   */\n      dup2\n        /* \"#utility.yul\":2231:2234   */\n      dup6\n        /* \"#utility.yul\":2155:2243   */\n      tag_98\n      jump\t// in\n    tag_97:\n        /* \"#utility.yul\":2148:2243   */\n      swap4\n      pop\n        /* \"#utility.yul\":2252:2304   */\n      tag_99\n        /* \"#utility.yul\":2297:2303   */\n      dup2\n        /* \"#utility.yul\":2292:2295   */\n      dup6\n        /* \"#utility.yul\":2285:2289   */\n      0x20\n        /* \"#utility.yul\":2278:2283   */\n      dup7\n        /* \"#utility.yul\":2274:2290   */\n      add\n        /* \"#utility.yul\":2252:2304   */\n      tag_100\n      jump\t// in\n    tag_99:\n        /* \"#utility.yul\":2329:2335   */\n      dup1\n        /* \"#utility.yul\":2324:2327   */\n      dup5\n        /* \"#utility.yul\":2320:2336   */\n      add\n        /* \"#utility.yul\":2313:2336   */\n      swap2\n      pop\n        /* \"#utility.yul\":2077:2342   */\n      pop\n        /* \"#utility.yul\":1969:2342   */\n      swap3\n      swap2\n      pop\n      pop\n      jump\t// out\n        /* \"#utility.yul\":2348:2714   */\n    tag_101:\n        /* \"#utility.yul\":2490:2493   */\n      0x00\n        /* \"#utility.yul\":2511:2578   */\n      tag_103\n        /* \"#utility.yul\":2575:2577   */\n      0x12\n        /* \"#utility.yul\":2570:2573   */\n      dup4\n        /* \"#utility.yul\":2511:2578   */\n      tag_104\n      jump\t// in\n    tag_103:\n        /* \"#utility.yul\":2504:2578   */\n      swap2\n      pop\n        /* \"#utility.yul\":2587:2680   */\n      tag_105\n        /* \"#utility.yul\":2676:2679   */\n      dup3\n        /* \"#utility.yul\":2587:2680   */\n      tag_106\n      jump\t// in\n    tag_105:\n        /* \"#utility.yul\":2705:2707   */\n      0x20\n        /* \"#utility.yul\":2700:2703   */\n      dup3\n        /* \"#utility.yul\":2696:2708   */\n      add\n        /* \"#utility.yul\":2689:2708   */\n      swap1\n      pop\n        /* \"#utility.yul\":2348:2714   */\n      swap2\n      swap1\n      pop\n      jump\t// out\n        /* \"#utility.yul\":2720:3086   */\n    tag_107:\n        /* \"#utility.yul\":2862:2865   */\n      0x00\n        /* \"#utility.yul\":2883:2950   */\n      tag_109\n        /* \"#utility.yul\":2947:2949   */\n      0x28\n        /* \"#utility.yul\":2942:2945   */\n      dup4\n        /* \"#utility.yul\":2883:2950   */\n      tag_104\n      jump\t// in\n    tag_109:\n        /* \"#utility.yul\":2876:2950   */\n      swap2\n      pop\n        /* \"#utility.yul\":2959:3052   */\n      tag_110\n        /* \"#utility.yul\":3048:3051   */\n      dup3\n        /* \"#utility.yul\":2959:3052   */\n      tag_111\n      jump\t// in\n    tag_110:\n        /* \"#utility.yul\":3077:3079   */\n      0x40\n        /* \"#utility.yul\":3072:3075   */\n      dup3\n        /* \"#utility.yul\":3068:3080   */\n      add\n        /* \"#utility.yul\":3061:3080   */\n      swap1\n      pop\n        /* \"#utility.yul\":2720:3086   */\n      swap2\n      swap1\n      pop\n      jump\t// out\n        /* \"#utility.yul\":3092:3458   */\n    tag_112:\n        /* \"#utility.yul\":3234:3237   */\n      0x00\n        /* \"#utility.yul\":3255:3322   */\n      tag_114\n        /* \"#utility.yul\":3319:3321   */\n      0x0e\n        /* \"#utility.yul\":3314:3317   */\n      dup4\n        /* \"#utility.yul\":3255:3322   */\n      tag_104\n      jump\t// in\n    tag_114:\n        /* \"#utility.yul\":3248:3322   */\n      swap2\n      pop\n        /* \"#utility.yul\":3331:3424   */\n      tag_115\n        /* \"#utility.yul\":3420:3423   */\n      dup3\n        /* \"#utility.yul\":3331:3424   */\n      tag_116\n      jump\t// in\n    tag_115:\n        /* \"#utility.yul\":3449:3451   */\n      0x20\n        /* \"#utility.yul\":3444:3447   */\n      dup3\n        /* \"#utility.yul\":3440:3452   */\n      add\n        /* \"#utility.yul\":3433:3452   */\n      swap1\n      pop\n        /* \"#utility.yul\":3092:3458   */\n      swap2\n      swap1\n      pop\n      jump\t// out\n        /* \"#utility.yul\":3464:3582   */\n    tag_117:\n        /* \"#utility.yul\":3551:3575   */\n      tag_119\n        /* \"#utility.yul\":3569:3574   */\n      dup2\n        /* \"#utility.yul\":3551:3575   */\n      tag_120\n      jump\t// in\n    tag_119:\n        /* \"#utility.yul\":3546:3549   */\n      dup3\n        /* \"#utility.yul\":3539:3576   */\n      mstore\n        /* \"#utility.yul\":3464:3582   */\n      pop\n      pop\n      jump\t// out\n        /* \"#utility.yul\":3588:3745   */\n    tag_121:\n        /* \"#utility.yul\":3693:3738   */\n      tag_123\n        /* \"#utility.yul\":3713:3737   */\n      tag_124\n        /* \"#utility.yul\":3731:3736   */\n      dup3\n        /* \"#utility.yul\":3713:3737   */\n      tag_120\n      jump\t// in\n    tag_124:\n        /* \"#utility.yul\":3693:3738   */\n      tag_125\n      jump\t// in\n    tag_123:\n        /* \"#utility.yul\":3688:3691   */\n      dup3\n        /* \"#utility.yul\":3681:3739   */\n      mstore\n        /* \"#utility.yul\":3588:3745   */\n      pop\n      pop\n      jump\t// out\n        /* \"#utility.yul\":3751:4022   */\n    tag_22:\n        /* \"#utility.yul\":3881:3884   */\n      0x00\n        /* \"#utility.yul\":3903:3996   */\n      tag_127\n        /* \"#utility.yul\":3992:3995   */\n      dup3\n        /* \"#utility.yul\":3983:3989   */\n      dup5\n        /* \"#utility.yul\":3903:3996   */\n      tag_93\n      jump\t// in\n    tag_127:\n        /* \"#utility.yul\":3896:3996   */\n      swap2\n      pop\n        /* \"#utility.yul\":4013:4016   */\n      dup2\n        /* \"#utility.yul\":4006:4016   */\n      swap1\n      pop\n        /* \"#utility.yul\":3751:4022   */\n      swap3\n      swap2\n      pop\n      pop\n      jump\t// out\n        /* \"#utility.yul\":4028:4707   */\n    tag_20:\n        /* \"#utility.yul\":4224:4227   */\n      0x00\n        /* \"#utility.yul\":4239:4314   */\n      tag_129\n        /* \"#utility.yul\":4310:4313   */\n      dup3\n        /* \"#utility.yul\":4301:4307   */\n      dup8\n        /* \"#utility.yul\":4239:4314   */\n      tag_121\n      jump\t// in\n    tag_129:\n        /* \"#utility.yul\":4339:4341   */\n      0x20\n        /* \"#utility.yul\":4334:4337   */\n      dup3\n        /* \"#utility.yul\":4330:4342   */\n      add\n        /* \"#utility.yul\":4323:4342   */\n      swap2\n      pop\n        /* \"#utility.yul\":4352:4427   */\n      tag_130\n        /* \"#utility.yul\":4423:4426   */\n      dup3\n        /* \"#utility.yul\":4414:4420   */\n      dup7\n        /* \"#utility.yul\":4352:4427   */\n      tag_121\n      jump\t// in\n    tag_130:\n        /* \"#utility.yul\":4452:4454   */\n      0x20\n        /* \"#utility.yul\":4447:4450   */\n      dup3\n        /* \"#utility.yul\":4443:4455   */\n      add\n        /* \"#utility.yul\":4436:4455   */\n      swap2\n      pop\n        /* \"#utility.yul\":4465:4540   */\n      tag_131\n        /* \"#utility.yul\":4536:4539   */\n      dup3\n        /* \"#utility.yul\":4527:4533   */\n      dup6\n        /* \"#utility.yul\":4465:4540   */\n      tag_87\n      jump\t// in\n    tag_131:\n        /* \"#utility.yul\":4565:4567   */\n      0x14\n        /* \"#utility.yul\":4560:4563   */\n      dup3\n        /* \"#utility.yul\":4556:4568   */\n      add\n        /* \"#utility.yul\":4549:4568   */\n      swap2\n      pop\n        /* \"#utility.yul\":4578:4653   */\n      tag_132\n        /* \"#utility.yul\":4649:4652   */\n      dup3\n        /* \"#utility.yul\":4640:4646   */\n      dup5\n        /* \"#utility.yul\":4578:4653   */\n      tag_121\n      jump\t// in\n    tag_132:\n        /* \"#utility.yul\":4678:4680   */\n      0x20\n        /* \"#utility.yul\":4673:4676   */\n      dup3\n        /* \"#utility.yul\":4669:4681   */\n      add\n        /* \"#utility.yul\":4662:4681   */\n      swap2\n      pop\n        /* \"#utility.yul\":4698:4701   */\n      dup2\n        /* \"#utility.yul\":4691:4701   */\n      swap1\n      pop\n        /* \"#utility.yul\":4028:4707   */\n      swap6\n      swap5\n      pop\n      pop\n      pop\n      pop\n      pop\n      jump\t// out\n        /* \"#utility.yul\":4713:5132   */\n    tag_41:\n        /* \"#utility.yul\":4879:4883   */\n      0x00\n        /* \"#utility.yul\":4917:4919   */\n      0x20\n        /* \"#utility.yul\":4906:4915   */\n      dup3\n        /* \"#utility.yul\":4902:4920   */\n      add\n        /* \"#utility.yul\":4894:4920   */\n      swap1\n      pop\n        /* \"#utility.yul\":4966:4975   */\n      dup2\n        /* \"#utility.yul\":4960:4964   */\n      dup2\n        /* \"#utility.yul\":4956:4976   */\n      sub\n        /* \"#utility.yul\":4952:4953   */\n      0x00\n        /* \"#utility.yul\":4941:4950   */\n      dup4\n        /* \"#utility.yul\":4937:4954   */\n      add\n        /* \"#utility.yul\":4930:4977   */\n      mstore\n        /* \"#utility.yul\":4994:5125   */\n      tag_134\n        /* \"#utility.yul\":5120:5124   */\n      dup2\n        /* \"#utility.yul\":4994:5125   */\n      tag_101\n      jump\t// in\n    tag_134:\n        /* \"#utility.yul\":4986:5125   */\n      swap1\n      pop\n        /* \"#utility.yul\":4713:5132   */\n      swap2\n      swap1\n      pop\n      jump\t// out\n        /* \"#utility.yul\":5138:5557   */\n    tag_38:\n        /* \"#utility.yul\":5304:5308   */\n      0x00\n        /* \"#utility.yul\":5342:5344   */\n      0x20\n        /* \"#utility.yul\":5331:5340   */\n      dup3\n        /* \"#utility.yul\":5327:5345   */\n      add\n        /* \"#utility.yul\":5319:5345   */\n      swap1\n      pop\n        /* \"#utility.yul\":5391:5400   */\n      dup2\n        /* \"#utility.yul\":5385:5389   */\n      dup2\n        /* \"#utility.yul\":5381:5401   */\n      sub\n        /* \"#utility.yul\":5377:5378   */\n      0x00\n        /* \"#utility.yul\":5366:5375   */\n      dup4\n        /* \"#utility.yul\":5362:5379   */\n      add\n        /* \"#utility.yul\":5355:5402   */\n      mstore\n        /* \"#utility.yul\":5419:5550   */\n      tag_136\n        /* \"#utility.yul\":5545:5549   */\n      dup2\n        /* \"#utility.yul\":5419:5550   */\n      tag_107\n      jump\t// in\n    tag_136:\n        /* \"#utility.yul\":5411:5550   */\n      swap1\n      pop\n        /* \"#utility.yul\":5138:5557   */\n      swap2\n      swap1\n      pop\n      jump\t// out\n        /* \"#utility.yul\":5563:5982   */\n    tag_32:\n        /* \"#utility.yul\":5729:5733   */\n      0x00\n        /* \"#utility.yul\":5767:5769   */\n      0x20\n        /* \"#utility.yul\":5756:5765   */\n      dup3\n        /* \"#utility.yul\":5752:5770   */\n      add\n        /* \"#utility.yul\":5744:5770   */\n      swap1\n      pop\n        /* \"#utility.yul\":5816:5825   */\n      dup2\n        /* \"#utility.yul\":5810:5814   */\n      dup2\n        /* \"#utility.yul\":5806:5826   */\n      sub\n        /* \"#utility.yul\":5802:5803   */\n      0x00\n        /* \"#utility.yul\":5791:5800   */\n      dup4\n        /* \"#utility.yul\":5787:5804   */\n      add\n        /* \"#utility.yul\":5780:5827   */\n      mstore\n        /* \"#utility.yul\":5844:5975   */\n      tag_138\n        /* \"#utility.yul\":5970:5974   */\n      dup2\n        /* \"#utility.yul\":5844:5975   */\n      tag_112\n      jump\t// in\n    tag_138:\n        /* \"#utility.yul\":5836:5975   */\n      swap1\n      pop\n        /* \"#utility.yul\":5563:5982   */\n      swap2\n      swap1\n      pop\n      jump\t// out\n        /* \"#utility.yul\":5988:6210   */\n    tag_10:\n        /* \"#utility.yul\":6081:6085   */\n      0x00\n        /* \"#utility.yul\":6119:6121   */\n      0x20\n        /* \"#utility.yul\":6108:6117   */\n      dup3\n        /* \"#utility.yul\":6104:6122   */\n      add\n        /* \"#utility.yul\":6096:6122   */\n      swap1\n      pop\n        /* \"#utility.yul\":6132:6203   */\n      tag_140\n        /* \"#utility.yul\":6200:6201   */\n      0x00\n        /* \"#utility.yul\":6189:6198   */\n      dup4\n        /* \"#utility.yul\":6185:6202   */\n      add\n        /* \"#utility.yul\":6176:6182   */\n      dup5\n        /* \"#utility.yul\":6132:6203   */\n      tag_117\n      jump\t// in\n    tag_140:\n        /* \"#utility.yul\":5988:6210   */\n      swap3\n      swap2\n      pop\n      pop\n      jump\t// out\n        /* \"#utility.yul\":6216:6345   */\n    tag_59:\n        /* \"#utility.yul\":6250:6256   */\n      0x00\n        /* \"#utility.yul\":6277:6297   */\n      tag_142\n      tag_143\n      jump\t// in\n    tag_142:\n        /* \"#utility.yul\":6267:6297   */\n      swap1\n      pop\n        /* \"#utility.yul\":6306:6339   */\n      tag_144\n        /* \"#utility.yul\":6334:6338   */\n      dup3\n        /* \"#utility.yul\":6326:6332   */\n      dup3\n        /* \"#utility.yul\":6306:6339   */\n      tag_145\n      jump\t// in\n    tag_144:\n        /* \"#utility.yul\":6216:6345   */\n      swap2\n      swap1\n      pop\n      jump\t// out\n        /* \"#utility.yul\":6351:6426   */\n    tag_143:\n        /* \"#utility.yul\":6384:6390   */\n      0x00\n        /* \"#utility.yul\":6417:6419   */\n      0x40\n        /* \"#utility.yul\":6411:6420   */\n      mload\n        /* \"#utility.yul\":6401:6420   */\n      swap1\n      pop\n        /* \"#utility.yul\":6351:6426   */\n      swap1\n      jump\t// out\n        /* \"#utility.yul\":6432:6740   */\n    tag_58:\n        /* \"#utility.yul\":6494:6498   */\n      0x00\n        /* \"#utility.yul\":6584:6602   */\n      0xffffffffffffffff\n        /* \"#utility.yul\":6576:6582   */\n      dup3\n        /* \"#utility.yul\":6573:6603   */\n      gt\n        /* \"#utility.yul\":6570:6626   */\n      iszero\n      tag_148\n      jumpi\n        /* \"#utility.yul\":6606:6624   */\n      tag_149\n      tag_150\n      jump\t// in\n    tag_149:\n        /* \"#utility.yul\":6570:6626   */\n    tag_148:\n        /* \"#utility.yul\":6644:6673   */\n      tag_151\n        /* \"#utility.yul\":6666:6672   */\n      dup3\n        /* \"#utility.yul\":6644:6673   */\n      tag_152\n      jump\t// in\n    tag_151:\n        /* \"#utility.yul\":6636:6673   */\n      swap1\n      pop\n        /* \"#utility.yul\":6728:6732   */\n      0x20\n        /* \"#utility.yul\":6722:6726   */\n      dup2\n        /* \"#utility.yul\":6718:6733   */\n      add\n        /* \"#utility.yul\":6710:6733   */\n      swap1\n      pop\n        /* \"#utility.yul\":6432:6740   */\n      swap2\n      swap1\n      pop\n      jump\t// out\n        /* \"#utility.yul\":6746:6844   */\n    tag_96:\n        /* \"#utility.yul\":6797:6803   */\n      0x00\n        /* \"#utility.yul\":6831:6836   */\n      dup2\n        /* \"#utility.yul\":6825:6837   */\n      mload\n        /* \"#utility.yul\":6815:6837   */\n      swap1\n      pop\n        /* \"#utility.yul\":6746:6844   */\n      swap2\n      swap1\n      pop\n      jump\t// out\n        /* \"#utility.yul\":6850:6997   */\n    tag_98:\n        /* \"#utility.yul\":6951:6962   */\n      0x00\n        /* \"#utility.yul\":6988:6991   */\n      dup2\n        /* \"#utility.yul\":6973:6991   */\n      swap1\n      pop\n        /* \"#utility.yul\":6850:6997   */\n      swap3\n      swap2\n      pop\n      pop\n      jump\t// out\n        /* \"#utility.yul\":7003:7172   */\n    tag_104:\n        /* \"#utility.yul\":7087:7098   */\n      0x00\n        /* \"#utility.yul\":7121:7127   */\n      dup3\n        /* \"#utility.yul\":7116:7119   */\n      dup3\n        /* \"#utility.yul\":7109:7128   */\n      mstore\n        /* \"#utility.yul\":7161:7165   */\n      0x20\n        /* \"#utility.yul\":7156:7159   */\n      dup3\n        /* \"#utility.yul\":7152:7166   */\n      add\n        /* \"#utility.yul\":7137:7166   */\n      swap1\n      pop\n        /* \"#utility.yul\":7003:7172   */\n      swap3\n      swap2\n      pop\n      pop\n      jump\t// out\n        /* \"#utility.yul\":7178:7274   */\n    tag_91:\n        /* \"#utility.yul\":7215:7222   */\n      0x00\n        /* \"#utility.yul\":7244:7268   */\n      tag_157\n        /* \"#utility.yul\":7262:7267   */\n      dup3\n        /* \"#utility.yul\":7244:7268   */\n      tag_158\n      jump\t// in\n    tag_157:\n        /* \"#utility.yul\":7233:7268   */\n      swap1\n      pop\n        /* \"#utility.yul\":7178:7274   */\n      swap2\n      swap1\n      pop\n      jump\t// out\n        /* \"#utility.yul\":7280:7357   */\n    tag_159:\n        /* \"#utility.yul\":7317:7324   */\n      0x00\n        /* \"#utility.yul\":7346:7351   */\n      dup2\n        /* \"#utility.yul\":7335:7351   */\n      swap1\n      pop\n        /* \"#utility.yul\":7280:7357   */\n      swap2\n      swap1\n      pop\n      jump\t// out\n        /* \"#utility.yul\":7363:7489   */\n    tag_158:\n        /* \"#utility.yul\":7400:7407   */\n      0x00\n        /* \"#utility.yul\":7440:7482   */\n      0xffffffffffffffffffffffffffffffffffffffff\n        /* \"#utility.yul\":7433:7438   */\n      dup3\n        /* \"#utility.yul\":7429:7483   */\n      and\n        /* \"#utility.yul\":7418:7483   */\n      swap1\n      pop\n        /* \"#utility.yul\":7363:7489   */\n      swap2\n      swap1\n      pop\n      jump\t// out\n        /* \"#utility.yul\":7495:7572   */\n    tag_120:\n        /* \"#utility.yul\":7532:7539   */\n      0x00\n        /* \"#utility.yul\":7561:7566   */\n      dup2\n        /* \"#utility.yul\":7550:7566   */\n      swap1\n      pop\n        /* \"#utility.yul\":7495:7572   */\n      swap2\n      swap1\n      pop\n      jump\t// out\n        /* \"#utility.yul\":7578:7732   */\n    tag_64:\n        /* \"#utility.yul\":7662:7668   */\n      dup3\n        /* \"#utility.yul\":7657:7660   */\n      dup2\n        /* \"#utility.yul\":7652:7655   */\n      dup4\n        /* \"#utility.yul\":7639:7669   */\n      calldatacopy\n        /* \"#utility.yul\":7724:7725   */\n      0x00\n        /* \"#utility.yul\":7715:7721   */\n      dup4\n        /* \"#utility.yul\":7710:7713   */\n      dup4\n        /* \"#utility.yul\":7706:7722   */\n      add\n        /* \"#utility.yul\":7699:7726   */\n      mstore\n        /* \"#utility.yul\":7578:7732   */\n      pop\n      pop\n      pop\n      jump\t// out\n        /* \"#utility.yul\":7738:8045   */\n    tag_100:\n        /* \"#utility.yul\":7806:7807   */\n      0x00\n        /* \"#utility.yul\":7816:7929   */\n    tag_165:\n        /* \"#utility.yul\":7830:7836   */\n      dup4\n        /* \"#utility.yul\":7827:7828   */\n      dup2\n        /* \"#utility.yul\":7824:7837   */\n      lt\n        /* \"#utility.yul\":7816:7929   */\n      iszero\n      tag_167\n      jumpi\n        /* \"#utility.yul\":7915:7916   */\n      dup1\n        /* \"#utility.yul\":7910:7913   */\n      dup3\n        /* \"#utility.yul\":7906:7917   */\n      add\n        /* \"#utility.yul\":7900:7918   */\n      mload\n        /* \"#utility.yul\":7896:7897   */\n      dup2\n        /* \"#utility.yul\":7891:7894   */\n      dup5\n        /* \"#utility.yul\":7887:7898   */\n      add\n        /* \"#utility.yul\":7880:7919   */\n      mstore\n        /* \"#utility.yul\":7852:7854   */\n      0x20\n        /* \"#utility.yul\":7849:7850   */\n      dup2\n        /* \"#utility.yul\":7845:7855   */\n      add\n        /* \"#utility.yul\":7840:7855   */\n      swap1\n      pop\n        /* \"#utility.yul\":7816:7929   */\n      jump(tag_165)\n    tag_167:\n        /* \"#utility.yul\":7947:7953   */\n      dup4\n        /* \"#utility.yul\":7944:7945   */\n      dup2\n        /* \"#utility.yul\":7941:7954   */\n      gt\n        /* \"#utility.yul\":7938:8039   */\n      iszero\n      tag_168\n      jumpi\n        /* \"#utility.yul\":8027:8028   */\n      0x00\n        /* \"#utility.yul\":8018:8024   */\n      dup5\n        /* \"#utility.yul\":8013:8016   */\n      dup5\n        /* \"#utility.yul\":8009:8025   */\n      add\n        /* \"#utility.yul\":8002:8029   */\n      mstore\n        /* \"#utility.yul\":7938:8039   */\n    tag_168:\n        /* \"#utility.yul\":7787:8045   */\n      pop\n        /* \"#utility.yul\":7738:8045   */\n      pop\n      pop\n      pop\n      jump\t// out\n        /* \"#utility.yul\":8051:8371   */\n    tag_43:\n        /* \"#utility.yul\":8095:8101   */\n      0x00\n        /* \"#utility.yul\":8132:8133   */\n      0x02\n        /* \"#utility.yul\":8126:8130   */\n      dup3\n        /* \"#utility.yul\":8122:8134   */\n      div\n        /* \"#utility.yul\":8112:8134   */\n      swap1\n      pop\n        /* \"#utility.yul\":8179:8180   */\n      0x01\n        /* \"#utility.yul\":8173:8177   */\n      dup3\n        /* \"#utility.yul\":8169:8181   */\n      and\n        /* \"#utility.yul\":8200:8218   */\n      dup1\n        /* \"#utility.yul\":8190:8271   */\n      tag_170\n      jumpi\n        /* \"#utility.yul\":8256:8260   */\n      0x7f\n        /* \"#utility.yul\":8248:8254   */\n      dup3\n        /* \"#utility.yul\":8244:8261   */\n      and\n        /* \"#utility.yul\":8234:8261   */\n      swap2\n      pop\n        /* \"#utility.yul\":8190:8271   */\n    tag_170:\n        /* \"#utility.yul\":8318:8320   */\n      0x20\n        /* \"#utility.yul\":8310:8316   */\n      dup3\n        /* \"#utility.yul\":8307:8321   */\n      lt\n        /* \"#utility.yul\":8287:8305   */\n      dup2\n        /* \"#utility.yul\":8284:8322   */\n      eq\n        /* \"#utility.yul\":8281:8365   */\n      iszero\n      tag_171\n      jumpi\n        /* \"#utility.yul\":8337:8355   */\n      tag_172\n      tag_173\n      jump\t// in\n    tag_172:\n        /* \"#utility.yul\":8281:8365   */\n    tag_171:\n        /* \"#utility.yul\":8102:8371   */\n      pop\n        /* \"#utility.yul\":8051:8371   */\n      swap2\n      swap1\n      pop\n      jump\t// out\n        /* \"#utility.yul\":8377:8658   */\n    tag_145:\n        /* \"#utility.yul\":8460:8487   */\n      tag_175\n        /* \"#utility.yul\":8482:8486   */\n      dup3\n        /* \"#utility.yul\":8460:8487   */\n      tag_152\n      jump\t// in\n    tag_175:\n        /* \"#utility.yul\":8452:8458   */\n      dup2\n        /* \"#utility.yul\":8448:8488   */\n      add\n        /* \"#utility.yul\":8590:8596   */\n      dup2\n        /* \"#utility.yul\":8578:8588   */\n      dup2\n        /* \"#utility.yul\":8575:8597   */\n      lt\n        /* \"#utility.yul\":8554:8572   */\n      0xffffffffffffffff\n        /* \"#utility.yul\":8542:8552   */\n      dup3\n        /* \"#utility.yul\":8539:8573   */\n      gt\n        /* \"#utility.yul\":8536:8598   */\n      or\n        /* \"#utility.yul\":8533:8621   */\n      iszero\n      tag_176\n      jumpi\n        /* \"#utility.yul\":8601:8619   */\n      tag_177\n      tag_150\n      jump\t// in\n    tag_177:\n        /* \"#utility.yul\":8533:8621   */\n    tag_176:\n        /* \"#utility.yul\":8641:8651   */\n      dup1\n        /* \"#utility.yul\":8637:8639   */\n      0x40\n        /* \"#utility.yul\":8630:8652   */\n      mstore\n        /* \"#utility.yul\":8420:8658   */\n      pop\n        /* \"#utility.yul\":8377:8658   */\n      pop\n      pop\n      jump\t// out\n        /* \"#utility.yul\":8664:8764   */\n    tag_92:\n        /* \"#utility.yul\":8703:8710   */\n      0x00\n        /* \"#utility.yul\":8732:8758   */\n      tag_179\n        /* \"#utility.yul\":8752:8757   */\n      dup3\n        /* \"#utility.yul\":8732:8758   */\n      tag_180\n      jump\t// in\n    tag_179:\n        /* \"#utility.yul\":8721:8758   */\n      swap1\n      pop\n        /* \"#utility.yul\":8664:8764   */\n      swap2\n      swap1\n      pop\n      jump\t// out\n        /* \"#utility.yul\":8770:8864   */\n    tag_180:\n        /* \"#utility.yul\":8809:8816   */\n      0x00\n        /* \"#utility.yul\":8838:8858   */\n      tag_182\n        /* \"#utility.yul\":8852:8857   */\n      dup3\n        /* \"#utility.yul\":8838:8858   */\n      tag_183\n      jump\t// in\n    tag_182:\n        /* \"#utility.yul\":8827:8858   */\n      swap1\n      pop\n        /* \"#utility.yul\":8770:8864   */\n      swap2\n      swap1\n      pop\n      jump\t// out\n        /* \"#utility.yul\":8870:8949   */\n    tag_125:\n        /* \"#utility.yul\":8909:8916   */\n      0x00\n        /* \"#utility.yul\":8938:8943   */\n      dup2\n        /* \"#utility.yul\":8927:8943   */\n      swap1\n      pop\n        /* \"#utility.yul\":8870:8949   */\n      swap2\n      swap1\n      pop\n      jump\t// out\n        /* \"#utility.yul\":8955:9135   */\n    tag_173:\n        /* \"#utility.yul\":9003:9080   */\n      0x4e487b7100000000000000000000000000000000000000000000000000000000\n        /* \"#utility.yul\":9000:9001   */\n      0x00\n        /* \"#utility.yul\":8993:9081   */\n      mstore\n        /* \"#utility.yul\":9100:9104   */\n      0x22\n        /* \"#utility.yul\":9097:9098   */\n      0x04\n        /* \"#utility.yul\":9090:9105   */\n      mstore\n        /* \"#utility.yul\":9124:9128   */\n      0x24\n        /* \"#utility.yul\":9121:9122   */\n      0x00\n        /* \"#utility.yul\":9114:9129   */\n      revert\n        /* \"#utility.yul\":9141:9321   */\n    tag_150:\n        /* \"#utility.yul\":9189:9266   */\n      0x4e487b7100000000000000000000000000000000000000000000000000000000\n        /* \"#utility.yul\":9186:9187   */\n      0x00\n        /* \"#utility.yul\":9179:9267   */\n      mstore\n        /* \"#utility.yul\":9286:9290   */\n      0x41\n        /* \"#utility.yul\":9283:9284   */\n      0x04\n        /* \"#utility.yul\":9276:9291   */\n      mstore\n        /* \"#utility.yul\":9310:9314   */\n      0x24\n        /* \"#utility.yul\":9307:9308   */\n      0x00\n        /* \"#utility.yul\":9300:9315   */\n      revert\n        /* \"#utility.yul\":9327:9444   */\n    tag_73:\n        /* \"#utility.yul\":9436:9437   */\n      0x00\n        /* \"#utility.yul\":9433:9434   */\n      dup1\n        /* \"#utility.yul\":9426:9438   */\n      revert\n        /* \"#utility.yul\":9450:9567   */\n    tag_62:\n        /* \"#utility.yul\":9559:9560   */\n      0x00\n        /* \"#utility.yul\":9556:9557   */\n      dup1\n        /* \"#utility.yul\":9549:9561   */\n      revert\n        /* \"#utility.yul\":9573:9690   */\n    tag_85:\n        /* \"#utility.yul\":9682:9683   */\n      0x00\n        /* \"#utility.yul\":9679:9680   */\n      dup1\n        /* \"#utility.yul\":9672:9684   */\n      revert\n        /* \"#utility.yul\":9696:9813   */\n    tag_78:\n        /* \"#utility.yul\":9805:9806   */\n      0x00\n        /* \"#utility.yul\":9802:9803   */\n      dup1\n        /* \"#utility.yul\":9795:9807   */\n      revert\n        /* \"#utility.yul\":9819:9921   */\n    tag_152:\n        /* \"#utility.yul\":9860:9866   */\n      0x00\n        /* \"#utility.yul\":9911:9913   */\n      0x1f\n        /* \"#utility.yul\":9907:9914   */\n      not\n        /* \"#utility.yul\":9902:9904   */\n      0x1f\n        /* \"#utility.yul\":9895:9900   */\n      dup4\n        /* \"#utility.yul\":9891:9905   */\n      add\n        /* \"#utility.yul\":9887:9915   */\n      and\n        /* \"#utility.yul\":9877:9915   */\n      swap1\n      pop\n        /* \"#utility.yul\":9819:9921   */\n      swap2\n      swap1\n      pop\n      jump\t// out\n        /* \"#utility.yul\":9927:10021   */\n    tag_183:\n        /* \"#utility.yul\":9960:9968   */\n      0x00\n        /* \"#utility.yul\":10008:10013   */\n      dup2\n        /* \"#utility.yul\":10004:10006   */\n      0x60\n        /* \"#utility.yul\":10000:10014   */\n      shl\n        /* \"#utility.yul\":9979:10014   */\n      swap1\n      pop\n        /* \"#utility.yul\":9927:10021   */\n      swap2\n      swap1\n      pop\n      jump\t// out\n        /* \"#utility.yul\":10027:10195   */\n    tag_106:\n        /* \"#utility.yul\":10167:10187   */\n      0x416c7265616479205369676e6564207570210000000000000000000000000000\n        /* \"#utility.yul\":10163:10164   */\n      0x00\n        /* \"#utility.yul\":10155:10161   */\n      dup3\n        /* \"#utility.yul\":10151:10165   */\n      add\n        /* \"#utility.yul\":10144:10188   */\n      mstore\n        /* \"#utility.yul\":10027:10195   */\n      pop\n      jump\t// out\n        /* \"#utility.yul\":10201:10428   */\n    tag_111:\n        /* \"#utility.yul\":10341:10375   */\n      0x5369676e2d75702072656a65637465642120496e616465717561746520737461\n        /* \"#utility.yul\":10337:10338   */\n      0x00\n        /* \"#utility.yul\":10329:10335   */\n      dup3\n        /* \"#utility.yul\":10325:10339   */\n      add\n        /* \"#utility.yul\":10318:10376   */\n      mstore\n        /* \"#utility.yul\":10410:10420   */\n      0x6b652076616c7565000000000000000000000000000000000000000000000000\n        /* \"#utility.yul\":10405:10407   */\n      0x20\n        /* \"#utility.yul\":10397:10403   */\n      dup3\n        /* \"#utility.yul\":10393:10408   */\n      add\n        /* \"#utility.yul\":10386:10421   */\n      mstore\n        /* \"#utility.yul\":10201:10428   */\n      pop\n      jump\t// out\n        /* \"#utility.yul\":10434:10598   */\n    tag_116:\n        /* \"#utility.yul\":10574:10590   */\n      0x4e6f74207369676e656420757021000000000000000000000000000000000000\n        /* \"#utility.yul\":10570:10571   */\n      0x00\n        /* \"#utility.yul\":10562:10568   */\n      dup3\n        /* \"#utility.yul\":10558:10572   */\n      add\n        /* \"#utility.yul\":10551:10591   */\n      mstore\n        /* \"#utility.yul\":10434:10598   */\n      pop\n      jump\t// out\n        /* \"#utility.yul\":10604:10726   */\n    tag_68:\n        /* \"#utility.yul\":10677:10701   */\n      tag_197\n        /* \"#utility.yul\":10695:10700   */\n      dup2\n        /* \"#utility.yul\":10677:10701   */\n      tag_159\n      jump\t// in\n    tag_197:\n        /* \"#utility.yul\":10670:10675   */\n      dup2\n        /* \"#utility.yul\":10667:10702   */\n      eq\n        /* \"#utility.yul\":10657:10720   */\n      tag_198\n      jumpi\n        /* \"#utility.yul\":10716:10717   */\n      0x00\n        /* \"#utility.yul\":10713:10714   */\n      dup1\n        /* \"#utility.yul\":10706:10718   */\n      revert\n        /* \"#utility.yul\":10657:10720   */\n    tag_198:\n        /* \"#utility.yul\":10604:10726   */\n      pop\n      jump\t// out\n\n    auxdata: 0xa26469706673582212206c2a460b46c69b0e1d831c94d49b060ddf25d982459dbf1376f08a19dd1d0c2564736f6c63430008070033\n}\n",
				"bytecode": {
					"linkReferences": {},
					"object": "608060405234801561001057600080fd5b50610a75806100206000396000f3fe6080604052600436106100345760003560e01c8063969b156714610039578063c09f8ff614610069578063c4fb333714610080575b600080fd5b610053600480360381019061004e9190610561565b61009e565b6040516100609190610746565b60405180910390f35b34801561007557600080fd5b5061007e6101f9565b005b61008861032b565b6040516100959190610746565b60405180910390f35b6000678ac7230489e800003410156100b557600080fd5b600060024244336002546040516020016100d29493929190610698565b6040516020818303038152906040526040516100ee9190610681565b602060405180830381855afa15801561010b573d6000803e3d6000fd5b5050506040513d601f19601f8201168201806040525081019061012e9190610534565b60001c90508060016000600354815260200190815260200160002060010181905550600354600160006003548152602001908152602001600020600001819055503360016000600354815260200190815260200160002060040160006101000a81548173ffffffffffffffffffffffffffffffffffffffff021916908373ffffffffffffffffffffffffffffffffffffffff1602179055508260016000600354815260200190815260200160002060030190805190602001906101f292919061040c565b5050919050565b600115156000803373ffffffffffffffffffffffffffffffffffffffff1673ffffffffffffffffffffffffffffffffffffffff16815260200190815260200160002060009054906101000a900460ff1615151461028b576040517f08c379a000000000000000000000000000000000000000000000000000000000815260040161028290610726565b60405180910390fd5b600015156000803373ffffffffffffffffffffffffffffffffffffffff1673ffffffffffffffffffffffffffffffffffffffff16815260200190815260200160002060009054906101000a905050503373ffffffffffffffffffffffffffffffffffffffff166108fc670de0b6b3a76400009081150290604051600060405180830381858888f19350505050158015610328573d6000803e3d6000fd5b50565b6000670de0b6b3a76400003414610377576040517f08c379a000000000000000000000000000000000000000000000000000000000815260040161036e90610706565b60405180910390fd5b600015156000803373ffffffffffffffffffffffffffffffffffffffff1673ffffffffffffffffffffffffffffffffffffffff16815260200190815260200160002060009054906101000a900460ff16151514610409576040517f08c379a0000000000000000000000000000000000000000000000000000000008152600401610400906106e6565b60405180910390fd5b90565b82805461041890610866565b90600052602060002090601f01602090048101928261043a5760008555610481565b82601f1061045357805160ff1916838001178555610481565b82800160010185558215610481579182015b82811115610480578251825591602001919060010190610465565b5b50905061048e9190610492565b5090565b5b808211156104ab576000816000905550600101610493565b5090565b60006104c26104bd84610786565b610761565b9050828152602081018484840111156104de576104dd61095a565b5b6104e9848285610824565b509392505050565b60008151905061050081610a28565b92915050565b600082601f83011261051b5761051a610955565b5b813561052b8482602086016104af565b91505092915050565b60006020828403121561054a57610549610964565b5b6000610558848285016104f1565b91505092915050565b60006020828403121561057757610576610964565b5b600082013567ffffffffffffffff8111156105955761059461095f565b5b6105a184828501610506565b91505092915050565b6105bb6105b6826107de565b6108c9565b82525050565b60006105cc826107b7565b6105d681856107c2565b93506105e6818560208601610833565b80840191505092915050565b60006105ff6012836107cd565b915061060a82610987565b602082019050919050565b60006106226028836107cd565b915061062d826109b0565b604082019050919050565b6000610645600e836107cd565b9150610650826109ff565b602082019050919050565b6106648161081a565b82525050565b61067b6106768261081a565b6108ed565b82525050565b600061068d82846105c1565b915081905092915050565b60006106a4828761066a565b6020820191506106b4828661066a565b6020820191506106c482856105aa565b6014820191506106d4828461066a565b60208201915081905095945050505050565b600060208201905081810360008301526106ff816105f2565b9050919050565b6000602082019050818103600083015261071f81610615565b9050919050565b6000602082019050818103600083015261073f81610638565b9050919050565b600060208201905061075b600083018461065b565b92915050565b600061076b61077c565b90506107778282610898565b919050565b6000604051905090565b600067ffffffffffffffff8211156107a1576107a0610926565b5b6107aa82610969565b9050602081019050919050565b600081519050919050565b600081905092915050565b600082825260208201905092915050565b60006107e9826107fa565b9050919050565b6000819050919050565b600073ffffffffffffffffffffffffffffffffffffffff82169050919050565b6000819050919050565b82818337600083830152505050565b60005b83811015610851578082015181840152602081019050610836565b83811115610860576000848401525b50505050565b6000600282049050600182168061087e57607f821691505b60208210811415610892576108916108f7565b5b50919050565b6108a182610969565b810181811067ffffffffffffffff821117156108c0576108bf610926565b5b80604052505050565b60006108d4826108db565b9050919050565b60006108e68261097a565b9050919050565b6000819050919050565b7f4e487b7100000000000000000000000000000000000000000000000000000000600052602260045260246000fd5b7f4e487b7100000000000000000000000000000000000000000000000000000000600052604160045260246000fd5b600080fd5b600080fd5b600080fd5b600080fd5b6000601f19601f8301169050919050565b60008160601b9050919050565b7f416c7265616479205369676e6564207570210000000000000000000000000000600082015250565b7f5369676e2d75702072656a65637465642120496e61646571756174652073746160008201527f6b652076616c7565000000000000000000000000000000000000000000000000602082015250565b7f4e6f74207369676e656420757021000000000000000000000000000000000000600082015250565b610a31816107f0565b8114610a3c57600080fd5b5056fea26469706673582212206c2a460b46c69b0e1d831c94d49b060ddf25d982459dbf1376f08a19dd1d0c2564736f6c63430008070033",
					"opcodes": "PUSH1 0x80 PUSH1 0x40 MSTORE CALLVALUE DUP1 ISZERO PUSH2 0x10 JUMPI PUSH1 0x0 DUP1 REVERT JUMPDEST POP PUSH2 0xA75 DUP1 PUSH2 0x20 PUSH1 0x0 CODECOPY PUSH1 0x0 RETURN INVALID PUSH1 0x80 PUSH1 0x40 MSTORE PUSH1 0x4 CALLDATASIZE LT PUSH2 0x34 JUMPI PUSH1 0x0 CALLDATALOAD PUSH1 0xE0 SHR DUP1 PUSH4 0x969B1567 EQ PUSH2 0x39 JUMPI DUP1 PUSH4 0xC09F8FF6 EQ PUSH2 0x69 JUMPI DUP1 PUSH4 0xC4FB3337 EQ PUSH2 0x80 JUMPI JUMPDEST PUSH1 0x0 DUP1 REVERT JUMPDEST PUSH2 0x53 PUSH1 0x4 DUP1 CALLDATASIZE SUB DUP2 ADD SWAP1 PUSH2 0x4E SWAP2 SWAP1 PUSH2 0x561 JUMP JUMPDEST PUSH2 0x9E JUMP JUMPDEST PUSH1 0x40 MLOAD PUSH2 0x60 SWAP2 SWAP1 PUSH2 0x746 JUMP JUMPDEST PUSH1 0x40 MLOAD DUP1 SWAP2 SUB SWAP1 RETURN JUMPDEST CALLVALUE DUP1 ISZERO PUSH2 0x75 JUMPI PUSH1 0x0 DUP1 REVERT JUMPDEST POP PUSH2 0x7E PUSH2 0x1F9 JUMP JUMPDEST STOP JUMPDEST PUSH2 0x88 PUSH2 0x32B JUMP JUMPDEST PUSH1 0x40 MLOAD PUSH2 0x95 SWAP2 SWAP1 PUSH2 0x746 JUMP JUMPDEST PUSH1 0x40 MLOAD DUP1 SWAP2 SUB SWAP1 RETURN JUMPDEST PUSH1 0x0 PUSH8 0x8AC7230489E80000 CALLVALUE LT ISZERO PUSH2 0xB5 JUMPI PUSH1 0x0 DUP1 REVERT JUMPDEST PUSH1 0x0 PUSH1 0x2 TIMESTAMP DIFFICULTY CALLER PUSH1 0x2 SLOAD PUSH1 0x40 MLOAD PUSH1 0x20 ADD PUSH2 0xD2 SWAP5 SWAP4 SWAP3 SWAP2 SWAP1 PUSH2 0x698 JUMP JUMPDEST PUSH1 0x40 MLOAD PUSH1 0x20 DUP2 DUP4 SUB SUB DUP2 MSTORE SWAP1 PUSH1 0x40 MSTORE PUSH1 0x40 MLOAD PUSH2 0xEE SWAP2 SWAP1 PUSH2 0x681 JUMP JUMPDEST PUSH1 0x20 PUSH1 0x40 MLOAD DUP1 DUP4 SUB DUP2 DUP6 GAS STATICCALL ISZERO DUP1 ISZERO PUSH2 0x10B JUMPI RETURNDATASIZE PUSH1 0x0 DUP1 RETURNDATACOPY RETURNDATASIZE PUSH1 0x0 REVERT JUMPDEST POP POP POP PUSH1 0x40 MLOAD RETURNDATASIZE PUSH1 0x1F NOT PUSH1 0x1F DUP3 ADD AND DUP3 ADD DUP1 PUSH1 0x40 MSTORE POP DUP2 ADD SWAP1 PUSH2 0x12E SWAP2 SWAP1 PUSH2 0x534 JUMP JUMPDEST PUSH1 0x0 SHR SWAP1 POP DUP1 PUSH1 0x1 PUSH1 0x0 PUSH1 0x3 SLOAD DUP2 MSTORE PUSH1 0x20 ADD SWAP1 DUP2 MSTORE PUSH1 0x20 ADD PUSH1 0x0 KECCAK256 PUSH1 0x1 ADD DUP2 SWAP1 SSTORE POP PUSH1 0x3 SLOAD PUSH1 0x1 PUSH1 0x0 PUSH1 0x3 SLOAD DUP2 MSTORE PUSH1 0x20 ADD SWAP1 DUP2 MSTORE PUSH1 0x20 ADD PUSH1 0x0 KECCAK256 PUSH1 0x0 ADD DUP2 SWAP1 SSTORE POP CALLER PUSH1 0x1 PUSH1 0x0 PUSH1 0x3 SLOAD DUP2 MSTORE PUSH1 0x20 ADD SWAP1 DUP2 MSTORE PUSH1 0x20 ADD PUSH1 0x0 KECCAK256 PUSH1 0x4 ADD PUSH1 0x0 PUSH2 0x100 EXP DUP2 SLOAD DUP2 PUSH20 0xFFFFFFFFFFFFFFFFFFFFFFFFFFFFFFFFFFFFFFFF MUL NOT AND SWAP1 DUP4 PUSH20 0xFFFFFFFFFFFFFFFFFFFFFFFFFFFFFFFFFFFFFFFF AND MUL OR SWAP1 SSTORE POP DUP3 PUSH1 0x1 PUSH1 0x0 PUSH1 0x3 SLOAD DUP2 MSTORE PUSH1 0x20 ADD SWAP1 DUP2 MSTORE PUSH1 0x20 ADD PUSH1 0x0 KECCAK256 PUSH1 0x3 ADD SWAP1 DUP1 MLOAD SWAP1 PUSH1 0x20 ADD SWAP1 PUSH2 0x1F2 SWAP3 SWAP2 SWAP1 PUSH2 0x40C JUMP JUMPDEST POP POP SWAP2 SWAP1 POP JUMP JUMPDEST PUSH1 0x1 ISZERO ISZERO PUSH1 0x0 DUP1 CALLER PUSH20 0xFFFFFFFFFFFFFFFFFFFFFFFFFFFFFFFFFFFFFFFF AND PUSH20 0xFFFFFFFFFFFFFFFFFFFFFFFFFFFFFFFFFFFFFFFF AND DUP2 MSTORE PUSH1 0x20 ADD SWAP1 DUP2 MSTORE PUSH1 0x20 ADD PUSH1 0x0 KECCAK256 PUSH1 0x0 SWAP1 SLOAD SWAP1 PUSH2 0x100 EXP SWAP1 DIV PUSH1 0xFF AND ISZERO ISZERO EQ PUSH2 0x28B JUMPI PUSH1 0x40 MLOAD PUSH32 0x8C379A000000000000000000000000000000000000000000000000000000000 DUP2 MSTORE PUSH1 0x4 ADD PUSH2 0x282 SWAP1 PUSH2 0x726 JUMP JUMPDEST PUSH1 0x40 MLOAD DUP1 SWAP2 SUB SWAP1 REVERT JUMPDEST PUSH1 0x0 ISZERO ISZERO PUSH1 0x0 DUP1 CALLER PUSH20 0xFFFFFFFFFFFFFFFFFFFFFFFFFFFFFFFFFFFFFFFF AND PUSH20 0xFFFFFFFFFFFFFFFFFFFFFFFFFFFFFFFFFFFFFFFF AND DUP2 MSTORE PUSH1 0x20 ADD SWAP1 DUP2 MSTORE PUSH1 0x20 ADD PUSH1 0x0 KECCAK256 PUSH1 0x0 SWAP1 SLOAD SWAP1 PUSH2 0x100 EXP SWAP1 POP POP POP CALLER PUSH20 0xFFFFFFFFFFFFFFFFFFFFFFFFFFFFFFFFFFFFFFFF AND PUSH2 0x8FC PUSH8 0xDE0B6B3A7640000 SWAP1 DUP2 ISZERO MUL SWAP1 PUSH1 0x40 MLOAD PUSH1 0x0 PUSH1 0x40 MLOAD DUP1 DUP4 SUB DUP2 DUP6 DUP9 DUP9 CALL SWAP4 POP POP POP POP ISZERO DUP1 ISZERO PUSH2 0x328 JUMPI RETURNDATASIZE PUSH1 0x0 DUP1 RETURNDATACOPY RETURNDATASIZE PUSH1 0x0 REVERT JUMPDEST POP JUMP JUMPDEST PUSH1 0x0 PUSH8 0xDE0B6B3A7640000 CALLVALUE EQ PUSH2 0x377 JUMPI PUSH1 0x40 MLOAD PUSH32 0x8C379A000000000000000000000000000000000000000000000000000000000 DUP2 MSTORE PUSH1 0x4 ADD PUSH2 0x36E SWAP1 PUSH2 0x706 JUMP JUMPDEST PUSH1 0x40 MLOAD DUP1 SWAP2 SUB SWAP1 REVERT JUMPDEST PUSH1 0x0 ISZERO ISZERO PUSH1 0x0 DUP1 CALLER PUSH20 0xFFFFFFFFFFFFFFFFFFFFFFFFFFFFFFFFFFFFFFFF AND PUSH20 0xFFFFFFFFFFFFFFFFFFFFFFFFFFFFFFFFFFFFFFFF AND DUP2 MSTORE PUSH1 0x20 ADD SWAP1 DUP2 MSTORE PUSH1 0x20 ADD PUSH1 0x0 KECCAK256 PUSH1 0x0 SWAP1 SLOAD SWAP1 PUSH2 0x100 EXP SWAP1 DIV PUSH1 0xFF AND ISZERO ISZERO EQ PUSH2 0x409 JUMPI PUSH1 0x40 MLOAD PUSH32 0x8C379A000000000000000000000000000000000000000000000000000000000 DUP2 MSTORE PUSH1 0x4 ADD PUSH2 0x400 SWAP1 PUSH2 0x6E6 JUMP JUMPDEST PUSH1 0x40 MLOAD DUP1 SWAP2 SUB SWAP1 REVERT JUMPDEST SWAP1 JUMP JUMPDEST DUP3 DUP1 SLOAD PUSH2 0x418 SWAP1 PUSH2 0x866 JUMP JUMPDEST SWAP1 PUSH1 0x0 MSTORE PUSH1 0x20 PUSH1 0x0 KECCAK256 SWAP1 PUSH1 0x1F ADD PUSH1 0x20 SWAP1 DIV DUP2 ADD SWAP3 DUP3 PUSH2 0x43A JUMPI PUSH1 0x0 DUP6 SSTORE PUSH2 0x481 JUMP JUMPDEST DUP3 PUSH1 0x1F LT PUSH2 0x453 JUMPI DUP1 MLOAD PUSH1 0xFF NOT AND DUP4 DUP1 ADD OR DUP6 SSTORE PUSH2 0x481 JUMP JUMPDEST DUP3 DUP1 ADD PUSH1 0x1 ADD DUP6 SSTORE DUP3 ISZERO PUSH2 0x481 JUMPI SWAP2 DUP3 ADD JUMPDEST DUP3 DUP2 GT ISZERO PUSH2 0x480 JUMPI DUP3 MLOAD DUP3 SSTORE SWAP2 PUSH1 0x20 ADD SWAP2 SWAP1 PUSH1 0x1 ADD SWAP1 PUSH2 0x465 JUMP JUMPDEST JUMPDEST POP SWAP1 POP PUSH2 0x48E SWAP2 SWAP1 PUSH2 0x492 JUMP JUMPDEST POP SWAP1 JUMP JUMPDEST JUMPDEST DUP1 DUP3 GT ISZERO PUSH2 0x4AB JUMPI PUSH1 0x0 DUP2 PUSH1 0x0 SWAP1 SSTORE POP PUSH1 0x1 ADD PUSH2 0x493 JUMP JUMPDEST POP SWAP1 JUMP JUMPDEST PUSH1 0x0 PUSH2 0x4C2 PUSH2 0x4BD DUP5 PUSH2 0x786 JUMP JUMPDEST PUSH2 0x761 JUMP JUMPDEST SWAP1 POP DUP3 DUP2 MSTORE PUSH1 0x20 DUP2 ADD DUP5 DUP5 DUP5 ADD GT ISZERO PUSH2 0x4DE JUMPI PUSH2 0x4DD PUSH2 0x95A JUMP JUMPDEST JUMPDEST PUSH2 0x4E9 DUP5 DUP3 DUP6 PUSH2 0x824 JUMP JUMPDEST POP SWAP4 SWAP3 POP POP POP JUMP JUMPDEST PUSH1 0x0 DUP2 MLOAD SWAP1 POP PUSH2 0x500 DUP2 PUSH2 0xA28 JUMP JUMPDEST SWAP3 SWAP2 POP POP JUMP JUMPDEST PUSH1 0x0 DUP3 PUSH1 0x1F DUP4 ADD SLT PUSH2 0x51B JUMPI PUSH2 0x51A PUSH2 0x955 JUMP JUMPDEST JUMPDEST DUP2 CALLDATALOAD PUSH2 0x52B DUP5 DUP3 PUSH1 0x20 DUP7 ADD PUSH2 0x4AF JUMP JUMPDEST SWAP2 POP POP SWAP3 SWAP2 POP POP JUMP JUMPDEST PUSH1 0x0 PUSH1 0x20 DUP3 DUP5 SUB SLT ISZERO PUSH2 0x54A JUMPI PUSH2 0x549 PUSH2 0x964 JUMP JUMPDEST JUMPDEST PUSH1 0x0 PUSH2 0x558 DUP5 DUP3 DUP6 ADD PUSH2 0x4F1 JUMP JUMPDEST SWAP2 POP POP SWAP3 SWAP2 POP POP JUMP JUMPDEST PUSH1 0x0 PUSH1 0x20 DUP3 DUP5 SUB SLT ISZERO PUSH2 0x577 JUMPI PUSH2 0x576 PUSH2 0x964 JUMP JUMPDEST JUMPDEST PUSH1 0x0 DUP3 ADD CALLDATALOAD PUSH8 0xFFFFFFFFFFFFFFFF DUP2 GT ISZERO PUSH2 0x595 JUMPI PUSH2 0x594 PUSH2 0x95F JUMP JUMPDEST JUMPDEST PUSH2 0x5A1 DUP5 DUP3 DUP6 ADD PUSH2 0x506 JUMP JUMPDEST SWAP2 POP POP SWAP3 SWAP2 POP POP JUMP JUMPDEST PUSH2 0x5BB PUSH2 0x5B6 DUP3 PUSH2 0x7DE JUMP JUMPDEST PUSH2 0x8C9 JUMP JUMPDEST DUP3 MSTORE POP POP JUMP JUMPDEST PUSH1 0x0 PUSH2 0x5CC DUP3 PUSH2 0x7B7 JUMP JUMPDEST PUSH2 0x5D6 DUP2 DUP6 PUSH2 0x7C2 JUMP JUMPDEST SWAP4 POP PUSH2 0x5E6 DUP2 DUP6 PUSH1 0x20 DUP7 ADD PUSH2 0x833 JUMP JUMPDEST DUP1 DUP5 ADD SWAP2 POP POP SWAP3 SWAP2 POP POP JUMP JUMPDEST PUSH1 0x0 PUSH2 0x5FF PUSH1 0x12 DUP4 PUSH2 0x7CD JUMP JUMPDEST SWAP2 POP PUSH2 0x60A DUP3 PUSH2 0x987 JUMP JUMPDEST PUSH1 0x20 DUP3 ADD SWAP1 POP SWAP2 SWAP1 POP JUMP JUMPDEST PUSH1 0x0 PUSH2 0x622 PUSH1 0x28 DUP4 PUSH2 0x7CD JUMP JUMPDEST SWAP2 POP PUSH2 0x62D DUP3 PUSH2 0x9B0 JUMP JUMPDEST PUSH1 0x40 DUP3 ADD SWAP1 POP SWAP2 SWAP1 POP JUMP JUMPDEST PUSH1 0x0 PUSH2 0x645 PUSH1 0xE DUP4 PUSH2 0x7CD JUMP JUMPDEST SWAP2 POP PUSH2 0x650 DUP3 PUSH2 0x9FF JUMP JUMPDEST PUSH1 0x20 DUP3 ADD SWAP1 POP SWAP2 SWAP1 POP JUMP JUMPDEST PUSH2 0x664 DUP2 PUSH2 0x81A JUMP JUMPDEST DUP3 MSTORE POP POP JUMP JUMPDEST PUSH2 0x67B PUSH2 0x676 DUP3 PUSH2 0x81A JUMP JUMPDEST PUSH2 0x8ED JUMP JUMPDEST DUP3 MSTORE POP POP JUMP JUMPDEST PUSH1 0x0 PUSH2 0x68D DUP3 DUP5 PUSH2 0x5C1 JUMP JUMPDEST SWAP2 POP DUP2 SWAP1 POP SWAP3 SWAP2 POP POP JUMP JUMPDEST PUSH1 0x0 PUSH2 0x6A4 DUP3 DUP8 PUSH2 0x66A JUMP JUMPDEST PUSH1 0x20 DUP3 ADD SWAP2 POP PUSH2 0x6B4 DUP3 DUP7 PUSH2 0x66A JUMP JUMPDEST PUSH1 0x20 DUP3 ADD SWAP2 POP PUSH2 0x6C4 DUP3 DUP6 PUSH2 0x5AA JUMP JUMPDEST PUSH1 0x14 DUP3 ADD SWAP2 POP PUSH2 0x6D4 DUP3 DUP5 PUSH2 0x66A JUMP JUMPDEST PUSH1 0x20 DUP3 ADD SWAP2 POP DUP2 SWAP1 POP SWAP6 SWAP5 POP POP POP POP POP JUMP JUMPDEST PUSH1 0x0 PUSH1 0x20 DUP3 ADD SWAP1 POP DUP2 DUP2 SUB PUSH1 0x0 DUP4 ADD MSTORE PUSH2 0x6FF DUP2 PUSH2 0x5F2 JUMP JUMPDEST SWAP1 POP SWAP2 SWAP1 POP JUMP JUMPDEST PUSH1 0x0 PUSH1 0x20 DUP3 ADD SWAP1 POP DUP2 DUP2 SUB PUSH1 0x0 DUP4 ADD MSTORE PUSH2 0x71F DUP2 PUSH2 0x615 JUMP JUMPDEST SWAP1 POP SWAP2 SWAP1 POP JUMP JUMPDEST PUSH1 0x0 PUSH1 0x20 DUP3 ADD SWAP1 POP DUP2 DUP2 SUB PUSH1 0x0 DUP4 ADD MSTORE PUSH2 0x73F DUP2 PUSH2 0x638 JUMP JUMPDEST SWAP1 POP SWAP2 SWAP1 POP JUMP JUMPDEST PUSH1 0x0 PUSH1 0x20 DUP3 ADD SWAP1 POP PUSH2 0x75B PUSH1 0x0 DUP4 ADD DUP5 PUSH2 0x65B JUMP JUMPDEST SWAP3 SWAP2 POP POP JUMP JUMPDEST PUSH1 0x0 PUSH2 0x76B PUSH2 0x77C JUMP JUMPDEST SWAP1 POP PUSH2 0x777 DUP3 DUP3 PUSH2 0x898 JUMP JUMPDEST SWAP2 SWAP1 POP JUMP JUMPDEST PUSH1 0x0 PUSH1 0x40 MLOAD SWAP1 POP SWAP1 JUMP JUMPDEST PUSH1 0x0 PUSH8 0xFFFFFFFFFFFFFFFF DUP3 GT ISZERO PUSH2 0x7A1 JUMPI PUSH2 0x7A0 PUSH2 0x926 JUMP JUMPDEST JUMPDEST PUSH2 0x7AA DUP3 PUSH2 0x969 JUMP JUMPDEST SWAP1 POP PUSH1 0x20 DUP2 ADD SWAP1 POP SWAP2 SWAP1 POP JUMP JUMPDEST PUSH1 0x0 DUP2 MLOAD SWAP1 POP SWAP2 SWAP1 POP JUMP JUMPDEST PUSH1 0x0 DUP2 SWAP1 POP SWAP3 SWAP2 POP POP JUMP JUMPDEST PUSH1 0x0 DUP3 DUP3 MSTORE PUSH1 0x20 DUP3 ADD SWAP1 POP SWAP3 SWAP2 POP POP JUMP JUMPDEST PUSH1 0x0 PUSH2 0x7E9 DUP3 PUSH2 0x7FA JUMP JUMPDEST SWAP1 POP SWAP2 SWAP1 POP JUMP JUMPDEST PUSH1 0x0 DUP2 SWAP1 POP SWAP2 SWAP1 POP JUMP JUMPDEST PUSH1 0x0 PUSH20 0xFFFFFFFFFFFFFFFFFFFFFFFFFFFFFFFFFFFFFFFF DUP3 AND SWAP1 POP SWAP2 SWAP1 POP JUMP JUMPDEST PUSH1 0x0 DUP2 SWAP1 POP SWAP2 SWAP1 POP JUMP JUMPDEST DUP3 DUP2 DUP4 CALLDATACOPY PUSH1 0x0 DUP4 DUP4 ADD MSTORE POP POP POP JUMP JUMPDEST PUSH1 0x0 JUMPDEST DUP4 DUP2 LT ISZERO PUSH2 0x851 JUMPI DUP1 DUP3 ADD MLOAD DUP2 DUP5 ADD MSTORE PUSH1 0x20 DUP2 ADD SWAP1 POP PUSH2 0x836 JUMP JUMPDEST DUP4 DUP2 GT ISZERO PUSH2 0x860 JUMPI PUSH1 0x0 DUP5 DUP5 ADD MSTORE JUMPDEST POP POP POP POP JUMP JUMPDEST PUSH1 0x0 PUSH1 0x2 DUP3 DIV SWAP1 POP PUSH1 0x1 DUP3 AND DUP1 PUSH2 0x87E JUMPI PUSH1 0x7F DUP3 AND SWAP2 POP JUMPDEST PUSH1 0x20 DUP3 LT DUP2 EQ ISZERO PUSH2 0x892 JUMPI PUSH2 0x891 PUSH2 0x8F7 JUMP JUMPDEST JUMPDEST POP SWAP2 SWAP1 POP JUMP JUMPDEST PUSH2 0x8A1 DUP3 PUSH2 0x969 JUMP JUMPDEST DUP2 ADD DUP2 DUP2 LT PUSH8 0xFFFFFFFFFFFFFFFF DUP3 GT OR ISZERO PUSH2 0x8C0 JUMPI PUSH2 0x8BF PUSH2 0x926 JUMP JUMPDEST JUMPDEST DUP1 PUSH1 0x40 MSTORE POP POP POP JUMP JUMPDEST PUSH1 0x0 PUSH2 0x8D4 DUP3 PUSH2 0x8DB JUMP JUMPDEST SWAP1 POP SWAP2 SWAP1 POP JUMP JUMPDEST PUSH1 0x0 PUSH2 0x8E6 DUP3 PUSH2 0x97A JUMP JUMPDEST SWAP1 POP SWAP2 SWAP1 POP JUMP JUMPDEST PUSH1 0x0 DUP2 SWAP1 POP SWAP2 SWAP1 POP JUMP JUMPDEST PUSH32 0x4E487B7100000000000000000000000000000000000000000000000000000000 PUSH1 0x0 MSTORE PUSH1 0x22 PUSH1 0x4 MSTORE PUSH1 0x24 PUSH1 0x0 REVERT JUMPDEST PUSH32 0x4E487B7100000000000000000000000000000000000000000000000000000000 PUSH1 0x0 MSTORE PUSH1 0x41 PUSH1 0x4 MSTORE PUSH1 0x24 PUSH1 0x0 REVERT JUMPDEST PUSH1 0x0 DUP1 REVERT JUMPDEST PUSH1 0x0 DUP1 REVERT JUMPDEST PUSH1 0x0 DUP1 REVERT JUMPDEST PUSH1 0x0 DUP1 REVERT JUMPDEST PUSH1 0x0 PUSH1 0x1F NOT PUSH1 0x1F DUP4 ADD AND SWAP1 POP SWAP2 SWAP1 POP JUMP JUMPDEST PUSH1 0x0 DUP2 PUSH1 0x60 SHL SWAP1 POP SWAP2 SWAP1 POP JUMP JUMPDEST PUSH32 0x416C7265616479205369676E6564207570210000000000000000000000000000 PUSH1 0x0 DUP3 ADD MSTORE POP JUMP JUMPDEST PUSH32 0x5369676E2D75702072656A65637465642120496E616465717561746520737461 PUSH1 0x0 DUP3 ADD MSTORE PUSH32 0x6B652076616C7565000000000000000000000000000000000000000000000000 PUSH1 0x20 DUP3 ADD MSTORE POP JUMP JUMPDEST PUSH32 0x4E6F74207369676E656420757021000000000000000000000000000000000000 PUSH1 0x0 DUP3 ADD MSTORE POP JUMP JUMPDEST PUSH2 0xA31 DUP2 PUSH2 0x7F0 JUMP JUMPDEST DUP2 EQ PUSH2 0xA3C JUMPI PUSH1 0x0 DUP1 REVERT JUMPDEST POP JUMP INVALID LOG2 PUSH5 0x6970667358 0x22 SLT KECCAK256 PUSH13 0x2A460B46C69B0E1D831C94D49B MOD 0xD 0xDF 0x25 0xD9 DUP3 GASLIMIT SWAP14 0xBF SGT PUSH23 0xF08A19DD1D0C2564736F6C634300080700330000000000 "
				},
				"gasEstimates": {
					"creation": {
						"codeDepositCost": "535400",
						"executionCost": "568",
						"totalCost": "535968"
					},
					"external": {
						"cancel_signup()": "infinite",
						"request_verification(string)": "infinite",
						"sign_up()": "2716"
					}
				},
				"methodIdentifiers": {
					"cancel_signup()": "c09f8ff6",
					"request_verification(string)": "969b1567",
					"sign_up()": "c4fb3337"
				}
			},
			"userdoc": {
				"kind": "user",
				"methods": {},
				"version": 1
			}
		}
	}
}