{
	"Desktop/EthCA/blockchain/EthCA.sol": {
		"EthCA": {
			"abi": [
				{
					"inputs": [
						{
							"internalType": "uint256",
							"name": "pubkey1",
							"type": "uint256"
						},
						{
							"internalType": "uint256",
							"name": "pubkey2",
							"type": "uint256"
						},
						{
							"internalType": "uint256",
							"name": "pubkey3",
							"type": "uint256"
						},
						{
							"internalType": "uint256",
							"name": "pubkey4",
							"type": "uint256"
						}
					],
					"name": "request_verification",
					"outputs": [
						{
							"internalType": "uint256",
							"name": "",
							"type": "uint256"
						}
					],
					"stateMutability": "nonpayable",
					"type": "function"
				}
			],
			"devdoc": {
				"kind": "dev",
				"methods": {},
				"version": 1
			},
			"evm": {
				"assembly": "    /* \"Desktop/EthCA/blockchain/EthCA.sol\":110:705  contract EthCA {... */\n  mstore(0x40, 0x80)\n  callvalue\n  dup1\n  iszero\n  tag_1\n  jumpi\n  0x00\n  dup1\n  revert\ntag_1:\n  pop\n  dataSize(sub_0)\n  dup1\n  dataOffset(sub_0)\n  0x00\n  codecopy\n  0x00\n  return\nstop\n\nsub_0: assembly {\n        /* \"Desktop/EthCA/blockchain/EthCA.sol\":110:705  contract EthCA {... */\n      mstore(0x40, 0x80)\n      callvalue\n      dup1\n      iszero\n      tag_1\n      jumpi\n      0x00\n      dup1\n      revert\n    tag_1:\n      pop\n      jumpi(tag_2, lt(calldatasize, 0x04))\n      shr(0xe0, calldataload(0x00))\n      dup1\n      0x89bcf928\n      eq\n      tag_3\n      jumpi\n    tag_2:\n      0x00\n      dup1\n      revert\n        /* \"Desktop/EthCA/blockchain/EthCA.sol\":475:703  function request_verification(uint pubkey1, uint pubkey2, uint pubkey3, uint pubkey4) public returns (uint) {... */\n    tag_3:\n      tag_4\n      0x04\n      dup1\n      calldatasize\n      sub\n      dup2\n      add\n      swap1\n      tag_5\n      swap2\n      swap1\n      tag_6\n      jump\t// in\n    tag_5:\n      tag_7\n      jump\t// in\n    tag_4:\n      mload(0x40)\n      tag_8\n      swap2\n      swap1\n      tag_9\n      jump\t// in\n    tag_8:\n      mload(0x40)\n      dup1\n      swap2\n      sub\n      swap1\n      return\n    tag_7:\n        /* \"Desktop/EthCA/blockchain/EthCA.sol\":577:581  uint */\n      0x00\n        /* \"Desktop/EthCA/blockchain/EthCA.sol\":593:603  uint nonce */\n      dup1\n        /* \"Desktop/EthCA/blockchain/EthCA.sol\":611:694  sha256(abi.encodePacked(block.timestamp, block.difficulty, msg.sender, numsignups)) */\n      0x02\n        /* \"Desktop/EthCA/blockchain/EthCA.sol\":635:650  block.timestamp */\n      timestamp\n        /* \"Desktop/EthCA/blockchain/EthCA.sol\":652:668  block.difficulty */\n      difficulty\n        /* \"Desktop/EthCA/blockchain/EthCA.sol\":670:680  msg.sender */\n      caller\n        /* \"Desktop/EthCA/blockchain/EthCA.sol\":682:692  numsignups */\n      sload(0x02)\n        /* \"Desktop/EthCA/blockchain/EthCA.sol\":618:693  abi.encodePacked(block.timestamp, block.difficulty, msg.sender, numsignups) */\n      add(0x20, mload(0x40))\n      tag_11\n      swap5\n      swap4\n      swap3\n      swap2\n      swap1\n      tag_12\n      jump\t// in\n    tag_11:\n      mload(0x40)\n      0x20\n      dup2\n      dup4\n      sub\n      sub\n      dup2\n      mstore\n      swap1\n      0x40\n      mstore\n        /* \"Desktop/EthCA/blockchain/EthCA.sol\":611:694  sha256(abi.encodePacked(block.timestamp, block.difficulty, msg.sender, numsignups)) */\n      mload(0x40)\n      tag_13\n      swap2\n      swap1\n      tag_14\n      jump\t// in\n    tag_13:\n      0x20\n      mload(0x40)\n      dup1\n      dup4\n      sub\n      dup2\n      dup6\n      gas\n      staticcall\n      iszero\n      dup1\n      iszero\n      tag_16\n      jumpi\n      returndatasize\n      0x00\n      dup1\n      returndatacopy\n      revert(0x00, returndatasize)\n    tag_16:\n      pop\n      pop\n      pop\n      mload(0x40)\n      returndatasize\n      not(0x1f)\n      0x1f\n      dup3\n      add\n      and\n      dup3\n      add\n      dup1\n      0x40\n      mstore\n      pop\n      dup2\n      add\n      swap1\n      tag_17\n      swap2\n      swap1\n      tag_18\n      jump\t// in\n    tag_17:\n        /* \"Desktop/EthCA/blockchain/EthCA.sol\":606:695  uint(sha256(abi.encodePacked(block.timestamp, block.difficulty, msg.sender, numsignups))) */\n      0x00\n      shr\n        /* \"Desktop/EthCA/blockchain/EthCA.sol\":593:695  uint nonce = uint(sha256(abi.encodePacked(block.timestamp, block.difficulty, msg.sender, numsignups))) */\n      swap1\n      pop\n        /* \"Desktop/EthCA/blockchain/EthCA.sol\":583:703  {... */\n      pop\n        /* \"Desktop/EthCA/blockchain/EthCA.sol\":475:703  function request_verification(uint pubkey1, uint pubkey2, uint pubkey3, uint pubkey4) public returns (uint) {... */\n      swap5\n      swap4\n      pop\n      pop\n      pop\n      pop\n      jump\t// out\n        /* \"#utility.yul\":7:150   */\n    tag_20:\n        /* \"#utility.yul\":64:69   */\n      0x00\n        /* \"#utility.yul\":95:101   */\n      dup2\n        /* \"#utility.yul\":89:102   */\n      mload\n        /* \"#utility.yul\":80:102   */\n      swap1\n      pop\n        /* \"#utility.yul\":111:144   */\n      tag_22\n        /* \"#utility.yul\":138:143   */\n      dup2\n        /* \"#utility.yul\":111:144   */\n      tag_23\n      jump\t// in\n    tag_22:\n        /* \"#utility.yul\":7:150   */\n      swap3\n      swap2\n      pop\n      pop\n      jump\t// out\n        /* \"#utility.yul\":156:295   */\n    tag_24:\n        /* \"#utility.yul\":202:207   */\n      0x00\n        /* \"#utility.yul\":240:246   */\n      dup2\n        /* \"#utility.yul\":227:247   */\n      calldataload\n        /* \"#utility.yul\":218:247   */\n      swap1\n      pop\n        /* \"#utility.yul\":256:289   */\n      tag_26\n        /* \"#utility.yul\":283:288   */\n      dup2\n        /* \"#utility.yul\":256:289   */\n      tag_27\n      jump\t// in\n    tag_26:\n        /* \"#utility.yul\":156:295   */\n      swap3\n      swap2\n      pop\n      pop\n      jump\t// out\n        /* \"#utility.yul\":301:652   */\n    tag_18:\n        /* \"#utility.yul\":371:377   */\n      0x00\n        /* \"#utility.yul\":420:422   */\n      0x20\n        /* \"#utility.yul\":408:417   */\n      dup3\n        /* \"#utility.yul\":399:406   */\n      dup5\n        /* \"#utility.yul\":395:418   */\n      sub\n        /* \"#utility.yul\":391:423   */\n      slt\n        /* \"#utility.yul\":388:507   */\n      iszero\n      tag_29\n      jumpi\n        /* \"#utility.yul\":426:505   */\n      tag_30\n      tag_31\n      jump\t// in\n    tag_30:\n        /* \"#utility.yul\":388:507   */\n    tag_29:\n        /* \"#utility.yul\":546:547   */\n      0x00\n        /* \"#utility.yul\":571:635   */\n      tag_32\n        /* \"#utility.yul\":627:634   */\n      dup5\n        /* \"#utility.yul\":618:624   */\n      dup3\n        /* \"#utility.yul\":607:616   */\n      dup6\n        /* \"#utility.yul\":603:625   */\n      add\n        /* \"#utility.yul\":571:635   */\n      tag_20\n      jump\t// in\n    tag_32:\n        /* \"#utility.yul\":561:635   */\n      swap2\n      pop\n        /* \"#utility.yul\":517:645   */\n      pop\n        /* \"#utility.yul\":301:652   */\n      swap3\n      swap2\n      pop\n      pop\n      jump\t// out\n        /* \"#utility.yul\":658:1423   */\n    tag_6:\n        /* \"#utility.yul\":744:750   */\n      0x00\n        /* \"#utility.yul\":752:758   */\n      dup1\n        /* \"#utility.yul\":760:766   */\n      0x00\n        /* \"#utility.yul\":768:774   */\n      dup1\n        /* \"#utility.yul\":817:820   */\n      0x80\n        /* \"#utility.yul\":805:814   */\n      dup6\n        /* \"#utility.yul\":796:803   */\n      dup8\n        /* \"#utility.yul\":792:815   */\n      sub\n        /* \"#utility.yul\":788:821   */\n      slt\n        /* \"#utility.yul\":785:905   */\n      iszero\n      tag_34\n      jumpi\n        /* \"#utility.yul\":824:903   */\n      tag_35\n      tag_31\n      jump\t// in\n    tag_35:\n        /* \"#utility.yul\":785:905   */\n    tag_34:\n        /* \"#utility.yul\":944:945   */\n      0x00\n        /* \"#utility.yul\":969:1022   */\n      tag_36\n        /* \"#utility.yul\":1014:1021   */\n      dup8\n        /* \"#utility.yul\":1005:1011   */\n      dup3\n        /* \"#utility.yul\":994:1003   */\n      dup9\n        /* \"#utility.yul\":990:1012   */\n      add\n        /* \"#utility.yul\":969:1022   */\n      tag_24\n      jump\t// in\n    tag_36:\n        /* \"#utility.yul\":959:1022   */\n      swap5\n      pop\n        /* \"#utility.yul\":915:1032   */\n      pop\n        /* \"#utility.yul\":1071:1073   */\n      0x20\n        /* \"#utility.yul\":1097:1150   */\n      tag_37\n        /* \"#utility.yul\":1142:1149   */\n      dup8\n        /* \"#utility.yul\":1133:1139   */\n      dup3\n        /* \"#utility.yul\":1122:1131   */\n      dup9\n        /* \"#utility.yul\":1118:1140   */\n      add\n        /* \"#utility.yul\":1097:1150   */\n      tag_24\n      jump\t// in\n    tag_37:\n        /* \"#utility.yul\":1087:1150   */\n      swap4\n      pop\n        /* \"#utility.yul\":1042:1160   */\n      pop\n        /* \"#utility.yul\":1199:1201   */\n      0x40\n        /* \"#utility.yul\":1225:1278   */\n      tag_38\n        /* \"#utility.yul\":1270:1277   */\n      dup8\n        /* \"#utility.yul\":1261:1267   */\n      dup3\n        /* \"#utility.yul\":1250:1259   */\n      dup9\n        /* \"#utility.yul\":1246:1268   */\n      add\n        /* \"#utility.yul\":1225:1278   */\n      tag_24\n      jump\t// in\n    tag_38:\n        /* \"#utility.yul\":1215:1278   */\n      swap3\n      pop\n        /* \"#utility.yul\":1170:1288   */\n      pop\n        /* \"#utility.yul\":1327:1329   */\n      0x60\n        /* \"#utility.yul\":1353:1406   */\n      tag_39\n        /* \"#utility.yul\":1398:1405   */\n      dup8\n        /* \"#utility.yul\":1389:1395   */\n      dup3\n        /* \"#utility.yul\":1378:1387   */\n      dup9\n        /* \"#utility.yul\":1374:1396   */\n      add\n        /* \"#utility.yul\":1353:1406   */\n      tag_24\n      jump\t// in\n    tag_39:\n        /* \"#utility.yul\":1343:1406   */\n      swap2\n      pop\n        /* \"#utility.yul\":1298:1416   */\n      pop\n        /* \"#utility.yul\":658:1423   */\n      swap3\n      swap6\n      swap2\n      swap5\n      pop\n      swap3\n      pop\n      jump\t// out\n        /* \"#utility.yul\":1429:1586   */\n    tag_40:\n        /* \"#utility.yul\":1534:1579   */\n      tag_42\n        /* \"#utility.yul\":1554:1578   */\n      tag_43\n        /* \"#utility.yul\":1572:1577   */\n      dup3\n        /* \"#utility.yul\":1554:1578   */\n      tag_44\n      jump\t// in\n    tag_43:\n        /* \"#utility.yul\":1534:1579   */\n      tag_45\n      jump\t// in\n    tag_42:\n        /* \"#utility.yul\":1529:1532   */\n      dup3\n        /* \"#utility.yul\":1522:1580   */\n      mstore\n        /* \"#utility.yul\":1429:1586   */\n      pop\n      pop\n      jump\t// out\n        /* \"#utility.yul\":1592:1965   */\n    tag_46:\n        /* \"#utility.yul\":1696:1699   */\n      0x00\n        /* \"#utility.yul\":1724:1762   */\n      tag_48\n        /* \"#utility.yul\":1756:1761   */\n      dup3\n        /* \"#utility.yul\":1724:1762   */\n      tag_49\n      jump\t// in\n    tag_48:\n        /* \"#utility.yul\":1778:1866   */\n      tag_50\n        /* \"#utility.yul\":1859:1865   */\n      dup2\n        /* \"#utility.yul\":1854:1857   */\n      dup6\n        /* \"#utility.yul\":1778:1866   */\n      tag_51\n      jump\t// in\n    tag_50:\n        /* \"#utility.yul\":1771:1866   */\n      swap4\n      pop\n        /* \"#utility.yul\":1875:1927   */\n      tag_52\n        /* \"#utility.yul\":1920:1926   */\n      dup2\n        /* \"#utility.yul\":1915:1918   */\n      dup6\n        /* \"#utility.yul\":1908:1912   */\n      0x20\n        /* \"#utility.yul\":1901:1906   */\n      dup7\n        /* \"#utility.yul\":1897:1913   */\n      add\n        /* \"#utility.yul\":1875:1927   */\n      tag_53\n      jump\t// in\n    tag_52:\n        /* \"#utility.yul\":1952:1958   */\n      dup1\n        /* \"#utility.yul\":1947:1950   */\n      dup5\n        /* \"#utility.yul\":1943:1959   */\n      add\n        /* \"#utility.yul\":1936:1959   */\n      swap2\n      pop\n        /* \"#utility.yul\":1700:1965   */\n      pop\n        /* \"#utility.yul\":1592:1965   */\n      swap3\n      swap2\n      pop\n      pop\n      jump\t// out\n        /* \"#utility.yul\":1971:2089   */\n    tag_54:\n        /* \"#utility.yul\":2058:2082   */\n      tag_56\n        /* \"#utility.yul\":2076:2081   */\n      dup2\n        /* \"#utility.yul\":2058:2082   */\n      tag_57\n      jump\t// in\n    tag_56:\n        /* \"#utility.yul\":2053:2056   */\n      dup3\n        /* \"#utility.yul\":2046:2083   */\n      mstore\n        /* \"#utility.yul\":1971:2089   */\n      pop\n      pop\n      jump\t// out\n        /* \"#utility.yul\":2095:2252   */\n    tag_58:\n        /* \"#utility.yul\":2200:2245   */\n      tag_60\n        /* \"#utility.yul\":2220:2244   */\n      tag_61\n        /* \"#utility.yul\":2238:2243   */\n      dup3\n        /* \"#utility.yul\":2220:2244   */\n      tag_57\n      jump\t// in\n    tag_61:\n        /* \"#utility.yul\":2200:2245   */\n      tag_62\n      jump\t// in\n    tag_60:\n        /* \"#utility.yul\":2195:2198   */\n      dup3\n        /* \"#utility.yul\":2188:2246   */\n      mstore\n        /* \"#utility.yul\":2095:2252   */\n      pop\n      pop\n      jump\t// out\n        /* \"#utility.yul\":2258:2529   */\n    tag_14:\n        /* \"#utility.yul\":2388:2391   */\n      0x00\n        /* \"#utility.yul\":2410:2503   */\n      tag_64\n        /* \"#utility.yul\":2499:2502   */\n      dup3\n        /* \"#utility.yul\":2490:2496   */\n      dup5\n        /* \"#utility.yul\":2410:2503   */\n      tag_46\n      jump\t// in\n    tag_64:\n        /* \"#utility.yul\":2403:2503   */\n      swap2\n      pop\n        /* \"#utility.yul\":2520:2523   */\n      dup2\n        /* \"#utility.yul\":2513:2523   */\n      swap1\n      pop\n        /* \"#utility.yul\":2258:2529   */\n      swap3\n      swap2\n      pop\n      pop\n      jump\t// out\n        /* \"#utility.yul\":2535:3214   */\n    tag_12:\n        /* \"#utility.yul\":2731:2734   */\n      0x00\n        /* \"#utility.yul\":2746:2821   */\n      tag_66\n        /* \"#utility.yul\":2817:2820   */\n      dup3\n        /* \"#utility.yul\":2808:2814   */\n      dup8\n        /* \"#utility.yul\":2746:2821   */\n      tag_58\n      jump\t// in\n    tag_66:\n        /* \"#utility.yul\":2846:2848   */\n      0x20\n        /* \"#utility.yul\":2841:2844   */\n      dup3\n        /* \"#utility.yul\":2837:2849   */\n      add\n        /* \"#utility.yul\":2830:2849   */\n      swap2\n      pop\n        /* \"#utility.yul\":2859:2934   */\n      tag_67\n        /* \"#utility.yul\":2930:2933   */\n      dup3\n        /* \"#utility.yul\":2921:2927   */\n      dup7\n        /* \"#utility.yul\":2859:2934   */\n      tag_58\n      jump\t// in\n    tag_67:\n        /* \"#utility.yul\":2959:2961   */\n      0x20\n        /* \"#utility.yul\":2954:2957   */\n      dup3\n        /* \"#utility.yul\":2950:2962   */\n      add\n        /* \"#utility.yul\":2943:2962   */\n      swap2\n      pop\n        /* \"#utility.yul\":2972:3047   */\n      tag_68\n        /* \"#utility.yul\":3043:3046   */\n      dup3\n        /* \"#utility.yul\":3034:3040   */\n      dup6\n        /* \"#utility.yul\":2972:3047   */\n      tag_40\n      jump\t// in\n    tag_68:\n        /* \"#utility.yul\":3072:3074   */\n      0x14\n        /* \"#utility.yul\":3067:3070   */\n      dup3\n        /* \"#utility.yul\":3063:3075   */\n      add\n        /* \"#utility.yul\":3056:3075   */\n      swap2\n      pop\n        /* \"#utility.yul\":3085:3160   */\n      tag_69\n        /* \"#utility.yul\":3156:3159   */\n      dup3\n        /* \"#utility.yul\":3147:3153   */\n      dup5\n        /* \"#utility.yul\":3085:3160   */\n      tag_58\n      jump\t// in\n    tag_69:\n        /* \"#utility.yul\":3185:3187   */\n      0x20\n        /* \"#utility.yul\":3180:3183   */\n      dup3\n        /* \"#utility.yul\":3176:3188   */\n      add\n        /* \"#utility.yul\":3169:3188   */\n      swap2\n      pop\n        /* \"#utility.yul\":3205:3208   */\n      dup2\n        /* \"#utility.yul\":3198:3208   */\n      swap1\n      pop\n        /* \"#utility.yul\":2535:3214   */\n      swap6\n      swap5\n      pop\n      pop\n      pop\n      pop\n      pop\n      jump\t// out\n        /* \"#utility.yul\":3220:3442   */\n    tag_9:\n        /* \"#utility.yul\":3313:3317   */\n      0x00\n        /* \"#utility.yul\":3351:3353   */\n      0x20\n        /* \"#utility.yul\":3340:3349   */\n      dup3\n        /* \"#utility.yul\":3336:3354   */\n      add\n        /* \"#utility.yul\":3328:3354   */\n      swap1\n      pop\n        /* \"#utility.yul\":3364:3435   */\n      tag_71\n        /* \"#utility.yul\":3432:3433   */\n      0x00\n        /* \"#utility.yul\":3421:3430   */\n      dup4\n        /* \"#utility.yul\":3417:3434   */\n      add\n        /* \"#utility.yul\":3408:3414   */\n      dup5\n        /* \"#utility.yul\":3364:3435   */\n      tag_54\n      jump\t// in\n    tag_71:\n        /* \"#utility.yul\":3220:3442   */\n      swap3\n      swap2\n      pop\n      pop\n      jump\t// out\n        /* \"#utility.yul\":3529:3627   */\n    tag_49:\n        /* \"#utility.yul\":3580:3586   */\n      0x00\n        /* \"#utility.yul\":3614:3619   */\n      dup2\n        /* \"#utility.yul\":3608:3620   */\n      mload\n        /* \"#utility.yul\":3598:3620   */\n      swap1\n      pop\n        /* \"#utility.yul\":3529:3627   */\n      swap2\n      swap1\n      pop\n      jump\t// out\n        /* \"#utility.yul\":3633:3780   */\n    tag_51:\n        /* \"#utility.yul\":3734:3745   */\n      0x00\n        /* \"#utility.yul\":3771:3774   */\n      dup2\n        /* \"#utility.yul\":3756:3774   */\n      swap1\n      pop\n        /* \"#utility.yul\":3633:3780   */\n      swap3\n      swap2\n      pop\n      pop\n      jump\t// out\n        /* \"#utility.yul\":3786:3882   */\n    tag_44:\n        /* \"#utility.yul\":3823:3830   */\n      0x00\n        /* \"#utility.yul\":3852:3876   */\n      tag_77\n        /* \"#utility.yul\":3870:3875   */\n      dup3\n        /* \"#utility.yul\":3852:3876   */\n      tag_78\n      jump\t// in\n    tag_77:\n        /* \"#utility.yul\":3841:3876   */\n      swap1\n      pop\n        /* \"#utility.yul\":3786:3882   */\n      swap2\n      swap1\n      pop\n      jump\t// out\n        /* \"#utility.yul\":3888:3965   */\n    tag_79:\n        /* \"#utility.yul\":3925:3932   */\n      0x00\n        /* \"#utility.yul\":3954:3959   */\n      dup2\n        /* \"#utility.yul\":3943:3959   */\n      swap1\n      pop\n        /* \"#utility.yul\":3888:3965   */\n      swap2\n      swap1\n      pop\n      jump\t// out\n        /* \"#utility.yul\":3971:4097   */\n    tag_78:\n        /* \"#utility.yul\":4008:4015   */\n      0x00\n        /* \"#utility.yul\":4048:4090   */\n      0xffffffffffffffffffffffffffffffffffffffff\n        /* \"#utility.yul\":4041:4046   */\n      dup3\n        /* \"#utility.yul\":4037:4091   */\n      and\n        /* \"#utility.yul\":4026:4091   */\n      swap1\n      pop\n        /* \"#utility.yul\":3971:4097   */\n      swap2\n      swap1\n      pop\n      jump\t// out\n        /* \"#utility.yul\":4103:4180   */\n    tag_57:\n        /* \"#utility.yul\":4140:4147   */\n      0x00\n        /* \"#utility.yul\":4169:4174   */\n      dup2\n        /* \"#utility.yul\":4158:4174   */\n      swap1\n      pop\n        /* \"#utility.yul\":4103:4180   */\n      swap2\n      swap1\n      pop\n      jump\t// out\n        /* \"#utility.yul\":4186:4493   */\n    tag_53:\n        /* \"#utility.yul\":4254:4255   */\n      0x00\n        /* \"#utility.yul\":4264:4377   */\n    tag_84:\n        /* \"#utility.yul\":4278:4284   */\n      dup4\n        /* \"#utility.yul\":4275:4276   */\n      dup2\n        /* \"#utility.yul\":4272:4285   */\n      lt\n        /* \"#utility.yul\":4264:4377   */\n      iszero\n      tag_86\n      jumpi\n        /* \"#utility.yul\":4363:4364   */\n      dup1\n        /* \"#utility.yul\":4358:4361   */\n      dup3\n        /* \"#utility.yul\":4354:4365   */\n      add\n        /* \"#utility.yul\":4348:4366   */\n      mload\n        /* \"#utility.yul\":4344:4345   */\n      dup2\n        /* \"#utility.yul\":4339:4342   */\n      dup5\n        /* \"#utility.yul\":4335:4346   */\n      add\n        /* \"#utility.yul\":4328:4367   */\n      mstore\n        /* \"#utility.yul\":4300:4302   */\n      0x20\n        /* \"#utility.yul\":4297:4298   */\n      dup2\n        /* \"#utility.yul\":4293:4303   */\n      add\n        /* \"#utility.yul\":4288:4303   */\n      swap1\n      pop\n        /* \"#utility.yul\":4264:4377   */\n      jump(tag_84)\n    tag_86:\n        /* \"#utility.yul\":4395:4401   */\n      dup4\n        /* \"#utility.yul\":4392:4393   */\n      dup2\n        /* \"#utility.yul\":4389:4402   */\n      gt\n        /* \"#utility.yul\":4386:4487   */\n      iszero\n      tag_87\n      jumpi\n        /* \"#utility.yul\":4475:4476   */\n      0x00\n        /* \"#utility.yul\":4466:4472   */\n      dup5\n        /* \"#utility.yul\":4461:4464   */\n      dup5\n        /* \"#utility.yul\":4457:4473   */\n      add\n        /* \"#utility.yul\":4450:4477   */\n      mstore\n        /* \"#utility.yul\":4386:4487   */\n    tag_87:\n        /* \"#utility.yul\":4235:4493   */\n      pop\n        /* \"#utility.yul\":4186:4493   */\n      pop\n      pop\n      pop\n      jump\t// out\n        /* \"#utility.yul\":4499:4599   */\n    tag_45:\n        /* \"#utility.yul\":4538:4545   */\n      0x00\n        /* \"#utility.yul\":4567:4593   */\n      tag_89\n        /* \"#utility.yul\":4587:4592   */\n      dup3\n        /* \"#utility.yul\":4567:4593   */\n      tag_90\n      jump\t// in\n    tag_89:\n        /* \"#utility.yul\":4556:4593   */\n      swap1\n      pop\n        /* \"#utility.yul\":4499:4599   */\n      swap2\n      swap1\n      pop\n      jump\t// out\n        /* \"#utility.yul\":4605:4699   */\n    tag_90:\n        /* \"#utility.yul\":4644:4651   */\n      0x00\n        /* \"#utility.yul\":4673:4693   */\n      tag_92\n        /* \"#utility.yul\":4687:4692   */\n      dup3\n        /* \"#utility.yul\":4673:4693   */\n      tag_93\n      jump\t// in\n    tag_92:\n        /* \"#utility.yul\":4662:4693   */\n      swap1\n      pop\n        /* \"#utility.yul\":4605:4699   */\n      swap2\n      swap1\n      pop\n      jump\t// out\n        /* \"#utility.yul\":4705:4784   */\n    tag_62:\n        /* \"#utility.yul\":4744:4751   */\n      0x00\n        /* \"#utility.yul\":4773:4778   */\n      dup2\n        /* \"#utility.yul\":4762:4778   */\n      swap1\n      pop\n        /* \"#utility.yul\":4705:4784   */\n      swap2\n      swap1\n      pop\n      jump\t// out\n        /* \"#utility.yul\":4913:5030   */\n    tag_31:\n        /* \"#utility.yul\":5022:5023   */\n      0x00\n        /* \"#utility.yul\":5019:5020   */\n      dup1\n        /* \"#utility.yul\":5012:5024   */\n      revert\n        /* \"#utility.yul\":5036:5130   */\n    tag_93:\n        /* \"#utility.yul\":5069:5077   */\n      0x00\n        /* \"#utility.yul\":5117:5122   */\n      dup2\n        /* \"#utility.yul\":5113:5115   */\n      0x60\n        /* \"#utility.yul\":5109:5123   */\n      shl\n        /* \"#utility.yul\":5088:5123   */\n      swap1\n      pop\n        /* \"#utility.yul\":5036:5130   */\n      swap2\n      swap1\n      pop\n      jump\t// out\n        /* \"#utility.yul\":5136:5258   */\n    tag_23:\n        /* \"#utility.yul\":5209:5233   */\n      tag_100\n        /* \"#utility.yul\":5227:5232   */\n      dup2\n        /* \"#utility.yul\":5209:5233   */\n      tag_79\n      jump\t// in\n    tag_100:\n        /* \"#utility.yul\":5202:5207   */\n      dup2\n        /* \"#utility.yul\":5199:5234   */\n      eq\n        /* \"#utility.yul\":5189:5252   */\n      tag_101\n      jumpi\n        /* \"#utility.yul\":5248:5249   */\n      0x00\n        /* \"#utility.yul\":5245:5246   */\n      dup1\n        /* \"#utility.yul\":5238:5250   */\n      revert\n        /* \"#utility.yul\":5189:5252   */\n    tag_101:\n        /* \"#utility.yul\":5136:5258   */\n      pop\n      jump\t// out\n        /* \"#utility.yul\":5264:5386   */\n    tag_27:\n        /* \"#utility.yul\":5337:5361   */\n      tag_103\n        /* \"#utility.yul\":5355:5360   */\n      dup2\n        /* \"#utility.yul\":5337:5361   */\n      tag_57\n      jump\t// in\n    tag_103:\n        /* \"#utility.yul\":5330:5335   */\n      dup2\n        /* \"#utility.yul\":5327:5362   */\n      eq\n        /* \"#utility.yul\":5317:5380   */\n      tag_104\n      jumpi\n        /* \"#utility.yul\":5376:5377   */\n      0x00\n        /* \"#utility.yul\":5373:5374   */\n      dup1\n        /* \"#utility.yul\":5366:5378   */\n      revert\n        /* \"#utility.yul\":5317:5380   */\n    tag_104:\n        /* \"#utility.yul\":5264:5386   */\n      pop\n      jump\t// out\n\n    auxdata: 0xa2646970667358221220acb10a468a045a1f9ecd03f2201df87be8ddd6e00c6d1190875fd0205553d3a764736f6c63430008070033\n}\n",
				"bytecode": {
					"linkReferences": {},
					"object": "608060405234801561001057600080fd5b506103c7806100206000396000f3fe608060405234801561001057600080fd5b506004361061002b5760003560e01c806389bcf92814610030575b600080fd5b61004a6004803603810190610045919061013f565b610060565b6040516100579190610279565b60405180910390f35b600080600242443360025460405160200161007e949392919061022b565b60405160208183030381529060405260405161009a9190610214565b602060405180830381855afa1580156100b7573d6000803e3d6000fd5b5050506040513d601f19601f820116820180604052508101906100da9190610112565b60001c905050949350505050565b6000815190506100f781610363565b92915050565b60008135905061010c8161037a565b92915050565b60006020828403121561012857610127610351565b5b6000610136848285016100e8565b91505092915050565b6000806000806080858703121561015957610158610351565b5b6000610167878288016100fd565b9450506020610178878288016100fd565b9350506040610189878288016100fd565b925050606061019a878288016100fd565b91505092959194509250565b6101b76101b2826102aa565b610323565b82525050565b60006101c882610294565b6101d2818561029f565b93506101e28185602086016102f0565b80840191505092915050565b6101f7816102e6565b82525050565b61020e610209826102e6565b610347565b82525050565b600061022082846101bd565b915081905092915050565b600061023782876101fd565b60208201915061024782866101fd565b60208201915061025782856101a6565b60148201915061026782846101fd565b60208201915081905095945050505050565b600060208201905061028e60008301846101ee565b92915050565b600081519050919050565b600081905092915050565b60006102b5826102c6565b9050919050565b6000819050919050565b600073ffffffffffffffffffffffffffffffffffffffff82169050919050565b6000819050919050565b60005b8381101561030e5780820151818401526020810190506102f3565b8381111561031d576000848401525b50505050565b600061032e82610335565b9050919050565b600061034082610356565b9050919050565b6000819050919050565b600080fd5b60008160601b9050919050565b61036c816102bc565b811461037757600080fd5b50565b610383816102e6565b811461038e57600080fd5b5056fea2646970667358221220acb10a468a045a1f9ecd03f2201df87be8ddd6e00c6d1190875fd0205553d3a764736f6c63430008070033",
					"opcodes": "PUSH1 0x80 PUSH1 0x40 MSTORE CALLVALUE DUP1 ISZERO PUSH2 0x10 JUMPI PUSH1 0x0 DUP1 REVERT JUMPDEST POP PUSH2 0x3C7 DUP1 PUSH2 0x20 PUSH1 0x0 CODECOPY PUSH1 0x0 RETURN INVALID PUSH1 0x80 PUSH1 0x40 MSTORE CALLVALUE DUP1 ISZERO PUSH2 0x10 JUMPI PUSH1 0x0 DUP1 REVERT JUMPDEST POP PUSH1 0x4 CALLDATASIZE LT PUSH2 0x2B JUMPI PUSH1 0x0 CALLDATALOAD PUSH1 0xE0 SHR DUP1 PUSH4 0x89BCF928 EQ PUSH2 0x30 JUMPI JUMPDEST PUSH1 0x0 DUP1 REVERT JUMPDEST PUSH2 0x4A PUSH1 0x4 DUP1 CALLDATASIZE SUB DUP2 ADD SWAP1 PUSH2 0x45 SWAP2 SWAP1 PUSH2 0x13F JUMP JUMPDEST PUSH2 0x60 JUMP JUMPDEST PUSH1 0x40 MLOAD PUSH2 0x57 SWAP2 SWAP1 PUSH2 0x279 JUMP JUMPDEST PUSH1 0x40 MLOAD DUP1 SWAP2 SUB SWAP1 RETURN JUMPDEST PUSH1 0x0 DUP1 PUSH1 0x2 TIMESTAMP DIFFICULTY CALLER PUSH1 0x2 SLOAD PUSH1 0x40 MLOAD PUSH1 0x20 ADD PUSH2 0x7E SWAP5 SWAP4 SWAP3 SWAP2 SWAP1 PUSH2 0x22B JUMP JUMPDEST PUSH1 0x40 MLOAD PUSH1 0x20 DUP2 DUP4 SUB SUB DUP2 MSTORE SWAP1 PUSH1 0x40 MSTORE PUSH1 0x40 MLOAD PUSH2 0x9A SWAP2 SWAP1 PUSH2 0x214 JUMP JUMPDEST PUSH1 0x20 PUSH1 0x40 MLOAD DUP1 DUP4 SUB DUP2 DUP6 GAS STATICCALL ISZERO DUP1 ISZERO PUSH2 0xB7 JUMPI RETURNDATASIZE PUSH1 0x0 DUP1 RETURNDATACOPY RETURNDATASIZE PUSH1 0x0 REVERT JUMPDEST POP POP POP PUSH1 0x40 MLOAD RETURNDATASIZE PUSH1 0x1F NOT PUSH1 0x1F DUP3 ADD AND DUP3 ADD DUP1 PUSH1 0x40 MSTORE POP DUP2 ADD SWAP1 PUSH2 0xDA SWAP2 SWAP1 PUSH2 0x112 JUMP JUMPDEST PUSH1 0x0 SHR SWAP1 POP POP SWAP5 SWAP4 POP POP POP POP JUMP JUMPDEST PUSH1 0x0 DUP2 MLOAD SWAP1 POP PUSH2 0xF7 DUP2 PUSH2 0x363 JUMP JUMPDEST SWAP3 SWAP2 POP POP JUMP JUMPDEST PUSH1 0x0 DUP2 CALLDATALOAD SWAP1 POP PUSH2 0x10C DUP2 PUSH2 0x37A JUMP JUMPDEST SWAP3 SWAP2 POP POP JUMP JUMPDEST PUSH1 0x0 PUSH1 0x20 DUP3 DUP5 SUB SLT ISZERO PUSH2 0x128 JUMPI PUSH2 0x127 PUSH2 0x351 JUMP JUMPDEST JUMPDEST PUSH1 0x0 PUSH2 0x136 DUP5 DUP3 DUP6 ADD PUSH2 0xE8 JUMP JUMPDEST SWAP2 POP POP SWAP3 SWAP2 POP POP JUMP JUMPDEST PUSH1 0x0 DUP1 PUSH1 0x0 DUP1 PUSH1 0x80 DUP6 DUP8 SUB SLT ISZERO PUSH2 0x159 JUMPI PUSH2 0x158 PUSH2 0x351 JUMP JUMPDEST JUMPDEST PUSH1 0x0 PUSH2 0x167 DUP8 DUP3 DUP9 ADD PUSH2 0xFD JUMP JUMPDEST SWAP5 POP POP PUSH1 0x20 PUSH2 0x178 DUP8 DUP3 DUP9 ADD PUSH2 0xFD JUMP JUMPDEST SWAP4 POP POP PUSH1 0x40 PUSH2 0x189 DUP8 DUP3 DUP9 ADD PUSH2 0xFD JUMP JUMPDEST SWAP3 POP POP PUSH1 0x60 PUSH2 0x19A DUP8 DUP3 DUP9 ADD PUSH2 0xFD JUMP JUMPDEST SWAP2 POP POP SWAP3 SWAP6 SWAP2 SWAP5 POP SWAP3 POP JUMP JUMPDEST PUSH2 0x1B7 PUSH2 0x1B2 DUP3 PUSH2 0x2AA JUMP JUMPDEST PUSH2 0x323 JUMP JUMPDEST DUP3 MSTORE POP POP JUMP JUMPDEST PUSH1 0x0 PUSH2 0x1C8 DUP3 PUSH2 0x294 JUMP JUMPDEST PUSH2 0x1D2 DUP2 DUP6 PUSH2 0x29F JUMP JUMPDEST SWAP4 POP PUSH2 0x1E2 DUP2 DUP6 PUSH1 0x20 DUP7 ADD PUSH2 0x2F0 JUMP JUMPDEST DUP1 DUP5 ADD SWAP2 POP POP SWAP3 SWAP2 POP POP JUMP JUMPDEST PUSH2 0x1F7 DUP2 PUSH2 0x2E6 JUMP JUMPDEST DUP3 MSTORE POP POP JUMP JUMPDEST PUSH2 0x20E PUSH2 0x209 DUP3 PUSH2 0x2E6 JUMP JUMPDEST PUSH2 0x347 JUMP JUMPDEST DUP3 MSTORE POP POP JUMP JUMPDEST PUSH1 0x0 PUSH2 0x220 DUP3 DUP5 PUSH2 0x1BD JUMP JUMPDEST SWAP2 POP DUP2 SWAP1 POP SWAP3 SWAP2 POP POP JUMP JUMPDEST PUSH1 0x0 PUSH2 0x237 DUP3 DUP8 PUSH2 0x1FD JUMP JUMPDEST PUSH1 0x20 DUP3 ADD SWAP2 POP PUSH2 0x247 DUP3 DUP7 PUSH2 0x1FD JUMP JUMPDEST PUSH1 0x20 DUP3 ADD SWAP2 POP PUSH2 0x257 DUP3 DUP6 PUSH2 0x1A6 JUMP JUMPDEST PUSH1 0x14 DUP3 ADD SWAP2 POP PUSH2 0x267 DUP3 DUP5 PUSH2 0x1FD JUMP JUMPDEST PUSH1 0x20 DUP3 ADD SWAP2 POP DUP2 SWAP1 POP SWAP6 SWAP5 POP POP POP POP POP JUMP JUMPDEST PUSH1 0x0 PUSH1 0x20 DUP3 ADD SWAP1 POP PUSH2 0x28E PUSH1 0x0 DUP4 ADD DUP5 PUSH2 0x1EE JUMP JUMPDEST SWAP3 SWAP2 POP POP JUMP JUMPDEST PUSH1 0x0 DUP2 MLOAD SWAP1 POP SWAP2 SWAP1 POP JUMP JUMPDEST PUSH1 0x0 DUP2 SWAP1 POP SWAP3 SWAP2 POP POP JUMP JUMPDEST PUSH1 0x0 PUSH2 0x2B5 DUP3 PUSH2 0x2C6 JUMP JUMPDEST SWAP1 POP SWAP2 SWAP1 POP JUMP JUMPDEST PUSH1 0x0 DUP2 SWAP1 POP SWAP2 SWAP1 POP JUMP JUMPDEST PUSH1 0x0 PUSH20 0xFFFFFFFFFFFFFFFFFFFFFFFFFFFFFFFFFFFFFFFF DUP3 AND SWAP1 POP SWAP2 SWAP1 POP JUMP JUMPDEST PUSH1 0x0 DUP2 SWAP1 POP SWAP2 SWAP1 POP JUMP JUMPDEST PUSH1 0x0 JUMPDEST DUP4 DUP2 LT ISZERO PUSH2 0x30E JUMPI DUP1 DUP3 ADD MLOAD DUP2 DUP5 ADD MSTORE PUSH1 0x20 DUP2 ADD SWAP1 POP PUSH2 0x2F3 JUMP JUMPDEST DUP4 DUP2 GT ISZERO PUSH2 0x31D JUMPI PUSH1 0x0 DUP5 DUP5 ADD MSTORE JUMPDEST POP POP POP POP JUMP JUMPDEST PUSH1 0x0 PUSH2 0x32E DUP3 PUSH2 0x335 JUMP JUMPDEST SWAP1 POP SWAP2 SWAP1 POP JUMP JUMPDEST PUSH1 0x0 PUSH2 0x340 DUP3 PUSH2 0x356 JUMP JUMPDEST SWAP1 POP SWAP2 SWAP1 POP JUMP JUMPDEST PUSH1 0x0 DUP2 SWAP1 POP SWAP2 SWAP1 POP JUMP JUMPDEST PUSH1 0x0 DUP1 REVERT JUMPDEST PUSH1 0x0 DUP2 PUSH1 0x60 SHL SWAP1 POP SWAP2 SWAP1 POP JUMP JUMPDEST PUSH2 0x36C DUP2 PUSH2 0x2BC JUMP JUMPDEST DUP2 EQ PUSH2 0x377 JUMPI PUSH1 0x0 DUP1 REVERT JUMPDEST POP JUMP JUMPDEST PUSH2 0x383 DUP2 PUSH2 0x2E6 JUMP JUMPDEST DUP2 EQ PUSH2 0x38E JUMPI PUSH1 0x0 DUP1 REVERT JUMPDEST POP JUMP INVALID LOG2 PUSH5 0x6970667358 0x22 SLT KECCAK256 0xAC 0xB1 EXP CHAINID DUP11 DIV GAS 0x1F SWAP15 0xCD SUB CALLCODE KECCAK256 SAR 0xF8 PUSH28 0xE8DDD6E00C6D1190875FD0205553D3A764736F6C6343000807003300 "
				},
				"gasEstimates": {
					"creation": {
						"codeDepositCost": "193400",
						"executionCost": "238",
						"totalCost": "193638"
					},
					"external": {
						"request_verification(uint256,uint256,uint256,uint256)": "infinite"
					}
				},
				"methodIdentifiers": {
					"request_verification(uint256,uint256,uint256,uint256)": "89bcf928"
				}
			},
			"userdoc": {
				"kind": "user",
				"methods": {},
				"version": 1
			}
		}
	}
}