{
	"Desktop/EthCA/blockchain/EthCA.sol": {
		"EthCA": {
			"abi": [
				{
					"inputs": [
						{
							"internalType": "string",
							"name": "domain",
							"type": "string"
						}
					],
					"name": "request_verification",
					"outputs": [
						{
							"internalType": "uint256",
							"name": "",
							"type": "uint256"
						}
					],
					"stateMutability": "nonpayable",
					"type": "function"
				},
				{
					"inputs": [],
					"name": "sign_up",
					"outputs": [
						{
							"internalType": "uint256",
							"name": "",
							"type": "uint256"
						}
					],
					"stateMutability": "payable",
					"type": "function"
				}
			],
			"devdoc": {
				"kind": "dev",
				"methods": {},
				"version": 1
			},
			"evm": {
				"assembly": "    /* \"Desktop/EthCA/blockchain/EthCA.sol\":143:1105  contract EthCA {... */\n  mstore(0x40, 0x80)\n  callvalue\n  dup1\n  iszero\n  tag_1\n  jumpi\n  0x00\n  dup1\n  revert\ntag_1:\n  pop\n  dataSize(sub_0)\n  dup1\n  dataOffset(sub_0)\n  0x00\n  codecopy\n  0x00\n  return\nstop\n\nsub_0: assembly {\n        /* \"Desktop/EthCA/blockchain/EthCA.sol\":143:1105  contract EthCA {... */\n      mstore(0x40, 0x80)\n      jumpi(tag_1, lt(calldatasize, 0x04))\n      shr(0xe0, calldataload(0x00))\n      dup1\n      0x969b1567\n      eq\n      tag_2\n      jumpi\n      dup1\n      0xc4fb3337\n      eq\n      tag_3\n      jumpi\n    tag_1:\n      0x00\n      dup1\n      revert\n        /* \"Desktop/EthCA/blockchain/EthCA.sol\":613:999  function request_verification(string memory domain) public returns (uint) {... */\n    tag_2:\n      callvalue\n      dup1\n      iszero\n      tag_4\n      jumpi\n      0x00\n      dup1\n      revert\n    tag_4:\n      pop\n      tag_5\n      0x04\n      dup1\n      calldatasize\n      sub\n      dup2\n      add\n      swap1\n      tag_6\n      swap2\n      swap1\n      tag_7\n      jump\t// in\n    tag_6:\n      tag_8\n      jump\t// in\n    tag_5:\n      mload(0x40)\n      tag_9\n      swap2\n      swap1\n      tag_10\n      jump\t// in\n    tag_9:\n      mload(0x40)\n      dup1\n      swap2\n      sub\n      swap1\n      return\n        /* \"Desktop/EthCA/blockchain/EthCA.sol\":1004:1103  function sign_up() public payable returns (uint) {... */\n    tag_3:\n      tag_11\n      tag_12\n      jump\t// in\n    tag_11:\n      mload(0x40)\n      tag_13\n      swap2\n      swap1\n      tag_10\n      jump\t// in\n    tag_13:\n      mload(0x40)\n      dup1\n      swap2\n      sub\n      swap1\n      return\n        /* \"Desktop/EthCA/blockchain/EthCA.sol\":613:999  function request_verification(string memory domain) public returns (uint) {... */\n    tag_8:\n        /* \"Desktop/EthCA/blockchain/EthCA.sol\":681:685  uint */\n      0x00\n        /* \"Desktop/EthCA/blockchain/EthCA.sol\":697:707  uint nonce */\n      dup1\n        /* \"Desktop/EthCA/blockchain/EthCA.sol\":715:798  sha256(abi.encodePacked(block.timestamp, block.difficulty, msg.sender, numsignups)) */\n      0x02\n        /* \"Desktop/EthCA/blockchain/EthCA.sol\":739:754  block.timestamp */\n      timestamp\n        /* \"Desktop/EthCA/blockchain/EthCA.sol\":756:772  block.difficulty */\n      difficulty\n        /* \"Desktop/EthCA/blockchain/EthCA.sol\":774:784  msg.sender */\n      caller\n        /* \"Desktop/EthCA/blockchain/EthCA.sol\":786:796  numsignups */\n      sload(0x02)\n        /* \"Desktop/EthCA/blockchain/EthCA.sol\":722:797  abi.encodePacked(block.timestamp, block.difficulty, msg.sender, numsignups) */\n      add(0x20, mload(0x40))\n      tag_15\n      swap5\n      swap4\n      swap3\n      swap2\n      swap1\n      tag_16\n      jump\t// in\n    tag_15:\n      mload(0x40)\n      0x20\n      dup2\n      dup4\n      sub\n      sub\n      dup2\n      mstore\n      swap1\n      0x40\n      mstore\n        /* \"Desktop/EthCA/blockchain/EthCA.sol\":715:798  sha256(abi.encodePacked(block.timestamp, block.difficulty, msg.sender, numsignups)) */\n      mload(0x40)\n      tag_17\n      swap2\n      swap1\n      tag_18\n      jump\t// in\n    tag_17:\n      0x20\n      mload(0x40)\n      dup1\n      dup4\n      sub\n      dup2\n      dup6\n      gas\n      staticcall\n      iszero\n      dup1\n      iszero\n      tag_20\n      jumpi\n      returndatasize\n      0x00\n      dup1\n      returndatacopy\n      revert(0x00, returndatasize)\n    tag_20:\n      pop\n      pop\n      pop\n      mload(0x40)\n      returndatasize\n      not(0x1f)\n      0x1f\n      dup3\n      add\n      and\n      dup3\n      add\n      dup1\n      0x40\n      mstore\n      pop\n      dup2\n      add\n      swap1\n      tag_21\n      swap2\n      swap1\n      tag_22\n      jump\t// in\n    tag_21:\n        /* \"Desktop/EthCA/blockchain/EthCA.sol\":710:799  uint(sha256(abi.encodePacked(block.timestamp, block.difficulty, msg.sender, numsignups))) */\n      0x00\n      shr\n        /* \"Desktop/EthCA/blockchain/EthCA.sol\":697:799  uint nonce = uint(sha256(abi.encodePacked(block.timestamp, block.difficulty, msg.sender, numsignups))) */\n      swap1\n      pop\n        /* \"Desktop/EthCA/blockchain/EthCA.sol\":839:844  nonce */\n      dup1\n        /* \"Desktop/EthCA/blockchain/EthCA.sol\":809:817  requests */\n      0x01\n        /* \"Desktop/EthCA/blockchain/EthCA.sol\":809:830  requests[numRequests] */\n      0x00\n        /* \"Desktop/EthCA/blockchain/EthCA.sol\":818:829  numRequests */\n      sload(0x03)\n        /* \"Desktop/EthCA/blockchain/EthCA.sol\":809:830  requests[numRequests] */\n      dup2\n      mstore\n      0x20\n      add\n      swap1\n      dup2\n      mstore\n      0x20\n      add\n      0x00\n      keccak256\n        /* \"Desktop/EthCA/blockchain/EthCA.sol\":809:836  requests[numRequests].nonce */\n      0x01\n      add\n        /* \"Desktop/EthCA/blockchain/EthCA.sol\":809:844  requests[numRequests].nonce = nonce */\n      dup2\n      swap1\n      sstore\n      pop\n        /* \"Desktop/EthCA/blockchain/EthCA.sol\":881:892  numRequests */\n      sload(0x03)\n        /* \"Desktop/EthCA/blockchain/EthCA.sol\":854:862  requests */\n      0x01\n        /* \"Desktop/EthCA/blockchain/EthCA.sol\":854:875  requests[numRequests] */\n      0x00\n        /* \"Desktop/EthCA/blockchain/EthCA.sol\":863:874  numRequests */\n      sload(0x03)\n        /* \"Desktop/EthCA/blockchain/EthCA.sol\":854:875  requests[numRequests] */\n      dup2\n      mstore\n      0x20\n      add\n      swap1\n      dup2\n      mstore\n      0x20\n      add\n      0x00\n      keccak256\n        /* \"Desktop/EthCA/blockchain/EthCA.sol\":854:878  requests[numRequests].id */\n      0x00\n      add\n        /* \"Desktop/EthCA/blockchain/EthCA.sol\":854:892  requests[numRequests].id = numRequests */\n      dup2\n      swap1\n      sstore\n      pop\n        /* \"Desktop/EthCA/blockchain/EthCA.sol\":933:943  msg.sender */\n      caller\n        /* \"Desktop/EthCA/blockchain/EthCA.sol\":902:910  requests */\n      0x01\n        /* \"Desktop/EthCA/blockchain/EthCA.sol\":902:923  requests[numRequests] */\n      0x00\n        /* \"Desktop/EthCA/blockchain/EthCA.sol\":911:922  numRequests */\n      sload(0x03)\n        /* \"Desktop/EthCA/blockchain/EthCA.sol\":902:923  requests[numRequests] */\n      dup2\n      mstore\n      0x20\n      add\n      swap1\n      dup2\n      mstore\n      0x20\n      add\n      0x00\n      keccak256\n        /* \"Desktop/EthCA/blockchain/EthCA.sol\":902:930  requests[numRequests].sender */\n      0x04\n      add\n      0x00\n        /* \"Desktop/EthCA/blockchain/EthCA.sol\":902:943  requests[numRequests].sender = msg.sender */\n      0x0100\n      exp\n      dup2\n      sload\n      dup2\n      0xffffffffffffffffffffffffffffffffffffffff\n      mul\n      not\n      and\n      swap1\n      dup4\n      0xffffffffffffffffffffffffffffffffffffffff\n      and\n      mul\n      or\n      swap1\n      sstore\n      pop\n        /* \"Desktop/EthCA/blockchain/EthCA.sol\":984:990  domain */\n      dup3\n        /* \"Desktop/EthCA/blockchain/EthCA.sol\":953:961  requests */\n      0x01\n        /* \"Desktop/EthCA/blockchain/EthCA.sol\":953:974  requests[numRequests] */\n      0x00\n        /* \"Desktop/EthCA/blockchain/EthCA.sol\":962:973  numRequests */\n      sload(0x03)\n        /* \"Desktop/EthCA/blockchain/EthCA.sol\":953:974  requests[numRequests] */\n      dup2\n      mstore\n      0x20\n      add\n      swap1\n      dup2\n      mstore\n      0x20\n      add\n      0x00\n      keccak256\n        /* \"Desktop/EthCA/blockchain/EthCA.sol\":953:981  requests[numRequests].domain */\n      0x03\n      add\n        /* \"Desktop/EthCA/blockchain/EthCA.sol\":953:990  requests[numRequests].domain = domain */\n      swap1\n      dup1\n      mload\n      swap1\n      0x20\n      add\n      swap1\n      tag_23\n      swap3\n      swap2\n      swap1\n      tag_24\n      jump\t// in\n    tag_23:\n      pop\n        /* \"Desktop/EthCA/blockchain/EthCA.sol\":687:999  {... */\n      pop\n        /* \"Desktop/EthCA/blockchain/EthCA.sol\":613:999  function request_verification(string memory domain) public returns (uint) {... */\n      swap2\n      swap1\n      pop\n      jump\t// out\n        /* \"Desktop/EthCA/blockchain/EthCA.sol\":1004:1103  function sign_up() public payable returns (uint) {... */\n    tag_12:\n        /* \"Desktop/EthCA/blockchain/EthCA.sol\":1047:1051  uint */\n      0x00\n        /* \"Desktop/EthCA/blockchain/EthCA.sol\":1083:1090  1 ether */\n      0x0de0b6b3a7640000\n        /* \"Desktop/EthCA/blockchain/EthCA.sol\":1071:1080  msg.value */\n      callvalue\n        /* \"Desktop/EthCA/blockchain/EthCA.sol\":1071:1090  msg.value > 1 ether */\n      gt\n        /* \"Desktop/EthCA/blockchain/EthCA.sol\":1063:1095  require(msg.value > 1 ether, \"\") */\n      tag_26\n      jumpi\n      mload(0x40)\n      0x08c379a000000000000000000000000000000000000000000000000000000000\n      dup2\n      mstore\n      0x04\n      add\n      tag_27\n      swap1\n      tag_28\n      jump\t// in\n    tag_27:\n      mload(0x40)\n      dup1\n      swap2\n      sub\n      swap1\n      revert\n    tag_26:\n        /* \"Desktop/EthCA/blockchain/EthCA.sol\":1004:1103  function sign_up() public payable returns (uint) {... */\n      swap1\n      jump\t// out\n    tag_24:\n      dup3\n      dup1\n      sload\n      tag_29\n      swap1\n      tag_30\n      jump\t// in\n    tag_29:\n      swap1\n      0x00\n      mstore\n      keccak256(0x00, 0x20)\n      swap1\n      0x1f\n      add\n      0x20\n      swap1\n      div\n      dup2\n      add\n      swap3\n      dup3\n      tag_32\n      jumpi\n      0x00\n      dup6\n      sstore\n      jump(tag_31)\n    tag_32:\n      dup3\n      0x1f\n      lt\n      tag_33\n      jumpi\n      dup1\n      mload\n      not(0xff)\n      and\n      dup4\n      dup1\n      add\n      or\n      dup6\n      sstore\n      jump(tag_31)\n    tag_33:\n      dup3\n      dup1\n      add\n      0x01\n      add\n      dup6\n      sstore\n      dup3\n      iszero\n      tag_31\n      jumpi\n      swap2\n      dup3\n      add\n    tag_34:\n      dup3\n      dup2\n      gt\n      iszero\n      tag_35\n      jumpi\n      dup3\n      mload\n      dup3\n      sstore\n      swap2\n      0x20\n      add\n      swap2\n      swap1\n      0x01\n      add\n      swap1\n      jump(tag_34)\n    tag_35:\n    tag_31:\n      pop\n      swap1\n      pop\n      tag_36\n      swap2\n      swap1\n      tag_37\n      jump\t// in\n    tag_36:\n      pop\n      swap1\n      jump\t// out\n    tag_37:\n    tag_38:\n      dup1\n      dup3\n      gt\n      iszero\n      tag_39\n      jumpi\n      0x00\n      dup2\n      0x00\n      swap1\n      sstore\n      pop\n      0x01\n      add\n      jump(tag_38)\n    tag_39:\n      pop\n      swap1\n      jump\t// out\n        /* \"#utility.yul\":7:419   */\n    tag_41:\n        /* \"#utility.yul\":85:90   */\n      0x00\n        /* \"#utility.yul\":110:176   */\n      tag_43\n        /* \"#utility.yul\":126:175   */\n      tag_44\n        /* \"#utility.yul\":168:174   */\n      dup5\n        /* \"#utility.yul\":126:175   */\n      tag_45\n      jump\t// in\n    tag_44:\n        /* \"#utility.yul\":110:176   */\n      tag_46\n      jump\t// in\n    tag_43:\n        /* \"#utility.yul\":101:176   */\n      swap1\n      pop\n        /* \"#utility.yul\":199:205   */\n      dup3\n        /* \"#utility.yul\":192:197   */\n      dup2\n        /* \"#utility.yul\":185:206   */\n      mstore\n        /* \"#utility.yul\":237:241   */\n      0x20\n        /* \"#utility.yul\":230:235   */\n      dup2\n        /* \"#utility.yul\":226:242   */\n      add\n        /* \"#utility.yul\":275:278   */\n      dup5\n        /* \"#utility.yul\":266:272   */\n      dup5\n        /* \"#utility.yul\":261:264   */\n      dup5\n        /* \"#utility.yul\":257:273   */\n      add\n        /* \"#utility.yul\":254:279   */\n      gt\n        /* \"#utility.yul\":251:363   */\n      iszero\n      tag_47\n      jumpi\n        /* \"#utility.yul\":282:361   */\n      tag_48\n      tag_49\n      jump\t// in\n    tag_48:\n        /* \"#utility.yul\":251:363   */\n    tag_47:\n        /* \"#utility.yul\":372:413   */\n      tag_50\n        /* \"#utility.yul\":406:412   */\n      dup5\n        /* \"#utility.yul\":401:404   */\n      dup3\n        /* \"#utility.yul\":396:399   */\n      dup6\n        /* \"#utility.yul\":372:413   */\n      tag_51\n      jump\t// in\n    tag_50:\n        /* \"#utility.yul\":91:419   */\n      pop\n        /* \"#utility.yul\":7:419   */\n      swap4\n      swap3\n      pop\n      pop\n      pop\n      jump\t// out\n        /* \"#utility.yul\":425:568   */\n    tag_52:\n        /* \"#utility.yul\":482:487   */\n      0x00\n        /* \"#utility.yul\":513:519   */\n      dup2\n        /* \"#utility.yul\":507:520   */\n      mload\n        /* \"#utility.yul\":498:520   */\n      swap1\n      pop\n        /* \"#utility.yul\":529:562   */\n      tag_54\n        /* \"#utility.yul\":556:561   */\n      dup2\n        /* \"#utility.yul\":529:562   */\n      tag_55\n      jump\t// in\n    tag_54:\n        /* \"#utility.yul\":425:568   */\n      swap3\n      swap2\n      pop\n      pop\n      jump\t// out\n        /* \"#utility.yul\":588:928   */\n    tag_56:\n        /* \"#utility.yul\":644:649   */\n      0x00\n        /* \"#utility.yul\":693:696   */\n      dup3\n        /* \"#utility.yul\":686:690   */\n      0x1f\n        /* \"#utility.yul\":678:684   */\n      dup4\n        /* \"#utility.yul\":674:691   */\n      add\n        /* \"#utility.yul\":670:697   */\n      slt\n        /* \"#utility.yul\":660:782   */\n      tag_58\n      jumpi\n        /* \"#utility.yul\":701:780   */\n      tag_59\n      tag_60\n      jump\t// in\n    tag_59:\n        /* \"#utility.yul\":660:782   */\n    tag_58:\n        /* \"#utility.yul\":818:824   */\n      dup2\n        /* \"#utility.yul\":805:825   */\n      calldataload\n        /* \"#utility.yul\":843:922   */\n      tag_61\n        /* \"#utility.yul\":918:921   */\n      dup5\n        /* \"#utility.yul\":910:916   */\n      dup3\n        /* \"#utility.yul\":903:907   */\n      0x20\n        /* \"#utility.yul\":895:901   */\n      dup7\n        /* \"#utility.yul\":891:908   */\n      add\n        /* \"#utility.yul\":843:922   */\n      tag_41\n      jump\t// in\n    tag_61:\n        /* \"#utility.yul\":834:922   */\n      swap2\n      pop\n        /* \"#utility.yul\":650:928   */\n      pop\n        /* \"#utility.yul\":588:928   */\n      swap3\n      swap2\n      pop\n      pop\n      jump\t// out\n        /* \"#utility.yul\":934:1285   */\n    tag_22:\n        /* \"#utility.yul\":1004:1010   */\n      0x00\n        /* \"#utility.yul\":1053:1055   */\n      0x20\n        /* \"#utility.yul\":1041:1050   */\n      dup3\n        /* \"#utility.yul\":1032:1039   */\n      dup5\n        /* \"#utility.yul\":1028:1051   */\n      sub\n        /* \"#utility.yul\":1024:1056   */\n      slt\n        /* \"#utility.yul\":1021:1140   */\n      iszero\n      tag_63\n      jumpi\n        /* \"#utility.yul\":1059:1138   */\n      tag_64\n      tag_65\n      jump\t// in\n    tag_64:\n        /* \"#utility.yul\":1021:1140   */\n    tag_63:\n        /* \"#utility.yul\":1179:1180   */\n      0x00\n        /* \"#utility.yul\":1204:1268   */\n      tag_66\n        /* \"#utility.yul\":1260:1267   */\n      dup5\n        /* \"#utility.yul\":1251:1257   */\n      dup3\n        /* \"#utility.yul\":1240:1249   */\n      dup6\n        /* \"#utility.yul\":1236:1258   */\n      add\n        /* \"#utility.yul\":1204:1268   */\n      tag_52\n      jump\t// in\n    tag_66:\n        /* \"#utility.yul\":1194:1268   */\n      swap2\n      pop\n        /* \"#utility.yul\":1150:1278   */\n      pop\n        /* \"#utility.yul\":934:1285   */\n      swap3\n      swap2\n      pop\n      pop\n      jump\t// out\n        /* \"#utility.yul\":1291:1800   */\n    tag_7:\n        /* \"#utility.yul\":1360:1366   */\n      0x00\n        /* \"#utility.yul\":1409:1411   */\n      0x20\n        /* \"#utility.yul\":1397:1406   */\n      dup3\n        /* \"#utility.yul\":1388:1395   */\n      dup5\n        /* \"#utility.yul\":1384:1407   */\n      sub\n        /* \"#utility.yul\":1380:1412   */\n      slt\n        /* \"#utility.yul\":1377:1496   */\n      iszero\n      tag_68\n      jumpi\n        /* \"#utility.yul\":1415:1494   */\n      tag_69\n      tag_65\n      jump\t// in\n    tag_69:\n        /* \"#utility.yul\":1377:1496   */\n    tag_68:\n        /* \"#utility.yul\":1563:1564   */\n      0x00\n        /* \"#utility.yul\":1552:1561   */\n      dup3\n        /* \"#utility.yul\":1548:1565   */\n      add\n        /* \"#utility.yul\":1535:1566   */\n      calldataload\n        /* \"#utility.yul\":1593:1611   */\n      0xffffffffffffffff\n        /* \"#utility.yul\":1585:1591   */\n      dup2\n        /* \"#utility.yul\":1582:1612   */\n      gt\n        /* \"#utility.yul\":1579:1696   */\n      iszero\n      tag_70\n      jumpi\n        /* \"#utility.yul\":1615:1694   */\n      tag_71\n      tag_72\n      jump\t// in\n    tag_71:\n        /* \"#utility.yul\":1579:1696   */\n    tag_70:\n        /* \"#utility.yul\":1720:1783   */\n      tag_73\n        /* \"#utility.yul\":1775:1782   */\n      dup5\n        /* \"#utility.yul\":1766:1772   */\n      dup3\n        /* \"#utility.yul\":1755:1764   */\n      dup6\n        /* \"#utility.yul\":1751:1773   */\n      add\n        /* \"#utility.yul\":1720:1783   */\n      tag_56\n      jump\t// in\n    tag_73:\n        /* \"#utility.yul\":1710:1783   */\n      swap2\n      pop\n        /* \"#utility.yul\":1506:1793   */\n      pop\n        /* \"#utility.yul\":1291:1800   */\n      swap3\n      swap2\n      pop\n      pop\n      jump\t// out\n        /* \"#utility.yul\":1806:1963   */\n    tag_74:\n        /* \"#utility.yul\":1911:1956   */\n      tag_76\n        /* \"#utility.yul\":1931:1955   */\n      tag_77\n        /* \"#utility.yul\":1949:1954   */\n      dup3\n        /* \"#utility.yul\":1931:1955   */\n      tag_78\n      jump\t// in\n    tag_77:\n        /* \"#utility.yul\":1911:1956   */\n      tag_79\n      jump\t// in\n    tag_76:\n        /* \"#utility.yul\":1906:1909   */\n      dup3\n        /* \"#utility.yul\":1899:1957   */\n      mstore\n        /* \"#utility.yul\":1806:1963   */\n      pop\n      pop\n      jump\t// out\n        /* \"#utility.yul\":1969:2342   */\n    tag_80:\n        /* \"#utility.yul\":2073:2076   */\n      0x00\n        /* \"#utility.yul\":2101:2139   */\n      tag_82\n        /* \"#utility.yul\":2133:2138   */\n      dup3\n        /* \"#utility.yul\":2101:2139   */\n      tag_83\n      jump\t// in\n    tag_82:\n        /* \"#utility.yul\":2155:2243   */\n      tag_84\n        /* \"#utility.yul\":2236:2242   */\n      dup2\n        /* \"#utility.yul\":2231:2234   */\n      dup6\n        /* \"#utility.yul\":2155:2243   */\n      tag_85\n      jump\t// in\n    tag_84:\n        /* \"#utility.yul\":2148:2243   */\n      swap4\n      pop\n        /* \"#utility.yul\":2252:2304   */\n      tag_86\n        /* \"#utility.yul\":2297:2303   */\n      dup2\n        /* \"#utility.yul\":2292:2295   */\n      dup6\n        /* \"#utility.yul\":2285:2289   */\n      0x20\n        /* \"#utility.yul\":2278:2283   */\n      dup7\n        /* \"#utility.yul\":2274:2290   */\n      add\n        /* \"#utility.yul\":2252:2304   */\n      tag_87\n      jump\t// in\n    tag_86:\n        /* \"#utility.yul\":2329:2335   */\n      dup1\n        /* \"#utility.yul\":2324:2327   */\n      dup5\n        /* \"#utility.yul\":2320:2336   */\n      add\n        /* \"#utility.yul\":2313:2336   */\n      swap2\n      pop\n        /* \"#utility.yul\":2077:2342   */\n      pop\n        /* \"#utility.yul\":1969:2342   */\n      swap3\n      swap2\n      pop\n      pop\n      jump\t// out\n        /* \"#utility.yul\":2348:2712   */\n    tag_88:\n        /* \"#utility.yul\":2490:2493   */\n      0x00\n        /* \"#utility.yul\":2511:2577   */\n      tag_90\n        /* \"#utility.yul\":2575:2576   */\n      0x00\n        /* \"#utility.yul\":2570:2573   */\n      dup4\n        /* \"#utility.yul\":2511:2577   */\n      tag_91\n      jump\t// in\n    tag_90:\n        /* \"#utility.yul\":2504:2577   */\n      swap2\n      pop\n        /* \"#utility.yul\":2586:2679   */\n      tag_92\n        /* \"#utility.yul\":2675:2678   */\n      dup3\n        /* \"#utility.yul\":2586:2679   */\n      tag_93\n      jump\t// in\n    tag_92:\n        /* \"#utility.yul\":2704:2705   */\n      0x00\n        /* \"#utility.yul\":2699:2702   */\n      dup3\n        /* \"#utility.yul\":2695:2706   */\n      add\n        /* \"#utility.yul\":2688:2706   */\n      swap1\n      pop\n        /* \"#utility.yul\":2348:2712   */\n      swap2\n      swap1\n      pop\n      jump\t// out\n        /* \"#utility.yul\":2718:2836   */\n    tag_94:\n        /* \"#utility.yul\":2805:2829   */\n      tag_96\n        /* \"#utility.yul\":2823:2828   */\n      dup2\n        /* \"#utility.yul\":2805:2829   */\n      tag_97\n      jump\t// in\n    tag_96:\n        /* \"#utility.yul\":2800:2803   */\n      dup3\n        /* \"#utility.yul\":2793:2830   */\n      mstore\n        /* \"#utility.yul\":2718:2836   */\n      pop\n      pop\n      jump\t// out\n        /* \"#utility.yul\":2842:2999   */\n    tag_98:\n        /* \"#utility.yul\":2947:2992   */\n      tag_100\n        /* \"#utility.yul\":2967:2991   */\n      tag_101\n        /* \"#utility.yul\":2985:2990   */\n      dup3\n        /* \"#utility.yul\":2967:2991   */\n      tag_97\n      jump\t// in\n    tag_101:\n        /* \"#utility.yul\":2947:2992   */\n      tag_102\n      jump\t// in\n    tag_100:\n        /* \"#utility.yul\":2942:2945   */\n      dup3\n        /* \"#utility.yul\":2935:2993   */\n      mstore\n        /* \"#utility.yul\":2842:2999   */\n      pop\n      pop\n      jump\t// out\n        /* \"#utility.yul\":3005:3276   */\n    tag_18:\n        /* \"#utility.yul\":3135:3138   */\n      0x00\n        /* \"#utility.yul\":3157:3250   */\n      tag_104\n        /* \"#utility.yul\":3246:3249   */\n      dup3\n        /* \"#utility.yul\":3237:3243   */\n      dup5\n        /* \"#utility.yul\":3157:3250   */\n      tag_80\n      jump\t// in\n    tag_104:\n        /* \"#utility.yul\":3150:3250   */\n      swap2\n      pop\n        /* \"#utility.yul\":3267:3270   */\n      dup2\n        /* \"#utility.yul\":3260:3270   */\n      swap1\n      pop\n        /* \"#utility.yul\":3005:3276   */\n      swap3\n      swap2\n      pop\n      pop\n      jump\t// out\n        /* \"#utility.yul\":3282:3961   */\n    tag_16:\n        /* \"#utility.yul\":3478:3481   */\n      0x00\n        /* \"#utility.yul\":3493:3568   */\n      tag_106\n        /* \"#utility.yul\":3564:3567   */\n      dup3\n        /* \"#utility.yul\":3555:3561   */\n      dup8\n        /* \"#utility.yul\":3493:3568   */\n      tag_98\n      jump\t// in\n    tag_106:\n        /* \"#utility.yul\":3593:3595   */\n      0x20\n        /* \"#utility.yul\":3588:3591   */\n      dup3\n        /* \"#utility.yul\":3584:3596   */\n      add\n        /* \"#utility.yul\":3577:3596   */\n      swap2\n      pop\n        /* \"#utility.yul\":3606:3681   */\n      tag_107\n        /* \"#utility.yul\":3677:3680   */\n      dup3\n        /* \"#utility.yul\":3668:3674   */\n      dup7\n        /* \"#utility.yul\":3606:3681   */\n      tag_98\n      jump\t// in\n    tag_107:\n        /* \"#utility.yul\":3706:3708   */\n      0x20\n        /* \"#utility.yul\":3701:3704   */\n      dup3\n        /* \"#utility.yul\":3697:3709   */\n      add\n        /* \"#utility.yul\":3690:3709   */\n      swap2\n      pop\n        /* \"#utility.yul\":3719:3794   */\n      tag_108\n        /* \"#utility.yul\":3790:3793   */\n      dup3\n        /* \"#utility.yul\":3781:3787   */\n      dup6\n        /* \"#utility.yul\":3719:3794   */\n      tag_74\n      jump\t// in\n    tag_108:\n        /* \"#utility.yul\":3819:3821   */\n      0x14\n        /* \"#utility.yul\":3814:3817   */\n      dup3\n        /* \"#utility.yul\":3810:3822   */\n      add\n        /* \"#utility.yul\":3803:3822   */\n      swap2\n      pop\n        /* \"#utility.yul\":3832:3907   */\n      tag_109\n        /* \"#utility.yul\":3903:3906   */\n      dup3\n        /* \"#utility.yul\":3894:3900   */\n      dup5\n        /* \"#utility.yul\":3832:3907   */\n      tag_98\n      jump\t// in\n    tag_109:\n        /* \"#utility.yul\":3932:3934   */\n      0x20\n        /* \"#utility.yul\":3927:3930   */\n      dup3\n        /* \"#utility.yul\":3923:3935   */\n      add\n        /* \"#utility.yul\":3916:3935   */\n      swap2\n      pop\n        /* \"#utility.yul\":3952:3955   */\n      dup2\n        /* \"#utility.yul\":3945:3955   */\n      swap1\n      pop\n        /* \"#utility.yul\":3282:3961   */\n      swap6\n      swap5\n      pop\n      pop\n      pop\n      pop\n      pop\n      jump\t// out\n        /* \"#utility.yul\":3967:4386   */\n    tag_28:\n        /* \"#utility.yul\":4133:4137   */\n      0x00\n        /* \"#utility.yul\":4171:4173   */\n      0x20\n        /* \"#utility.yul\":4160:4169   */\n      dup3\n        /* \"#utility.yul\":4156:4174   */\n      add\n        /* \"#utility.yul\":4148:4174   */\n      swap1\n      pop\n        /* \"#utility.yul\":4220:4229   */\n      dup2\n        /* \"#utility.yul\":4214:4218   */\n      dup2\n        /* \"#utility.yul\":4210:4230   */\n      sub\n        /* \"#utility.yul\":4206:4207   */\n      0x00\n        /* \"#utility.yul\":4195:4204   */\n      dup4\n        /* \"#utility.yul\":4191:4208   */\n      add\n        /* \"#utility.yul\":4184:4231   */\n      mstore\n        /* \"#utility.yul\":4248:4379   */\n      tag_111\n        /* \"#utility.yul\":4374:4378   */\n      dup2\n        /* \"#utility.yul\":4248:4379   */\n      tag_88\n      jump\t// in\n    tag_111:\n        /* \"#utility.yul\":4240:4379   */\n      swap1\n      pop\n        /* \"#utility.yul\":3967:4386   */\n      swap2\n      swap1\n      pop\n      jump\t// out\n        /* \"#utility.yul\":4392:4614   */\n    tag_10:\n        /* \"#utility.yul\":4485:4489   */\n      0x00\n        /* \"#utility.yul\":4523:4525   */\n      0x20\n        /* \"#utility.yul\":4512:4521   */\n      dup3\n        /* \"#utility.yul\":4508:4526   */\n      add\n        /* \"#utility.yul\":4500:4526   */\n      swap1\n      pop\n        /* \"#utility.yul\":4536:4607   */\n      tag_113\n        /* \"#utility.yul\":4604:4605   */\n      0x00\n        /* \"#utility.yul\":4593:4602   */\n      dup4\n        /* \"#utility.yul\":4589:4606   */\n      add\n        /* \"#utility.yul\":4580:4586   */\n      dup5\n        /* \"#utility.yul\":4536:4607   */\n      tag_94\n      jump\t// in\n    tag_113:\n        /* \"#utility.yul\":4392:4614   */\n      swap3\n      swap2\n      pop\n      pop\n      jump\t// out\n        /* \"#utility.yul\":4620:4749   */\n    tag_46:\n        /* \"#utility.yul\":4654:4660   */\n      0x00\n        /* \"#utility.yul\":4681:4701   */\n      tag_115\n      tag_116\n      jump\t// in\n    tag_115:\n        /* \"#utility.yul\":4671:4701   */\n      swap1\n      pop\n        /* \"#utility.yul\":4710:4743   */\n      tag_117\n        /* \"#utility.yul\":4738:4742   */\n      dup3\n        /* \"#utility.yul\":4730:4736   */\n      dup3\n        /* \"#utility.yul\":4710:4743   */\n      tag_118\n      jump\t// in\n    tag_117:\n        /* \"#utility.yul\":4620:4749   */\n      swap2\n      swap1\n      pop\n      jump\t// out\n        /* \"#utility.yul\":4755:4830   */\n    tag_116:\n        /* \"#utility.yul\":4788:4794   */\n      0x00\n        /* \"#utility.yul\":4821:4823   */\n      0x40\n        /* \"#utility.yul\":4815:4824   */\n      mload\n        /* \"#utility.yul\":4805:4824   */\n      swap1\n      pop\n        /* \"#utility.yul\":4755:4830   */\n      swap1\n      jump\t// out\n        /* \"#utility.yul\":4836:5144   */\n    tag_45:\n        /* \"#utility.yul\":4898:4902   */\n      0x00\n        /* \"#utility.yul\":4988:5006   */\n      0xffffffffffffffff\n        /* \"#utility.yul\":4980:4986   */\n      dup3\n        /* \"#utility.yul\":4977:5007   */\n      gt\n        /* \"#utility.yul\":4974:5030   */\n      iszero\n      tag_121\n      jumpi\n        /* \"#utility.yul\":5010:5028   */\n      tag_122\n      tag_123\n      jump\t// in\n    tag_122:\n        /* \"#utility.yul\":4974:5030   */\n    tag_121:\n        /* \"#utility.yul\":5048:5077   */\n      tag_124\n        /* \"#utility.yul\":5070:5076   */\n      dup3\n        /* \"#utility.yul\":5048:5077   */\n      tag_125\n      jump\t// in\n    tag_124:\n        /* \"#utility.yul\":5040:5077   */\n      swap1\n      pop\n        /* \"#utility.yul\":5132:5136   */\n      0x20\n        /* \"#utility.yul\":5126:5130   */\n      dup2\n        /* \"#utility.yul\":5122:5137   */\n      add\n        /* \"#utility.yul\":5114:5137   */\n      swap1\n      pop\n        /* \"#utility.yul\":4836:5144   */\n      swap2\n      swap1\n      pop\n      jump\t// out\n        /* \"#utility.yul\":5150:5248   */\n    tag_83:\n        /* \"#utility.yul\":5201:5207   */\n      0x00\n        /* \"#utility.yul\":5235:5240   */\n      dup2\n        /* \"#utility.yul\":5229:5241   */\n      mload\n        /* \"#utility.yul\":5219:5241   */\n      swap1\n      pop\n        /* \"#utility.yul\":5150:5248   */\n      swap2\n      swap1\n      pop\n      jump\t// out\n        /* \"#utility.yul\":5254:5401   */\n    tag_85:\n        /* \"#utility.yul\":5355:5366   */\n      0x00\n        /* \"#utility.yul\":5392:5395   */\n      dup2\n        /* \"#utility.yul\":5377:5395   */\n      swap1\n      pop\n        /* \"#utility.yul\":5254:5401   */\n      swap3\n      swap2\n      pop\n      pop\n      jump\t// out\n        /* \"#utility.yul\":5407:5576   */\n    tag_91:\n        /* \"#utility.yul\":5491:5502   */\n      0x00\n        /* \"#utility.yul\":5525:5531   */\n      dup3\n        /* \"#utility.yul\":5520:5523   */\n      dup3\n        /* \"#utility.yul\":5513:5532   */\n      mstore\n        /* \"#utility.yul\":5565:5569   */\n      0x20\n        /* \"#utility.yul\":5560:5563   */\n      dup3\n        /* \"#utility.yul\":5556:5570   */\n      add\n        /* \"#utility.yul\":5541:5570   */\n      swap1\n      pop\n        /* \"#utility.yul\":5407:5576   */\n      swap3\n      swap2\n      pop\n      pop\n      jump\t// out\n        /* \"#utility.yul\":5582:5678   */\n    tag_78:\n        /* \"#utility.yul\":5619:5626   */\n      0x00\n        /* \"#utility.yul\":5648:5672   */\n      tag_130\n        /* \"#utility.yul\":5666:5671   */\n      dup3\n        /* \"#utility.yul\":5648:5672   */\n      tag_131\n      jump\t// in\n    tag_130:\n        /* \"#utility.yul\":5637:5672   */\n      swap1\n      pop\n        /* \"#utility.yul\":5582:5678   */\n      swap2\n      swap1\n      pop\n      jump\t// out\n        /* \"#utility.yul\":5684:5761   */\n    tag_132:\n        /* \"#utility.yul\":5721:5728   */\n      0x00\n        /* \"#utility.yul\":5750:5755   */\n      dup2\n        /* \"#utility.yul\":5739:5755   */\n      swap1\n      pop\n        /* \"#utility.yul\":5684:5761   */\n      swap2\n      swap1\n      pop\n      jump\t// out\n        /* \"#utility.yul\":5767:5893   */\n    tag_131:\n        /* \"#utility.yul\":5804:5811   */\n      0x00\n        /* \"#utility.yul\":5844:5886   */\n      0xffffffffffffffffffffffffffffffffffffffff\n        /* \"#utility.yul\":5837:5842   */\n      dup3\n        /* \"#utility.yul\":5833:5887   */\n      and\n        /* \"#utility.yul\":5822:5887   */\n      swap1\n      pop\n        /* \"#utility.yul\":5767:5893   */\n      swap2\n      swap1\n      pop\n      jump\t// out\n        /* \"#utility.yul\":5899:5976   */\n    tag_97:\n        /* \"#utility.yul\":5936:5943   */\n      0x00\n        /* \"#utility.yul\":5965:5970   */\n      dup2\n        /* \"#utility.yul\":5954:5970   */\n      swap1\n      pop\n        /* \"#utility.yul\":5899:5976   */\n      swap2\n      swap1\n      pop\n      jump\t// out\n        /* \"#utility.yul\":5982:6136   */\n    tag_51:\n        /* \"#utility.yul\":6066:6072   */\n      dup3\n        /* \"#utility.yul\":6061:6064   */\n      dup2\n        /* \"#utility.yul\":6056:6059   */\n      dup4\n        /* \"#utility.yul\":6043:6073   */\n      calldatacopy\n        /* \"#utility.yul\":6128:6129   */\n      0x00\n        /* \"#utility.yul\":6119:6125   */\n      dup4\n        /* \"#utility.yul\":6114:6117   */\n      dup4\n        /* \"#utility.yul\":6110:6126   */\n      add\n        /* \"#utility.yul\":6103:6130   */\n      mstore\n        /* \"#utility.yul\":5982:6136   */\n      pop\n      pop\n      pop\n      jump\t// out\n        /* \"#utility.yul\":6142:6449   */\n    tag_87:\n        /* \"#utility.yul\":6210:6211   */\n      0x00\n        /* \"#utility.yul\":6220:6333   */\n    tag_138:\n        /* \"#utility.yul\":6234:6240   */\n      dup4\n        /* \"#utility.yul\":6231:6232   */\n      dup2\n        /* \"#utility.yul\":6228:6241   */\n      lt\n        /* \"#utility.yul\":6220:6333   */\n      iszero\n      tag_140\n      jumpi\n        /* \"#utility.yul\":6319:6320   */\n      dup1\n        /* \"#utility.yul\":6314:6317   */\n      dup3\n        /* \"#utility.yul\":6310:6321   */\n      add\n        /* \"#utility.yul\":6304:6322   */\n      mload\n        /* \"#utility.yul\":6300:6301   */\n      dup2\n        /* \"#utility.yul\":6295:6298   */\n      dup5\n        /* \"#utility.yul\":6291:6302   */\n      add\n        /* \"#utility.yul\":6284:6323   */\n      mstore\n        /* \"#utility.yul\":6256:6258   */\n      0x20\n        /* \"#utility.yul\":6253:6254   */\n      dup2\n        /* \"#utility.yul\":6249:6259   */\n      add\n        /* \"#utility.yul\":6244:6259   */\n      swap1\n      pop\n        /* \"#utility.yul\":6220:6333   */\n      jump(tag_138)\n    tag_140:\n        /* \"#utility.yul\":6351:6357   */\n      dup4\n        /* \"#utility.yul\":6348:6349   */\n      dup2\n        /* \"#utility.yul\":6345:6358   */\n      gt\n        /* \"#utility.yul\":6342:6443   */\n      iszero\n      tag_141\n      jumpi\n        /* \"#utility.yul\":6431:6432   */\n      0x00\n        /* \"#utility.yul\":6422:6428   */\n      dup5\n        /* \"#utility.yul\":6417:6420   */\n      dup5\n        /* \"#utility.yul\":6413:6429   */\n      add\n        /* \"#utility.yul\":6406:6433   */\n      mstore\n        /* \"#utility.yul\":6342:6443   */\n    tag_141:\n        /* \"#utility.yul\":6191:6449   */\n      pop\n        /* \"#utility.yul\":6142:6449   */\n      pop\n      pop\n      pop\n      jump\t// out\n        /* \"#utility.yul\":6455:6775   */\n    tag_30:\n        /* \"#utility.yul\":6499:6505   */\n      0x00\n        /* \"#utility.yul\":6536:6537   */\n      0x02\n        /* \"#utility.yul\":6530:6534   */\n      dup3\n        /* \"#utility.yul\":6526:6538   */\n      div\n        /* \"#utility.yul\":6516:6538   */\n      swap1\n      pop\n        /* \"#utility.yul\":6583:6584   */\n      0x01\n        /* \"#utility.yul\":6577:6581   */\n      dup3\n        /* \"#utility.yul\":6573:6585   */\n      and\n        /* \"#utility.yul\":6604:6622   */\n      dup1\n        /* \"#utility.yul\":6594:6675   */\n      tag_143\n      jumpi\n        /* \"#utility.yul\":6660:6664   */\n      0x7f\n        /* \"#utility.yul\":6652:6658   */\n      dup3\n        /* \"#utility.yul\":6648:6665   */\n      and\n        /* \"#utility.yul\":6638:6665   */\n      swap2\n      pop\n        /* \"#utility.yul\":6594:6675   */\n    tag_143:\n        /* \"#utility.yul\":6722:6724   */\n      0x20\n        /* \"#utility.yul\":6714:6720   */\n      dup3\n        /* \"#utility.yul\":6711:6725   */\n      lt\n        /* \"#utility.yul\":6691:6709   */\n      dup2\n        /* \"#utility.yul\":6688:6726   */\n      eq\n        /* \"#utility.yul\":6685:6769   */\n      iszero\n      tag_144\n      jumpi\n        /* \"#utility.yul\":6741:6759   */\n      tag_145\n      tag_146\n      jump\t// in\n    tag_145:\n        /* \"#utility.yul\":6685:6769   */\n    tag_144:\n        /* \"#utility.yul\":6506:6775   */\n      pop\n        /* \"#utility.yul\":6455:6775   */\n      swap2\n      swap1\n      pop\n      jump\t// out\n        /* \"#utility.yul\":6781:7062   */\n    tag_118:\n        /* \"#utility.yul\":6864:6891   */\n      tag_148\n        /* \"#utility.yul\":6886:6890   */\n      dup3\n        /* \"#utility.yul\":6864:6891   */\n      tag_125\n      jump\t// in\n    tag_148:\n        /* \"#utility.yul\":6856:6862   */\n      dup2\n        /* \"#utility.yul\":6852:6892   */\n      add\n        /* \"#utility.yul\":6994:7000   */\n      dup2\n        /* \"#utility.yul\":6982:6992   */\n      dup2\n        /* \"#utility.yul\":6979:7001   */\n      lt\n        /* \"#utility.yul\":6958:6976   */\n      0xffffffffffffffff\n        /* \"#utility.yul\":6946:6956   */\n      dup3\n        /* \"#utility.yul\":6943:6977   */\n      gt\n        /* \"#utility.yul\":6940:7002   */\n      or\n        /* \"#utility.yul\":6937:7025   */\n      iszero\n      tag_149\n      jumpi\n        /* \"#utility.yul\":7005:7023   */\n      tag_150\n      tag_123\n      jump\t// in\n    tag_150:\n        /* \"#utility.yul\":6937:7025   */\n    tag_149:\n        /* \"#utility.yul\":7045:7055   */\n      dup1\n        /* \"#utility.yul\":7041:7043   */\n      0x40\n        /* \"#utility.yul\":7034:7056   */\n      mstore\n        /* \"#utility.yul\":6824:7062   */\n      pop\n        /* \"#utility.yul\":6781:7062   */\n      pop\n      pop\n      jump\t// out\n        /* \"#utility.yul\":7068:7168   */\n    tag_79:\n        /* \"#utility.yul\":7107:7114   */\n      0x00\n        /* \"#utility.yul\":7136:7162   */\n      tag_152\n        /* \"#utility.yul\":7156:7161   */\n      dup3\n        /* \"#utility.yul\":7136:7162   */\n      tag_153\n      jump\t// in\n    tag_152:\n        /* \"#utility.yul\":7125:7162   */\n      swap1\n      pop\n        /* \"#utility.yul\":7068:7168   */\n      swap2\n      swap1\n      pop\n      jump\t// out\n        /* \"#utility.yul\":7174:7268   */\n    tag_153:\n        /* \"#utility.yul\":7213:7220   */\n      0x00\n        /* \"#utility.yul\":7242:7262   */\n      tag_155\n        /* \"#utility.yul\":7256:7261   */\n      dup3\n        /* \"#utility.yul\":7242:7262   */\n      tag_156\n      jump\t// in\n    tag_155:\n        /* \"#utility.yul\":7231:7262   */\n      swap1\n      pop\n        /* \"#utility.yul\":7174:7268   */\n      swap2\n      swap1\n      pop\n      jump\t// out\n        /* \"#utility.yul\":7274:7353   */\n    tag_102:\n        /* \"#utility.yul\":7313:7320   */\n      0x00\n        /* \"#utility.yul\":7342:7347   */\n      dup2\n        /* \"#utility.yul\":7331:7347   */\n      swap1\n      pop\n        /* \"#utility.yul\":7274:7353   */\n      swap2\n      swap1\n      pop\n      jump\t// out\n        /* \"#utility.yul\":7359:7539   */\n    tag_146:\n        /* \"#utility.yul\":7407:7484   */\n      0x4e487b7100000000000000000000000000000000000000000000000000000000\n        /* \"#utility.yul\":7404:7405   */\n      0x00\n        /* \"#utility.yul\":7397:7485   */\n      mstore\n        /* \"#utility.yul\":7504:7508   */\n      0x22\n        /* \"#utility.yul\":7501:7502   */\n      0x04\n        /* \"#utility.yul\":7494:7509   */\n      mstore\n        /* \"#utility.yul\":7528:7532   */\n      0x24\n        /* \"#utility.yul\":7525:7526   */\n      0x00\n        /* \"#utility.yul\":7518:7533   */\n      revert\n        /* \"#utility.yul\":7545:7725   */\n    tag_123:\n        /* \"#utility.yul\":7593:7670   */\n      0x4e487b7100000000000000000000000000000000000000000000000000000000\n        /* \"#utility.yul\":7590:7591   */\n      0x00\n        /* \"#utility.yul\":7583:7671   */\n      mstore\n        /* \"#utility.yul\":7690:7694   */\n      0x41\n        /* \"#utility.yul\":7687:7688   */\n      0x04\n        /* \"#utility.yul\":7680:7695   */\n      mstore\n        /* \"#utility.yul\":7714:7718   */\n      0x24\n        /* \"#utility.yul\":7711:7712   */\n      0x00\n        /* \"#utility.yul\":7704:7719   */\n      revert\n        /* \"#utility.yul\":7731:7848   */\n    tag_60:\n        /* \"#utility.yul\":7840:7841   */\n      0x00\n        /* \"#utility.yul\":7837:7838   */\n      dup1\n        /* \"#utility.yul\":7830:7842   */\n      revert\n        /* \"#utility.yul\":7854:7971   */\n    tag_49:\n        /* \"#utility.yul\":7963:7964   */\n      0x00\n        /* \"#utility.yul\":7960:7961   */\n      dup1\n        /* \"#utility.yul\":7953:7965   */\n      revert\n        /* \"#utility.yul\":7977:8094   */\n    tag_72:\n        /* \"#utility.yul\":8086:8087   */\n      0x00\n        /* \"#utility.yul\":8083:8084   */\n      dup1\n        /* \"#utility.yul\":8076:8088   */\n      revert\n        /* \"#utility.yul\":8100:8217   */\n    tag_65:\n        /* \"#utility.yul\":8209:8210   */\n      0x00\n        /* \"#utility.yul\":8206:8207   */\n      dup1\n        /* \"#utility.yul\":8199:8211   */\n      revert\n        /* \"#utility.yul\":8223:8325   */\n    tag_125:\n        /* \"#utility.yul\":8264:8270   */\n      0x00\n        /* \"#utility.yul\":8315:8317   */\n      0x1f\n        /* \"#utility.yul\":8311:8318   */\n      not\n        /* \"#utility.yul\":8306:8308   */\n      0x1f\n        /* \"#utility.yul\":8299:8304   */\n      dup4\n        /* \"#utility.yul\":8295:8309   */\n      add\n        /* \"#utility.yul\":8291:8319   */\n      and\n        /* \"#utility.yul\":8281:8319   */\n      swap1\n      pop\n        /* \"#utility.yul\":8223:8325   */\n      swap2\n      swap1\n      pop\n      jump\t// out\n        /* \"#utility.yul\":8331:8425   */\n    tag_156:\n        /* \"#utility.yul\":8364:8372   */\n      0x00\n        /* \"#utility.yul\":8412:8417   */\n      dup2\n        /* \"#utility.yul\":8408:8410   */\n      0x60\n        /* \"#utility.yul\":8404:8418   */\n      shl\n        /* \"#utility.yul\":8383:8418   */\n      swap1\n      pop\n        /* \"#utility.yul\":8331:8425   */\n      swap2\n      swap1\n      pop\n      jump\t// out\n        /* \"#utility.yul\":8431:8545   */\n    tag_93:\n      pop\n      jump\t// out\n        /* \"#utility.yul\":8551:8673   */\n    tag_55:\n        /* \"#utility.yul\":8624:8648   */\n      tag_168\n        /* \"#utility.yul\":8642:8647   */\n      dup2\n        /* \"#utility.yul\":8624:8648   */\n      tag_132\n      jump\t// in\n    tag_168:\n        /* \"#utility.yul\":8617:8622   */\n      dup2\n        /* \"#utility.yul\":8614:8649   */\n      eq\n        /* \"#utility.yul\":8604:8667   */\n      tag_169\n      jumpi\n        /* \"#utility.yul\":8663:8664   */\n      0x00\n        /* \"#utility.yul\":8660:8661   */\n      dup1\n        /* \"#utility.yul\":8653:8665   */\n      revert\n        /* \"#utility.yul\":8604:8667   */\n    tag_169:\n        /* \"#utility.yul\":8551:8673   */\n      pop\n      jump\t// out\n\n    auxdata: 0xa2646970667358221220b1f493f1fae2296b0edd4a6a4e4c08396d6f16af98a92054397d7ecc79aa9db664736f6c63430008070033\n}\n",
				"bytecode": {
					"linkReferences": {},
					"object": "608060405234801561001057600080fd5b50610762806100206000396000f3fe6080604052600436106100295760003560e01c8063969b15671461002e578063c4fb33371461006b575b600080fd5b34801561003a57600080fd5b5061005560048036038101906100509190610372565b610089565b60405161006291906104d1565b60405180910390f35b6100736101ce565b60405161008091906104d1565b60405180910390f35b60008060024244336002546040516020016100a79493929190610463565b6040516020818303038152906040526040516100c3919061044c565b602060405180830381855afa1580156100e0573d6000803e3d6000fd5b5050506040513d601f19601f820116820180604052508101906101039190610345565b60001c90508060016000600354815260200190815260200160002060010181905550600354600160006003548152602001908152602001600020600001819055503360016000600354815260200190815260200160002060040160006101000a81548173ffffffffffffffffffffffffffffffffffffffff021916908373ffffffffffffffffffffffffffffffffffffffff1602179055508260016000600354815260200190815260200160002060030190805190602001906101c792919061021d565b5050919050565b6000670de0b6b3a7640000341161021a576040517f08c379a0000000000000000000000000000000000000000000000000000000008152600401610211906104b1565b60405180910390fd5b90565b828054610229906105f1565b90600052602060002090601f01602090048101928261024b5760008555610292565b82601f1061026457805160ff1916838001178555610292565b82800160010185558215610292579182015b82811115610291578251825591602001919060010190610276565b5b50905061029f91906102a3565b5090565b5b808211156102bc5760008160009055506001016102a4565b5090565b60006102d36102ce84610511565b6104ec565b9050828152602081018484840111156102ef576102ee6106e5565b5b6102fa8482856105af565b509392505050565b60008151905061031181610715565b92915050565b600082601f83011261032c5761032b6106e0565b5b813561033c8482602086016102c0565b91505092915050565b60006020828403121561035b5761035a6106ef565b5b600061036984828501610302565b91505092915050565b600060208284031215610388576103876106ef565b5b600082013567ffffffffffffffff8111156103a6576103a56106ea565b5b6103b284828501610317565b91505092915050565b6103cc6103c782610569565b610654565b82525050565b60006103dd82610542565b6103e7818561054d565b93506103f78185602086016105be565b80840191505092915050565b6000610410600083610558565b915061041b82610712565b600082019050919050565b61042f816105a5565b82525050565b610446610441826105a5565b610678565b82525050565b600061045882846103d2565b915081905092915050565b600061046f8287610435565b60208201915061047f8286610435565b60208201915061048f82856103bb565b60148201915061049f8284610435565b60208201915081905095945050505050565b600060208201905081810360008301526104ca81610403565b9050919050565b60006020820190506104e66000830184610426565b92915050565b60006104f6610507565b90506105028282610623565b919050565b6000604051905090565b600067ffffffffffffffff82111561052c5761052b6106b1565b5b610535826106f4565b9050602081019050919050565b600081519050919050565b600081905092915050565b600082825260208201905092915050565b600061057482610585565b9050919050565b6000819050919050565b600073ffffffffffffffffffffffffffffffffffffffff82169050919050565b6000819050919050565b82818337600083830152505050565b60005b838110156105dc5780820151818401526020810190506105c1565b838111156105eb576000848401525b50505050565b6000600282049050600182168061060957607f821691505b6020821081141561061d5761061c610682565b5b50919050565b61062c826106f4565b810181811067ffffffffffffffff8211171561064b5761064a6106b1565b5b80604052505050565b600061065f82610666565b9050919050565b600061067182610705565b9050919050565b6000819050919050565b7f4e487b7100000000000000000000000000000000000000000000000000000000600052602260045260246000fd5b7f4e487b7100000000000000000000000000000000000000000000000000000000600052604160045260246000fd5b600080fd5b600080fd5b600080fd5b600080fd5b6000601f19601f8301169050919050565b60008160601b9050919050565b50565b61071e8161057b565b811461072957600080fd5b5056fea2646970667358221220b1f493f1fae2296b0edd4a6a4e4c08396d6f16af98a92054397d7ecc79aa9db664736f6c63430008070033",
					"opcodes": "PUSH1 0x80 PUSH1 0x40 MSTORE CALLVALUE DUP1 ISZERO PUSH2 0x10 JUMPI PUSH1 0x0 DUP1 REVERT JUMPDEST POP PUSH2 0x762 DUP1 PUSH2 0x20 PUSH1 0x0 CODECOPY PUSH1 0x0 RETURN INVALID PUSH1 0x80 PUSH1 0x40 MSTORE PUSH1 0x4 CALLDATASIZE LT PUSH2 0x29 JUMPI PUSH1 0x0 CALLDATALOAD PUSH1 0xE0 SHR DUP1 PUSH4 0x969B1567 EQ PUSH2 0x2E JUMPI DUP1 PUSH4 0xC4FB3337 EQ PUSH2 0x6B JUMPI JUMPDEST PUSH1 0x0 DUP1 REVERT JUMPDEST CALLVALUE DUP1 ISZERO PUSH2 0x3A JUMPI PUSH1 0x0 DUP1 REVERT JUMPDEST POP PUSH2 0x55 PUSH1 0x4 DUP1 CALLDATASIZE SUB DUP2 ADD SWAP1 PUSH2 0x50 SWAP2 SWAP1 PUSH2 0x372 JUMP JUMPDEST PUSH2 0x89 JUMP JUMPDEST PUSH1 0x40 MLOAD PUSH2 0x62 SWAP2 SWAP1 PUSH2 0x4D1 JUMP JUMPDEST PUSH1 0x40 MLOAD DUP1 SWAP2 SUB SWAP1 RETURN JUMPDEST PUSH2 0x73 PUSH2 0x1CE JUMP JUMPDEST PUSH1 0x40 MLOAD PUSH2 0x80 SWAP2 SWAP1 PUSH2 0x4D1 JUMP JUMPDEST PUSH1 0x40 MLOAD DUP1 SWAP2 SUB SWAP1 RETURN JUMPDEST PUSH1 0x0 DUP1 PUSH1 0x2 TIMESTAMP DIFFICULTY CALLER PUSH1 0x2 SLOAD PUSH1 0x40 MLOAD PUSH1 0x20 ADD PUSH2 0xA7 SWAP5 SWAP4 SWAP3 SWAP2 SWAP1 PUSH2 0x463 JUMP JUMPDEST PUSH1 0x40 MLOAD PUSH1 0x20 DUP2 DUP4 SUB SUB DUP2 MSTORE SWAP1 PUSH1 0x40 MSTORE PUSH1 0x40 MLOAD PUSH2 0xC3 SWAP2 SWAP1 PUSH2 0x44C JUMP JUMPDEST PUSH1 0x20 PUSH1 0x40 MLOAD DUP1 DUP4 SUB DUP2 DUP6 GAS STATICCALL ISZERO DUP1 ISZERO PUSH2 0xE0 JUMPI RETURNDATASIZE PUSH1 0x0 DUP1 RETURNDATACOPY RETURNDATASIZE PUSH1 0x0 REVERT JUMPDEST POP POP POP PUSH1 0x40 MLOAD RETURNDATASIZE PUSH1 0x1F NOT PUSH1 0x1F DUP3 ADD AND DUP3 ADD DUP1 PUSH1 0x40 MSTORE POP DUP2 ADD SWAP1 PUSH2 0x103 SWAP2 SWAP1 PUSH2 0x345 JUMP JUMPDEST PUSH1 0x0 SHR SWAP1 POP DUP1 PUSH1 0x1 PUSH1 0x0 PUSH1 0x3 SLOAD DUP2 MSTORE PUSH1 0x20 ADD SWAP1 DUP2 MSTORE PUSH1 0x20 ADD PUSH1 0x0 KECCAK256 PUSH1 0x1 ADD DUP2 SWAP1 SSTORE POP PUSH1 0x3 SLOAD PUSH1 0x1 PUSH1 0x0 PUSH1 0x3 SLOAD DUP2 MSTORE PUSH1 0x20 ADD SWAP1 DUP2 MSTORE PUSH1 0x20 ADD PUSH1 0x0 KECCAK256 PUSH1 0x0 ADD DUP2 SWAP1 SSTORE POP CALLER PUSH1 0x1 PUSH1 0x0 PUSH1 0x3 SLOAD DUP2 MSTORE PUSH1 0x20 ADD SWAP1 DUP2 MSTORE PUSH1 0x20 ADD PUSH1 0x0 KECCAK256 PUSH1 0x4 ADD PUSH1 0x0 PUSH2 0x100 EXP DUP2 SLOAD DUP2 PUSH20 0xFFFFFFFFFFFFFFFFFFFFFFFFFFFFFFFFFFFFFFFF MUL NOT AND SWAP1 DUP4 PUSH20 0xFFFFFFFFFFFFFFFFFFFFFFFFFFFFFFFFFFFFFFFF AND MUL OR SWAP1 SSTORE POP DUP3 PUSH1 0x1 PUSH1 0x0 PUSH1 0x3 SLOAD DUP2 MSTORE PUSH1 0x20 ADD SWAP1 DUP2 MSTORE PUSH1 0x20 ADD PUSH1 0x0 KECCAK256 PUSH1 0x3 ADD SWAP1 DUP1 MLOAD SWAP1 PUSH1 0x20 ADD SWAP1 PUSH2 0x1C7 SWAP3 SWAP2 SWAP1 PUSH2 0x21D JUMP JUMPDEST POP POP SWAP2 SWAP1 POP JUMP JUMPDEST PUSH1 0x0 PUSH8 0xDE0B6B3A7640000 CALLVALUE GT PUSH2 0x21A JUMPI PUSH1 0x40 MLOAD PUSH32 0x8C379A000000000000000000000000000000000000000000000000000000000 DUP2 MSTORE PUSH1 0x4 ADD PUSH2 0x211 SWAP1 PUSH2 0x4B1 JUMP JUMPDEST PUSH1 0x40 MLOAD DUP1 SWAP2 SUB SWAP1 REVERT JUMPDEST SWAP1 JUMP JUMPDEST DUP3 DUP1 SLOAD PUSH2 0x229 SWAP1 PUSH2 0x5F1 JUMP JUMPDEST SWAP1 PUSH1 0x0 MSTORE PUSH1 0x20 PUSH1 0x0 KECCAK256 SWAP1 PUSH1 0x1F ADD PUSH1 0x20 SWAP1 DIV DUP2 ADD SWAP3 DUP3 PUSH2 0x24B JUMPI PUSH1 0x0 DUP6 SSTORE PUSH2 0x292 JUMP JUMPDEST DUP3 PUSH1 0x1F LT PUSH2 0x264 JUMPI DUP1 MLOAD PUSH1 0xFF NOT AND DUP4 DUP1 ADD OR DUP6 SSTORE PUSH2 0x292 JUMP JUMPDEST DUP3 DUP1 ADD PUSH1 0x1 ADD DUP6 SSTORE DUP3 ISZERO PUSH2 0x292 JUMPI SWAP2 DUP3 ADD JUMPDEST DUP3 DUP2 GT ISZERO PUSH2 0x291 JUMPI DUP3 MLOAD DUP3 SSTORE SWAP2 PUSH1 0x20 ADD SWAP2 SWAP1 PUSH1 0x1 ADD SWAP1 PUSH2 0x276 JUMP JUMPDEST JUMPDEST POP SWAP1 POP PUSH2 0x29F SWAP2 SWAP1 PUSH2 0x2A3 JUMP JUMPDEST POP SWAP1 JUMP JUMPDEST JUMPDEST DUP1 DUP3 GT ISZERO PUSH2 0x2BC JUMPI PUSH1 0x0 DUP2 PUSH1 0x0 SWAP1 SSTORE POP PUSH1 0x1 ADD PUSH2 0x2A4 JUMP JUMPDEST POP SWAP1 JUMP JUMPDEST PUSH1 0x0 PUSH2 0x2D3 PUSH2 0x2CE DUP5 PUSH2 0x511 JUMP JUMPDEST PUSH2 0x4EC JUMP JUMPDEST SWAP1 POP DUP3 DUP2 MSTORE PUSH1 0x20 DUP2 ADD DUP5 DUP5 DUP5 ADD GT ISZERO PUSH2 0x2EF JUMPI PUSH2 0x2EE PUSH2 0x6E5 JUMP JUMPDEST JUMPDEST PUSH2 0x2FA DUP5 DUP3 DUP6 PUSH2 0x5AF JUMP JUMPDEST POP SWAP4 SWAP3 POP POP POP JUMP JUMPDEST PUSH1 0x0 DUP2 MLOAD SWAP1 POP PUSH2 0x311 DUP2 PUSH2 0x715 JUMP JUMPDEST SWAP3 SWAP2 POP POP JUMP JUMPDEST PUSH1 0x0 DUP3 PUSH1 0x1F DUP4 ADD SLT PUSH2 0x32C JUMPI PUSH2 0x32B PUSH2 0x6E0 JUMP JUMPDEST JUMPDEST DUP2 CALLDATALOAD PUSH2 0x33C DUP5 DUP3 PUSH1 0x20 DUP7 ADD PUSH2 0x2C0 JUMP JUMPDEST SWAP2 POP POP SWAP3 SWAP2 POP POP JUMP JUMPDEST PUSH1 0x0 PUSH1 0x20 DUP3 DUP5 SUB SLT ISZERO PUSH2 0x35B JUMPI PUSH2 0x35A PUSH2 0x6EF JUMP JUMPDEST JUMPDEST PUSH1 0x0 PUSH2 0x369 DUP5 DUP3 DUP6 ADD PUSH2 0x302 JUMP JUMPDEST SWAP2 POP POP SWAP3 SWAP2 POP POP JUMP JUMPDEST PUSH1 0x0 PUSH1 0x20 DUP3 DUP5 SUB SLT ISZERO PUSH2 0x388 JUMPI PUSH2 0x387 PUSH2 0x6EF JUMP JUMPDEST JUMPDEST PUSH1 0x0 DUP3 ADD CALLDATALOAD PUSH8 0xFFFFFFFFFFFFFFFF DUP2 GT ISZERO PUSH2 0x3A6 JUMPI PUSH2 0x3A5 PUSH2 0x6EA JUMP JUMPDEST JUMPDEST PUSH2 0x3B2 DUP5 DUP3 DUP6 ADD PUSH2 0x317 JUMP JUMPDEST SWAP2 POP POP SWAP3 SWAP2 POP POP JUMP JUMPDEST PUSH2 0x3CC PUSH2 0x3C7 DUP3 PUSH2 0x569 JUMP JUMPDEST PUSH2 0x654 JUMP JUMPDEST DUP3 MSTORE POP POP JUMP JUMPDEST PUSH1 0x0 PUSH2 0x3DD DUP3 PUSH2 0x542 JUMP JUMPDEST PUSH2 0x3E7 DUP2 DUP6 PUSH2 0x54D JUMP JUMPDEST SWAP4 POP PUSH2 0x3F7 DUP2 DUP6 PUSH1 0x20 DUP7 ADD PUSH2 0x5BE JUMP JUMPDEST DUP1 DUP5 ADD SWAP2 POP POP SWAP3 SWAP2 POP POP JUMP JUMPDEST PUSH1 0x0 PUSH2 0x410 PUSH1 0x0 DUP4 PUSH2 0x558 JUMP JUMPDEST SWAP2 POP PUSH2 0x41B DUP3 PUSH2 0x712 JUMP JUMPDEST PUSH1 0x0 DUP3 ADD SWAP1 POP SWAP2 SWAP1 POP JUMP JUMPDEST PUSH2 0x42F DUP2 PUSH2 0x5A5 JUMP JUMPDEST DUP3 MSTORE POP POP JUMP JUMPDEST PUSH2 0x446 PUSH2 0x441 DUP3 PUSH2 0x5A5 JUMP JUMPDEST PUSH2 0x678 JUMP JUMPDEST DUP3 MSTORE POP POP JUMP JUMPDEST PUSH1 0x0 PUSH2 0x458 DUP3 DUP5 PUSH2 0x3D2 JUMP JUMPDEST SWAP2 POP DUP2 SWAP1 POP SWAP3 SWAP2 POP POP JUMP JUMPDEST PUSH1 0x0 PUSH2 0x46F DUP3 DUP8 PUSH2 0x435 JUMP JUMPDEST PUSH1 0x20 DUP3 ADD SWAP2 POP PUSH2 0x47F DUP3 DUP7 PUSH2 0x435 JUMP JUMPDEST PUSH1 0x20 DUP3 ADD SWAP2 POP PUSH2 0x48F DUP3 DUP6 PUSH2 0x3BB JUMP JUMPDEST PUSH1 0x14 DUP3 ADD SWAP2 POP PUSH2 0x49F DUP3 DUP5 PUSH2 0x435 JUMP JUMPDEST PUSH1 0x20 DUP3 ADD SWAP2 POP DUP2 SWAP1 POP SWAP6 SWAP5 POP POP POP POP POP JUMP JUMPDEST PUSH1 0x0 PUSH1 0x20 DUP3 ADD SWAP1 POP DUP2 DUP2 SUB PUSH1 0x0 DUP4 ADD MSTORE PUSH2 0x4CA DUP2 PUSH2 0x403 JUMP JUMPDEST SWAP1 POP SWAP2 SWAP1 POP JUMP JUMPDEST PUSH1 0x0 PUSH1 0x20 DUP3 ADD SWAP1 POP PUSH2 0x4E6 PUSH1 0x0 DUP4 ADD DUP5 PUSH2 0x426 JUMP JUMPDEST SWAP3 SWAP2 POP POP JUMP JUMPDEST PUSH1 0x0 PUSH2 0x4F6 PUSH2 0x507 JUMP JUMPDEST SWAP1 POP PUSH2 0x502 DUP3 DUP3 PUSH2 0x623 JUMP JUMPDEST SWAP2 SWAP1 POP JUMP JUMPDEST PUSH1 0x0 PUSH1 0x40 MLOAD SWAP1 POP SWAP1 JUMP JUMPDEST PUSH1 0x0 PUSH8 0xFFFFFFFFFFFFFFFF DUP3 GT ISZERO PUSH2 0x52C JUMPI PUSH2 0x52B PUSH2 0x6B1 JUMP JUMPDEST JUMPDEST PUSH2 0x535 DUP3 PUSH2 0x6F4 JUMP JUMPDEST SWAP1 POP PUSH1 0x20 DUP2 ADD SWAP1 POP SWAP2 SWAP1 POP JUMP JUMPDEST PUSH1 0x0 DUP2 MLOAD SWAP1 POP SWAP2 SWAP1 POP JUMP JUMPDEST PUSH1 0x0 DUP2 SWAP1 POP SWAP3 SWAP2 POP POP JUMP JUMPDEST PUSH1 0x0 DUP3 DUP3 MSTORE PUSH1 0x20 DUP3 ADD SWAP1 POP SWAP3 SWAP2 POP POP JUMP JUMPDEST PUSH1 0x0 PUSH2 0x574 DUP3 PUSH2 0x585 JUMP JUMPDEST SWAP1 POP SWAP2 SWAP1 POP JUMP JUMPDEST PUSH1 0x0 DUP2 SWAP1 POP SWAP2 SWAP1 POP JUMP JUMPDEST PUSH1 0x0 PUSH20 0xFFFFFFFFFFFFFFFFFFFFFFFFFFFFFFFFFFFFFFFF DUP3 AND SWAP1 POP SWAP2 SWAP1 POP JUMP JUMPDEST PUSH1 0x0 DUP2 SWAP1 POP SWAP2 SWAP1 POP JUMP JUMPDEST DUP3 DUP2 DUP4 CALLDATACOPY PUSH1 0x0 DUP4 DUP4 ADD MSTORE POP POP POP JUMP JUMPDEST PUSH1 0x0 JUMPDEST DUP4 DUP2 LT ISZERO PUSH2 0x5DC JUMPI DUP1 DUP3 ADD MLOAD DUP2 DUP5 ADD MSTORE PUSH1 0x20 DUP2 ADD SWAP1 POP PUSH2 0x5C1 JUMP JUMPDEST DUP4 DUP2 GT ISZERO PUSH2 0x5EB JUMPI PUSH1 0x0 DUP5 DUP5 ADD MSTORE JUMPDEST POP POP POP POP JUMP JUMPDEST PUSH1 0x0 PUSH1 0x2 DUP3 DIV SWAP1 POP PUSH1 0x1 DUP3 AND DUP1 PUSH2 0x609 JUMPI PUSH1 0x7F DUP3 AND SWAP2 POP JUMPDEST PUSH1 0x20 DUP3 LT DUP2 EQ ISZERO PUSH2 0x61D JUMPI PUSH2 0x61C PUSH2 0x682 JUMP JUMPDEST JUMPDEST POP SWAP2 SWAP1 POP JUMP JUMPDEST PUSH2 0x62C DUP3 PUSH2 0x6F4 JUMP JUMPDEST DUP2 ADD DUP2 DUP2 LT PUSH8 0xFFFFFFFFFFFFFFFF DUP3 GT OR ISZERO PUSH2 0x64B JUMPI PUSH2 0x64A PUSH2 0x6B1 JUMP JUMPDEST JUMPDEST DUP1 PUSH1 0x40 MSTORE POP POP POP JUMP JUMPDEST PUSH1 0x0 PUSH2 0x65F DUP3 PUSH2 0x666 JUMP JUMPDEST SWAP1 POP SWAP2 SWAP1 POP JUMP JUMPDEST PUSH1 0x0 PUSH2 0x671 DUP3 PUSH2 0x705 JUMP JUMPDEST SWAP1 POP SWAP2 SWAP1 POP JUMP JUMPDEST PUSH1 0x0 DUP2 SWAP1 POP SWAP2 SWAP1 POP JUMP JUMPDEST PUSH32 0x4E487B7100000000000000000000000000000000000000000000000000000000 PUSH1 0x0 MSTORE PUSH1 0x22 PUSH1 0x4 MSTORE PUSH1 0x24 PUSH1 0x0 REVERT JUMPDEST PUSH32 0x4E487B7100000000000000000000000000000000000000000000000000000000 PUSH1 0x0 MSTORE PUSH1 0x41 PUSH1 0x4 MSTORE PUSH1 0x24 PUSH1 0x0 REVERT JUMPDEST PUSH1 0x0 DUP1 REVERT JUMPDEST PUSH1 0x0 DUP1 REVERT JUMPDEST PUSH1 0x0 DUP1 REVERT JUMPDEST PUSH1 0x0 DUP1 REVERT JUMPDEST PUSH1 0x0 PUSH1 0x1F NOT PUSH1 0x1F DUP4 ADD AND SWAP1 POP SWAP2 SWAP1 POP JUMP JUMPDEST PUSH1 0x0 DUP2 PUSH1 0x60 SHL SWAP1 POP SWAP2 SWAP1 POP JUMP JUMPDEST POP JUMP JUMPDEST PUSH2 0x71E DUP2 PUSH2 0x57B JUMP JUMPDEST DUP2 EQ PUSH2 0x729 JUMPI PUSH1 0x0 DUP1 REVERT JUMPDEST POP JUMP INVALID LOG2 PUSH5 0x6970667358 0x22 SLT KECCAK256 0xB1 DELEGATECALL SWAP4 CALL STATICCALL 0xE2 0x29 PUSH12 0xEDD4A6A4E4C08396D6F16AF SWAP9 0xA9 KECCAK256 SLOAD CODECOPY PUSH30 0x7ECC79AA9DB664736F6C6343000807003300000000000000000000000000 "
				},
				"gasEstimates": {
					"creation": {
						"codeDepositCost": "378000",
						"executionCost": "418",
						"totalCost": "378418"
					},
					"external": {
						"request_verification(string)": "infinite",
						"sign_up()": "416"
					}
				},
				"methodIdentifiers": {
					"request_verification(string)": "969b1567",
					"sign_up()": "c4fb3337"
				}
			},
			"userdoc": {
				"kind": "user",
				"methods": {},
				"version": 1
			}
		}
	}
}