{
	"Desktop/EthCA/blockchain/EthCA.sol": {
		"EthCA": {
			"abi": [
				{
					"inputs": [
						{
							"internalType": "string",
							"name": "domain",
							"type": "string"
						}
					],
					"name": "request_verification",
					"outputs": [
						{
							"internalType": "uint256",
							"name": "",
							"type": "uint256"
						}
					],
					"stateMutability": "nonpayable",
					"type": "function"
				},
				{
					"inputs": [],
					"name": "sign_up",
					"outputs": [
						{
							"internalType": "uint256",
							"name": "",
							"type": "uint256"
						}
					],
					"stateMutability": "payable",
					"type": "function"
				}
			],
			"devdoc": {
				"kind": "dev",
				"methods": {},
				"version": 1
			},
			"evm": {
				"assembly": "    /* \"Desktop/EthCA/blockchain/EthCA.sol\":143:1214  contract EthCA {... */\n  mstore(0x40, 0x80)\n  callvalue\n  dup1\n  iszero\n  tag_1\n  jumpi\n  0x00\n  dup1\n  revert\ntag_1:\n  pop\n  dataSize(sub_0)\n  dup1\n  dataOffset(sub_0)\n  0x00\n  codecopy\n  0x00\n  return\nstop\n\nsub_0: assembly {\n        /* \"Desktop/EthCA/blockchain/EthCA.sol\":143:1214  contract EthCA {... */\n      mstore(0x40, 0x80)\n      jumpi(tag_1, lt(calldatasize, 0x04))\n      shr(0xe0, calldataload(0x00))\n      dup1\n      0x969b1567\n      eq\n      tag_2\n      jumpi\n      dup1\n      0xc4fb3337\n      eq\n      tag_3\n      jumpi\n    tag_1:\n      0x00\n      dup1\n      revert\n        /* \"Desktop/EthCA/blockchain/EthCA.sol\":613:999  function request_verification(string memory domain) public returns (uint) {... */\n    tag_2:\n      callvalue\n      dup1\n      iszero\n      tag_4\n      jumpi\n      0x00\n      dup1\n      revert\n    tag_4:\n      pop\n      tag_5\n      0x04\n      dup1\n      calldatasize\n      sub\n      dup2\n      add\n      swap1\n      tag_6\n      swap2\n      swap1\n      tag_7\n      jump\t// in\n    tag_6:\n      tag_8\n      jump\t// in\n    tag_5:\n      mload(0x40)\n      tag_9\n      swap2\n      swap1\n      tag_10\n      jump\t// in\n    tag_9:\n      mload(0x40)\n      dup1\n      swap2\n      sub\n      swap1\n      return\n        /* \"Desktop/EthCA/blockchain/EthCA.sol\":1004:1212  function sign_up() public payable returns (uint) {... */\n    tag_3:\n      tag_11\n      tag_12\n      jump\t// in\n    tag_11:\n      mload(0x40)\n      tag_13\n      swap2\n      swap1\n      tag_10\n      jump\t// in\n    tag_13:\n      mload(0x40)\n      dup1\n      swap2\n      sub\n      swap1\n      return\n        /* \"Desktop/EthCA/blockchain/EthCA.sol\":613:999  function request_verification(string memory domain) public returns (uint) {... */\n    tag_8:\n        /* \"Desktop/EthCA/blockchain/EthCA.sol\":681:685  uint */\n      0x00\n        /* \"Desktop/EthCA/blockchain/EthCA.sol\":697:707  uint nonce */\n      dup1\n        /* \"Desktop/EthCA/blockchain/EthCA.sol\":715:798  sha256(abi.encodePacked(block.timestamp, block.difficulty, msg.sender, numsignups)) */\n      0x02\n        /* \"Desktop/EthCA/blockchain/EthCA.sol\":739:754  block.timestamp */\n      timestamp\n        /* \"Desktop/EthCA/blockchain/EthCA.sol\":756:772  block.difficulty */\n      difficulty\n        /* \"Desktop/EthCA/blockchain/EthCA.sol\":774:784  msg.sender */\n      caller\n        /* \"Desktop/EthCA/blockchain/EthCA.sol\":786:796  numsignups */\n      sload(0x02)\n        /* \"Desktop/EthCA/blockchain/EthCA.sol\":722:797  abi.encodePacked(block.timestamp, block.difficulty, msg.sender, numsignups) */\n      add(0x20, mload(0x40))\n      tag_15\n      swap5\n      swap4\n      swap3\n      swap2\n      swap1\n      tag_16\n      jump\t// in\n    tag_15:\n      mload(0x40)\n      0x20\n      dup2\n      dup4\n      sub\n      sub\n      dup2\n      mstore\n      swap1\n      0x40\n      mstore\n        /* \"Desktop/EthCA/blockchain/EthCA.sol\":715:798  sha256(abi.encodePacked(block.timestamp, block.difficulty, msg.sender, numsignups)) */\n      mload(0x40)\n      tag_17\n      swap2\n      swap1\n      tag_18\n      jump\t// in\n    tag_17:\n      0x20\n      mload(0x40)\n      dup1\n      dup4\n      sub\n      dup2\n      dup6\n      gas\n      staticcall\n      iszero\n      dup1\n      iszero\n      tag_20\n      jumpi\n      returndatasize\n      0x00\n      dup1\n      returndatacopy\n      revert(0x00, returndatasize)\n    tag_20:\n      pop\n      pop\n      pop\n      mload(0x40)\n      returndatasize\n      not(0x1f)\n      0x1f\n      dup3\n      add\n      and\n      dup3\n      add\n      dup1\n      0x40\n      mstore\n      pop\n      dup2\n      add\n      swap1\n      tag_21\n      swap2\n      swap1\n      tag_22\n      jump\t// in\n    tag_21:\n        /* \"Desktop/EthCA/blockchain/EthCA.sol\":710:799  uint(sha256(abi.encodePacked(block.timestamp, block.difficulty, msg.sender, numsignups))) */\n      0x00\n      shr\n        /* \"Desktop/EthCA/blockchain/EthCA.sol\":697:799  uint nonce = uint(sha256(abi.encodePacked(block.timestamp, block.difficulty, msg.sender, numsignups))) */\n      swap1\n      pop\n        /* \"Desktop/EthCA/blockchain/EthCA.sol\":839:844  nonce */\n      dup1\n        /* \"Desktop/EthCA/blockchain/EthCA.sol\":809:817  requests */\n      0x01\n        /* \"Desktop/EthCA/blockchain/EthCA.sol\":809:830  requests[numRequests] */\n      0x00\n        /* \"Desktop/EthCA/blockchain/EthCA.sol\":818:829  numRequests */\n      sload(0x03)\n        /* \"Desktop/EthCA/blockchain/EthCA.sol\":809:830  requests[numRequests] */\n      dup2\n      mstore\n      0x20\n      add\n      swap1\n      dup2\n      mstore\n      0x20\n      add\n      0x00\n      keccak256\n        /* \"Desktop/EthCA/blockchain/EthCA.sol\":809:836  requests[numRequests].nonce */\n      0x01\n      add\n        /* \"Desktop/EthCA/blockchain/EthCA.sol\":809:844  requests[numRequests].nonce = nonce */\n      dup2\n      swap1\n      sstore\n      pop\n        /* \"Desktop/EthCA/blockchain/EthCA.sol\":881:892  numRequests */\n      sload(0x03)\n        /* \"Desktop/EthCA/blockchain/EthCA.sol\":854:862  requests */\n      0x01\n        /* \"Desktop/EthCA/blockchain/EthCA.sol\":854:875  requests[numRequests] */\n      0x00\n        /* \"Desktop/EthCA/blockchain/EthCA.sol\":863:874  numRequests */\n      sload(0x03)\n        /* \"Desktop/EthCA/blockchain/EthCA.sol\":854:875  requests[numRequests] */\n      dup2\n      mstore\n      0x20\n      add\n      swap1\n      dup2\n      mstore\n      0x20\n      add\n      0x00\n      keccak256\n        /* \"Desktop/EthCA/blockchain/EthCA.sol\":854:878  requests[numRequests].id */\n      0x00\n      add\n        /* \"Desktop/EthCA/blockchain/EthCA.sol\":854:892  requests[numRequests].id = numRequests */\n      dup2\n      swap1\n      sstore\n      pop\n        /* \"Desktop/EthCA/blockchain/EthCA.sol\":933:943  msg.sender */\n      caller\n        /* \"Desktop/EthCA/blockchain/EthCA.sol\":902:910  requests */\n      0x01\n        /* \"Desktop/EthCA/blockchain/EthCA.sol\":902:923  requests[numRequests] */\n      0x00\n        /* \"Desktop/EthCA/blockchain/EthCA.sol\":911:922  numRequests */\n      sload(0x03)\n        /* \"Desktop/EthCA/blockchain/EthCA.sol\":902:923  requests[numRequests] */\n      dup2\n      mstore\n      0x20\n      add\n      swap1\n      dup2\n      mstore\n      0x20\n      add\n      0x00\n      keccak256\n        /* \"Desktop/EthCA/blockchain/EthCA.sol\":902:930  requests[numRequests].sender */\n      0x04\n      add\n      0x00\n        /* \"Desktop/EthCA/blockchain/EthCA.sol\":902:943  requests[numRequests].sender = msg.sender */\n      0x0100\n      exp\n      dup2\n      sload\n      dup2\n      0xffffffffffffffffffffffffffffffffffffffff\n      mul\n      not\n      and\n      swap1\n      dup4\n      0xffffffffffffffffffffffffffffffffffffffff\n      and\n      mul\n      or\n      swap1\n      sstore\n      pop\n        /* \"Desktop/EthCA/blockchain/EthCA.sol\":984:990  domain */\n      dup3\n        /* \"Desktop/EthCA/blockchain/EthCA.sol\":953:961  requests */\n      0x01\n        /* \"Desktop/EthCA/blockchain/EthCA.sol\":953:974  requests[numRequests] */\n      0x00\n        /* \"Desktop/EthCA/blockchain/EthCA.sol\":962:973  numRequests */\n      sload(0x03)\n        /* \"Desktop/EthCA/blockchain/EthCA.sol\":953:974  requests[numRequests] */\n      dup2\n      mstore\n      0x20\n      add\n      swap1\n      dup2\n      mstore\n      0x20\n      add\n      0x00\n      keccak256\n        /* \"Desktop/EthCA/blockchain/EthCA.sol\":953:981  requests[numRequests].domain */\n      0x03\n      add\n        /* \"Desktop/EthCA/blockchain/EthCA.sol\":953:990  requests[numRequests].domain = domain */\n      swap1\n      dup1\n      mload\n      swap1\n      0x20\n      add\n      swap1\n      tag_23\n      swap3\n      swap2\n      swap1\n      tag_24\n      jump\t// in\n    tag_23:\n      pop\n        /* \"Desktop/EthCA/blockchain/EthCA.sol\":687:999  {... */\n      pop\n        /* \"Desktop/EthCA/blockchain/EthCA.sol\":613:999  function request_verification(string memory domain) public returns (uint) {... */\n      swap2\n      swap1\n      pop\n      jump\t// out\n        /* \"Desktop/EthCA/blockchain/EthCA.sol\":1004:1212  function sign_up() public payable returns (uint) {... */\n    tag_12:\n        /* \"Desktop/EthCA/blockchain/EthCA.sol\":1047:1051  uint */\n      0x00\n        /* \"Desktop/EthCA/blockchain/EthCA.sol\":1083:1090  1 ether */\n      0x0de0b6b3a7640000\n        /* \"Desktop/EthCA/blockchain/EthCA.sol\":1071:1080  msg.value */\n      callvalue\n        /* \"Desktop/EthCA/blockchain/EthCA.sol\":1071:1090  msg.value > 1 ether */\n      gt\n        /* \"Desktop/EthCA/blockchain/EthCA.sol\":1063:1135  require(msg.value > 1 ether, \"Sign-up rejected! Inadequate stake value\") */\n      tag_26\n      jumpi\n      mload(0x40)\n      0x08c379a000000000000000000000000000000000000000000000000000000000\n      dup2\n      mstore\n      0x04\n      add\n      tag_27\n      swap1\n      tag_28\n      jump\t// in\n    tag_27:\n      mload(0x40)\n      dup1\n      swap2\n      sub\n      swap1\n      revert\n    tag_26:\n        /* \"Desktop/EthCA/blockchain/EthCA.sol\":1177:1182  false */\n      0x00\n        /* \"Desktop/EthCA/blockchain/EthCA.sol\":1153:1182  signedup[msg.sender] == false */\n      iszero\n      iszero\n        /* \"Desktop/EthCA/blockchain/EthCA.sol\":1153:1161  signedup */\n      0x00\n        /* \"Desktop/EthCA/blockchain/EthCA.sol\":1153:1173  signedup[msg.sender] */\n      dup1\n        /* \"Desktop/EthCA/blockchain/EthCA.sol\":1162:1172  msg.sender */\n      caller\n        /* \"Desktop/EthCA/blockchain/EthCA.sol\":1153:1173  signedup[msg.sender] */\n      0xffffffffffffffffffffffffffffffffffffffff\n      and\n      0xffffffffffffffffffffffffffffffffffffffff\n      and\n      dup2\n      mstore\n      0x20\n      add\n      swap1\n      dup2\n      mstore\n      0x20\n      add\n      0x00\n      keccak256\n      0x00\n      swap1\n      sload\n      swap1\n      0x0100\n      exp\n      swap1\n      div\n      0xff\n      and\n        /* \"Desktop/EthCA/blockchain/EthCA.sol\":1153:1182  signedup[msg.sender] == false */\n      iszero\n      iszero\n      eq\n        /* \"Desktop/EthCA/blockchain/EthCA.sol\":1145:1205  require(signedup[msg.sender] == false, \"Already Signed up!\") */\n      tag_29\n      jumpi\n      mload(0x40)\n      0x08c379a000000000000000000000000000000000000000000000000000000000\n      dup2\n      mstore\n      0x04\n      add\n      tag_30\n      swap1\n      tag_31\n      jump\t// in\n    tag_30:\n      mload(0x40)\n      dup1\n      swap2\n      sub\n      swap1\n      revert\n    tag_29:\n        /* \"Desktop/EthCA/blockchain/EthCA.sol\":1004:1212  function sign_up() public payable returns (uint) {... */\n      swap1\n      jump\t// out\n    tag_24:\n      dup3\n      dup1\n      sload\n      tag_32\n      swap1\n      tag_33\n      jump\t// in\n    tag_32:\n      swap1\n      0x00\n      mstore\n      keccak256(0x00, 0x20)\n      swap1\n      0x1f\n      add\n      0x20\n      swap1\n      div\n      dup2\n      add\n      swap3\n      dup3\n      tag_35\n      jumpi\n      0x00\n      dup6\n      sstore\n      jump(tag_34)\n    tag_35:\n      dup3\n      0x1f\n      lt\n      tag_36\n      jumpi\n      dup1\n      mload\n      not(0xff)\n      and\n      dup4\n      dup1\n      add\n      or\n      dup6\n      sstore\n      jump(tag_34)\n    tag_36:\n      dup3\n      dup1\n      add\n      0x01\n      add\n      dup6\n      sstore\n      dup3\n      iszero\n      tag_34\n      jumpi\n      swap2\n      dup3\n      add\n    tag_37:\n      dup3\n      dup2\n      gt\n      iszero\n      tag_38\n      jumpi\n      dup3\n      mload\n      dup3\n      sstore\n      swap2\n      0x20\n      add\n      swap2\n      swap1\n      0x01\n      add\n      swap1\n      jump(tag_37)\n    tag_38:\n    tag_34:\n      pop\n      swap1\n      pop\n      tag_39\n      swap2\n      swap1\n      tag_40\n      jump\t// in\n    tag_39:\n      pop\n      swap1\n      jump\t// out\n    tag_40:\n    tag_41:\n      dup1\n      dup3\n      gt\n      iszero\n      tag_42\n      jumpi\n      0x00\n      dup2\n      0x00\n      swap1\n      sstore\n      pop\n      0x01\n      add\n      jump(tag_41)\n    tag_42:\n      pop\n      swap1\n      jump\t// out\n        /* \"#utility.yul\":7:419   */\n    tag_44:\n        /* \"#utility.yul\":85:90   */\n      0x00\n        /* \"#utility.yul\":110:176   */\n      tag_46\n        /* \"#utility.yul\":126:175   */\n      tag_47\n        /* \"#utility.yul\":168:174   */\n      dup5\n        /* \"#utility.yul\":126:175   */\n      tag_48\n      jump\t// in\n    tag_47:\n        /* \"#utility.yul\":110:176   */\n      tag_49\n      jump\t// in\n    tag_46:\n        /* \"#utility.yul\":101:176   */\n      swap1\n      pop\n        /* \"#utility.yul\":199:205   */\n      dup3\n        /* \"#utility.yul\":192:197   */\n      dup2\n        /* \"#utility.yul\":185:206   */\n      mstore\n        /* \"#utility.yul\":237:241   */\n      0x20\n        /* \"#utility.yul\":230:235   */\n      dup2\n        /* \"#utility.yul\":226:242   */\n      add\n        /* \"#utility.yul\":275:278   */\n      dup5\n        /* \"#utility.yul\":266:272   */\n      dup5\n        /* \"#utility.yul\":261:264   */\n      dup5\n        /* \"#utility.yul\":257:273   */\n      add\n        /* \"#utility.yul\":254:279   */\n      gt\n        /* \"#utility.yul\":251:363   */\n      iszero\n      tag_50\n      jumpi\n        /* \"#utility.yul\":282:361   */\n      tag_51\n      tag_52\n      jump\t// in\n    tag_51:\n        /* \"#utility.yul\":251:363   */\n    tag_50:\n        /* \"#utility.yul\":372:413   */\n      tag_53\n        /* \"#utility.yul\":406:412   */\n      dup5\n        /* \"#utility.yul\":401:404   */\n      dup3\n        /* \"#utility.yul\":396:399   */\n      dup6\n        /* \"#utility.yul\":372:413   */\n      tag_54\n      jump\t// in\n    tag_53:\n        /* \"#utility.yul\":91:419   */\n      pop\n        /* \"#utility.yul\":7:419   */\n      swap4\n      swap3\n      pop\n      pop\n      pop\n      jump\t// out\n        /* \"#utility.yul\":425:568   */\n    tag_55:\n        /* \"#utility.yul\":482:487   */\n      0x00\n        /* \"#utility.yul\":513:519   */\n      dup2\n        /* \"#utility.yul\":507:520   */\n      mload\n        /* \"#utility.yul\":498:520   */\n      swap1\n      pop\n        /* \"#utility.yul\":529:562   */\n      tag_57\n        /* \"#utility.yul\":556:561   */\n      dup2\n        /* \"#utility.yul\":529:562   */\n      tag_58\n      jump\t// in\n    tag_57:\n        /* \"#utility.yul\":425:568   */\n      swap3\n      swap2\n      pop\n      pop\n      jump\t// out\n        /* \"#utility.yul\":588:928   */\n    tag_59:\n        /* \"#utility.yul\":644:649   */\n      0x00\n        /* \"#utility.yul\":693:696   */\n      dup3\n        /* \"#utility.yul\":686:690   */\n      0x1f\n        /* \"#utility.yul\":678:684   */\n      dup4\n        /* \"#utility.yul\":674:691   */\n      add\n        /* \"#utility.yul\":670:697   */\n      slt\n        /* \"#utility.yul\":660:782   */\n      tag_61\n      jumpi\n        /* \"#utility.yul\":701:780   */\n      tag_62\n      tag_63\n      jump\t// in\n    tag_62:\n        /* \"#utility.yul\":660:782   */\n    tag_61:\n        /* \"#utility.yul\":818:824   */\n      dup2\n        /* \"#utility.yul\":805:825   */\n      calldataload\n        /* \"#utility.yul\":843:922   */\n      tag_64\n        /* \"#utility.yul\":918:921   */\n      dup5\n        /* \"#utility.yul\":910:916   */\n      dup3\n        /* \"#utility.yul\":903:907   */\n      0x20\n        /* \"#utility.yul\":895:901   */\n      dup7\n        /* \"#utility.yul\":891:908   */\n      add\n        /* \"#utility.yul\":843:922   */\n      tag_44\n      jump\t// in\n    tag_64:\n        /* \"#utility.yul\":834:922   */\n      swap2\n      pop\n        /* \"#utility.yul\":650:928   */\n      pop\n        /* \"#utility.yul\":588:928   */\n      swap3\n      swap2\n      pop\n      pop\n      jump\t// out\n        /* \"#utility.yul\":934:1285   */\n    tag_22:\n        /* \"#utility.yul\":1004:1010   */\n      0x00\n        /* \"#utility.yul\":1053:1055   */\n      0x20\n        /* \"#utility.yul\":1041:1050   */\n      dup3\n        /* \"#utility.yul\":1032:1039   */\n      dup5\n        /* \"#utility.yul\":1028:1051   */\n      sub\n        /* \"#utility.yul\":1024:1056   */\n      slt\n        /* \"#utility.yul\":1021:1140   */\n      iszero\n      tag_66\n      jumpi\n        /* \"#utility.yul\":1059:1138   */\n      tag_67\n      tag_68\n      jump\t// in\n    tag_67:\n        /* \"#utility.yul\":1021:1140   */\n    tag_66:\n        /* \"#utility.yul\":1179:1180   */\n      0x00\n        /* \"#utility.yul\":1204:1268   */\n      tag_69\n        /* \"#utility.yul\":1260:1267   */\n      dup5\n        /* \"#utility.yul\":1251:1257   */\n      dup3\n        /* \"#utility.yul\":1240:1249   */\n      dup6\n        /* \"#utility.yul\":1236:1258   */\n      add\n        /* \"#utility.yul\":1204:1268   */\n      tag_55\n      jump\t// in\n    tag_69:\n        /* \"#utility.yul\":1194:1268   */\n      swap2\n      pop\n        /* \"#utility.yul\":1150:1278   */\n      pop\n        /* \"#utility.yul\":934:1285   */\n      swap3\n      swap2\n      pop\n      pop\n      jump\t// out\n        /* \"#utility.yul\":1291:1800   */\n    tag_7:\n        /* \"#utility.yul\":1360:1366   */\n      0x00\n        /* \"#utility.yul\":1409:1411   */\n      0x20\n        /* \"#utility.yul\":1397:1406   */\n      dup3\n        /* \"#utility.yul\":1388:1395   */\n      dup5\n        /* \"#utility.yul\":1384:1407   */\n      sub\n        /* \"#utility.yul\":1380:1412   */\n      slt\n        /* \"#utility.yul\":1377:1496   */\n      iszero\n      tag_71\n      jumpi\n        /* \"#utility.yul\":1415:1494   */\n      tag_72\n      tag_68\n      jump\t// in\n    tag_72:\n        /* \"#utility.yul\":1377:1496   */\n    tag_71:\n        /* \"#utility.yul\":1563:1564   */\n      0x00\n        /* \"#utility.yul\":1552:1561   */\n      dup3\n        /* \"#utility.yul\":1548:1565   */\n      add\n        /* \"#utility.yul\":1535:1566   */\n      calldataload\n        /* \"#utility.yul\":1593:1611   */\n      0xffffffffffffffff\n        /* \"#utility.yul\":1585:1591   */\n      dup2\n        /* \"#utility.yul\":1582:1612   */\n      gt\n        /* \"#utility.yul\":1579:1696   */\n      iszero\n      tag_73\n      jumpi\n        /* \"#utility.yul\":1615:1694   */\n      tag_74\n      tag_75\n      jump\t// in\n    tag_74:\n        /* \"#utility.yul\":1579:1696   */\n    tag_73:\n        /* \"#utility.yul\":1720:1783   */\n      tag_76\n        /* \"#utility.yul\":1775:1782   */\n      dup5\n        /* \"#utility.yul\":1766:1772   */\n      dup3\n        /* \"#utility.yul\":1755:1764   */\n      dup6\n        /* \"#utility.yul\":1751:1773   */\n      add\n        /* \"#utility.yul\":1720:1783   */\n      tag_59\n      jump\t// in\n    tag_76:\n        /* \"#utility.yul\":1710:1783   */\n      swap2\n      pop\n        /* \"#utility.yul\":1506:1793   */\n      pop\n        /* \"#utility.yul\":1291:1800   */\n      swap3\n      swap2\n      pop\n      pop\n      jump\t// out\n        /* \"#utility.yul\":1806:1963   */\n    tag_77:\n        /* \"#utility.yul\":1911:1956   */\n      tag_79\n        /* \"#utility.yul\":1931:1955   */\n      tag_80\n        /* \"#utility.yul\":1949:1954   */\n      dup3\n        /* \"#utility.yul\":1931:1955   */\n      tag_81\n      jump\t// in\n    tag_80:\n        /* \"#utility.yul\":1911:1956   */\n      tag_82\n      jump\t// in\n    tag_79:\n        /* \"#utility.yul\":1906:1909   */\n      dup3\n        /* \"#utility.yul\":1899:1957   */\n      mstore\n        /* \"#utility.yul\":1806:1963   */\n      pop\n      pop\n      jump\t// out\n        /* \"#utility.yul\":1969:2342   */\n    tag_83:\n        /* \"#utility.yul\":2073:2076   */\n      0x00\n        /* \"#utility.yul\":2101:2139   */\n      tag_85\n        /* \"#utility.yul\":2133:2138   */\n      dup3\n        /* \"#utility.yul\":2101:2139   */\n      tag_86\n      jump\t// in\n    tag_85:\n        /* \"#utility.yul\":2155:2243   */\n      tag_87\n        /* \"#utility.yul\":2236:2242   */\n      dup2\n        /* \"#utility.yul\":2231:2234   */\n      dup6\n        /* \"#utility.yul\":2155:2243   */\n      tag_88\n      jump\t// in\n    tag_87:\n        /* \"#utility.yul\":2148:2243   */\n      swap4\n      pop\n        /* \"#utility.yul\":2252:2304   */\n      tag_89\n        /* \"#utility.yul\":2297:2303   */\n      dup2\n        /* \"#utility.yul\":2292:2295   */\n      dup6\n        /* \"#utility.yul\":2285:2289   */\n      0x20\n        /* \"#utility.yul\":2278:2283   */\n      dup7\n        /* \"#utility.yul\":2274:2290   */\n      add\n        /* \"#utility.yul\":2252:2304   */\n      tag_90\n      jump\t// in\n    tag_89:\n        /* \"#utility.yul\":2329:2335   */\n      dup1\n        /* \"#utility.yul\":2324:2327   */\n      dup5\n        /* \"#utility.yul\":2320:2336   */\n      add\n        /* \"#utility.yul\":2313:2336   */\n      swap2\n      pop\n        /* \"#utility.yul\":2077:2342   */\n      pop\n        /* \"#utility.yul\":1969:2342   */\n      swap3\n      swap2\n      pop\n      pop\n      jump\t// out\n        /* \"#utility.yul\":2348:2714   */\n    tag_91:\n        /* \"#utility.yul\":2490:2493   */\n      0x00\n        /* \"#utility.yul\":2511:2578   */\n      tag_93\n        /* \"#utility.yul\":2575:2577   */\n      0x12\n        /* \"#utility.yul\":2570:2573   */\n      dup4\n        /* \"#utility.yul\":2511:2578   */\n      tag_94\n      jump\t// in\n    tag_93:\n        /* \"#utility.yul\":2504:2578   */\n      swap2\n      pop\n        /* \"#utility.yul\":2587:2680   */\n      tag_95\n        /* \"#utility.yul\":2676:2679   */\n      dup3\n        /* \"#utility.yul\":2587:2680   */\n      tag_96\n      jump\t// in\n    tag_95:\n        /* \"#utility.yul\":2705:2707   */\n      0x20\n        /* \"#utility.yul\":2700:2703   */\n      dup3\n        /* \"#utility.yul\":2696:2708   */\n      add\n        /* \"#utility.yul\":2689:2708   */\n      swap1\n      pop\n        /* \"#utility.yul\":2348:2714   */\n      swap2\n      swap1\n      pop\n      jump\t// out\n        /* \"#utility.yul\":2720:3086   */\n    tag_97:\n        /* \"#utility.yul\":2862:2865   */\n      0x00\n        /* \"#utility.yul\":2883:2950   */\n      tag_99\n        /* \"#utility.yul\":2947:2949   */\n      0x28\n        /* \"#utility.yul\":2942:2945   */\n      dup4\n        /* \"#utility.yul\":2883:2950   */\n      tag_94\n      jump\t// in\n    tag_99:\n        /* \"#utility.yul\":2876:2950   */\n      swap2\n      pop\n        /* \"#utility.yul\":2959:3052   */\n      tag_100\n        /* \"#utility.yul\":3048:3051   */\n      dup3\n        /* \"#utility.yul\":2959:3052   */\n      tag_101\n      jump\t// in\n    tag_100:\n        /* \"#utility.yul\":3077:3079   */\n      0x40\n        /* \"#utility.yul\":3072:3075   */\n      dup3\n        /* \"#utility.yul\":3068:3080   */\n      add\n        /* \"#utility.yul\":3061:3080   */\n      swap1\n      pop\n        /* \"#utility.yul\":2720:3086   */\n      swap2\n      swap1\n      pop\n      jump\t// out\n        /* \"#utility.yul\":3092:3210   */\n    tag_102:\n        /* \"#utility.yul\":3179:3203   */\n      tag_104\n        /* \"#utility.yul\":3197:3202   */\n      dup2\n        /* \"#utility.yul\":3179:3203   */\n      tag_105\n      jump\t// in\n    tag_104:\n        /* \"#utility.yul\":3174:3177   */\n      dup3\n        /* \"#utility.yul\":3167:3204   */\n      mstore\n        /* \"#utility.yul\":3092:3210   */\n      pop\n      pop\n      jump\t// out\n        /* \"#utility.yul\":3216:3373   */\n    tag_106:\n        /* \"#utility.yul\":3321:3366   */\n      tag_108\n        /* \"#utility.yul\":3341:3365   */\n      tag_109\n        /* \"#utility.yul\":3359:3364   */\n      dup3\n        /* \"#utility.yul\":3341:3365   */\n      tag_105\n      jump\t// in\n    tag_109:\n        /* \"#utility.yul\":3321:3366   */\n      tag_110\n      jump\t// in\n    tag_108:\n        /* \"#utility.yul\":3316:3319   */\n      dup3\n        /* \"#utility.yul\":3309:3367   */\n      mstore\n        /* \"#utility.yul\":3216:3373   */\n      pop\n      pop\n      jump\t// out\n        /* \"#utility.yul\":3379:3650   */\n    tag_18:\n        /* \"#utility.yul\":3509:3512   */\n      0x00\n        /* \"#utility.yul\":3531:3624   */\n      tag_112\n        /* \"#utility.yul\":3620:3623   */\n      dup3\n        /* \"#utility.yul\":3611:3617   */\n      dup5\n        /* \"#utility.yul\":3531:3624   */\n      tag_83\n      jump\t// in\n    tag_112:\n        /* \"#utility.yul\":3524:3624   */\n      swap2\n      pop\n        /* \"#utility.yul\":3641:3644   */\n      dup2\n        /* \"#utility.yul\":3634:3644   */\n      swap1\n      pop\n        /* \"#utility.yul\":3379:3650   */\n      swap3\n      swap2\n      pop\n      pop\n      jump\t// out\n        /* \"#utility.yul\":3656:4335   */\n    tag_16:\n        /* \"#utility.yul\":3852:3855   */\n      0x00\n        /* \"#utility.yul\":3867:3942   */\n      tag_114\n        /* \"#utility.yul\":3938:3941   */\n      dup3\n        /* \"#utility.yul\":3929:3935   */\n      dup8\n        /* \"#utility.yul\":3867:3942   */\n      tag_106\n      jump\t// in\n    tag_114:\n        /* \"#utility.yul\":3967:3969   */\n      0x20\n        /* \"#utility.yul\":3962:3965   */\n      dup3\n        /* \"#utility.yul\":3958:3970   */\n      add\n        /* \"#utility.yul\":3951:3970   */\n      swap2\n      pop\n        /* \"#utility.yul\":3980:4055   */\n      tag_115\n        /* \"#utility.yul\":4051:4054   */\n      dup3\n        /* \"#utility.yul\":4042:4048   */\n      dup7\n        /* \"#utility.yul\":3980:4055   */\n      tag_106\n      jump\t// in\n    tag_115:\n        /* \"#utility.yul\":4080:4082   */\n      0x20\n        /* \"#utility.yul\":4075:4078   */\n      dup3\n        /* \"#utility.yul\":4071:4083   */\n      add\n        /* \"#utility.yul\":4064:4083   */\n      swap2\n      pop\n        /* \"#utility.yul\":4093:4168   */\n      tag_116\n        /* \"#utility.yul\":4164:4167   */\n      dup3\n        /* \"#utility.yul\":4155:4161   */\n      dup6\n        /* \"#utility.yul\":4093:4168   */\n      tag_77\n      jump\t// in\n    tag_116:\n        /* \"#utility.yul\":4193:4195   */\n      0x14\n        /* \"#utility.yul\":4188:4191   */\n      dup3\n        /* \"#utility.yul\":4184:4196   */\n      add\n        /* \"#utility.yul\":4177:4196   */\n      swap2\n      pop\n        /* \"#utility.yul\":4206:4281   */\n      tag_117\n        /* \"#utility.yul\":4277:4280   */\n      dup3\n        /* \"#utility.yul\":4268:4274   */\n      dup5\n        /* \"#utility.yul\":4206:4281   */\n      tag_106\n      jump\t// in\n    tag_117:\n        /* \"#utility.yul\":4306:4308   */\n      0x20\n        /* \"#utility.yul\":4301:4304   */\n      dup3\n        /* \"#utility.yul\":4297:4309   */\n      add\n        /* \"#utility.yul\":4290:4309   */\n      swap2\n      pop\n        /* \"#utility.yul\":4326:4329   */\n      dup2\n        /* \"#utility.yul\":4319:4329   */\n      swap1\n      pop\n        /* \"#utility.yul\":3656:4335   */\n      swap6\n      swap5\n      pop\n      pop\n      pop\n      pop\n      pop\n      jump\t// out\n        /* \"#utility.yul\":4341:4760   */\n    tag_31:\n        /* \"#utility.yul\":4507:4511   */\n      0x00\n        /* \"#utility.yul\":4545:4547   */\n      0x20\n        /* \"#utility.yul\":4534:4543   */\n      dup3\n        /* \"#utility.yul\":4530:4548   */\n      add\n        /* \"#utility.yul\":4522:4548   */\n      swap1\n      pop\n        /* \"#utility.yul\":4594:4603   */\n      dup2\n        /* \"#utility.yul\":4588:4592   */\n      dup2\n        /* \"#utility.yul\":4584:4604   */\n      sub\n        /* \"#utility.yul\":4580:4581   */\n      0x00\n        /* \"#utility.yul\":4569:4578   */\n      dup4\n        /* \"#utility.yul\":4565:4582   */\n      add\n        /* \"#utility.yul\":4558:4605   */\n      mstore\n        /* \"#utility.yul\":4622:4753   */\n      tag_119\n        /* \"#utility.yul\":4748:4752   */\n      dup2\n        /* \"#utility.yul\":4622:4753   */\n      tag_91\n      jump\t// in\n    tag_119:\n        /* \"#utility.yul\":4614:4753   */\n      swap1\n      pop\n        /* \"#utility.yul\":4341:4760   */\n      swap2\n      swap1\n      pop\n      jump\t// out\n        /* \"#utility.yul\":4766:5185   */\n    tag_28:\n        /* \"#utility.yul\":4932:4936   */\n      0x00\n        /* \"#utility.yul\":4970:4972   */\n      0x20\n        /* \"#utility.yul\":4959:4968   */\n      dup3\n        /* \"#utility.yul\":4955:4973   */\n      add\n        /* \"#utility.yul\":4947:4973   */\n      swap1\n      pop\n        /* \"#utility.yul\":5019:5028   */\n      dup2\n        /* \"#utility.yul\":5013:5017   */\n      dup2\n        /* \"#utility.yul\":5009:5029   */\n      sub\n        /* \"#utility.yul\":5005:5006   */\n      0x00\n        /* \"#utility.yul\":4994:5003   */\n      dup4\n        /* \"#utility.yul\":4990:5007   */\n      add\n        /* \"#utility.yul\":4983:5030   */\n      mstore\n        /* \"#utility.yul\":5047:5178   */\n      tag_121\n        /* \"#utility.yul\":5173:5177   */\n      dup2\n        /* \"#utility.yul\":5047:5178   */\n      tag_97\n      jump\t// in\n    tag_121:\n        /* \"#utility.yul\":5039:5178   */\n      swap1\n      pop\n        /* \"#utility.yul\":4766:5185   */\n      swap2\n      swap1\n      pop\n      jump\t// out\n        /* \"#utility.yul\":5191:5413   */\n    tag_10:\n        /* \"#utility.yul\":5284:5288   */\n      0x00\n        /* \"#utility.yul\":5322:5324   */\n      0x20\n        /* \"#utility.yul\":5311:5320   */\n      dup3\n        /* \"#utility.yul\":5307:5325   */\n      add\n        /* \"#utility.yul\":5299:5325   */\n      swap1\n      pop\n        /* \"#utility.yul\":5335:5406   */\n      tag_123\n        /* \"#utility.yul\":5403:5404   */\n      0x00\n        /* \"#utility.yul\":5392:5401   */\n      dup4\n        /* \"#utility.yul\":5388:5405   */\n      add\n        /* \"#utility.yul\":5379:5385   */\n      dup5\n        /* \"#utility.yul\":5335:5406   */\n      tag_102\n      jump\t// in\n    tag_123:\n        /* \"#utility.yul\":5191:5413   */\n      swap3\n      swap2\n      pop\n      pop\n      jump\t// out\n        /* \"#utility.yul\":5419:5548   */\n    tag_49:\n        /* \"#utility.yul\":5453:5459   */\n      0x00\n        /* \"#utility.yul\":5480:5500   */\n      tag_125\n      tag_126\n      jump\t// in\n    tag_125:\n        /* \"#utility.yul\":5470:5500   */\n      swap1\n      pop\n        /* \"#utility.yul\":5509:5542   */\n      tag_127\n        /* \"#utility.yul\":5537:5541   */\n      dup3\n        /* \"#utility.yul\":5529:5535   */\n      dup3\n        /* \"#utility.yul\":5509:5542   */\n      tag_128\n      jump\t// in\n    tag_127:\n        /* \"#utility.yul\":5419:5548   */\n      swap2\n      swap1\n      pop\n      jump\t// out\n        /* \"#utility.yul\":5554:5629   */\n    tag_126:\n        /* \"#utility.yul\":5587:5593   */\n      0x00\n        /* \"#utility.yul\":5620:5622   */\n      0x40\n        /* \"#utility.yul\":5614:5623   */\n      mload\n        /* \"#utility.yul\":5604:5623   */\n      swap1\n      pop\n        /* \"#utility.yul\":5554:5629   */\n      swap1\n      jump\t// out\n        /* \"#utility.yul\":5635:5943   */\n    tag_48:\n        /* \"#utility.yul\":5697:5701   */\n      0x00\n        /* \"#utility.yul\":5787:5805   */\n      0xffffffffffffffff\n        /* \"#utility.yul\":5779:5785   */\n      dup3\n        /* \"#utility.yul\":5776:5806   */\n      gt\n        /* \"#utility.yul\":5773:5829   */\n      iszero\n      tag_131\n      jumpi\n        /* \"#utility.yul\":5809:5827   */\n      tag_132\n      tag_133\n      jump\t// in\n    tag_132:\n        /* \"#utility.yul\":5773:5829   */\n    tag_131:\n        /* \"#utility.yul\":5847:5876   */\n      tag_134\n        /* \"#utility.yul\":5869:5875   */\n      dup3\n        /* \"#utility.yul\":5847:5876   */\n      tag_135\n      jump\t// in\n    tag_134:\n        /* \"#utility.yul\":5839:5876   */\n      swap1\n      pop\n        /* \"#utility.yul\":5931:5935   */\n      0x20\n        /* \"#utility.yul\":5925:5929   */\n      dup2\n        /* \"#utility.yul\":5921:5936   */\n      add\n        /* \"#utility.yul\":5913:5936   */\n      swap1\n      pop\n        /* \"#utility.yul\":5635:5943   */\n      swap2\n      swap1\n      pop\n      jump\t// out\n        /* \"#utility.yul\":5949:6047   */\n    tag_86:\n        /* \"#utility.yul\":6000:6006   */\n      0x00\n        /* \"#utility.yul\":6034:6039   */\n      dup2\n        /* \"#utility.yul\":6028:6040   */\n      mload\n        /* \"#utility.yul\":6018:6040   */\n      swap1\n      pop\n        /* \"#utility.yul\":5949:6047   */\n      swap2\n      swap1\n      pop\n      jump\t// out\n        /* \"#utility.yul\":6053:6200   */\n    tag_88:\n        /* \"#utility.yul\":6154:6165   */\n      0x00\n        /* \"#utility.yul\":6191:6194   */\n      dup2\n        /* \"#utility.yul\":6176:6194   */\n      swap1\n      pop\n        /* \"#utility.yul\":6053:6200   */\n      swap3\n      swap2\n      pop\n      pop\n      jump\t// out\n        /* \"#utility.yul\":6206:6375   */\n    tag_94:\n        /* \"#utility.yul\":6290:6301   */\n      0x00\n        /* \"#utility.yul\":6324:6330   */\n      dup3\n        /* \"#utility.yul\":6319:6322   */\n      dup3\n        /* \"#utility.yul\":6312:6331   */\n      mstore\n        /* \"#utility.yul\":6364:6368   */\n      0x20\n        /* \"#utility.yul\":6359:6362   */\n      dup3\n        /* \"#utility.yul\":6355:6369   */\n      add\n        /* \"#utility.yul\":6340:6369   */\n      swap1\n      pop\n        /* \"#utility.yul\":6206:6375   */\n      swap3\n      swap2\n      pop\n      pop\n      jump\t// out\n        /* \"#utility.yul\":6381:6477   */\n    tag_81:\n        /* \"#utility.yul\":6418:6425   */\n      0x00\n        /* \"#utility.yul\":6447:6471   */\n      tag_140\n        /* \"#utility.yul\":6465:6470   */\n      dup3\n        /* \"#utility.yul\":6447:6471   */\n      tag_141\n      jump\t// in\n    tag_140:\n        /* \"#utility.yul\":6436:6471   */\n      swap1\n      pop\n        /* \"#utility.yul\":6381:6477   */\n      swap2\n      swap1\n      pop\n      jump\t// out\n        /* \"#utility.yul\":6483:6560   */\n    tag_142:\n        /* \"#utility.yul\":6520:6527   */\n      0x00\n        /* \"#utility.yul\":6549:6554   */\n      dup2\n        /* \"#utility.yul\":6538:6554   */\n      swap1\n      pop\n        /* \"#utility.yul\":6483:6560   */\n      swap2\n      swap1\n      pop\n      jump\t// out\n        /* \"#utility.yul\":6566:6692   */\n    tag_141:\n        /* \"#utility.yul\":6603:6610   */\n      0x00\n        /* \"#utility.yul\":6643:6685   */\n      0xffffffffffffffffffffffffffffffffffffffff\n        /* \"#utility.yul\":6636:6641   */\n      dup3\n        /* \"#utility.yul\":6632:6686   */\n      and\n        /* \"#utility.yul\":6621:6686   */\n      swap1\n      pop\n        /* \"#utility.yul\":6566:6692   */\n      swap2\n      swap1\n      pop\n      jump\t// out\n        /* \"#utility.yul\":6698:6775   */\n    tag_105:\n        /* \"#utility.yul\":6735:6742   */\n      0x00\n        /* \"#utility.yul\":6764:6769   */\n      dup2\n        /* \"#utility.yul\":6753:6769   */\n      swap1\n      pop\n        /* \"#utility.yul\":6698:6775   */\n      swap2\n      swap1\n      pop\n      jump\t// out\n        /* \"#utility.yul\":6781:6935   */\n    tag_54:\n        /* \"#utility.yul\":6865:6871   */\n      dup3\n        /* \"#utility.yul\":6860:6863   */\n      dup2\n        /* \"#utility.yul\":6855:6858   */\n      dup4\n        /* \"#utility.yul\":6842:6872   */\n      calldatacopy\n        /* \"#utility.yul\":6927:6928   */\n      0x00\n        /* \"#utility.yul\":6918:6924   */\n      dup4\n        /* \"#utility.yul\":6913:6916   */\n      dup4\n        /* \"#utility.yul\":6909:6925   */\n      add\n        /* \"#utility.yul\":6902:6929   */\n      mstore\n        /* \"#utility.yul\":6781:6935   */\n      pop\n      pop\n      pop\n      jump\t// out\n        /* \"#utility.yul\":6941:7248   */\n    tag_90:\n        /* \"#utility.yul\":7009:7010   */\n      0x00\n        /* \"#utility.yul\":7019:7132   */\n    tag_148:\n        /* \"#utility.yul\":7033:7039   */\n      dup4\n        /* \"#utility.yul\":7030:7031   */\n      dup2\n        /* \"#utility.yul\":7027:7040   */\n      lt\n        /* \"#utility.yul\":7019:7132   */\n      iszero\n      tag_150\n      jumpi\n        /* \"#utility.yul\":7118:7119   */\n      dup1\n        /* \"#utility.yul\":7113:7116   */\n      dup3\n        /* \"#utility.yul\":7109:7120   */\n      add\n        /* \"#utility.yul\":7103:7121   */\n      mload\n        /* \"#utility.yul\":7099:7100   */\n      dup2\n        /* \"#utility.yul\":7094:7097   */\n      dup5\n        /* \"#utility.yul\":7090:7101   */\n      add\n        /* \"#utility.yul\":7083:7122   */\n      mstore\n        /* \"#utility.yul\":7055:7057   */\n      0x20\n        /* \"#utility.yul\":7052:7053   */\n      dup2\n        /* \"#utility.yul\":7048:7058   */\n      add\n        /* \"#utility.yul\":7043:7058   */\n      swap1\n      pop\n        /* \"#utility.yul\":7019:7132   */\n      jump(tag_148)\n    tag_150:\n        /* \"#utility.yul\":7150:7156   */\n      dup4\n        /* \"#utility.yul\":7147:7148   */\n      dup2\n        /* \"#utility.yul\":7144:7157   */\n      gt\n        /* \"#utility.yul\":7141:7242   */\n      iszero\n      tag_151\n      jumpi\n        /* \"#utility.yul\":7230:7231   */\n      0x00\n        /* \"#utility.yul\":7221:7227   */\n      dup5\n        /* \"#utility.yul\":7216:7219   */\n      dup5\n        /* \"#utility.yul\":7212:7228   */\n      add\n        /* \"#utility.yul\":7205:7232   */\n      mstore\n        /* \"#utility.yul\":7141:7242   */\n    tag_151:\n        /* \"#utility.yul\":6990:7248   */\n      pop\n        /* \"#utility.yul\":6941:7248   */\n      pop\n      pop\n      pop\n      jump\t// out\n        /* \"#utility.yul\":7254:7574   */\n    tag_33:\n        /* \"#utility.yul\":7298:7304   */\n      0x00\n        /* \"#utility.yul\":7335:7336   */\n      0x02\n        /* \"#utility.yul\":7329:7333   */\n      dup3\n        /* \"#utility.yul\":7325:7337   */\n      div\n        /* \"#utility.yul\":7315:7337   */\n      swap1\n      pop\n        /* \"#utility.yul\":7382:7383   */\n      0x01\n        /* \"#utility.yul\":7376:7380   */\n      dup3\n        /* \"#utility.yul\":7372:7384   */\n      and\n        /* \"#utility.yul\":7403:7421   */\n      dup1\n        /* \"#utility.yul\":7393:7474   */\n      tag_153\n      jumpi\n        /* \"#utility.yul\":7459:7463   */\n      0x7f\n        /* \"#utility.yul\":7451:7457   */\n      dup3\n        /* \"#utility.yul\":7447:7464   */\n      and\n        /* \"#utility.yul\":7437:7464   */\n      swap2\n      pop\n        /* \"#utility.yul\":7393:7474   */\n    tag_153:\n        /* \"#utility.yul\":7521:7523   */\n      0x20\n        /* \"#utility.yul\":7513:7519   */\n      dup3\n        /* \"#utility.yul\":7510:7524   */\n      lt\n        /* \"#utility.yul\":7490:7508   */\n      dup2\n        /* \"#utility.yul\":7487:7525   */\n      eq\n        /* \"#utility.yul\":7484:7568   */\n      iszero\n      tag_154\n      jumpi\n        /* \"#utility.yul\":7540:7558   */\n      tag_155\n      tag_156\n      jump\t// in\n    tag_155:\n        /* \"#utility.yul\":7484:7568   */\n    tag_154:\n        /* \"#utility.yul\":7305:7574   */\n      pop\n        /* \"#utility.yul\":7254:7574   */\n      swap2\n      swap1\n      pop\n      jump\t// out\n        /* \"#utility.yul\":7580:7861   */\n    tag_128:\n        /* \"#utility.yul\":7663:7690   */\n      tag_158\n        /* \"#utility.yul\":7685:7689   */\n      dup3\n        /* \"#utility.yul\":7663:7690   */\n      tag_135\n      jump\t// in\n    tag_158:\n        /* \"#utility.yul\":7655:7661   */\n      dup2\n        /* \"#utility.yul\":7651:7691   */\n      add\n        /* \"#utility.yul\":7793:7799   */\n      dup2\n        /* \"#utility.yul\":7781:7791   */\n      dup2\n        /* \"#utility.yul\":7778:7800   */\n      lt\n        /* \"#utility.yul\":7757:7775   */\n      0xffffffffffffffff\n        /* \"#utility.yul\":7745:7755   */\n      dup3\n        /* \"#utility.yul\":7742:7776   */\n      gt\n        /* \"#utility.yul\":7739:7801   */\n      or\n        /* \"#utility.yul\":7736:7824   */\n      iszero\n      tag_159\n      jumpi\n        /* \"#utility.yul\":7804:7822   */\n      tag_160\n      tag_133\n      jump\t// in\n    tag_160:\n        /* \"#utility.yul\":7736:7824   */\n    tag_159:\n        /* \"#utility.yul\":7844:7854   */\n      dup1\n        /* \"#utility.yul\":7840:7842   */\n      0x40\n        /* \"#utility.yul\":7833:7855   */\n      mstore\n        /* \"#utility.yul\":7623:7861   */\n      pop\n        /* \"#utility.yul\":7580:7861   */\n      pop\n      pop\n      jump\t// out\n        /* \"#utility.yul\":7867:7967   */\n    tag_82:\n        /* \"#utility.yul\":7906:7913   */\n      0x00\n        /* \"#utility.yul\":7935:7961   */\n      tag_162\n        /* \"#utility.yul\":7955:7960   */\n      dup3\n        /* \"#utility.yul\":7935:7961   */\n      tag_163\n      jump\t// in\n    tag_162:\n        /* \"#utility.yul\":7924:7961   */\n      swap1\n      pop\n        /* \"#utility.yul\":7867:7967   */\n      swap2\n      swap1\n      pop\n      jump\t// out\n        /* \"#utility.yul\":7973:8067   */\n    tag_163:\n        /* \"#utility.yul\":8012:8019   */\n      0x00\n        /* \"#utility.yul\":8041:8061   */\n      tag_165\n        /* \"#utility.yul\":8055:8060   */\n      dup3\n        /* \"#utility.yul\":8041:8061   */\n      tag_166\n      jump\t// in\n    tag_165:\n        /* \"#utility.yul\":8030:8061   */\n      swap1\n      pop\n        /* \"#utility.yul\":7973:8067   */\n      swap2\n      swap1\n      pop\n      jump\t// out\n        /* \"#utility.yul\":8073:8152   */\n    tag_110:\n        /* \"#utility.yul\":8112:8119   */\n      0x00\n        /* \"#utility.yul\":8141:8146   */\n      dup2\n        /* \"#utility.yul\":8130:8146   */\n      swap1\n      pop\n        /* \"#utility.yul\":8073:8152   */\n      swap2\n      swap1\n      pop\n      jump\t// out\n        /* \"#utility.yul\":8158:8338   */\n    tag_156:\n        /* \"#utility.yul\":8206:8283   */\n      0x4e487b7100000000000000000000000000000000000000000000000000000000\n        /* \"#utility.yul\":8203:8204   */\n      0x00\n        /* \"#utility.yul\":8196:8284   */\n      mstore\n        /* \"#utility.yul\":8303:8307   */\n      0x22\n        /* \"#utility.yul\":8300:8301   */\n      0x04\n        /* \"#utility.yul\":8293:8308   */\n      mstore\n        /* \"#utility.yul\":8327:8331   */\n      0x24\n        /* \"#utility.yul\":8324:8325   */\n      0x00\n        /* \"#utility.yul\":8317:8332   */\n      revert\n        /* \"#utility.yul\":8344:8524   */\n    tag_133:\n        /* \"#utility.yul\":8392:8469   */\n      0x4e487b7100000000000000000000000000000000000000000000000000000000\n        /* \"#utility.yul\":8389:8390   */\n      0x00\n        /* \"#utility.yul\":8382:8470   */\n      mstore\n        /* \"#utility.yul\":8489:8493   */\n      0x41\n        /* \"#utility.yul\":8486:8487   */\n      0x04\n        /* \"#utility.yul\":8479:8494   */\n      mstore\n        /* \"#utility.yul\":8513:8517   */\n      0x24\n        /* \"#utility.yul\":8510:8511   */\n      0x00\n        /* \"#utility.yul\":8503:8518   */\n      revert\n        /* \"#utility.yul\":8530:8647   */\n    tag_63:\n        /* \"#utility.yul\":8639:8640   */\n      0x00\n        /* \"#utility.yul\":8636:8637   */\n      dup1\n        /* \"#utility.yul\":8629:8641   */\n      revert\n        /* \"#utility.yul\":8653:8770   */\n    tag_52:\n        /* \"#utility.yul\":8762:8763   */\n      0x00\n        /* \"#utility.yul\":8759:8760   */\n      dup1\n        /* \"#utility.yul\":8752:8764   */\n      revert\n        /* \"#utility.yul\":8776:8893   */\n    tag_75:\n        /* \"#utility.yul\":8885:8886   */\n      0x00\n        /* \"#utility.yul\":8882:8883   */\n      dup1\n        /* \"#utility.yul\":8875:8887   */\n      revert\n        /* \"#utility.yul\":8899:9016   */\n    tag_68:\n        /* \"#utility.yul\":9008:9009   */\n      0x00\n        /* \"#utility.yul\":9005:9006   */\n      dup1\n        /* \"#utility.yul\":8998:9010   */\n      revert\n        /* \"#utility.yul\":9022:9124   */\n    tag_135:\n        /* \"#utility.yul\":9063:9069   */\n      0x00\n        /* \"#utility.yul\":9114:9116   */\n      0x1f\n        /* \"#utility.yul\":9110:9117   */\n      not\n        /* \"#utility.yul\":9105:9107   */\n      0x1f\n        /* \"#utility.yul\":9098:9103   */\n      dup4\n        /* \"#utility.yul\":9094:9108   */\n      add\n        /* \"#utility.yul\":9090:9118   */\n      and\n        /* \"#utility.yul\":9080:9118   */\n      swap1\n      pop\n        /* \"#utility.yul\":9022:9124   */\n      swap2\n      swap1\n      pop\n      jump\t// out\n        /* \"#utility.yul\":9130:9224   */\n    tag_166:\n        /* \"#utility.yul\":9163:9171   */\n      0x00\n        /* \"#utility.yul\":9211:9216   */\n      dup2\n        /* \"#utility.yul\":9207:9209   */\n      0x60\n        /* \"#utility.yul\":9203:9217   */\n      shl\n        /* \"#utility.yul\":9182:9217   */\n      swap1\n      pop\n        /* \"#utility.yul\":9130:9224   */\n      swap2\n      swap1\n      pop\n      jump\t// out\n        /* \"#utility.yul\":9230:9398   */\n    tag_96:\n        /* \"#utility.yul\":9370:9390   */\n      0x416c7265616479205369676e6564207570210000000000000000000000000000\n        /* \"#utility.yul\":9366:9367   */\n      0x00\n        /* \"#utility.yul\":9358:9364   */\n      dup3\n        /* \"#utility.yul\":9354:9368   */\n      add\n        /* \"#utility.yul\":9347:9391   */\n      mstore\n        /* \"#utility.yul\":9230:9398   */\n      pop\n      jump\t// out\n        /* \"#utility.yul\":9404:9631   */\n    tag_101:\n        /* \"#utility.yul\":9544:9578   */\n      0x5369676e2d75702072656a65637465642120496e616465717561746520737461\n        /* \"#utility.yul\":9540:9541   */\n      0x00\n        /* \"#utility.yul\":9532:9538   */\n      dup3\n        /* \"#utility.yul\":9528:9542   */\n      add\n        /* \"#utility.yul\":9521:9579   */\n      mstore\n        /* \"#utility.yul\":9613:9623   */\n      0x6b652076616c7565000000000000000000000000000000000000000000000000\n        /* \"#utility.yul\":9608:9610   */\n      0x20\n        /* \"#utility.yul\":9600:9606   */\n      dup3\n        /* \"#utility.yul\":9596:9611   */\n      add\n        /* \"#utility.yul\":9589:9624   */\n      mstore\n        /* \"#utility.yul\":9404:9631   */\n      pop\n      jump\t// out\n        /* \"#utility.yul\":9637:9759   */\n    tag_58:\n        /* \"#utility.yul\":9710:9734   */\n      tag_179\n        /* \"#utility.yul\":9728:9733   */\n      dup2\n        /* \"#utility.yul\":9710:9734   */\n      tag_142\n      jump\t// in\n    tag_179:\n        /* \"#utility.yul\":9703:9708   */\n      dup2\n        /* \"#utility.yul\":9700:9735   */\n      eq\n        /* \"#utility.yul\":9690:9753   */\n      tag_180\n      jumpi\n        /* \"#utility.yul\":9749:9750   */\n      0x00\n        /* \"#utility.yul\":9746:9747   */\n      dup1\n        /* \"#utility.yul\":9739:9751   */\n      revert\n        /* \"#utility.yul\":9690:9753   */\n    tag_180:\n        /* \"#utility.yul\":9637:9759   */\n      pop\n      jump\t// out\n\n    auxdata: 0xa2646970667358221220e72e0f9e18a9b2ab6e9dbfcd2a3056110e3c7e56f9971d5e197424b31424ded964736f6c63430008070033\n}\n",
				"bytecode": {
					"linkReferences": {},
					"object": "608060405234801561001057600080fd5b506108ac806100206000396000f3fe6080604052600436106100295760003560e01c8063969b15671461002e578063c4fb33371461006b575b600080fd5b34801561003a57600080fd5b5061005560048036038101906100509190610404565b610089565b60405161006291906105a6565b60405180910390f35b6100736101ce565b60405161008091906105a6565b60405180910390f35b60008060024244336002546040516020016100a79493929190610518565b6040516020818303038152906040526040516100c39190610501565b602060405180830381855afa1580156100e0573d6000803e3d6000fd5b5050506040513d601f19601f8201168201806040525081019061010391906103d7565b60001c90508060016000600354815260200190815260200160002060010181905550600354600160006003548152602001908152602001600020600001819055503360016000600354815260200190815260200160002060040160006101000a81548173ffffffffffffffffffffffffffffffffffffffff021916908373ffffffffffffffffffffffffffffffffffffffff1602179055508260016000600354815260200190815260200160002060030190805190602001906101c79291906102af565b5050919050565b6000670de0b6b3a7640000341161021a576040517f08c379a000000000000000000000000000000000000000000000000000000000815260040161021190610586565b60405180910390fd5b600015156000803373ffffffffffffffffffffffffffffffffffffffff1673ffffffffffffffffffffffffffffffffffffffff16815260200190815260200160002060009054906101000a900460ff161515146102ac576040517f08c379a00000000000000000000000000000000000000000000000000000000081526004016102a390610566565b60405180910390fd5b90565b8280546102bb906106c6565b90600052602060002090601f0160209004810192826102dd5760008555610324565b82601f106102f657805160ff1916838001178555610324565b82800160010185558215610324579182015b82811115610323578251825591602001919060010190610308565b5b5090506103319190610335565b5090565b5b8082111561034e576000816000905550600101610336565b5090565b6000610365610360846105e6565b6105c1565b905082815260208101848484011115610381576103806107ba565b5b61038c848285610684565b509392505050565b6000815190506103a38161085f565b92915050565b600082601f8301126103be576103bd6107b5565b5b81356103ce848260208601610352565b91505092915050565b6000602082840312156103ed576103ec6107c4565b5b60006103fb84828501610394565b91505092915050565b60006020828403121561041a576104196107c4565b5b600082013567ffffffffffffffff811115610438576104376107bf565b5b610444848285016103a9565b91505092915050565b61045e6104598261063e565b610729565b82525050565b600061046f82610617565b6104798185610622565b9350610489818560208601610693565b80840191505092915050565b60006104a260128361062d565b91506104ad826107e7565b602082019050919050565b60006104c560288361062d565b91506104d082610810565b604082019050919050565b6104e48161067a565b82525050565b6104fb6104f68261067a565b61074d565b82525050565b600061050d8284610464565b915081905092915050565b600061052482876104ea565b60208201915061053482866104ea565b602082019150610544828561044d565b60148201915061055482846104ea565b60208201915081905095945050505050565b6000602082019050818103600083015261057f81610495565b9050919050565b6000602082019050818103600083015261059f816104b8565b9050919050565b60006020820190506105bb60008301846104db565b92915050565b60006105cb6105dc565b90506105d782826106f8565b919050565b6000604051905090565b600067ffffffffffffffff82111561060157610600610786565b5b61060a826107c9565b9050602081019050919050565b600081519050919050565b600081905092915050565b600082825260208201905092915050565b60006106498261065a565b9050919050565b6000819050919050565b600073ffffffffffffffffffffffffffffffffffffffff82169050919050565b6000819050919050565b82818337600083830152505050565b60005b838110156106b1578082015181840152602081019050610696565b838111156106c0576000848401525b50505050565b600060028204905060018216806106de57607f821691505b602082108114156106f2576106f1610757565b5b50919050565b610701826107c9565b810181811067ffffffffffffffff821117156107205761071f610786565b5b80604052505050565b60006107348261073b565b9050919050565b6000610746826107da565b9050919050565b6000819050919050565b7f4e487b7100000000000000000000000000000000000000000000000000000000600052602260045260246000fd5b7f4e487b7100000000000000000000000000000000000000000000000000000000600052604160045260246000fd5b600080fd5b600080fd5b600080fd5b600080fd5b6000601f19601f8301169050919050565b60008160601b9050919050565b7f416c7265616479205369676e6564207570210000000000000000000000000000600082015250565b7f5369676e2d75702072656a65637465642120496e61646571756174652073746160008201527f6b652076616c7565000000000000000000000000000000000000000000000000602082015250565b61086881610650565b811461087357600080fd5b5056fea2646970667358221220e72e0f9e18a9b2ab6e9dbfcd2a3056110e3c7e56f9971d5e197424b31424ded964736f6c63430008070033",
					"opcodes": "PUSH1 0x80 PUSH1 0x40 MSTORE CALLVALUE DUP1 ISZERO PUSH2 0x10 JUMPI PUSH1 0x0 DUP1 REVERT JUMPDEST POP PUSH2 0x8AC DUP1 PUSH2 0x20 PUSH1 0x0 CODECOPY PUSH1 0x0 RETURN INVALID PUSH1 0x80 PUSH1 0x40 MSTORE PUSH1 0x4 CALLDATASIZE LT PUSH2 0x29 JUMPI PUSH1 0x0 CALLDATALOAD PUSH1 0xE0 SHR DUP1 PUSH4 0x969B1567 EQ PUSH2 0x2E JUMPI DUP1 PUSH4 0xC4FB3337 EQ PUSH2 0x6B JUMPI JUMPDEST PUSH1 0x0 DUP1 REVERT JUMPDEST CALLVALUE DUP1 ISZERO PUSH2 0x3A JUMPI PUSH1 0x0 DUP1 REVERT JUMPDEST POP PUSH2 0x55 PUSH1 0x4 DUP1 CALLDATASIZE SUB DUP2 ADD SWAP1 PUSH2 0x50 SWAP2 SWAP1 PUSH2 0x404 JUMP JUMPDEST PUSH2 0x89 JUMP JUMPDEST PUSH1 0x40 MLOAD PUSH2 0x62 SWAP2 SWAP1 PUSH2 0x5A6 JUMP JUMPDEST PUSH1 0x40 MLOAD DUP1 SWAP2 SUB SWAP1 RETURN JUMPDEST PUSH2 0x73 PUSH2 0x1CE JUMP JUMPDEST PUSH1 0x40 MLOAD PUSH2 0x80 SWAP2 SWAP1 PUSH2 0x5A6 JUMP JUMPDEST PUSH1 0x40 MLOAD DUP1 SWAP2 SUB SWAP1 RETURN JUMPDEST PUSH1 0x0 DUP1 PUSH1 0x2 TIMESTAMP DIFFICULTY CALLER PUSH1 0x2 SLOAD PUSH1 0x40 MLOAD PUSH1 0x20 ADD PUSH2 0xA7 SWAP5 SWAP4 SWAP3 SWAP2 SWAP1 PUSH2 0x518 JUMP JUMPDEST PUSH1 0x40 MLOAD PUSH1 0x20 DUP2 DUP4 SUB SUB DUP2 MSTORE SWAP1 PUSH1 0x40 MSTORE PUSH1 0x40 MLOAD PUSH2 0xC3 SWAP2 SWAP1 PUSH2 0x501 JUMP JUMPDEST PUSH1 0x20 PUSH1 0x40 MLOAD DUP1 DUP4 SUB DUP2 DUP6 GAS STATICCALL ISZERO DUP1 ISZERO PUSH2 0xE0 JUMPI RETURNDATASIZE PUSH1 0x0 DUP1 RETURNDATACOPY RETURNDATASIZE PUSH1 0x0 REVERT JUMPDEST POP POP POP PUSH1 0x40 MLOAD RETURNDATASIZE PUSH1 0x1F NOT PUSH1 0x1F DUP3 ADD AND DUP3 ADD DUP1 PUSH1 0x40 MSTORE POP DUP2 ADD SWAP1 PUSH2 0x103 SWAP2 SWAP1 PUSH2 0x3D7 JUMP JUMPDEST PUSH1 0x0 SHR SWAP1 POP DUP1 PUSH1 0x1 PUSH1 0x0 PUSH1 0x3 SLOAD DUP2 MSTORE PUSH1 0x20 ADD SWAP1 DUP2 MSTORE PUSH1 0x20 ADD PUSH1 0x0 KECCAK256 PUSH1 0x1 ADD DUP2 SWAP1 SSTORE POP PUSH1 0x3 SLOAD PUSH1 0x1 PUSH1 0x0 PUSH1 0x3 SLOAD DUP2 MSTORE PUSH1 0x20 ADD SWAP1 DUP2 MSTORE PUSH1 0x20 ADD PUSH1 0x0 KECCAK256 PUSH1 0x0 ADD DUP2 SWAP1 SSTORE POP CALLER PUSH1 0x1 PUSH1 0x0 PUSH1 0x3 SLOAD DUP2 MSTORE PUSH1 0x20 ADD SWAP1 DUP2 MSTORE PUSH1 0x20 ADD PUSH1 0x0 KECCAK256 PUSH1 0x4 ADD PUSH1 0x0 PUSH2 0x100 EXP DUP2 SLOAD DUP2 PUSH20 0xFFFFFFFFFFFFFFFFFFFFFFFFFFFFFFFFFFFFFFFF MUL NOT AND SWAP1 DUP4 PUSH20 0xFFFFFFFFFFFFFFFFFFFFFFFFFFFFFFFFFFFFFFFF AND MUL OR SWAP1 SSTORE POP DUP3 PUSH1 0x1 PUSH1 0x0 PUSH1 0x3 SLOAD DUP2 MSTORE PUSH1 0x20 ADD SWAP1 DUP2 MSTORE PUSH1 0x20 ADD PUSH1 0x0 KECCAK256 PUSH1 0x3 ADD SWAP1 DUP1 MLOAD SWAP1 PUSH1 0x20 ADD SWAP1 PUSH2 0x1C7 SWAP3 SWAP2 SWAP1 PUSH2 0x2AF JUMP JUMPDEST POP POP SWAP2 SWAP1 POP JUMP JUMPDEST PUSH1 0x0 PUSH8 0xDE0B6B3A7640000 CALLVALUE GT PUSH2 0x21A JUMPI PUSH1 0x40 MLOAD PUSH32 0x8C379A000000000000000000000000000000000000000000000000000000000 DUP2 MSTORE PUSH1 0x4 ADD PUSH2 0x211 SWAP1 PUSH2 0x586 JUMP JUMPDEST PUSH1 0x40 MLOAD DUP1 SWAP2 SUB SWAP1 REVERT JUMPDEST PUSH1 0x0 ISZERO ISZERO PUSH1 0x0 DUP1 CALLER PUSH20 0xFFFFFFFFFFFFFFFFFFFFFFFFFFFFFFFFFFFFFFFF AND PUSH20 0xFFFFFFFFFFFFFFFFFFFFFFFFFFFFFFFFFFFFFFFF AND DUP2 MSTORE PUSH1 0x20 ADD SWAP1 DUP2 MSTORE PUSH1 0x20 ADD PUSH1 0x0 KECCAK256 PUSH1 0x0 SWAP1 SLOAD SWAP1 PUSH2 0x100 EXP SWAP1 DIV PUSH1 0xFF AND ISZERO ISZERO EQ PUSH2 0x2AC JUMPI PUSH1 0x40 MLOAD PUSH32 0x8C379A000000000000000000000000000000000000000000000000000000000 DUP2 MSTORE PUSH1 0x4 ADD PUSH2 0x2A3 SWAP1 PUSH2 0x566 JUMP JUMPDEST PUSH1 0x40 MLOAD DUP1 SWAP2 SUB SWAP1 REVERT JUMPDEST SWAP1 JUMP JUMPDEST DUP3 DUP1 SLOAD PUSH2 0x2BB SWAP1 PUSH2 0x6C6 JUMP JUMPDEST SWAP1 PUSH1 0x0 MSTORE PUSH1 0x20 PUSH1 0x0 KECCAK256 SWAP1 PUSH1 0x1F ADD PUSH1 0x20 SWAP1 DIV DUP2 ADD SWAP3 DUP3 PUSH2 0x2DD JUMPI PUSH1 0x0 DUP6 SSTORE PUSH2 0x324 JUMP JUMPDEST DUP3 PUSH1 0x1F LT PUSH2 0x2F6 JUMPI DUP1 MLOAD PUSH1 0xFF NOT AND DUP4 DUP1 ADD OR DUP6 SSTORE PUSH2 0x324 JUMP JUMPDEST DUP3 DUP1 ADD PUSH1 0x1 ADD DUP6 SSTORE DUP3 ISZERO PUSH2 0x324 JUMPI SWAP2 DUP3 ADD JUMPDEST DUP3 DUP2 GT ISZERO PUSH2 0x323 JUMPI DUP3 MLOAD DUP3 SSTORE SWAP2 PUSH1 0x20 ADD SWAP2 SWAP1 PUSH1 0x1 ADD SWAP1 PUSH2 0x308 JUMP JUMPDEST JUMPDEST POP SWAP1 POP PUSH2 0x331 SWAP2 SWAP1 PUSH2 0x335 JUMP JUMPDEST POP SWAP1 JUMP JUMPDEST JUMPDEST DUP1 DUP3 GT ISZERO PUSH2 0x34E JUMPI PUSH1 0x0 DUP2 PUSH1 0x0 SWAP1 SSTORE POP PUSH1 0x1 ADD PUSH2 0x336 JUMP JUMPDEST POP SWAP1 JUMP JUMPDEST PUSH1 0x0 PUSH2 0x365 PUSH2 0x360 DUP5 PUSH2 0x5E6 JUMP JUMPDEST PUSH2 0x5C1 JUMP JUMPDEST SWAP1 POP DUP3 DUP2 MSTORE PUSH1 0x20 DUP2 ADD DUP5 DUP5 DUP5 ADD GT ISZERO PUSH2 0x381 JUMPI PUSH2 0x380 PUSH2 0x7BA JUMP JUMPDEST JUMPDEST PUSH2 0x38C DUP5 DUP3 DUP6 PUSH2 0x684 JUMP JUMPDEST POP SWAP4 SWAP3 POP POP POP JUMP JUMPDEST PUSH1 0x0 DUP2 MLOAD SWAP1 POP PUSH2 0x3A3 DUP2 PUSH2 0x85F JUMP JUMPDEST SWAP3 SWAP2 POP POP JUMP JUMPDEST PUSH1 0x0 DUP3 PUSH1 0x1F DUP4 ADD SLT PUSH2 0x3BE JUMPI PUSH2 0x3BD PUSH2 0x7B5 JUMP JUMPDEST JUMPDEST DUP2 CALLDATALOAD PUSH2 0x3CE DUP5 DUP3 PUSH1 0x20 DUP7 ADD PUSH2 0x352 JUMP JUMPDEST SWAP2 POP POP SWAP3 SWAP2 POP POP JUMP JUMPDEST PUSH1 0x0 PUSH1 0x20 DUP3 DUP5 SUB SLT ISZERO PUSH2 0x3ED JUMPI PUSH2 0x3EC PUSH2 0x7C4 JUMP JUMPDEST JUMPDEST PUSH1 0x0 PUSH2 0x3FB DUP5 DUP3 DUP6 ADD PUSH2 0x394 JUMP JUMPDEST SWAP2 POP POP SWAP3 SWAP2 POP POP JUMP JUMPDEST PUSH1 0x0 PUSH1 0x20 DUP3 DUP5 SUB SLT ISZERO PUSH2 0x41A JUMPI PUSH2 0x419 PUSH2 0x7C4 JUMP JUMPDEST JUMPDEST PUSH1 0x0 DUP3 ADD CALLDATALOAD PUSH8 0xFFFFFFFFFFFFFFFF DUP2 GT ISZERO PUSH2 0x438 JUMPI PUSH2 0x437 PUSH2 0x7BF JUMP JUMPDEST JUMPDEST PUSH2 0x444 DUP5 DUP3 DUP6 ADD PUSH2 0x3A9 JUMP JUMPDEST SWAP2 POP POP SWAP3 SWAP2 POP POP JUMP JUMPDEST PUSH2 0x45E PUSH2 0x459 DUP3 PUSH2 0x63E JUMP JUMPDEST PUSH2 0x729 JUMP JUMPDEST DUP3 MSTORE POP POP JUMP JUMPDEST PUSH1 0x0 PUSH2 0x46F DUP3 PUSH2 0x617 JUMP JUMPDEST PUSH2 0x479 DUP2 DUP6 PUSH2 0x622 JUMP JUMPDEST SWAP4 POP PUSH2 0x489 DUP2 DUP6 PUSH1 0x20 DUP7 ADD PUSH2 0x693 JUMP JUMPDEST DUP1 DUP5 ADD SWAP2 POP POP SWAP3 SWAP2 POP POP JUMP JUMPDEST PUSH1 0x0 PUSH2 0x4A2 PUSH1 0x12 DUP4 PUSH2 0x62D JUMP JUMPDEST SWAP2 POP PUSH2 0x4AD DUP3 PUSH2 0x7E7 JUMP JUMPDEST PUSH1 0x20 DUP3 ADD SWAP1 POP SWAP2 SWAP1 POP JUMP JUMPDEST PUSH1 0x0 PUSH2 0x4C5 PUSH1 0x28 DUP4 PUSH2 0x62D JUMP JUMPDEST SWAP2 POP PUSH2 0x4D0 DUP3 PUSH2 0x810 JUMP JUMPDEST PUSH1 0x40 DUP3 ADD SWAP1 POP SWAP2 SWAP1 POP JUMP JUMPDEST PUSH2 0x4E4 DUP2 PUSH2 0x67A JUMP JUMPDEST DUP3 MSTORE POP POP JUMP JUMPDEST PUSH2 0x4FB PUSH2 0x4F6 DUP3 PUSH2 0x67A JUMP JUMPDEST PUSH2 0x74D JUMP JUMPDEST DUP3 MSTORE POP POP JUMP JUMPDEST PUSH1 0x0 PUSH2 0x50D DUP3 DUP5 PUSH2 0x464 JUMP JUMPDEST SWAP2 POP DUP2 SWAP1 POP SWAP3 SWAP2 POP POP JUMP JUMPDEST PUSH1 0x0 PUSH2 0x524 DUP3 DUP8 PUSH2 0x4EA JUMP JUMPDEST PUSH1 0x20 DUP3 ADD SWAP2 POP PUSH2 0x534 DUP3 DUP7 PUSH2 0x4EA JUMP JUMPDEST PUSH1 0x20 DUP3 ADD SWAP2 POP PUSH2 0x544 DUP3 DUP6 PUSH2 0x44D JUMP JUMPDEST PUSH1 0x14 DUP3 ADD SWAP2 POP PUSH2 0x554 DUP3 DUP5 PUSH2 0x4EA JUMP JUMPDEST PUSH1 0x20 DUP3 ADD SWAP2 POP DUP2 SWAP1 POP SWAP6 SWAP5 POP POP POP POP POP JUMP JUMPDEST PUSH1 0x0 PUSH1 0x20 DUP3 ADD SWAP1 POP DUP2 DUP2 SUB PUSH1 0x0 DUP4 ADD MSTORE PUSH2 0x57F DUP2 PUSH2 0x495 JUMP JUMPDEST SWAP1 POP SWAP2 SWAP1 POP JUMP JUMPDEST PUSH1 0x0 PUSH1 0x20 DUP3 ADD SWAP1 POP DUP2 DUP2 SUB PUSH1 0x0 DUP4 ADD MSTORE PUSH2 0x59F DUP2 PUSH2 0x4B8 JUMP JUMPDEST SWAP1 POP SWAP2 SWAP1 POP JUMP JUMPDEST PUSH1 0x0 PUSH1 0x20 DUP3 ADD SWAP1 POP PUSH2 0x5BB PUSH1 0x0 DUP4 ADD DUP5 PUSH2 0x4DB JUMP JUMPDEST SWAP3 SWAP2 POP POP JUMP JUMPDEST PUSH1 0x0 PUSH2 0x5CB PUSH2 0x5DC JUMP JUMPDEST SWAP1 POP PUSH2 0x5D7 DUP3 DUP3 PUSH2 0x6F8 JUMP JUMPDEST SWAP2 SWAP1 POP JUMP JUMPDEST PUSH1 0x0 PUSH1 0x40 MLOAD SWAP1 POP SWAP1 JUMP JUMPDEST PUSH1 0x0 PUSH8 0xFFFFFFFFFFFFFFFF DUP3 GT ISZERO PUSH2 0x601 JUMPI PUSH2 0x600 PUSH2 0x786 JUMP JUMPDEST JUMPDEST PUSH2 0x60A DUP3 PUSH2 0x7C9 JUMP JUMPDEST SWAP1 POP PUSH1 0x20 DUP2 ADD SWAP1 POP SWAP2 SWAP1 POP JUMP JUMPDEST PUSH1 0x0 DUP2 MLOAD SWAP1 POP SWAP2 SWAP1 POP JUMP JUMPDEST PUSH1 0x0 DUP2 SWAP1 POP SWAP3 SWAP2 POP POP JUMP JUMPDEST PUSH1 0x0 DUP3 DUP3 MSTORE PUSH1 0x20 DUP3 ADD SWAP1 POP SWAP3 SWAP2 POP POP JUMP JUMPDEST PUSH1 0x0 PUSH2 0x649 DUP3 PUSH2 0x65A JUMP JUMPDEST SWAP1 POP SWAP2 SWAP1 POP JUMP JUMPDEST PUSH1 0x0 DUP2 SWAP1 POP SWAP2 SWAP1 POP JUMP JUMPDEST PUSH1 0x0 PUSH20 0xFFFFFFFFFFFFFFFFFFFFFFFFFFFFFFFFFFFFFFFF DUP3 AND SWAP1 POP SWAP2 SWAP1 POP JUMP JUMPDEST PUSH1 0x0 DUP2 SWAP1 POP SWAP2 SWAP1 POP JUMP JUMPDEST DUP3 DUP2 DUP4 CALLDATACOPY PUSH1 0x0 DUP4 DUP4 ADD MSTORE POP POP POP JUMP JUMPDEST PUSH1 0x0 JUMPDEST DUP4 DUP2 LT ISZERO PUSH2 0x6B1 JUMPI DUP1 DUP3 ADD MLOAD DUP2 DUP5 ADD MSTORE PUSH1 0x20 DUP2 ADD SWAP1 POP PUSH2 0x696 JUMP JUMPDEST DUP4 DUP2 GT ISZERO PUSH2 0x6C0 JUMPI PUSH1 0x0 DUP5 DUP5 ADD MSTORE JUMPDEST POP POP POP POP JUMP JUMPDEST PUSH1 0x0 PUSH1 0x2 DUP3 DIV SWAP1 POP PUSH1 0x1 DUP3 AND DUP1 PUSH2 0x6DE JUMPI PUSH1 0x7F DUP3 AND SWAP2 POP JUMPDEST PUSH1 0x20 DUP3 LT DUP2 EQ ISZERO PUSH2 0x6F2 JUMPI PUSH2 0x6F1 PUSH2 0x757 JUMP JUMPDEST JUMPDEST POP SWAP2 SWAP1 POP JUMP JUMPDEST PUSH2 0x701 DUP3 PUSH2 0x7C9 JUMP JUMPDEST DUP2 ADD DUP2 DUP2 LT PUSH8 0xFFFFFFFFFFFFFFFF DUP3 GT OR ISZERO PUSH2 0x720 JUMPI PUSH2 0x71F PUSH2 0x786 JUMP JUMPDEST JUMPDEST DUP1 PUSH1 0x40 MSTORE POP POP POP JUMP JUMPDEST PUSH1 0x0 PUSH2 0x734 DUP3 PUSH2 0x73B JUMP JUMPDEST SWAP1 POP SWAP2 SWAP1 POP JUMP JUMPDEST PUSH1 0x0 PUSH2 0x746 DUP3 PUSH2 0x7DA JUMP JUMPDEST SWAP1 POP SWAP2 SWAP1 POP JUMP JUMPDEST PUSH1 0x0 DUP2 SWAP1 POP SWAP2 SWAP1 POP JUMP JUMPDEST PUSH32 0x4E487B7100000000000000000000000000000000000000000000000000000000 PUSH1 0x0 MSTORE PUSH1 0x22 PUSH1 0x4 MSTORE PUSH1 0x24 PUSH1 0x0 REVERT JUMPDEST PUSH32 0x4E487B7100000000000000000000000000000000000000000000000000000000 PUSH1 0x0 MSTORE PUSH1 0x41 PUSH1 0x4 MSTORE PUSH1 0x24 PUSH1 0x0 REVERT JUMPDEST PUSH1 0x0 DUP1 REVERT JUMPDEST PUSH1 0x0 DUP1 REVERT JUMPDEST PUSH1 0x0 DUP1 REVERT JUMPDEST PUSH1 0x0 DUP1 REVERT JUMPDEST PUSH1 0x0 PUSH1 0x1F NOT PUSH1 0x1F DUP4 ADD AND SWAP1 POP SWAP2 SWAP1 POP JUMP JUMPDEST PUSH1 0x0 DUP2 PUSH1 0x60 SHL SWAP1 POP SWAP2 SWAP1 POP JUMP JUMPDEST PUSH32 0x416C7265616479205369676E6564207570210000000000000000000000000000 PUSH1 0x0 DUP3 ADD MSTORE POP JUMP JUMPDEST PUSH32 0x5369676E2D75702072656A65637465642120496E616465717561746520737461 PUSH1 0x0 DUP3 ADD MSTORE PUSH32 0x6B652076616C7565000000000000000000000000000000000000000000000000 PUSH1 0x20 DUP3 ADD MSTORE POP JUMP JUMPDEST PUSH2 0x868 DUP2 PUSH2 0x650 JUMP JUMPDEST DUP2 EQ PUSH2 0x873 JUMPI PUSH1 0x0 DUP1 REVERT JUMPDEST POP JUMP INVALID LOG2 PUSH5 0x6970667358 0x22 SLT KECCAK256 0xE7 0x2E 0xF SWAP15 XOR 0xA9 0xB2 0xAB PUSH15 0x9DBFCD2A3056110E3C7E56F9971D5E NOT PUSH21 0x24B31424DED964736F6C6343000807003300000000 "
				},
				"gasEstimates": {
					"creation": {
						"codeDepositCost": "444000",
						"executionCost": "480",
						"totalCost": "444480"
					},
					"external": {
						"request_verification(string)": "infinite",
						"sign_up()": "2694"
					}
				},
				"methodIdentifiers": {
					"request_verification(string)": "969b1567",
					"sign_up()": "c4fb3337"
				}
			},
			"userdoc": {
				"kind": "user",
				"methods": {},
				"version": 1
			}
		}
	}
}