{
	"Desktop/EthCA/blockchain/EthCA.sol": {
		"EthCA": {
			"abi": [
				{
					"inputs": [
						{
							"internalType": "uint256",
							"name": "id",
							"type": "uint256"
						}
					],
					"name": "cancel_signup",
					"outputs": [],
					"stateMutability": "nonpayable",
					"type": "function"
				},
				{
					"inputs": [
						{
							"internalType": "string",
							"name": "domain",
							"type": "string"
						}
					],
					"name": "request_verification",
					"outputs": [
						{
							"internalType": "uint256",
							"name": "",
							"type": "uint256"
						}
					],
					"stateMutability": "payable",
					"type": "function"
				},
				{
					"inputs": [],
					"name": "sign_up",
					"outputs": [
						{
							"internalType": "uint256",
							"name": "",
							"type": "uint256"
						}
					],
					"stateMutability": "payable",
					"type": "function"
				},
				{
					"inputs": [
						{
							"internalType": "uint256",
							"name": "requestID",
							"type": "uint256"
						},
						{
							"internalType": "bool",
							"name": "voteIn",
							"type": "bool"
						}
					],
					"name": "vote",
					"outputs": [],
					"stateMutability": "nonpayable",
					"type": "function"
				}
			],
			"devdoc": {
				"kind": "dev",
				"methods": {},
				"version": 1
			},
			"evm": {
				"assembly": "    /* \"Desktop/EthCA/blockchain/EthCA.sol\":204:3664  contract EthCA {... */\n  mstore(0x40, 0x80)\n  callvalue\n  dup1\n  iszero\n  tag_1\n  jumpi\n  0x00\n  dup1\n  revert\ntag_1:\n  pop\n  dataSize(sub_0)\n  dup1\n  dataOffset(sub_0)\n  0x00\n  codecopy\n  0x00\n  return\nstop\n\nsub_0: assembly {\n        /* \"Desktop/EthCA/blockchain/EthCA.sol\":204:3664  contract EthCA {... */\n      mstore(0x40, 0x80)\n      jumpi(tag_1, lt(calldatasize, 0x04))\n      shr(0xe0, calldataload(0x00))\n      dup1\n      0x969b1567\n      eq\n      tag_2\n      jumpi\n      dup1\n      0xc4fb3337\n      eq\n      tag_3\n      jumpi\n      dup1\n      0xc9d27afe\n      eq\n      tag_4\n      jumpi\n      dup1\n      0xf5c7996c\n      eq\n      tag_5\n      jumpi\n    tag_1:\n      0x00\n      dup1\n      revert\n        /* \"Desktop/EthCA/blockchain/EthCA.sol\":1288:1915  function request_verification(string memory domain) public payable returns (uint) {... */\n    tag_2:\n      tag_6\n      0x04\n      dup1\n      calldatasize\n      sub\n      dup2\n      add\n      swap1\n      tag_7\n      swap2\n      swap1\n      tag_8\n      jump\t// in\n    tag_7:\n      tag_9\n      jump\t// in\n    tag_6:\n      mload(0x40)\n      tag_10\n      swap2\n      swap1\n      tag_11\n      jump\t// in\n    tag_10:\n      mload(0x40)\n      dup1\n      swap2\n      sub\n      swap1\n      return\n        /* \"Desktop/EthCA/blockchain/EthCA.sol\":1920:2357  function sign_up() public payable returns (uint) {... */\n    tag_3:\n      tag_12\n      tag_13\n      jump\t// in\n    tag_12:\n      mload(0x40)\n      tag_14\n      swap2\n      swap1\n      tag_11\n      jump\t// in\n    tag_14:\n      mload(0x40)\n      dup1\n      swap2\n      sub\n      swap1\n      return\n        /* \"Desktop/EthCA/blockchain/EthCA.sol\":2830:3662  function vote(uint requestID, bool voteIn) public {... */\n    tag_4:\n      callvalue\n      dup1\n      iszero\n      tag_15\n      jumpi\n      0x00\n      dup1\n      revert\n    tag_15:\n      pop\n      tag_16\n      0x04\n      dup1\n      calldatasize\n      sub\n      dup2\n      add\n      swap1\n      tag_17\n      swap2\n      swap1\n      tag_18\n      jump\t// in\n    tag_17:\n      tag_19\n      jump\t// in\n    tag_16:\n      stop\n        /* \"Desktop/EthCA/blockchain/EthCA.sol\":2444:2754  function cancel_signup(uint id) public {... */\n    tag_5:\n      callvalue\n      dup1\n      iszero\n      tag_20\n      jumpi\n      0x00\n      dup1\n      revert\n    tag_20:\n      pop\n      tag_21\n      0x04\n      dup1\n      calldatasize\n      sub\n      dup2\n      add\n      swap1\n      tag_22\n      swap2\n      swap1\n      tag_23\n      jump\t// in\n    tag_22:\n      tag_24\n      jump\t// in\n    tag_21:\n      stop\n        /* \"Desktop/EthCA/blockchain/EthCA.sol\":1288:1915  function request_verification(string memory domain) public payable returns (uint) {... */\n    tag_9:\n        /* \"Desktop/EthCA/blockchain/EthCA.sol\":1364:1368  uint */\n      0x00\n        /* \"Desktop/EthCA/blockchain/EthCA.sol\":1401:1409  10 ether */\n      0x8ac7230489e80000\n        /* \"Desktop/EthCA/blockchain/EthCA.sol\":1388:1397  msg.value */\n      callvalue\n        /* \"Desktop/EthCA/blockchain/EthCA.sol\":1388:1409  msg.value >= 10 ether */\n      lt\n      iszero\n        /* \"Desktop/EthCA/blockchain/EthCA.sol\":1380:1410  require(msg.value >= 10 ether) */\n      tag_26\n      jumpi\n      0x00\n      dup1\n      revert\n    tag_26:\n        /* \"Desktop/EthCA/blockchain/EthCA.sol\":1496:1506  uint nonce */\n      0x00\n        /* \"Desktop/EthCA/blockchain/EthCA.sol\":1514:1597  sha256(abi.encodePacked(block.timestamp, block.difficulty, msg.sender, numsignups)) */\n      0x02\n        /* \"Desktop/EthCA/blockchain/EthCA.sol\":1538:1553  block.timestamp */\n      timestamp\n        /* \"Desktop/EthCA/blockchain/EthCA.sol\":1555:1571  block.difficulty */\n      difficulty\n        /* \"Desktop/EthCA/blockchain/EthCA.sol\":1573:1583  msg.sender */\n      caller\n        /* \"Desktop/EthCA/blockchain/EthCA.sol\":1585:1595  numsignups */\n      sload(0x04)\n        /* \"Desktop/EthCA/blockchain/EthCA.sol\":1521:1596  abi.encodePacked(block.timestamp, block.difficulty, msg.sender, numsignups) */\n      add(0x20, mload(0x40))\n      tag_27\n      swap5\n      swap4\n      swap3\n      swap2\n      swap1\n      tag_28\n      jump\t// in\n    tag_27:\n      mload(0x40)\n      0x20\n      dup2\n      dup4\n      sub\n      sub\n      dup2\n      mstore\n      swap1\n      0x40\n      mstore\n        /* \"Desktop/EthCA/blockchain/EthCA.sol\":1514:1597  sha256(abi.encodePacked(block.timestamp, block.difficulty, msg.sender, numsignups)) */\n      mload(0x40)\n      tag_29\n      swap2\n      swap1\n      tag_30\n      jump\t// in\n    tag_29:\n      0x20\n      mload(0x40)\n      dup1\n      dup4\n      sub\n      dup2\n      dup6\n      gas\n      staticcall\n      iszero\n      dup1\n      iszero\n      tag_32\n      jumpi\n      returndatasize\n      0x00\n      dup1\n      returndatacopy\n      revert(0x00, returndatasize)\n    tag_32:\n      pop\n      pop\n      pop\n      mload(0x40)\n      returndatasize\n      not(0x1f)\n      0x1f\n      dup3\n      add\n      and\n      dup3\n      add\n      dup1\n      0x40\n      mstore\n      pop\n      dup2\n      add\n      swap1\n      tag_33\n      swap2\n      swap1\n      tag_34\n      jump\t// in\n    tag_33:\n        /* \"Desktop/EthCA/blockchain/EthCA.sol\":1509:1598  uint(sha256(abi.encodePacked(block.timestamp, block.difficulty, msg.sender, numsignups))) */\n      0x00\n      shr\n        /* \"Desktop/EthCA/blockchain/EthCA.sol\":1496:1598  uint nonce = uint(sha256(abi.encodePacked(block.timestamp, block.difficulty, msg.sender, numsignups))) */\n      swap1\n      pop\n        /* \"Desktop/EthCA/blockchain/EthCA.sol\":1676:1681  nonce */\n      dup1\n        /* \"Desktop/EthCA/blockchain/EthCA.sol\":1646:1654  requests */\n      0x02\n        /* \"Desktop/EthCA/blockchain/EthCA.sol\":1646:1667  requests[numRequests] */\n      0x00\n        /* \"Desktop/EthCA/blockchain/EthCA.sol\":1655:1666  numRequests */\n      sload(0x05)\n        /* \"Desktop/EthCA/blockchain/EthCA.sol\":1646:1667  requests[numRequests] */\n      dup2\n      mstore\n      0x20\n      add\n      swap1\n      dup2\n      mstore\n      0x20\n      add\n      0x00\n      keccak256\n        /* \"Desktop/EthCA/blockchain/EthCA.sol\":1646:1673  requests[numRequests].nonce */\n      0x01\n      add\n        /* \"Desktop/EthCA/blockchain/EthCA.sol\":1646:1681  requests[numRequests].nonce = nonce */\n      dup2\n      swap1\n      sstore\n      pop\n        /* \"Desktop/EthCA/blockchain/EthCA.sol\":1718:1729  numRequests */\n      sload(0x05)\n        /* \"Desktop/EthCA/blockchain/EthCA.sol\":1691:1699  requests */\n      0x02\n        /* \"Desktop/EthCA/blockchain/EthCA.sol\":1691:1712  requests[numRequests] */\n      0x00\n        /* \"Desktop/EthCA/blockchain/EthCA.sol\":1700:1711  numRequests */\n      sload(0x05)\n        /* \"Desktop/EthCA/blockchain/EthCA.sol\":1691:1712  requests[numRequests] */\n      dup2\n      mstore\n      0x20\n      add\n      swap1\n      dup2\n      mstore\n      0x20\n      add\n      0x00\n      keccak256\n        /* \"Desktop/EthCA/blockchain/EthCA.sol\":1691:1715  requests[numRequests].id */\n      0x00\n      add\n        /* \"Desktop/EthCA/blockchain/EthCA.sol\":1691:1729  requests[numRequests].id = numRequests */\n      dup2\n      swap1\n      sstore\n      pop\n        /* \"Desktop/EthCA/blockchain/EthCA.sol\":1770:1780  msg.sender */\n      caller\n        /* \"Desktop/EthCA/blockchain/EthCA.sol\":1739:1747  requests */\n      0x02\n        /* \"Desktop/EthCA/blockchain/EthCA.sol\":1739:1760  requests[numRequests] */\n      0x00\n        /* \"Desktop/EthCA/blockchain/EthCA.sol\":1748:1759  numRequests */\n      sload(0x05)\n        /* \"Desktop/EthCA/blockchain/EthCA.sol\":1739:1760  requests[numRequests] */\n      dup2\n      mstore\n      0x20\n      add\n      swap1\n      dup2\n      mstore\n      0x20\n      add\n      0x00\n      keccak256\n        /* \"Desktop/EthCA/blockchain/EthCA.sol\":1739:1767  requests[numRequests].sender */\n      0x04\n      add\n      0x00\n        /* \"Desktop/EthCA/blockchain/EthCA.sol\":1739:1780  requests[numRequests].sender = msg.sender */\n      0x0100\n      exp\n      dup2\n      sload\n      dup2\n      0xffffffffffffffffffffffffffffffffffffffff\n      mul\n      not\n      and\n      swap1\n      dup4\n      0xffffffffffffffffffffffffffffffffffffffff\n      and\n      mul\n      or\n      swap1\n      sstore\n      pop\n        /* \"Desktop/EthCA/blockchain/EthCA.sol\":1821:1827  domain */\n      dup3\n        /* \"Desktop/EthCA/blockchain/EthCA.sol\":1790:1798  requests */\n      0x02\n        /* \"Desktop/EthCA/blockchain/EthCA.sol\":1790:1811  requests[numRequests] */\n      0x00\n        /* \"Desktop/EthCA/blockchain/EthCA.sol\":1799:1810  numRequests */\n      sload(0x05)\n        /* \"Desktop/EthCA/blockchain/EthCA.sol\":1790:1811  requests[numRequests] */\n      dup2\n      mstore\n      0x20\n      add\n      swap1\n      dup2\n      mstore\n      0x20\n      add\n      0x00\n      keccak256\n        /* \"Desktop/EthCA/blockchain/EthCA.sol\":1790:1818  requests[numRequests].domain */\n      0x03\n      add\n        /* \"Desktop/EthCA/blockchain/EthCA.sol\":1790:1827  requests[numRequests].domain = domain */\n      swap1\n      dup1\n      mload\n      swap1\n      0x20\n      add\n      swap1\n      tag_35\n      swap3\n      swap2\n      swap1\n      tag_36\n      jump\t// in\n    tag_35:\n      pop\n        /* \"Desktop/EthCA/blockchain/EthCA.sol\":1877:1906  chooseValidators(numRequests) */\n      tag_37\n        /* \"Desktop/EthCA/blockchain/EthCA.sol\":1894:1905  numRequests */\n      sload(0x05)\n        /* \"Desktop/EthCA/blockchain/EthCA.sol\":1877:1893  chooseValidators */\n      tag_38\n        /* \"Desktop/EthCA/blockchain/EthCA.sol\":1877:1906  chooseValidators(numRequests) */\n      jump\t// in\n    tag_37:\n        /* \"Desktop/EthCA/blockchain/EthCA.sol\":1370:1915  {... */\n      pop\n        /* \"Desktop/EthCA/blockchain/EthCA.sol\":1288:1915  function request_verification(string memory domain) public payable returns (uint) {... */\n      swap2\n      swap1\n      pop\n      jump\t// out\n        /* \"Desktop/EthCA/blockchain/EthCA.sol\":1920:2357  function sign_up() public payable returns (uint) {... */\n    tag_13:\n        /* \"Desktop/EthCA/blockchain/EthCA.sol\":1963:1967  uint */\n      0x00\n        /* \"Desktop/EthCA/blockchain/EthCA.sol\":2050:2057  1 ether */\n      0x0de0b6b3a7640000\n        /* \"Desktop/EthCA/blockchain/EthCA.sol\":2037:2046  msg.value */\n      callvalue\n        /* \"Desktop/EthCA/blockchain/EthCA.sol\":2037:2057  msg.value == 1 ether */\n      eq\n        /* \"Desktop/EthCA/blockchain/EthCA.sol\":2029:2102  require(msg.value == 1 ether, \"Sign-up rejected! Inadequate stake value\") */\n      tag_40\n      jumpi\n      mload(0x40)\n      0x08c379a000000000000000000000000000000000000000000000000000000000\n      dup2\n      mstore\n      0x04\n      add\n      tag_41\n      swap1\n      tag_42\n      jump\t// in\n    tag_41:\n      mload(0x40)\n      dup1\n      swap2\n      sub\n      swap1\n      revert\n    tag_40:\n        /* \"Desktop/EthCA/blockchain/EthCA.sol\":2203:2208  false */\n      0x00\n        /* \"Desktop/EthCA/blockchain/EthCA.sol\":2179:2208  signedup[msg.sender] == false */\n      iszero\n      iszero\n        /* \"Desktop/EthCA/blockchain/EthCA.sol\":2179:2187  signedup */\n      0x01\n        /* \"Desktop/EthCA/blockchain/EthCA.sol\":2179:2199  signedup[msg.sender] */\n      0x00\n        /* \"Desktop/EthCA/blockchain/EthCA.sol\":2188:2198  msg.sender */\n      caller\n        /* \"Desktop/EthCA/blockchain/EthCA.sol\":2179:2199  signedup[msg.sender] */\n      0xffffffffffffffffffffffffffffffffffffffff\n      and\n      0xffffffffffffffffffffffffffffffffffffffff\n      and\n      dup2\n      mstore\n      0x20\n      add\n      swap1\n      dup2\n      mstore\n      0x20\n      add\n      0x00\n      keccak256\n      0x00\n      swap1\n      sload\n      swap1\n      0x0100\n      exp\n      swap1\n      div\n      0xff\n      and\n        /* \"Desktop/EthCA/blockchain/EthCA.sol\":2179:2208  signedup[msg.sender] == false */\n      iszero\n      iszero\n      eq\n        /* \"Desktop/EthCA/blockchain/EthCA.sol\":2171:2231  require(signedup[msg.sender] == false, \"Already signed up!\") */\n      tag_43\n      jumpi\n      mload(0x40)\n      0x08c379a000000000000000000000000000000000000000000000000000000000\n      dup2\n      mstore\n      0x04\n      add\n      tag_44\n      swap1\n      tag_45\n      jump\t// in\n    tag_44:\n      mload(0x40)\n      dup1\n      swap2\n      sub\n      swap1\n      revert\n    tag_43:\n        /* \"Desktop/EthCA/blockchain/EthCA.sol\":2271:2281  msg.sender */\n      caller\n        /* \"Desktop/EthCA/blockchain/EthCA.sol\":2241:2248  signups */\n      0x00\n        /* \"Desktop/EthCA/blockchain/EthCA.sol\":2249:2259  numsignups */\n      sload(0x04)\n        /* \"Desktop/EthCA/blockchain/EthCA.sol\":2241:2260  signups[numsignups] */\n      dup2\n      sload\n      dup2\n      lt\n      tag_46\n      jumpi\n      tag_47\n      tag_48\n      jump\t// in\n    tag_47:\n    tag_46:\n      swap1\n      0x00\n      mstore\n      keccak256(0x00, 0x20)\n      add\n      0x00\n        /* \"Desktop/EthCA/blockchain/EthCA.sol\":2241:2282  signups[numsignups] = payable(msg.sender) */\n      0x0100\n      exp\n      dup2\n      sload\n      dup2\n      0xffffffffffffffffffffffffffffffffffffffff\n      mul\n      not\n      and\n      swap1\n      dup4\n      0xffffffffffffffffffffffffffffffffffffffff\n      and\n      mul\n      or\n      swap1\n      sstore\n      pop\n        /* \"Desktop/EthCA/blockchain/EthCA.sol\":2318:2319  1 */\n      0x01\n        /* \"Desktop/EthCA/blockchain/EthCA.sol\":2305:2315  numsignups */\n      sload(0x04)\n        /* \"Desktop/EthCA/blockchain/EthCA.sol\":2305:2319  numsignups + 1 */\n      tag_50\n      swap2\n      swap1\n      tag_51\n      jump\t// in\n    tag_50:\n        /* \"Desktop/EthCA/blockchain/EthCA.sol\":2292:2302  numsignups */\n      0x04\n        /* \"Desktop/EthCA/blockchain/EthCA.sol\":2292:2319  numsignups = numsignups + 1 */\n      dup2\n      swap1\n      sstore\n      pop\n        /* \"Desktop/EthCA/blockchain/EthCA.sol\":2349:2350  1 */\n      0x01\n        /* \"Desktop/EthCA/blockchain/EthCA.sol\":2336:2346  numsignups */\n      sload(0x04)\n        /* \"Desktop/EthCA/blockchain/EthCA.sol\":2336:2350  numsignups - 1 */\n      tag_52\n      swap2\n      swap1\n      tag_53\n      jump\t// in\n    tag_52:\n        /* \"Desktop/EthCA/blockchain/EthCA.sol\":2329:2350  return numsignups - 1 */\n      swap1\n      pop\n        /* \"Desktop/EthCA/blockchain/EthCA.sol\":1920:2357  function sign_up() public payable returns (uint) {... */\n      swap1\n      jump\t// out\n        /* \"Desktop/EthCA/blockchain/EthCA.sol\":2830:3662  function vote(uint requestID, bool voteIn) public {... */\n    tag_19:\n        /* \"Desktop/EthCA/blockchain/EthCA.sol\":3020:3024  true */\n      0x01\n        /* \"Desktop/EthCA/blockchain/EthCA.sol\":2974:3024  requests[requestID].validators[msg.sender] == true */\n      iszero\n      iszero\n        /* \"Desktop/EthCA/blockchain/EthCA.sol\":2974:2982  requests */\n      0x02\n        /* \"Desktop/EthCA/blockchain/EthCA.sol\":2974:2993  requests[requestID] */\n      0x00\n        /* \"Desktop/EthCA/blockchain/EthCA.sol\":2983:2992  requestID */\n      dup5\n        /* \"Desktop/EthCA/blockchain/EthCA.sol\":2974:2993  requests[requestID] */\n      dup2\n      mstore\n      0x20\n      add\n      swap1\n      dup2\n      mstore\n      0x20\n      add\n      0x00\n      keccak256\n        /* \"Desktop/EthCA/blockchain/EthCA.sol\":2974:3004  requests[requestID].validators */\n      0x02\n      add\n        /* \"Desktop/EthCA/blockchain/EthCA.sol\":2974:3016  requests[requestID].validators[msg.sender] */\n      0x00\n        /* \"Desktop/EthCA/blockchain/EthCA.sol\":3005:3015  msg.sender */\n      caller\n        /* \"Desktop/EthCA/blockchain/EthCA.sol\":2974:3016  requests[requestID].validators[msg.sender] */\n      0xffffffffffffffffffffffffffffffffffffffff\n      and\n      0xffffffffffffffffffffffffffffffffffffffff\n      and\n      dup2\n      mstore\n      0x20\n      add\n      swap1\n      dup2\n      mstore\n      0x20\n      add\n      0x00\n      keccak256\n      0x00\n      swap1\n      sload\n      swap1\n      0x0100\n      exp\n      swap1\n      div\n      0xff\n      and\n        /* \"Desktop/EthCA/blockchain/EthCA.sol\":2974:3024  requests[requestID].validators[msg.sender] == true */\n      iszero\n      iszero\n      eq\n        /* \"Desktop/EthCA/blockchain/EthCA.sol\":2966:3062  require(requests[requestID].validators[msg.sender] == true, \"Not a validator for this request!\") */\n      tag_55\n      jumpi\n      mload(0x40)\n      0x08c379a000000000000000000000000000000000000000000000000000000000\n      dup2\n      mstore\n      0x04\n      add\n      tag_56\n      swap1\n      tag_57\n      jump\t// in\n    tag_56:\n      mload(0x40)\n      dup1\n      swap2\n      sub\n      swap1\n      revert\n    tag_55:\n        /* \"Desktop/EthCA/blockchain/EthCA.sol\":3138:3146  requests */\n      0x02\n        /* \"Desktop/EthCA/blockchain/EthCA.sol\":3138:3157  requests[requestID] */\n      0x00\n        /* \"Desktop/EthCA/blockchain/EthCA.sol\":3147:3156  requestID */\n      dup4\n        /* \"Desktop/EthCA/blockchain/EthCA.sol\":3138:3157  requests[requestID] */\n      dup2\n      mstore\n      0x20\n      add\n      swap1\n      dup2\n      mstore\n      0x20\n      add\n      0x00\n      keccak256\n        /* \"Desktop/EthCA/blockchain/EthCA.sol\":3138:3166  requests[requestID].deadline */\n      0x09\n      add\n      sload\n        /* \"Desktop/EthCA/blockchain/EthCA.sol\":3123:3135  block.number */\n      number\n        /* \"Desktop/EthCA/blockchain/EthCA.sol\":3123:3166  block.number < requests[requestID].deadline */\n      lt\n        /* \"Desktop/EthCA/blockchain/EthCA.sol\":3115:3188  require(block.number < requests[requestID].deadline, \"Voting has closed\") */\n      tag_58\n      jumpi\n      mload(0x40)\n      0x08c379a000000000000000000000000000000000000000000000000000000000\n      dup2\n      mstore\n      0x04\n      add\n      tag_59\n      swap1\n      tag_60\n      jump\t// in\n    tag_59:\n      mload(0x40)\n      dup1\n      swap2\n      sub\n      swap1\n      revert\n    tag_58:\n        /* \"Desktop/EthCA/blockchain/EthCA.sol\":3220:3226  voteIn */\n      dup1\n        /* \"Desktop/EthCA/blockchain/EthCA.sol\":3217:3408  if(voteIn) {... */\n      iszero\n      tag_61\n      jumpi\n        /* \"Desktop/EthCA/blockchain/EthCA.sol\":3304:3305  1 */\n      0x01\n        /* \"Desktop/EthCA/blockchain/EthCA.sol\":3273:3281  requests */\n      0x02\n        /* \"Desktop/EthCA/blockchain/EthCA.sol\":3273:3292  requests[requestID] */\n      0x00\n        /* \"Desktop/EthCA/blockchain/EthCA.sol\":3282:3291  requestID */\n      dup5\n        /* \"Desktop/EthCA/blockchain/EthCA.sol\":3273:3292  requests[requestID] */\n      dup2\n      mstore\n      0x20\n      add\n      swap1\n      dup2\n      mstore\n      0x20\n      add\n      0x00\n      keccak256\n        /* \"Desktop/EthCA/blockchain/EthCA.sol\":3273:3301  requests[requestID].yesVotes */\n      0x07\n      add\n      sload\n        /* \"Desktop/EthCA/blockchain/EthCA.sol\":3273:3305  requests[requestID].yesVotes + 1 */\n      tag_62\n      swap2\n      swap1\n      tag_51\n      jump\t// in\n    tag_62:\n        /* \"Desktop/EthCA/blockchain/EthCA.sol\":3242:3250  requests */\n      0x02\n        /* \"Desktop/EthCA/blockchain/EthCA.sol\":3242:3261  requests[requestID] */\n      0x00\n        /* \"Desktop/EthCA/blockchain/EthCA.sol\":3251:3260  requestID */\n      dup5\n        /* \"Desktop/EthCA/blockchain/EthCA.sol\":3242:3261  requests[requestID] */\n      dup2\n      mstore\n      0x20\n      add\n      swap1\n      dup2\n      mstore\n      0x20\n      add\n      0x00\n      keccak256\n        /* \"Desktop/EthCA/blockchain/EthCA.sol\":3242:3270  requests[requestID].yesVotes */\n      0x07\n      add\n        /* \"Desktop/EthCA/blockchain/EthCA.sol\":3242:3305  requests[requestID].yesVotes = requests[requestID].yesVotes + 1 */\n      dup2\n      swap1\n      sstore\n      pop\n        /* \"Desktop/EthCA/blockchain/EthCA.sol\":3217:3408  if(voteIn) {... */\n      jump(tag_63)\n    tag_61:\n        /* \"Desktop/EthCA/blockchain/EthCA.sol\":3396:3397  1 */\n      0x01\n        /* \"Desktop/EthCA/blockchain/EthCA.sol\":3366:3374  requests */\n      0x02\n        /* \"Desktop/EthCA/blockchain/EthCA.sol\":3366:3385  requests[requestID] */\n      0x00\n        /* \"Desktop/EthCA/blockchain/EthCA.sol\":3375:3384  requestID */\n      dup5\n        /* \"Desktop/EthCA/blockchain/EthCA.sol\":3366:3385  requests[requestID] */\n      dup2\n      mstore\n      0x20\n      add\n      swap1\n      dup2\n      mstore\n      0x20\n      add\n      0x00\n      keccak256\n        /* \"Desktop/EthCA/blockchain/EthCA.sol\":3366:3393  requests[requestID].noVotes */\n      0x08\n      add\n      sload\n        /* \"Desktop/EthCA/blockchain/EthCA.sol\":3366:3397  requests[requestID].noVotes + 1 */\n      tag_64\n      swap2\n      swap1\n      tag_51\n      jump\t// in\n    tag_64:\n        /* \"Desktop/EthCA/blockchain/EthCA.sol\":3336:3344  requests */\n      0x02\n        /* \"Desktop/EthCA/blockchain/EthCA.sol\":3336:3355  requests[requestID] */\n      0x00\n        /* \"Desktop/EthCA/blockchain/EthCA.sol\":3345:3354  requestID */\n      dup5\n        /* \"Desktop/EthCA/blockchain/EthCA.sol\":3336:3355  requests[requestID] */\n      dup2\n      mstore\n      0x20\n      add\n      swap1\n      dup2\n      mstore\n      0x20\n      add\n      0x00\n      keccak256\n        /* \"Desktop/EthCA/blockchain/EthCA.sol\":3336:3363  requests[requestID].noVotes */\n      0x08\n      add\n        /* \"Desktop/EthCA/blockchain/EthCA.sol\":3336:3397  requests[requestID].noVotes = requests[requestID].noVotes + 1 */\n      dup2\n      swap1\n      sstore\n      pop\n        /* \"Desktop/EthCA/blockchain/EthCA.sol\":3217:3408  if(voteIn) {... */\n    tag_63:\n        /* \"Desktop/EthCA/blockchain/EthCA.sol\":3467:3477  msg.sender */\n      caller\n        /* \"Desktop/EthCA/blockchain/EthCA.sol\":3459:3487  payable(msg.sender).transfer */\n      0xffffffffffffffffffffffffffffffffffffffff\n      and\n        /* \"Desktop/EthCA/blockchain/EthCA.sol\":3459:3525  payable(msg.sender).transfer(1 ether + requests[requestID].reward) */\n      0x08fc\n        /* \"Desktop/EthCA/blockchain/EthCA.sol\":3498:3506  requests */\n      0x02\n        /* \"Desktop/EthCA/blockchain/EthCA.sol\":3498:3517  requests[requestID] */\n      0x00\n        /* \"Desktop/EthCA/blockchain/EthCA.sol\":3507:3516  requestID */\n      dup6\n        /* \"Desktop/EthCA/blockchain/EthCA.sol\":3498:3517  requests[requestID] */\n      dup2\n      mstore\n      0x20\n      add\n      swap1\n      dup2\n      mstore\n      0x20\n      add\n      0x00\n      keccak256\n        /* \"Desktop/EthCA/blockchain/EthCA.sol\":3498:3524  requests[requestID].reward */\n      0x05\n      add\n      sload\n        /* \"Desktop/EthCA/blockchain/EthCA.sol\":3488:3495  1 ether */\n      0x0de0b6b3a7640000\n        /* \"Desktop/EthCA/blockchain/EthCA.sol\":3488:3524  1 ether + requests[requestID].reward */\n      tag_65\n      swap2\n      swap1\n      tag_51\n      jump\t// in\n    tag_65:\n        /* \"Desktop/EthCA/blockchain/EthCA.sol\":3459:3525  payable(msg.sender).transfer(1 ether + requests[requestID].reward) */\n      swap1\n      dup2\n      iszero\n      mul\n      swap1\n      mload(0x40)\n      0x00\n      mload(0x40)\n      dup1\n      dup4\n      sub\n      dup2\n      dup6\n      dup9\n      dup9\n      call\n      swap4\n      pop\n      pop\n      pop\n      pop\n      iszero\n      dup1\n      iszero\n      tag_67\n      jumpi\n      returndatasize\n      0x00\n      dup1\n      returndatacopy\n      revert(0x00, returndatasize)\n    tag_67:\n      pop\n        /* \"Desktop/EthCA/blockchain/EthCA.sol\":3650:3655  false */\n      0x00\n        /* \"Desktop/EthCA/blockchain/EthCA.sol\":3604:3655  requests[requestID].validators[msg.sender] == false */\n      iszero\n      iszero\n        /* \"Desktop/EthCA/blockchain/EthCA.sol\":3604:3612  requests */\n      0x02\n        /* \"Desktop/EthCA/blockchain/EthCA.sol\":3604:3623  requests[requestID] */\n      0x00\n        /* \"Desktop/EthCA/blockchain/EthCA.sol\":3613:3622  requestID */\n      dup5\n        /* \"Desktop/EthCA/blockchain/EthCA.sol\":3604:3623  requests[requestID] */\n      dup2\n      mstore\n      0x20\n      add\n      swap1\n      dup2\n      mstore\n      0x20\n      add\n      0x00\n      keccak256\n        /* \"Desktop/EthCA/blockchain/EthCA.sol\":3604:3634  requests[requestID].validators */\n      0x02\n      add\n        /* \"Desktop/EthCA/blockchain/EthCA.sol\":3604:3646  requests[requestID].validators[msg.sender] */\n      0x00\n        /* \"Desktop/EthCA/blockchain/EthCA.sol\":3635:3645  msg.sender */\n      caller\n        /* \"Desktop/EthCA/blockchain/EthCA.sol\":3604:3646  requests[requestID].validators[msg.sender] */\n      0xffffffffffffffffffffffffffffffffffffffff\n      and\n      0xffffffffffffffffffffffffffffffffffffffff\n      and\n      dup2\n      mstore\n      0x20\n      add\n      swap1\n      dup2\n      mstore\n      0x20\n      add\n      0x00\n      keccak256\n      0x00\n      swap1\n      sload\n      swap1\n      0x0100\n      exp\n      swap1\n      pop\n      pop\n        /* \"Desktop/EthCA/blockchain/EthCA.sol\":3604:3655  requests[requestID].validators[msg.sender] == false */\n      pop\n        /* \"Desktop/EthCA/blockchain/EthCA.sol\":2830:3662  function vote(uint requestID, bool voteIn) public {... */\n      pop\n      pop\n      jump\t// out\n        /* \"Desktop/EthCA/blockchain/EthCA.sol\":2444:2754  function cancel_signup(uint id) public {... */\n    tag_24:\n        /* \"Desktop/EthCA/blockchain/EthCA.sol\":2516:2526  msg.sender */\n      caller\n        /* \"Desktop/EthCA/blockchain/EthCA.sol\":2501:2526  signups[id] == msg.sender */\n      0xffffffffffffffffffffffffffffffffffffffff\n      and\n        /* \"Desktop/EthCA/blockchain/EthCA.sol\":2501:2508  signups */\n      0x00\n        /* \"Desktop/EthCA/blockchain/EthCA.sol\":2509:2511  id */\n      dup3\n        /* \"Desktop/EthCA/blockchain/EthCA.sol\":2501:2512  signups[id] */\n      dup2\n      sload\n      dup2\n      lt\n      tag_69\n      jumpi\n      tag_70\n      tag_48\n      jump\t// in\n    tag_70:\n    tag_69:\n      swap1\n      0x00\n      mstore\n      keccak256(0x00, 0x20)\n      add\n      0x00\n      swap1\n      sload\n      swap1\n      0x0100\n      exp\n      swap1\n      div\n      0xffffffffffffffffffffffffffffffffffffffff\n      and\n        /* \"Desktop/EthCA/blockchain/EthCA.sol\":2501:2526  signups[id] == msg.sender */\n      0xffffffffffffffffffffffffffffffffffffffff\n      and\n      eq\n        /* \"Desktop/EthCA/blockchain/EthCA.sol\":2493:2561  require(signups[id] == msg.sender, \"ID doesn't match your address!\") */\n      tag_72\n      jumpi\n      mload(0x40)\n      0x08c379a000000000000000000000000000000000000000000000000000000000\n      dup2\n      mstore\n      0x04\n      add\n      tag_73\n      swap1\n      tag_74\n      jump\t// in\n    tag_73:\n      mload(0x40)\n      dup1\n      swap2\n      sub\n      swap1\n      revert\n    tag_72:\n        /* \"Desktop/EthCA/blockchain/EthCA.sol\":2603:2607  true */\n      0x01\n        /* \"Desktop/EthCA/blockchain/EthCA.sol\":2579:2607  signedup[msg.sender] == true */\n      iszero\n      iszero\n        /* \"Desktop/EthCA/blockchain/EthCA.sol\":2579:2587  signedup */\n      0x01\n        /* \"Desktop/EthCA/blockchain/EthCA.sol\":2579:2599  signedup[msg.sender] */\n      0x00\n        /* \"Desktop/EthCA/blockchain/EthCA.sol\":2588:2598  msg.sender */\n      caller\n        /* \"Desktop/EthCA/blockchain/EthCA.sol\":2579:2599  signedup[msg.sender] */\n      0xffffffffffffffffffffffffffffffffffffffff\n      and\n      0xffffffffffffffffffffffffffffffffffffffff\n      and\n      dup2\n      mstore\n      0x20\n      add\n      swap1\n      dup2\n      mstore\n      0x20\n      add\n      0x00\n      keccak256\n      0x00\n      swap1\n      sload\n      swap1\n      0x0100\n      exp\n      swap1\n      div\n      0xff\n      and\n        /* \"Desktop/EthCA/blockchain/EthCA.sol\":2579:2607  signedup[msg.sender] == true */\n      iszero\n      iszero\n      eq\n        /* \"Desktop/EthCA/blockchain/EthCA.sol\":2571:2626  require(signedup[msg.sender] == true, \"Not signed up!\") */\n      tag_75\n      jumpi\n      mload(0x40)\n      0x08c379a000000000000000000000000000000000000000000000000000000000\n      dup2\n      mstore\n      0x04\n      add\n      tag_76\n      swap1\n      tag_77\n      jump\t// in\n    tag_76:\n      mload(0x40)\n      dup1\n      swap2\n      sub\n      swap1\n      revert\n    tag_75:\n        /* \"Desktop/EthCA/blockchain/EthCA.sol\":2660:2665  false */\n      0x00\n        /* \"Desktop/EthCA/blockchain/EthCA.sol\":2636:2665  signedup[msg.sender] == false */\n      iszero\n      iszero\n        /* \"Desktop/EthCA/blockchain/EthCA.sol\":2636:2644  signedup */\n      0x01\n        /* \"Desktop/EthCA/blockchain/EthCA.sol\":2636:2656  signedup[msg.sender] */\n      0x00\n        /* \"Desktop/EthCA/blockchain/EthCA.sol\":2645:2655  msg.sender */\n      caller\n        /* \"Desktop/EthCA/blockchain/EthCA.sol\":2636:2656  signedup[msg.sender] */\n      0xffffffffffffffffffffffffffffffffffffffff\n      and\n      0xffffffffffffffffffffffffffffffffffffffff\n      and\n      dup2\n      mstore\n      0x20\n      add\n      swap1\n      dup2\n      mstore\n      0x20\n      add\n      0x00\n      keccak256\n      0x00\n      swap1\n      sload\n      swap1\n      0x0100\n      exp\n      swap1\n      pop\n      pop\n        /* \"Desktop/EthCA/blockchain/EthCA.sol\":2636:2665  signedup[msg.sender] == false */\n      pop\n        /* \"Desktop/EthCA/blockchain/EthCA.sol\":2698:2699  0 */\n      0x00\n        /* \"Desktop/EthCA/blockchain/EthCA.sol\":2675:2700  signups[id] == address(0) */\n      0xffffffffffffffffffffffffffffffffffffffff\n      and\n        /* \"Desktop/EthCA/blockchain/EthCA.sol\":2675:2682  signups */\n      0x00\n        /* \"Desktop/EthCA/blockchain/EthCA.sol\":2683:2685  id */\n      dup3\n        /* \"Desktop/EthCA/blockchain/EthCA.sol\":2675:2686  signups[id] */\n      dup2\n      sload\n      dup2\n      lt\n      tag_78\n      jumpi\n      tag_79\n      tag_48\n      jump\t// in\n    tag_79:\n    tag_78:\n      swap1\n      0x00\n      mstore\n      keccak256(0x00, 0x20)\n      add\n      0x00\n      swap1\n      sload\n      swap1\n      0x0100\n      exp\n      swap1\n      pop\n      pop\n        /* \"Desktop/EthCA/blockchain/EthCA.sol\":2675:2700  signups[id] == address(0) */\n      pop\n        /* \"Desktop/EthCA/blockchain/EthCA.sol\":2718:2728  msg.sender */\n      caller\n        /* \"Desktop/EthCA/blockchain/EthCA.sol\":2710:2738  payable(msg.sender).transfer */\n      0xffffffffffffffffffffffffffffffffffffffff\n      and\n        /* \"Desktop/EthCA/blockchain/EthCA.sol\":2710:2747  payable(msg.sender).transfer(1 ether) */\n      0x08fc\n        /* \"Desktop/EthCA/blockchain/EthCA.sol\":2739:2746  1 ether */\n      0x0de0b6b3a7640000\n        /* \"Desktop/EthCA/blockchain/EthCA.sol\":2710:2747  payable(msg.sender).transfer(1 ether) */\n      swap1\n      dup2\n      iszero\n      mul\n      swap1\n      mload(0x40)\n      0x00\n      mload(0x40)\n      dup1\n      dup4\n      sub\n      dup2\n      dup6\n      dup9\n      dup9\n      call\n      swap4\n      pop\n      pop\n      pop\n      pop\n      iszero\n      dup1\n      iszero\n      tag_82\n      jumpi\n      returndatasize\n      0x00\n      dup1\n      returndatacopy\n      revert(0x00, returndatasize)\n    tag_82:\n      pop\n        /* \"Desktop/EthCA/blockchain/EthCA.sol\":2444:2754  function cancel_signup(uint id) public {... */\n      pop\n      jump\t// out\n        /* \"Desktop/EthCA/blockchain/EthCA.sol\":1019:1160  function chooseValidators(uint id) private {... */\n    tag_38:\n        /* \"Desktop/EthCA/blockchain/EthCA.sol\":1072:1082  uint index */\n      0x00\n        /* \"Desktop/EthCA/blockchain/EthCA.sol\":1130:1137  signups */\n      dup1\n        /* \"Desktop/EthCA/blockchain/EthCA.sol\":1130:1144  signups.length */\n      dup1\n      sload\n      swap1\n      pop\n        /* \"Desktop/EthCA/blockchain/EthCA.sol\":1090:1126  sha256(abi.encodePacked(numsignups)) */\n      0x02\n        /* \"Desktop/EthCA/blockchain/EthCA.sol\":1114:1124  numsignups */\n      sload(0x04)\n        /* \"Desktop/EthCA/blockchain/EthCA.sol\":1097:1125  abi.encodePacked(numsignups) */\n      add(0x20, mload(0x40))\n      tag_84\n      swap2\n      swap1\n      tag_85\n      jump\t// in\n    tag_84:\n      mload(0x40)\n      0x20\n      dup2\n      dup4\n      sub\n      sub\n      dup2\n      mstore\n      swap1\n      0x40\n      mstore\n        /* \"Desktop/EthCA/blockchain/EthCA.sol\":1090:1126  sha256(abi.encodePacked(numsignups)) */\n      mload(0x40)\n      tag_86\n      swap2\n      swap1\n      tag_30\n      jump\t// in\n    tag_86:\n      0x20\n      mload(0x40)\n      dup1\n      dup4\n      sub\n      dup2\n      dup6\n      gas\n      staticcall\n      iszero\n      dup1\n      iszero\n      tag_88\n      jumpi\n      returndatasize\n      0x00\n      dup1\n      returndatacopy\n      revert(0x00, returndatasize)\n    tag_88:\n      pop\n      pop\n      pop\n      mload(0x40)\n      returndatasize\n      not(0x1f)\n      0x1f\n      dup3\n      add\n      and\n      dup3\n      add\n      dup1\n      0x40\n      mstore\n      pop\n      dup2\n      add\n      swap1\n      tag_89\n      swap2\n      swap1\n      tag_34\n      jump\t// in\n    tag_89:\n        /* \"Desktop/EthCA/blockchain/EthCA.sol\":1085:1127  uint(sha256(abi.encodePacked(numsignups))) */\n      0x00\n      shr\n        /* \"Desktop/EthCA/blockchain/EthCA.sol\":1085:1144  uint(sha256(abi.encodePacked(numsignups))) % signups.length */\n      tag_90\n      swap2\n      swap1\n      tag_91\n      jump\t// in\n    tag_90:\n        /* \"Desktop/EthCA/blockchain/EthCA.sol\":1072:1144  uint index = uint(sha256(abi.encodePacked(numsignups))) % signups.length */\n      swap1\n      pop\n        /* \"Desktop/EthCA/blockchain/EthCA.sol\":1062:1160  {... */\n      pop\n        /* \"Desktop/EthCA/blockchain/EthCA.sol\":1019:1160  function chooseValidators(uint id) private {... */\n      pop\n      jump\t// out\n    tag_36:\n      dup3\n      dup1\n      sload\n      tag_92\n      swap1\n      tag_93\n      jump\t// in\n    tag_92:\n      swap1\n      0x00\n      mstore\n      keccak256(0x00, 0x20)\n      swap1\n      0x1f\n      add\n      0x20\n      swap1\n      div\n      dup2\n      add\n      swap3\n      dup3\n      tag_95\n      jumpi\n      0x00\n      dup6\n      sstore\n      jump(tag_94)\n    tag_95:\n      dup3\n      0x1f\n      lt\n      tag_96\n      jumpi\n      dup1\n      mload\n      not(0xff)\n      and\n      dup4\n      dup1\n      add\n      or\n      dup6\n      sstore\n      jump(tag_94)\n    tag_96:\n      dup3\n      dup1\n      add\n      0x01\n      add\n      dup6\n      sstore\n      dup3\n      iszero\n      tag_94\n      jumpi\n      swap2\n      dup3\n      add\n    tag_97:\n      dup3\n      dup2\n      gt\n      iszero\n      tag_98\n      jumpi\n      dup3\n      mload\n      dup3\n      sstore\n      swap2\n      0x20\n      add\n      swap2\n      swap1\n      0x01\n      add\n      swap1\n      jump(tag_97)\n    tag_98:\n    tag_94:\n      pop\n      swap1\n      pop\n      tag_99\n      swap2\n      swap1\n      tag_100\n      jump\t// in\n    tag_99:\n      pop\n      swap1\n      jump\t// out\n    tag_100:\n    tag_101:\n      dup1\n      dup3\n      gt\n      iszero\n      tag_102\n      jumpi\n      0x00\n      dup2\n      0x00\n      swap1\n      sstore\n      pop\n      0x01\n      add\n      jump(tag_101)\n    tag_102:\n      pop\n      swap1\n      jump\t// out\n        /* \"#utility.yul\":7:419   */\n    tag_104:\n        /* \"#utility.yul\":85:90   */\n      0x00\n        /* \"#utility.yul\":110:176   */\n      tag_106\n        /* \"#utility.yul\":126:175   */\n      tag_107\n        /* \"#utility.yul\":168:174   */\n      dup5\n        /* \"#utility.yul\":126:175   */\n      tag_108\n      jump\t// in\n    tag_107:\n        /* \"#utility.yul\":110:176   */\n      tag_109\n      jump\t// in\n    tag_106:\n        /* \"#utility.yul\":101:176   */\n      swap1\n      pop\n        /* \"#utility.yul\":199:205   */\n      dup3\n        /* \"#utility.yul\":192:197   */\n      dup2\n        /* \"#utility.yul\":185:206   */\n      mstore\n        /* \"#utility.yul\":237:241   */\n      0x20\n        /* \"#utility.yul\":230:235   */\n      dup2\n        /* \"#utility.yul\":226:242   */\n      add\n        /* \"#utility.yul\":275:278   */\n      dup5\n        /* \"#utility.yul\":266:272   */\n      dup5\n        /* \"#utility.yul\":261:264   */\n      dup5\n        /* \"#utility.yul\":257:273   */\n      add\n        /* \"#utility.yul\":254:279   */\n      gt\n        /* \"#utility.yul\":251:363   */\n      iszero\n      tag_110\n      jumpi\n        /* \"#utility.yul\":282:361   */\n      tag_111\n      tag_112\n      jump\t// in\n    tag_111:\n        /* \"#utility.yul\":251:363   */\n    tag_110:\n        /* \"#utility.yul\":372:413   */\n      tag_113\n        /* \"#utility.yul\":406:412   */\n      dup5\n        /* \"#utility.yul\":401:404   */\n      dup3\n        /* \"#utility.yul\":396:399   */\n      dup6\n        /* \"#utility.yul\":372:413   */\n      tag_114\n      jump\t// in\n    tag_113:\n        /* \"#utility.yul\":91:419   */\n      pop\n        /* \"#utility.yul\":7:419   */\n      swap4\n      swap3\n      pop\n      pop\n      pop\n      jump\t// out\n        /* \"#utility.yul\":425:558   */\n    tag_115:\n        /* \"#utility.yul\":468:473   */\n      0x00\n        /* \"#utility.yul\":506:512   */\n      dup2\n        /* \"#utility.yul\":493:513   */\n      calldataload\n        /* \"#utility.yul\":484:513   */\n      swap1\n      pop\n        /* \"#utility.yul\":522:552   */\n      tag_117\n        /* \"#utility.yul\":546:551   */\n      dup2\n        /* \"#utility.yul\":522:552   */\n      tag_118\n      jump\t// in\n    tag_117:\n        /* \"#utility.yul\":425:558   */\n      swap3\n      swap2\n      pop\n      pop\n      jump\t// out\n        /* \"#utility.yul\":564:707   */\n    tag_119:\n        /* \"#utility.yul\":621:626   */\n      0x00\n        /* \"#utility.yul\":652:658   */\n      dup2\n        /* \"#utility.yul\":646:659   */\n      mload\n        /* \"#utility.yul\":637:659   */\n      swap1\n      pop\n        /* \"#utility.yul\":668:701   */\n      tag_121\n        /* \"#utility.yul\":695:700   */\n      dup2\n        /* \"#utility.yul\":668:701   */\n      tag_122\n      jump\t// in\n    tag_121:\n        /* \"#utility.yul\":564:707   */\n      swap3\n      swap2\n      pop\n      pop\n      jump\t// out\n        /* \"#utility.yul\":727:1067   */\n    tag_123:\n        /* \"#utility.yul\":783:788   */\n      0x00\n        /* \"#utility.yul\":832:835   */\n      dup3\n        /* \"#utility.yul\":825:829   */\n      0x1f\n        /* \"#utility.yul\":817:823   */\n      dup4\n        /* \"#utility.yul\":813:830   */\n      add\n        /* \"#utility.yul\":809:836   */\n      slt\n        /* \"#utility.yul\":799:921   */\n      tag_125\n      jumpi\n        /* \"#utility.yul\":840:919   */\n      tag_126\n      tag_127\n      jump\t// in\n    tag_126:\n        /* \"#utility.yul\":799:921   */\n    tag_125:\n        /* \"#utility.yul\":957:963   */\n      dup2\n        /* \"#utility.yul\":944:964   */\n      calldataload\n        /* \"#utility.yul\":982:1061   */\n      tag_128\n        /* \"#utility.yul\":1057:1060   */\n      dup5\n        /* \"#utility.yul\":1049:1055   */\n      dup3\n        /* \"#utility.yul\":1042:1046   */\n      0x20\n        /* \"#utility.yul\":1034:1040   */\n      dup7\n        /* \"#utility.yul\":1030:1047   */\n      add\n        /* \"#utility.yul\":982:1061   */\n      tag_104\n      jump\t// in\n    tag_128:\n        /* \"#utility.yul\":973:1061   */\n      swap2\n      pop\n        /* \"#utility.yul\":789:1067   */\n      pop\n        /* \"#utility.yul\":727:1067   */\n      swap3\n      swap2\n      pop\n      pop\n      jump\t// out\n        /* \"#utility.yul\":1073:1212   */\n    tag_129:\n        /* \"#utility.yul\":1119:1124   */\n      0x00\n        /* \"#utility.yul\":1157:1163   */\n      dup2\n        /* \"#utility.yul\":1144:1164   */\n      calldataload\n        /* \"#utility.yul\":1135:1164   */\n      swap1\n      pop\n        /* \"#utility.yul\":1173:1206   */\n      tag_131\n        /* \"#utility.yul\":1200:1205   */\n      dup2\n        /* \"#utility.yul\":1173:1206   */\n      tag_132\n      jump\t// in\n    tag_131:\n        /* \"#utility.yul\":1073:1212   */\n      swap3\n      swap2\n      pop\n      pop\n      jump\t// out\n        /* \"#utility.yul\":1218:1569   */\n    tag_34:\n        /* \"#utility.yul\":1288:1294   */\n      0x00\n        /* \"#utility.yul\":1337:1339   */\n      0x20\n        /* \"#utility.yul\":1325:1334   */\n      dup3\n        /* \"#utility.yul\":1316:1323   */\n      dup5\n        /* \"#utility.yul\":1312:1335   */\n      sub\n        /* \"#utility.yul\":1308:1340   */\n      slt\n        /* \"#utility.yul\":1305:1424   */\n      iszero\n      tag_134\n      jumpi\n        /* \"#utility.yul\":1343:1422   */\n      tag_135\n      tag_136\n      jump\t// in\n    tag_135:\n        /* \"#utility.yul\":1305:1424   */\n    tag_134:\n        /* \"#utility.yul\":1463:1464   */\n      0x00\n        /* \"#utility.yul\":1488:1552   */\n      tag_137\n        /* \"#utility.yul\":1544:1551   */\n      dup5\n        /* \"#utility.yul\":1535:1541   */\n      dup3\n        /* \"#utility.yul\":1524:1533   */\n      dup6\n        /* \"#utility.yul\":1520:1542   */\n      add\n        /* \"#utility.yul\":1488:1552   */\n      tag_119\n      jump\t// in\n    tag_137:\n        /* \"#utility.yul\":1478:1552   */\n      swap2\n      pop\n        /* \"#utility.yul\":1434:1562   */\n      pop\n        /* \"#utility.yul\":1218:1569   */\n      swap3\n      swap2\n      pop\n      pop\n      jump\t// out\n        /* \"#utility.yul\":1575:2084   */\n    tag_8:\n        /* \"#utility.yul\":1644:1650   */\n      0x00\n        /* \"#utility.yul\":1693:1695   */\n      0x20\n        /* \"#utility.yul\":1681:1690   */\n      dup3\n        /* \"#utility.yul\":1672:1679   */\n      dup5\n        /* \"#utility.yul\":1668:1691   */\n      sub\n        /* \"#utility.yul\":1664:1696   */\n      slt\n        /* \"#utility.yul\":1661:1780   */\n      iszero\n      tag_139\n      jumpi\n        /* \"#utility.yul\":1699:1778   */\n      tag_140\n      tag_136\n      jump\t// in\n    tag_140:\n        /* \"#utility.yul\":1661:1780   */\n    tag_139:\n        /* \"#utility.yul\":1847:1848   */\n      0x00\n        /* \"#utility.yul\":1836:1845   */\n      dup3\n        /* \"#utility.yul\":1832:1849   */\n      add\n        /* \"#utility.yul\":1819:1850   */\n      calldataload\n        /* \"#utility.yul\":1877:1895   */\n      0xffffffffffffffff\n        /* \"#utility.yul\":1869:1875   */\n      dup2\n        /* \"#utility.yul\":1866:1896   */\n      gt\n        /* \"#utility.yul\":1863:1980   */\n      iszero\n      tag_141\n      jumpi\n        /* \"#utility.yul\":1899:1978   */\n      tag_142\n      tag_143\n      jump\t// in\n    tag_142:\n        /* \"#utility.yul\":1863:1980   */\n    tag_141:\n        /* \"#utility.yul\":2004:2067   */\n      tag_144\n        /* \"#utility.yul\":2059:2066   */\n      dup5\n        /* \"#utility.yul\":2050:2056   */\n      dup3\n        /* \"#utility.yul\":2039:2048   */\n      dup6\n        /* \"#utility.yul\":2035:2057   */\n      add\n        /* \"#utility.yul\":2004:2067   */\n      tag_123\n      jump\t// in\n    tag_144:\n        /* \"#utility.yul\":1994:2067   */\n      swap2\n      pop\n        /* \"#utility.yul\":1790:2077   */\n      pop\n        /* \"#utility.yul\":1575:2084   */\n      swap3\n      swap2\n      pop\n      pop\n      jump\t// out\n        /* \"#utility.yul\":2090:2419   */\n    tag_23:\n        /* \"#utility.yul\":2149:2155   */\n      0x00\n        /* \"#utility.yul\":2198:2200   */\n      0x20\n        /* \"#utility.yul\":2186:2195   */\n      dup3\n        /* \"#utility.yul\":2177:2184   */\n      dup5\n        /* \"#utility.yul\":2173:2196   */\n      sub\n        /* \"#utility.yul\":2169:2201   */\n      slt\n        /* \"#utility.yul\":2166:2285   */\n      iszero\n      tag_146\n      jumpi\n        /* \"#utility.yul\":2204:2283   */\n      tag_147\n      tag_136\n      jump\t// in\n    tag_147:\n        /* \"#utility.yul\":2166:2285   */\n    tag_146:\n        /* \"#utility.yul\":2324:2325   */\n      0x00\n        /* \"#utility.yul\":2349:2402   */\n      tag_148\n        /* \"#utility.yul\":2394:2401   */\n      dup5\n        /* \"#utility.yul\":2385:2391   */\n      dup3\n        /* \"#utility.yul\":2374:2383   */\n      dup6\n        /* \"#utility.yul\":2370:2392   */\n      add\n        /* \"#utility.yul\":2349:2402   */\n      tag_129\n      jump\t// in\n    tag_148:\n        /* \"#utility.yul\":2339:2402   */\n      swap2\n      pop\n        /* \"#utility.yul\":2295:2412   */\n      pop\n        /* \"#utility.yul\":2090:2419   */\n      swap3\n      swap2\n      pop\n      pop\n      jump\t// out\n        /* \"#utility.yul\":2425:2893   */\n    tag_18:\n        /* \"#utility.yul\":2490:2496   */\n      0x00\n        /* \"#utility.yul\":2498:2504   */\n      dup1\n        /* \"#utility.yul\":2547:2549   */\n      0x40\n        /* \"#utility.yul\":2535:2544   */\n      dup4\n        /* \"#utility.yul\":2526:2533   */\n      dup6\n        /* \"#utility.yul\":2522:2545   */\n      sub\n        /* \"#utility.yul\":2518:2550   */\n      slt\n        /* \"#utility.yul\":2515:2634   */\n      iszero\n      tag_150\n      jumpi\n        /* \"#utility.yul\":2553:2632   */\n      tag_151\n      tag_136\n      jump\t// in\n    tag_151:\n        /* \"#utility.yul\":2515:2634   */\n    tag_150:\n        /* \"#utility.yul\":2673:2674   */\n      0x00\n        /* \"#utility.yul\":2698:2751   */\n      tag_152\n        /* \"#utility.yul\":2743:2750   */\n      dup6\n        /* \"#utility.yul\":2734:2740   */\n      dup3\n        /* \"#utility.yul\":2723:2732   */\n      dup7\n        /* \"#utility.yul\":2719:2741   */\n      add\n        /* \"#utility.yul\":2698:2751   */\n      tag_129\n      jump\t// in\n    tag_152:\n        /* \"#utility.yul\":2688:2751   */\n      swap3\n      pop\n        /* \"#utility.yul\":2644:2761   */\n      pop\n        /* \"#utility.yul\":2800:2802   */\n      0x20\n        /* \"#utility.yul\":2826:2876   */\n      tag_153\n        /* \"#utility.yul\":2868:2875   */\n      dup6\n        /* \"#utility.yul\":2859:2865   */\n      dup3\n        /* \"#utility.yul\":2848:2857   */\n      dup7\n        /* \"#utility.yul\":2844:2866   */\n      add\n        /* \"#utility.yul\":2826:2876   */\n      tag_115\n      jump\t// in\n    tag_153:\n        /* \"#utility.yul\":2816:2876   */\n      swap2\n      pop\n        /* \"#utility.yul\":2771:2886   */\n      pop\n        /* \"#utility.yul\":2425:2893   */\n      swap3\n      pop\n      swap3\n      swap1\n      pop\n      jump\t// out\n        /* \"#utility.yul\":2899:3056   */\n    tag_154:\n        /* \"#utility.yul\":3004:3049   */\n      tag_156\n        /* \"#utility.yul\":3024:3048   */\n      tag_157\n        /* \"#utility.yul\":3042:3047   */\n      dup3\n        /* \"#utility.yul\":3024:3048   */\n      tag_158\n      jump\t// in\n    tag_157:\n        /* \"#utility.yul\":3004:3049   */\n      tag_159\n      jump\t// in\n    tag_156:\n        /* \"#utility.yul\":2999:3002   */\n      dup3\n        /* \"#utility.yul\":2992:3050   */\n      mstore\n        /* \"#utility.yul\":2899:3056   */\n      pop\n      pop\n      jump\t// out\n        /* \"#utility.yul\":3062:3435   */\n    tag_160:\n        /* \"#utility.yul\":3166:3169   */\n      0x00\n        /* \"#utility.yul\":3194:3232   */\n      tag_162\n        /* \"#utility.yul\":3226:3231   */\n      dup3\n        /* \"#utility.yul\":3194:3232   */\n      tag_163\n      jump\t// in\n    tag_162:\n        /* \"#utility.yul\":3248:3336   */\n      tag_164\n        /* \"#utility.yul\":3329:3335   */\n      dup2\n        /* \"#utility.yul\":3324:3327   */\n      dup6\n        /* \"#utility.yul\":3248:3336   */\n      tag_165\n      jump\t// in\n    tag_164:\n        /* \"#utility.yul\":3241:3336   */\n      swap4\n      pop\n        /* \"#utility.yul\":3345:3397   */\n      tag_166\n        /* \"#utility.yul\":3390:3396   */\n      dup2\n        /* \"#utility.yul\":3385:3388   */\n      dup6\n        /* \"#utility.yul\":3378:3382   */\n      0x20\n        /* \"#utility.yul\":3371:3376   */\n      dup7\n        /* \"#utility.yul\":3367:3383   */\n      add\n        /* \"#utility.yul\":3345:3397   */\n      tag_167\n      jump\t// in\n    tag_166:\n        /* \"#utility.yul\":3422:3428   */\n      dup1\n        /* \"#utility.yul\":3417:3420   */\n      dup5\n        /* \"#utility.yul\":3413:3429   */\n      add\n        /* \"#utility.yul\":3406:3429   */\n      swap2\n      pop\n        /* \"#utility.yul\":3170:3435   */\n      pop\n        /* \"#utility.yul\":3062:3435   */\n      swap3\n      swap2\n      pop\n      pop\n      jump\t// out\n        /* \"#utility.yul\":3441:3807   */\n    tag_168:\n        /* \"#utility.yul\":3583:3586   */\n      0x00\n        /* \"#utility.yul\":3604:3671   */\n      tag_170\n        /* \"#utility.yul\":3668:3670   */\n      0x11\n        /* \"#utility.yul\":3663:3666   */\n      dup4\n        /* \"#utility.yul\":3604:3671   */\n      tag_171\n      jump\t// in\n    tag_170:\n        /* \"#utility.yul\":3597:3671   */\n      swap2\n      pop\n        /* \"#utility.yul\":3680:3773   */\n      tag_172\n        /* \"#utility.yul\":3769:3772   */\n      dup3\n        /* \"#utility.yul\":3680:3773   */\n      tag_173\n      jump\t// in\n    tag_172:\n        /* \"#utility.yul\":3798:3800   */\n      0x20\n        /* \"#utility.yul\":3793:3796   */\n      dup3\n        /* \"#utility.yul\":3789:3801   */\n      add\n        /* \"#utility.yul\":3782:3801   */\n      swap1\n      pop\n        /* \"#utility.yul\":3441:3807   */\n      swap2\n      swap1\n      pop\n      jump\t// out\n        /* \"#utility.yul\":3813:4179   */\n    tag_174:\n        /* \"#utility.yul\":3955:3958   */\n      0x00\n        /* \"#utility.yul\":3976:4043   */\n      tag_176\n        /* \"#utility.yul\":4040:4042   */\n      0x12\n        /* \"#utility.yul\":4035:4038   */\n      dup4\n        /* \"#utility.yul\":3976:4043   */\n      tag_171\n      jump\t// in\n    tag_176:\n        /* \"#utility.yul\":3969:4043   */\n      swap2\n      pop\n        /* \"#utility.yul\":4052:4145   */\n      tag_177\n        /* \"#utility.yul\":4141:4144   */\n      dup3\n        /* \"#utility.yul\":4052:4145   */\n      tag_178\n      jump\t// in\n    tag_177:\n        /* \"#utility.yul\":4170:4172   */\n      0x20\n        /* \"#utility.yul\":4165:4168   */\n      dup3\n        /* \"#utility.yul\":4161:4173   */\n      add\n        /* \"#utility.yul\":4154:4173   */\n      swap1\n      pop\n        /* \"#utility.yul\":3813:4179   */\n      swap2\n      swap1\n      pop\n      jump\t// out\n        /* \"#utility.yul\":4185:4551   */\n    tag_179:\n        /* \"#utility.yul\":4327:4330   */\n      0x00\n        /* \"#utility.yul\":4348:4415   */\n      tag_181\n        /* \"#utility.yul\":4412:4414   */\n      0x28\n        /* \"#utility.yul\":4407:4410   */\n      dup4\n        /* \"#utility.yul\":4348:4415   */\n      tag_171\n      jump\t// in\n    tag_181:\n        /* \"#utility.yul\":4341:4415   */\n      swap2\n      pop\n        /* \"#utility.yul\":4424:4517   */\n      tag_182\n        /* \"#utility.yul\":4513:4516   */\n      dup3\n        /* \"#utility.yul\":4424:4517   */\n      tag_183\n      jump\t// in\n    tag_182:\n        /* \"#utility.yul\":4542:4544   */\n      0x40\n        /* \"#utility.yul\":4537:4540   */\n      dup3\n        /* \"#utility.yul\":4533:4545   */\n      add\n        /* \"#utility.yul\":4526:4545   */\n      swap1\n      pop\n        /* \"#utility.yul\":4185:4551   */\n      swap2\n      swap1\n      pop\n      jump\t// out\n        /* \"#utility.yul\":4557:4923   */\n    tag_184:\n        /* \"#utility.yul\":4699:4702   */\n      0x00\n        /* \"#utility.yul\":4720:4787   */\n      tag_186\n        /* \"#utility.yul\":4784:4786   */\n      0x0e\n        /* \"#utility.yul\":4779:4782   */\n      dup4\n        /* \"#utility.yul\":4720:4787   */\n      tag_171\n      jump\t// in\n    tag_186:\n        /* \"#utility.yul\":4713:4787   */\n      swap2\n      pop\n        /* \"#utility.yul\":4796:4889   */\n      tag_187\n        /* \"#utility.yul\":4885:4888   */\n      dup3\n        /* \"#utility.yul\":4796:4889   */\n      tag_188\n      jump\t// in\n    tag_187:\n        /* \"#utility.yul\":4914:4916   */\n      0x20\n        /* \"#utility.yul\":4909:4912   */\n      dup3\n        /* \"#utility.yul\":4905:4917   */\n      add\n        /* \"#utility.yul\":4898:4917   */\n      swap1\n      pop\n        /* \"#utility.yul\":4557:4923   */\n      swap2\n      swap1\n      pop\n      jump\t// out\n        /* \"#utility.yul\":4929:5295   */\n    tag_189:\n        /* \"#utility.yul\":5071:5074   */\n      0x00\n        /* \"#utility.yul\":5092:5159   */\n      tag_191\n        /* \"#utility.yul\":5156:5158   */\n      0x21\n        /* \"#utility.yul\":5151:5154   */\n      dup4\n        /* \"#utility.yul\":5092:5159   */\n      tag_171\n      jump\t// in\n    tag_191:\n        /* \"#utility.yul\":5085:5159   */\n      swap2\n      pop\n        /* \"#utility.yul\":5168:5261   */\n      tag_192\n        /* \"#utility.yul\":5257:5260   */\n      dup3\n        /* \"#utility.yul\":5168:5261   */\n      tag_193\n      jump\t// in\n    tag_192:\n        /* \"#utility.yul\":5286:5288   */\n      0x40\n        /* \"#utility.yul\":5281:5284   */\n      dup3\n        /* \"#utility.yul\":5277:5289   */\n      add\n        /* \"#utility.yul\":5270:5289   */\n      swap1\n      pop\n        /* \"#utility.yul\":4929:5295   */\n      swap2\n      swap1\n      pop\n      jump\t// out\n        /* \"#utility.yul\":5301:5667   */\n    tag_194:\n        /* \"#utility.yul\":5443:5446   */\n      0x00\n        /* \"#utility.yul\":5464:5531   */\n      tag_196\n        /* \"#utility.yul\":5528:5530   */\n      0x1e\n        /* \"#utility.yul\":5523:5526   */\n      dup4\n        /* \"#utility.yul\":5464:5531   */\n      tag_171\n      jump\t// in\n    tag_196:\n        /* \"#utility.yul\":5457:5531   */\n      swap2\n      pop\n        /* \"#utility.yul\":5540:5633   */\n      tag_197\n        /* \"#utility.yul\":5629:5632   */\n      dup3\n        /* \"#utility.yul\":5540:5633   */\n      tag_198\n      jump\t// in\n    tag_197:\n        /* \"#utility.yul\":5658:5660   */\n      0x20\n        /* \"#utility.yul\":5653:5656   */\n      dup3\n        /* \"#utility.yul\":5649:5661   */\n      add\n        /* \"#utility.yul\":5642:5661   */\n      swap1\n      pop\n        /* \"#utility.yul\":5301:5667   */\n      swap2\n      swap1\n      pop\n      jump\t// out\n        /* \"#utility.yul\":5673:5791   */\n    tag_199:\n        /* \"#utility.yul\":5760:5784   */\n      tag_201\n        /* \"#utility.yul\":5778:5783   */\n      dup2\n        /* \"#utility.yul\":5760:5784   */\n      tag_202\n      jump\t// in\n    tag_201:\n        /* \"#utility.yul\":5755:5758   */\n      dup3\n        /* \"#utility.yul\":5748:5785   */\n      mstore\n        /* \"#utility.yul\":5673:5791   */\n      pop\n      pop\n      jump\t// out\n        /* \"#utility.yul\":5797:5954   */\n    tag_203:\n        /* \"#utility.yul\":5902:5947   */\n      tag_205\n        /* \"#utility.yul\":5922:5946   */\n      tag_206\n        /* \"#utility.yul\":5940:5945   */\n      dup3\n        /* \"#utility.yul\":5922:5946   */\n      tag_202\n      jump\t// in\n    tag_206:\n        /* \"#utility.yul\":5902:5947   */\n      tag_207\n      jump\t// in\n    tag_205:\n        /* \"#utility.yul\":5897:5900   */\n      dup3\n        /* \"#utility.yul\":5890:5948   */\n      mstore\n        /* \"#utility.yul\":5797:5954   */\n      pop\n      pop\n      jump\t// out\n        /* \"#utility.yul\":5960:6231   */\n    tag_30:\n        /* \"#utility.yul\":6090:6093   */\n      0x00\n        /* \"#utility.yul\":6112:6205   */\n      tag_209\n        /* \"#utility.yul\":6201:6204   */\n      dup3\n        /* \"#utility.yul\":6192:6198   */\n      dup5\n        /* \"#utility.yul\":6112:6205   */\n      tag_160\n      jump\t// in\n    tag_209:\n        /* \"#utility.yul\":6105:6205   */\n      swap2\n      pop\n        /* \"#utility.yul\":6222:6225   */\n      dup2\n        /* \"#utility.yul\":6215:6225   */\n      swap1\n      pop\n        /* \"#utility.yul\":5960:6231   */\n      swap3\n      swap2\n      pop\n      pop\n      jump\t// out\n        /* \"#utility.yul\":6237:6493   */\n    tag_85:\n        /* \"#utility.yul\":6349:6352   */\n      0x00\n        /* \"#utility.yul\":6364:6439   */\n      tag_211\n        /* \"#utility.yul\":6435:6438   */\n      dup3\n        /* \"#utility.yul\":6426:6432   */\n      dup5\n        /* \"#utility.yul\":6364:6439   */\n      tag_203\n      jump\t// in\n    tag_211:\n        /* \"#utility.yul\":6464:6466   */\n      0x20\n        /* \"#utility.yul\":6459:6462   */\n      dup3\n        /* \"#utility.yul\":6455:6467   */\n      add\n        /* \"#utility.yul\":6448:6467   */\n      swap2\n      pop\n        /* \"#utility.yul\":6484:6487   */\n      dup2\n        /* \"#utility.yul\":6477:6487   */\n      swap1\n      pop\n        /* \"#utility.yul\":6237:6493   */\n      swap3\n      swap2\n      pop\n      pop\n      jump\t// out\n        /* \"#utility.yul\":6499:7178   */\n    tag_28:\n        /* \"#utility.yul\":6695:6698   */\n      0x00\n        /* \"#utility.yul\":6710:6785   */\n      tag_213\n        /* \"#utility.yul\":6781:6784   */\n      dup3\n        /* \"#utility.yul\":6772:6778   */\n      dup8\n        /* \"#utility.yul\":6710:6785   */\n      tag_203\n      jump\t// in\n    tag_213:\n        /* \"#utility.yul\":6810:6812   */\n      0x20\n        /* \"#utility.yul\":6805:6808   */\n      dup3\n        /* \"#utility.yul\":6801:6813   */\n      add\n        /* \"#utility.yul\":6794:6813   */\n      swap2\n      pop\n        /* \"#utility.yul\":6823:6898   */\n      tag_214\n        /* \"#utility.yul\":6894:6897   */\n      dup3\n        /* \"#utility.yul\":6885:6891   */\n      dup7\n        /* \"#utility.yul\":6823:6898   */\n      tag_203\n      jump\t// in\n    tag_214:\n        /* \"#utility.yul\":6923:6925   */\n      0x20\n        /* \"#utility.yul\":6918:6921   */\n      dup3\n        /* \"#utility.yul\":6914:6926   */\n      add\n        /* \"#utility.yul\":6907:6926   */\n      swap2\n      pop\n        /* \"#utility.yul\":6936:7011   */\n      tag_215\n        /* \"#utility.yul\":7007:7010   */\n      dup3\n        /* \"#utility.yul\":6998:7004   */\n      dup6\n        /* \"#utility.yul\":6936:7011   */\n      tag_154\n      jump\t// in\n    tag_215:\n        /* \"#utility.yul\":7036:7038   */\n      0x14\n        /* \"#utility.yul\":7031:7034   */\n      dup3\n        /* \"#utility.yul\":7027:7039   */\n      add\n        /* \"#utility.yul\":7020:7039   */\n      swap2\n      pop\n        /* \"#utility.yul\":7049:7124   */\n      tag_216\n        /* \"#utility.yul\":7120:7123   */\n      dup3\n        /* \"#utility.yul\":7111:7117   */\n      dup5\n        /* \"#utility.yul\":7049:7124   */\n      tag_203\n      jump\t// in\n    tag_216:\n        /* \"#utility.yul\":7149:7151   */\n      0x20\n        /* \"#utility.yul\":7144:7147   */\n      dup3\n        /* \"#utility.yul\":7140:7152   */\n      add\n        /* \"#utility.yul\":7133:7152   */\n      swap2\n      pop\n        /* \"#utility.yul\":7169:7172   */\n      dup2\n        /* \"#utility.yul\":7162:7172   */\n      swap1\n      pop\n        /* \"#utility.yul\":6499:7178   */\n      swap6\n      swap5\n      pop\n      pop\n      pop\n      pop\n      pop\n      jump\t// out\n        /* \"#utility.yul\":7184:7603   */\n    tag_60:\n        /* \"#utility.yul\":7350:7354   */\n      0x00\n        /* \"#utility.yul\":7388:7390   */\n      0x20\n        /* \"#utility.yul\":7377:7386   */\n      dup3\n        /* \"#utility.yul\":7373:7391   */\n      add\n        /* \"#utility.yul\":7365:7391   */\n      swap1\n      pop\n        /* \"#utility.yul\":7437:7446   */\n      dup2\n        /* \"#utility.yul\":7431:7435   */\n      dup2\n        /* \"#utility.yul\":7427:7447   */\n      sub\n        /* \"#utility.yul\":7423:7424   */\n      0x00\n        /* \"#utility.yul\":7412:7421   */\n      dup4\n        /* \"#utility.yul\":7408:7425   */\n      add\n        /* \"#utility.yul\":7401:7448   */\n      mstore\n        /* \"#utility.yul\":7465:7596   */\n      tag_218\n        /* \"#utility.yul\":7591:7595   */\n      dup2\n        /* \"#utility.yul\":7465:7596   */\n      tag_168\n      jump\t// in\n    tag_218:\n        /* \"#utility.yul\":7457:7596   */\n      swap1\n      pop\n        /* \"#utility.yul\":7184:7603   */\n      swap2\n      swap1\n      pop\n      jump\t// out\n        /* \"#utility.yul\":7609:8028   */\n    tag_45:\n        /* \"#utility.yul\":7775:7779   */\n      0x00\n        /* \"#utility.yul\":7813:7815   */\n      0x20\n        /* \"#utility.yul\":7802:7811   */\n      dup3\n        /* \"#utility.yul\":7798:7816   */\n      add\n        /* \"#utility.yul\":7790:7816   */\n      swap1\n      pop\n        /* \"#utility.yul\":7862:7871   */\n      dup2\n        /* \"#utility.yul\":7856:7860   */\n      dup2\n        /* \"#utility.yul\":7852:7872   */\n      sub\n        /* \"#utility.yul\":7848:7849   */\n      0x00\n        /* \"#utility.yul\":7837:7846   */\n      dup4\n        /* \"#utility.yul\":7833:7850   */\n      add\n        /* \"#utility.yul\":7826:7873   */\n      mstore\n        /* \"#utility.yul\":7890:8021   */\n      tag_220\n        /* \"#utility.yul\":8016:8020   */\n      dup2\n        /* \"#utility.yul\":7890:8021   */\n      tag_174\n      jump\t// in\n    tag_220:\n        /* \"#utility.yul\":7882:8021   */\n      swap1\n      pop\n        /* \"#utility.yul\":7609:8028   */\n      swap2\n      swap1\n      pop\n      jump\t// out\n        /* \"#utility.yul\":8034:8453   */\n    tag_42:\n        /* \"#utility.yul\":8200:8204   */\n      0x00\n        /* \"#utility.yul\":8238:8240   */\n      0x20\n        /* \"#utility.yul\":8227:8236   */\n      dup3\n        /* \"#utility.yul\":8223:8241   */\n      add\n        /* \"#utility.yul\":8215:8241   */\n      swap1\n      pop\n        /* \"#utility.yul\":8287:8296   */\n      dup2\n        /* \"#utility.yul\":8281:8285   */\n      dup2\n        /* \"#utility.yul\":8277:8297   */\n      sub\n        /* \"#utility.yul\":8273:8274   */\n      0x00\n        /* \"#utility.yul\":8262:8271   */\n      dup4\n        /* \"#utility.yul\":8258:8275   */\n      add\n        /* \"#utility.yul\":8251:8298   */\n      mstore\n        /* \"#utility.yul\":8315:8446   */\n      tag_222\n        /* \"#utility.yul\":8441:8445   */\n      dup2\n        /* \"#utility.yul\":8315:8446   */\n      tag_179\n      jump\t// in\n    tag_222:\n        /* \"#utility.yul\":8307:8446   */\n      swap1\n      pop\n        /* \"#utility.yul\":8034:8453   */\n      swap2\n      swap1\n      pop\n      jump\t// out\n        /* \"#utility.yul\":8459:8878   */\n    tag_77:\n        /* \"#utility.yul\":8625:8629   */\n      0x00\n        /* \"#utility.yul\":8663:8665   */\n      0x20\n        /* \"#utility.yul\":8652:8661   */\n      dup3\n        /* \"#utility.yul\":8648:8666   */\n      add\n        /* \"#utility.yul\":8640:8666   */\n      swap1\n      pop\n        /* \"#utility.yul\":8712:8721   */\n      dup2\n        /* \"#utility.yul\":8706:8710   */\n      dup2\n        /* \"#utility.yul\":8702:8722   */\n      sub\n        /* \"#utility.yul\":8698:8699   */\n      0x00\n        /* \"#utility.yul\":8687:8696   */\n      dup4\n        /* \"#utility.yul\":8683:8700   */\n      add\n        /* \"#utility.yul\":8676:8723   */\n      mstore\n        /* \"#utility.yul\":8740:8871   */\n      tag_224\n        /* \"#utility.yul\":8866:8870   */\n      dup2\n        /* \"#utility.yul\":8740:8871   */\n      tag_184\n      jump\t// in\n    tag_224:\n        /* \"#utility.yul\":8732:8871   */\n      swap1\n      pop\n        /* \"#utility.yul\":8459:8878   */\n      swap2\n      swap1\n      pop\n      jump\t// out\n        /* \"#utility.yul\":8884:9303   */\n    tag_57:\n        /* \"#utility.yul\":9050:9054   */\n      0x00\n        /* \"#utility.yul\":9088:9090   */\n      0x20\n        /* \"#utility.yul\":9077:9086   */\n      dup3\n        /* \"#utility.yul\":9073:9091   */\n      add\n        /* \"#utility.yul\":9065:9091   */\n      swap1\n      pop\n        /* \"#utility.yul\":9137:9146   */\n      dup2\n        /* \"#utility.yul\":9131:9135   */\n      dup2\n        /* \"#utility.yul\":9127:9147   */\n      sub\n        /* \"#utility.yul\":9123:9124   */\n      0x00\n        /* \"#utility.yul\":9112:9121   */\n      dup4\n        /* \"#utility.yul\":9108:9125   */\n      add\n        /* \"#utility.yul\":9101:9148   */\n      mstore\n        /* \"#utility.yul\":9165:9296   */\n      tag_226\n        /* \"#utility.yul\":9291:9295   */\n      dup2\n        /* \"#utility.yul\":9165:9296   */\n      tag_189\n      jump\t// in\n    tag_226:\n        /* \"#utility.yul\":9157:9296   */\n      swap1\n      pop\n        /* \"#utility.yul\":8884:9303   */\n      swap2\n      swap1\n      pop\n      jump\t// out\n        /* \"#utility.yul\":9309:9728   */\n    tag_74:\n        /* \"#utility.yul\":9475:9479   */\n      0x00\n        /* \"#utility.yul\":9513:9515   */\n      0x20\n        /* \"#utility.yul\":9502:9511   */\n      dup3\n        /* \"#utility.yul\":9498:9516   */\n      add\n        /* \"#utility.yul\":9490:9516   */\n      swap1\n      pop\n        /* \"#utility.yul\":9562:9571   */\n      dup2\n        /* \"#utility.yul\":9556:9560   */\n      dup2\n        /* \"#utility.yul\":9552:9572   */\n      sub\n        /* \"#utility.yul\":9548:9549   */\n      0x00\n        /* \"#utility.yul\":9537:9546   */\n      dup4\n        /* \"#utility.yul\":9533:9550   */\n      add\n        /* \"#utility.yul\":9526:9573   */\n      mstore\n        /* \"#utility.yul\":9590:9721   */\n      tag_228\n        /* \"#utility.yul\":9716:9720   */\n      dup2\n        /* \"#utility.yul\":9590:9721   */\n      tag_194\n      jump\t// in\n    tag_228:\n        /* \"#utility.yul\":9582:9721   */\n      swap1\n      pop\n        /* \"#utility.yul\":9309:9728   */\n      swap2\n      swap1\n      pop\n      jump\t// out\n        /* \"#utility.yul\":9734:9956   */\n    tag_11:\n        /* \"#utility.yul\":9827:9831   */\n      0x00\n        /* \"#utility.yul\":9865:9867   */\n      0x20\n        /* \"#utility.yul\":9854:9863   */\n      dup3\n        /* \"#utility.yul\":9850:9868   */\n      add\n        /* \"#utility.yul\":9842:9868   */\n      swap1\n      pop\n        /* \"#utility.yul\":9878:9949   */\n      tag_230\n        /* \"#utility.yul\":9946:9947   */\n      0x00\n        /* \"#utility.yul\":9935:9944   */\n      dup4\n        /* \"#utility.yul\":9931:9948   */\n      add\n        /* \"#utility.yul\":9922:9928   */\n      dup5\n        /* \"#utility.yul\":9878:9949   */\n      tag_199\n      jump\t// in\n    tag_230:\n        /* \"#utility.yul\":9734:9956   */\n      swap3\n      swap2\n      pop\n      pop\n      jump\t// out\n        /* \"#utility.yul\":9962:10091   */\n    tag_109:\n        /* \"#utility.yul\":9996:10002   */\n      0x00\n        /* \"#utility.yul\":10023:10043   */\n      tag_232\n      tag_233\n      jump\t// in\n    tag_232:\n        /* \"#utility.yul\":10013:10043   */\n      swap1\n      pop\n        /* \"#utility.yul\":10052:10085   */\n      tag_234\n        /* \"#utility.yul\":10080:10084   */\n      dup3\n        /* \"#utility.yul\":10072:10078   */\n      dup3\n        /* \"#utility.yul\":10052:10085   */\n      tag_235\n      jump\t// in\n    tag_234:\n        /* \"#utility.yul\":9962:10091   */\n      swap2\n      swap1\n      pop\n      jump\t// out\n        /* \"#utility.yul\":10097:10172   */\n    tag_233:\n        /* \"#utility.yul\":10130:10136   */\n      0x00\n        /* \"#utility.yul\":10163:10165   */\n      0x40\n        /* \"#utility.yul\":10157:10166   */\n      mload\n        /* \"#utility.yul\":10147:10166   */\n      swap1\n      pop\n        /* \"#utility.yul\":10097:10172   */\n      swap1\n      jump\t// out\n        /* \"#utility.yul\":10178:10486   */\n    tag_108:\n        /* \"#utility.yul\":10240:10244   */\n      0x00\n        /* \"#utility.yul\":10330:10348   */\n      0xffffffffffffffff\n        /* \"#utility.yul\":10322:10328   */\n      dup3\n        /* \"#utility.yul\":10319:10349   */\n      gt\n        /* \"#utility.yul\":10316:10372   */\n      iszero\n      tag_238\n      jumpi\n        /* \"#utility.yul\":10352:10370   */\n      tag_239\n      tag_240\n      jump\t// in\n    tag_239:\n        /* \"#utility.yul\":10316:10372   */\n    tag_238:\n        /* \"#utility.yul\":10390:10419   */\n      tag_241\n        /* \"#utility.yul\":10412:10418   */\n      dup3\n        /* \"#utility.yul\":10390:10419   */\n      tag_242\n      jump\t// in\n    tag_241:\n        /* \"#utility.yul\":10382:10419   */\n      swap1\n      pop\n        /* \"#utility.yul\":10474:10478   */\n      0x20\n        /* \"#utility.yul\":10468:10472   */\n      dup2\n        /* \"#utility.yul\":10464:10479   */\n      add\n        /* \"#utility.yul\":10456:10479   */\n      swap1\n      pop\n        /* \"#utility.yul\":10178:10486   */\n      swap2\n      swap1\n      pop\n      jump\t// out\n        /* \"#utility.yul\":10492:10590   */\n    tag_163:\n        /* \"#utility.yul\":10543:10549   */\n      0x00\n        /* \"#utility.yul\":10577:10582   */\n      dup2\n        /* \"#utility.yul\":10571:10583   */\n      mload\n        /* \"#utility.yul\":10561:10583   */\n      swap1\n      pop\n        /* \"#utility.yul\":10492:10590   */\n      swap2\n      swap1\n      pop\n      jump\t// out\n        /* \"#utility.yul\":10596:10743   */\n    tag_165:\n        /* \"#utility.yul\":10697:10708   */\n      0x00\n        /* \"#utility.yul\":10734:10737   */\n      dup2\n        /* \"#utility.yul\":10719:10737   */\n      swap1\n      pop\n        /* \"#utility.yul\":10596:10743   */\n      swap3\n      swap2\n      pop\n      pop\n      jump\t// out\n        /* \"#utility.yul\":10749:10918   */\n    tag_171:\n        /* \"#utility.yul\":10833:10844   */\n      0x00\n        /* \"#utility.yul\":10867:10873   */\n      dup3\n        /* \"#utility.yul\":10862:10865   */\n      dup3\n        /* \"#utility.yul\":10855:10874   */\n      mstore\n        /* \"#utility.yul\":10907:10911   */\n      0x20\n        /* \"#utility.yul\":10902:10905   */\n      dup3\n        /* \"#utility.yul\":10898:10912   */\n      add\n        /* \"#utility.yul\":10883:10912   */\n      swap1\n      pop\n        /* \"#utility.yul\":10749:10918   */\n      swap3\n      swap2\n      pop\n      pop\n      jump\t// out\n        /* \"#utility.yul\":10924:11229   */\n    tag_51:\n        /* \"#utility.yul\":10964:10967   */\n      0x00\n        /* \"#utility.yul\":10983:11003   */\n      tag_247\n        /* \"#utility.yul\":11001:11002   */\n      dup3\n        /* \"#utility.yul\":10983:11003   */\n      tag_202\n      jump\t// in\n    tag_247:\n        /* \"#utility.yul\":10978:11003   */\n      swap2\n      pop\n        /* \"#utility.yul\":11017:11037   */\n      tag_248\n        /* \"#utility.yul\":11035:11036   */\n      dup4\n        /* \"#utility.yul\":11017:11037   */\n      tag_202\n      jump\t// in\n    tag_248:\n        /* \"#utility.yul\":11012:11037   */\n      swap3\n      pop\n        /* \"#utility.yul\":11171:11172   */\n      dup3\n        /* \"#utility.yul\":11103:11169   */\n      0xffffffffffffffffffffffffffffffffffffffffffffffffffffffffffffffff\n        /* \"#utility.yul\":11099:11173   */\n      sub\n        /* \"#utility.yul\":11096:11097   */\n      dup3\n        /* \"#utility.yul\":11093:11174   */\n      gt\n        /* \"#utility.yul\":11090:11197   */\n      iszero\n      tag_249\n      jumpi\n        /* \"#utility.yul\":11177:11195   */\n      tag_250\n      tag_251\n      jump\t// in\n    tag_250:\n        /* \"#utility.yul\":11090:11197   */\n    tag_249:\n        /* \"#utility.yul\":11221:11222   */\n      dup3\n        /* \"#utility.yul\":11218:11219   */\n      dup3\n        /* \"#utility.yul\":11214:11223   */\n      add\n        /* \"#utility.yul\":11207:11223   */\n      swap1\n      pop\n        /* \"#utility.yul\":10924:11229   */\n      swap3\n      swap2\n      pop\n      pop\n      jump\t// out\n        /* \"#utility.yul\":11235:11426   */\n    tag_53:\n        /* \"#utility.yul\":11275:11279   */\n      0x00\n        /* \"#utility.yul\":11295:11315   */\n      tag_253\n        /* \"#utility.yul\":11313:11314   */\n      dup3\n        /* \"#utility.yul\":11295:11315   */\n      tag_202\n      jump\t// in\n    tag_253:\n        /* \"#utility.yul\":11290:11315   */\n      swap2\n      pop\n        /* \"#utility.yul\":11329:11349   */\n      tag_254\n        /* \"#utility.yul\":11347:11348   */\n      dup4\n        /* \"#utility.yul\":11329:11349   */\n      tag_202\n      jump\t// in\n    tag_254:\n        /* \"#utility.yul\":11324:11349   */\n      swap3\n      pop\n        /* \"#utility.yul\":11368:11369   */\n      dup3\n        /* \"#utility.yul\":11365:11366   */\n      dup3\n        /* \"#utility.yul\":11362:11370   */\n      lt\n        /* \"#utility.yul\":11359:11393   */\n      iszero\n      tag_255\n      jumpi\n        /* \"#utility.yul\":11373:11391   */\n      tag_256\n      tag_251\n      jump\t// in\n    tag_256:\n        /* \"#utility.yul\":11359:11393   */\n    tag_255:\n        /* \"#utility.yul\":11418:11419   */\n      dup3\n        /* \"#utility.yul\":11415:11416   */\n      dup3\n        /* \"#utility.yul\":11411:11420   */\n      sub\n        /* \"#utility.yul\":11403:11420   */\n      swap1\n      pop\n        /* \"#utility.yul\":11235:11426   */\n      swap3\n      swap2\n      pop\n      pop\n      jump\t// out\n        /* \"#utility.yul\":11432:11528   */\n    tag_158:\n        /* \"#utility.yul\":11469:11476   */\n      0x00\n        /* \"#utility.yul\":11498:11522   */\n      tag_258\n        /* \"#utility.yul\":11516:11521   */\n      dup3\n        /* \"#utility.yul\":11498:11522   */\n      tag_259\n      jump\t// in\n    tag_258:\n        /* \"#utility.yul\":11487:11522   */\n      swap1\n      pop\n        /* \"#utility.yul\":11432:11528   */\n      swap2\n      swap1\n      pop\n      jump\t// out\n        /* \"#utility.yul\":11534:11624   */\n    tag_260:\n        /* \"#utility.yul\":11568:11575   */\n      0x00\n        /* \"#utility.yul\":11611:11616   */\n      dup2\n        /* \"#utility.yul\":11604:11617   */\n      iszero\n        /* \"#utility.yul\":11597:11618   */\n      iszero\n        /* \"#utility.yul\":11586:11618   */\n      swap1\n      pop\n        /* \"#utility.yul\":11534:11624   */\n      swap2\n      swap1\n      pop\n      jump\t// out\n        /* \"#utility.yul\":11630:11707   */\n    tag_262:\n        /* \"#utility.yul\":11667:11674   */\n      0x00\n        /* \"#utility.yul\":11696:11701   */\n      dup2\n        /* \"#utility.yul\":11685:11701   */\n      swap1\n      pop\n        /* \"#utility.yul\":11630:11707   */\n      swap2\n      swap1\n      pop\n      jump\t// out\n        /* \"#utility.yul\":11713:11839   */\n    tag_259:\n        /* \"#utility.yul\":11750:11757   */\n      0x00\n        /* \"#utility.yul\":11790:11832   */\n      0xffffffffffffffffffffffffffffffffffffffff\n        /* \"#utility.yul\":11783:11788   */\n      dup3\n        /* \"#utility.yul\":11779:11833   */\n      and\n        /* \"#utility.yul\":11768:11833   */\n      swap1\n      pop\n        /* \"#utility.yul\":11713:11839   */\n      swap2\n      swap1\n      pop\n      jump\t// out\n        /* \"#utility.yul\":11845:11922   */\n    tag_202:\n        /* \"#utility.yul\":11882:11889   */\n      0x00\n        /* \"#utility.yul\":11911:11916   */\n      dup2\n        /* \"#utility.yul\":11900:11916   */\n      swap1\n      pop\n        /* \"#utility.yul\":11845:11922   */\n      swap2\n      swap1\n      pop\n      jump\t// out\n        /* \"#utility.yul\":11928:12082   */\n    tag_114:\n        /* \"#utility.yul\":12012:12018   */\n      dup3\n        /* \"#utility.yul\":12007:12010   */\n      dup2\n        /* \"#utility.yul\":12002:12005   */\n      dup4\n        /* \"#utility.yul\":11989:12019   */\n      calldatacopy\n        /* \"#utility.yul\":12074:12075   */\n      0x00\n        /* \"#utility.yul\":12065:12071   */\n      dup4\n        /* \"#utility.yul\":12060:12063   */\n      dup4\n        /* \"#utility.yul\":12056:12072   */\n      add\n        /* \"#utility.yul\":12049:12076   */\n      mstore\n        /* \"#utility.yul\":11928:12082   */\n      pop\n      pop\n      pop\n      jump\t// out\n        /* \"#utility.yul\":12088:12395   */\n    tag_167:\n        /* \"#utility.yul\":12156:12157   */\n      0x00\n        /* \"#utility.yul\":12166:12279   */\n    tag_268:\n        /* \"#utility.yul\":12180:12186   */\n      dup4\n        /* \"#utility.yul\":12177:12178   */\n      dup2\n        /* \"#utility.yul\":12174:12187   */\n      lt\n        /* \"#utility.yul\":12166:12279   */\n      iszero\n      tag_270\n      jumpi\n        /* \"#utility.yul\":12265:12266   */\n      dup1\n        /* \"#utility.yul\":12260:12263   */\n      dup3\n        /* \"#utility.yul\":12256:12267   */\n      add\n        /* \"#utility.yul\":12250:12268   */\n      mload\n        /* \"#utility.yul\":12246:12247   */\n      dup2\n        /* \"#utility.yul\":12241:12244   */\n      dup5\n        /* \"#utility.yul\":12237:12248   */\n      add\n        /* \"#utility.yul\":12230:12269   */\n      mstore\n        /* \"#utility.yul\":12202:12204   */\n      0x20\n        /* \"#utility.yul\":12199:12200   */\n      dup2\n        /* \"#utility.yul\":12195:12205   */\n      add\n        /* \"#utility.yul\":12190:12205   */\n      swap1\n      pop\n        /* \"#utility.yul\":12166:12279   */\n      jump(tag_268)\n    tag_270:\n        /* \"#utility.yul\":12297:12303   */\n      dup4\n        /* \"#utility.yul\":12294:12295   */\n      dup2\n        /* \"#utility.yul\":12291:12304   */\n      gt\n        /* \"#utility.yul\":12288:12389   */\n      iszero\n      tag_271\n      jumpi\n        /* \"#utility.yul\":12377:12378   */\n      0x00\n        /* \"#utility.yul\":12368:12374   */\n      dup5\n        /* \"#utility.yul\":12363:12366   */\n      dup5\n        /* \"#utility.yul\":12359:12375   */\n      add\n        /* \"#utility.yul\":12352:12379   */\n      mstore\n        /* \"#utility.yul\":12288:12389   */\n    tag_271:\n        /* \"#utility.yul\":12137:12395   */\n      pop\n        /* \"#utility.yul\":12088:12395   */\n      pop\n      pop\n      pop\n      jump\t// out\n        /* \"#utility.yul\":12401:12721   */\n    tag_93:\n        /* \"#utility.yul\":12445:12451   */\n      0x00\n        /* \"#utility.yul\":12482:12483   */\n      0x02\n        /* \"#utility.yul\":12476:12480   */\n      dup3\n        /* \"#utility.yul\":12472:12484   */\n      div\n        /* \"#utility.yul\":12462:12484   */\n      swap1\n      pop\n        /* \"#utility.yul\":12529:12530   */\n      0x01\n        /* \"#utility.yul\":12523:12527   */\n      dup3\n        /* \"#utility.yul\":12519:12531   */\n      and\n        /* \"#utility.yul\":12550:12568   */\n      dup1\n        /* \"#utility.yul\":12540:12621   */\n      tag_273\n      jumpi\n        /* \"#utility.yul\":12606:12610   */\n      0x7f\n        /* \"#utility.yul\":12598:12604   */\n      dup3\n        /* \"#utility.yul\":12594:12611   */\n      and\n        /* \"#utility.yul\":12584:12611   */\n      swap2\n      pop\n        /* \"#utility.yul\":12540:12621   */\n    tag_273:\n        /* \"#utility.yul\":12668:12670   */\n      0x20\n        /* \"#utility.yul\":12660:12666   */\n      dup3\n        /* \"#utility.yul\":12657:12671   */\n      lt\n        /* \"#utility.yul\":12637:12655   */\n      dup2\n        /* \"#utility.yul\":12634:12672   */\n      eq\n        /* \"#utility.yul\":12631:12715   */\n      iszero\n      tag_274\n      jumpi\n        /* \"#utility.yul\":12687:12705   */\n      tag_275\n      tag_276\n      jump\t// in\n    tag_275:\n        /* \"#utility.yul\":12631:12715   */\n    tag_274:\n        /* \"#utility.yul\":12452:12721   */\n      pop\n        /* \"#utility.yul\":12401:12721   */\n      swap2\n      swap1\n      pop\n      jump\t// out\n        /* \"#utility.yul\":12727:13008   */\n    tag_235:\n        /* \"#utility.yul\":12810:12837   */\n      tag_278\n        /* \"#utility.yul\":12832:12836   */\n      dup3\n        /* \"#utility.yul\":12810:12837   */\n      tag_242\n      jump\t// in\n    tag_278:\n        /* \"#utility.yul\":12802:12808   */\n      dup2\n        /* \"#utility.yul\":12798:12838   */\n      add\n        /* \"#utility.yul\":12940:12946   */\n      dup2\n        /* \"#utility.yul\":12928:12938   */\n      dup2\n        /* \"#utility.yul\":12925:12947   */\n      lt\n        /* \"#utility.yul\":12904:12922   */\n      0xffffffffffffffff\n        /* \"#utility.yul\":12892:12902   */\n      dup3\n        /* \"#utility.yul\":12889:12923   */\n      gt\n        /* \"#utility.yul\":12886:12948   */\n      or\n        /* \"#utility.yul\":12883:12971   */\n      iszero\n      tag_279\n      jumpi\n        /* \"#utility.yul\":12951:12969   */\n      tag_280\n      tag_240\n      jump\t// in\n    tag_280:\n        /* \"#utility.yul\":12883:12971   */\n    tag_279:\n        /* \"#utility.yul\":12991:13001   */\n      dup1\n        /* \"#utility.yul\":12987:12989   */\n      0x40\n        /* \"#utility.yul\":12980:13002   */\n      mstore\n        /* \"#utility.yul\":12770:13008   */\n      pop\n        /* \"#utility.yul\":12727:13008   */\n      pop\n      pop\n      jump\t// out\n        /* \"#utility.yul\":13014:13114   */\n    tag_159:\n        /* \"#utility.yul\":13053:13060   */\n      0x00\n        /* \"#utility.yul\":13082:13108   */\n      tag_282\n        /* \"#utility.yul\":13102:13107   */\n      dup3\n        /* \"#utility.yul\":13082:13108   */\n      tag_283\n      jump\t// in\n    tag_282:\n        /* \"#utility.yul\":13071:13108   */\n      swap1\n      pop\n        /* \"#utility.yul\":13014:13114   */\n      swap2\n      swap1\n      pop\n      jump\t// out\n        /* \"#utility.yul\":13120:13214   */\n    tag_283:\n        /* \"#utility.yul\":13159:13166   */\n      0x00\n        /* \"#utility.yul\":13188:13208   */\n      tag_285\n        /* \"#utility.yul\":13202:13207   */\n      dup3\n        /* \"#utility.yul\":13188:13208   */\n      tag_286\n      jump\t// in\n    tag_285:\n        /* \"#utility.yul\":13177:13208   */\n      swap1\n      pop\n        /* \"#utility.yul\":13120:13214   */\n      swap2\n      swap1\n      pop\n      jump\t// out\n        /* \"#utility.yul\":13220:13299   */\n    tag_207:\n        /* \"#utility.yul\":13259:13266   */\n      0x00\n        /* \"#utility.yul\":13288:13293   */\n      dup2\n        /* \"#utility.yul\":13277:13293   */\n      swap1\n      pop\n        /* \"#utility.yul\":13220:13299   */\n      swap2\n      swap1\n      pop\n      jump\t// out\n        /* \"#utility.yul\":13305:13481   */\n    tag_91:\n        /* \"#utility.yul\":13337:13338   */\n      0x00\n        /* \"#utility.yul\":13354:13374   */\n      tag_289\n        /* \"#utility.yul\":13372:13373   */\n      dup3\n        /* \"#utility.yul\":13354:13374   */\n      tag_202\n      jump\t// in\n    tag_289:\n        /* \"#utility.yul\":13349:13374   */\n      swap2\n      pop\n        /* \"#utility.yul\":13388:13408   */\n      tag_290\n        /* \"#utility.yul\":13406:13407   */\n      dup4\n        /* \"#utility.yul\":13388:13408   */\n      tag_202\n      jump\t// in\n    tag_290:\n        /* \"#utility.yul\":13383:13408   */\n      swap3\n      pop\n        /* \"#utility.yul\":13427:13428   */\n      dup3\n        /* \"#utility.yul\":13417:13452   */\n      tag_291\n      jumpi\n        /* \"#utility.yul\":13432:13450   */\n      tag_292\n      tag_293\n      jump\t// in\n    tag_292:\n        /* \"#utility.yul\":13417:13452   */\n    tag_291:\n        /* \"#utility.yul\":13473:13474   */\n      dup3\n        /* \"#utility.yul\":13470:13471   */\n      dup3\n        /* \"#utility.yul\":13466:13475   */\n      mod\n        /* \"#utility.yul\":13461:13475   */\n      swap1\n      pop\n        /* \"#utility.yul\":13305:13481   */\n      swap3\n      swap2\n      pop\n      pop\n      jump\t// out\n        /* \"#utility.yul\":13487:13667   */\n    tag_251:\n        /* \"#utility.yul\":13535:13612   */\n      0x4e487b7100000000000000000000000000000000000000000000000000000000\n        /* \"#utility.yul\":13532:13533   */\n      0x00\n        /* \"#utility.yul\":13525:13613   */\n      mstore\n        /* \"#utility.yul\":13632:13636   */\n      0x11\n        /* \"#utility.yul\":13629:13630   */\n      0x04\n        /* \"#utility.yul\":13622:13637   */\n      mstore\n        /* \"#utility.yul\":13656:13660   */\n      0x24\n        /* \"#utility.yul\":13653:13654   */\n      0x00\n        /* \"#utility.yul\":13646:13661   */\n      revert\n        /* \"#utility.yul\":13673:13853   */\n    tag_293:\n        /* \"#utility.yul\":13721:13798   */\n      0x4e487b7100000000000000000000000000000000000000000000000000000000\n        /* \"#utility.yul\":13718:13719   */\n      0x00\n        /* \"#utility.yul\":13711:13799   */\n      mstore\n        /* \"#utility.yul\":13818:13822   */\n      0x12\n        /* \"#utility.yul\":13815:13816   */\n      0x04\n        /* \"#utility.yul\":13808:13823   */\n      mstore\n        /* \"#utility.yul\":13842:13846   */\n      0x24\n        /* \"#utility.yul\":13839:13840   */\n      0x00\n        /* \"#utility.yul\":13832:13847   */\n      revert\n        /* \"#utility.yul\":13859:14039   */\n    tag_276:\n        /* \"#utility.yul\":13907:13984   */\n      0x4e487b7100000000000000000000000000000000000000000000000000000000\n        /* \"#utility.yul\":13904:13905   */\n      0x00\n        /* \"#utility.yul\":13897:13985   */\n      mstore\n        /* \"#utility.yul\":14004:14008   */\n      0x22\n        /* \"#utility.yul\":14001:14002   */\n      0x04\n        /* \"#utility.yul\":13994:14009   */\n      mstore\n        /* \"#utility.yul\":14028:14032   */\n      0x24\n        /* \"#utility.yul\":14025:14026   */\n      0x00\n        /* \"#utility.yul\":14018:14033   */\n      revert\n        /* \"#utility.yul\":14045:14225   */\n    tag_48:\n        /* \"#utility.yul\":14093:14170   */\n      0x4e487b7100000000000000000000000000000000000000000000000000000000\n        /* \"#utility.yul\":14090:14091   */\n      0x00\n        /* \"#utility.yul\":14083:14171   */\n      mstore\n        /* \"#utility.yul\":14190:14194   */\n      0x32\n        /* \"#utility.yul\":14187:14188   */\n      0x04\n        /* \"#utility.yul\":14180:14195   */\n      mstore\n        /* \"#utility.yul\":14214:14218   */\n      0x24\n        /* \"#utility.yul\":14211:14212   */\n      0x00\n        /* \"#utility.yul\":14204:14219   */\n      revert\n        /* \"#utility.yul\":14231:14411   */\n    tag_240:\n        /* \"#utility.yul\":14279:14356   */\n      0x4e487b7100000000000000000000000000000000000000000000000000000000\n        /* \"#utility.yul\":14276:14277   */\n      0x00\n        /* \"#utility.yul\":14269:14357   */\n      mstore\n        /* \"#utility.yul\":14376:14380   */\n      0x41\n        /* \"#utility.yul\":14373:14374   */\n      0x04\n        /* \"#utility.yul\":14366:14381   */\n      mstore\n        /* \"#utility.yul\":14400:14404   */\n      0x24\n        /* \"#utility.yul\":14397:14398   */\n      0x00\n        /* \"#utility.yul\":14390:14405   */\n      revert\n        /* \"#utility.yul\":14417:14534   */\n    tag_127:\n        /* \"#utility.yul\":14526:14527   */\n      0x00\n        /* \"#utility.yul\":14523:14524   */\n      dup1\n        /* \"#utility.yul\":14516:14528   */\n      revert\n        /* \"#utility.yul\":14540:14657   */\n    tag_112:\n        /* \"#utility.yul\":14649:14650   */\n      0x00\n        /* \"#utility.yul\":14646:14647   */\n      dup1\n        /* \"#utility.yul\":14639:14651   */\n      revert\n        /* \"#utility.yul\":14663:14780   */\n    tag_143:\n        /* \"#utility.yul\":14772:14773   */\n      0x00\n        /* \"#utility.yul\":14769:14770   */\n      dup1\n        /* \"#utility.yul\":14762:14774   */\n      revert\n        /* \"#utility.yul\":14786:14903   */\n    tag_136:\n        /* \"#utility.yul\":14895:14896   */\n      0x00\n        /* \"#utility.yul\":14892:14893   */\n      dup1\n        /* \"#utility.yul\":14885:14897   */\n      revert\n        /* \"#utility.yul\":14909:15011   */\n    tag_242:\n        /* \"#utility.yul\":14950:14956   */\n      0x00\n        /* \"#utility.yul\":15001:15003   */\n      0x1f\n        /* \"#utility.yul\":14997:15004   */\n      not\n        /* \"#utility.yul\":14992:14994   */\n      0x1f\n        /* \"#utility.yul\":14985:14990   */\n      dup4\n        /* \"#utility.yul\":14981:14995   */\n      add\n        /* \"#utility.yul\":14977:15005   */\n      and\n        /* \"#utility.yul\":14967:15005   */\n      swap1\n      pop\n        /* \"#utility.yul\":14909:15011   */\n      swap2\n      swap1\n      pop\n      jump\t// out\n        /* \"#utility.yul\":15017:15111   */\n    tag_286:\n        /* \"#utility.yul\":15050:15058   */\n      0x00\n        /* \"#utility.yul\":15098:15103   */\n      dup2\n        /* \"#utility.yul\":15094:15096   */\n      0x60\n        /* \"#utility.yul\":15090:15104   */\n      shl\n        /* \"#utility.yul\":15069:15104   */\n      swap1\n      pop\n        /* \"#utility.yul\":15017:15111   */\n      swap2\n      swap1\n      pop\n      jump\t// out\n        /* \"#utility.yul\":15117:15284   */\n    tag_173:\n        /* \"#utility.yul\":15257:15276   */\n      0x566f74696e672068617320636c6f736564000000000000000000000000000000\n        /* \"#utility.yul\":15253:15254   */\n      0x00\n        /* \"#utility.yul\":15245:15251   */\n      dup3\n        /* \"#utility.yul\":15241:15255   */\n      add\n        /* \"#utility.yul\":15234:15277   */\n      mstore\n        /* \"#utility.yul\":15117:15284   */\n      pop\n      jump\t// out\n        /* \"#utility.yul\":15290:15458   */\n    tag_178:\n        /* \"#utility.yul\":15430:15450   */\n      0x416c7265616479207369676e6564207570210000000000000000000000000000\n        /* \"#utility.yul\":15426:15427   */\n      0x00\n        /* \"#utility.yul\":15418:15424   */\n      dup3\n        /* \"#utility.yul\":15414:15428   */\n      add\n        /* \"#utility.yul\":15407:15451   */\n      mstore\n        /* \"#utility.yul\":15290:15458   */\n      pop\n      jump\t// out\n        /* \"#utility.yul\":15464:15691   */\n    tag_183:\n        /* \"#utility.yul\":15604:15638   */\n      0x5369676e2d75702072656a65637465642120496e616465717561746520737461\n        /* \"#utility.yul\":15600:15601   */\n      0x00\n        /* \"#utility.yul\":15592:15598   */\n      dup3\n        /* \"#utility.yul\":15588:15602   */\n      add\n        /* \"#utility.yul\":15581:15639   */\n      mstore\n        /* \"#utility.yul\":15673:15683   */\n      0x6b652076616c7565000000000000000000000000000000000000000000000000\n        /* \"#utility.yul\":15668:15670   */\n      0x20\n        /* \"#utility.yul\":15660:15666   */\n      dup3\n        /* \"#utility.yul\":15656:15671   */\n      add\n        /* \"#utility.yul\":15649:15684   */\n      mstore\n        /* \"#utility.yul\":15464:15691   */\n      pop\n      jump\t// out\n        /* \"#utility.yul\":15697:15861   */\n    tag_188:\n        /* \"#utility.yul\":15837:15853   */\n      0x4e6f74207369676e656420757021000000000000000000000000000000000000\n        /* \"#utility.yul\":15833:15834   */\n      0x00\n        /* \"#utility.yul\":15825:15831   */\n      dup3\n        /* \"#utility.yul\":15821:15835   */\n      add\n        /* \"#utility.yul\":15814:15854   */\n      mstore\n        /* \"#utility.yul\":15697:15861   */\n      pop\n      jump\t// out\n        /* \"#utility.yul\":15867:16087   */\n    tag_193:\n        /* \"#utility.yul\":16007:16041   */\n      0x4e6f7420612076616c696461746f7220666f7220746869732072657175657374\n        /* \"#utility.yul\":16003:16004   */\n      0x00\n        /* \"#utility.yul\":15995:16001   */\n      dup3\n        /* \"#utility.yul\":15991:16005   */\n      add\n        /* \"#utility.yul\":15984:16042   */\n      mstore\n        /* \"#utility.yul\":16076:16079   */\n      0x2100000000000000000000000000000000000000000000000000000000000000\n        /* \"#utility.yul\":16071:16073   */\n      0x20\n        /* \"#utility.yul\":16063:16069   */\n      dup3\n        /* \"#utility.yul\":16059:16074   */\n      add\n        /* \"#utility.yul\":16052:16080   */\n      mstore\n        /* \"#utility.yul\":15867:16087   */\n      pop\n      jump\t// out\n        /* \"#utility.yul\":16093:16273   */\n    tag_198:\n        /* \"#utility.yul\":16233:16265   */\n      0x494420646f65736e2774206d6174636820796f75722061646472657373210000\n        /* \"#utility.yul\":16229:16230   */\n      0x00\n        /* \"#utility.yul\":16221:16227   */\n      dup3\n        /* \"#utility.yul\":16217:16231   */\n      add\n        /* \"#utility.yul\":16210:16266   */\n      mstore\n        /* \"#utility.yul\":16093:16273   */\n      pop\n      jump\t// out\n        /* \"#utility.yul\":16279:16395   */\n    tag_118:\n        /* \"#utility.yul\":16349:16370   */\n      tag_312\n        /* \"#utility.yul\":16364:16369   */\n      dup2\n        /* \"#utility.yul\":16349:16370   */\n      tag_260\n      jump\t// in\n    tag_312:\n        /* \"#utility.yul\":16342:16347   */\n      dup2\n        /* \"#utility.yul\":16339:16371   */\n      eq\n        /* \"#utility.yul\":16329:16389   */\n      tag_313\n      jumpi\n        /* \"#utility.yul\":16385:16386   */\n      0x00\n        /* \"#utility.yul\":16382:16383   */\n      dup1\n        /* \"#utility.yul\":16375:16387   */\n      revert\n        /* \"#utility.yul\":16329:16389   */\n    tag_313:\n        /* \"#utility.yul\":16279:16395   */\n      pop\n      jump\t// out\n        /* \"#utility.yul\":16401:16523   */\n    tag_122:\n        /* \"#utility.yul\":16474:16498   */\n      tag_315\n        /* \"#utility.yul\":16492:16497   */\n      dup2\n        /* \"#utility.yul\":16474:16498   */\n      tag_262\n      jump\t// in\n    tag_315:\n        /* \"#utility.yul\":16467:16472   */\n      dup2\n        /* \"#utility.yul\":16464:16499   */\n      eq\n        /* \"#utility.yul\":16454:16517   */\n      tag_316\n      jumpi\n        /* \"#utility.yul\":16513:16514   */\n      0x00\n        /* \"#utility.yul\":16510:16511   */\n      dup1\n        /* \"#utility.yul\":16503:16515   */\n      revert\n        /* \"#utility.yul\":16454:16517   */\n    tag_316:\n        /* \"#utility.yul\":16401:16523   */\n      pop\n      jump\t// out\n        /* \"#utility.yul\":16529:16651   */\n    tag_132:\n        /* \"#utility.yul\":16602:16626   */\n      tag_318\n        /* \"#utility.yul\":16620:16625   */\n      dup2\n        /* \"#utility.yul\":16602:16626   */\n      tag_202\n      jump\t// in\n    tag_318:\n        /* \"#utility.yul\":16595:16600   */\n      dup2\n        /* \"#utility.yul\":16592:16627   */\n      eq\n        /* \"#utility.yul\":16582:16645   */\n      tag_319\n      jumpi\n        /* \"#utility.yul\":16641:16642   */\n      0x00\n        /* \"#utility.yul\":16638:16639   */\n      dup1\n        /* \"#utility.yul\":16631:16643   */\n      revert\n        /* \"#utility.yul\":16582:16645   */\n    tag_319:\n        /* \"#utility.yul\":16529:16651   */\n      pop\n      jump\t// out\n\n    auxdata: 0xa2646970667358221220fd306b5d20b9db4e46b383e353e28fe521a8afab86fd91496f5d400dff11c02d64736f6c63430008070033\n}\n",
				"bytecode": {
					"linkReferences": {},
					"object": "608060405234801561001057600080fd5b506112c4806100206000396000f3fe60806040526004361061003f5760003560e01c8063969b156714610044578063c4fb333714610074578063c9d27afe14610092578063f5c7996c146100bb575b600080fd5b61005e60048036038101906100599190610a3c565b6100e4565b60405161006b9190610d72565b60405180910390f35b61007c61024a565b6040516100899190610d72565b60405180910390f35b34801561009e57600080fd5b506100b960048036038101906100b49190610ab2565b6103b1565b005b3480156100c757600080fd5b506100e260048036038101906100dd9190610a85565b61060e565b005b6000678ac7230489e800003410156100fb57600080fd5b600060024244336004546040516020016101189493929190610c64565b6040516020818303038152906040526040516101349190610c32565b602060405180830381855afa158015610151573d6000803e3d6000fd5b5050506040513d601f19601f820116820180604052508101906101749190610a0f565b60001c90508060026000600554815260200190815260200160002060010181905550600554600260006005548152602001908152602001600020600001819055503360026000600554815260200190815260200160002060040160006101000a81548173ffffffffffffffffffffffffffffffffffffffff021916908373ffffffffffffffffffffffffffffffffffffffff1602179055508260026000600554815260200190815260200160002060030190805190602001906102389291906108bd565b50610244600554610832565b50919050565b6000670de0b6b3a76400003414610296576040517f08c379a000000000000000000000000000000000000000000000000000000000815260040161028d90610cf2565b60405180910390fd5b60001515600160003373ffffffffffffffffffffffffffffffffffffffff1673ffffffffffffffffffffffffffffffffffffffff16815260200190815260200160002060009054906101000a900460ff16151514610329576040517f08c379a000000000000000000000000000000000000000000000000000000000815260040161032090610cd2565b60405180910390fd5b336000600454815481106103405761033f611077565b5b9060005260206000200160006101000a81548173ffffffffffffffffffffffffffffffffffffffff021916908373ffffffffffffffffffffffffffffffffffffffff16021790555060016004546103979190610e0a565b60048190555060016004546103ac9190610e60565b905090565b600115156002600084815260200190815260200160002060020160003373ffffffffffffffffffffffffffffffffffffffff1673ffffffffffffffffffffffffffffffffffffffff16815260200190815260200160002060009054906101000a900460ff16151514610458576040517f08c379a000000000000000000000000000000000000000000000000000000000815260040161044f90610d32565b60405180910390fd5b600260008381526020019081526020016000206009015443106104b0576040517f08c379a00000000000000000000000000000000000000000000000000000000081526004016104a790610cb2565b60405180910390fd5b80156104f857600160026000848152602001908152602001600020600701546104d99190610e0a565b6002600084815260200190815260200160002060070181905550610536565b6001600260008481526020019081526020016000206008015461051b9190610e0a565b60026000848152602001908152602001600020600801819055505b3373ffffffffffffffffffffffffffffffffffffffff166108fc6002600085815260200190815260200160002060050154670de0b6b3a764000061057a9190610e0a565b9081150290604051600060405180830381858888f193505050501580156105a5573d6000803e3d6000fd5b50600015156002600084815260200190815260200160002060020160003373ffffffffffffffffffffffffffffffffffffffff1673ffffffffffffffffffffffffffffffffffffffff16815260200190815260200160002060009054906101000a905050505050565b3373ffffffffffffffffffffffffffffffffffffffff166000828154811061063957610638611077565b5b9060005260206000200160009054906101000a900473ffffffffffffffffffffffffffffffffffffffff1673ffffffffffffffffffffffffffffffffffffffff16146106ba576040517f08c379a00000000000000000000000000000000000000000000000000000000081526004016106b190610d52565b60405180910390fd5b60011515600160003373ffffffffffffffffffffffffffffffffffffffff1673ffffffffffffffffffffffffffffffffffffffff16815260200190815260200160002060009054906101000a900460ff1615151461074d576040517f08c379a000000000000000000000000000000000000000000000000000000000815260040161074490610d12565b60405180910390fd5b60001515600160003373ffffffffffffffffffffffffffffffffffffffff1673ffffffffffffffffffffffffffffffffffffffff16815260200190815260200160002060009054906101000a90505050600073ffffffffffffffffffffffffffffffffffffffff16600082815481106107c9576107c8611077565b5b9060005260206000200160009054906101000a905050503373ffffffffffffffffffffffffffffffffffffffff166108fc670de0b6b3a76400009081150290604051600060405180830381858888f1935050505015801561082e573d6000803e3d6000fd5b5050565b60008080549050600260045460405160200161084e9190610c49565b60405160208183030381529060405260405161086a9190610c32565b602060405180830381855afa158015610887573d6000803e3d6000fd5b5050506040513d601f19601f820116820180604052508101906108aa9190610a0f565b60001c6108b79190610fb9565b90505050565b8280546108c990610f28565b90600052602060002090601f0160209004810192826108eb5760008555610932565b82601f1061090457805160ff1916838001178555610932565b82800160010185558215610932579182015b82811115610931578251825591602001919060010190610916565b5b50905061093f9190610943565b5090565b5b8082111561095c576000816000905550600101610944565b5090565b600061097361096e84610db2565b610d8d565b90508281526020810184848401111561098f5761098e6110da565b5b61099a848285610ee6565b509392505050565b6000813590506109b181611249565b92915050565b6000815190506109c681611260565b92915050565b600082601f8301126109e1576109e06110d5565b5b81356109f1848260208601610960565b91505092915050565b600081359050610a0981611277565b92915050565b600060208284031215610a2557610a246110e4565b5b6000610a33848285016109b7565b91505092915050565b600060208284031215610a5257610a516110e4565b5b600082013567ffffffffffffffff811115610a7057610a6f6110df565b5b610a7c848285016109cc565b91505092915050565b600060208284031215610a9b57610a9a6110e4565b5b6000610aa9848285016109fa565b91505092915050565b60008060408385031215610ac957610ac86110e4565b5b6000610ad7858286016109fa565b9250506020610ae8858286016109a2565b9150509250929050565b610b03610afe82610e94565b610f8b565b82525050565b6000610b1482610de3565b610b1e8185610dee565b9350610b2e818560208601610ef5565b80840191505092915050565b6000610b47601183610df9565b9150610b5282611107565b602082019050919050565b6000610b6a601283610df9565b9150610b7582611130565b602082019050919050565b6000610b8d602883610df9565b9150610b9882611159565b604082019050919050565b6000610bb0600e83610df9565b9150610bbb826111a8565b602082019050919050565b6000610bd3602183610df9565b9150610bde826111d1565b604082019050919050565b6000610bf6601e83610df9565b9150610c0182611220565b602082019050919050565b610c1581610edc565b82525050565b610c2c610c2782610edc565b610faf565b82525050565b6000610c3e8284610b09565b915081905092915050565b6000610c558284610c1b565b60208201915081905092915050565b6000610c708287610c1b565b602082019150610c808286610c1b565b602082019150610c908285610af2565b601482019150610ca08284610c1b565b60208201915081905095945050505050565b60006020820190508181036000830152610ccb81610b3a565b9050919050565b60006020820190508181036000830152610ceb81610b5d565b9050919050565b60006020820190508181036000830152610d0b81610b80565b9050919050565b60006020820190508181036000830152610d2b81610ba3565b9050919050565b60006020820190508181036000830152610d4b81610bc6565b9050919050565b60006020820190508181036000830152610d6b81610be9565b9050919050565b6000602082019050610d876000830184610c0c565b92915050565b6000610d97610da8565b9050610da38282610f5a565b919050565b6000604051905090565b600067ffffffffffffffff821115610dcd57610dcc6110a6565b5b610dd6826110e9565b9050602081019050919050565b600081519050919050565b600081905092915050565b600082825260208201905092915050565b6000610e1582610edc565b9150610e2083610edc565b9250827fffffffffffffffffffffffffffffffffffffffffffffffffffffffffffffffff03821115610e5557610e54610fea565b5b828201905092915050565b6000610e6b82610edc565b9150610e7683610edc565b925082821015610e8957610e88610fea565b5b828203905092915050565b6000610e9f82610ebc565b9050919050565b60008115159050919050565b6000819050919050565b600073ffffffffffffffffffffffffffffffffffffffff82169050919050565b6000819050919050565b82818337600083830152505050565b60005b83811015610f13578082015181840152602081019050610ef8565b83811115610f22576000848401525b50505050565b60006002820490506001821680610f4057607f821691505b60208210811415610f5457610f53611048565b5b50919050565b610f63826110e9565b810181811067ffffffffffffffff82111715610f8257610f816110a6565b5b80604052505050565b6000610f9682610f9d565b9050919050565b6000610fa8826110fa565b9050919050565b6000819050919050565b6000610fc482610edc565b9150610fcf83610edc565b925082610fdf57610fde611019565b5b828206905092915050565b7f4e487b7100000000000000000000000000000000000000000000000000000000600052601160045260246000fd5b7f4e487b7100000000000000000000000000000000000000000000000000000000600052601260045260246000fd5b7f4e487b7100000000000000000000000000000000000000000000000000000000600052602260045260246000fd5b7f4e487b7100000000000000000000000000000000000000000000000000000000600052603260045260246000fd5b7f4e487b7100000000000000000000000000000000000000000000000000000000600052604160045260246000fd5b600080fd5b600080fd5b600080fd5b600080fd5b6000601f19601f8301169050919050565b60008160601b9050919050565b7f566f74696e672068617320636c6f736564000000000000000000000000000000600082015250565b7f416c7265616479207369676e6564207570210000000000000000000000000000600082015250565b7f5369676e2d75702072656a65637465642120496e61646571756174652073746160008201527f6b652076616c7565000000000000000000000000000000000000000000000000602082015250565b7f4e6f74207369676e656420757021000000000000000000000000000000000000600082015250565b7f4e6f7420612076616c696461746f7220666f722074686973207265717565737460008201527f2100000000000000000000000000000000000000000000000000000000000000602082015250565b7f494420646f65736e2774206d6174636820796f75722061646472657373210000600082015250565b61125281610ea6565b811461125d57600080fd5b50565b61126981610eb2565b811461127457600080fd5b50565b61128081610edc565b811461128b57600080fd5b5056fea2646970667358221220fd306b5d20b9db4e46b383e353e28fe521a8afab86fd91496f5d400dff11c02d64736f6c63430008070033",
					"opcodes": "PUSH1 0x80 PUSH1 0x40 MSTORE CALLVALUE DUP1 ISZERO PUSH2 0x10 JUMPI PUSH1 0x0 DUP1 REVERT JUMPDEST POP PUSH2 0x12C4 DUP1 PUSH2 0x20 PUSH1 0x0 CODECOPY PUSH1 0x0 RETURN INVALID PUSH1 0x80 PUSH1 0x40 MSTORE PUSH1 0x4 CALLDATASIZE LT PUSH2 0x3F JUMPI PUSH1 0x0 CALLDATALOAD PUSH1 0xE0 SHR DUP1 PUSH4 0x969B1567 EQ PUSH2 0x44 JUMPI DUP1 PUSH4 0xC4FB3337 EQ PUSH2 0x74 JUMPI DUP1 PUSH4 0xC9D27AFE EQ PUSH2 0x92 JUMPI DUP1 PUSH4 0xF5C7996C EQ PUSH2 0xBB JUMPI JUMPDEST PUSH1 0x0 DUP1 REVERT JUMPDEST PUSH2 0x5E PUSH1 0x4 DUP1 CALLDATASIZE SUB DUP2 ADD SWAP1 PUSH2 0x59 SWAP2 SWAP1 PUSH2 0xA3C JUMP JUMPDEST PUSH2 0xE4 JUMP JUMPDEST PUSH1 0x40 MLOAD PUSH2 0x6B SWAP2 SWAP1 PUSH2 0xD72 JUMP JUMPDEST PUSH1 0x40 MLOAD DUP1 SWAP2 SUB SWAP1 RETURN JUMPDEST PUSH2 0x7C PUSH2 0x24A JUMP JUMPDEST PUSH1 0x40 MLOAD PUSH2 0x89 SWAP2 SWAP1 PUSH2 0xD72 JUMP JUMPDEST PUSH1 0x40 MLOAD DUP1 SWAP2 SUB SWAP1 RETURN JUMPDEST CALLVALUE DUP1 ISZERO PUSH2 0x9E JUMPI PUSH1 0x0 DUP1 REVERT JUMPDEST POP PUSH2 0xB9 PUSH1 0x4 DUP1 CALLDATASIZE SUB DUP2 ADD SWAP1 PUSH2 0xB4 SWAP2 SWAP1 PUSH2 0xAB2 JUMP JUMPDEST PUSH2 0x3B1 JUMP JUMPDEST STOP JUMPDEST CALLVALUE DUP1 ISZERO PUSH2 0xC7 JUMPI PUSH1 0x0 DUP1 REVERT JUMPDEST POP PUSH2 0xE2 PUSH1 0x4 DUP1 CALLDATASIZE SUB DUP2 ADD SWAP1 PUSH2 0xDD SWAP2 SWAP1 PUSH2 0xA85 JUMP JUMPDEST PUSH2 0x60E JUMP JUMPDEST STOP JUMPDEST PUSH1 0x0 PUSH8 0x8AC7230489E80000 CALLVALUE LT ISZERO PUSH2 0xFB JUMPI PUSH1 0x0 DUP1 REVERT JUMPDEST PUSH1 0x0 PUSH1 0x2 TIMESTAMP DIFFICULTY CALLER PUSH1 0x4 SLOAD PUSH1 0x40 MLOAD PUSH1 0x20 ADD PUSH2 0x118 SWAP5 SWAP4 SWAP3 SWAP2 SWAP1 PUSH2 0xC64 JUMP JUMPDEST PUSH1 0x40 MLOAD PUSH1 0x20 DUP2 DUP4 SUB SUB DUP2 MSTORE SWAP1 PUSH1 0x40 MSTORE PUSH1 0x40 MLOAD PUSH2 0x134 SWAP2 SWAP1 PUSH2 0xC32 JUMP JUMPDEST PUSH1 0x20 PUSH1 0x40 MLOAD DUP1 DUP4 SUB DUP2 DUP6 GAS STATICCALL ISZERO DUP1 ISZERO PUSH2 0x151 JUMPI RETURNDATASIZE PUSH1 0x0 DUP1 RETURNDATACOPY RETURNDATASIZE PUSH1 0x0 REVERT JUMPDEST POP POP POP PUSH1 0x40 MLOAD RETURNDATASIZE PUSH1 0x1F NOT PUSH1 0x1F DUP3 ADD AND DUP3 ADD DUP1 PUSH1 0x40 MSTORE POP DUP2 ADD SWAP1 PUSH2 0x174 SWAP2 SWAP1 PUSH2 0xA0F JUMP JUMPDEST PUSH1 0x0 SHR SWAP1 POP DUP1 PUSH1 0x2 PUSH1 0x0 PUSH1 0x5 SLOAD DUP2 MSTORE PUSH1 0x20 ADD SWAP1 DUP2 MSTORE PUSH1 0x20 ADD PUSH1 0x0 KECCAK256 PUSH1 0x1 ADD DUP2 SWAP1 SSTORE POP PUSH1 0x5 SLOAD PUSH1 0x2 PUSH1 0x0 PUSH1 0x5 SLOAD DUP2 MSTORE PUSH1 0x20 ADD SWAP1 DUP2 MSTORE PUSH1 0x20 ADD PUSH1 0x0 KECCAK256 PUSH1 0x0 ADD DUP2 SWAP1 SSTORE POP CALLER PUSH1 0x2 PUSH1 0x0 PUSH1 0x5 SLOAD DUP2 MSTORE PUSH1 0x20 ADD SWAP1 DUP2 MSTORE PUSH1 0x20 ADD PUSH1 0x0 KECCAK256 PUSH1 0x4 ADD PUSH1 0x0 PUSH2 0x100 EXP DUP2 SLOAD DUP2 PUSH20 0xFFFFFFFFFFFFFFFFFFFFFFFFFFFFFFFFFFFFFFFF MUL NOT AND SWAP1 DUP4 PUSH20 0xFFFFFFFFFFFFFFFFFFFFFFFFFFFFFFFFFFFFFFFF AND MUL OR SWAP1 SSTORE POP DUP3 PUSH1 0x2 PUSH1 0x0 PUSH1 0x5 SLOAD DUP2 MSTORE PUSH1 0x20 ADD SWAP1 DUP2 MSTORE PUSH1 0x20 ADD PUSH1 0x0 KECCAK256 PUSH1 0x3 ADD SWAP1 DUP1 MLOAD SWAP1 PUSH1 0x20 ADD SWAP1 PUSH2 0x238 SWAP3 SWAP2 SWAP1 PUSH2 0x8BD JUMP JUMPDEST POP PUSH2 0x244 PUSH1 0x5 SLOAD PUSH2 0x832 JUMP JUMPDEST POP SWAP2 SWAP1 POP JUMP JUMPDEST PUSH1 0x0 PUSH8 0xDE0B6B3A7640000 CALLVALUE EQ PUSH2 0x296 JUMPI PUSH1 0x40 MLOAD PUSH32 0x8C379A000000000000000000000000000000000000000000000000000000000 DUP2 MSTORE PUSH1 0x4 ADD PUSH2 0x28D SWAP1 PUSH2 0xCF2 JUMP JUMPDEST PUSH1 0x40 MLOAD DUP1 SWAP2 SUB SWAP1 REVERT JUMPDEST PUSH1 0x0 ISZERO ISZERO PUSH1 0x1 PUSH1 0x0 CALLER PUSH20 0xFFFFFFFFFFFFFFFFFFFFFFFFFFFFFFFFFFFFFFFF AND PUSH20 0xFFFFFFFFFFFFFFFFFFFFFFFFFFFFFFFFFFFFFFFF AND DUP2 MSTORE PUSH1 0x20 ADD SWAP1 DUP2 MSTORE PUSH1 0x20 ADD PUSH1 0x0 KECCAK256 PUSH1 0x0 SWAP1 SLOAD SWAP1 PUSH2 0x100 EXP SWAP1 DIV PUSH1 0xFF AND ISZERO ISZERO EQ PUSH2 0x329 JUMPI PUSH1 0x40 MLOAD PUSH32 0x8C379A000000000000000000000000000000000000000000000000000000000 DUP2 MSTORE PUSH1 0x4 ADD PUSH2 0x320 SWAP1 PUSH2 0xCD2 JUMP JUMPDEST PUSH1 0x40 MLOAD DUP1 SWAP2 SUB SWAP1 REVERT JUMPDEST CALLER PUSH1 0x0 PUSH1 0x4 SLOAD DUP2 SLOAD DUP2 LT PUSH2 0x340 JUMPI PUSH2 0x33F PUSH2 0x1077 JUMP JUMPDEST JUMPDEST SWAP1 PUSH1 0x0 MSTORE PUSH1 0x20 PUSH1 0x0 KECCAK256 ADD PUSH1 0x0 PUSH2 0x100 EXP DUP2 SLOAD DUP2 PUSH20 0xFFFFFFFFFFFFFFFFFFFFFFFFFFFFFFFFFFFFFFFF MUL NOT AND SWAP1 DUP4 PUSH20 0xFFFFFFFFFFFFFFFFFFFFFFFFFFFFFFFFFFFFFFFF AND MUL OR SWAP1 SSTORE POP PUSH1 0x1 PUSH1 0x4 SLOAD PUSH2 0x397 SWAP2 SWAP1 PUSH2 0xE0A JUMP JUMPDEST PUSH1 0x4 DUP2 SWAP1 SSTORE POP PUSH1 0x1 PUSH1 0x4 SLOAD PUSH2 0x3AC SWAP2 SWAP1 PUSH2 0xE60 JUMP JUMPDEST SWAP1 POP SWAP1 JUMP JUMPDEST PUSH1 0x1 ISZERO ISZERO PUSH1 0x2 PUSH1 0x0 DUP5 DUP2 MSTORE PUSH1 0x20 ADD SWAP1 DUP2 MSTORE PUSH1 0x20 ADD PUSH1 0x0 KECCAK256 PUSH1 0x2 ADD PUSH1 0x0 CALLER PUSH20 0xFFFFFFFFFFFFFFFFFFFFFFFFFFFFFFFFFFFFFFFF AND PUSH20 0xFFFFFFFFFFFFFFFFFFFFFFFFFFFFFFFFFFFFFFFF AND DUP2 MSTORE PUSH1 0x20 ADD SWAP1 DUP2 MSTORE PUSH1 0x20 ADD PUSH1 0x0 KECCAK256 PUSH1 0x0 SWAP1 SLOAD SWAP1 PUSH2 0x100 EXP SWAP1 DIV PUSH1 0xFF AND ISZERO ISZERO EQ PUSH2 0x458 JUMPI PUSH1 0x40 MLOAD PUSH32 0x8C379A000000000000000000000000000000000000000000000000000000000 DUP2 MSTORE PUSH1 0x4 ADD PUSH2 0x44F SWAP1 PUSH2 0xD32 JUMP JUMPDEST PUSH1 0x40 MLOAD DUP1 SWAP2 SUB SWAP1 REVERT JUMPDEST PUSH1 0x2 PUSH1 0x0 DUP4 DUP2 MSTORE PUSH1 0x20 ADD SWAP1 DUP2 MSTORE PUSH1 0x20 ADD PUSH1 0x0 KECCAK256 PUSH1 0x9 ADD SLOAD NUMBER LT PUSH2 0x4B0 JUMPI PUSH1 0x40 MLOAD PUSH32 0x8C379A000000000000000000000000000000000000000000000000000000000 DUP2 MSTORE PUSH1 0x4 ADD PUSH2 0x4A7 SWAP1 PUSH2 0xCB2 JUMP JUMPDEST PUSH1 0x40 MLOAD DUP1 SWAP2 SUB SWAP1 REVERT JUMPDEST DUP1 ISZERO PUSH2 0x4F8 JUMPI PUSH1 0x1 PUSH1 0x2 PUSH1 0x0 DUP5 DUP2 MSTORE PUSH1 0x20 ADD SWAP1 DUP2 MSTORE PUSH1 0x20 ADD PUSH1 0x0 KECCAK256 PUSH1 0x7 ADD SLOAD PUSH2 0x4D9 SWAP2 SWAP1 PUSH2 0xE0A JUMP JUMPDEST PUSH1 0x2 PUSH1 0x0 DUP5 DUP2 MSTORE PUSH1 0x20 ADD SWAP1 DUP2 MSTORE PUSH1 0x20 ADD PUSH1 0x0 KECCAK256 PUSH1 0x7 ADD DUP2 SWAP1 SSTORE POP PUSH2 0x536 JUMP JUMPDEST PUSH1 0x1 PUSH1 0x2 PUSH1 0x0 DUP5 DUP2 MSTORE PUSH1 0x20 ADD SWAP1 DUP2 MSTORE PUSH1 0x20 ADD PUSH1 0x0 KECCAK256 PUSH1 0x8 ADD SLOAD PUSH2 0x51B SWAP2 SWAP1 PUSH2 0xE0A JUMP JUMPDEST PUSH1 0x2 PUSH1 0x0 DUP5 DUP2 MSTORE PUSH1 0x20 ADD SWAP1 DUP2 MSTORE PUSH1 0x20 ADD PUSH1 0x0 KECCAK256 PUSH1 0x8 ADD DUP2 SWAP1 SSTORE POP JUMPDEST CALLER PUSH20 0xFFFFFFFFFFFFFFFFFFFFFFFFFFFFFFFFFFFFFFFF AND PUSH2 0x8FC PUSH1 0x2 PUSH1 0x0 DUP6 DUP2 MSTORE PUSH1 0x20 ADD SWAP1 DUP2 MSTORE PUSH1 0x20 ADD PUSH1 0x0 KECCAK256 PUSH1 0x5 ADD SLOAD PUSH8 0xDE0B6B3A7640000 PUSH2 0x57A SWAP2 SWAP1 PUSH2 0xE0A JUMP JUMPDEST SWAP1 DUP2 ISZERO MUL SWAP1 PUSH1 0x40 MLOAD PUSH1 0x0 PUSH1 0x40 MLOAD DUP1 DUP4 SUB DUP2 DUP6 DUP9 DUP9 CALL SWAP4 POP POP POP POP ISZERO DUP1 ISZERO PUSH2 0x5A5 JUMPI RETURNDATASIZE PUSH1 0x0 DUP1 RETURNDATACOPY RETURNDATASIZE PUSH1 0x0 REVERT JUMPDEST POP PUSH1 0x0 ISZERO ISZERO PUSH1 0x2 PUSH1 0x0 DUP5 DUP2 MSTORE PUSH1 0x20 ADD SWAP1 DUP2 MSTORE PUSH1 0x20 ADD PUSH1 0x0 KECCAK256 PUSH1 0x2 ADD PUSH1 0x0 CALLER PUSH20 0xFFFFFFFFFFFFFFFFFFFFFFFFFFFFFFFFFFFFFFFF AND PUSH20 0xFFFFFFFFFFFFFFFFFFFFFFFFFFFFFFFFFFFFFFFF AND DUP2 MSTORE PUSH1 0x20 ADD SWAP1 DUP2 MSTORE PUSH1 0x20 ADD PUSH1 0x0 KECCAK256 PUSH1 0x0 SWAP1 SLOAD SWAP1 PUSH2 0x100 EXP SWAP1 POP POP POP POP POP JUMP JUMPDEST CALLER PUSH20 0xFFFFFFFFFFFFFFFFFFFFFFFFFFFFFFFFFFFFFFFF AND PUSH1 0x0 DUP3 DUP2 SLOAD DUP2 LT PUSH2 0x639 JUMPI PUSH2 0x638 PUSH2 0x1077 JUMP JUMPDEST JUMPDEST SWAP1 PUSH1 0x0 MSTORE PUSH1 0x20 PUSH1 0x0 KECCAK256 ADD PUSH1 0x0 SWAP1 SLOAD SWAP1 PUSH2 0x100 EXP SWAP1 DIV PUSH20 0xFFFFFFFFFFFFFFFFFFFFFFFFFFFFFFFFFFFFFFFF AND PUSH20 0xFFFFFFFFFFFFFFFFFFFFFFFFFFFFFFFFFFFFFFFF AND EQ PUSH2 0x6BA JUMPI PUSH1 0x40 MLOAD PUSH32 0x8C379A000000000000000000000000000000000000000000000000000000000 DUP2 MSTORE PUSH1 0x4 ADD PUSH2 0x6B1 SWAP1 PUSH2 0xD52 JUMP JUMPDEST PUSH1 0x40 MLOAD DUP1 SWAP2 SUB SWAP1 REVERT JUMPDEST PUSH1 0x1 ISZERO ISZERO PUSH1 0x1 PUSH1 0x0 CALLER PUSH20 0xFFFFFFFFFFFFFFFFFFFFFFFFFFFFFFFFFFFFFFFF AND PUSH20 0xFFFFFFFFFFFFFFFFFFFFFFFFFFFFFFFFFFFFFFFF AND DUP2 MSTORE PUSH1 0x20 ADD SWAP1 DUP2 MSTORE PUSH1 0x20 ADD PUSH1 0x0 KECCAK256 PUSH1 0x0 SWAP1 SLOAD SWAP1 PUSH2 0x100 EXP SWAP1 DIV PUSH1 0xFF AND ISZERO ISZERO EQ PUSH2 0x74D JUMPI PUSH1 0x40 MLOAD PUSH32 0x8C379A000000000000000000000000000000000000000000000000000000000 DUP2 MSTORE PUSH1 0x4 ADD PUSH2 0x744 SWAP1 PUSH2 0xD12 JUMP JUMPDEST PUSH1 0x40 MLOAD DUP1 SWAP2 SUB SWAP1 REVERT JUMPDEST PUSH1 0x0 ISZERO ISZERO PUSH1 0x1 PUSH1 0x0 CALLER PUSH20 0xFFFFFFFFFFFFFFFFFFFFFFFFFFFFFFFFFFFFFFFF AND PUSH20 0xFFFFFFFFFFFFFFFFFFFFFFFFFFFFFFFFFFFFFFFF AND DUP2 MSTORE PUSH1 0x20 ADD SWAP1 DUP2 MSTORE PUSH1 0x20 ADD PUSH1 0x0 KECCAK256 PUSH1 0x0 SWAP1 SLOAD SWAP1 PUSH2 0x100 EXP SWAP1 POP POP POP PUSH1 0x0 PUSH20 0xFFFFFFFFFFFFFFFFFFFFFFFFFFFFFFFFFFFFFFFF AND PUSH1 0x0 DUP3 DUP2 SLOAD DUP2 LT PUSH2 0x7C9 JUMPI PUSH2 0x7C8 PUSH2 0x1077 JUMP JUMPDEST JUMPDEST SWAP1 PUSH1 0x0 MSTORE PUSH1 0x20 PUSH1 0x0 KECCAK256 ADD PUSH1 0x0 SWAP1 SLOAD SWAP1 PUSH2 0x100 EXP SWAP1 POP POP POP CALLER PUSH20 0xFFFFFFFFFFFFFFFFFFFFFFFFFFFFFFFFFFFFFFFF AND PUSH2 0x8FC PUSH8 0xDE0B6B3A7640000 SWAP1 DUP2 ISZERO MUL SWAP1 PUSH1 0x40 MLOAD PUSH1 0x0 PUSH1 0x40 MLOAD DUP1 DUP4 SUB DUP2 DUP6 DUP9 DUP9 CALL SWAP4 POP POP POP POP ISZERO DUP1 ISZERO PUSH2 0x82E JUMPI RETURNDATASIZE PUSH1 0x0 DUP1 RETURNDATACOPY RETURNDATASIZE PUSH1 0x0 REVERT JUMPDEST POP POP JUMP JUMPDEST PUSH1 0x0 DUP1 DUP1 SLOAD SWAP1 POP PUSH1 0x2 PUSH1 0x4 SLOAD PUSH1 0x40 MLOAD PUSH1 0x20 ADD PUSH2 0x84E SWAP2 SWAP1 PUSH2 0xC49 JUMP JUMPDEST PUSH1 0x40 MLOAD PUSH1 0x20 DUP2 DUP4 SUB SUB DUP2 MSTORE SWAP1 PUSH1 0x40 MSTORE PUSH1 0x40 MLOAD PUSH2 0x86A SWAP2 SWAP1 PUSH2 0xC32 JUMP JUMPDEST PUSH1 0x20 PUSH1 0x40 MLOAD DUP1 DUP4 SUB DUP2 DUP6 GAS STATICCALL ISZERO DUP1 ISZERO PUSH2 0x887 JUMPI RETURNDATASIZE PUSH1 0x0 DUP1 RETURNDATACOPY RETURNDATASIZE PUSH1 0x0 REVERT JUMPDEST POP POP POP PUSH1 0x40 MLOAD RETURNDATASIZE PUSH1 0x1F NOT PUSH1 0x1F DUP3 ADD AND DUP3 ADD DUP1 PUSH1 0x40 MSTORE POP DUP2 ADD SWAP1 PUSH2 0x8AA SWAP2 SWAP1 PUSH2 0xA0F JUMP JUMPDEST PUSH1 0x0 SHR PUSH2 0x8B7 SWAP2 SWAP1 PUSH2 0xFB9 JUMP JUMPDEST SWAP1 POP POP POP JUMP JUMPDEST DUP3 DUP1 SLOAD PUSH2 0x8C9 SWAP1 PUSH2 0xF28 JUMP JUMPDEST SWAP1 PUSH1 0x0 MSTORE PUSH1 0x20 PUSH1 0x0 KECCAK256 SWAP1 PUSH1 0x1F ADD PUSH1 0x20 SWAP1 DIV DUP2 ADD SWAP3 DUP3 PUSH2 0x8EB JUMPI PUSH1 0x0 DUP6 SSTORE PUSH2 0x932 JUMP JUMPDEST DUP3 PUSH1 0x1F LT PUSH2 0x904 JUMPI DUP1 MLOAD PUSH1 0xFF NOT AND DUP4 DUP1 ADD OR DUP6 SSTORE PUSH2 0x932 JUMP JUMPDEST DUP3 DUP1 ADD PUSH1 0x1 ADD DUP6 SSTORE DUP3 ISZERO PUSH2 0x932 JUMPI SWAP2 DUP3 ADD JUMPDEST DUP3 DUP2 GT ISZERO PUSH2 0x931 JUMPI DUP3 MLOAD DUP3 SSTORE SWAP2 PUSH1 0x20 ADD SWAP2 SWAP1 PUSH1 0x1 ADD SWAP1 PUSH2 0x916 JUMP JUMPDEST JUMPDEST POP SWAP1 POP PUSH2 0x93F SWAP2 SWAP1 PUSH2 0x943 JUMP JUMPDEST POP SWAP1 JUMP JUMPDEST JUMPDEST DUP1 DUP3 GT ISZERO PUSH2 0x95C JUMPI PUSH1 0x0 DUP2 PUSH1 0x0 SWAP1 SSTORE POP PUSH1 0x1 ADD PUSH2 0x944 JUMP JUMPDEST POP SWAP1 JUMP JUMPDEST PUSH1 0x0 PUSH2 0x973 PUSH2 0x96E DUP5 PUSH2 0xDB2 JUMP JUMPDEST PUSH2 0xD8D JUMP JUMPDEST SWAP1 POP DUP3 DUP2 MSTORE PUSH1 0x20 DUP2 ADD DUP5 DUP5 DUP5 ADD GT ISZERO PUSH2 0x98F JUMPI PUSH2 0x98E PUSH2 0x10DA JUMP JUMPDEST JUMPDEST PUSH2 0x99A DUP5 DUP3 DUP6 PUSH2 0xEE6 JUMP JUMPDEST POP SWAP4 SWAP3 POP POP POP JUMP JUMPDEST PUSH1 0x0 DUP2 CALLDATALOAD SWAP1 POP PUSH2 0x9B1 DUP2 PUSH2 0x1249 JUMP JUMPDEST SWAP3 SWAP2 POP POP JUMP JUMPDEST PUSH1 0x0 DUP2 MLOAD SWAP1 POP PUSH2 0x9C6 DUP2 PUSH2 0x1260 JUMP JUMPDEST SWAP3 SWAP2 POP POP JUMP JUMPDEST PUSH1 0x0 DUP3 PUSH1 0x1F DUP4 ADD SLT PUSH2 0x9E1 JUMPI PUSH2 0x9E0 PUSH2 0x10D5 JUMP JUMPDEST JUMPDEST DUP2 CALLDATALOAD PUSH2 0x9F1 DUP5 DUP3 PUSH1 0x20 DUP7 ADD PUSH2 0x960 JUMP JUMPDEST SWAP2 POP POP SWAP3 SWAP2 POP POP JUMP JUMPDEST PUSH1 0x0 DUP2 CALLDATALOAD SWAP1 POP PUSH2 0xA09 DUP2 PUSH2 0x1277 JUMP JUMPDEST SWAP3 SWAP2 POP POP JUMP JUMPDEST PUSH1 0x0 PUSH1 0x20 DUP3 DUP5 SUB SLT ISZERO PUSH2 0xA25 JUMPI PUSH2 0xA24 PUSH2 0x10E4 JUMP JUMPDEST JUMPDEST PUSH1 0x0 PUSH2 0xA33 DUP5 DUP3 DUP6 ADD PUSH2 0x9B7 JUMP JUMPDEST SWAP2 POP POP SWAP3 SWAP2 POP POP JUMP JUMPDEST PUSH1 0x0 PUSH1 0x20 DUP3 DUP5 SUB SLT ISZERO PUSH2 0xA52 JUMPI PUSH2 0xA51 PUSH2 0x10E4 JUMP JUMPDEST JUMPDEST PUSH1 0x0 DUP3 ADD CALLDATALOAD PUSH8 0xFFFFFFFFFFFFFFFF DUP2 GT ISZERO PUSH2 0xA70 JUMPI PUSH2 0xA6F PUSH2 0x10DF JUMP JUMPDEST JUMPDEST PUSH2 0xA7C DUP5 DUP3 DUP6 ADD PUSH2 0x9CC JUMP JUMPDEST SWAP2 POP POP SWAP3 SWAP2 POP POP JUMP JUMPDEST PUSH1 0x0 PUSH1 0x20 DUP3 DUP5 SUB SLT ISZERO PUSH2 0xA9B JUMPI PUSH2 0xA9A PUSH2 0x10E4 JUMP JUMPDEST JUMPDEST PUSH1 0x0 PUSH2 0xAA9 DUP5 DUP3 DUP6 ADD PUSH2 0x9FA JUMP JUMPDEST SWAP2 POP POP SWAP3 SWAP2 POP POP JUMP JUMPDEST PUSH1 0x0 DUP1 PUSH1 0x40 DUP4 DUP6 SUB SLT ISZERO PUSH2 0xAC9 JUMPI PUSH2 0xAC8 PUSH2 0x10E4 JUMP JUMPDEST JUMPDEST PUSH1 0x0 PUSH2 0xAD7 DUP6 DUP3 DUP7 ADD PUSH2 0x9FA JUMP JUMPDEST SWAP3 POP POP PUSH1 0x20 PUSH2 0xAE8 DUP6 DUP3 DUP7 ADD PUSH2 0x9A2 JUMP JUMPDEST SWAP2 POP POP SWAP3 POP SWAP3 SWAP1 POP JUMP JUMPDEST PUSH2 0xB03 PUSH2 0xAFE DUP3 PUSH2 0xE94 JUMP JUMPDEST PUSH2 0xF8B JUMP JUMPDEST DUP3 MSTORE POP POP JUMP JUMPDEST PUSH1 0x0 PUSH2 0xB14 DUP3 PUSH2 0xDE3 JUMP JUMPDEST PUSH2 0xB1E DUP2 DUP6 PUSH2 0xDEE JUMP JUMPDEST SWAP4 POP PUSH2 0xB2E DUP2 DUP6 PUSH1 0x20 DUP7 ADD PUSH2 0xEF5 JUMP JUMPDEST DUP1 DUP5 ADD SWAP2 POP POP SWAP3 SWAP2 POP POP JUMP JUMPDEST PUSH1 0x0 PUSH2 0xB47 PUSH1 0x11 DUP4 PUSH2 0xDF9 JUMP JUMPDEST SWAP2 POP PUSH2 0xB52 DUP3 PUSH2 0x1107 JUMP JUMPDEST PUSH1 0x20 DUP3 ADD SWAP1 POP SWAP2 SWAP1 POP JUMP JUMPDEST PUSH1 0x0 PUSH2 0xB6A PUSH1 0x12 DUP4 PUSH2 0xDF9 JUMP JUMPDEST SWAP2 POP PUSH2 0xB75 DUP3 PUSH2 0x1130 JUMP JUMPDEST PUSH1 0x20 DUP3 ADD SWAP1 POP SWAP2 SWAP1 POP JUMP JUMPDEST PUSH1 0x0 PUSH2 0xB8D PUSH1 0x28 DUP4 PUSH2 0xDF9 JUMP JUMPDEST SWAP2 POP PUSH2 0xB98 DUP3 PUSH2 0x1159 JUMP JUMPDEST PUSH1 0x40 DUP3 ADD SWAP1 POP SWAP2 SWAP1 POP JUMP JUMPDEST PUSH1 0x0 PUSH2 0xBB0 PUSH1 0xE DUP4 PUSH2 0xDF9 JUMP JUMPDEST SWAP2 POP PUSH2 0xBBB DUP3 PUSH2 0x11A8 JUMP JUMPDEST PUSH1 0x20 DUP3 ADD SWAP1 POP SWAP2 SWAP1 POP JUMP JUMPDEST PUSH1 0x0 PUSH2 0xBD3 PUSH1 0x21 DUP4 PUSH2 0xDF9 JUMP JUMPDEST SWAP2 POP PUSH2 0xBDE DUP3 PUSH2 0x11D1 JUMP JUMPDEST PUSH1 0x40 DUP3 ADD SWAP1 POP SWAP2 SWAP1 POP JUMP JUMPDEST PUSH1 0x0 PUSH2 0xBF6 PUSH1 0x1E DUP4 PUSH2 0xDF9 JUMP JUMPDEST SWAP2 POP PUSH2 0xC01 DUP3 PUSH2 0x1220 JUMP JUMPDEST PUSH1 0x20 DUP3 ADD SWAP1 POP SWAP2 SWAP1 POP JUMP JUMPDEST PUSH2 0xC15 DUP2 PUSH2 0xEDC JUMP JUMPDEST DUP3 MSTORE POP POP JUMP JUMPDEST PUSH2 0xC2C PUSH2 0xC27 DUP3 PUSH2 0xEDC JUMP JUMPDEST PUSH2 0xFAF JUMP JUMPDEST DUP3 MSTORE POP POP JUMP JUMPDEST PUSH1 0x0 PUSH2 0xC3E DUP3 DUP5 PUSH2 0xB09 JUMP JUMPDEST SWAP2 POP DUP2 SWAP1 POP SWAP3 SWAP2 POP POP JUMP JUMPDEST PUSH1 0x0 PUSH2 0xC55 DUP3 DUP5 PUSH2 0xC1B JUMP JUMPDEST PUSH1 0x20 DUP3 ADD SWAP2 POP DUP2 SWAP1 POP SWAP3 SWAP2 POP POP JUMP JUMPDEST PUSH1 0x0 PUSH2 0xC70 DUP3 DUP8 PUSH2 0xC1B JUMP JUMPDEST PUSH1 0x20 DUP3 ADD SWAP2 POP PUSH2 0xC80 DUP3 DUP7 PUSH2 0xC1B JUMP JUMPDEST PUSH1 0x20 DUP3 ADD SWAP2 POP PUSH2 0xC90 DUP3 DUP6 PUSH2 0xAF2 JUMP JUMPDEST PUSH1 0x14 DUP3 ADD SWAP2 POP PUSH2 0xCA0 DUP3 DUP5 PUSH2 0xC1B JUMP JUMPDEST PUSH1 0x20 DUP3 ADD SWAP2 POP DUP2 SWAP1 POP SWAP6 SWAP5 POP POP POP POP POP JUMP JUMPDEST PUSH1 0x0 PUSH1 0x20 DUP3 ADD SWAP1 POP DUP2 DUP2 SUB PUSH1 0x0 DUP4 ADD MSTORE PUSH2 0xCCB DUP2 PUSH2 0xB3A JUMP JUMPDEST SWAP1 POP SWAP2 SWAP1 POP JUMP JUMPDEST PUSH1 0x0 PUSH1 0x20 DUP3 ADD SWAP1 POP DUP2 DUP2 SUB PUSH1 0x0 DUP4 ADD MSTORE PUSH2 0xCEB DUP2 PUSH2 0xB5D JUMP JUMPDEST SWAP1 POP SWAP2 SWAP1 POP JUMP JUMPDEST PUSH1 0x0 PUSH1 0x20 DUP3 ADD SWAP1 POP DUP2 DUP2 SUB PUSH1 0x0 DUP4 ADD MSTORE PUSH2 0xD0B DUP2 PUSH2 0xB80 JUMP JUMPDEST SWAP1 POP SWAP2 SWAP1 POP JUMP JUMPDEST PUSH1 0x0 PUSH1 0x20 DUP3 ADD SWAP1 POP DUP2 DUP2 SUB PUSH1 0x0 DUP4 ADD MSTORE PUSH2 0xD2B DUP2 PUSH2 0xBA3 JUMP JUMPDEST SWAP1 POP SWAP2 SWAP1 POP JUMP JUMPDEST PUSH1 0x0 PUSH1 0x20 DUP3 ADD SWAP1 POP DUP2 DUP2 SUB PUSH1 0x0 DUP4 ADD MSTORE PUSH2 0xD4B DUP2 PUSH2 0xBC6 JUMP JUMPDEST SWAP1 POP SWAP2 SWAP1 POP JUMP JUMPDEST PUSH1 0x0 PUSH1 0x20 DUP3 ADD SWAP1 POP DUP2 DUP2 SUB PUSH1 0x0 DUP4 ADD MSTORE PUSH2 0xD6B DUP2 PUSH2 0xBE9 JUMP JUMPDEST SWAP1 POP SWAP2 SWAP1 POP JUMP JUMPDEST PUSH1 0x0 PUSH1 0x20 DUP3 ADD SWAP1 POP PUSH2 0xD87 PUSH1 0x0 DUP4 ADD DUP5 PUSH2 0xC0C JUMP JUMPDEST SWAP3 SWAP2 POP POP JUMP JUMPDEST PUSH1 0x0 PUSH2 0xD97 PUSH2 0xDA8 JUMP JUMPDEST SWAP1 POP PUSH2 0xDA3 DUP3 DUP3 PUSH2 0xF5A JUMP JUMPDEST SWAP2 SWAP1 POP JUMP JUMPDEST PUSH1 0x0 PUSH1 0x40 MLOAD SWAP1 POP SWAP1 JUMP JUMPDEST PUSH1 0x0 PUSH8 0xFFFFFFFFFFFFFFFF DUP3 GT ISZERO PUSH2 0xDCD JUMPI PUSH2 0xDCC PUSH2 0x10A6 JUMP JUMPDEST JUMPDEST PUSH2 0xDD6 DUP3 PUSH2 0x10E9 JUMP JUMPDEST SWAP1 POP PUSH1 0x20 DUP2 ADD SWAP1 POP SWAP2 SWAP1 POP JUMP JUMPDEST PUSH1 0x0 DUP2 MLOAD SWAP1 POP SWAP2 SWAP1 POP JUMP JUMPDEST PUSH1 0x0 DUP2 SWAP1 POP SWAP3 SWAP2 POP POP JUMP JUMPDEST PUSH1 0x0 DUP3 DUP3 MSTORE PUSH1 0x20 DUP3 ADD SWAP1 POP SWAP3 SWAP2 POP POP JUMP JUMPDEST PUSH1 0x0 PUSH2 0xE15 DUP3 PUSH2 0xEDC JUMP JUMPDEST SWAP2 POP PUSH2 0xE20 DUP4 PUSH2 0xEDC JUMP JUMPDEST SWAP3 POP DUP3 PUSH32 0xFFFFFFFFFFFFFFFFFFFFFFFFFFFFFFFFFFFFFFFFFFFFFFFFFFFFFFFFFFFFFFFF SUB DUP3 GT ISZERO PUSH2 0xE55 JUMPI PUSH2 0xE54 PUSH2 0xFEA JUMP JUMPDEST JUMPDEST DUP3 DUP3 ADD SWAP1 POP SWAP3 SWAP2 POP POP JUMP JUMPDEST PUSH1 0x0 PUSH2 0xE6B DUP3 PUSH2 0xEDC JUMP JUMPDEST SWAP2 POP PUSH2 0xE76 DUP4 PUSH2 0xEDC JUMP JUMPDEST SWAP3 POP DUP3 DUP3 LT ISZERO PUSH2 0xE89 JUMPI PUSH2 0xE88 PUSH2 0xFEA JUMP JUMPDEST JUMPDEST DUP3 DUP3 SUB SWAP1 POP SWAP3 SWAP2 POP POP JUMP JUMPDEST PUSH1 0x0 PUSH2 0xE9F DUP3 PUSH2 0xEBC JUMP JUMPDEST SWAP1 POP SWAP2 SWAP1 POP JUMP JUMPDEST PUSH1 0x0 DUP2 ISZERO ISZERO SWAP1 POP SWAP2 SWAP1 POP JUMP JUMPDEST PUSH1 0x0 DUP2 SWAP1 POP SWAP2 SWAP1 POP JUMP JUMPDEST PUSH1 0x0 PUSH20 0xFFFFFFFFFFFFFFFFFFFFFFFFFFFFFFFFFFFFFFFF DUP3 AND SWAP1 POP SWAP2 SWAP1 POP JUMP JUMPDEST PUSH1 0x0 DUP2 SWAP1 POP SWAP2 SWAP1 POP JUMP JUMPDEST DUP3 DUP2 DUP4 CALLDATACOPY PUSH1 0x0 DUP4 DUP4 ADD MSTORE POP POP POP JUMP JUMPDEST PUSH1 0x0 JUMPDEST DUP4 DUP2 LT ISZERO PUSH2 0xF13 JUMPI DUP1 DUP3 ADD MLOAD DUP2 DUP5 ADD MSTORE PUSH1 0x20 DUP2 ADD SWAP1 POP PUSH2 0xEF8 JUMP JUMPDEST DUP4 DUP2 GT ISZERO PUSH2 0xF22 JUMPI PUSH1 0x0 DUP5 DUP5 ADD MSTORE JUMPDEST POP POP POP POP JUMP JUMPDEST PUSH1 0x0 PUSH1 0x2 DUP3 DIV SWAP1 POP PUSH1 0x1 DUP3 AND DUP1 PUSH2 0xF40 JUMPI PUSH1 0x7F DUP3 AND SWAP2 POP JUMPDEST PUSH1 0x20 DUP3 LT DUP2 EQ ISZERO PUSH2 0xF54 JUMPI PUSH2 0xF53 PUSH2 0x1048 JUMP JUMPDEST JUMPDEST POP SWAP2 SWAP1 POP JUMP JUMPDEST PUSH2 0xF63 DUP3 PUSH2 0x10E9 JUMP JUMPDEST DUP2 ADD DUP2 DUP2 LT PUSH8 0xFFFFFFFFFFFFFFFF DUP3 GT OR ISZERO PUSH2 0xF82 JUMPI PUSH2 0xF81 PUSH2 0x10A6 JUMP JUMPDEST JUMPDEST DUP1 PUSH1 0x40 MSTORE POP POP POP JUMP JUMPDEST PUSH1 0x0 PUSH2 0xF96 DUP3 PUSH2 0xF9D JUMP JUMPDEST SWAP1 POP SWAP2 SWAP1 POP JUMP JUMPDEST PUSH1 0x0 PUSH2 0xFA8 DUP3 PUSH2 0x10FA JUMP JUMPDEST SWAP1 POP SWAP2 SWAP1 POP JUMP JUMPDEST PUSH1 0x0 DUP2 SWAP1 POP SWAP2 SWAP1 POP JUMP JUMPDEST PUSH1 0x0 PUSH2 0xFC4 DUP3 PUSH2 0xEDC JUMP JUMPDEST SWAP2 POP PUSH2 0xFCF DUP4 PUSH2 0xEDC JUMP JUMPDEST SWAP3 POP DUP3 PUSH2 0xFDF JUMPI PUSH2 0xFDE PUSH2 0x1019 JUMP JUMPDEST JUMPDEST DUP3 DUP3 MOD SWAP1 POP SWAP3 SWAP2 POP POP JUMP JUMPDEST PUSH32 0x4E487B7100000000000000000000000000000000000000000000000000000000 PUSH1 0x0 MSTORE PUSH1 0x11 PUSH1 0x4 MSTORE PUSH1 0x24 PUSH1 0x0 REVERT JUMPDEST PUSH32 0x4E487B7100000000000000000000000000000000000000000000000000000000 PUSH1 0x0 MSTORE PUSH1 0x12 PUSH1 0x4 MSTORE PUSH1 0x24 PUSH1 0x0 REVERT JUMPDEST PUSH32 0x4E487B7100000000000000000000000000000000000000000000000000000000 PUSH1 0x0 MSTORE PUSH1 0x22 PUSH1 0x4 MSTORE PUSH1 0x24 PUSH1 0x0 REVERT JUMPDEST PUSH32 0x4E487B7100000000000000000000000000000000000000000000000000000000 PUSH1 0x0 MSTORE PUSH1 0x32 PUSH1 0x4 MSTORE PUSH1 0x24 PUSH1 0x0 REVERT JUMPDEST PUSH32 0x4E487B7100000000000000000000000000000000000000000000000000000000 PUSH1 0x0 MSTORE PUSH1 0x41 PUSH1 0x4 MSTORE PUSH1 0x24 PUSH1 0x0 REVERT JUMPDEST PUSH1 0x0 DUP1 REVERT JUMPDEST PUSH1 0x0 DUP1 REVERT JUMPDEST PUSH1 0x0 DUP1 REVERT JUMPDEST PUSH1 0x0 DUP1 REVERT JUMPDEST PUSH1 0x0 PUSH1 0x1F NOT PUSH1 0x1F DUP4 ADD AND SWAP1 POP SWAP2 SWAP1 POP JUMP JUMPDEST PUSH1 0x0 DUP2 PUSH1 0x60 SHL SWAP1 POP SWAP2 SWAP1 POP JUMP JUMPDEST PUSH32 0x566F74696E672068617320636C6F736564000000000000000000000000000000 PUSH1 0x0 DUP3 ADD MSTORE POP JUMP JUMPDEST PUSH32 0x416C7265616479207369676E6564207570210000000000000000000000000000 PUSH1 0x0 DUP3 ADD MSTORE POP JUMP JUMPDEST PUSH32 0x5369676E2D75702072656A65637465642120496E616465717561746520737461 PUSH1 0x0 DUP3 ADD MSTORE PUSH32 0x6B652076616C7565000000000000000000000000000000000000000000000000 PUSH1 0x20 DUP3 ADD MSTORE POP JUMP JUMPDEST PUSH32 0x4E6F74207369676E656420757021000000000000000000000000000000000000 PUSH1 0x0 DUP3 ADD MSTORE POP JUMP JUMPDEST PUSH32 0x4E6F7420612076616C696461746F7220666F7220746869732072657175657374 PUSH1 0x0 DUP3 ADD MSTORE PUSH32 0x2100000000000000000000000000000000000000000000000000000000000000 PUSH1 0x20 DUP3 ADD MSTORE POP JUMP JUMPDEST PUSH32 0x494420646F65736E2774206D6174636820796F75722061646472657373210000 PUSH1 0x0 DUP3 ADD MSTORE POP JUMP JUMPDEST PUSH2 0x1252 DUP2 PUSH2 0xEA6 JUMP JUMPDEST DUP2 EQ PUSH2 0x125D JUMPI PUSH1 0x0 DUP1 REVERT JUMPDEST POP JUMP JUMPDEST PUSH2 0x1269 DUP2 PUSH2 0xEB2 JUMP JUMPDEST DUP2 EQ PUSH2 0x1274 JUMPI PUSH1 0x0 DUP1 REVERT JUMPDEST POP JUMP JUMPDEST PUSH2 0x1280 DUP2 PUSH2 0xEDC JUMP JUMPDEST DUP2 EQ PUSH2 0x128B JUMPI PUSH1 0x0 DUP1 REVERT JUMPDEST POP JUMP INVALID LOG2 PUSH5 0x6970667358 0x22 SLT KECCAK256 REVERT ADDRESS PUSH12 0x5D20B9DB4E46B383E353E28F 0xE5 0x21 0xA8 0xAF 0xAB DUP7 REVERT SWAP2 0x49 PUSH16 0x5D400DFF11C02D64736F6C6343000807 STOP CALLER "
				},
				"gasEstimates": {
					"creation": {
						"codeDepositCost": "960800",
						"executionCost": "1001",
						"totalCost": "961801"
					},
					"external": {
						"cancel_signup(uint256)": "infinite",
						"request_verification(string)": "infinite",
						"sign_up()": "infinite",
						"vote(uint256,bool)": "infinite"
					},
					"internal": {
						"chooseValidators(uint256)": "infinite"
					}
				},
				"methodIdentifiers": {
					"cancel_signup(uint256)": "f5c7996c",
					"request_verification(string)": "969b1567",
					"sign_up()": "c4fb3337",
					"vote(uint256,bool)": "c9d27afe"
				}
			},
			"userdoc": {
				"kind": "user",
				"methods": {},
				"version": 1
			}
		}
	}
}