{
	"Desktop/EthCA/blockchain/EthCA.sol": {
		"EthCA": {
			"abi": [
				{
					"inputs": [],
					"name": "cancel_signup",
					"outputs": [],
					"stateMutability": "nonpayable",
					"type": "function"
				},
				{
					"inputs": [
						{
							"internalType": "string",
							"name": "domain",
							"type": "string"
						}
					],
					"name": "request_verification",
					"outputs": [
						{
							"internalType": "uint256",
							"name": "",
							"type": "uint256"
						}
					],
					"stateMutability": "payable",
					"type": "function"
				},
				{
					"inputs": [],
					"name": "sign_up",
					"outputs": [
						{
							"internalType": "uint256",
							"name": "",
							"type": "uint256"
						}
					],
					"stateMutability": "payable",
					"type": "function"
				},
				{
					"inputs": [
						{
							"internalType": "uint256",
							"name": "requestID",
							"type": "uint256"
						},
						{
							"internalType": "bool",
							"name": "vote",
							"type": "bool"
						}
					],
					"name": "vote",
					"outputs": [],
					"stateMutability": "nonpayable",
					"type": "function"
				}
			],
			"devdoc": {
				"kind": "dev",
				"methods": {},
				"version": 1
			},
			"evm": {
				"assembly": "    /* \"Desktop/EthCA/blockchain/EthCA.sol\":204:3289  contract EthCA {... */\n  mstore(0x40, 0x80)\n  callvalue\n  dup1\n  iszero\n  tag_1\n  jumpi\n  0x00\n  dup1\n  revert\ntag_1:\n  pop\n  dataSize(sub_0)\n  dup1\n  dataOffset(sub_0)\n  0x00\n  codecopy\n  0x00\n  return\nstop\n\nsub_0: assembly {\n        /* \"Desktop/EthCA/blockchain/EthCA.sol\":204:3289  contract EthCA {... */\n      mstore(0x40, 0x80)\n      jumpi(tag_1, lt(calldatasize, 0x04))\n      shr(0xe0, calldataload(0x00))\n      dup1\n      0x969b1567\n      eq\n      tag_2\n      jumpi\n      dup1\n      0xc09f8ff6\n      eq\n      tag_3\n      jumpi\n      dup1\n      0xc4fb3337\n      eq\n      tag_4\n      jumpi\n      dup1\n      0xc9d27afe\n      eq\n      tag_5\n      jumpi\n    tag_1:\n      0x00\n      dup1\n      revert\n        /* \"Desktop/EthCA/blockchain/EthCA.sol\":1216:1843  function request_verification(string memory domain) public payable returns (uint) {... */\n    tag_2:\n      tag_6\n      0x04\n      dup1\n      calldatasize\n      sub\n      dup2\n      add\n      swap1\n      tag_7\n      swap2\n      swap1\n      tag_8\n      jump\t// in\n    tag_7:\n      tag_9\n      jump\t// in\n    tag_6:\n      mload(0x40)\n      tag_10\n      swap2\n      swap1\n      tag_11\n      jump\t// in\n    tag_10:\n      mload(0x40)\n      dup1\n      swap2\n      sub\n      swap1\n      return\n        /* \"Desktop/EthCA/blockchain/EthCA.sol\":2193:2383  function cancel_signup() public {... */\n    tag_3:\n      callvalue\n      dup1\n      iszero\n      tag_12\n      jumpi\n      0x00\n      dup1\n      revert\n    tag_12:\n      pop\n      tag_13\n      tag_14\n      jump\t// in\n    tag_13:\n      stop\n        /* \"Desktop/EthCA/blockchain/EthCA.sol\":1848:2106  function sign_up() public payable returns (uint) {... */\n    tag_4:\n      tag_15\n      tag_16\n      jump\t// in\n    tag_15:\n      mload(0x40)\n      tag_17\n      swap2\n      swap1\n      tag_11\n      jump\t// in\n    tag_17:\n      mload(0x40)\n      dup1\n      swap2\n      sub\n      swap1\n      return\n        /* \"Desktop/EthCA/blockchain/EthCA.sol\":2459:3287  function vote(uint requestID, bool vote) public {... */\n    tag_5:\n      callvalue\n      dup1\n      iszero\n      tag_18\n      jumpi\n      0x00\n      dup1\n      revert\n    tag_18:\n      pop\n      tag_19\n      0x04\n      dup1\n      calldatasize\n      sub\n      dup2\n      add\n      swap1\n      tag_20\n      swap2\n      swap1\n      tag_21\n      jump\t// in\n    tag_20:\n      tag_22\n      jump\t// in\n    tag_19:\n      stop\n        /* \"Desktop/EthCA/blockchain/EthCA.sol\":1216:1843  function request_verification(string memory domain) public payable returns (uint) {... */\n    tag_9:\n        /* \"Desktop/EthCA/blockchain/EthCA.sol\":1292:1296  uint */\n      0x00\n        /* \"Desktop/EthCA/blockchain/EthCA.sol\":1329:1337  10 ether */\n      0x8ac7230489e80000\n        /* \"Desktop/EthCA/blockchain/EthCA.sol\":1316:1325  msg.value */\n      callvalue\n        /* \"Desktop/EthCA/blockchain/EthCA.sol\":1316:1337  msg.value >= 10 ether */\n      lt\n      iszero\n        /* \"Desktop/EthCA/blockchain/EthCA.sol\":1308:1338  require(msg.value >= 10 ether) */\n      tag_24\n      jumpi\n      0x00\n      dup1\n      revert\n    tag_24:\n        /* \"Desktop/EthCA/blockchain/EthCA.sol\":1424:1434  uint nonce */\n      0x00\n        /* \"Desktop/EthCA/blockchain/EthCA.sol\":1442:1525  sha256(abi.encodePacked(block.timestamp, block.difficulty, msg.sender, numsignups)) */\n      0x02\n        /* \"Desktop/EthCA/blockchain/EthCA.sol\":1466:1481  block.timestamp */\n      timestamp\n        /* \"Desktop/EthCA/blockchain/EthCA.sol\":1483:1499  block.difficulty */\n      difficulty\n        /* \"Desktop/EthCA/blockchain/EthCA.sol\":1501:1511  msg.sender */\n      caller\n        /* \"Desktop/EthCA/blockchain/EthCA.sol\":1513:1523  numsignups */\n      sload(0x04)\n        /* \"Desktop/EthCA/blockchain/EthCA.sol\":1449:1524  abi.encodePacked(block.timestamp, block.difficulty, msg.sender, numsignups) */\n      add(0x20, mload(0x40))\n      tag_25\n      swap5\n      swap4\n      swap3\n      swap2\n      swap1\n      tag_26\n      jump\t// in\n    tag_25:\n      mload(0x40)\n      0x20\n      dup2\n      dup4\n      sub\n      sub\n      dup2\n      mstore\n      swap1\n      0x40\n      mstore\n        /* \"Desktop/EthCA/blockchain/EthCA.sol\":1442:1525  sha256(abi.encodePacked(block.timestamp, block.difficulty, msg.sender, numsignups)) */\n      mload(0x40)\n      tag_27\n      swap2\n      swap1\n      tag_28\n      jump\t// in\n    tag_27:\n      0x20\n      mload(0x40)\n      dup1\n      dup4\n      sub\n      dup2\n      dup6\n      gas\n      staticcall\n      iszero\n      dup1\n      iszero\n      tag_30\n      jumpi\n      returndatasize\n      0x00\n      dup1\n      returndatacopy\n      revert(0x00, returndatasize)\n    tag_30:\n      pop\n      pop\n      pop\n      mload(0x40)\n      returndatasize\n      not(0x1f)\n      0x1f\n      dup3\n      add\n      and\n      dup3\n      add\n      dup1\n      0x40\n      mstore\n      pop\n      dup2\n      add\n      swap1\n      tag_31\n      swap2\n      swap1\n      tag_32\n      jump\t// in\n    tag_31:\n        /* \"Desktop/EthCA/blockchain/EthCA.sol\":1437:1526  uint(sha256(abi.encodePacked(block.timestamp, block.difficulty, msg.sender, numsignups))) */\n      0x00\n      shr\n        /* \"Desktop/EthCA/blockchain/EthCA.sol\":1424:1526  uint nonce = uint(sha256(abi.encodePacked(block.timestamp, block.difficulty, msg.sender, numsignups))) */\n      swap1\n      pop\n        /* \"Desktop/EthCA/blockchain/EthCA.sol\":1604:1609  nonce */\n      dup1\n        /* \"Desktop/EthCA/blockchain/EthCA.sol\":1574:1582  requests */\n      0x02\n        /* \"Desktop/EthCA/blockchain/EthCA.sol\":1574:1595  requests[numRequests] */\n      0x00\n        /* \"Desktop/EthCA/blockchain/EthCA.sol\":1583:1594  numRequests */\n      sload(0x05)\n        /* \"Desktop/EthCA/blockchain/EthCA.sol\":1574:1595  requests[numRequests] */\n      dup2\n      mstore\n      0x20\n      add\n      swap1\n      dup2\n      mstore\n      0x20\n      add\n      0x00\n      keccak256\n        /* \"Desktop/EthCA/blockchain/EthCA.sol\":1574:1601  requests[numRequests].nonce */\n      0x01\n      add\n        /* \"Desktop/EthCA/blockchain/EthCA.sol\":1574:1609  requests[numRequests].nonce = nonce */\n      dup2\n      swap1\n      sstore\n      pop\n        /* \"Desktop/EthCA/blockchain/EthCA.sol\":1646:1657  numRequests */\n      sload(0x05)\n        /* \"Desktop/EthCA/blockchain/EthCA.sol\":1619:1627  requests */\n      0x02\n        /* \"Desktop/EthCA/blockchain/EthCA.sol\":1619:1640  requests[numRequests] */\n      0x00\n        /* \"Desktop/EthCA/blockchain/EthCA.sol\":1628:1639  numRequests */\n      sload(0x05)\n        /* \"Desktop/EthCA/blockchain/EthCA.sol\":1619:1640  requests[numRequests] */\n      dup2\n      mstore\n      0x20\n      add\n      swap1\n      dup2\n      mstore\n      0x20\n      add\n      0x00\n      keccak256\n        /* \"Desktop/EthCA/blockchain/EthCA.sol\":1619:1643  requests[numRequests].id */\n      0x00\n      add\n        /* \"Desktop/EthCA/blockchain/EthCA.sol\":1619:1657  requests[numRequests].id = numRequests */\n      dup2\n      swap1\n      sstore\n      pop\n        /* \"Desktop/EthCA/blockchain/EthCA.sol\":1698:1708  msg.sender */\n      caller\n        /* \"Desktop/EthCA/blockchain/EthCA.sol\":1667:1675  requests */\n      0x02\n        /* \"Desktop/EthCA/blockchain/EthCA.sol\":1667:1688  requests[numRequests] */\n      0x00\n        /* \"Desktop/EthCA/blockchain/EthCA.sol\":1676:1687  numRequests */\n      sload(0x05)\n        /* \"Desktop/EthCA/blockchain/EthCA.sol\":1667:1688  requests[numRequests] */\n      dup2\n      mstore\n      0x20\n      add\n      swap1\n      dup2\n      mstore\n      0x20\n      add\n      0x00\n      keccak256\n        /* \"Desktop/EthCA/blockchain/EthCA.sol\":1667:1695  requests[numRequests].sender */\n      0x04\n      add\n      0x00\n        /* \"Desktop/EthCA/blockchain/EthCA.sol\":1667:1708  requests[numRequests].sender = msg.sender */\n      0x0100\n      exp\n      dup2\n      sload\n      dup2\n      0xffffffffffffffffffffffffffffffffffffffff\n      mul\n      not\n      and\n      swap1\n      dup4\n      0xffffffffffffffffffffffffffffffffffffffff\n      and\n      mul\n      or\n      swap1\n      sstore\n      pop\n        /* \"Desktop/EthCA/blockchain/EthCA.sol\":1749:1755  domain */\n      dup3\n        /* \"Desktop/EthCA/blockchain/EthCA.sol\":1718:1726  requests */\n      0x02\n        /* \"Desktop/EthCA/blockchain/EthCA.sol\":1718:1739  requests[numRequests] */\n      0x00\n        /* \"Desktop/EthCA/blockchain/EthCA.sol\":1727:1738  numRequests */\n      sload(0x05)\n        /* \"Desktop/EthCA/blockchain/EthCA.sol\":1718:1739  requests[numRequests] */\n      dup2\n      mstore\n      0x20\n      add\n      swap1\n      dup2\n      mstore\n      0x20\n      add\n      0x00\n      keccak256\n        /* \"Desktop/EthCA/blockchain/EthCA.sol\":1718:1746  requests[numRequests].domain */\n      0x03\n      add\n        /* \"Desktop/EthCA/blockchain/EthCA.sol\":1718:1755  requests[numRequests].domain = domain */\n      swap1\n      dup1\n      mload\n      swap1\n      0x20\n      add\n      swap1\n      tag_33\n      swap3\n      swap2\n      swap1\n      tag_34\n      jump\t// in\n    tag_33:\n      pop\n        /* \"Desktop/EthCA/blockchain/EthCA.sol\":1805:1834  chooseValidators(numRequests) */\n      tag_35\n        /* \"Desktop/EthCA/blockchain/EthCA.sol\":1822:1833  numRequests */\n      sload(0x05)\n        /* \"Desktop/EthCA/blockchain/EthCA.sol\":1805:1821  chooseValidators */\n      tag_36\n        /* \"Desktop/EthCA/blockchain/EthCA.sol\":1805:1834  chooseValidators(numRequests) */\n      jump\t// in\n    tag_35:\n        /* \"Desktop/EthCA/blockchain/EthCA.sol\":1298:1843  {... */\n      pop\n        /* \"Desktop/EthCA/blockchain/EthCA.sol\":1216:1843  function request_verification(string memory domain) public payable returns (uint) {... */\n      swap2\n      swap1\n      pop\n      jump\t// out\n        /* \"Desktop/EthCA/blockchain/EthCA.sol\":2193:2383  function cancel_signup() public {... */\n    tag_14:\n        /* \"Desktop/EthCA/blockchain/EthCA.sol\":2267:2271  true */\n      0x01\n        /* \"Desktop/EthCA/blockchain/EthCA.sol\":2243:2271  signedup[msg.sender] == true */\n      iszero\n      iszero\n        /* \"Desktop/EthCA/blockchain/EthCA.sol\":2243:2251  signedup */\n      0x01\n        /* \"Desktop/EthCA/blockchain/EthCA.sol\":2243:2263  signedup[msg.sender] */\n      0x00\n        /* \"Desktop/EthCA/blockchain/EthCA.sol\":2252:2262  msg.sender */\n      caller\n        /* \"Desktop/EthCA/blockchain/EthCA.sol\":2243:2263  signedup[msg.sender] */\n      0xffffffffffffffffffffffffffffffffffffffff\n      and\n      0xffffffffffffffffffffffffffffffffffffffff\n      and\n      dup2\n      mstore\n      0x20\n      add\n      swap1\n      dup2\n      mstore\n      0x20\n      add\n      0x00\n      keccak256\n      0x00\n      swap1\n      sload\n      swap1\n      0x0100\n      exp\n      swap1\n      div\n      0xff\n      and\n        /* \"Desktop/EthCA/blockchain/EthCA.sol\":2243:2271  signedup[msg.sender] == true */\n      iszero\n      iszero\n      eq\n        /* \"Desktop/EthCA/blockchain/EthCA.sol\":2235:2290  require(signedup[msg.sender] == true, \"Not signed up!\") */\n      tag_38\n      jumpi\n      mload(0x40)\n      0x08c379a000000000000000000000000000000000000000000000000000000000\n      dup2\n      mstore\n      0x04\n      add\n      tag_39\n      swap1\n      tag_40\n      jump\t// in\n    tag_39:\n      mload(0x40)\n      dup1\n      swap2\n      sub\n      swap1\n      revert\n    tag_38:\n        /* \"Desktop/EthCA/blockchain/EthCA.sol\":2324:2329  false */\n      0x00\n        /* \"Desktop/EthCA/blockchain/EthCA.sol\":2300:2329  signedup[msg.sender] == false */\n      iszero\n      iszero\n        /* \"Desktop/EthCA/blockchain/EthCA.sol\":2300:2308  signedup */\n      0x01\n        /* \"Desktop/EthCA/blockchain/EthCA.sol\":2300:2320  signedup[msg.sender] */\n      0x00\n        /* \"Desktop/EthCA/blockchain/EthCA.sol\":2309:2319  msg.sender */\n      caller\n        /* \"Desktop/EthCA/blockchain/EthCA.sol\":2300:2320  signedup[msg.sender] */\n      0xffffffffffffffffffffffffffffffffffffffff\n      and\n      0xffffffffffffffffffffffffffffffffffffffff\n      and\n      dup2\n      mstore\n      0x20\n      add\n      swap1\n      dup2\n      mstore\n      0x20\n      add\n      0x00\n      keccak256\n      0x00\n      swap1\n      sload\n      swap1\n      0x0100\n      exp\n      swap1\n      pop\n      pop\n        /* \"Desktop/EthCA/blockchain/EthCA.sol\":2300:2329  signedup[msg.sender] == false */\n      pop\n        /* \"Desktop/EthCA/blockchain/EthCA.sol\":2347:2357  msg.sender */\n      caller\n        /* \"Desktop/EthCA/blockchain/EthCA.sol\":2339:2367  payable(msg.sender).transfer */\n      0xffffffffffffffffffffffffffffffffffffffff\n      and\n        /* \"Desktop/EthCA/blockchain/EthCA.sol\":2339:2376  payable(msg.sender).transfer(1 ether) */\n      0x08fc\n        /* \"Desktop/EthCA/blockchain/EthCA.sol\":2368:2375  1 ether */\n      0x0de0b6b3a7640000\n        /* \"Desktop/EthCA/blockchain/EthCA.sol\":2339:2376  payable(msg.sender).transfer(1 ether) */\n      swap1\n      dup2\n      iszero\n      mul\n      swap1\n      mload(0x40)\n      0x00\n      mload(0x40)\n      dup1\n      dup4\n      sub\n      dup2\n      dup6\n      dup9\n      dup9\n      call\n      swap4\n      pop\n      pop\n      pop\n      pop\n      iszero\n      dup1\n      iszero\n      tag_42\n      jumpi\n      returndatasize\n      0x00\n      dup1\n      returndatacopy\n      revert(0x00, returndatasize)\n    tag_42:\n      pop\n        /* \"Desktop/EthCA/blockchain/EthCA.sol\":2193:2383  function cancel_signup() public {... */\n      jump\t// out\n        /* \"Desktop/EthCA/blockchain/EthCA.sol\":1848:2106  function sign_up() public payable returns (uint) {... */\n    tag_16:\n        /* \"Desktop/EthCA/blockchain/EthCA.sol\":1891:1895  uint */\n      0x00\n        /* \"Desktop/EthCA/blockchain/EthCA.sol\":1978:1985  1 ether */\n      0x0de0b6b3a7640000\n        /* \"Desktop/EthCA/blockchain/EthCA.sol\":1965:1974  msg.value */\n      callvalue\n        /* \"Desktop/EthCA/blockchain/EthCA.sol\":1965:1985  msg.value == 1 ether */\n      eq\n        /* \"Desktop/EthCA/blockchain/EthCA.sol\":1957:2030  require(msg.value == 1 ether, \"Sign-up rejected! Inadequate stake value\") */\n      tag_44\n      jumpi\n      mload(0x40)\n      0x08c379a000000000000000000000000000000000000000000000000000000000\n      dup2\n      mstore\n      0x04\n      add\n      tag_45\n      swap1\n      tag_46\n      jump\t// in\n    tag_45:\n      mload(0x40)\n      dup1\n      swap2\n      sub\n      swap1\n      revert\n    tag_44:\n        /* \"Desktop/EthCA/blockchain/EthCA.sol\":1848:2106  function sign_up() public payable returns (uint) {... */\n      swap1\n      jump\t// out\n        /* \"Desktop/EthCA/blockchain/EthCA.sol\":2459:3287  function vote(uint requestID, bool vote) public {... */\n    tag_22:\n        /* \"Desktop/EthCA/blockchain/EthCA.sol\":2647:2651  true */\n      0x01\n        /* \"Desktop/EthCA/blockchain/EthCA.sol\":2601:2651  requests[requestID].validators[msg.sender] == true */\n      iszero\n      iszero\n        /* \"Desktop/EthCA/blockchain/EthCA.sol\":2601:2609  requests */\n      0x02\n        /* \"Desktop/EthCA/blockchain/EthCA.sol\":2601:2620  requests[requestID] */\n      0x00\n        /* \"Desktop/EthCA/blockchain/EthCA.sol\":2610:2619  requestID */\n      dup5\n        /* \"Desktop/EthCA/blockchain/EthCA.sol\":2601:2620  requests[requestID] */\n      dup2\n      mstore\n      0x20\n      add\n      swap1\n      dup2\n      mstore\n      0x20\n      add\n      0x00\n      keccak256\n        /* \"Desktop/EthCA/blockchain/EthCA.sol\":2601:2631  requests[requestID].validators */\n      0x02\n      add\n        /* \"Desktop/EthCA/blockchain/EthCA.sol\":2601:2643  requests[requestID].validators[msg.sender] */\n      0x00\n        /* \"Desktop/EthCA/blockchain/EthCA.sol\":2632:2642  msg.sender */\n      caller\n        /* \"Desktop/EthCA/blockchain/EthCA.sol\":2601:2643  requests[requestID].validators[msg.sender] */\n      0xffffffffffffffffffffffffffffffffffffffff\n      and\n      0xffffffffffffffffffffffffffffffffffffffff\n      and\n      dup2\n      mstore\n      0x20\n      add\n      swap1\n      dup2\n      mstore\n      0x20\n      add\n      0x00\n      keccak256\n      0x00\n      swap1\n      sload\n      swap1\n      0x0100\n      exp\n      swap1\n      div\n      0xff\n      and\n        /* \"Desktop/EthCA/blockchain/EthCA.sol\":2601:2651  requests[requestID].validators[msg.sender] == true */\n      iszero\n      iszero\n      eq\n        /* \"Desktop/EthCA/blockchain/EthCA.sol\":2593:2689  require(requests[requestID].validators[msg.sender] == true, \"Not a validator for this request!\") */\n      tag_48\n      jumpi\n      mload(0x40)\n      0x08c379a000000000000000000000000000000000000000000000000000000000\n      dup2\n      mstore\n      0x04\n      add\n      tag_49\n      swap1\n      tag_50\n      jump\t// in\n    tag_49:\n      mload(0x40)\n      dup1\n      swap2\n      sub\n      swap1\n      revert\n    tag_48:\n        /* \"Desktop/EthCA/blockchain/EthCA.sol\":2765:2773  requests */\n      0x02\n        /* \"Desktop/EthCA/blockchain/EthCA.sol\":2765:2784  requests[requestID] */\n      0x00\n        /* \"Desktop/EthCA/blockchain/EthCA.sol\":2774:2783  requestID */\n      dup4\n        /* \"Desktop/EthCA/blockchain/EthCA.sol\":2765:2784  requests[requestID] */\n      dup2\n      mstore\n      0x20\n      add\n      swap1\n      dup2\n      mstore\n      0x20\n      add\n      0x00\n      keccak256\n        /* \"Desktop/EthCA/blockchain/EthCA.sol\":2765:2793  requests[requestID].deadline */\n      0x09\n      add\n      sload\n        /* \"Desktop/EthCA/blockchain/EthCA.sol\":2750:2762  block.number */\n      number\n        /* \"Desktop/EthCA/blockchain/EthCA.sol\":2750:2793  block.number < requests[requestID].deadline */\n      lt\n        /* \"Desktop/EthCA/blockchain/EthCA.sol\":2742:2815  require(block.number < requests[requestID].deadline, \"Voting has closed\") */\n      tag_51\n      jumpi\n      mload(0x40)\n      0x08c379a000000000000000000000000000000000000000000000000000000000\n      dup2\n      mstore\n      0x04\n      add\n      tag_52\n      swap1\n      tag_53\n      jump\t// in\n    tag_52:\n      mload(0x40)\n      dup1\n      swap2\n      sub\n      swap1\n      revert\n    tag_51:\n        /* \"Desktop/EthCA/blockchain/EthCA.sol\":2847:2851  vote */\n      dup1\n        /* \"Desktop/EthCA/blockchain/EthCA.sol\":2844:3033  if(vote) {... */\n      iszero\n      tag_54\n      jumpi\n        /* \"Desktop/EthCA/blockchain/EthCA.sol\":2929:2930  1 */\n      0x01\n        /* \"Desktop/EthCA/blockchain/EthCA.sol\":2898:2906  requests */\n      0x02\n        /* \"Desktop/EthCA/blockchain/EthCA.sol\":2898:2917  requests[requestID] */\n      0x00\n        /* \"Desktop/EthCA/blockchain/EthCA.sol\":2907:2916  requestID */\n      dup5\n        /* \"Desktop/EthCA/blockchain/EthCA.sol\":2898:2917  requests[requestID] */\n      dup2\n      mstore\n      0x20\n      add\n      swap1\n      dup2\n      mstore\n      0x20\n      add\n      0x00\n      keccak256\n        /* \"Desktop/EthCA/blockchain/EthCA.sol\":2898:2926  requests[requestID].yesVotes */\n      0x07\n      add\n      sload\n        /* \"Desktop/EthCA/blockchain/EthCA.sol\":2898:2930  requests[requestID].yesVotes + 1 */\n      tag_55\n      swap2\n      swap1\n      tag_56\n      jump\t// in\n    tag_55:\n        /* \"Desktop/EthCA/blockchain/EthCA.sol\":2867:2875  requests */\n      0x02\n        /* \"Desktop/EthCA/blockchain/EthCA.sol\":2867:2886  requests[requestID] */\n      0x00\n        /* \"Desktop/EthCA/blockchain/EthCA.sol\":2876:2885  requestID */\n      dup5\n        /* \"Desktop/EthCA/blockchain/EthCA.sol\":2867:2886  requests[requestID] */\n      dup2\n      mstore\n      0x20\n      add\n      swap1\n      dup2\n      mstore\n      0x20\n      add\n      0x00\n      keccak256\n        /* \"Desktop/EthCA/blockchain/EthCA.sol\":2867:2895  requests[requestID].yesVotes */\n      0x07\n      add\n        /* \"Desktop/EthCA/blockchain/EthCA.sol\":2867:2930  requests[requestID].yesVotes = requests[requestID].yesVotes + 1 */\n      dup2\n      swap1\n      sstore\n      pop\n        /* \"Desktop/EthCA/blockchain/EthCA.sol\":2844:3033  if(vote) {... */\n      jump(tag_57)\n    tag_54:\n        /* \"Desktop/EthCA/blockchain/EthCA.sol\":3021:3022  1 */\n      0x01\n        /* \"Desktop/EthCA/blockchain/EthCA.sol\":2991:2999  requests */\n      0x02\n        /* \"Desktop/EthCA/blockchain/EthCA.sol\":2991:3010  requests[requestID] */\n      0x00\n        /* \"Desktop/EthCA/blockchain/EthCA.sol\":3000:3009  requestID */\n      dup5\n        /* \"Desktop/EthCA/blockchain/EthCA.sol\":2991:3010  requests[requestID] */\n      dup2\n      mstore\n      0x20\n      add\n      swap1\n      dup2\n      mstore\n      0x20\n      add\n      0x00\n      keccak256\n        /* \"Desktop/EthCA/blockchain/EthCA.sol\":2991:3018  requests[requestID].noVotes */\n      0x08\n      add\n      sload\n        /* \"Desktop/EthCA/blockchain/EthCA.sol\":2991:3022  requests[requestID].noVotes + 1 */\n      tag_58\n      swap2\n      swap1\n      tag_56\n      jump\t// in\n    tag_58:\n        /* \"Desktop/EthCA/blockchain/EthCA.sol\":2961:2969  requests */\n      0x02\n        /* \"Desktop/EthCA/blockchain/EthCA.sol\":2961:2980  requests[requestID] */\n      0x00\n        /* \"Desktop/EthCA/blockchain/EthCA.sol\":2970:2979  requestID */\n      dup5\n        /* \"Desktop/EthCA/blockchain/EthCA.sol\":2961:2980  requests[requestID] */\n      dup2\n      mstore\n      0x20\n      add\n      swap1\n      dup2\n      mstore\n      0x20\n      add\n      0x00\n      keccak256\n        /* \"Desktop/EthCA/blockchain/EthCA.sol\":2961:2988  requests[requestID].noVotes */\n      0x08\n      add\n        /* \"Desktop/EthCA/blockchain/EthCA.sol\":2961:3022  requests[requestID].noVotes = requests[requestID].noVotes + 1 */\n      dup2\n      swap1\n      sstore\n      pop\n        /* \"Desktop/EthCA/blockchain/EthCA.sol\":2844:3033  if(vote) {... */\n    tag_57:\n        /* \"Desktop/EthCA/blockchain/EthCA.sol\":3092:3102  msg.sender */\n      caller\n        /* \"Desktop/EthCA/blockchain/EthCA.sol\":3084:3112  payable(msg.sender).transfer */\n      0xffffffffffffffffffffffffffffffffffffffff\n      and\n        /* \"Desktop/EthCA/blockchain/EthCA.sol\":3084:3150  payable(msg.sender).transfer(1 ether + requests[requestID].reward) */\n      0x08fc\n        /* \"Desktop/EthCA/blockchain/EthCA.sol\":3123:3131  requests */\n      0x02\n        /* \"Desktop/EthCA/blockchain/EthCA.sol\":3123:3142  requests[requestID] */\n      0x00\n        /* \"Desktop/EthCA/blockchain/EthCA.sol\":3132:3141  requestID */\n      dup6\n        /* \"Desktop/EthCA/blockchain/EthCA.sol\":3123:3142  requests[requestID] */\n      dup2\n      mstore\n      0x20\n      add\n      swap1\n      dup2\n      mstore\n      0x20\n      add\n      0x00\n      keccak256\n        /* \"Desktop/EthCA/blockchain/EthCA.sol\":3123:3149  requests[requestID].reward */\n      0x05\n      add\n      sload\n        /* \"Desktop/EthCA/blockchain/EthCA.sol\":3113:3120  1 ether */\n      0x0de0b6b3a7640000\n        /* \"Desktop/EthCA/blockchain/EthCA.sol\":3113:3149  1 ether + requests[requestID].reward */\n      tag_59\n      swap2\n      swap1\n      tag_56\n      jump\t// in\n    tag_59:\n        /* \"Desktop/EthCA/blockchain/EthCA.sol\":3084:3150  payable(msg.sender).transfer(1 ether + requests[requestID].reward) */\n      swap1\n      dup2\n      iszero\n      mul\n      swap1\n      mload(0x40)\n      0x00\n      mload(0x40)\n      dup1\n      dup4\n      sub\n      dup2\n      dup6\n      dup9\n      dup9\n      call\n      swap4\n      pop\n      pop\n      pop\n      pop\n      iszero\n      dup1\n      iszero\n      tag_61\n      jumpi\n      returndatasize\n      0x00\n      dup1\n      returndatacopy\n      revert(0x00, returndatasize)\n    tag_61:\n      pop\n        /* \"Desktop/EthCA/blockchain/EthCA.sol\":3275:3280  false */\n      0x00\n        /* \"Desktop/EthCA/blockchain/EthCA.sol\":3229:3280  requests[requestID].validators[msg.sender] == false */\n      iszero\n      iszero\n        /* \"Desktop/EthCA/blockchain/EthCA.sol\":3229:3237  requests */\n      0x02\n        /* \"Desktop/EthCA/blockchain/EthCA.sol\":3229:3248  requests[requestID] */\n      0x00\n        /* \"Desktop/EthCA/blockchain/EthCA.sol\":3238:3247  requestID */\n      dup5\n        /* \"Desktop/EthCA/blockchain/EthCA.sol\":3229:3248  requests[requestID] */\n      dup2\n      mstore\n      0x20\n      add\n      swap1\n      dup2\n      mstore\n      0x20\n      add\n      0x00\n      keccak256\n        /* \"Desktop/EthCA/blockchain/EthCA.sol\":3229:3259  requests[requestID].validators */\n      0x02\n      add\n        /* \"Desktop/EthCA/blockchain/EthCA.sol\":3229:3271  requests[requestID].validators[msg.sender] */\n      0x00\n        /* \"Desktop/EthCA/blockchain/EthCA.sol\":3260:3270  msg.sender */\n      caller\n        /* \"Desktop/EthCA/blockchain/EthCA.sol\":3229:3271  requests[requestID].validators[msg.sender] */\n      0xffffffffffffffffffffffffffffffffffffffff\n      and\n      0xffffffffffffffffffffffffffffffffffffffff\n      and\n      dup2\n      mstore\n      0x20\n      add\n      swap1\n      dup2\n      mstore\n      0x20\n      add\n      0x00\n      keccak256\n      0x00\n      swap1\n      sload\n      swap1\n      0x0100\n      exp\n      swap1\n      pop\n      pop\n        /* \"Desktop/EthCA/blockchain/EthCA.sol\":3229:3280  requests[requestID].validators[msg.sender] == false */\n      pop\n        /* \"Desktop/EthCA/blockchain/EthCA.sol\":2459:3287  function vote(uint requestID, bool vote) public {... */\n      pop\n      pop\n      jump\t// out\n        /* \"Desktop/EthCA/blockchain/EthCA.sol\":1029:1088  function chooseValidators(uint id) private {... */\n    tag_36:\n      pop\n      jump\t// out\n    tag_34:\n      dup3\n      dup1\n      sload\n      tag_63\n      swap1\n      tag_64\n      jump\t// in\n    tag_63:\n      swap1\n      0x00\n      mstore\n      keccak256(0x00, 0x20)\n      swap1\n      0x1f\n      add\n      0x20\n      swap1\n      div\n      dup2\n      add\n      swap3\n      dup3\n      tag_66\n      jumpi\n      0x00\n      dup6\n      sstore\n      jump(tag_65)\n    tag_66:\n      dup3\n      0x1f\n      lt\n      tag_67\n      jumpi\n      dup1\n      mload\n      not(0xff)\n      and\n      dup4\n      dup1\n      add\n      or\n      dup6\n      sstore\n      jump(tag_65)\n    tag_67:\n      dup3\n      dup1\n      add\n      0x01\n      add\n      dup6\n      sstore\n      dup3\n      iszero\n      tag_65\n      jumpi\n      swap2\n      dup3\n      add\n    tag_68:\n      dup3\n      dup2\n      gt\n      iszero\n      tag_69\n      jumpi\n      dup3\n      mload\n      dup3\n      sstore\n      swap2\n      0x20\n      add\n      swap2\n      swap1\n      0x01\n      add\n      swap1\n      jump(tag_68)\n    tag_69:\n    tag_65:\n      pop\n      swap1\n      pop\n      tag_70\n      swap2\n      swap1\n      tag_71\n      jump\t// in\n    tag_70:\n      pop\n      swap1\n      jump\t// out\n    tag_71:\n    tag_72:\n      dup1\n      dup3\n      gt\n      iszero\n      tag_73\n      jumpi\n      0x00\n      dup2\n      0x00\n      swap1\n      sstore\n      pop\n      0x01\n      add\n      jump(tag_72)\n    tag_73:\n      pop\n      swap1\n      jump\t// out\n        /* \"#utility.yul\":7:419   */\n    tag_75:\n        /* \"#utility.yul\":85:90   */\n      0x00\n        /* \"#utility.yul\":110:176   */\n      tag_77\n        /* \"#utility.yul\":126:175   */\n      tag_78\n        /* \"#utility.yul\":168:174   */\n      dup5\n        /* \"#utility.yul\":126:175   */\n      tag_79\n      jump\t// in\n    tag_78:\n        /* \"#utility.yul\":110:176   */\n      tag_80\n      jump\t// in\n    tag_77:\n        /* \"#utility.yul\":101:176   */\n      swap1\n      pop\n        /* \"#utility.yul\":199:205   */\n      dup3\n        /* \"#utility.yul\":192:197   */\n      dup2\n        /* \"#utility.yul\":185:206   */\n      mstore\n        /* \"#utility.yul\":237:241   */\n      0x20\n        /* \"#utility.yul\":230:235   */\n      dup2\n        /* \"#utility.yul\":226:242   */\n      add\n        /* \"#utility.yul\":275:278   */\n      dup5\n        /* \"#utility.yul\":266:272   */\n      dup5\n        /* \"#utility.yul\":261:264   */\n      dup5\n        /* \"#utility.yul\":257:273   */\n      add\n        /* \"#utility.yul\":254:279   */\n      gt\n        /* \"#utility.yul\":251:363   */\n      iszero\n      tag_81\n      jumpi\n        /* \"#utility.yul\":282:361   */\n      tag_82\n      tag_83\n      jump\t// in\n    tag_82:\n        /* \"#utility.yul\":251:363   */\n    tag_81:\n        /* \"#utility.yul\":372:413   */\n      tag_84\n        /* \"#utility.yul\":406:412   */\n      dup5\n        /* \"#utility.yul\":401:404   */\n      dup3\n        /* \"#utility.yul\":396:399   */\n      dup6\n        /* \"#utility.yul\":372:413   */\n      tag_85\n      jump\t// in\n    tag_84:\n        /* \"#utility.yul\":91:419   */\n      pop\n        /* \"#utility.yul\":7:419   */\n      swap4\n      swap3\n      pop\n      pop\n      pop\n      jump\t// out\n        /* \"#utility.yul\":425:558   */\n    tag_86:\n        /* \"#utility.yul\":468:473   */\n      0x00\n        /* \"#utility.yul\":506:512   */\n      dup2\n        /* \"#utility.yul\":493:513   */\n      calldataload\n        /* \"#utility.yul\":484:513   */\n      swap1\n      pop\n        /* \"#utility.yul\":522:552   */\n      tag_88\n        /* \"#utility.yul\":546:551   */\n      dup2\n        /* \"#utility.yul\":522:552   */\n      tag_89\n      jump\t// in\n    tag_88:\n        /* \"#utility.yul\":425:558   */\n      swap3\n      swap2\n      pop\n      pop\n      jump\t// out\n        /* \"#utility.yul\":564:707   */\n    tag_90:\n        /* \"#utility.yul\":621:626   */\n      0x00\n        /* \"#utility.yul\":652:658   */\n      dup2\n        /* \"#utility.yul\":646:659   */\n      mload\n        /* \"#utility.yul\":637:659   */\n      swap1\n      pop\n        /* \"#utility.yul\":668:701   */\n      tag_92\n        /* \"#utility.yul\":695:700   */\n      dup2\n        /* \"#utility.yul\":668:701   */\n      tag_93\n      jump\t// in\n    tag_92:\n        /* \"#utility.yul\":564:707   */\n      swap3\n      swap2\n      pop\n      pop\n      jump\t// out\n        /* \"#utility.yul\":727:1067   */\n    tag_94:\n        /* \"#utility.yul\":783:788   */\n      0x00\n        /* \"#utility.yul\":832:835   */\n      dup3\n        /* \"#utility.yul\":825:829   */\n      0x1f\n        /* \"#utility.yul\":817:823   */\n      dup4\n        /* \"#utility.yul\":813:830   */\n      add\n        /* \"#utility.yul\":809:836   */\n      slt\n        /* \"#utility.yul\":799:921   */\n      tag_96\n      jumpi\n        /* \"#utility.yul\":840:919   */\n      tag_97\n      tag_98\n      jump\t// in\n    tag_97:\n        /* \"#utility.yul\":799:921   */\n    tag_96:\n        /* \"#utility.yul\":957:963   */\n      dup2\n        /* \"#utility.yul\":944:964   */\n      calldataload\n        /* \"#utility.yul\":982:1061   */\n      tag_99\n        /* \"#utility.yul\":1057:1060   */\n      dup5\n        /* \"#utility.yul\":1049:1055   */\n      dup3\n        /* \"#utility.yul\":1042:1046   */\n      0x20\n        /* \"#utility.yul\":1034:1040   */\n      dup7\n        /* \"#utility.yul\":1030:1047   */\n      add\n        /* \"#utility.yul\":982:1061   */\n      tag_75\n      jump\t// in\n    tag_99:\n        /* \"#utility.yul\":973:1061   */\n      swap2\n      pop\n        /* \"#utility.yul\":789:1067   */\n      pop\n        /* \"#utility.yul\":727:1067   */\n      swap3\n      swap2\n      pop\n      pop\n      jump\t// out\n        /* \"#utility.yul\":1073:1212   */\n    tag_100:\n        /* \"#utility.yul\":1119:1124   */\n      0x00\n        /* \"#utility.yul\":1157:1163   */\n      dup2\n        /* \"#utility.yul\":1144:1164   */\n      calldataload\n        /* \"#utility.yul\":1135:1164   */\n      swap1\n      pop\n        /* \"#utility.yul\":1173:1206   */\n      tag_102\n        /* \"#utility.yul\":1200:1205   */\n      dup2\n        /* \"#utility.yul\":1173:1206   */\n      tag_103\n      jump\t// in\n    tag_102:\n        /* \"#utility.yul\":1073:1212   */\n      swap3\n      swap2\n      pop\n      pop\n      jump\t// out\n        /* \"#utility.yul\":1218:1569   */\n    tag_32:\n        /* \"#utility.yul\":1288:1294   */\n      0x00\n        /* \"#utility.yul\":1337:1339   */\n      0x20\n        /* \"#utility.yul\":1325:1334   */\n      dup3\n        /* \"#utility.yul\":1316:1323   */\n      dup5\n        /* \"#utility.yul\":1312:1335   */\n      sub\n        /* \"#utility.yul\":1308:1340   */\n      slt\n        /* \"#utility.yul\":1305:1424   */\n      iszero\n      tag_105\n      jumpi\n        /* \"#utility.yul\":1343:1422   */\n      tag_106\n      tag_107\n      jump\t// in\n    tag_106:\n        /* \"#utility.yul\":1305:1424   */\n    tag_105:\n        /* \"#utility.yul\":1463:1464   */\n      0x00\n        /* \"#utility.yul\":1488:1552   */\n      tag_108\n        /* \"#utility.yul\":1544:1551   */\n      dup5\n        /* \"#utility.yul\":1535:1541   */\n      dup3\n        /* \"#utility.yul\":1524:1533   */\n      dup6\n        /* \"#utility.yul\":1520:1542   */\n      add\n        /* \"#utility.yul\":1488:1552   */\n      tag_90\n      jump\t// in\n    tag_108:\n        /* \"#utility.yul\":1478:1552   */\n      swap2\n      pop\n        /* \"#utility.yul\":1434:1562   */\n      pop\n        /* \"#utility.yul\":1218:1569   */\n      swap3\n      swap2\n      pop\n      pop\n      jump\t// out\n        /* \"#utility.yul\":1575:2084   */\n    tag_8:\n        /* \"#utility.yul\":1644:1650   */\n      0x00\n        /* \"#utility.yul\":1693:1695   */\n      0x20\n        /* \"#utility.yul\":1681:1690   */\n      dup3\n        /* \"#utility.yul\":1672:1679   */\n      dup5\n        /* \"#utility.yul\":1668:1691   */\n      sub\n        /* \"#utility.yul\":1664:1696   */\n      slt\n        /* \"#utility.yul\":1661:1780   */\n      iszero\n      tag_110\n      jumpi\n        /* \"#utility.yul\":1699:1778   */\n      tag_111\n      tag_107\n      jump\t// in\n    tag_111:\n        /* \"#utility.yul\":1661:1780   */\n    tag_110:\n        /* \"#utility.yul\":1847:1848   */\n      0x00\n        /* \"#utility.yul\":1836:1845   */\n      dup3\n        /* \"#utility.yul\":1832:1849   */\n      add\n        /* \"#utility.yul\":1819:1850   */\n      calldataload\n        /* \"#utility.yul\":1877:1895   */\n      0xffffffffffffffff\n        /* \"#utility.yul\":1869:1875   */\n      dup2\n        /* \"#utility.yul\":1866:1896   */\n      gt\n        /* \"#utility.yul\":1863:1980   */\n      iszero\n      tag_112\n      jumpi\n        /* \"#utility.yul\":1899:1978   */\n      tag_113\n      tag_114\n      jump\t// in\n    tag_113:\n        /* \"#utility.yul\":1863:1980   */\n    tag_112:\n        /* \"#utility.yul\":2004:2067   */\n      tag_115\n        /* \"#utility.yul\":2059:2066   */\n      dup5\n        /* \"#utility.yul\":2050:2056   */\n      dup3\n        /* \"#utility.yul\":2039:2048   */\n      dup6\n        /* \"#utility.yul\":2035:2057   */\n      add\n        /* \"#utility.yul\":2004:2067   */\n      tag_94\n      jump\t// in\n    tag_115:\n        /* \"#utility.yul\":1994:2067   */\n      swap2\n      pop\n        /* \"#utility.yul\":1790:2077   */\n      pop\n        /* \"#utility.yul\":1575:2084   */\n      swap3\n      swap2\n      pop\n      pop\n      jump\t// out\n        /* \"#utility.yul\":2090:2558   */\n    tag_21:\n        /* \"#utility.yul\":2155:2161   */\n      0x00\n        /* \"#utility.yul\":2163:2169   */\n      dup1\n        /* \"#utility.yul\":2212:2214   */\n      0x40\n        /* \"#utility.yul\":2200:2209   */\n      dup4\n        /* \"#utility.yul\":2191:2198   */\n      dup6\n        /* \"#utility.yul\":2187:2210   */\n      sub\n        /* \"#utility.yul\":2183:2215   */\n      slt\n        /* \"#utility.yul\":2180:2299   */\n      iszero\n      tag_117\n      jumpi\n        /* \"#utility.yul\":2218:2297   */\n      tag_118\n      tag_107\n      jump\t// in\n    tag_118:\n        /* \"#utility.yul\":2180:2299   */\n    tag_117:\n        /* \"#utility.yul\":2338:2339   */\n      0x00\n        /* \"#utility.yul\":2363:2416   */\n      tag_119\n        /* \"#utility.yul\":2408:2415   */\n      dup6\n        /* \"#utility.yul\":2399:2405   */\n      dup3\n        /* \"#utility.yul\":2388:2397   */\n      dup7\n        /* \"#utility.yul\":2384:2406   */\n      add\n        /* \"#utility.yul\":2363:2416   */\n      tag_100\n      jump\t// in\n    tag_119:\n        /* \"#utility.yul\":2353:2416   */\n      swap3\n      pop\n        /* \"#utility.yul\":2309:2426   */\n      pop\n        /* \"#utility.yul\":2465:2467   */\n      0x20\n        /* \"#utility.yul\":2491:2541   */\n      tag_120\n        /* \"#utility.yul\":2533:2540   */\n      dup6\n        /* \"#utility.yul\":2524:2530   */\n      dup3\n        /* \"#utility.yul\":2513:2522   */\n      dup7\n        /* \"#utility.yul\":2509:2531   */\n      add\n        /* \"#utility.yul\":2491:2541   */\n      tag_86\n      jump\t// in\n    tag_120:\n        /* \"#utility.yul\":2481:2541   */\n      swap2\n      pop\n        /* \"#utility.yul\":2436:2551   */\n      pop\n        /* \"#utility.yul\":2090:2558   */\n      swap3\n      pop\n      swap3\n      swap1\n      pop\n      jump\t// out\n        /* \"#utility.yul\":2564:2721   */\n    tag_121:\n        /* \"#utility.yul\":2669:2714   */\n      tag_123\n        /* \"#utility.yul\":2689:2713   */\n      tag_124\n        /* \"#utility.yul\":2707:2712   */\n      dup3\n        /* \"#utility.yul\":2689:2713   */\n      tag_125\n      jump\t// in\n    tag_124:\n        /* \"#utility.yul\":2669:2714   */\n      tag_126\n      jump\t// in\n    tag_123:\n        /* \"#utility.yul\":2664:2667   */\n      dup3\n        /* \"#utility.yul\":2657:2715   */\n      mstore\n        /* \"#utility.yul\":2564:2721   */\n      pop\n      pop\n      jump\t// out\n        /* \"#utility.yul\":2727:3100   */\n    tag_127:\n        /* \"#utility.yul\":2831:2834   */\n      0x00\n        /* \"#utility.yul\":2859:2897   */\n      tag_129\n        /* \"#utility.yul\":2891:2896   */\n      dup3\n        /* \"#utility.yul\":2859:2897   */\n      tag_130\n      jump\t// in\n    tag_129:\n        /* \"#utility.yul\":2913:3001   */\n      tag_131\n        /* \"#utility.yul\":2994:3000   */\n      dup2\n        /* \"#utility.yul\":2989:2992   */\n      dup6\n        /* \"#utility.yul\":2913:3001   */\n      tag_132\n      jump\t// in\n    tag_131:\n        /* \"#utility.yul\":2906:3001   */\n      swap4\n      pop\n        /* \"#utility.yul\":3010:3062   */\n      tag_133\n        /* \"#utility.yul\":3055:3061   */\n      dup2\n        /* \"#utility.yul\":3050:3053   */\n      dup6\n        /* \"#utility.yul\":3043:3047   */\n      0x20\n        /* \"#utility.yul\":3036:3041   */\n      dup7\n        /* \"#utility.yul\":3032:3048   */\n      add\n        /* \"#utility.yul\":3010:3062   */\n      tag_134\n      jump\t// in\n    tag_133:\n        /* \"#utility.yul\":3087:3093   */\n      dup1\n        /* \"#utility.yul\":3082:3085   */\n      dup5\n        /* \"#utility.yul\":3078:3094   */\n      add\n        /* \"#utility.yul\":3071:3094   */\n      swap2\n      pop\n        /* \"#utility.yul\":2835:3100   */\n      pop\n        /* \"#utility.yul\":2727:3100   */\n      swap3\n      swap2\n      pop\n      pop\n      jump\t// out\n        /* \"#utility.yul\":3106:3472   */\n    tag_135:\n        /* \"#utility.yul\":3248:3251   */\n      0x00\n        /* \"#utility.yul\":3269:3336   */\n      tag_137\n        /* \"#utility.yul\":3333:3335   */\n      0x11\n        /* \"#utility.yul\":3328:3331   */\n      dup4\n        /* \"#utility.yul\":3269:3336   */\n      tag_138\n      jump\t// in\n    tag_137:\n        /* \"#utility.yul\":3262:3336   */\n      swap2\n      pop\n        /* \"#utility.yul\":3345:3438   */\n      tag_139\n        /* \"#utility.yul\":3434:3437   */\n      dup3\n        /* \"#utility.yul\":3345:3438   */\n      tag_140\n      jump\t// in\n    tag_139:\n        /* \"#utility.yul\":3463:3465   */\n      0x20\n        /* \"#utility.yul\":3458:3461   */\n      dup3\n        /* \"#utility.yul\":3454:3466   */\n      add\n        /* \"#utility.yul\":3447:3466   */\n      swap1\n      pop\n        /* \"#utility.yul\":3106:3472   */\n      swap2\n      swap1\n      pop\n      jump\t// out\n        /* \"#utility.yul\":3478:3844   */\n    tag_141:\n        /* \"#utility.yul\":3620:3623   */\n      0x00\n        /* \"#utility.yul\":3641:3708   */\n      tag_143\n        /* \"#utility.yul\":3705:3707   */\n      0x28\n        /* \"#utility.yul\":3700:3703   */\n      dup4\n        /* \"#utility.yul\":3641:3708   */\n      tag_138\n      jump\t// in\n    tag_143:\n        /* \"#utility.yul\":3634:3708   */\n      swap2\n      pop\n        /* \"#utility.yul\":3717:3810   */\n      tag_144\n        /* \"#utility.yul\":3806:3809   */\n      dup3\n        /* \"#utility.yul\":3717:3810   */\n      tag_145\n      jump\t// in\n    tag_144:\n        /* \"#utility.yul\":3835:3837   */\n      0x40\n        /* \"#utility.yul\":3830:3833   */\n      dup3\n        /* \"#utility.yul\":3826:3838   */\n      add\n        /* \"#utility.yul\":3819:3838   */\n      swap1\n      pop\n        /* \"#utility.yul\":3478:3844   */\n      swap2\n      swap1\n      pop\n      jump\t// out\n        /* \"#utility.yul\":3850:4216   */\n    tag_146:\n        /* \"#utility.yul\":3992:3995   */\n      0x00\n        /* \"#utility.yul\":4013:4080   */\n      tag_148\n        /* \"#utility.yul\":4077:4079   */\n      0x0e\n        /* \"#utility.yul\":4072:4075   */\n      dup4\n        /* \"#utility.yul\":4013:4080   */\n      tag_138\n      jump\t// in\n    tag_148:\n        /* \"#utility.yul\":4006:4080   */\n      swap2\n      pop\n        /* \"#utility.yul\":4089:4182   */\n      tag_149\n        /* \"#utility.yul\":4178:4181   */\n      dup3\n        /* \"#utility.yul\":4089:4182   */\n      tag_150\n      jump\t// in\n    tag_149:\n        /* \"#utility.yul\":4207:4209   */\n      0x20\n        /* \"#utility.yul\":4202:4205   */\n      dup3\n        /* \"#utility.yul\":4198:4210   */\n      add\n        /* \"#utility.yul\":4191:4210   */\n      swap1\n      pop\n        /* \"#utility.yul\":3850:4216   */\n      swap2\n      swap1\n      pop\n      jump\t// out\n        /* \"#utility.yul\":4222:4588   */\n    tag_151:\n        /* \"#utility.yul\":4364:4367   */\n      0x00\n        /* \"#utility.yul\":4385:4452   */\n      tag_153\n        /* \"#utility.yul\":4449:4451   */\n      0x21\n        /* \"#utility.yul\":4444:4447   */\n      dup4\n        /* \"#utility.yul\":4385:4452   */\n      tag_138\n      jump\t// in\n    tag_153:\n        /* \"#utility.yul\":4378:4452   */\n      swap2\n      pop\n        /* \"#utility.yul\":4461:4554   */\n      tag_154\n        /* \"#utility.yul\":4550:4553   */\n      dup3\n        /* \"#utility.yul\":4461:4554   */\n      tag_155\n      jump\t// in\n    tag_154:\n        /* \"#utility.yul\":4579:4581   */\n      0x40\n        /* \"#utility.yul\":4574:4577   */\n      dup3\n        /* \"#utility.yul\":4570:4582   */\n      add\n        /* \"#utility.yul\":4563:4582   */\n      swap1\n      pop\n        /* \"#utility.yul\":4222:4588   */\n      swap2\n      swap1\n      pop\n      jump\t// out\n        /* \"#utility.yul\":4594:4712   */\n    tag_156:\n        /* \"#utility.yul\":4681:4705   */\n      tag_158\n        /* \"#utility.yul\":4699:4704   */\n      dup2\n        /* \"#utility.yul\":4681:4705   */\n      tag_159\n      jump\t// in\n    tag_158:\n        /* \"#utility.yul\":4676:4679   */\n      dup3\n        /* \"#utility.yul\":4669:4706   */\n      mstore\n        /* \"#utility.yul\":4594:4712   */\n      pop\n      pop\n      jump\t// out\n        /* \"#utility.yul\":4718:4875   */\n    tag_160:\n        /* \"#utility.yul\":4823:4868   */\n      tag_162\n        /* \"#utility.yul\":4843:4867   */\n      tag_163\n        /* \"#utility.yul\":4861:4866   */\n      dup3\n        /* \"#utility.yul\":4843:4867   */\n      tag_159\n      jump\t// in\n    tag_163:\n        /* \"#utility.yul\":4823:4868   */\n      tag_164\n      jump\t// in\n    tag_162:\n        /* \"#utility.yul\":4818:4821   */\n      dup3\n        /* \"#utility.yul\":4811:4869   */\n      mstore\n        /* \"#utility.yul\":4718:4875   */\n      pop\n      pop\n      jump\t// out\n        /* \"#utility.yul\":4881:5152   */\n    tag_28:\n        /* \"#utility.yul\":5011:5014   */\n      0x00\n        /* \"#utility.yul\":5033:5126   */\n      tag_166\n        /* \"#utility.yul\":5122:5125   */\n      dup3\n        /* \"#utility.yul\":5113:5119   */\n      dup5\n        /* \"#utility.yul\":5033:5126   */\n      tag_127\n      jump\t// in\n    tag_166:\n        /* \"#utility.yul\":5026:5126   */\n      swap2\n      pop\n        /* \"#utility.yul\":5143:5146   */\n      dup2\n        /* \"#utility.yul\":5136:5146   */\n      swap1\n      pop\n        /* \"#utility.yul\":4881:5152   */\n      swap3\n      swap2\n      pop\n      pop\n      jump\t// out\n        /* \"#utility.yul\":5158:5837   */\n    tag_26:\n        /* \"#utility.yul\":5354:5357   */\n      0x00\n        /* \"#utility.yul\":5369:5444   */\n      tag_168\n        /* \"#utility.yul\":5440:5443   */\n      dup3\n        /* \"#utility.yul\":5431:5437   */\n      dup8\n        /* \"#utility.yul\":5369:5444   */\n      tag_160\n      jump\t// in\n    tag_168:\n        /* \"#utility.yul\":5469:5471   */\n      0x20\n        /* \"#utility.yul\":5464:5467   */\n      dup3\n        /* \"#utility.yul\":5460:5472   */\n      add\n        /* \"#utility.yul\":5453:5472   */\n      swap2\n      pop\n        /* \"#utility.yul\":5482:5557   */\n      tag_169\n        /* \"#utility.yul\":5553:5556   */\n      dup3\n        /* \"#utility.yul\":5544:5550   */\n      dup7\n        /* \"#utility.yul\":5482:5557   */\n      tag_160\n      jump\t// in\n    tag_169:\n        /* \"#utility.yul\":5582:5584   */\n      0x20\n        /* \"#utility.yul\":5577:5580   */\n      dup3\n        /* \"#utility.yul\":5573:5585   */\n      add\n        /* \"#utility.yul\":5566:5585   */\n      swap2\n      pop\n        /* \"#utility.yul\":5595:5670   */\n      tag_170\n        /* \"#utility.yul\":5666:5669   */\n      dup3\n        /* \"#utility.yul\":5657:5663   */\n      dup6\n        /* \"#utility.yul\":5595:5670   */\n      tag_121\n      jump\t// in\n    tag_170:\n        /* \"#utility.yul\":5695:5697   */\n      0x14\n        /* \"#utility.yul\":5690:5693   */\n      dup3\n        /* \"#utility.yul\":5686:5698   */\n      add\n        /* \"#utility.yul\":5679:5698   */\n      swap2\n      pop\n        /* \"#utility.yul\":5708:5783   */\n      tag_171\n        /* \"#utility.yul\":5779:5782   */\n      dup3\n        /* \"#utility.yul\":5770:5776   */\n      dup5\n        /* \"#utility.yul\":5708:5783   */\n      tag_160\n      jump\t// in\n    tag_171:\n        /* \"#utility.yul\":5808:5810   */\n      0x20\n        /* \"#utility.yul\":5803:5806   */\n      dup3\n        /* \"#utility.yul\":5799:5811   */\n      add\n        /* \"#utility.yul\":5792:5811   */\n      swap2\n      pop\n        /* \"#utility.yul\":5828:5831   */\n      dup2\n        /* \"#utility.yul\":5821:5831   */\n      swap1\n      pop\n        /* \"#utility.yul\":5158:5837   */\n      swap6\n      swap5\n      pop\n      pop\n      pop\n      pop\n      pop\n      jump\t// out\n        /* \"#utility.yul\":5843:6262   */\n    tag_53:\n        /* \"#utility.yul\":6009:6013   */\n      0x00\n        /* \"#utility.yul\":6047:6049   */\n      0x20\n        /* \"#utility.yul\":6036:6045   */\n      dup3\n        /* \"#utility.yul\":6032:6050   */\n      add\n        /* \"#utility.yul\":6024:6050   */\n      swap1\n      pop\n        /* \"#utility.yul\":6096:6105   */\n      dup2\n        /* \"#utility.yul\":6090:6094   */\n      dup2\n        /* \"#utility.yul\":6086:6106   */\n      sub\n        /* \"#utility.yul\":6082:6083   */\n      0x00\n        /* \"#utility.yul\":6071:6080   */\n      dup4\n        /* \"#utility.yul\":6067:6084   */\n      add\n        /* \"#utility.yul\":6060:6107   */\n      mstore\n        /* \"#utility.yul\":6124:6255   */\n      tag_173\n        /* \"#utility.yul\":6250:6254   */\n      dup2\n        /* \"#utility.yul\":6124:6255   */\n      tag_135\n      jump\t// in\n    tag_173:\n        /* \"#utility.yul\":6116:6255   */\n      swap1\n      pop\n        /* \"#utility.yul\":5843:6262   */\n      swap2\n      swap1\n      pop\n      jump\t// out\n        /* \"#utility.yul\":6268:6687   */\n    tag_46:\n        /* \"#utility.yul\":6434:6438   */\n      0x00\n        /* \"#utility.yul\":6472:6474   */\n      0x20\n        /* \"#utility.yul\":6461:6470   */\n      dup3\n        /* \"#utility.yul\":6457:6475   */\n      add\n        /* \"#utility.yul\":6449:6475   */\n      swap1\n      pop\n        /* \"#utility.yul\":6521:6530   */\n      dup2\n        /* \"#utility.yul\":6515:6519   */\n      dup2\n        /* \"#utility.yul\":6511:6531   */\n      sub\n        /* \"#utility.yul\":6507:6508   */\n      0x00\n        /* \"#utility.yul\":6496:6505   */\n      dup4\n        /* \"#utility.yul\":6492:6509   */\n      add\n        /* \"#utility.yul\":6485:6532   */\n      mstore\n        /* \"#utility.yul\":6549:6680   */\n      tag_175\n        /* \"#utility.yul\":6675:6679   */\n      dup2\n        /* \"#utility.yul\":6549:6680   */\n      tag_141\n      jump\t// in\n    tag_175:\n        /* \"#utility.yul\":6541:6680   */\n      swap1\n      pop\n        /* \"#utility.yul\":6268:6687   */\n      swap2\n      swap1\n      pop\n      jump\t// out\n        /* \"#utility.yul\":6693:7112   */\n    tag_40:\n        /* \"#utility.yul\":6859:6863   */\n      0x00\n        /* \"#utility.yul\":6897:6899   */\n      0x20\n        /* \"#utility.yul\":6886:6895   */\n      dup3\n        /* \"#utility.yul\":6882:6900   */\n      add\n        /* \"#utility.yul\":6874:6900   */\n      swap1\n      pop\n        /* \"#utility.yul\":6946:6955   */\n      dup2\n        /* \"#utility.yul\":6940:6944   */\n      dup2\n        /* \"#utility.yul\":6936:6956   */\n      sub\n        /* \"#utility.yul\":6932:6933   */\n      0x00\n        /* \"#utility.yul\":6921:6930   */\n      dup4\n        /* \"#utility.yul\":6917:6934   */\n      add\n        /* \"#utility.yul\":6910:6957   */\n      mstore\n        /* \"#utility.yul\":6974:7105   */\n      tag_177\n        /* \"#utility.yul\":7100:7104   */\n      dup2\n        /* \"#utility.yul\":6974:7105   */\n      tag_146\n      jump\t// in\n    tag_177:\n        /* \"#utility.yul\":6966:7105   */\n      swap1\n      pop\n        /* \"#utility.yul\":6693:7112   */\n      swap2\n      swap1\n      pop\n      jump\t// out\n        /* \"#utility.yul\":7118:7537   */\n    tag_50:\n        /* \"#utility.yul\":7284:7288   */\n      0x00\n        /* \"#utility.yul\":7322:7324   */\n      0x20\n        /* \"#utility.yul\":7311:7320   */\n      dup3\n        /* \"#utility.yul\":7307:7325   */\n      add\n        /* \"#utility.yul\":7299:7325   */\n      swap1\n      pop\n        /* \"#utility.yul\":7371:7380   */\n      dup2\n        /* \"#utility.yul\":7365:7369   */\n      dup2\n        /* \"#utility.yul\":7361:7381   */\n      sub\n        /* \"#utility.yul\":7357:7358   */\n      0x00\n        /* \"#utility.yul\":7346:7355   */\n      dup4\n        /* \"#utility.yul\":7342:7359   */\n      add\n        /* \"#utility.yul\":7335:7382   */\n      mstore\n        /* \"#utility.yul\":7399:7530   */\n      tag_179\n        /* \"#utility.yul\":7525:7529   */\n      dup2\n        /* \"#utility.yul\":7399:7530   */\n      tag_151\n      jump\t// in\n    tag_179:\n        /* \"#utility.yul\":7391:7530   */\n      swap1\n      pop\n        /* \"#utility.yul\":7118:7537   */\n      swap2\n      swap1\n      pop\n      jump\t// out\n        /* \"#utility.yul\":7543:7765   */\n    tag_11:\n        /* \"#utility.yul\":7636:7640   */\n      0x00\n        /* \"#utility.yul\":7674:7676   */\n      0x20\n        /* \"#utility.yul\":7663:7672   */\n      dup3\n        /* \"#utility.yul\":7659:7677   */\n      add\n        /* \"#utility.yul\":7651:7677   */\n      swap1\n      pop\n        /* \"#utility.yul\":7687:7758   */\n      tag_181\n        /* \"#utility.yul\":7755:7756   */\n      0x00\n        /* \"#utility.yul\":7744:7753   */\n      dup4\n        /* \"#utility.yul\":7740:7757   */\n      add\n        /* \"#utility.yul\":7731:7737   */\n      dup5\n        /* \"#utility.yul\":7687:7758   */\n      tag_156\n      jump\t// in\n    tag_181:\n        /* \"#utility.yul\":7543:7765   */\n      swap3\n      swap2\n      pop\n      pop\n      jump\t// out\n        /* \"#utility.yul\":7771:7900   */\n    tag_80:\n        /* \"#utility.yul\":7805:7811   */\n      0x00\n        /* \"#utility.yul\":7832:7852   */\n      tag_183\n      tag_184\n      jump\t// in\n    tag_183:\n        /* \"#utility.yul\":7822:7852   */\n      swap1\n      pop\n        /* \"#utility.yul\":7861:7894   */\n      tag_185\n        /* \"#utility.yul\":7889:7893   */\n      dup3\n        /* \"#utility.yul\":7881:7887   */\n      dup3\n        /* \"#utility.yul\":7861:7894   */\n      tag_186\n      jump\t// in\n    tag_185:\n        /* \"#utility.yul\":7771:7900   */\n      swap2\n      swap1\n      pop\n      jump\t// out\n        /* \"#utility.yul\":7906:7981   */\n    tag_184:\n        /* \"#utility.yul\":7939:7945   */\n      0x00\n        /* \"#utility.yul\":7972:7974   */\n      0x40\n        /* \"#utility.yul\":7966:7975   */\n      mload\n        /* \"#utility.yul\":7956:7975   */\n      swap1\n      pop\n        /* \"#utility.yul\":7906:7981   */\n      swap1\n      jump\t// out\n        /* \"#utility.yul\":7987:8295   */\n    tag_79:\n        /* \"#utility.yul\":8049:8053   */\n      0x00\n        /* \"#utility.yul\":8139:8157   */\n      0xffffffffffffffff\n        /* \"#utility.yul\":8131:8137   */\n      dup3\n        /* \"#utility.yul\":8128:8158   */\n      gt\n        /* \"#utility.yul\":8125:8181   */\n      iszero\n      tag_189\n      jumpi\n        /* \"#utility.yul\":8161:8179   */\n      tag_190\n      tag_191\n      jump\t// in\n    tag_190:\n        /* \"#utility.yul\":8125:8181   */\n    tag_189:\n        /* \"#utility.yul\":8199:8228   */\n      tag_192\n        /* \"#utility.yul\":8221:8227   */\n      dup3\n        /* \"#utility.yul\":8199:8228   */\n      tag_193\n      jump\t// in\n    tag_192:\n        /* \"#utility.yul\":8191:8228   */\n      swap1\n      pop\n        /* \"#utility.yul\":8283:8287   */\n      0x20\n        /* \"#utility.yul\":8277:8281   */\n      dup2\n        /* \"#utility.yul\":8273:8288   */\n      add\n        /* \"#utility.yul\":8265:8288   */\n      swap1\n      pop\n        /* \"#utility.yul\":7987:8295   */\n      swap2\n      swap1\n      pop\n      jump\t// out\n        /* \"#utility.yul\":8301:8399   */\n    tag_130:\n        /* \"#utility.yul\":8352:8358   */\n      0x00\n        /* \"#utility.yul\":8386:8391   */\n      dup2\n        /* \"#utility.yul\":8380:8392   */\n      mload\n        /* \"#utility.yul\":8370:8392   */\n      swap1\n      pop\n        /* \"#utility.yul\":8301:8399   */\n      swap2\n      swap1\n      pop\n      jump\t// out\n        /* \"#utility.yul\":8405:8552   */\n    tag_132:\n        /* \"#utility.yul\":8506:8517   */\n      0x00\n        /* \"#utility.yul\":8543:8546   */\n      dup2\n        /* \"#utility.yul\":8528:8546   */\n      swap1\n      pop\n        /* \"#utility.yul\":8405:8552   */\n      swap3\n      swap2\n      pop\n      pop\n      jump\t// out\n        /* \"#utility.yul\":8558:8727   */\n    tag_138:\n        /* \"#utility.yul\":8642:8653   */\n      0x00\n        /* \"#utility.yul\":8676:8682   */\n      dup3\n        /* \"#utility.yul\":8671:8674   */\n      dup3\n        /* \"#utility.yul\":8664:8683   */\n      mstore\n        /* \"#utility.yul\":8716:8720   */\n      0x20\n        /* \"#utility.yul\":8711:8714   */\n      dup3\n        /* \"#utility.yul\":8707:8721   */\n      add\n        /* \"#utility.yul\":8692:8721   */\n      swap1\n      pop\n        /* \"#utility.yul\":8558:8727   */\n      swap3\n      swap2\n      pop\n      pop\n      jump\t// out\n        /* \"#utility.yul\":8733:9038   */\n    tag_56:\n        /* \"#utility.yul\":8773:8776   */\n      0x00\n        /* \"#utility.yul\":8792:8812   */\n      tag_198\n        /* \"#utility.yul\":8810:8811   */\n      dup3\n        /* \"#utility.yul\":8792:8812   */\n      tag_159\n      jump\t// in\n    tag_198:\n        /* \"#utility.yul\":8787:8812   */\n      swap2\n      pop\n        /* \"#utility.yul\":8826:8846   */\n      tag_199\n        /* \"#utility.yul\":8844:8845   */\n      dup4\n        /* \"#utility.yul\":8826:8846   */\n      tag_159\n      jump\t// in\n    tag_199:\n        /* \"#utility.yul\":8821:8846   */\n      swap3\n      pop\n        /* \"#utility.yul\":8980:8981   */\n      dup3\n        /* \"#utility.yul\":8912:8978   */\n      0xffffffffffffffffffffffffffffffffffffffffffffffffffffffffffffffff\n        /* \"#utility.yul\":8908:8982   */\n      sub\n        /* \"#utility.yul\":8905:8906   */\n      dup3\n        /* \"#utility.yul\":8902:8983   */\n      gt\n        /* \"#utility.yul\":8899:9006   */\n      iszero\n      tag_200\n      jumpi\n        /* \"#utility.yul\":8986:9004   */\n      tag_201\n      tag_202\n      jump\t// in\n    tag_201:\n        /* \"#utility.yul\":8899:9006   */\n    tag_200:\n        /* \"#utility.yul\":9030:9031   */\n      dup3\n        /* \"#utility.yul\":9027:9028   */\n      dup3\n        /* \"#utility.yul\":9023:9032   */\n      add\n        /* \"#utility.yul\":9016:9032   */\n      swap1\n      pop\n        /* \"#utility.yul\":8733:9038   */\n      swap3\n      swap2\n      pop\n      pop\n      jump\t// out\n        /* \"#utility.yul\":9044:9140   */\n    tag_125:\n        /* \"#utility.yul\":9081:9088   */\n      0x00\n        /* \"#utility.yul\":9110:9134   */\n      tag_204\n        /* \"#utility.yul\":9128:9133   */\n      dup3\n        /* \"#utility.yul\":9110:9134   */\n      tag_205\n      jump\t// in\n    tag_204:\n        /* \"#utility.yul\":9099:9134   */\n      swap1\n      pop\n        /* \"#utility.yul\":9044:9140   */\n      swap2\n      swap1\n      pop\n      jump\t// out\n        /* \"#utility.yul\":9146:9236   */\n    tag_206:\n        /* \"#utility.yul\":9180:9187   */\n      0x00\n        /* \"#utility.yul\":9223:9228   */\n      dup2\n        /* \"#utility.yul\":9216:9229   */\n      iszero\n        /* \"#utility.yul\":9209:9230   */\n      iszero\n        /* \"#utility.yul\":9198:9230   */\n      swap1\n      pop\n        /* \"#utility.yul\":9146:9236   */\n      swap2\n      swap1\n      pop\n      jump\t// out\n        /* \"#utility.yul\":9242:9319   */\n    tag_208:\n        /* \"#utility.yul\":9279:9286   */\n      0x00\n        /* \"#utility.yul\":9308:9313   */\n      dup2\n        /* \"#utility.yul\":9297:9313   */\n      swap1\n      pop\n        /* \"#utility.yul\":9242:9319   */\n      swap2\n      swap1\n      pop\n      jump\t// out\n        /* \"#utility.yul\":9325:9451   */\n    tag_205:\n        /* \"#utility.yul\":9362:9369   */\n      0x00\n        /* \"#utility.yul\":9402:9444   */\n      0xffffffffffffffffffffffffffffffffffffffff\n        /* \"#utility.yul\":9395:9400   */\n      dup3\n        /* \"#utility.yul\":9391:9445   */\n      and\n        /* \"#utility.yul\":9380:9445   */\n      swap1\n      pop\n        /* \"#utility.yul\":9325:9451   */\n      swap2\n      swap1\n      pop\n      jump\t// out\n        /* \"#utility.yul\":9457:9534   */\n    tag_159:\n        /* \"#utility.yul\":9494:9501   */\n      0x00\n        /* \"#utility.yul\":9523:9528   */\n      dup2\n        /* \"#utility.yul\":9512:9528   */\n      swap1\n      pop\n        /* \"#utility.yul\":9457:9534   */\n      swap2\n      swap1\n      pop\n      jump\t// out\n        /* \"#utility.yul\":9540:9694   */\n    tag_85:\n        /* \"#utility.yul\":9624:9630   */\n      dup3\n        /* \"#utility.yul\":9619:9622   */\n      dup2\n        /* \"#utility.yul\":9614:9617   */\n      dup4\n        /* \"#utility.yul\":9601:9631   */\n      calldatacopy\n        /* \"#utility.yul\":9686:9687   */\n      0x00\n        /* \"#utility.yul\":9677:9683   */\n      dup4\n        /* \"#utility.yul\":9672:9675   */\n      dup4\n        /* \"#utility.yul\":9668:9684   */\n      add\n        /* \"#utility.yul\":9661:9688   */\n      mstore\n        /* \"#utility.yul\":9540:9694   */\n      pop\n      pop\n      pop\n      jump\t// out\n        /* \"#utility.yul\":9700:10007   */\n    tag_134:\n        /* \"#utility.yul\":9768:9769   */\n      0x00\n        /* \"#utility.yul\":9778:9891   */\n    tag_214:\n        /* \"#utility.yul\":9792:9798   */\n      dup4\n        /* \"#utility.yul\":9789:9790   */\n      dup2\n        /* \"#utility.yul\":9786:9799   */\n      lt\n        /* \"#utility.yul\":9778:9891   */\n      iszero\n      tag_216\n      jumpi\n        /* \"#utility.yul\":9877:9878   */\n      dup1\n        /* \"#utility.yul\":9872:9875   */\n      dup3\n        /* \"#utility.yul\":9868:9879   */\n      add\n        /* \"#utility.yul\":9862:9880   */\n      mload\n        /* \"#utility.yul\":9858:9859   */\n      dup2\n        /* \"#utility.yul\":9853:9856   */\n      dup5\n        /* \"#utility.yul\":9849:9860   */\n      add\n        /* \"#utility.yul\":9842:9881   */\n      mstore\n        /* \"#utility.yul\":9814:9816   */\n      0x20\n        /* \"#utility.yul\":9811:9812   */\n      dup2\n        /* \"#utility.yul\":9807:9817   */\n      add\n        /* \"#utility.yul\":9802:9817   */\n      swap1\n      pop\n        /* \"#utility.yul\":9778:9891   */\n      jump(tag_214)\n    tag_216:\n        /* \"#utility.yul\":9909:9915   */\n      dup4\n        /* \"#utility.yul\":9906:9907   */\n      dup2\n        /* \"#utility.yul\":9903:9916   */\n      gt\n        /* \"#utility.yul\":9900:10001   */\n      iszero\n      tag_217\n      jumpi\n        /* \"#utility.yul\":9989:9990   */\n      0x00\n        /* \"#utility.yul\":9980:9986   */\n      dup5\n        /* \"#utility.yul\":9975:9978   */\n      dup5\n        /* \"#utility.yul\":9971:9987   */\n      add\n        /* \"#utility.yul\":9964:9991   */\n      mstore\n        /* \"#utility.yul\":9900:10001   */\n    tag_217:\n        /* \"#utility.yul\":9749:10007   */\n      pop\n        /* \"#utility.yul\":9700:10007   */\n      pop\n      pop\n      pop\n      jump\t// out\n        /* \"#utility.yul\":10013:10333   */\n    tag_64:\n        /* \"#utility.yul\":10057:10063   */\n      0x00\n        /* \"#utility.yul\":10094:10095   */\n      0x02\n        /* \"#utility.yul\":10088:10092   */\n      dup3\n        /* \"#utility.yul\":10084:10096   */\n      div\n        /* \"#utility.yul\":10074:10096   */\n      swap1\n      pop\n        /* \"#utility.yul\":10141:10142   */\n      0x01\n        /* \"#utility.yul\":10135:10139   */\n      dup3\n        /* \"#utility.yul\":10131:10143   */\n      and\n        /* \"#utility.yul\":10162:10180   */\n      dup1\n        /* \"#utility.yul\":10152:10233   */\n      tag_219\n      jumpi\n        /* \"#utility.yul\":10218:10222   */\n      0x7f\n        /* \"#utility.yul\":10210:10216   */\n      dup3\n        /* \"#utility.yul\":10206:10223   */\n      and\n        /* \"#utility.yul\":10196:10223   */\n      swap2\n      pop\n        /* \"#utility.yul\":10152:10233   */\n    tag_219:\n        /* \"#utility.yul\":10280:10282   */\n      0x20\n        /* \"#utility.yul\":10272:10278   */\n      dup3\n        /* \"#utility.yul\":10269:10283   */\n      lt\n        /* \"#utility.yul\":10249:10267   */\n      dup2\n        /* \"#utility.yul\":10246:10284   */\n      eq\n        /* \"#utility.yul\":10243:10327   */\n      iszero\n      tag_220\n      jumpi\n        /* \"#utility.yul\":10299:10317   */\n      tag_221\n      tag_222\n      jump\t// in\n    tag_221:\n        /* \"#utility.yul\":10243:10327   */\n    tag_220:\n        /* \"#utility.yul\":10064:10333   */\n      pop\n        /* \"#utility.yul\":10013:10333   */\n      swap2\n      swap1\n      pop\n      jump\t// out\n        /* \"#utility.yul\":10339:10620   */\n    tag_186:\n        /* \"#utility.yul\":10422:10449   */\n      tag_224\n        /* \"#utility.yul\":10444:10448   */\n      dup3\n        /* \"#utility.yul\":10422:10449   */\n      tag_193\n      jump\t// in\n    tag_224:\n        /* \"#utility.yul\":10414:10420   */\n      dup2\n        /* \"#utility.yul\":10410:10450   */\n      add\n        /* \"#utility.yul\":10552:10558   */\n      dup2\n        /* \"#utility.yul\":10540:10550   */\n      dup2\n        /* \"#utility.yul\":10537:10559   */\n      lt\n        /* \"#utility.yul\":10516:10534   */\n      0xffffffffffffffff\n        /* \"#utility.yul\":10504:10514   */\n      dup3\n        /* \"#utility.yul\":10501:10535   */\n      gt\n        /* \"#utility.yul\":10498:10560   */\n      or\n        /* \"#utility.yul\":10495:10583   */\n      iszero\n      tag_225\n      jumpi\n        /* \"#utility.yul\":10563:10581   */\n      tag_226\n      tag_191\n      jump\t// in\n    tag_226:\n        /* \"#utility.yul\":10495:10583   */\n    tag_225:\n        /* \"#utility.yul\":10603:10613   */\n      dup1\n        /* \"#utility.yul\":10599:10601   */\n      0x40\n        /* \"#utility.yul\":10592:10614   */\n      mstore\n        /* \"#utility.yul\":10382:10620   */\n      pop\n        /* \"#utility.yul\":10339:10620   */\n      pop\n      pop\n      jump\t// out\n        /* \"#utility.yul\":10626:10726   */\n    tag_126:\n        /* \"#utility.yul\":10665:10672   */\n      0x00\n        /* \"#utility.yul\":10694:10720   */\n      tag_228\n        /* \"#utility.yul\":10714:10719   */\n      dup3\n        /* \"#utility.yul\":10694:10720   */\n      tag_229\n      jump\t// in\n    tag_228:\n        /* \"#utility.yul\":10683:10720   */\n      swap1\n      pop\n        /* \"#utility.yul\":10626:10726   */\n      swap2\n      swap1\n      pop\n      jump\t// out\n        /* \"#utility.yul\":10732:10826   */\n    tag_229:\n        /* \"#utility.yul\":10771:10778   */\n      0x00\n        /* \"#utility.yul\":10800:10820   */\n      tag_231\n        /* \"#utility.yul\":10814:10819   */\n      dup3\n        /* \"#utility.yul\":10800:10820   */\n      tag_232\n      jump\t// in\n    tag_231:\n        /* \"#utility.yul\":10789:10820   */\n      swap1\n      pop\n        /* \"#utility.yul\":10732:10826   */\n      swap2\n      swap1\n      pop\n      jump\t// out\n        /* \"#utility.yul\":10832:10911   */\n    tag_164:\n        /* \"#utility.yul\":10871:10878   */\n      0x00\n        /* \"#utility.yul\":10900:10905   */\n      dup2\n        /* \"#utility.yul\":10889:10905   */\n      swap1\n      pop\n        /* \"#utility.yul\":10832:10911   */\n      swap2\n      swap1\n      pop\n      jump\t// out\n        /* \"#utility.yul\":10917:11097   */\n    tag_202:\n        /* \"#utility.yul\":10965:11042   */\n      0x4e487b7100000000000000000000000000000000000000000000000000000000\n        /* \"#utility.yul\":10962:10963   */\n      0x00\n        /* \"#utility.yul\":10955:11043   */\n      mstore\n        /* \"#utility.yul\":11062:11066   */\n      0x11\n        /* \"#utility.yul\":11059:11060   */\n      0x04\n        /* \"#utility.yul\":11052:11067   */\n      mstore\n        /* \"#utility.yul\":11086:11090   */\n      0x24\n        /* \"#utility.yul\":11083:11084   */\n      0x00\n        /* \"#utility.yul\":11076:11091   */\n      revert\n        /* \"#utility.yul\":11103:11283   */\n    tag_222:\n        /* \"#utility.yul\":11151:11228   */\n      0x4e487b7100000000000000000000000000000000000000000000000000000000\n        /* \"#utility.yul\":11148:11149   */\n      0x00\n        /* \"#utility.yul\":11141:11229   */\n      mstore\n        /* \"#utility.yul\":11248:11252   */\n      0x22\n        /* \"#utility.yul\":11245:11246   */\n      0x04\n        /* \"#utility.yul\":11238:11253   */\n      mstore\n        /* \"#utility.yul\":11272:11276   */\n      0x24\n        /* \"#utility.yul\":11269:11270   */\n      0x00\n        /* \"#utility.yul\":11262:11277   */\n      revert\n        /* \"#utility.yul\":11289:11469   */\n    tag_191:\n        /* \"#utility.yul\":11337:11414   */\n      0x4e487b7100000000000000000000000000000000000000000000000000000000\n        /* \"#utility.yul\":11334:11335   */\n      0x00\n        /* \"#utility.yul\":11327:11415   */\n      mstore\n        /* \"#utility.yul\":11434:11438   */\n      0x41\n        /* \"#utility.yul\":11431:11432   */\n      0x04\n        /* \"#utility.yul\":11424:11439   */\n      mstore\n        /* \"#utility.yul\":11458:11462   */\n      0x24\n        /* \"#utility.yul\":11455:11456   */\n      0x00\n        /* \"#utility.yul\":11448:11463   */\n      revert\n        /* \"#utility.yul\":11475:11592   */\n    tag_98:\n        /* \"#utility.yul\":11584:11585   */\n      0x00\n        /* \"#utility.yul\":11581:11582   */\n      dup1\n        /* \"#utility.yul\":11574:11586   */\n      revert\n        /* \"#utility.yul\":11598:11715   */\n    tag_83:\n        /* \"#utility.yul\":11707:11708   */\n      0x00\n        /* \"#utility.yul\":11704:11705   */\n      dup1\n        /* \"#utility.yul\":11697:11709   */\n      revert\n        /* \"#utility.yul\":11721:11838   */\n    tag_114:\n        /* \"#utility.yul\":11830:11831   */\n      0x00\n        /* \"#utility.yul\":11827:11828   */\n      dup1\n        /* \"#utility.yul\":11820:11832   */\n      revert\n        /* \"#utility.yul\":11844:11961   */\n    tag_107:\n        /* \"#utility.yul\":11953:11954   */\n      0x00\n        /* \"#utility.yul\":11950:11951   */\n      dup1\n        /* \"#utility.yul\":11943:11955   */\n      revert\n        /* \"#utility.yul\":11967:12069   */\n    tag_193:\n        /* \"#utility.yul\":12008:12014   */\n      0x00\n        /* \"#utility.yul\":12059:12061   */\n      0x1f\n        /* \"#utility.yul\":12055:12062   */\n      not\n        /* \"#utility.yul\":12050:12052   */\n      0x1f\n        /* \"#utility.yul\":12043:12048   */\n      dup4\n        /* \"#utility.yul\":12039:12053   */\n      add\n        /* \"#utility.yul\":12035:12063   */\n      and\n        /* \"#utility.yul\":12025:12063   */\n      swap1\n      pop\n        /* \"#utility.yul\":11967:12069   */\n      swap2\n      swap1\n      pop\n      jump\t// out\n        /* \"#utility.yul\":12075:12169   */\n    tag_232:\n        /* \"#utility.yul\":12108:12116   */\n      0x00\n        /* \"#utility.yul\":12156:12161   */\n      dup2\n        /* \"#utility.yul\":12152:12154   */\n      0x60\n        /* \"#utility.yul\":12148:12162   */\n      shl\n        /* \"#utility.yul\":12127:12162   */\n      swap1\n      pop\n        /* \"#utility.yul\":12075:12169   */\n      swap2\n      swap1\n      pop\n      jump\t// out\n        /* \"#utility.yul\":12175:12342   */\n    tag_140:\n        /* \"#utility.yul\":12315:12334   */\n      0x566f74696e672068617320636c6f736564000000000000000000000000000000\n        /* \"#utility.yul\":12311:12312   */\n      0x00\n        /* \"#utility.yul\":12303:12309   */\n      dup3\n        /* \"#utility.yul\":12299:12313   */\n      add\n        /* \"#utility.yul\":12292:12335   */\n      mstore\n        /* \"#utility.yul\":12175:12342   */\n      pop\n      jump\t// out\n        /* \"#utility.yul\":12348:12575   */\n    tag_145:\n        /* \"#utility.yul\":12488:12522   */\n      0x5369676e2d75702072656a65637465642120496e616465717561746520737461\n        /* \"#utility.yul\":12484:12485   */\n      0x00\n        /* \"#utility.yul\":12476:12482   */\n      dup3\n        /* \"#utility.yul\":12472:12486   */\n      add\n        /* \"#utility.yul\":12465:12523   */\n      mstore\n        /* \"#utility.yul\":12557:12567   */\n      0x6b652076616c7565000000000000000000000000000000000000000000000000\n        /* \"#utility.yul\":12552:12554   */\n      0x20\n        /* \"#utility.yul\":12544:12550   */\n      dup3\n        /* \"#utility.yul\":12540:12555   */\n      add\n        /* \"#utility.yul\":12533:12568   */\n      mstore\n        /* \"#utility.yul\":12348:12575   */\n      pop\n      jump\t// out\n        /* \"#utility.yul\":12581:12745   */\n    tag_150:\n        /* \"#utility.yul\":12721:12737   */\n      0x4e6f74207369676e656420757021000000000000000000000000000000000000\n        /* \"#utility.yul\":12717:12718   */\n      0x00\n        /* \"#utility.yul\":12709:12715   */\n      dup3\n        /* \"#utility.yul\":12705:12719   */\n      add\n        /* \"#utility.yul\":12698:12738   */\n      mstore\n        /* \"#utility.yul\":12581:12745   */\n      pop\n      jump\t// out\n        /* \"#utility.yul\":12751:12971   */\n    tag_155:\n        /* \"#utility.yul\":12891:12925   */\n      0x4e6f7420612076616c696461746f7220666f7220746869732072657175657374\n        /* \"#utility.yul\":12887:12888   */\n      0x00\n        /* \"#utility.yul\":12879:12885   */\n      dup3\n        /* \"#utility.yul\":12875:12889   */\n      add\n        /* \"#utility.yul\":12868:12926   */\n      mstore\n        /* \"#utility.yul\":12960:12963   */\n      0x2100000000000000000000000000000000000000000000000000000000000000\n        /* \"#utility.yul\":12955:12957   */\n      0x20\n        /* \"#utility.yul\":12947:12953   */\n      dup3\n        /* \"#utility.yul\":12943:12958   */\n      add\n        /* \"#utility.yul\":12936:12964   */\n      mstore\n        /* \"#utility.yul\":12751:12971   */\n      pop\n      jump\t// out\n        /* \"#utility.yul\":12977:13093   */\n    tag_89:\n        /* \"#utility.yul\":13047:13068   */\n      tag_248\n        /* \"#utility.yul\":13062:13067   */\n      dup2\n        /* \"#utility.yul\":13047:13068   */\n      tag_206\n      jump\t// in\n    tag_248:\n        /* \"#utility.yul\":13040:13045   */\n      dup2\n        /* \"#utility.yul\":13037:13069   */\n      eq\n        /* \"#utility.yul\":13027:13087   */\n      tag_249\n      jumpi\n        /* \"#utility.yul\":13083:13084   */\n      0x00\n        /* \"#utility.yul\":13080:13081   */\n      dup1\n        /* \"#utility.yul\":13073:13085   */\n      revert\n        /* \"#utility.yul\":13027:13087   */\n    tag_249:\n        /* \"#utility.yul\":12977:13093   */\n      pop\n      jump\t// out\n        /* \"#utility.yul\":13099:13221   */\n    tag_93:\n        /* \"#utility.yul\":13172:13196   */\n      tag_251\n        /* \"#utility.yul\":13190:13195   */\n      dup2\n        /* \"#utility.yul\":13172:13196   */\n      tag_208\n      jump\t// in\n    tag_251:\n        /* \"#utility.yul\":13165:13170   */\n      dup2\n        /* \"#utility.yul\":13162:13197   */\n      eq\n        /* \"#utility.yul\":13152:13215   */\n      tag_252\n      jumpi\n        /* \"#utility.yul\":13211:13212   */\n      0x00\n        /* \"#utility.yul\":13208:13209   */\n      dup1\n        /* \"#utility.yul\":13201:13213   */\n      revert\n        /* \"#utility.yul\":13152:13215   */\n    tag_252:\n        /* \"#utility.yul\":13099:13221   */\n      pop\n      jump\t// out\n        /* \"#utility.yul\":13227:13349   */\n    tag_103:\n        /* \"#utility.yul\":13300:13324   */\n      tag_254\n        /* \"#utility.yul\":13318:13323   */\n      dup2\n        /* \"#utility.yul\":13300:13324   */\n      tag_159\n      jump\t// in\n    tag_254:\n        /* \"#utility.yul\":13293:13298   */\n      dup2\n        /* \"#utility.yul\":13290:13325   */\n      eq\n        /* \"#utility.yul\":13280:13343   */\n      tag_255\n      jumpi\n        /* \"#utility.yul\":13339:13340   */\n      0x00\n        /* \"#utility.yul\":13336:13337   */\n      dup1\n        /* \"#utility.yul\":13329:13341   */\n      revert\n        /* \"#utility.yul\":13280:13343   */\n    tag_255:\n        /* \"#utility.yul\":13227:13349   */\n      pop\n      jump\t// out\n\n    auxdata: 0xa2646970667358221220f94c3c838c66cb78d66d82a87c30bd4e5c08e4f9eafcf2638af427962e6028d764736f6c63430008070033\n}\n",
				"bytecode": {
					"linkReferences": {},
					"object": "608060405234801561001057600080fd5b50610e3f806100206000396000f3fe60806040526004361061003f5760003560e01c8063969b156714610044578063c09f8ff614610074578063c4fb33371461008b578063c9d27afe146100a9575b600080fd5b61005e6004803603810190610059919061079a565b6100d2565b60405161006b9190610a02565b60405180910390f35b34801561008057600080fd5b50610089610238565b005b61009361036c565b6040516100a09190610a02565b60405180910390f35b3480156100b557600080fd5b506100d060048036038101906100cb91906107e3565b6103bb565b005b6000678ac7230489e800003410156100e957600080fd5b600060024244336004546040516020016101069493929190610934565b604051602081830303815290604052604051610122919061091d565b602060405180830381855afa15801561013f573d6000803e3d6000fd5b5050506040513d601f19601f82011682018060405250810190610162919061076d565b60001c90508060026000600554815260200190815260200160002060010181905550600554600260006005548152602001908152602001600020600001819055503360026000600554815260200190815260200160002060040160006101000a81548173ffffffffffffffffffffffffffffffffffffffff021916908373ffffffffffffffffffffffffffffffffffffffff16021790555082600260006005548152602001908152602001600020600301908051906020019061022692919061061b565b50610232600554610618565b50919050565b60011515600160003373ffffffffffffffffffffffffffffffffffffffff1673ffffffffffffffffffffffffffffffffffffffff16815260200190815260200160002060009054906101000a900460ff161515146102cb576040517f08c379a00000000000000000000000000000000000000000000000000000000081526004016102c2906109c2565b60405180910390fd5b60001515600160003373ffffffffffffffffffffffffffffffffffffffff1673ffffffffffffffffffffffffffffffffffffffff16815260200190815260200160002060009054906101000a905050503373ffffffffffffffffffffffffffffffffffffffff166108fc670de0b6b3a76400009081150290604051600060405180830381858888f19350505050158015610369573d6000803e3d6000fd5b50565b6000670de0b6b3a764000034146103b8576040517f08c379a00000000000000000000000000000000000000000000000000000000081526004016103af906109a2565b60405180910390fd5b90565b600115156002600084815260200190815260200160002060020160003373ffffffffffffffffffffffffffffffffffffffff1673ffffffffffffffffffffffffffffffffffffffff16815260200190815260200160002060009054906101000a900460ff16151514610462576040517f08c379a0000000000000000000000000000000000000000000000000000000008152600401610459906109e2565b60405180910390fd5b600260008381526020019081526020016000206009015443106104ba576040517f08c379a00000000000000000000000000000000000000000000000000000000081526004016104b190610982565b60405180910390fd5b801561050257600160026000848152602001908152602001600020600701546104e39190610a9a565b6002600084815260200190815260200160002060070181905550610540565b600160026000848152602001908152602001600020600801546105259190610a9a565b60026000848152602001908152602001600020600801819055505b3373ffffffffffffffffffffffffffffffffffffffff166108fc6002600085815260200190815260200160002060050154670de0b6b3a76400006105849190610a9a565b9081150290604051600060405180830381858888f193505050501580156105af573d6000803e3d6000fd5b50600015156002600084815260200190815260200160002060020160003373ffffffffffffffffffffffffffffffffffffffff1673ffffffffffffffffffffffffffffffffffffffff16815260200190815260200160002060009054906101000a905050505050565b50565b82805461062790610b84565b90600052602060002090601f0160209004810192826106495760008555610690565b82601f1061066257805160ff1916838001178555610690565b82800160010185558215610690579182015b8281111561068f578251825591602001919060010190610674565b5b50905061069d91906106a1565b5090565b5b808211156106ba5760008160009055506001016106a2565b5090565b60006106d16106cc84610a42565b610a1d565b9050828152602081018484840111156106ed576106ec610ca7565b5b6106f8848285610b42565b509392505050565b60008135905061070f81610dc4565b92915050565b60008151905061072481610ddb565b92915050565b600082601f83011261073f5761073e610ca2565b5b813561074f8482602086016106be565b91505092915050565b60008135905061076781610df2565b92915050565b60006020828403121561078357610782610cb1565b5b600061079184828501610715565b91505092915050565b6000602082840312156107b0576107af610cb1565b5b600082013567ffffffffffffffff8111156107ce576107cd610cac565b5b6107da8482850161072a565b91505092915050565b600080604083850312156107fa576107f9610cb1565b5b600061080885828601610758565b925050602061081985828601610700565b9150509250929050565b61083461082f82610af0565b610be7565b82525050565b600061084582610a73565b61084f8185610a7e565b935061085f818560208601610b51565b80840191505092915050565b6000610878601183610a89565b915061088382610cd4565b602082019050919050565b600061089b602883610a89565b91506108a682610cfd565b604082019050919050565b60006108be600e83610a89565b91506108c982610d4c565b602082019050919050565b60006108e1602183610a89565b91506108ec82610d75565b604082019050919050565b61090081610b38565b82525050565b61091761091282610b38565b610c0b565b82525050565b6000610929828461083a565b915081905092915050565b60006109408287610906565b6020820191506109508286610906565b6020820191506109608285610823565b6014820191506109708284610906565b60208201915081905095945050505050565b6000602082019050818103600083015261099b8161086b565b9050919050565b600060208201905081810360008301526109bb8161088e565b9050919050565b600060208201905081810360008301526109db816108b1565b9050919050565b600060208201905081810360008301526109fb816108d4565b9050919050565b6000602082019050610a1760008301846108f7565b92915050565b6000610a27610a38565b9050610a338282610bb6565b919050565b6000604051905090565b600067ffffffffffffffff821115610a5d57610a5c610c73565b5b610a6682610cb6565b9050602081019050919050565b600081519050919050565b600081905092915050565b600082825260208201905092915050565b6000610aa582610b38565b9150610ab083610b38565b9250827fffffffffffffffffffffffffffffffffffffffffffffffffffffffffffffffff03821115610ae557610ae4610c15565b5b828201905092915050565b6000610afb82610b18565b9050919050565b60008115159050919050565b6000819050919050565b600073ffffffffffffffffffffffffffffffffffffffff82169050919050565b6000819050919050565b82818337600083830152505050565b60005b83811015610b6f578082015181840152602081019050610b54565b83811115610b7e576000848401525b50505050565b60006002820490506001821680610b9c57607f821691505b60208210811415610bb057610baf610c44565b5b50919050565b610bbf82610cb6565b810181811067ffffffffffffffff82111715610bde57610bdd610c73565b5b80604052505050565b6000610bf282610bf9565b9050919050565b6000610c0482610cc7565b9050919050565b6000819050919050565b7f4e487b7100000000000000000000000000000000000000000000000000000000600052601160045260246000fd5b7f4e487b7100000000000000000000000000000000000000000000000000000000600052602260045260246000fd5b7f4e487b7100000000000000000000000000000000000000000000000000000000600052604160045260246000fd5b600080fd5b600080fd5b600080fd5b600080fd5b6000601f19601f8301169050919050565b60008160601b9050919050565b7f566f74696e672068617320636c6f736564000000000000000000000000000000600082015250565b7f5369676e2d75702072656a65637465642120496e61646571756174652073746160008201527f6b652076616c7565000000000000000000000000000000000000000000000000602082015250565b7f4e6f74207369676e656420757021000000000000000000000000000000000000600082015250565b7f4e6f7420612076616c696461746f7220666f722074686973207265717565737460008201527f2100000000000000000000000000000000000000000000000000000000000000602082015250565b610dcd81610b02565b8114610dd857600080fd5b50565b610de481610b0e565b8114610def57600080fd5b50565b610dfb81610b38565b8114610e0657600080fd5b5056fea2646970667358221220f94c3c838c66cb78d66d82a87c30bd4e5c08e4f9eafcf2638af427962e6028d764736f6c63430008070033",
					"opcodes": "PUSH1 0x80 PUSH1 0x40 MSTORE CALLVALUE DUP1 ISZERO PUSH2 0x10 JUMPI PUSH1 0x0 DUP1 REVERT JUMPDEST POP PUSH2 0xE3F DUP1 PUSH2 0x20 PUSH1 0x0 CODECOPY PUSH1 0x0 RETURN INVALID PUSH1 0x80 PUSH1 0x40 MSTORE PUSH1 0x4 CALLDATASIZE LT PUSH2 0x3F JUMPI PUSH1 0x0 CALLDATALOAD PUSH1 0xE0 SHR DUP1 PUSH4 0x969B1567 EQ PUSH2 0x44 JUMPI DUP1 PUSH4 0xC09F8FF6 EQ PUSH2 0x74 JUMPI DUP1 PUSH4 0xC4FB3337 EQ PUSH2 0x8B JUMPI DUP1 PUSH4 0xC9D27AFE EQ PUSH2 0xA9 JUMPI JUMPDEST PUSH1 0x0 DUP1 REVERT JUMPDEST PUSH2 0x5E PUSH1 0x4 DUP1 CALLDATASIZE SUB DUP2 ADD SWAP1 PUSH2 0x59 SWAP2 SWAP1 PUSH2 0x79A JUMP JUMPDEST PUSH2 0xD2 JUMP JUMPDEST PUSH1 0x40 MLOAD PUSH2 0x6B SWAP2 SWAP1 PUSH2 0xA02 JUMP JUMPDEST PUSH1 0x40 MLOAD DUP1 SWAP2 SUB SWAP1 RETURN JUMPDEST CALLVALUE DUP1 ISZERO PUSH2 0x80 JUMPI PUSH1 0x0 DUP1 REVERT JUMPDEST POP PUSH2 0x89 PUSH2 0x238 JUMP JUMPDEST STOP JUMPDEST PUSH2 0x93 PUSH2 0x36C JUMP JUMPDEST PUSH1 0x40 MLOAD PUSH2 0xA0 SWAP2 SWAP1 PUSH2 0xA02 JUMP JUMPDEST PUSH1 0x40 MLOAD DUP1 SWAP2 SUB SWAP1 RETURN JUMPDEST CALLVALUE DUP1 ISZERO PUSH2 0xB5 JUMPI PUSH1 0x0 DUP1 REVERT JUMPDEST POP PUSH2 0xD0 PUSH1 0x4 DUP1 CALLDATASIZE SUB DUP2 ADD SWAP1 PUSH2 0xCB SWAP2 SWAP1 PUSH2 0x7E3 JUMP JUMPDEST PUSH2 0x3BB JUMP JUMPDEST STOP JUMPDEST PUSH1 0x0 PUSH8 0x8AC7230489E80000 CALLVALUE LT ISZERO PUSH2 0xE9 JUMPI PUSH1 0x0 DUP1 REVERT JUMPDEST PUSH1 0x0 PUSH1 0x2 TIMESTAMP DIFFICULTY CALLER PUSH1 0x4 SLOAD PUSH1 0x40 MLOAD PUSH1 0x20 ADD PUSH2 0x106 SWAP5 SWAP4 SWAP3 SWAP2 SWAP1 PUSH2 0x934 JUMP JUMPDEST PUSH1 0x40 MLOAD PUSH1 0x20 DUP2 DUP4 SUB SUB DUP2 MSTORE SWAP1 PUSH1 0x40 MSTORE PUSH1 0x40 MLOAD PUSH2 0x122 SWAP2 SWAP1 PUSH2 0x91D JUMP JUMPDEST PUSH1 0x20 PUSH1 0x40 MLOAD DUP1 DUP4 SUB DUP2 DUP6 GAS STATICCALL ISZERO DUP1 ISZERO PUSH2 0x13F JUMPI RETURNDATASIZE PUSH1 0x0 DUP1 RETURNDATACOPY RETURNDATASIZE PUSH1 0x0 REVERT JUMPDEST POP POP POP PUSH1 0x40 MLOAD RETURNDATASIZE PUSH1 0x1F NOT PUSH1 0x1F DUP3 ADD AND DUP3 ADD DUP1 PUSH1 0x40 MSTORE POP DUP2 ADD SWAP1 PUSH2 0x162 SWAP2 SWAP1 PUSH2 0x76D JUMP JUMPDEST PUSH1 0x0 SHR SWAP1 POP DUP1 PUSH1 0x2 PUSH1 0x0 PUSH1 0x5 SLOAD DUP2 MSTORE PUSH1 0x20 ADD SWAP1 DUP2 MSTORE PUSH1 0x20 ADD PUSH1 0x0 KECCAK256 PUSH1 0x1 ADD DUP2 SWAP1 SSTORE POP PUSH1 0x5 SLOAD PUSH1 0x2 PUSH1 0x0 PUSH1 0x5 SLOAD DUP2 MSTORE PUSH1 0x20 ADD SWAP1 DUP2 MSTORE PUSH1 0x20 ADD PUSH1 0x0 KECCAK256 PUSH1 0x0 ADD DUP2 SWAP1 SSTORE POP CALLER PUSH1 0x2 PUSH1 0x0 PUSH1 0x5 SLOAD DUP2 MSTORE PUSH1 0x20 ADD SWAP1 DUP2 MSTORE PUSH1 0x20 ADD PUSH1 0x0 KECCAK256 PUSH1 0x4 ADD PUSH1 0x0 PUSH2 0x100 EXP DUP2 SLOAD DUP2 PUSH20 0xFFFFFFFFFFFFFFFFFFFFFFFFFFFFFFFFFFFFFFFF MUL NOT AND SWAP1 DUP4 PUSH20 0xFFFFFFFFFFFFFFFFFFFFFFFFFFFFFFFFFFFFFFFF AND MUL OR SWAP1 SSTORE POP DUP3 PUSH1 0x2 PUSH1 0x0 PUSH1 0x5 SLOAD DUP2 MSTORE PUSH1 0x20 ADD SWAP1 DUP2 MSTORE PUSH1 0x20 ADD PUSH1 0x0 KECCAK256 PUSH1 0x3 ADD SWAP1 DUP1 MLOAD SWAP1 PUSH1 0x20 ADD SWAP1 PUSH2 0x226 SWAP3 SWAP2 SWAP1 PUSH2 0x61B JUMP JUMPDEST POP PUSH2 0x232 PUSH1 0x5 SLOAD PUSH2 0x618 JUMP JUMPDEST POP SWAP2 SWAP1 POP JUMP JUMPDEST PUSH1 0x1 ISZERO ISZERO PUSH1 0x1 PUSH1 0x0 CALLER PUSH20 0xFFFFFFFFFFFFFFFFFFFFFFFFFFFFFFFFFFFFFFFF AND PUSH20 0xFFFFFFFFFFFFFFFFFFFFFFFFFFFFFFFFFFFFFFFF AND DUP2 MSTORE PUSH1 0x20 ADD SWAP1 DUP2 MSTORE PUSH1 0x20 ADD PUSH1 0x0 KECCAK256 PUSH1 0x0 SWAP1 SLOAD SWAP1 PUSH2 0x100 EXP SWAP1 DIV PUSH1 0xFF AND ISZERO ISZERO EQ PUSH2 0x2CB JUMPI PUSH1 0x40 MLOAD PUSH32 0x8C379A000000000000000000000000000000000000000000000000000000000 DUP2 MSTORE PUSH1 0x4 ADD PUSH2 0x2C2 SWAP1 PUSH2 0x9C2 JUMP JUMPDEST PUSH1 0x40 MLOAD DUP1 SWAP2 SUB SWAP1 REVERT JUMPDEST PUSH1 0x0 ISZERO ISZERO PUSH1 0x1 PUSH1 0x0 CALLER PUSH20 0xFFFFFFFFFFFFFFFFFFFFFFFFFFFFFFFFFFFFFFFF AND PUSH20 0xFFFFFFFFFFFFFFFFFFFFFFFFFFFFFFFFFFFFFFFF AND DUP2 MSTORE PUSH1 0x20 ADD SWAP1 DUP2 MSTORE PUSH1 0x20 ADD PUSH1 0x0 KECCAK256 PUSH1 0x0 SWAP1 SLOAD SWAP1 PUSH2 0x100 EXP SWAP1 POP POP POP CALLER PUSH20 0xFFFFFFFFFFFFFFFFFFFFFFFFFFFFFFFFFFFFFFFF AND PUSH2 0x8FC PUSH8 0xDE0B6B3A7640000 SWAP1 DUP2 ISZERO MUL SWAP1 PUSH1 0x40 MLOAD PUSH1 0x0 PUSH1 0x40 MLOAD DUP1 DUP4 SUB DUP2 DUP6 DUP9 DUP9 CALL SWAP4 POP POP POP POP ISZERO DUP1 ISZERO PUSH2 0x369 JUMPI RETURNDATASIZE PUSH1 0x0 DUP1 RETURNDATACOPY RETURNDATASIZE PUSH1 0x0 REVERT JUMPDEST POP JUMP JUMPDEST PUSH1 0x0 PUSH8 0xDE0B6B3A7640000 CALLVALUE EQ PUSH2 0x3B8 JUMPI PUSH1 0x40 MLOAD PUSH32 0x8C379A000000000000000000000000000000000000000000000000000000000 DUP2 MSTORE PUSH1 0x4 ADD PUSH2 0x3AF SWAP1 PUSH2 0x9A2 JUMP JUMPDEST PUSH1 0x40 MLOAD DUP1 SWAP2 SUB SWAP1 REVERT JUMPDEST SWAP1 JUMP JUMPDEST PUSH1 0x1 ISZERO ISZERO PUSH1 0x2 PUSH1 0x0 DUP5 DUP2 MSTORE PUSH1 0x20 ADD SWAP1 DUP2 MSTORE PUSH1 0x20 ADD PUSH1 0x0 KECCAK256 PUSH1 0x2 ADD PUSH1 0x0 CALLER PUSH20 0xFFFFFFFFFFFFFFFFFFFFFFFFFFFFFFFFFFFFFFFF AND PUSH20 0xFFFFFFFFFFFFFFFFFFFFFFFFFFFFFFFFFFFFFFFF AND DUP2 MSTORE PUSH1 0x20 ADD SWAP1 DUP2 MSTORE PUSH1 0x20 ADD PUSH1 0x0 KECCAK256 PUSH1 0x0 SWAP1 SLOAD SWAP1 PUSH2 0x100 EXP SWAP1 DIV PUSH1 0xFF AND ISZERO ISZERO EQ PUSH2 0x462 JUMPI PUSH1 0x40 MLOAD PUSH32 0x8C379A000000000000000000000000000000000000000000000000000000000 DUP2 MSTORE PUSH1 0x4 ADD PUSH2 0x459 SWAP1 PUSH2 0x9E2 JUMP JUMPDEST PUSH1 0x40 MLOAD DUP1 SWAP2 SUB SWAP1 REVERT JUMPDEST PUSH1 0x2 PUSH1 0x0 DUP4 DUP2 MSTORE PUSH1 0x20 ADD SWAP1 DUP2 MSTORE PUSH1 0x20 ADD PUSH1 0x0 KECCAK256 PUSH1 0x9 ADD SLOAD NUMBER LT PUSH2 0x4BA JUMPI PUSH1 0x40 MLOAD PUSH32 0x8C379A000000000000000000000000000000000000000000000000000000000 DUP2 MSTORE PUSH1 0x4 ADD PUSH2 0x4B1 SWAP1 PUSH2 0x982 JUMP JUMPDEST PUSH1 0x40 MLOAD DUP1 SWAP2 SUB SWAP1 REVERT JUMPDEST DUP1 ISZERO PUSH2 0x502 JUMPI PUSH1 0x1 PUSH1 0x2 PUSH1 0x0 DUP5 DUP2 MSTORE PUSH1 0x20 ADD SWAP1 DUP2 MSTORE PUSH1 0x20 ADD PUSH1 0x0 KECCAK256 PUSH1 0x7 ADD SLOAD PUSH2 0x4E3 SWAP2 SWAP1 PUSH2 0xA9A JUMP JUMPDEST PUSH1 0x2 PUSH1 0x0 DUP5 DUP2 MSTORE PUSH1 0x20 ADD SWAP1 DUP2 MSTORE PUSH1 0x20 ADD PUSH1 0x0 KECCAK256 PUSH1 0x7 ADD DUP2 SWAP1 SSTORE POP PUSH2 0x540 JUMP JUMPDEST PUSH1 0x1 PUSH1 0x2 PUSH1 0x0 DUP5 DUP2 MSTORE PUSH1 0x20 ADD SWAP1 DUP2 MSTORE PUSH1 0x20 ADD PUSH1 0x0 KECCAK256 PUSH1 0x8 ADD SLOAD PUSH2 0x525 SWAP2 SWAP1 PUSH2 0xA9A JUMP JUMPDEST PUSH1 0x2 PUSH1 0x0 DUP5 DUP2 MSTORE PUSH1 0x20 ADD SWAP1 DUP2 MSTORE PUSH1 0x20 ADD PUSH1 0x0 KECCAK256 PUSH1 0x8 ADD DUP2 SWAP1 SSTORE POP JUMPDEST CALLER PUSH20 0xFFFFFFFFFFFFFFFFFFFFFFFFFFFFFFFFFFFFFFFF AND PUSH2 0x8FC PUSH1 0x2 PUSH1 0x0 DUP6 DUP2 MSTORE PUSH1 0x20 ADD SWAP1 DUP2 MSTORE PUSH1 0x20 ADD PUSH1 0x0 KECCAK256 PUSH1 0x5 ADD SLOAD PUSH8 0xDE0B6B3A7640000 PUSH2 0x584 SWAP2 SWAP1 PUSH2 0xA9A JUMP JUMPDEST SWAP1 DUP2 ISZERO MUL SWAP1 PUSH1 0x40 MLOAD PUSH1 0x0 PUSH1 0x40 MLOAD DUP1 DUP4 SUB DUP2 DUP6 DUP9 DUP9 CALL SWAP4 POP POP POP POP ISZERO DUP1 ISZERO PUSH2 0x5AF JUMPI RETURNDATASIZE PUSH1 0x0 DUP1 RETURNDATACOPY RETURNDATASIZE PUSH1 0x0 REVERT JUMPDEST POP PUSH1 0x0 ISZERO ISZERO PUSH1 0x2 PUSH1 0x0 DUP5 DUP2 MSTORE PUSH1 0x20 ADD SWAP1 DUP2 MSTORE PUSH1 0x20 ADD PUSH1 0x0 KECCAK256 PUSH1 0x2 ADD PUSH1 0x0 CALLER PUSH20 0xFFFFFFFFFFFFFFFFFFFFFFFFFFFFFFFFFFFFFFFF AND PUSH20 0xFFFFFFFFFFFFFFFFFFFFFFFFFFFFFFFFFFFFFFFF AND DUP2 MSTORE PUSH1 0x20 ADD SWAP1 DUP2 MSTORE PUSH1 0x20 ADD PUSH1 0x0 KECCAK256 PUSH1 0x0 SWAP1 SLOAD SWAP1 PUSH2 0x100 EXP SWAP1 POP POP POP POP POP JUMP JUMPDEST POP JUMP JUMPDEST DUP3 DUP1 SLOAD PUSH2 0x627 SWAP1 PUSH2 0xB84 JUMP JUMPDEST SWAP1 PUSH1 0x0 MSTORE PUSH1 0x20 PUSH1 0x0 KECCAK256 SWAP1 PUSH1 0x1F ADD PUSH1 0x20 SWAP1 DIV DUP2 ADD SWAP3 DUP3 PUSH2 0x649 JUMPI PUSH1 0x0 DUP6 SSTORE PUSH2 0x690 JUMP JUMPDEST DUP3 PUSH1 0x1F LT PUSH2 0x662 JUMPI DUP1 MLOAD PUSH1 0xFF NOT AND DUP4 DUP1 ADD OR DUP6 SSTORE PUSH2 0x690 JUMP JUMPDEST DUP3 DUP1 ADD PUSH1 0x1 ADD DUP6 SSTORE DUP3 ISZERO PUSH2 0x690 JUMPI SWAP2 DUP3 ADD JUMPDEST DUP3 DUP2 GT ISZERO PUSH2 0x68F JUMPI DUP3 MLOAD DUP3 SSTORE SWAP2 PUSH1 0x20 ADD SWAP2 SWAP1 PUSH1 0x1 ADD SWAP1 PUSH2 0x674 JUMP JUMPDEST JUMPDEST POP SWAP1 POP PUSH2 0x69D SWAP2 SWAP1 PUSH2 0x6A1 JUMP JUMPDEST POP SWAP1 JUMP JUMPDEST JUMPDEST DUP1 DUP3 GT ISZERO PUSH2 0x6BA JUMPI PUSH1 0x0 DUP2 PUSH1 0x0 SWAP1 SSTORE POP PUSH1 0x1 ADD PUSH2 0x6A2 JUMP JUMPDEST POP SWAP1 JUMP JUMPDEST PUSH1 0x0 PUSH2 0x6D1 PUSH2 0x6CC DUP5 PUSH2 0xA42 JUMP JUMPDEST PUSH2 0xA1D JUMP JUMPDEST SWAP1 POP DUP3 DUP2 MSTORE PUSH1 0x20 DUP2 ADD DUP5 DUP5 DUP5 ADD GT ISZERO PUSH2 0x6ED JUMPI PUSH2 0x6EC PUSH2 0xCA7 JUMP JUMPDEST JUMPDEST PUSH2 0x6F8 DUP5 DUP3 DUP6 PUSH2 0xB42 JUMP JUMPDEST POP SWAP4 SWAP3 POP POP POP JUMP JUMPDEST PUSH1 0x0 DUP2 CALLDATALOAD SWAP1 POP PUSH2 0x70F DUP2 PUSH2 0xDC4 JUMP JUMPDEST SWAP3 SWAP2 POP POP JUMP JUMPDEST PUSH1 0x0 DUP2 MLOAD SWAP1 POP PUSH2 0x724 DUP2 PUSH2 0xDDB JUMP JUMPDEST SWAP3 SWAP2 POP POP JUMP JUMPDEST PUSH1 0x0 DUP3 PUSH1 0x1F DUP4 ADD SLT PUSH2 0x73F JUMPI PUSH2 0x73E PUSH2 0xCA2 JUMP JUMPDEST JUMPDEST DUP2 CALLDATALOAD PUSH2 0x74F DUP5 DUP3 PUSH1 0x20 DUP7 ADD PUSH2 0x6BE JUMP JUMPDEST SWAP2 POP POP SWAP3 SWAP2 POP POP JUMP JUMPDEST PUSH1 0x0 DUP2 CALLDATALOAD SWAP1 POP PUSH2 0x767 DUP2 PUSH2 0xDF2 JUMP JUMPDEST SWAP3 SWAP2 POP POP JUMP JUMPDEST PUSH1 0x0 PUSH1 0x20 DUP3 DUP5 SUB SLT ISZERO PUSH2 0x783 JUMPI PUSH2 0x782 PUSH2 0xCB1 JUMP JUMPDEST JUMPDEST PUSH1 0x0 PUSH2 0x791 DUP5 DUP3 DUP6 ADD PUSH2 0x715 JUMP JUMPDEST SWAP2 POP POP SWAP3 SWAP2 POP POP JUMP JUMPDEST PUSH1 0x0 PUSH1 0x20 DUP3 DUP5 SUB SLT ISZERO PUSH2 0x7B0 JUMPI PUSH2 0x7AF PUSH2 0xCB1 JUMP JUMPDEST JUMPDEST PUSH1 0x0 DUP3 ADD CALLDATALOAD PUSH8 0xFFFFFFFFFFFFFFFF DUP2 GT ISZERO PUSH2 0x7CE JUMPI PUSH2 0x7CD PUSH2 0xCAC JUMP JUMPDEST JUMPDEST PUSH2 0x7DA DUP5 DUP3 DUP6 ADD PUSH2 0x72A JUMP JUMPDEST SWAP2 POP POP SWAP3 SWAP2 POP POP JUMP JUMPDEST PUSH1 0x0 DUP1 PUSH1 0x40 DUP4 DUP6 SUB SLT ISZERO PUSH2 0x7FA JUMPI PUSH2 0x7F9 PUSH2 0xCB1 JUMP JUMPDEST JUMPDEST PUSH1 0x0 PUSH2 0x808 DUP6 DUP3 DUP7 ADD PUSH2 0x758 JUMP JUMPDEST SWAP3 POP POP PUSH1 0x20 PUSH2 0x819 DUP6 DUP3 DUP7 ADD PUSH2 0x700 JUMP JUMPDEST SWAP2 POP POP SWAP3 POP SWAP3 SWAP1 POP JUMP JUMPDEST PUSH2 0x834 PUSH2 0x82F DUP3 PUSH2 0xAF0 JUMP JUMPDEST PUSH2 0xBE7 JUMP JUMPDEST DUP3 MSTORE POP POP JUMP JUMPDEST PUSH1 0x0 PUSH2 0x845 DUP3 PUSH2 0xA73 JUMP JUMPDEST PUSH2 0x84F DUP2 DUP6 PUSH2 0xA7E JUMP JUMPDEST SWAP4 POP PUSH2 0x85F DUP2 DUP6 PUSH1 0x20 DUP7 ADD PUSH2 0xB51 JUMP JUMPDEST DUP1 DUP5 ADD SWAP2 POP POP SWAP3 SWAP2 POP POP JUMP JUMPDEST PUSH1 0x0 PUSH2 0x878 PUSH1 0x11 DUP4 PUSH2 0xA89 JUMP JUMPDEST SWAP2 POP PUSH2 0x883 DUP3 PUSH2 0xCD4 JUMP JUMPDEST PUSH1 0x20 DUP3 ADD SWAP1 POP SWAP2 SWAP1 POP JUMP JUMPDEST PUSH1 0x0 PUSH2 0x89B PUSH1 0x28 DUP4 PUSH2 0xA89 JUMP JUMPDEST SWAP2 POP PUSH2 0x8A6 DUP3 PUSH2 0xCFD JUMP JUMPDEST PUSH1 0x40 DUP3 ADD SWAP1 POP SWAP2 SWAP1 POP JUMP JUMPDEST PUSH1 0x0 PUSH2 0x8BE PUSH1 0xE DUP4 PUSH2 0xA89 JUMP JUMPDEST SWAP2 POP PUSH2 0x8C9 DUP3 PUSH2 0xD4C JUMP JUMPDEST PUSH1 0x20 DUP3 ADD SWAP1 POP SWAP2 SWAP1 POP JUMP JUMPDEST PUSH1 0x0 PUSH2 0x8E1 PUSH1 0x21 DUP4 PUSH2 0xA89 JUMP JUMPDEST SWAP2 POP PUSH2 0x8EC DUP3 PUSH2 0xD75 JUMP JUMPDEST PUSH1 0x40 DUP3 ADD SWAP1 POP SWAP2 SWAP1 POP JUMP JUMPDEST PUSH2 0x900 DUP2 PUSH2 0xB38 JUMP JUMPDEST DUP3 MSTORE POP POP JUMP JUMPDEST PUSH2 0x917 PUSH2 0x912 DUP3 PUSH2 0xB38 JUMP JUMPDEST PUSH2 0xC0B JUMP JUMPDEST DUP3 MSTORE POP POP JUMP JUMPDEST PUSH1 0x0 PUSH2 0x929 DUP3 DUP5 PUSH2 0x83A JUMP JUMPDEST SWAP2 POP DUP2 SWAP1 POP SWAP3 SWAP2 POP POP JUMP JUMPDEST PUSH1 0x0 PUSH2 0x940 DUP3 DUP8 PUSH2 0x906 JUMP JUMPDEST PUSH1 0x20 DUP3 ADD SWAP2 POP PUSH2 0x950 DUP3 DUP7 PUSH2 0x906 JUMP JUMPDEST PUSH1 0x20 DUP3 ADD SWAP2 POP PUSH2 0x960 DUP3 DUP6 PUSH2 0x823 JUMP JUMPDEST PUSH1 0x14 DUP3 ADD SWAP2 POP PUSH2 0x970 DUP3 DUP5 PUSH2 0x906 JUMP JUMPDEST PUSH1 0x20 DUP3 ADD SWAP2 POP DUP2 SWAP1 POP SWAP6 SWAP5 POP POP POP POP POP JUMP JUMPDEST PUSH1 0x0 PUSH1 0x20 DUP3 ADD SWAP1 POP DUP2 DUP2 SUB PUSH1 0x0 DUP4 ADD MSTORE PUSH2 0x99B DUP2 PUSH2 0x86B JUMP JUMPDEST SWAP1 POP SWAP2 SWAP1 POP JUMP JUMPDEST PUSH1 0x0 PUSH1 0x20 DUP3 ADD SWAP1 POP DUP2 DUP2 SUB PUSH1 0x0 DUP4 ADD MSTORE PUSH2 0x9BB DUP2 PUSH2 0x88E JUMP JUMPDEST SWAP1 POP SWAP2 SWAP1 POP JUMP JUMPDEST PUSH1 0x0 PUSH1 0x20 DUP3 ADD SWAP1 POP DUP2 DUP2 SUB PUSH1 0x0 DUP4 ADD MSTORE PUSH2 0x9DB DUP2 PUSH2 0x8B1 JUMP JUMPDEST SWAP1 POP SWAP2 SWAP1 POP JUMP JUMPDEST PUSH1 0x0 PUSH1 0x20 DUP3 ADD SWAP1 POP DUP2 DUP2 SUB PUSH1 0x0 DUP4 ADD MSTORE PUSH2 0x9FB DUP2 PUSH2 0x8D4 JUMP JUMPDEST SWAP1 POP SWAP2 SWAP1 POP JUMP JUMPDEST PUSH1 0x0 PUSH1 0x20 DUP3 ADD SWAP1 POP PUSH2 0xA17 PUSH1 0x0 DUP4 ADD DUP5 PUSH2 0x8F7 JUMP JUMPDEST SWAP3 SWAP2 POP POP JUMP JUMPDEST PUSH1 0x0 PUSH2 0xA27 PUSH2 0xA38 JUMP JUMPDEST SWAP1 POP PUSH2 0xA33 DUP3 DUP3 PUSH2 0xBB6 JUMP JUMPDEST SWAP2 SWAP1 POP JUMP JUMPDEST PUSH1 0x0 PUSH1 0x40 MLOAD SWAP1 POP SWAP1 JUMP JUMPDEST PUSH1 0x0 PUSH8 0xFFFFFFFFFFFFFFFF DUP3 GT ISZERO PUSH2 0xA5D JUMPI PUSH2 0xA5C PUSH2 0xC73 JUMP JUMPDEST JUMPDEST PUSH2 0xA66 DUP3 PUSH2 0xCB6 JUMP JUMPDEST SWAP1 POP PUSH1 0x20 DUP2 ADD SWAP1 POP SWAP2 SWAP1 POP JUMP JUMPDEST PUSH1 0x0 DUP2 MLOAD SWAP1 POP SWAP2 SWAP1 POP JUMP JUMPDEST PUSH1 0x0 DUP2 SWAP1 POP SWAP3 SWAP2 POP POP JUMP JUMPDEST PUSH1 0x0 DUP3 DUP3 MSTORE PUSH1 0x20 DUP3 ADD SWAP1 POP SWAP3 SWAP2 POP POP JUMP JUMPDEST PUSH1 0x0 PUSH2 0xAA5 DUP3 PUSH2 0xB38 JUMP JUMPDEST SWAP2 POP PUSH2 0xAB0 DUP4 PUSH2 0xB38 JUMP JUMPDEST SWAP3 POP DUP3 PUSH32 0xFFFFFFFFFFFFFFFFFFFFFFFFFFFFFFFFFFFFFFFFFFFFFFFFFFFFFFFFFFFFFFFF SUB DUP3 GT ISZERO PUSH2 0xAE5 JUMPI PUSH2 0xAE4 PUSH2 0xC15 JUMP JUMPDEST JUMPDEST DUP3 DUP3 ADD SWAP1 POP SWAP3 SWAP2 POP POP JUMP JUMPDEST PUSH1 0x0 PUSH2 0xAFB DUP3 PUSH2 0xB18 JUMP JUMPDEST SWAP1 POP SWAP2 SWAP1 POP JUMP JUMPDEST PUSH1 0x0 DUP2 ISZERO ISZERO SWAP1 POP SWAP2 SWAP1 POP JUMP JUMPDEST PUSH1 0x0 DUP2 SWAP1 POP SWAP2 SWAP1 POP JUMP JUMPDEST PUSH1 0x0 PUSH20 0xFFFFFFFFFFFFFFFFFFFFFFFFFFFFFFFFFFFFFFFF DUP3 AND SWAP1 POP SWAP2 SWAP1 POP JUMP JUMPDEST PUSH1 0x0 DUP2 SWAP1 POP SWAP2 SWAP1 POP JUMP JUMPDEST DUP3 DUP2 DUP4 CALLDATACOPY PUSH1 0x0 DUP4 DUP4 ADD MSTORE POP POP POP JUMP JUMPDEST PUSH1 0x0 JUMPDEST DUP4 DUP2 LT ISZERO PUSH2 0xB6F JUMPI DUP1 DUP3 ADD MLOAD DUP2 DUP5 ADD MSTORE PUSH1 0x20 DUP2 ADD SWAP1 POP PUSH2 0xB54 JUMP JUMPDEST DUP4 DUP2 GT ISZERO PUSH2 0xB7E JUMPI PUSH1 0x0 DUP5 DUP5 ADD MSTORE JUMPDEST POP POP POP POP JUMP JUMPDEST PUSH1 0x0 PUSH1 0x2 DUP3 DIV SWAP1 POP PUSH1 0x1 DUP3 AND DUP1 PUSH2 0xB9C JUMPI PUSH1 0x7F DUP3 AND SWAP2 POP JUMPDEST PUSH1 0x20 DUP3 LT DUP2 EQ ISZERO PUSH2 0xBB0 JUMPI PUSH2 0xBAF PUSH2 0xC44 JUMP JUMPDEST JUMPDEST POP SWAP2 SWAP1 POP JUMP JUMPDEST PUSH2 0xBBF DUP3 PUSH2 0xCB6 JUMP JUMPDEST DUP2 ADD DUP2 DUP2 LT PUSH8 0xFFFFFFFFFFFFFFFF DUP3 GT OR ISZERO PUSH2 0xBDE JUMPI PUSH2 0xBDD PUSH2 0xC73 JUMP JUMPDEST JUMPDEST DUP1 PUSH1 0x40 MSTORE POP POP POP JUMP JUMPDEST PUSH1 0x0 PUSH2 0xBF2 DUP3 PUSH2 0xBF9 JUMP JUMPDEST SWAP1 POP SWAP2 SWAP1 POP JUMP JUMPDEST PUSH1 0x0 PUSH2 0xC04 DUP3 PUSH2 0xCC7 JUMP JUMPDEST SWAP1 POP SWAP2 SWAP1 POP JUMP JUMPDEST PUSH1 0x0 DUP2 SWAP1 POP SWAP2 SWAP1 POP JUMP JUMPDEST PUSH32 0x4E487B7100000000000000000000000000000000000000000000000000000000 PUSH1 0x0 MSTORE PUSH1 0x11 PUSH1 0x4 MSTORE PUSH1 0x24 PUSH1 0x0 REVERT JUMPDEST PUSH32 0x4E487B7100000000000000000000000000000000000000000000000000000000 PUSH1 0x0 MSTORE PUSH1 0x22 PUSH1 0x4 MSTORE PUSH1 0x24 PUSH1 0x0 REVERT JUMPDEST PUSH32 0x4E487B7100000000000000000000000000000000000000000000000000000000 PUSH1 0x0 MSTORE PUSH1 0x41 PUSH1 0x4 MSTORE PUSH1 0x24 PUSH1 0x0 REVERT JUMPDEST PUSH1 0x0 DUP1 REVERT JUMPDEST PUSH1 0x0 DUP1 REVERT JUMPDEST PUSH1 0x0 DUP1 REVERT JUMPDEST PUSH1 0x0 DUP1 REVERT JUMPDEST PUSH1 0x0 PUSH1 0x1F NOT PUSH1 0x1F DUP4 ADD AND SWAP1 POP SWAP2 SWAP1 POP JUMP JUMPDEST PUSH1 0x0 DUP2 PUSH1 0x60 SHL SWAP1 POP SWAP2 SWAP1 POP JUMP JUMPDEST PUSH32 0x566F74696E672068617320636C6F736564000000000000000000000000000000 PUSH1 0x0 DUP3 ADD MSTORE POP JUMP JUMPDEST PUSH32 0x5369676E2D75702072656A65637465642120496E616465717561746520737461 PUSH1 0x0 DUP3 ADD MSTORE PUSH32 0x6B652076616C7565000000000000000000000000000000000000000000000000 PUSH1 0x20 DUP3 ADD MSTORE POP JUMP JUMPDEST PUSH32 0x4E6F74207369676E656420757021000000000000000000000000000000000000 PUSH1 0x0 DUP3 ADD MSTORE POP JUMP JUMPDEST PUSH32 0x4E6F7420612076616C696461746F7220666F7220746869732072657175657374 PUSH1 0x0 DUP3 ADD MSTORE PUSH32 0x2100000000000000000000000000000000000000000000000000000000000000 PUSH1 0x20 DUP3 ADD MSTORE POP JUMP JUMPDEST PUSH2 0xDCD DUP2 PUSH2 0xB02 JUMP JUMPDEST DUP2 EQ PUSH2 0xDD8 JUMPI PUSH1 0x0 DUP1 REVERT JUMPDEST POP JUMP JUMPDEST PUSH2 0xDE4 DUP2 PUSH2 0xB0E JUMP JUMPDEST DUP2 EQ PUSH2 0xDEF JUMPI PUSH1 0x0 DUP1 REVERT JUMPDEST POP JUMP JUMPDEST PUSH2 0xDFB DUP2 PUSH2 0xB38 JUMP JUMPDEST DUP2 EQ PUSH2 0xE06 JUMPI PUSH1 0x0 DUP1 REVERT JUMPDEST POP JUMP INVALID LOG2 PUSH5 0x6970667358 0x22 SLT KECCAK256 0xF9 0x4C EXTCODECOPY DUP4 DUP13 PUSH7 0xCB78D66D82A87C ADDRESS 0xBD 0x4E 0x5C ADDMOD 0xE4 0xF9 0xEA 0xFC CALLCODE PUSH4 0x8AF42796 0x2E PUSH1 0x28 0xD7 PUSH5 0x736F6C6343 STOP ADDMOD SMOD STOP CALLER "
				},
				"gasEstimates": {
					"creation": {
						"codeDepositCost": "729400",
						"executionCost": "760",
						"totalCost": "730160"
					},
					"external": {
						"cancel_signup()": "infinite",
						"request_verification(string)": "infinite",
						"sign_up()": "474",
						"vote(uint256,bool)": "infinite"
					},
					"internal": {
						"chooseValidators(uint256)": "11"
					}
				},
				"methodIdentifiers": {
					"cancel_signup()": "c09f8ff6",
					"request_verification(string)": "969b1567",
					"sign_up()": "c4fb3337",
					"vote(uint256,bool)": "c9d27afe"
				}
			},
			"userdoc": {
				"kind": "user",
				"methods": {},
				"version": 1
			}
		}
	}
}