{
	"Desktop/EthCA/blockchain/EthCA.sol": {
		"EthCA": {
			"abi": [
				{
					"inputs": [],
					"name": "cancel_signup",
					"outputs": [],
					"stateMutability": "nonpayable",
					"type": "function"
				},
				{
					"inputs": [
						{
							"internalType": "string",
							"name": "domain",
							"type": "string"
						}
					],
					"name": "request_verification",
					"outputs": [
						{
							"internalType": "uint256",
							"name": "",
							"type": "uint256"
						}
					],
					"stateMutability": "payable",
					"type": "function"
				},
				{
					"inputs": [],
					"name": "sign_up",
					"outputs": [
						{
							"internalType": "uint256",
							"name": "",
							"type": "uint256"
						}
					],
					"stateMutability": "payable",
					"type": "function"
				},
				{
					"inputs": [
						{
							"internalType": "uint256",
							"name": "requestID",
							"type": "uint256"
						},
						{
							"internalType": "bool",
							"name": "vote",
							"type": "bool"
						}
					],
					"name": "vote",
					"outputs": [],
					"stateMutability": "nonpayable",
					"type": "function"
				}
			],
			"devdoc": {
				"kind": "dev",
				"methods": {},
				"version": 1
			},
			"evm": {
				"assembly": "    /* \"Desktop/EthCA/blockchain/EthCA.sol\":204:3459  contract EthCA {... */\n  mstore(0x40, 0x80)\n  callvalue\n  dup1\n  iszero\n  tag_1\n  jumpi\n  0x00\n  dup1\n  revert\ntag_1:\n  pop\n  dataSize(sub_0)\n  dup1\n  dataOffset(sub_0)\n  0x00\n  codecopy\n  0x00\n  return\nstop\n\nsub_0: assembly {\n        /* \"Desktop/EthCA/blockchain/EthCA.sol\":204:3459  contract EthCA {... */\n      mstore(0x40, 0x80)\n      jumpi(tag_1, lt(calldatasize, 0x04))\n      shr(0xe0, calldataload(0x00))\n      dup1\n      0x969b1567\n      eq\n      tag_2\n      jumpi\n      dup1\n      0xc09f8ff6\n      eq\n      tag_3\n      jumpi\n      dup1\n      0xc4fb3337\n      eq\n      tag_4\n      jumpi\n      dup1\n      0xc9d27afe\n      eq\n      tag_5\n      jumpi\n    tag_1:\n      0x00\n      dup1\n      revert\n        /* \"Desktop/EthCA/blockchain/EthCA.sol\":1216:1843  function request_verification(string memory domain) public payable returns (uint) {... */\n    tag_2:\n      tag_6\n      0x04\n      dup1\n      calldatasize\n      sub\n      dup2\n      add\n      swap1\n      tag_7\n      swap2\n      swap1\n      tag_8\n      jump\t// in\n    tag_7:\n      tag_9\n      jump\t// in\n    tag_6:\n      mload(0x40)\n      tag_10\n      swap2\n      swap1\n      tag_11\n      jump\t// in\n    tag_10:\n      mload(0x40)\n      dup1\n      swap2\n      sub\n      swap1\n      return\n        /* \"Desktop/EthCA/blockchain/EthCA.sol\":2363:2553  function cancel_signup() public {... */\n    tag_3:\n      callvalue\n      dup1\n      iszero\n      tag_12\n      jumpi\n      0x00\n      dup1\n      revert\n    tag_12:\n      pop\n      tag_13\n      tag_14\n      jump\t// in\n    tag_13:\n      stop\n        /* \"Desktop/EthCA/blockchain/EthCA.sol\":1848:2276  function sign_up() public payable returns (uint) {... */\n    tag_4:\n      tag_15\n      tag_16\n      jump\t// in\n    tag_15:\n      mload(0x40)\n      tag_17\n      swap2\n      swap1\n      tag_11\n      jump\t// in\n    tag_17:\n      mload(0x40)\n      dup1\n      swap2\n      sub\n      swap1\n      return\n        /* \"Desktop/EthCA/blockchain/EthCA.sol\":2629:3457  function vote(uint requestID, bool vote) public {... */\n    tag_5:\n      callvalue\n      dup1\n      iszero\n      tag_18\n      jumpi\n      0x00\n      dup1\n      revert\n    tag_18:\n      pop\n      tag_19\n      0x04\n      dup1\n      calldatasize\n      sub\n      dup2\n      add\n      swap1\n      tag_20\n      swap2\n      swap1\n      tag_21\n      jump\t// in\n    tag_20:\n      tag_22\n      jump\t// in\n    tag_19:\n      stop\n        /* \"Desktop/EthCA/blockchain/EthCA.sol\":1216:1843  function request_verification(string memory domain) public payable returns (uint) {... */\n    tag_9:\n        /* \"Desktop/EthCA/blockchain/EthCA.sol\":1292:1296  uint */\n      0x00\n        /* \"Desktop/EthCA/blockchain/EthCA.sol\":1329:1337  10 ether */\n      0x8ac7230489e80000\n        /* \"Desktop/EthCA/blockchain/EthCA.sol\":1316:1325  msg.value */\n      callvalue\n        /* \"Desktop/EthCA/blockchain/EthCA.sol\":1316:1337  msg.value >= 10 ether */\n      lt\n      iszero\n        /* \"Desktop/EthCA/blockchain/EthCA.sol\":1308:1338  require(msg.value >= 10 ether) */\n      tag_24\n      jumpi\n      0x00\n      dup1\n      revert\n    tag_24:\n        /* \"Desktop/EthCA/blockchain/EthCA.sol\":1424:1434  uint nonce */\n      0x00\n        /* \"Desktop/EthCA/blockchain/EthCA.sol\":1442:1525  sha256(abi.encodePacked(block.timestamp, block.difficulty, msg.sender, numsignups)) */\n      0x02\n        /* \"Desktop/EthCA/blockchain/EthCA.sol\":1466:1481  block.timestamp */\n      timestamp\n        /* \"Desktop/EthCA/blockchain/EthCA.sol\":1483:1499  block.difficulty */\n      difficulty\n        /* \"Desktop/EthCA/blockchain/EthCA.sol\":1501:1511  msg.sender */\n      caller\n        /* \"Desktop/EthCA/blockchain/EthCA.sol\":1513:1523  numsignups */\n      sload(0x04)\n        /* \"Desktop/EthCA/blockchain/EthCA.sol\":1449:1524  abi.encodePacked(block.timestamp, block.difficulty, msg.sender, numsignups) */\n      add(0x20, mload(0x40))\n      tag_25\n      swap5\n      swap4\n      swap3\n      swap2\n      swap1\n      tag_26\n      jump\t// in\n    tag_25:\n      mload(0x40)\n      0x20\n      dup2\n      dup4\n      sub\n      sub\n      dup2\n      mstore\n      swap1\n      0x40\n      mstore\n        /* \"Desktop/EthCA/blockchain/EthCA.sol\":1442:1525  sha256(abi.encodePacked(block.timestamp, block.difficulty, msg.sender, numsignups)) */\n      mload(0x40)\n      tag_27\n      swap2\n      swap1\n      tag_28\n      jump\t// in\n    tag_27:\n      0x20\n      mload(0x40)\n      dup1\n      dup4\n      sub\n      dup2\n      dup6\n      gas\n      staticcall\n      iszero\n      dup1\n      iszero\n      tag_30\n      jumpi\n      returndatasize\n      0x00\n      dup1\n      returndatacopy\n      revert(0x00, returndatasize)\n    tag_30:\n      pop\n      pop\n      pop\n      mload(0x40)\n      returndatasize\n      not(0x1f)\n      0x1f\n      dup3\n      add\n      and\n      dup3\n      add\n      dup1\n      0x40\n      mstore\n      pop\n      dup2\n      add\n      swap1\n      tag_31\n      swap2\n      swap1\n      tag_32\n      jump\t// in\n    tag_31:\n        /* \"Desktop/EthCA/blockchain/EthCA.sol\":1437:1526  uint(sha256(abi.encodePacked(block.timestamp, block.difficulty, msg.sender, numsignups))) */\n      0x00\n      shr\n        /* \"Desktop/EthCA/blockchain/EthCA.sol\":1424:1526  uint nonce = uint(sha256(abi.encodePacked(block.timestamp, block.difficulty, msg.sender, numsignups))) */\n      swap1\n      pop\n        /* \"Desktop/EthCA/blockchain/EthCA.sol\":1604:1609  nonce */\n      dup1\n        /* \"Desktop/EthCA/blockchain/EthCA.sol\":1574:1582  requests */\n      0x02\n        /* \"Desktop/EthCA/blockchain/EthCA.sol\":1574:1595  requests[numRequests] */\n      0x00\n        /* \"Desktop/EthCA/blockchain/EthCA.sol\":1583:1594  numRequests */\n      sload(0x05)\n        /* \"Desktop/EthCA/blockchain/EthCA.sol\":1574:1595  requests[numRequests] */\n      dup2\n      mstore\n      0x20\n      add\n      swap1\n      dup2\n      mstore\n      0x20\n      add\n      0x00\n      keccak256\n        /* \"Desktop/EthCA/blockchain/EthCA.sol\":1574:1601  requests[numRequests].nonce */\n      0x01\n      add\n        /* \"Desktop/EthCA/blockchain/EthCA.sol\":1574:1609  requests[numRequests].nonce = nonce */\n      dup2\n      swap1\n      sstore\n      pop\n        /* \"Desktop/EthCA/blockchain/EthCA.sol\":1646:1657  numRequests */\n      sload(0x05)\n        /* \"Desktop/EthCA/blockchain/EthCA.sol\":1619:1627  requests */\n      0x02\n        /* \"Desktop/EthCA/blockchain/EthCA.sol\":1619:1640  requests[numRequests] */\n      0x00\n        /* \"Desktop/EthCA/blockchain/EthCA.sol\":1628:1639  numRequests */\n      sload(0x05)\n        /* \"Desktop/EthCA/blockchain/EthCA.sol\":1619:1640  requests[numRequests] */\n      dup2\n      mstore\n      0x20\n      add\n      swap1\n      dup2\n      mstore\n      0x20\n      add\n      0x00\n      keccak256\n        /* \"Desktop/EthCA/blockchain/EthCA.sol\":1619:1643  requests[numRequests].id */\n      0x00\n      add\n        /* \"Desktop/EthCA/blockchain/EthCA.sol\":1619:1657  requests[numRequests].id = numRequests */\n      dup2\n      swap1\n      sstore\n      pop\n        /* \"Desktop/EthCA/blockchain/EthCA.sol\":1698:1708  msg.sender */\n      caller\n        /* \"Desktop/EthCA/blockchain/EthCA.sol\":1667:1675  requests */\n      0x02\n        /* \"Desktop/EthCA/blockchain/EthCA.sol\":1667:1688  requests[numRequests] */\n      0x00\n        /* \"Desktop/EthCA/blockchain/EthCA.sol\":1676:1687  numRequests */\n      sload(0x05)\n        /* \"Desktop/EthCA/blockchain/EthCA.sol\":1667:1688  requests[numRequests] */\n      dup2\n      mstore\n      0x20\n      add\n      swap1\n      dup2\n      mstore\n      0x20\n      add\n      0x00\n      keccak256\n        /* \"Desktop/EthCA/blockchain/EthCA.sol\":1667:1695  requests[numRequests].sender */\n      0x04\n      add\n      0x00\n        /* \"Desktop/EthCA/blockchain/EthCA.sol\":1667:1708  requests[numRequests].sender = msg.sender */\n      0x0100\n      exp\n      dup2\n      sload\n      dup2\n      0xffffffffffffffffffffffffffffffffffffffff\n      mul\n      not\n      and\n      swap1\n      dup4\n      0xffffffffffffffffffffffffffffffffffffffff\n      and\n      mul\n      or\n      swap1\n      sstore\n      pop\n        /* \"Desktop/EthCA/blockchain/EthCA.sol\":1749:1755  domain */\n      dup3\n        /* \"Desktop/EthCA/blockchain/EthCA.sol\":1718:1726  requests */\n      0x02\n        /* \"Desktop/EthCA/blockchain/EthCA.sol\":1718:1739  requests[numRequests] */\n      0x00\n        /* \"Desktop/EthCA/blockchain/EthCA.sol\":1727:1738  numRequests */\n      sload(0x05)\n        /* \"Desktop/EthCA/blockchain/EthCA.sol\":1718:1739  requests[numRequests] */\n      dup2\n      mstore\n      0x20\n      add\n      swap1\n      dup2\n      mstore\n      0x20\n      add\n      0x00\n      keccak256\n        /* \"Desktop/EthCA/blockchain/EthCA.sol\":1718:1746  requests[numRequests].domain */\n      0x03\n      add\n        /* \"Desktop/EthCA/blockchain/EthCA.sol\":1718:1755  requests[numRequests].domain = domain */\n      swap1\n      dup1\n      mload\n      swap1\n      0x20\n      add\n      swap1\n      tag_33\n      swap3\n      swap2\n      swap1\n      tag_34\n      jump\t// in\n    tag_33:\n      pop\n        /* \"Desktop/EthCA/blockchain/EthCA.sol\":1805:1834  chooseValidators(numRequests) */\n      tag_35\n        /* \"Desktop/EthCA/blockchain/EthCA.sol\":1822:1833  numRequests */\n      sload(0x05)\n        /* \"Desktop/EthCA/blockchain/EthCA.sol\":1805:1821  chooseValidators */\n      tag_36\n        /* \"Desktop/EthCA/blockchain/EthCA.sol\":1805:1834  chooseValidators(numRequests) */\n      jump\t// in\n    tag_35:\n        /* \"Desktop/EthCA/blockchain/EthCA.sol\":1298:1843  {... */\n      pop\n        /* \"Desktop/EthCA/blockchain/EthCA.sol\":1216:1843  function request_verification(string memory domain) public payable returns (uint) {... */\n      swap2\n      swap1\n      pop\n      jump\t// out\n        /* \"Desktop/EthCA/blockchain/EthCA.sol\":2363:2553  function cancel_signup() public {... */\n    tag_14:\n        /* \"Desktop/EthCA/blockchain/EthCA.sol\":2437:2441  true */\n      0x01\n        /* \"Desktop/EthCA/blockchain/EthCA.sol\":2413:2441  signedup[msg.sender] == true */\n      iszero\n      iszero\n        /* \"Desktop/EthCA/blockchain/EthCA.sol\":2413:2421  signedup */\n      0x01\n        /* \"Desktop/EthCA/blockchain/EthCA.sol\":2413:2433  signedup[msg.sender] */\n      0x00\n        /* \"Desktop/EthCA/blockchain/EthCA.sol\":2422:2432  msg.sender */\n      caller\n        /* \"Desktop/EthCA/blockchain/EthCA.sol\":2413:2433  signedup[msg.sender] */\n      0xffffffffffffffffffffffffffffffffffffffff\n      and\n      0xffffffffffffffffffffffffffffffffffffffff\n      and\n      dup2\n      mstore\n      0x20\n      add\n      swap1\n      dup2\n      mstore\n      0x20\n      add\n      0x00\n      keccak256\n      0x00\n      swap1\n      sload\n      swap1\n      0x0100\n      exp\n      swap1\n      div\n      0xff\n      and\n        /* \"Desktop/EthCA/blockchain/EthCA.sol\":2413:2441  signedup[msg.sender] == true */\n      iszero\n      iszero\n      eq\n        /* \"Desktop/EthCA/blockchain/EthCA.sol\":2405:2460  require(signedup[msg.sender] == true, \"Not signed up!\") */\n      tag_38\n      jumpi\n      mload(0x40)\n      0x08c379a000000000000000000000000000000000000000000000000000000000\n      dup2\n      mstore\n      0x04\n      add\n      tag_39\n      swap1\n      tag_40\n      jump\t// in\n    tag_39:\n      mload(0x40)\n      dup1\n      swap2\n      sub\n      swap1\n      revert\n    tag_38:\n        /* \"Desktop/EthCA/blockchain/EthCA.sol\":2494:2499  false */\n      0x00\n        /* \"Desktop/EthCA/blockchain/EthCA.sol\":2470:2499  signedup[msg.sender] == false */\n      iszero\n      iszero\n        /* \"Desktop/EthCA/blockchain/EthCA.sol\":2470:2478  signedup */\n      0x01\n        /* \"Desktop/EthCA/blockchain/EthCA.sol\":2470:2490  signedup[msg.sender] */\n      0x00\n        /* \"Desktop/EthCA/blockchain/EthCA.sol\":2479:2489  msg.sender */\n      caller\n        /* \"Desktop/EthCA/blockchain/EthCA.sol\":2470:2490  signedup[msg.sender] */\n      0xffffffffffffffffffffffffffffffffffffffff\n      and\n      0xffffffffffffffffffffffffffffffffffffffff\n      and\n      dup2\n      mstore\n      0x20\n      add\n      swap1\n      dup2\n      mstore\n      0x20\n      add\n      0x00\n      keccak256\n      0x00\n      swap1\n      sload\n      swap1\n      0x0100\n      exp\n      swap1\n      pop\n      pop\n        /* \"Desktop/EthCA/blockchain/EthCA.sol\":2470:2499  signedup[msg.sender] == false */\n      pop\n        /* \"Desktop/EthCA/blockchain/EthCA.sol\":2517:2527  msg.sender */\n      caller\n        /* \"Desktop/EthCA/blockchain/EthCA.sol\":2509:2537  payable(msg.sender).transfer */\n      0xffffffffffffffffffffffffffffffffffffffff\n      and\n        /* \"Desktop/EthCA/blockchain/EthCA.sol\":2509:2546  payable(msg.sender).transfer(1 ether) */\n      0x08fc\n        /* \"Desktop/EthCA/blockchain/EthCA.sol\":2538:2545  1 ether */\n      0x0de0b6b3a7640000\n        /* \"Desktop/EthCA/blockchain/EthCA.sol\":2509:2546  payable(msg.sender).transfer(1 ether) */\n      swap1\n      dup2\n      iszero\n      mul\n      swap1\n      mload(0x40)\n      0x00\n      mload(0x40)\n      dup1\n      dup4\n      sub\n      dup2\n      dup6\n      dup9\n      dup9\n      call\n      swap4\n      pop\n      pop\n      pop\n      pop\n      iszero\n      dup1\n      iszero\n      tag_42\n      jumpi\n      returndatasize\n      0x00\n      dup1\n      returndatacopy\n      revert(0x00, returndatasize)\n    tag_42:\n      pop\n        /* \"Desktop/EthCA/blockchain/EthCA.sol\":2363:2553  function cancel_signup() public {... */\n      jump\t// out\n        /* \"Desktop/EthCA/blockchain/EthCA.sol\":1848:2276  function sign_up() public payable returns (uint) {... */\n    tag_16:\n        /* \"Desktop/EthCA/blockchain/EthCA.sol\":1891:1895  uint */\n      0x00\n        /* \"Desktop/EthCA/blockchain/EthCA.sol\":1978:1985  1 ether */\n      0x0de0b6b3a7640000\n        /* \"Desktop/EthCA/blockchain/EthCA.sol\":1965:1974  msg.value */\n      callvalue\n        /* \"Desktop/EthCA/blockchain/EthCA.sol\":1965:1985  msg.value == 1 ether */\n      eq\n        /* \"Desktop/EthCA/blockchain/EthCA.sol\":1957:2030  require(msg.value == 1 ether, \"Sign-up rejected! Inadequate stake value\") */\n      tag_44\n      jumpi\n      mload(0x40)\n      0x08c379a000000000000000000000000000000000000000000000000000000000\n      dup2\n      mstore\n      0x04\n      add\n      tag_45\n      swap1\n      tag_46\n      jump\t// in\n    tag_45:\n      mload(0x40)\n      dup1\n      swap2\n      sub\n      swap1\n      revert\n    tag_44:\n        /* \"Desktop/EthCA/blockchain/EthCA.sol\":2131:2136  false */\n      0x00\n        /* \"Desktop/EthCA/blockchain/EthCA.sol\":2107:2136  signedup[msg.sender] == false */\n      iszero\n      iszero\n        /* \"Desktop/EthCA/blockchain/EthCA.sol\":2107:2115  signedup */\n      0x01\n        /* \"Desktop/EthCA/blockchain/EthCA.sol\":2107:2127  signedup[msg.sender] */\n      0x00\n        /* \"Desktop/EthCA/blockchain/EthCA.sol\":2116:2126  msg.sender */\n      caller\n        /* \"Desktop/EthCA/blockchain/EthCA.sol\":2107:2127  signedup[msg.sender] */\n      0xffffffffffffffffffffffffffffffffffffffff\n      and\n      0xffffffffffffffffffffffffffffffffffffffff\n      and\n      dup2\n      mstore\n      0x20\n      add\n      swap1\n      dup2\n      mstore\n      0x20\n      add\n      0x00\n      keccak256\n      0x00\n      swap1\n      sload\n      swap1\n      0x0100\n      exp\n      swap1\n      div\n      0xff\n      and\n        /* \"Desktop/EthCA/blockchain/EthCA.sol\":2107:2136  signedup[msg.sender] == false */\n      iszero\n      iszero\n      eq\n        /* \"Desktop/EthCA/blockchain/EthCA.sol\":2099:2159  require(signedup[msg.sender] == false, \"Already signed up!\") */\n      tag_47\n      jumpi\n      mload(0x40)\n      0x08c379a000000000000000000000000000000000000000000000000000000000\n      dup2\n      mstore\n      0x04\n      add\n      tag_48\n      swap1\n      tag_49\n      jump\t// in\n    tag_48:\n      mload(0x40)\n      dup1\n      swap2\n      sub\n      swap1\n      revert\n    tag_47:\n        /* \"Desktop/EthCA/blockchain/EthCA.sol\":2191:2201  msg.sender */\n      caller\n        /* \"Desktop/EthCA/blockchain/EthCA.sol\":2169:2176  signups */\n      0x00\n        /* \"Desktop/EthCA/blockchain/EthCA.sol\":2169:2188  signups[numsignups] */\n      dup1\n        /* \"Desktop/EthCA/blockchain/EthCA.sol\":2177:2187  numsignups */\n      sload(0x04)\n        /* \"Desktop/EthCA/blockchain/EthCA.sol\":2169:2188  signups[numsignups] */\n      dup2\n      mstore\n      0x20\n      add\n      swap1\n      dup2\n      mstore\n      0x20\n      add\n      0x00\n      keccak256\n      0x00\n        /* \"Desktop/EthCA/blockchain/EthCA.sol\":2169:2201  signups[numsignups] = msg.sender */\n      0x0100\n      exp\n      dup2\n      sload\n      dup2\n      0xffffffffffffffffffffffffffffffffffffffff\n      mul\n      not\n      and\n      swap1\n      dup4\n      0xffffffffffffffffffffffffffffffffffffffff\n      and\n      mul\n      or\n      swap1\n      sstore\n      pop\n        /* \"Desktop/EthCA/blockchain/EthCA.sol\":2237:2238  1 */\n      0x01\n        /* \"Desktop/EthCA/blockchain/EthCA.sol\":2224:2234  numsignups */\n      sload(0x04)\n        /* \"Desktop/EthCA/blockchain/EthCA.sol\":2224:2238  numsignups + 1 */\n      tag_50\n      swap2\n      swap1\n      tag_51\n      jump\t// in\n    tag_50:\n        /* \"Desktop/EthCA/blockchain/EthCA.sol\":2211:2221  numsignups */\n      0x04\n        /* \"Desktop/EthCA/blockchain/EthCA.sol\":2211:2238  numsignups = numsignups + 1 */\n      dup2\n      swap1\n      sstore\n      pop\n        /* \"Desktop/EthCA/blockchain/EthCA.sol\":2268:2269  1 */\n      0x01\n        /* \"Desktop/EthCA/blockchain/EthCA.sol\":2255:2265  numsignups */\n      sload(0x04)\n        /* \"Desktop/EthCA/blockchain/EthCA.sol\":2255:2269  numsignups - 1 */\n      tag_52\n      swap2\n      swap1\n      tag_53\n      jump\t// in\n    tag_52:\n        /* \"Desktop/EthCA/blockchain/EthCA.sol\":2248:2269  return numsignups - 1 */\n      swap1\n      pop\n        /* \"Desktop/EthCA/blockchain/EthCA.sol\":1848:2276  function sign_up() public payable returns (uint) {... */\n      swap1\n      jump\t// out\n        /* \"Desktop/EthCA/blockchain/EthCA.sol\":2629:3457  function vote(uint requestID, bool vote) public {... */\n    tag_22:\n        /* \"Desktop/EthCA/blockchain/EthCA.sol\":2817:2821  true */\n      0x01\n        /* \"Desktop/EthCA/blockchain/EthCA.sol\":2771:2821  requests[requestID].validators[msg.sender] == true */\n      iszero\n      iszero\n        /* \"Desktop/EthCA/blockchain/EthCA.sol\":2771:2779  requests */\n      0x02\n        /* \"Desktop/EthCA/blockchain/EthCA.sol\":2771:2790  requests[requestID] */\n      0x00\n        /* \"Desktop/EthCA/blockchain/EthCA.sol\":2780:2789  requestID */\n      dup5\n        /* \"Desktop/EthCA/blockchain/EthCA.sol\":2771:2790  requests[requestID] */\n      dup2\n      mstore\n      0x20\n      add\n      swap1\n      dup2\n      mstore\n      0x20\n      add\n      0x00\n      keccak256\n        /* \"Desktop/EthCA/blockchain/EthCA.sol\":2771:2801  requests[requestID].validators */\n      0x02\n      add\n        /* \"Desktop/EthCA/blockchain/EthCA.sol\":2771:2813  requests[requestID].validators[msg.sender] */\n      0x00\n        /* \"Desktop/EthCA/blockchain/EthCA.sol\":2802:2812  msg.sender */\n      caller\n        /* \"Desktop/EthCA/blockchain/EthCA.sol\":2771:2813  requests[requestID].validators[msg.sender] */\n      0xffffffffffffffffffffffffffffffffffffffff\n      and\n      0xffffffffffffffffffffffffffffffffffffffff\n      and\n      dup2\n      mstore\n      0x20\n      add\n      swap1\n      dup2\n      mstore\n      0x20\n      add\n      0x00\n      keccak256\n      0x00\n      swap1\n      sload\n      swap1\n      0x0100\n      exp\n      swap1\n      div\n      0xff\n      and\n        /* \"Desktop/EthCA/blockchain/EthCA.sol\":2771:2821  requests[requestID].validators[msg.sender] == true */\n      iszero\n      iszero\n      eq\n        /* \"Desktop/EthCA/blockchain/EthCA.sol\":2763:2859  require(requests[requestID].validators[msg.sender] == true, \"Not a validator for this request!\") */\n      tag_55\n      jumpi\n      mload(0x40)\n      0x08c379a000000000000000000000000000000000000000000000000000000000\n      dup2\n      mstore\n      0x04\n      add\n      tag_56\n      swap1\n      tag_57\n      jump\t// in\n    tag_56:\n      mload(0x40)\n      dup1\n      swap2\n      sub\n      swap1\n      revert\n    tag_55:\n        /* \"Desktop/EthCA/blockchain/EthCA.sol\":2935:2943  requests */\n      0x02\n        /* \"Desktop/EthCA/blockchain/EthCA.sol\":2935:2954  requests[requestID] */\n      0x00\n        /* \"Desktop/EthCA/blockchain/EthCA.sol\":2944:2953  requestID */\n      dup4\n        /* \"Desktop/EthCA/blockchain/EthCA.sol\":2935:2954  requests[requestID] */\n      dup2\n      mstore\n      0x20\n      add\n      swap1\n      dup2\n      mstore\n      0x20\n      add\n      0x00\n      keccak256\n        /* \"Desktop/EthCA/blockchain/EthCA.sol\":2935:2963  requests[requestID].deadline */\n      0x09\n      add\n      sload\n        /* \"Desktop/EthCA/blockchain/EthCA.sol\":2920:2932  block.number */\n      number\n        /* \"Desktop/EthCA/blockchain/EthCA.sol\":2920:2963  block.number < requests[requestID].deadline */\n      lt\n        /* \"Desktop/EthCA/blockchain/EthCA.sol\":2912:2985  require(block.number < requests[requestID].deadline, \"Voting has closed\") */\n      tag_58\n      jumpi\n      mload(0x40)\n      0x08c379a000000000000000000000000000000000000000000000000000000000\n      dup2\n      mstore\n      0x04\n      add\n      tag_59\n      swap1\n      tag_60\n      jump\t// in\n    tag_59:\n      mload(0x40)\n      dup1\n      swap2\n      sub\n      swap1\n      revert\n    tag_58:\n        /* \"Desktop/EthCA/blockchain/EthCA.sol\":3017:3021  vote */\n      dup1\n        /* \"Desktop/EthCA/blockchain/EthCA.sol\":3014:3203  if(vote) {... */\n      iszero\n      tag_61\n      jumpi\n        /* \"Desktop/EthCA/blockchain/EthCA.sol\":3099:3100  1 */\n      0x01\n        /* \"Desktop/EthCA/blockchain/EthCA.sol\":3068:3076  requests */\n      0x02\n        /* \"Desktop/EthCA/blockchain/EthCA.sol\":3068:3087  requests[requestID] */\n      0x00\n        /* \"Desktop/EthCA/blockchain/EthCA.sol\":3077:3086  requestID */\n      dup5\n        /* \"Desktop/EthCA/blockchain/EthCA.sol\":3068:3087  requests[requestID] */\n      dup2\n      mstore\n      0x20\n      add\n      swap1\n      dup2\n      mstore\n      0x20\n      add\n      0x00\n      keccak256\n        /* \"Desktop/EthCA/blockchain/EthCA.sol\":3068:3096  requests[requestID].yesVotes */\n      0x07\n      add\n      sload\n        /* \"Desktop/EthCA/blockchain/EthCA.sol\":3068:3100  requests[requestID].yesVotes + 1 */\n      tag_62\n      swap2\n      swap1\n      tag_51\n      jump\t// in\n    tag_62:\n        /* \"Desktop/EthCA/blockchain/EthCA.sol\":3037:3045  requests */\n      0x02\n        /* \"Desktop/EthCA/blockchain/EthCA.sol\":3037:3056  requests[requestID] */\n      0x00\n        /* \"Desktop/EthCA/blockchain/EthCA.sol\":3046:3055  requestID */\n      dup5\n        /* \"Desktop/EthCA/blockchain/EthCA.sol\":3037:3056  requests[requestID] */\n      dup2\n      mstore\n      0x20\n      add\n      swap1\n      dup2\n      mstore\n      0x20\n      add\n      0x00\n      keccak256\n        /* \"Desktop/EthCA/blockchain/EthCA.sol\":3037:3065  requests[requestID].yesVotes */\n      0x07\n      add\n        /* \"Desktop/EthCA/blockchain/EthCA.sol\":3037:3100  requests[requestID].yesVotes = requests[requestID].yesVotes + 1 */\n      dup2\n      swap1\n      sstore\n      pop\n        /* \"Desktop/EthCA/blockchain/EthCA.sol\":3014:3203  if(vote) {... */\n      jump(tag_63)\n    tag_61:\n        /* \"Desktop/EthCA/blockchain/EthCA.sol\":3191:3192  1 */\n      0x01\n        /* \"Desktop/EthCA/blockchain/EthCA.sol\":3161:3169  requests */\n      0x02\n        /* \"Desktop/EthCA/blockchain/EthCA.sol\":3161:3180  requests[requestID] */\n      0x00\n        /* \"Desktop/EthCA/blockchain/EthCA.sol\":3170:3179  requestID */\n      dup5\n        /* \"Desktop/EthCA/blockchain/EthCA.sol\":3161:3180  requests[requestID] */\n      dup2\n      mstore\n      0x20\n      add\n      swap1\n      dup2\n      mstore\n      0x20\n      add\n      0x00\n      keccak256\n        /* \"Desktop/EthCA/blockchain/EthCA.sol\":3161:3188  requests[requestID].noVotes */\n      0x08\n      add\n      sload\n        /* \"Desktop/EthCA/blockchain/EthCA.sol\":3161:3192  requests[requestID].noVotes + 1 */\n      tag_64\n      swap2\n      swap1\n      tag_51\n      jump\t// in\n    tag_64:\n        /* \"Desktop/EthCA/blockchain/EthCA.sol\":3131:3139  requests */\n      0x02\n        /* \"Desktop/EthCA/blockchain/EthCA.sol\":3131:3150  requests[requestID] */\n      0x00\n        /* \"Desktop/EthCA/blockchain/EthCA.sol\":3140:3149  requestID */\n      dup5\n        /* \"Desktop/EthCA/blockchain/EthCA.sol\":3131:3150  requests[requestID] */\n      dup2\n      mstore\n      0x20\n      add\n      swap1\n      dup2\n      mstore\n      0x20\n      add\n      0x00\n      keccak256\n        /* \"Desktop/EthCA/blockchain/EthCA.sol\":3131:3158  requests[requestID].noVotes */\n      0x08\n      add\n        /* \"Desktop/EthCA/blockchain/EthCA.sol\":3131:3192  requests[requestID].noVotes = requests[requestID].noVotes + 1 */\n      dup2\n      swap1\n      sstore\n      pop\n        /* \"Desktop/EthCA/blockchain/EthCA.sol\":3014:3203  if(vote) {... */\n    tag_63:\n        /* \"Desktop/EthCA/blockchain/EthCA.sol\":3262:3272  msg.sender */\n      caller\n        /* \"Desktop/EthCA/blockchain/EthCA.sol\":3254:3282  payable(msg.sender).transfer */\n      0xffffffffffffffffffffffffffffffffffffffff\n      and\n        /* \"Desktop/EthCA/blockchain/EthCA.sol\":3254:3320  payable(msg.sender).transfer(1 ether + requests[requestID].reward) */\n      0x08fc\n        /* \"Desktop/EthCA/blockchain/EthCA.sol\":3293:3301  requests */\n      0x02\n        /* \"Desktop/EthCA/blockchain/EthCA.sol\":3293:3312  requests[requestID] */\n      0x00\n        /* \"Desktop/EthCA/blockchain/EthCA.sol\":3302:3311  requestID */\n      dup6\n        /* \"Desktop/EthCA/blockchain/EthCA.sol\":3293:3312  requests[requestID] */\n      dup2\n      mstore\n      0x20\n      add\n      swap1\n      dup2\n      mstore\n      0x20\n      add\n      0x00\n      keccak256\n        /* \"Desktop/EthCA/blockchain/EthCA.sol\":3293:3319  requests[requestID].reward */\n      0x05\n      add\n      sload\n        /* \"Desktop/EthCA/blockchain/EthCA.sol\":3283:3290  1 ether */\n      0x0de0b6b3a7640000\n        /* \"Desktop/EthCA/blockchain/EthCA.sol\":3283:3319  1 ether + requests[requestID].reward */\n      tag_65\n      swap2\n      swap1\n      tag_51\n      jump\t// in\n    tag_65:\n        /* \"Desktop/EthCA/blockchain/EthCA.sol\":3254:3320  payable(msg.sender).transfer(1 ether + requests[requestID].reward) */\n      swap1\n      dup2\n      iszero\n      mul\n      swap1\n      mload(0x40)\n      0x00\n      mload(0x40)\n      dup1\n      dup4\n      sub\n      dup2\n      dup6\n      dup9\n      dup9\n      call\n      swap4\n      pop\n      pop\n      pop\n      pop\n      iszero\n      dup1\n      iszero\n      tag_67\n      jumpi\n      returndatasize\n      0x00\n      dup1\n      returndatacopy\n      revert(0x00, returndatasize)\n    tag_67:\n      pop\n        /* \"Desktop/EthCA/blockchain/EthCA.sol\":3445:3450  false */\n      0x00\n        /* \"Desktop/EthCA/blockchain/EthCA.sol\":3399:3450  requests[requestID].validators[msg.sender] == false */\n      iszero\n      iszero\n        /* \"Desktop/EthCA/blockchain/EthCA.sol\":3399:3407  requests */\n      0x02\n        /* \"Desktop/EthCA/blockchain/EthCA.sol\":3399:3418  requests[requestID] */\n      0x00\n        /* \"Desktop/EthCA/blockchain/EthCA.sol\":3408:3417  requestID */\n      dup5\n        /* \"Desktop/EthCA/blockchain/EthCA.sol\":3399:3418  requests[requestID] */\n      dup2\n      mstore\n      0x20\n      add\n      swap1\n      dup2\n      mstore\n      0x20\n      add\n      0x00\n      keccak256\n        /* \"Desktop/EthCA/blockchain/EthCA.sol\":3399:3429  requests[requestID].validators */\n      0x02\n      add\n        /* \"Desktop/EthCA/blockchain/EthCA.sol\":3399:3441  requests[requestID].validators[msg.sender] */\n      0x00\n        /* \"Desktop/EthCA/blockchain/EthCA.sol\":3430:3440  msg.sender */\n      caller\n        /* \"Desktop/EthCA/blockchain/EthCA.sol\":3399:3441  requests[requestID].validators[msg.sender] */\n      0xffffffffffffffffffffffffffffffffffffffff\n      and\n      0xffffffffffffffffffffffffffffffffffffffff\n      and\n      dup2\n      mstore\n      0x20\n      add\n      swap1\n      dup2\n      mstore\n      0x20\n      add\n      0x00\n      keccak256\n      0x00\n      swap1\n      sload\n      swap1\n      0x0100\n      exp\n      swap1\n      pop\n      pop\n        /* \"Desktop/EthCA/blockchain/EthCA.sol\":3399:3450  requests[requestID].validators[msg.sender] == false */\n      pop\n        /* \"Desktop/EthCA/blockchain/EthCA.sol\":2629:3457  function vote(uint requestID, bool vote) public {... */\n      pop\n      pop\n      jump\t// out\n        /* \"Desktop/EthCA/blockchain/EthCA.sol\":1029:1088  function chooseValidators(uint id) private {... */\n    tag_36:\n      pop\n      jump\t// out\n    tag_34:\n      dup3\n      dup1\n      sload\n      tag_69\n      swap1\n      tag_70\n      jump\t// in\n    tag_69:\n      swap1\n      0x00\n      mstore\n      keccak256(0x00, 0x20)\n      swap1\n      0x1f\n      add\n      0x20\n      swap1\n      div\n      dup2\n      add\n      swap3\n      dup3\n      tag_72\n      jumpi\n      0x00\n      dup6\n      sstore\n      jump(tag_71)\n    tag_72:\n      dup3\n      0x1f\n      lt\n      tag_73\n      jumpi\n      dup1\n      mload\n      not(0xff)\n      and\n      dup4\n      dup1\n      add\n      or\n      dup6\n      sstore\n      jump(tag_71)\n    tag_73:\n      dup3\n      dup1\n      add\n      0x01\n      add\n      dup6\n      sstore\n      dup3\n      iszero\n      tag_71\n      jumpi\n      swap2\n      dup3\n      add\n    tag_74:\n      dup3\n      dup2\n      gt\n      iszero\n      tag_75\n      jumpi\n      dup3\n      mload\n      dup3\n      sstore\n      swap2\n      0x20\n      add\n      swap2\n      swap1\n      0x01\n      add\n      swap1\n      jump(tag_74)\n    tag_75:\n    tag_71:\n      pop\n      swap1\n      pop\n      tag_76\n      swap2\n      swap1\n      tag_77\n      jump\t// in\n    tag_76:\n      pop\n      swap1\n      jump\t// out\n    tag_77:\n    tag_78:\n      dup1\n      dup3\n      gt\n      iszero\n      tag_79\n      jumpi\n      0x00\n      dup2\n      0x00\n      swap1\n      sstore\n      pop\n      0x01\n      add\n      jump(tag_78)\n    tag_79:\n      pop\n      swap1\n      jump\t// out\n        /* \"#utility.yul\":7:419   */\n    tag_81:\n        /* \"#utility.yul\":85:90   */\n      0x00\n        /* \"#utility.yul\":110:176   */\n      tag_83\n        /* \"#utility.yul\":126:175   */\n      tag_84\n        /* \"#utility.yul\":168:174   */\n      dup5\n        /* \"#utility.yul\":126:175   */\n      tag_85\n      jump\t// in\n    tag_84:\n        /* \"#utility.yul\":110:176   */\n      tag_86\n      jump\t// in\n    tag_83:\n        /* \"#utility.yul\":101:176   */\n      swap1\n      pop\n        /* \"#utility.yul\":199:205   */\n      dup3\n        /* \"#utility.yul\":192:197   */\n      dup2\n        /* \"#utility.yul\":185:206   */\n      mstore\n        /* \"#utility.yul\":237:241   */\n      0x20\n        /* \"#utility.yul\":230:235   */\n      dup2\n        /* \"#utility.yul\":226:242   */\n      add\n        /* \"#utility.yul\":275:278   */\n      dup5\n        /* \"#utility.yul\":266:272   */\n      dup5\n        /* \"#utility.yul\":261:264   */\n      dup5\n        /* \"#utility.yul\":257:273   */\n      add\n        /* \"#utility.yul\":254:279   */\n      gt\n        /* \"#utility.yul\":251:363   */\n      iszero\n      tag_87\n      jumpi\n        /* \"#utility.yul\":282:361   */\n      tag_88\n      tag_89\n      jump\t// in\n    tag_88:\n        /* \"#utility.yul\":251:363   */\n    tag_87:\n        /* \"#utility.yul\":372:413   */\n      tag_90\n        /* \"#utility.yul\":406:412   */\n      dup5\n        /* \"#utility.yul\":401:404   */\n      dup3\n        /* \"#utility.yul\":396:399   */\n      dup6\n        /* \"#utility.yul\":372:413   */\n      tag_91\n      jump\t// in\n    tag_90:\n        /* \"#utility.yul\":91:419   */\n      pop\n        /* \"#utility.yul\":7:419   */\n      swap4\n      swap3\n      pop\n      pop\n      pop\n      jump\t// out\n        /* \"#utility.yul\":425:558   */\n    tag_92:\n        /* \"#utility.yul\":468:473   */\n      0x00\n        /* \"#utility.yul\":506:512   */\n      dup2\n        /* \"#utility.yul\":493:513   */\n      calldataload\n        /* \"#utility.yul\":484:513   */\n      swap1\n      pop\n        /* \"#utility.yul\":522:552   */\n      tag_94\n        /* \"#utility.yul\":546:551   */\n      dup2\n        /* \"#utility.yul\":522:552   */\n      tag_95\n      jump\t// in\n    tag_94:\n        /* \"#utility.yul\":425:558   */\n      swap3\n      swap2\n      pop\n      pop\n      jump\t// out\n        /* \"#utility.yul\":564:707   */\n    tag_96:\n        /* \"#utility.yul\":621:626   */\n      0x00\n        /* \"#utility.yul\":652:658   */\n      dup2\n        /* \"#utility.yul\":646:659   */\n      mload\n        /* \"#utility.yul\":637:659   */\n      swap1\n      pop\n        /* \"#utility.yul\":668:701   */\n      tag_98\n        /* \"#utility.yul\":695:700   */\n      dup2\n        /* \"#utility.yul\":668:701   */\n      tag_99\n      jump\t// in\n    tag_98:\n        /* \"#utility.yul\":564:707   */\n      swap3\n      swap2\n      pop\n      pop\n      jump\t// out\n        /* \"#utility.yul\":727:1067   */\n    tag_100:\n        /* \"#utility.yul\":783:788   */\n      0x00\n        /* \"#utility.yul\":832:835   */\n      dup3\n        /* \"#utility.yul\":825:829   */\n      0x1f\n        /* \"#utility.yul\":817:823   */\n      dup4\n        /* \"#utility.yul\":813:830   */\n      add\n        /* \"#utility.yul\":809:836   */\n      slt\n        /* \"#utility.yul\":799:921   */\n      tag_102\n      jumpi\n        /* \"#utility.yul\":840:919   */\n      tag_103\n      tag_104\n      jump\t// in\n    tag_103:\n        /* \"#utility.yul\":799:921   */\n    tag_102:\n        /* \"#utility.yul\":957:963   */\n      dup2\n        /* \"#utility.yul\":944:964   */\n      calldataload\n        /* \"#utility.yul\":982:1061   */\n      tag_105\n        /* \"#utility.yul\":1057:1060   */\n      dup5\n        /* \"#utility.yul\":1049:1055   */\n      dup3\n        /* \"#utility.yul\":1042:1046   */\n      0x20\n        /* \"#utility.yul\":1034:1040   */\n      dup7\n        /* \"#utility.yul\":1030:1047   */\n      add\n        /* \"#utility.yul\":982:1061   */\n      tag_81\n      jump\t// in\n    tag_105:\n        /* \"#utility.yul\":973:1061   */\n      swap2\n      pop\n        /* \"#utility.yul\":789:1067   */\n      pop\n        /* \"#utility.yul\":727:1067   */\n      swap3\n      swap2\n      pop\n      pop\n      jump\t// out\n        /* \"#utility.yul\":1073:1212   */\n    tag_106:\n        /* \"#utility.yul\":1119:1124   */\n      0x00\n        /* \"#utility.yul\":1157:1163   */\n      dup2\n        /* \"#utility.yul\":1144:1164   */\n      calldataload\n        /* \"#utility.yul\":1135:1164   */\n      swap1\n      pop\n        /* \"#utility.yul\":1173:1206   */\n      tag_108\n        /* \"#utility.yul\":1200:1205   */\n      dup2\n        /* \"#utility.yul\":1173:1206   */\n      tag_109\n      jump\t// in\n    tag_108:\n        /* \"#utility.yul\":1073:1212   */\n      swap3\n      swap2\n      pop\n      pop\n      jump\t// out\n        /* \"#utility.yul\":1218:1569   */\n    tag_32:\n        /* \"#utility.yul\":1288:1294   */\n      0x00\n        /* \"#utility.yul\":1337:1339   */\n      0x20\n        /* \"#utility.yul\":1325:1334   */\n      dup3\n        /* \"#utility.yul\":1316:1323   */\n      dup5\n        /* \"#utility.yul\":1312:1335   */\n      sub\n        /* \"#utility.yul\":1308:1340   */\n      slt\n        /* \"#utility.yul\":1305:1424   */\n      iszero\n      tag_111\n      jumpi\n        /* \"#utility.yul\":1343:1422   */\n      tag_112\n      tag_113\n      jump\t// in\n    tag_112:\n        /* \"#utility.yul\":1305:1424   */\n    tag_111:\n        /* \"#utility.yul\":1463:1464   */\n      0x00\n        /* \"#utility.yul\":1488:1552   */\n      tag_114\n        /* \"#utility.yul\":1544:1551   */\n      dup5\n        /* \"#utility.yul\":1535:1541   */\n      dup3\n        /* \"#utility.yul\":1524:1533   */\n      dup6\n        /* \"#utility.yul\":1520:1542   */\n      add\n        /* \"#utility.yul\":1488:1552   */\n      tag_96\n      jump\t// in\n    tag_114:\n        /* \"#utility.yul\":1478:1552   */\n      swap2\n      pop\n        /* \"#utility.yul\":1434:1562   */\n      pop\n        /* \"#utility.yul\":1218:1569   */\n      swap3\n      swap2\n      pop\n      pop\n      jump\t// out\n        /* \"#utility.yul\":1575:2084   */\n    tag_8:\n        /* \"#utility.yul\":1644:1650   */\n      0x00\n        /* \"#utility.yul\":1693:1695   */\n      0x20\n        /* \"#utility.yul\":1681:1690   */\n      dup3\n        /* \"#utility.yul\":1672:1679   */\n      dup5\n        /* \"#utility.yul\":1668:1691   */\n      sub\n        /* \"#utility.yul\":1664:1696   */\n      slt\n        /* \"#utility.yul\":1661:1780   */\n      iszero\n      tag_116\n      jumpi\n        /* \"#utility.yul\":1699:1778   */\n      tag_117\n      tag_113\n      jump\t// in\n    tag_117:\n        /* \"#utility.yul\":1661:1780   */\n    tag_116:\n        /* \"#utility.yul\":1847:1848   */\n      0x00\n        /* \"#utility.yul\":1836:1845   */\n      dup3\n        /* \"#utility.yul\":1832:1849   */\n      add\n        /* \"#utility.yul\":1819:1850   */\n      calldataload\n        /* \"#utility.yul\":1877:1895   */\n      0xffffffffffffffff\n        /* \"#utility.yul\":1869:1875   */\n      dup2\n        /* \"#utility.yul\":1866:1896   */\n      gt\n        /* \"#utility.yul\":1863:1980   */\n      iszero\n      tag_118\n      jumpi\n        /* \"#utility.yul\":1899:1978   */\n      tag_119\n      tag_120\n      jump\t// in\n    tag_119:\n        /* \"#utility.yul\":1863:1980   */\n    tag_118:\n        /* \"#utility.yul\":2004:2067   */\n      tag_121\n        /* \"#utility.yul\":2059:2066   */\n      dup5\n        /* \"#utility.yul\":2050:2056   */\n      dup3\n        /* \"#utility.yul\":2039:2048   */\n      dup6\n        /* \"#utility.yul\":2035:2057   */\n      add\n        /* \"#utility.yul\":2004:2067   */\n      tag_100\n      jump\t// in\n    tag_121:\n        /* \"#utility.yul\":1994:2067   */\n      swap2\n      pop\n        /* \"#utility.yul\":1790:2077   */\n      pop\n        /* \"#utility.yul\":1575:2084   */\n      swap3\n      swap2\n      pop\n      pop\n      jump\t// out\n        /* \"#utility.yul\":2090:2558   */\n    tag_21:\n        /* \"#utility.yul\":2155:2161   */\n      0x00\n        /* \"#utility.yul\":2163:2169   */\n      dup1\n        /* \"#utility.yul\":2212:2214   */\n      0x40\n        /* \"#utility.yul\":2200:2209   */\n      dup4\n        /* \"#utility.yul\":2191:2198   */\n      dup6\n        /* \"#utility.yul\":2187:2210   */\n      sub\n        /* \"#utility.yul\":2183:2215   */\n      slt\n        /* \"#utility.yul\":2180:2299   */\n      iszero\n      tag_123\n      jumpi\n        /* \"#utility.yul\":2218:2297   */\n      tag_124\n      tag_113\n      jump\t// in\n    tag_124:\n        /* \"#utility.yul\":2180:2299   */\n    tag_123:\n        /* \"#utility.yul\":2338:2339   */\n      0x00\n        /* \"#utility.yul\":2363:2416   */\n      tag_125\n        /* \"#utility.yul\":2408:2415   */\n      dup6\n        /* \"#utility.yul\":2399:2405   */\n      dup3\n        /* \"#utility.yul\":2388:2397   */\n      dup7\n        /* \"#utility.yul\":2384:2406   */\n      add\n        /* \"#utility.yul\":2363:2416   */\n      tag_106\n      jump\t// in\n    tag_125:\n        /* \"#utility.yul\":2353:2416   */\n      swap3\n      pop\n        /* \"#utility.yul\":2309:2426   */\n      pop\n        /* \"#utility.yul\":2465:2467   */\n      0x20\n        /* \"#utility.yul\":2491:2541   */\n      tag_126\n        /* \"#utility.yul\":2533:2540   */\n      dup6\n        /* \"#utility.yul\":2524:2530   */\n      dup3\n        /* \"#utility.yul\":2513:2522   */\n      dup7\n        /* \"#utility.yul\":2509:2531   */\n      add\n        /* \"#utility.yul\":2491:2541   */\n      tag_92\n      jump\t// in\n    tag_126:\n        /* \"#utility.yul\":2481:2541   */\n      swap2\n      pop\n        /* \"#utility.yul\":2436:2551   */\n      pop\n        /* \"#utility.yul\":2090:2558   */\n      swap3\n      pop\n      swap3\n      swap1\n      pop\n      jump\t// out\n        /* \"#utility.yul\":2564:2721   */\n    tag_127:\n        /* \"#utility.yul\":2669:2714   */\n      tag_129\n        /* \"#utility.yul\":2689:2713   */\n      tag_130\n        /* \"#utility.yul\":2707:2712   */\n      dup3\n        /* \"#utility.yul\":2689:2713   */\n      tag_131\n      jump\t// in\n    tag_130:\n        /* \"#utility.yul\":2669:2714   */\n      tag_132\n      jump\t// in\n    tag_129:\n        /* \"#utility.yul\":2664:2667   */\n      dup3\n        /* \"#utility.yul\":2657:2715   */\n      mstore\n        /* \"#utility.yul\":2564:2721   */\n      pop\n      pop\n      jump\t// out\n        /* \"#utility.yul\":2727:3100   */\n    tag_133:\n        /* \"#utility.yul\":2831:2834   */\n      0x00\n        /* \"#utility.yul\":2859:2897   */\n      tag_135\n        /* \"#utility.yul\":2891:2896   */\n      dup3\n        /* \"#utility.yul\":2859:2897   */\n      tag_136\n      jump\t// in\n    tag_135:\n        /* \"#utility.yul\":2913:3001   */\n      tag_137\n        /* \"#utility.yul\":2994:3000   */\n      dup2\n        /* \"#utility.yul\":2989:2992   */\n      dup6\n        /* \"#utility.yul\":2913:3001   */\n      tag_138\n      jump\t// in\n    tag_137:\n        /* \"#utility.yul\":2906:3001   */\n      swap4\n      pop\n        /* \"#utility.yul\":3010:3062   */\n      tag_139\n        /* \"#utility.yul\":3055:3061   */\n      dup2\n        /* \"#utility.yul\":3050:3053   */\n      dup6\n        /* \"#utility.yul\":3043:3047   */\n      0x20\n        /* \"#utility.yul\":3036:3041   */\n      dup7\n        /* \"#utility.yul\":3032:3048   */\n      add\n        /* \"#utility.yul\":3010:3062   */\n      tag_140\n      jump\t// in\n    tag_139:\n        /* \"#utility.yul\":3087:3093   */\n      dup1\n        /* \"#utility.yul\":3082:3085   */\n      dup5\n        /* \"#utility.yul\":3078:3094   */\n      add\n        /* \"#utility.yul\":3071:3094   */\n      swap2\n      pop\n        /* \"#utility.yul\":2835:3100   */\n      pop\n        /* \"#utility.yul\":2727:3100   */\n      swap3\n      swap2\n      pop\n      pop\n      jump\t// out\n        /* \"#utility.yul\":3106:3472   */\n    tag_141:\n        /* \"#utility.yul\":3248:3251   */\n      0x00\n        /* \"#utility.yul\":3269:3336   */\n      tag_143\n        /* \"#utility.yul\":3333:3335   */\n      0x11\n        /* \"#utility.yul\":3328:3331   */\n      dup4\n        /* \"#utility.yul\":3269:3336   */\n      tag_144\n      jump\t// in\n    tag_143:\n        /* \"#utility.yul\":3262:3336   */\n      swap2\n      pop\n        /* \"#utility.yul\":3345:3438   */\n      tag_145\n        /* \"#utility.yul\":3434:3437   */\n      dup3\n        /* \"#utility.yul\":3345:3438   */\n      tag_146\n      jump\t// in\n    tag_145:\n        /* \"#utility.yul\":3463:3465   */\n      0x20\n        /* \"#utility.yul\":3458:3461   */\n      dup3\n        /* \"#utility.yul\":3454:3466   */\n      add\n        /* \"#utility.yul\":3447:3466   */\n      swap1\n      pop\n        /* \"#utility.yul\":3106:3472   */\n      swap2\n      swap1\n      pop\n      jump\t// out\n        /* \"#utility.yul\":3478:3844   */\n    tag_147:\n        /* \"#utility.yul\":3620:3623   */\n      0x00\n        /* \"#utility.yul\":3641:3708   */\n      tag_149\n        /* \"#utility.yul\":3705:3707   */\n      0x12\n        /* \"#utility.yul\":3700:3703   */\n      dup4\n        /* \"#utility.yul\":3641:3708   */\n      tag_144\n      jump\t// in\n    tag_149:\n        /* \"#utility.yul\":3634:3708   */\n      swap2\n      pop\n        /* \"#utility.yul\":3717:3810   */\n      tag_150\n        /* \"#utility.yul\":3806:3809   */\n      dup3\n        /* \"#utility.yul\":3717:3810   */\n      tag_151\n      jump\t// in\n    tag_150:\n        /* \"#utility.yul\":3835:3837   */\n      0x20\n        /* \"#utility.yul\":3830:3833   */\n      dup3\n        /* \"#utility.yul\":3826:3838   */\n      add\n        /* \"#utility.yul\":3819:3838   */\n      swap1\n      pop\n        /* \"#utility.yul\":3478:3844   */\n      swap2\n      swap1\n      pop\n      jump\t// out\n        /* \"#utility.yul\":3850:4216   */\n    tag_152:\n        /* \"#utility.yul\":3992:3995   */\n      0x00\n        /* \"#utility.yul\":4013:4080   */\n      tag_154\n        /* \"#utility.yul\":4077:4079   */\n      0x28\n        /* \"#utility.yul\":4072:4075   */\n      dup4\n        /* \"#utility.yul\":4013:4080   */\n      tag_144\n      jump\t// in\n    tag_154:\n        /* \"#utility.yul\":4006:4080   */\n      swap2\n      pop\n        /* \"#utility.yul\":4089:4182   */\n      tag_155\n        /* \"#utility.yul\":4178:4181   */\n      dup3\n        /* \"#utility.yul\":4089:4182   */\n      tag_156\n      jump\t// in\n    tag_155:\n        /* \"#utility.yul\":4207:4209   */\n      0x40\n        /* \"#utility.yul\":4202:4205   */\n      dup3\n        /* \"#utility.yul\":4198:4210   */\n      add\n        /* \"#utility.yul\":4191:4210   */\n      swap1\n      pop\n        /* \"#utility.yul\":3850:4216   */\n      swap2\n      swap1\n      pop\n      jump\t// out\n        /* \"#utility.yul\":4222:4588   */\n    tag_157:\n        /* \"#utility.yul\":4364:4367   */\n      0x00\n        /* \"#utility.yul\":4385:4452   */\n      tag_159\n        /* \"#utility.yul\":4449:4451   */\n      0x0e\n        /* \"#utility.yul\":4444:4447   */\n      dup4\n        /* \"#utility.yul\":4385:4452   */\n      tag_144\n      jump\t// in\n    tag_159:\n        /* \"#utility.yul\":4378:4452   */\n      swap2\n      pop\n        /* \"#utility.yul\":4461:4554   */\n      tag_160\n        /* \"#utility.yul\":4550:4553   */\n      dup3\n        /* \"#utility.yul\":4461:4554   */\n      tag_161\n      jump\t// in\n    tag_160:\n        /* \"#utility.yul\":4579:4581   */\n      0x20\n        /* \"#utility.yul\":4574:4577   */\n      dup3\n        /* \"#utility.yul\":4570:4582   */\n      add\n        /* \"#utility.yul\":4563:4582   */\n      swap1\n      pop\n        /* \"#utility.yul\":4222:4588   */\n      swap2\n      swap1\n      pop\n      jump\t// out\n        /* \"#utility.yul\":4594:4960   */\n    tag_162:\n        /* \"#utility.yul\":4736:4739   */\n      0x00\n        /* \"#utility.yul\":4757:4824   */\n      tag_164\n        /* \"#utility.yul\":4821:4823   */\n      0x21\n        /* \"#utility.yul\":4816:4819   */\n      dup4\n        /* \"#utility.yul\":4757:4824   */\n      tag_144\n      jump\t// in\n    tag_164:\n        /* \"#utility.yul\":4750:4824   */\n      swap2\n      pop\n        /* \"#utility.yul\":4833:4926   */\n      tag_165\n        /* \"#utility.yul\":4922:4925   */\n      dup3\n        /* \"#utility.yul\":4833:4926   */\n      tag_166\n      jump\t// in\n    tag_165:\n        /* \"#utility.yul\":4951:4953   */\n      0x40\n        /* \"#utility.yul\":4946:4949   */\n      dup3\n        /* \"#utility.yul\":4942:4954   */\n      add\n        /* \"#utility.yul\":4935:4954   */\n      swap1\n      pop\n        /* \"#utility.yul\":4594:4960   */\n      swap2\n      swap1\n      pop\n      jump\t// out\n        /* \"#utility.yul\":4966:5084   */\n    tag_167:\n        /* \"#utility.yul\":5053:5077   */\n      tag_169\n        /* \"#utility.yul\":5071:5076   */\n      dup2\n        /* \"#utility.yul\":5053:5077   */\n      tag_170\n      jump\t// in\n    tag_169:\n        /* \"#utility.yul\":5048:5051   */\n      dup3\n        /* \"#utility.yul\":5041:5078   */\n      mstore\n        /* \"#utility.yul\":4966:5084   */\n      pop\n      pop\n      jump\t// out\n        /* \"#utility.yul\":5090:5247   */\n    tag_171:\n        /* \"#utility.yul\":5195:5240   */\n      tag_173\n        /* \"#utility.yul\":5215:5239   */\n      tag_174\n        /* \"#utility.yul\":5233:5238   */\n      dup3\n        /* \"#utility.yul\":5215:5239   */\n      tag_170\n      jump\t// in\n    tag_174:\n        /* \"#utility.yul\":5195:5240   */\n      tag_175\n      jump\t// in\n    tag_173:\n        /* \"#utility.yul\":5190:5193   */\n      dup3\n        /* \"#utility.yul\":5183:5241   */\n      mstore\n        /* \"#utility.yul\":5090:5247   */\n      pop\n      pop\n      jump\t// out\n        /* \"#utility.yul\":5253:5524   */\n    tag_28:\n        /* \"#utility.yul\":5383:5386   */\n      0x00\n        /* \"#utility.yul\":5405:5498   */\n      tag_177\n        /* \"#utility.yul\":5494:5497   */\n      dup3\n        /* \"#utility.yul\":5485:5491   */\n      dup5\n        /* \"#utility.yul\":5405:5498   */\n      tag_133\n      jump\t// in\n    tag_177:\n        /* \"#utility.yul\":5398:5498   */\n      swap2\n      pop\n        /* \"#utility.yul\":5515:5518   */\n      dup2\n        /* \"#utility.yul\":5508:5518   */\n      swap1\n      pop\n        /* \"#utility.yul\":5253:5524   */\n      swap3\n      swap2\n      pop\n      pop\n      jump\t// out\n        /* \"#utility.yul\":5530:6209   */\n    tag_26:\n        /* \"#utility.yul\":5726:5729   */\n      0x00\n        /* \"#utility.yul\":5741:5816   */\n      tag_179\n        /* \"#utility.yul\":5812:5815   */\n      dup3\n        /* \"#utility.yul\":5803:5809   */\n      dup8\n        /* \"#utility.yul\":5741:5816   */\n      tag_171\n      jump\t// in\n    tag_179:\n        /* \"#utility.yul\":5841:5843   */\n      0x20\n        /* \"#utility.yul\":5836:5839   */\n      dup3\n        /* \"#utility.yul\":5832:5844   */\n      add\n        /* \"#utility.yul\":5825:5844   */\n      swap2\n      pop\n        /* \"#utility.yul\":5854:5929   */\n      tag_180\n        /* \"#utility.yul\":5925:5928   */\n      dup3\n        /* \"#utility.yul\":5916:5922   */\n      dup7\n        /* \"#utility.yul\":5854:5929   */\n      tag_171\n      jump\t// in\n    tag_180:\n        /* \"#utility.yul\":5954:5956   */\n      0x20\n        /* \"#utility.yul\":5949:5952   */\n      dup3\n        /* \"#utility.yul\":5945:5957   */\n      add\n        /* \"#utility.yul\":5938:5957   */\n      swap2\n      pop\n        /* \"#utility.yul\":5967:6042   */\n      tag_181\n        /* \"#utility.yul\":6038:6041   */\n      dup3\n        /* \"#utility.yul\":6029:6035   */\n      dup6\n        /* \"#utility.yul\":5967:6042   */\n      tag_127\n      jump\t// in\n    tag_181:\n        /* \"#utility.yul\":6067:6069   */\n      0x14\n        /* \"#utility.yul\":6062:6065   */\n      dup3\n        /* \"#utility.yul\":6058:6070   */\n      add\n        /* \"#utility.yul\":6051:6070   */\n      swap2\n      pop\n        /* \"#utility.yul\":6080:6155   */\n      tag_182\n        /* \"#utility.yul\":6151:6154   */\n      dup3\n        /* \"#utility.yul\":6142:6148   */\n      dup5\n        /* \"#utility.yul\":6080:6155   */\n      tag_171\n      jump\t// in\n    tag_182:\n        /* \"#utility.yul\":6180:6182   */\n      0x20\n        /* \"#utility.yul\":6175:6178   */\n      dup3\n        /* \"#utility.yul\":6171:6183   */\n      add\n        /* \"#utility.yul\":6164:6183   */\n      swap2\n      pop\n        /* \"#utility.yul\":6200:6203   */\n      dup2\n        /* \"#utility.yul\":6193:6203   */\n      swap1\n      pop\n        /* \"#utility.yul\":5530:6209   */\n      swap6\n      swap5\n      pop\n      pop\n      pop\n      pop\n      pop\n      jump\t// out\n        /* \"#utility.yul\":6215:6634   */\n    tag_60:\n        /* \"#utility.yul\":6381:6385   */\n      0x00\n        /* \"#utility.yul\":6419:6421   */\n      0x20\n        /* \"#utility.yul\":6408:6417   */\n      dup3\n        /* \"#utility.yul\":6404:6422   */\n      add\n        /* \"#utility.yul\":6396:6422   */\n      swap1\n      pop\n        /* \"#utility.yul\":6468:6477   */\n      dup2\n        /* \"#utility.yul\":6462:6466   */\n      dup2\n        /* \"#utility.yul\":6458:6478   */\n      sub\n        /* \"#utility.yul\":6454:6455   */\n      0x00\n        /* \"#utility.yul\":6443:6452   */\n      dup4\n        /* \"#utility.yul\":6439:6456   */\n      add\n        /* \"#utility.yul\":6432:6479   */\n      mstore\n        /* \"#utility.yul\":6496:6627   */\n      tag_184\n        /* \"#utility.yul\":6622:6626   */\n      dup2\n        /* \"#utility.yul\":6496:6627   */\n      tag_141\n      jump\t// in\n    tag_184:\n        /* \"#utility.yul\":6488:6627   */\n      swap1\n      pop\n        /* \"#utility.yul\":6215:6634   */\n      swap2\n      swap1\n      pop\n      jump\t// out\n        /* \"#utility.yul\":6640:7059   */\n    tag_49:\n        /* \"#utility.yul\":6806:6810   */\n      0x00\n        /* \"#utility.yul\":6844:6846   */\n      0x20\n        /* \"#utility.yul\":6833:6842   */\n      dup3\n        /* \"#utility.yul\":6829:6847   */\n      add\n        /* \"#utility.yul\":6821:6847   */\n      swap1\n      pop\n        /* \"#utility.yul\":6893:6902   */\n      dup2\n        /* \"#utility.yul\":6887:6891   */\n      dup2\n        /* \"#utility.yul\":6883:6903   */\n      sub\n        /* \"#utility.yul\":6879:6880   */\n      0x00\n        /* \"#utility.yul\":6868:6877   */\n      dup4\n        /* \"#utility.yul\":6864:6881   */\n      add\n        /* \"#utility.yul\":6857:6904   */\n      mstore\n        /* \"#utility.yul\":6921:7052   */\n      tag_186\n        /* \"#utility.yul\":7047:7051   */\n      dup2\n        /* \"#utility.yul\":6921:7052   */\n      tag_147\n      jump\t// in\n    tag_186:\n        /* \"#utility.yul\":6913:7052   */\n      swap1\n      pop\n        /* \"#utility.yul\":6640:7059   */\n      swap2\n      swap1\n      pop\n      jump\t// out\n        /* \"#utility.yul\":7065:7484   */\n    tag_46:\n        /* \"#utility.yul\":7231:7235   */\n      0x00\n        /* \"#utility.yul\":7269:7271   */\n      0x20\n        /* \"#utility.yul\":7258:7267   */\n      dup3\n        /* \"#utility.yul\":7254:7272   */\n      add\n        /* \"#utility.yul\":7246:7272   */\n      swap1\n      pop\n        /* \"#utility.yul\":7318:7327   */\n      dup2\n        /* \"#utility.yul\":7312:7316   */\n      dup2\n        /* \"#utility.yul\":7308:7328   */\n      sub\n        /* \"#utility.yul\":7304:7305   */\n      0x00\n        /* \"#utility.yul\":7293:7302   */\n      dup4\n        /* \"#utility.yul\":7289:7306   */\n      add\n        /* \"#utility.yul\":7282:7329   */\n      mstore\n        /* \"#utility.yul\":7346:7477   */\n      tag_188\n        /* \"#utility.yul\":7472:7476   */\n      dup2\n        /* \"#utility.yul\":7346:7477   */\n      tag_152\n      jump\t// in\n    tag_188:\n        /* \"#utility.yul\":7338:7477   */\n      swap1\n      pop\n        /* \"#utility.yul\":7065:7484   */\n      swap2\n      swap1\n      pop\n      jump\t// out\n        /* \"#utility.yul\":7490:7909   */\n    tag_40:\n        /* \"#utility.yul\":7656:7660   */\n      0x00\n        /* \"#utility.yul\":7694:7696   */\n      0x20\n        /* \"#utility.yul\":7683:7692   */\n      dup3\n        /* \"#utility.yul\":7679:7697   */\n      add\n        /* \"#utility.yul\":7671:7697   */\n      swap1\n      pop\n        /* \"#utility.yul\":7743:7752   */\n      dup2\n        /* \"#utility.yul\":7737:7741   */\n      dup2\n        /* \"#utility.yul\":7733:7753   */\n      sub\n        /* \"#utility.yul\":7729:7730   */\n      0x00\n        /* \"#utility.yul\":7718:7727   */\n      dup4\n        /* \"#utility.yul\":7714:7731   */\n      add\n        /* \"#utility.yul\":7707:7754   */\n      mstore\n        /* \"#utility.yul\":7771:7902   */\n      tag_190\n        /* \"#utility.yul\":7897:7901   */\n      dup2\n        /* \"#utility.yul\":7771:7902   */\n      tag_157\n      jump\t// in\n    tag_190:\n        /* \"#utility.yul\":7763:7902   */\n      swap1\n      pop\n        /* \"#utility.yul\":7490:7909   */\n      swap2\n      swap1\n      pop\n      jump\t// out\n        /* \"#utility.yul\":7915:8334   */\n    tag_57:\n        /* \"#utility.yul\":8081:8085   */\n      0x00\n        /* \"#utility.yul\":8119:8121   */\n      0x20\n        /* \"#utility.yul\":8108:8117   */\n      dup3\n        /* \"#utility.yul\":8104:8122   */\n      add\n        /* \"#utility.yul\":8096:8122   */\n      swap1\n      pop\n        /* \"#utility.yul\":8168:8177   */\n      dup2\n        /* \"#utility.yul\":8162:8166   */\n      dup2\n        /* \"#utility.yul\":8158:8178   */\n      sub\n        /* \"#utility.yul\":8154:8155   */\n      0x00\n        /* \"#utility.yul\":8143:8152   */\n      dup4\n        /* \"#utility.yul\":8139:8156   */\n      add\n        /* \"#utility.yul\":8132:8179   */\n      mstore\n        /* \"#utility.yul\":8196:8327   */\n      tag_192\n        /* \"#utility.yul\":8322:8326   */\n      dup2\n        /* \"#utility.yul\":8196:8327   */\n      tag_162\n      jump\t// in\n    tag_192:\n        /* \"#utility.yul\":8188:8327   */\n      swap1\n      pop\n        /* \"#utility.yul\":7915:8334   */\n      swap2\n      swap1\n      pop\n      jump\t// out\n        /* \"#utility.yul\":8340:8562   */\n    tag_11:\n        /* \"#utility.yul\":8433:8437   */\n      0x00\n        /* \"#utility.yul\":8471:8473   */\n      0x20\n        /* \"#utility.yul\":8460:8469   */\n      dup3\n        /* \"#utility.yul\":8456:8474   */\n      add\n        /* \"#utility.yul\":8448:8474   */\n      swap1\n      pop\n        /* \"#utility.yul\":8484:8555   */\n      tag_194\n        /* \"#utility.yul\":8552:8553   */\n      0x00\n        /* \"#utility.yul\":8541:8550   */\n      dup4\n        /* \"#utility.yul\":8537:8554   */\n      add\n        /* \"#utility.yul\":8528:8534   */\n      dup5\n        /* \"#utility.yul\":8484:8555   */\n      tag_167\n      jump\t// in\n    tag_194:\n        /* \"#utility.yul\":8340:8562   */\n      swap3\n      swap2\n      pop\n      pop\n      jump\t// out\n        /* \"#utility.yul\":8568:8697   */\n    tag_86:\n        /* \"#utility.yul\":8602:8608   */\n      0x00\n        /* \"#utility.yul\":8629:8649   */\n      tag_196\n      tag_197\n      jump\t// in\n    tag_196:\n        /* \"#utility.yul\":8619:8649   */\n      swap1\n      pop\n        /* \"#utility.yul\":8658:8691   */\n      tag_198\n        /* \"#utility.yul\":8686:8690   */\n      dup3\n        /* \"#utility.yul\":8678:8684   */\n      dup3\n        /* \"#utility.yul\":8658:8691   */\n      tag_199\n      jump\t// in\n    tag_198:\n        /* \"#utility.yul\":8568:8697   */\n      swap2\n      swap1\n      pop\n      jump\t// out\n        /* \"#utility.yul\":8703:8778   */\n    tag_197:\n        /* \"#utility.yul\":8736:8742   */\n      0x00\n        /* \"#utility.yul\":8769:8771   */\n      0x40\n        /* \"#utility.yul\":8763:8772   */\n      mload\n        /* \"#utility.yul\":8753:8772   */\n      swap1\n      pop\n        /* \"#utility.yul\":8703:8778   */\n      swap1\n      jump\t// out\n        /* \"#utility.yul\":8784:9092   */\n    tag_85:\n        /* \"#utility.yul\":8846:8850   */\n      0x00\n        /* \"#utility.yul\":8936:8954   */\n      0xffffffffffffffff\n        /* \"#utility.yul\":8928:8934   */\n      dup3\n        /* \"#utility.yul\":8925:8955   */\n      gt\n        /* \"#utility.yul\":8922:8978   */\n      iszero\n      tag_202\n      jumpi\n        /* \"#utility.yul\":8958:8976   */\n      tag_203\n      tag_204\n      jump\t// in\n    tag_203:\n        /* \"#utility.yul\":8922:8978   */\n    tag_202:\n        /* \"#utility.yul\":8996:9025   */\n      tag_205\n        /* \"#utility.yul\":9018:9024   */\n      dup3\n        /* \"#utility.yul\":8996:9025   */\n      tag_206\n      jump\t// in\n    tag_205:\n        /* \"#utility.yul\":8988:9025   */\n      swap1\n      pop\n        /* \"#utility.yul\":9080:9084   */\n      0x20\n        /* \"#utility.yul\":9074:9078   */\n      dup2\n        /* \"#utility.yul\":9070:9085   */\n      add\n        /* \"#utility.yul\":9062:9085   */\n      swap1\n      pop\n        /* \"#utility.yul\":8784:9092   */\n      swap2\n      swap1\n      pop\n      jump\t// out\n        /* \"#utility.yul\":9098:9196   */\n    tag_136:\n        /* \"#utility.yul\":9149:9155   */\n      0x00\n        /* \"#utility.yul\":9183:9188   */\n      dup2\n        /* \"#utility.yul\":9177:9189   */\n      mload\n        /* \"#utility.yul\":9167:9189   */\n      swap1\n      pop\n        /* \"#utility.yul\":9098:9196   */\n      swap2\n      swap1\n      pop\n      jump\t// out\n        /* \"#utility.yul\":9202:9349   */\n    tag_138:\n        /* \"#utility.yul\":9303:9314   */\n      0x00\n        /* \"#utility.yul\":9340:9343   */\n      dup2\n        /* \"#utility.yul\":9325:9343   */\n      swap1\n      pop\n        /* \"#utility.yul\":9202:9349   */\n      swap3\n      swap2\n      pop\n      pop\n      jump\t// out\n        /* \"#utility.yul\":9355:9524   */\n    tag_144:\n        /* \"#utility.yul\":9439:9450   */\n      0x00\n        /* \"#utility.yul\":9473:9479   */\n      dup3\n        /* \"#utility.yul\":9468:9471   */\n      dup3\n        /* \"#utility.yul\":9461:9480   */\n      mstore\n        /* \"#utility.yul\":9513:9517   */\n      0x20\n        /* \"#utility.yul\":9508:9511   */\n      dup3\n        /* \"#utility.yul\":9504:9518   */\n      add\n        /* \"#utility.yul\":9489:9518   */\n      swap1\n      pop\n        /* \"#utility.yul\":9355:9524   */\n      swap3\n      swap2\n      pop\n      pop\n      jump\t// out\n        /* \"#utility.yul\":9530:9835   */\n    tag_51:\n        /* \"#utility.yul\":9570:9573   */\n      0x00\n        /* \"#utility.yul\":9589:9609   */\n      tag_211\n        /* \"#utility.yul\":9607:9608   */\n      dup3\n        /* \"#utility.yul\":9589:9609   */\n      tag_170\n      jump\t// in\n    tag_211:\n        /* \"#utility.yul\":9584:9609   */\n      swap2\n      pop\n        /* \"#utility.yul\":9623:9643   */\n      tag_212\n        /* \"#utility.yul\":9641:9642   */\n      dup4\n        /* \"#utility.yul\":9623:9643   */\n      tag_170\n      jump\t// in\n    tag_212:\n        /* \"#utility.yul\":9618:9643   */\n      swap3\n      pop\n        /* \"#utility.yul\":9777:9778   */\n      dup3\n        /* \"#utility.yul\":9709:9775   */\n      0xffffffffffffffffffffffffffffffffffffffffffffffffffffffffffffffff\n        /* \"#utility.yul\":9705:9779   */\n      sub\n        /* \"#utility.yul\":9702:9703   */\n      dup3\n        /* \"#utility.yul\":9699:9780   */\n      gt\n        /* \"#utility.yul\":9696:9803   */\n      iszero\n      tag_213\n      jumpi\n        /* \"#utility.yul\":9783:9801   */\n      tag_214\n      tag_215\n      jump\t// in\n    tag_214:\n        /* \"#utility.yul\":9696:9803   */\n    tag_213:\n        /* \"#utility.yul\":9827:9828   */\n      dup3\n        /* \"#utility.yul\":9824:9825   */\n      dup3\n        /* \"#utility.yul\":9820:9829   */\n      add\n        /* \"#utility.yul\":9813:9829   */\n      swap1\n      pop\n        /* \"#utility.yul\":9530:9835   */\n      swap3\n      swap2\n      pop\n      pop\n      jump\t// out\n        /* \"#utility.yul\":9841:10032   */\n    tag_53:\n        /* \"#utility.yul\":9881:9885   */\n      0x00\n        /* \"#utility.yul\":9901:9921   */\n      tag_217\n        /* \"#utility.yul\":9919:9920   */\n      dup3\n        /* \"#utility.yul\":9901:9921   */\n      tag_170\n      jump\t// in\n    tag_217:\n        /* \"#utility.yul\":9896:9921   */\n      swap2\n      pop\n        /* \"#utility.yul\":9935:9955   */\n      tag_218\n        /* \"#utility.yul\":9953:9954   */\n      dup4\n        /* \"#utility.yul\":9935:9955   */\n      tag_170\n      jump\t// in\n    tag_218:\n        /* \"#utility.yul\":9930:9955   */\n      swap3\n      pop\n        /* \"#utility.yul\":9974:9975   */\n      dup3\n        /* \"#utility.yul\":9971:9972   */\n      dup3\n        /* \"#utility.yul\":9968:9976   */\n      lt\n        /* \"#utility.yul\":9965:9999   */\n      iszero\n      tag_219\n      jumpi\n        /* \"#utility.yul\":9979:9997   */\n      tag_220\n      tag_215\n      jump\t// in\n    tag_220:\n        /* \"#utility.yul\":9965:9999   */\n    tag_219:\n        /* \"#utility.yul\":10024:10025   */\n      dup3\n        /* \"#utility.yul\":10021:10022   */\n      dup3\n        /* \"#utility.yul\":10017:10026   */\n      sub\n        /* \"#utility.yul\":10009:10026   */\n      swap1\n      pop\n        /* \"#utility.yul\":9841:10032   */\n      swap3\n      swap2\n      pop\n      pop\n      jump\t// out\n        /* \"#utility.yul\":10038:10134   */\n    tag_131:\n        /* \"#utility.yul\":10075:10082   */\n      0x00\n        /* \"#utility.yul\":10104:10128   */\n      tag_222\n        /* \"#utility.yul\":10122:10127   */\n      dup3\n        /* \"#utility.yul\":10104:10128   */\n      tag_223\n      jump\t// in\n    tag_222:\n        /* \"#utility.yul\":10093:10128   */\n      swap1\n      pop\n        /* \"#utility.yul\":10038:10134   */\n      swap2\n      swap1\n      pop\n      jump\t// out\n        /* \"#utility.yul\":10140:10230   */\n    tag_224:\n        /* \"#utility.yul\":10174:10181   */\n      0x00\n        /* \"#utility.yul\":10217:10222   */\n      dup2\n        /* \"#utility.yul\":10210:10223   */\n      iszero\n        /* \"#utility.yul\":10203:10224   */\n      iszero\n        /* \"#utility.yul\":10192:10224   */\n      swap1\n      pop\n        /* \"#utility.yul\":10140:10230   */\n      swap2\n      swap1\n      pop\n      jump\t// out\n        /* \"#utility.yul\":10236:10313   */\n    tag_226:\n        /* \"#utility.yul\":10273:10280   */\n      0x00\n        /* \"#utility.yul\":10302:10307   */\n      dup2\n        /* \"#utility.yul\":10291:10307   */\n      swap1\n      pop\n        /* \"#utility.yul\":10236:10313   */\n      swap2\n      swap1\n      pop\n      jump\t// out\n        /* \"#utility.yul\":10319:10445   */\n    tag_223:\n        /* \"#utility.yul\":10356:10363   */\n      0x00\n        /* \"#utility.yul\":10396:10438   */\n      0xffffffffffffffffffffffffffffffffffffffff\n        /* \"#utility.yul\":10389:10394   */\n      dup3\n        /* \"#utility.yul\":10385:10439   */\n      and\n        /* \"#utility.yul\":10374:10439   */\n      swap1\n      pop\n        /* \"#utility.yul\":10319:10445   */\n      swap2\n      swap1\n      pop\n      jump\t// out\n        /* \"#utility.yul\":10451:10528   */\n    tag_170:\n        /* \"#utility.yul\":10488:10495   */\n      0x00\n        /* \"#utility.yul\":10517:10522   */\n      dup2\n        /* \"#utility.yul\":10506:10522   */\n      swap1\n      pop\n        /* \"#utility.yul\":10451:10528   */\n      swap2\n      swap1\n      pop\n      jump\t// out\n        /* \"#utility.yul\":10534:10688   */\n    tag_91:\n        /* \"#utility.yul\":10618:10624   */\n      dup3\n        /* \"#utility.yul\":10613:10616   */\n      dup2\n        /* \"#utility.yul\":10608:10611   */\n      dup4\n        /* \"#utility.yul\":10595:10625   */\n      calldatacopy\n        /* \"#utility.yul\":10680:10681   */\n      0x00\n        /* \"#utility.yul\":10671:10677   */\n      dup4\n        /* \"#utility.yul\":10666:10669   */\n      dup4\n        /* \"#utility.yul\":10662:10678   */\n      add\n        /* \"#utility.yul\":10655:10682   */\n      mstore\n        /* \"#utility.yul\":10534:10688   */\n      pop\n      pop\n      pop\n      jump\t// out\n        /* \"#utility.yul\":10694:11001   */\n    tag_140:\n        /* \"#utility.yul\":10762:10763   */\n      0x00\n        /* \"#utility.yul\":10772:10885   */\n    tag_232:\n        /* \"#utility.yul\":10786:10792   */\n      dup4\n        /* \"#utility.yul\":10783:10784   */\n      dup2\n        /* \"#utility.yul\":10780:10793   */\n      lt\n        /* \"#utility.yul\":10772:10885   */\n      iszero\n      tag_234\n      jumpi\n        /* \"#utility.yul\":10871:10872   */\n      dup1\n        /* \"#utility.yul\":10866:10869   */\n      dup3\n        /* \"#utility.yul\":10862:10873   */\n      add\n        /* \"#utility.yul\":10856:10874   */\n      mload\n        /* \"#utility.yul\":10852:10853   */\n      dup2\n        /* \"#utility.yul\":10847:10850   */\n      dup5\n        /* \"#utility.yul\":10843:10854   */\n      add\n        /* \"#utility.yul\":10836:10875   */\n      mstore\n        /* \"#utility.yul\":10808:10810   */\n      0x20\n        /* \"#utility.yul\":10805:10806   */\n      dup2\n        /* \"#utility.yul\":10801:10811   */\n      add\n        /* \"#utility.yul\":10796:10811   */\n      swap1\n      pop\n        /* \"#utility.yul\":10772:10885   */\n      jump(tag_232)\n    tag_234:\n        /* \"#utility.yul\":10903:10909   */\n      dup4\n        /* \"#utility.yul\":10900:10901   */\n      dup2\n        /* \"#utility.yul\":10897:10910   */\n      gt\n        /* \"#utility.yul\":10894:10995   */\n      iszero\n      tag_235\n      jumpi\n        /* \"#utility.yul\":10983:10984   */\n      0x00\n        /* \"#utility.yul\":10974:10980   */\n      dup5\n        /* \"#utility.yul\":10969:10972   */\n      dup5\n        /* \"#utility.yul\":10965:10981   */\n      add\n        /* \"#utility.yul\":10958:10985   */\n      mstore\n        /* \"#utility.yul\":10894:10995   */\n    tag_235:\n        /* \"#utility.yul\":10743:11001   */\n      pop\n        /* \"#utility.yul\":10694:11001   */\n      pop\n      pop\n      pop\n      jump\t// out\n        /* \"#utility.yul\":11007:11327   */\n    tag_70:\n        /* \"#utility.yul\":11051:11057   */\n      0x00\n        /* \"#utility.yul\":11088:11089   */\n      0x02\n        /* \"#utility.yul\":11082:11086   */\n      dup3\n        /* \"#utility.yul\":11078:11090   */\n      div\n        /* \"#utility.yul\":11068:11090   */\n      swap1\n      pop\n        /* \"#utility.yul\":11135:11136   */\n      0x01\n        /* \"#utility.yul\":11129:11133   */\n      dup3\n        /* \"#utility.yul\":11125:11137   */\n      and\n        /* \"#utility.yul\":11156:11174   */\n      dup1\n        /* \"#utility.yul\":11146:11227   */\n      tag_237\n      jumpi\n        /* \"#utility.yul\":11212:11216   */\n      0x7f\n        /* \"#utility.yul\":11204:11210   */\n      dup3\n        /* \"#utility.yul\":11200:11217   */\n      and\n        /* \"#utility.yul\":11190:11217   */\n      swap2\n      pop\n        /* \"#utility.yul\":11146:11227   */\n    tag_237:\n        /* \"#utility.yul\":11274:11276   */\n      0x20\n        /* \"#utility.yul\":11266:11272   */\n      dup3\n        /* \"#utility.yul\":11263:11277   */\n      lt\n        /* \"#utility.yul\":11243:11261   */\n      dup2\n        /* \"#utility.yul\":11240:11278   */\n      eq\n        /* \"#utility.yul\":11237:11321   */\n      iszero\n      tag_238\n      jumpi\n        /* \"#utility.yul\":11293:11311   */\n      tag_239\n      tag_240\n      jump\t// in\n    tag_239:\n        /* \"#utility.yul\":11237:11321   */\n    tag_238:\n        /* \"#utility.yul\":11058:11327   */\n      pop\n        /* \"#utility.yul\":11007:11327   */\n      swap2\n      swap1\n      pop\n      jump\t// out\n        /* \"#utility.yul\":11333:11614   */\n    tag_199:\n        /* \"#utility.yul\":11416:11443   */\n      tag_242\n        /* \"#utility.yul\":11438:11442   */\n      dup3\n        /* \"#utility.yul\":11416:11443   */\n      tag_206\n      jump\t// in\n    tag_242:\n        /* \"#utility.yul\":11408:11414   */\n      dup2\n        /* \"#utility.yul\":11404:11444   */\n      add\n        /* \"#utility.yul\":11546:11552   */\n      dup2\n        /* \"#utility.yul\":11534:11544   */\n      dup2\n        /* \"#utility.yul\":11531:11553   */\n      lt\n        /* \"#utility.yul\":11510:11528   */\n      0xffffffffffffffff\n        /* \"#utility.yul\":11498:11508   */\n      dup3\n        /* \"#utility.yul\":11495:11529   */\n      gt\n        /* \"#utility.yul\":11492:11554   */\n      or\n        /* \"#utility.yul\":11489:11577   */\n      iszero\n      tag_243\n      jumpi\n        /* \"#utility.yul\":11557:11575   */\n      tag_244\n      tag_204\n      jump\t// in\n    tag_244:\n        /* \"#utility.yul\":11489:11577   */\n    tag_243:\n        /* \"#utility.yul\":11597:11607   */\n      dup1\n        /* \"#utility.yul\":11593:11595   */\n      0x40\n        /* \"#utility.yul\":11586:11608   */\n      mstore\n        /* \"#utility.yul\":11376:11614   */\n      pop\n        /* \"#utility.yul\":11333:11614   */\n      pop\n      pop\n      jump\t// out\n        /* \"#utility.yul\":11620:11720   */\n    tag_132:\n        /* \"#utility.yul\":11659:11666   */\n      0x00\n        /* \"#utility.yul\":11688:11714   */\n      tag_246\n        /* \"#utility.yul\":11708:11713   */\n      dup3\n        /* \"#utility.yul\":11688:11714   */\n      tag_247\n      jump\t// in\n    tag_246:\n        /* \"#utility.yul\":11677:11714   */\n      swap1\n      pop\n        /* \"#utility.yul\":11620:11720   */\n      swap2\n      swap1\n      pop\n      jump\t// out\n        /* \"#utility.yul\":11726:11820   */\n    tag_247:\n        /* \"#utility.yul\":11765:11772   */\n      0x00\n        /* \"#utility.yul\":11794:11814   */\n      tag_249\n        /* \"#utility.yul\":11808:11813   */\n      dup3\n        /* \"#utility.yul\":11794:11814   */\n      tag_250\n      jump\t// in\n    tag_249:\n        /* \"#utility.yul\":11783:11814   */\n      swap1\n      pop\n        /* \"#utility.yul\":11726:11820   */\n      swap2\n      swap1\n      pop\n      jump\t// out\n        /* \"#utility.yul\":11826:11905   */\n    tag_175:\n        /* \"#utility.yul\":11865:11872   */\n      0x00\n        /* \"#utility.yul\":11894:11899   */\n      dup2\n        /* \"#utility.yul\":11883:11899   */\n      swap1\n      pop\n        /* \"#utility.yul\":11826:11905   */\n      swap2\n      swap1\n      pop\n      jump\t// out\n        /* \"#utility.yul\":11911:12091   */\n    tag_215:\n        /* \"#utility.yul\":11959:12036   */\n      0x4e487b7100000000000000000000000000000000000000000000000000000000\n        /* \"#utility.yul\":11956:11957   */\n      0x00\n        /* \"#utility.yul\":11949:12037   */\n      mstore\n        /* \"#utility.yul\":12056:12060   */\n      0x11\n        /* \"#utility.yul\":12053:12054   */\n      0x04\n        /* \"#utility.yul\":12046:12061   */\n      mstore\n        /* \"#utility.yul\":12080:12084   */\n      0x24\n        /* \"#utility.yul\":12077:12078   */\n      0x00\n        /* \"#utility.yul\":12070:12085   */\n      revert\n        /* \"#utility.yul\":12097:12277   */\n    tag_240:\n        /* \"#utility.yul\":12145:12222   */\n      0x4e487b7100000000000000000000000000000000000000000000000000000000\n        /* \"#utility.yul\":12142:12143   */\n      0x00\n        /* \"#utility.yul\":12135:12223   */\n      mstore\n        /* \"#utility.yul\":12242:12246   */\n      0x22\n        /* \"#utility.yul\":12239:12240   */\n      0x04\n        /* \"#utility.yul\":12232:12247   */\n      mstore\n        /* \"#utility.yul\":12266:12270   */\n      0x24\n        /* \"#utility.yul\":12263:12264   */\n      0x00\n        /* \"#utility.yul\":12256:12271   */\n      revert\n        /* \"#utility.yul\":12283:12463   */\n    tag_204:\n        /* \"#utility.yul\":12331:12408   */\n      0x4e487b7100000000000000000000000000000000000000000000000000000000\n        /* \"#utility.yul\":12328:12329   */\n      0x00\n        /* \"#utility.yul\":12321:12409   */\n      mstore\n        /* \"#utility.yul\":12428:12432   */\n      0x41\n        /* \"#utility.yul\":12425:12426   */\n      0x04\n        /* \"#utility.yul\":12418:12433   */\n      mstore\n        /* \"#utility.yul\":12452:12456   */\n      0x24\n        /* \"#utility.yul\":12449:12450   */\n      0x00\n        /* \"#utility.yul\":12442:12457   */\n      revert\n        /* \"#utility.yul\":12469:12586   */\n    tag_104:\n        /* \"#utility.yul\":12578:12579   */\n      0x00\n        /* \"#utility.yul\":12575:12576   */\n      dup1\n        /* \"#utility.yul\":12568:12580   */\n      revert\n        /* \"#utility.yul\":12592:12709   */\n    tag_89:\n        /* \"#utility.yul\":12701:12702   */\n      0x00\n        /* \"#utility.yul\":12698:12699   */\n      dup1\n        /* \"#utility.yul\":12691:12703   */\n      revert\n        /* \"#utility.yul\":12715:12832   */\n    tag_120:\n        /* \"#utility.yul\":12824:12825   */\n      0x00\n        /* \"#utility.yul\":12821:12822   */\n      dup1\n        /* \"#utility.yul\":12814:12826   */\n      revert\n        /* \"#utility.yul\":12838:12955   */\n    tag_113:\n        /* \"#utility.yul\":12947:12948   */\n      0x00\n        /* \"#utility.yul\":12944:12945   */\n      dup1\n        /* \"#utility.yul\":12937:12949   */\n      revert\n        /* \"#utility.yul\":12961:13063   */\n    tag_206:\n        /* \"#utility.yul\":13002:13008   */\n      0x00\n        /* \"#utility.yul\":13053:13055   */\n      0x1f\n        /* \"#utility.yul\":13049:13056   */\n      not\n        /* \"#utility.yul\":13044:13046   */\n      0x1f\n        /* \"#utility.yul\":13037:13042   */\n      dup4\n        /* \"#utility.yul\":13033:13047   */\n      add\n        /* \"#utility.yul\":13029:13057   */\n      and\n        /* \"#utility.yul\":13019:13057   */\n      swap1\n      pop\n        /* \"#utility.yul\":12961:13063   */\n      swap2\n      swap1\n      pop\n      jump\t// out\n        /* \"#utility.yul\":13069:13163   */\n    tag_250:\n        /* \"#utility.yul\":13102:13110   */\n      0x00\n        /* \"#utility.yul\":13150:13155   */\n      dup2\n        /* \"#utility.yul\":13146:13148   */\n      0x60\n        /* \"#utility.yul\":13142:13156   */\n      shl\n        /* \"#utility.yul\":13121:13156   */\n      swap1\n      pop\n        /* \"#utility.yul\":13069:13163   */\n      swap2\n      swap1\n      pop\n      jump\t// out\n        /* \"#utility.yul\":13169:13336   */\n    tag_146:\n        /* \"#utility.yul\":13309:13328   */\n      0x566f74696e672068617320636c6f736564000000000000000000000000000000\n        /* \"#utility.yul\":13305:13306   */\n      0x00\n        /* \"#utility.yul\":13297:13303   */\n      dup3\n        /* \"#utility.yul\":13293:13307   */\n      add\n        /* \"#utility.yul\":13286:13329   */\n      mstore\n        /* \"#utility.yul\":13169:13336   */\n      pop\n      jump\t// out\n        /* \"#utility.yul\":13342:13510   */\n    tag_151:\n        /* \"#utility.yul\":13482:13502   */\n      0x416c7265616479207369676e6564207570210000000000000000000000000000\n        /* \"#utility.yul\":13478:13479   */\n      0x00\n        /* \"#utility.yul\":13470:13476   */\n      dup3\n        /* \"#utility.yul\":13466:13480   */\n      add\n        /* \"#utility.yul\":13459:13503   */\n      mstore\n        /* \"#utility.yul\":13342:13510   */\n      pop\n      jump\t// out\n        /* \"#utility.yul\":13516:13743   */\n    tag_156:\n        /* \"#utility.yul\":13656:13690   */\n      0x5369676e2d75702072656a65637465642120496e616465717561746520737461\n        /* \"#utility.yul\":13652:13653   */\n      0x00\n        /* \"#utility.yul\":13644:13650   */\n      dup3\n        /* \"#utility.yul\":13640:13654   */\n      add\n        /* \"#utility.yul\":13633:13691   */\n      mstore\n        /* \"#utility.yul\":13725:13735   */\n      0x6b652076616c7565000000000000000000000000000000000000000000000000\n        /* \"#utility.yul\":13720:13722   */\n      0x20\n        /* \"#utility.yul\":13712:13718   */\n      dup3\n        /* \"#utility.yul\":13708:13723   */\n      add\n        /* \"#utility.yul\":13701:13736   */\n      mstore\n        /* \"#utility.yul\":13516:13743   */\n      pop\n      jump\t// out\n        /* \"#utility.yul\":13749:13913   */\n    tag_161:\n        /* \"#utility.yul\":13889:13905   */\n      0x4e6f74207369676e656420757021000000000000000000000000000000000000\n        /* \"#utility.yul\":13885:13886   */\n      0x00\n        /* \"#utility.yul\":13877:13883   */\n      dup3\n        /* \"#utility.yul\":13873:13887   */\n      add\n        /* \"#utility.yul\":13866:13906   */\n      mstore\n        /* \"#utility.yul\":13749:13913   */\n      pop\n      jump\t// out\n        /* \"#utility.yul\":13919:14139   */\n    tag_166:\n        /* \"#utility.yul\":14059:14093   */\n      0x4e6f7420612076616c696461746f7220666f7220746869732072657175657374\n        /* \"#utility.yul\":14055:14056   */\n      0x00\n        /* \"#utility.yul\":14047:14053   */\n      dup3\n        /* \"#utility.yul\":14043:14057   */\n      add\n        /* \"#utility.yul\":14036:14094   */\n      mstore\n        /* \"#utility.yul\":14128:14131   */\n      0x2100000000000000000000000000000000000000000000000000000000000000\n        /* \"#utility.yul\":14123:14125   */\n      0x20\n        /* \"#utility.yul\":14115:14121   */\n      dup3\n        /* \"#utility.yul\":14111:14126   */\n      add\n        /* \"#utility.yul\":14104:14132   */\n      mstore\n        /* \"#utility.yul\":13919:14139   */\n      pop\n      jump\t// out\n        /* \"#utility.yul\":14145:14261   */\n    tag_95:\n        /* \"#utility.yul\":14215:14236   */\n      tag_267\n        /* \"#utility.yul\":14230:14235   */\n      dup2\n        /* \"#utility.yul\":14215:14236   */\n      tag_224\n      jump\t// in\n    tag_267:\n        /* \"#utility.yul\":14208:14213   */\n      dup2\n        /* \"#utility.yul\":14205:14237   */\n      eq\n        /* \"#utility.yul\":14195:14255   */\n      tag_268\n      jumpi\n        /* \"#utility.yul\":14251:14252   */\n      0x00\n        /* \"#utility.yul\":14248:14249   */\n      dup1\n        /* \"#utility.yul\":14241:14253   */\n      revert\n        /* \"#utility.yul\":14195:14255   */\n    tag_268:\n        /* \"#utility.yul\":14145:14261   */\n      pop\n      jump\t// out\n        /* \"#utility.yul\":14267:14389   */\n    tag_99:\n        /* \"#utility.yul\":14340:14364   */\n      tag_270\n        /* \"#utility.yul\":14358:14363   */\n      dup2\n        /* \"#utility.yul\":14340:14364   */\n      tag_226\n      jump\t// in\n    tag_270:\n        /* \"#utility.yul\":14333:14338   */\n      dup2\n        /* \"#utility.yul\":14330:14365   */\n      eq\n        /* \"#utility.yul\":14320:14383   */\n      tag_271\n      jumpi\n        /* \"#utility.yul\":14379:14380   */\n      0x00\n        /* \"#utility.yul\":14376:14377   */\n      dup1\n        /* \"#utility.yul\":14369:14381   */\n      revert\n        /* \"#utility.yul\":14320:14383   */\n    tag_271:\n        /* \"#utility.yul\":14267:14389   */\n      pop\n      jump\t// out\n        /* \"#utility.yul\":14395:14517   */\n    tag_109:\n        /* \"#utility.yul\":14468:14492   */\n      tag_273\n        /* \"#utility.yul\":14486:14491   */\n      dup2\n        /* \"#utility.yul\":14468:14492   */\n      tag_170\n      jump\t// in\n    tag_273:\n        /* \"#utility.yul\":14461:14466   */\n      dup2\n        /* \"#utility.yul\":14458:14493   */\n      eq\n        /* \"#utility.yul\":14448:14511   */\n      tag_274\n      jumpi\n        /* \"#utility.yul\":14507:14508   */\n      0x00\n        /* \"#utility.yul\":14504:14505   */\n      dup1\n        /* \"#utility.yul\":14497:14509   */\n      revert\n        /* \"#utility.yul\":14448:14511   */\n    tag_274:\n        /* \"#utility.yul\":14395:14517   */\n      pop\n      jump\t// out\n\n    auxdata: 0xa26469706673582212204e9f7f9b1048af894a1d3d43e8d095368eaa3b7943b2747a33af0765be83489e64736f6c63430008070033\n}\n",
				"bytecode": {
					"linkReferences": {},
					"object": "608060405234801561001057600080fd5b50610feb806100206000396000f3fe60806040526004361061003f5760003560e01c8063969b156714610044578063c09f8ff614610074578063c4fb33371461008b578063c9d27afe146100a9575b600080fd5b61005e600480360381019061005991906108a6565b6100d2565b60405161006b9190610b51565b60405180910390f35b34801561008057600080fd5b50610089610238565b005b61009361036c565b6040516100a09190610b51565b60405180910390f35b3480156100b557600080fd5b506100d060048036038101906100cb91906108ef565b6104c7565b005b6000678ac7230489e800003410156100e957600080fd5b600060024244336004546040516020016101069493929190610a63565b6040516020818303038152906040526040516101229190610a4c565b602060405180830381855afa15801561013f573d6000803e3d6000fd5b5050506040513d601f19601f820116820180604052508101906101629190610879565b60001c90508060026000600554815260200190815260200160002060010181905550600554600260006005548152602001908152602001600020600001819055503360026000600554815260200190815260200160002060040160006101000a81548173ffffffffffffffffffffffffffffffffffffffff021916908373ffffffffffffffffffffffffffffffffffffffff160217905550826002600060055481526020019081526020016000206003019080519060200190610226929190610727565b50610232600554610724565b50919050565b60011515600160003373ffffffffffffffffffffffffffffffffffffffff1673ffffffffffffffffffffffffffffffffffffffff16815260200190815260200160002060009054906101000a900460ff161515146102cb576040517f08c379a00000000000000000000000000000000000000000000000000000000081526004016102c290610b11565b60405180910390fd5b60001515600160003373ffffffffffffffffffffffffffffffffffffffff1673ffffffffffffffffffffffffffffffffffffffff16815260200190815260200160002060009054906101000a905050503373ffffffffffffffffffffffffffffffffffffffff166108fc670de0b6b3a76400009081150290604051600060405180830381858888f19350505050158015610369573d6000803e3d6000fd5b50565b6000670de0b6b3a764000034146103b8576040517f08c379a00000000000000000000000000000000000000000000000000000000081526004016103af90610af1565b60405180910390fd5b60001515600160003373ffffffffffffffffffffffffffffffffffffffff1673ffffffffffffffffffffffffffffffffffffffff16815260200190815260200160002060009054906101000a900460ff1615151461044b576040517f08c379a000000000000000000000000000000000000000000000000000000000815260040161044290610ad1565b60405180910390fd5b33600080600454815260200190815260200160002060006101000a81548173ffffffffffffffffffffffffffffffffffffffff021916908373ffffffffffffffffffffffffffffffffffffffff16021790555060016004546104ad9190610be9565b60048190555060016004546104c29190610c3f565b905090565b600115156002600084815260200190815260200160002060020160003373ffffffffffffffffffffffffffffffffffffffff1673ffffffffffffffffffffffffffffffffffffffff16815260200190815260200160002060009054906101000a900460ff1615151461056e576040517f08c379a000000000000000000000000000000000000000000000000000000000815260040161056590610b31565b60405180910390fd5b600260008381526020019081526020016000206009015443106105c6576040517f08c379a00000000000000000000000000000000000000000000000000000000081526004016105bd90610ab1565b60405180910390fd5b801561060e57600160026000848152602001908152602001600020600701546105ef9190610be9565b600260008481526020019081526020016000206007018190555061064c565b600160026000848152602001908152602001600020600801546106319190610be9565b60026000848152602001908152602001600020600801819055505b3373ffffffffffffffffffffffffffffffffffffffff166108fc6002600085815260200190815260200160002060050154670de0b6b3a76400006106909190610be9565b9081150290604051600060405180830381858888f193505050501580156106bb573d6000803e3d6000fd5b50600015156002600084815260200190815260200160002060020160003373ffffffffffffffffffffffffffffffffffffffff1673ffffffffffffffffffffffffffffffffffffffff16815260200190815260200160002060009054906101000a905050505050565b50565b82805461073390610d07565b90600052602060002090601f016020900481019282610755576000855561079c565b82601f1061076e57805160ff191683800117855561079c565b8280016001018555821561079c579182015b8281111561079b578251825591602001919060010190610780565b5b5090506107a991906107ad565b5090565b5b808211156107c65760008160009055506001016107ae565b5090565b60006107dd6107d884610b91565b610b6c565b9050828152602081018484840111156107f9576107f8610e2a565b5b610804848285610cc5565b509392505050565b60008135905061081b81610f70565b92915050565b60008151905061083081610f87565b92915050565b600082601f83011261084b5761084a610e25565b5b813561085b8482602086016107ca565b91505092915050565b60008135905061087381610f9e565b92915050565b60006020828403121561088f5761088e610e34565b5b600061089d84828501610821565b91505092915050565b6000602082840312156108bc576108bb610e34565b5b600082013567ffffffffffffffff8111156108da576108d9610e2f565b5b6108e684828501610836565b91505092915050565b6000806040838503121561090657610905610e34565b5b600061091485828601610864565b92505060206109258582860161080c565b9150509250929050565b61094061093b82610c73565b610d6a565b82525050565b600061095182610bc2565b61095b8185610bcd565b935061096b818560208601610cd4565b80840191505092915050565b6000610984601183610bd8565b915061098f82610e57565b602082019050919050565b60006109a7601283610bd8565b91506109b282610e80565b602082019050919050565b60006109ca602883610bd8565b91506109d582610ea9565b604082019050919050565b60006109ed600e83610bd8565b91506109f882610ef8565b602082019050919050565b6000610a10602183610bd8565b9150610a1b82610f21565b604082019050919050565b610a2f81610cbb565b82525050565b610a46610a4182610cbb565b610d8e565b82525050565b6000610a588284610946565b915081905092915050565b6000610a6f8287610a35565b602082019150610a7f8286610a35565b602082019150610a8f828561092f565b601482019150610a9f8284610a35565b60208201915081905095945050505050565b60006020820190508181036000830152610aca81610977565b9050919050565b60006020820190508181036000830152610aea8161099a565b9050919050565b60006020820190508181036000830152610b0a816109bd565b9050919050565b60006020820190508181036000830152610b2a816109e0565b9050919050565b60006020820190508181036000830152610b4a81610a03565b9050919050565b6000602082019050610b666000830184610a26565b92915050565b6000610b76610b87565b9050610b828282610d39565b919050565b6000604051905090565b600067ffffffffffffffff821115610bac57610bab610df6565b5b610bb582610e39565b9050602081019050919050565b600081519050919050565b600081905092915050565b600082825260208201905092915050565b6000610bf482610cbb565b9150610bff83610cbb565b9250827fffffffffffffffffffffffffffffffffffffffffffffffffffffffffffffffff03821115610c3457610c33610d98565b5b828201905092915050565b6000610c4a82610cbb565b9150610c5583610cbb565b925082821015610c6857610c67610d98565b5b828203905092915050565b6000610c7e82610c9b565b9050919050565b60008115159050919050565b6000819050919050565b600073ffffffffffffffffffffffffffffffffffffffff82169050919050565b6000819050919050565b82818337600083830152505050565b60005b83811015610cf2578082015181840152602081019050610cd7565b83811115610d01576000848401525b50505050565b60006002820490506001821680610d1f57607f821691505b60208210811415610d3357610d32610dc7565b5b50919050565b610d4282610e39565b810181811067ffffffffffffffff82111715610d6157610d60610df6565b5b80604052505050565b6000610d7582610d7c565b9050919050565b6000610d8782610e4a565b9050919050565b6000819050919050565b7f4e487b7100000000000000000000000000000000000000000000000000000000600052601160045260246000fd5b7f4e487b7100000000000000000000000000000000000000000000000000000000600052602260045260246000fd5b7f4e487b7100000000000000000000000000000000000000000000000000000000600052604160045260246000fd5b600080fd5b600080fd5b600080fd5b600080fd5b6000601f19601f8301169050919050565b60008160601b9050919050565b7f566f74696e672068617320636c6f736564000000000000000000000000000000600082015250565b7f416c7265616479207369676e6564207570210000000000000000000000000000600082015250565b7f5369676e2d75702072656a65637465642120496e61646571756174652073746160008201527f6b652076616c7565000000000000000000000000000000000000000000000000602082015250565b7f4e6f74207369676e656420757021000000000000000000000000000000000000600082015250565b7f4e6f7420612076616c696461746f7220666f722074686973207265717565737460008201527f2100000000000000000000000000000000000000000000000000000000000000602082015250565b610f7981610c85565b8114610f8457600080fd5b50565b610f9081610c91565b8114610f9b57600080fd5b50565b610fa781610cbb565b8114610fb257600080fd5b5056fea26469706673582212204e9f7f9b1048af894a1d3d43e8d095368eaa3b7943b2747a33af0765be83489e64736f6c63430008070033",
					"opcodes": "PUSH1 0x80 PUSH1 0x40 MSTORE CALLVALUE DUP1 ISZERO PUSH2 0x10 JUMPI PUSH1 0x0 DUP1 REVERT JUMPDEST POP PUSH2 0xFEB DUP1 PUSH2 0x20 PUSH1 0x0 CODECOPY PUSH1 0x0 RETURN INVALID PUSH1 0x80 PUSH1 0x40 MSTORE PUSH1 0x4 CALLDATASIZE LT PUSH2 0x3F JUMPI PUSH1 0x0 CALLDATALOAD PUSH1 0xE0 SHR DUP1 PUSH4 0x969B1567 EQ PUSH2 0x44 JUMPI DUP1 PUSH4 0xC09F8FF6 EQ PUSH2 0x74 JUMPI DUP1 PUSH4 0xC4FB3337 EQ PUSH2 0x8B JUMPI DUP1 PUSH4 0xC9D27AFE EQ PUSH2 0xA9 JUMPI JUMPDEST PUSH1 0x0 DUP1 REVERT JUMPDEST PUSH2 0x5E PUSH1 0x4 DUP1 CALLDATASIZE SUB DUP2 ADD SWAP1 PUSH2 0x59 SWAP2 SWAP1 PUSH2 0x8A6 JUMP JUMPDEST PUSH2 0xD2 JUMP JUMPDEST PUSH1 0x40 MLOAD PUSH2 0x6B SWAP2 SWAP1 PUSH2 0xB51 JUMP JUMPDEST PUSH1 0x40 MLOAD DUP1 SWAP2 SUB SWAP1 RETURN JUMPDEST CALLVALUE DUP1 ISZERO PUSH2 0x80 JUMPI PUSH1 0x0 DUP1 REVERT JUMPDEST POP PUSH2 0x89 PUSH2 0x238 JUMP JUMPDEST STOP JUMPDEST PUSH2 0x93 PUSH2 0x36C JUMP JUMPDEST PUSH1 0x40 MLOAD PUSH2 0xA0 SWAP2 SWAP1 PUSH2 0xB51 JUMP JUMPDEST PUSH1 0x40 MLOAD DUP1 SWAP2 SUB SWAP1 RETURN JUMPDEST CALLVALUE DUP1 ISZERO PUSH2 0xB5 JUMPI PUSH1 0x0 DUP1 REVERT JUMPDEST POP PUSH2 0xD0 PUSH1 0x4 DUP1 CALLDATASIZE SUB DUP2 ADD SWAP1 PUSH2 0xCB SWAP2 SWAP1 PUSH2 0x8EF JUMP JUMPDEST PUSH2 0x4C7 JUMP JUMPDEST STOP JUMPDEST PUSH1 0x0 PUSH8 0x8AC7230489E80000 CALLVALUE LT ISZERO PUSH2 0xE9 JUMPI PUSH1 0x0 DUP1 REVERT JUMPDEST PUSH1 0x0 PUSH1 0x2 TIMESTAMP DIFFICULTY CALLER PUSH1 0x4 SLOAD PUSH1 0x40 MLOAD PUSH1 0x20 ADD PUSH2 0x106 SWAP5 SWAP4 SWAP3 SWAP2 SWAP1 PUSH2 0xA63 JUMP JUMPDEST PUSH1 0x40 MLOAD PUSH1 0x20 DUP2 DUP4 SUB SUB DUP2 MSTORE SWAP1 PUSH1 0x40 MSTORE PUSH1 0x40 MLOAD PUSH2 0x122 SWAP2 SWAP1 PUSH2 0xA4C JUMP JUMPDEST PUSH1 0x20 PUSH1 0x40 MLOAD DUP1 DUP4 SUB DUP2 DUP6 GAS STATICCALL ISZERO DUP1 ISZERO PUSH2 0x13F JUMPI RETURNDATASIZE PUSH1 0x0 DUP1 RETURNDATACOPY RETURNDATASIZE PUSH1 0x0 REVERT JUMPDEST POP POP POP PUSH1 0x40 MLOAD RETURNDATASIZE PUSH1 0x1F NOT PUSH1 0x1F DUP3 ADD AND DUP3 ADD DUP1 PUSH1 0x40 MSTORE POP DUP2 ADD SWAP1 PUSH2 0x162 SWAP2 SWAP1 PUSH2 0x879 JUMP JUMPDEST PUSH1 0x0 SHR SWAP1 POP DUP1 PUSH1 0x2 PUSH1 0x0 PUSH1 0x5 SLOAD DUP2 MSTORE PUSH1 0x20 ADD SWAP1 DUP2 MSTORE PUSH1 0x20 ADD PUSH1 0x0 KECCAK256 PUSH1 0x1 ADD DUP2 SWAP1 SSTORE POP PUSH1 0x5 SLOAD PUSH1 0x2 PUSH1 0x0 PUSH1 0x5 SLOAD DUP2 MSTORE PUSH1 0x20 ADD SWAP1 DUP2 MSTORE PUSH1 0x20 ADD PUSH1 0x0 KECCAK256 PUSH1 0x0 ADD DUP2 SWAP1 SSTORE POP CALLER PUSH1 0x2 PUSH1 0x0 PUSH1 0x5 SLOAD DUP2 MSTORE PUSH1 0x20 ADD SWAP1 DUP2 MSTORE PUSH1 0x20 ADD PUSH1 0x0 KECCAK256 PUSH1 0x4 ADD PUSH1 0x0 PUSH2 0x100 EXP DUP2 SLOAD DUP2 PUSH20 0xFFFFFFFFFFFFFFFFFFFFFFFFFFFFFFFFFFFFFFFF MUL NOT AND SWAP1 DUP4 PUSH20 0xFFFFFFFFFFFFFFFFFFFFFFFFFFFFFFFFFFFFFFFF AND MUL OR SWAP1 SSTORE POP DUP3 PUSH1 0x2 PUSH1 0x0 PUSH1 0x5 SLOAD DUP2 MSTORE PUSH1 0x20 ADD SWAP1 DUP2 MSTORE PUSH1 0x20 ADD PUSH1 0x0 KECCAK256 PUSH1 0x3 ADD SWAP1 DUP1 MLOAD SWAP1 PUSH1 0x20 ADD SWAP1 PUSH2 0x226 SWAP3 SWAP2 SWAP1 PUSH2 0x727 JUMP JUMPDEST POP PUSH2 0x232 PUSH1 0x5 SLOAD PUSH2 0x724 JUMP JUMPDEST POP SWAP2 SWAP1 POP JUMP JUMPDEST PUSH1 0x1 ISZERO ISZERO PUSH1 0x1 PUSH1 0x0 CALLER PUSH20 0xFFFFFFFFFFFFFFFFFFFFFFFFFFFFFFFFFFFFFFFF AND PUSH20 0xFFFFFFFFFFFFFFFFFFFFFFFFFFFFFFFFFFFFFFFF AND DUP2 MSTORE PUSH1 0x20 ADD SWAP1 DUP2 MSTORE PUSH1 0x20 ADD PUSH1 0x0 KECCAK256 PUSH1 0x0 SWAP1 SLOAD SWAP1 PUSH2 0x100 EXP SWAP1 DIV PUSH1 0xFF AND ISZERO ISZERO EQ PUSH2 0x2CB JUMPI PUSH1 0x40 MLOAD PUSH32 0x8C379A000000000000000000000000000000000000000000000000000000000 DUP2 MSTORE PUSH1 0x4 ADD PUSH2 0x2C2 SWAP1 PUSH2 0xB11 JUMP JUMPDEST PUSH1 0x40 MLOAD DUP1 SWAP2 SUB SWAP1 REVERT JUMPDEST PUSH1 0x0 ISZERO ISZERO PUSH1 0x1 PUSH1 0x0 CALLER PUSH20 0xFFFFFFFFFFFFFFFFFFFFFFFFFFFFFFFFFFFFFFFF AND PUSH20 0xFFFFFFFFFFFFFFFFFFFFFFFFFFFFFFFFFFFFFFFF AND DUP2 MSTORE PUSH1 0x20 ADD SWAP1 DUP2 MSTORE PUSH1 0x20 ADD PUSH1 0x0 KECCAK256 PUSH1 0x0 SWAP1 SLOAD SWAP1 PUSH2 0x100 EXP SWAP1 POP POP POP CALLER PUSH20 0xFFFFFFFFFFFFFFFFFFFFFFFFFFFFFFFFFFFFFFFF AND PUSH2 0x8FC PUSH8 0xDE0B6B3A7640000 SWAP1 DUP2 ISZERO MUL SWAP1 PUSH1 0x40 MLOAD PUSH1 0x0 PUSH1 0x40 MLOAD DUP1 DUP4 SUB DUP2 DUP6 DUP9 DUP9 CALL SWAP4 POP POP POP POP ISZERO DUP1 ISZERO PUSH2 0x369 JUMPI RETURNDATASIZE PUSH1 0x0 DUP1 RETURNDATACOPY RETURNDATASIZE PUSH1 0x0 REVERT JUMPDEST POP JUMP JUMPDEST PUSH1 0x0 PUSH8 0xDE0B6B3A7640000 CALLVALUE EQ PUSH2 0x3B8 JUMPI PUSH1 0x40 MLOAD PUSH32 0x8C379A000000000000000000000000000000000000000000000000000000000 DUP2 MSTORE PUSH1 0x4 ADD PUSH2 0x3AF SWAP1 PUSH2 0xAF1 JUMP JUMPDEST PUSH1 0x40 MLOAD DUP1 SWAP2 SUB SWAP1 REVERT JUMPDEST PUSH1 0x0 ISZERO ISZERO PUSH1 0x1 PUSH1 0x0 CALLER PUSH20 0xFFFFFFFFFFFFFFFFFFFFFFFFFFFFFFFFFFFFFFFF AND PUSH20 0xFFFFFFFFFFFFFFFFFFFFFFFFFFFFFFFFFFFFFFFF AND DUP2 MSTORE PUSH1 0x20 ADD SWAP1 DUP2 MSTORE PUSH1 0x20 ADD PUSH1 0x0 KECCAK256 PUSH1 0x0 SWAP1 SLOAD SWAP1 PUSH2 0x100 EXP SWAP1 DIV PUSH1 0xFF AND ISZERO ISZERO EQ PUSH2 0x44B JUMPI PUSH1 0x40 MLOAD PUSH32 0x8C379A000000000000000000000000000000000000000000000000000000000 DUP2 MSTORE PUSH1 0x4 ADD PUSH2 0x442 SWAP1 PUSH2 0xAD1 JUMP JUMPDEST PUSH1 0x40 MLOAD DUP1 SWAP2 SUB SWAP1 REVERT JUMPDEST CALLER PUSH1 0x0 DUP1 PUSH1 0x4 SLOAD DUP2 MSTORE PUSH1 0x20 ADD SWAP1 DUP2 MSTORE PUSH1 0x20 ADD PUSH1 0x0 KECCAK256 PUSH1 0x0 PUSH2 0x100 EXP DUP2 SLOAD DUP2 PUSH20 0xFFFFFFFFFFFFFFFFFFFFFFFFFFFFFFFFFFFFFFFF MUL NOT AND SWAP1 DUP4 PUSH20 0xFFFFFFFFFFFFFFFFFFFFFFFFFFFFFFFFFFFFFFFF AND MUL OR SWAP1 SSTORE POP PUSH1 0x1 PUSH1 0x4 SLOAD PUSH2 0x4AD SWAP2 SWAP1 PUSH2 0xBE9 JUMP JUMPDEST PUSH1 0x4 DUP2 SWAP1 SSTORE POP PUSH1 0x1 PUSH1 0x4 SLOAD PUSH2 0x4C2 SWAP2 SWAP1 PUSH2 0xC3F JUMP JUMPDEST SWAP1 POP SWAP1 JUMP JUMPDEST PUSH1 0x1 ISZERO ISZERO PUSH1 0x2 PUSH1 0x0 DUP5 DUP2 MSTORE PUSH1 0x20 ADD SWAP1 DUP2 MSTORE PUSH1 0x20 ADD PUSH1 0x0 KECCAK256 PUSH1 0x2 ADD PUSH1 0x0 CALLER PUSH20 0xFFFFFFFFFFFFFFFFFFFFFFFFFFFFFFFFFFFFFFFF AND PUSH20 0xFFFFFFFFFFFFFFFFFFFFFFFFFFFFFFFFFFFFFFFF AND DUP2 MSTORE PUSH1 0x20 ADD SWAP1 DUP2 MSTORE PUSH1 0x20 ADD PUSH1 0x0 KECCAK256 PUSH1 0x0 SWAP1 SLOAD SWAP1 PUSH2 0x100 EXP SWAP1 DIV PUSH1 0xFF AND ISZERO ISZERO EQ PUSH2 0x56E JUMPI PUSH1 0x40 MLOAD PUSH32 0x8C379A000000000000000000000000000000000000000000000000000000000 DUP2 MSTORE PUSH1 0x4 ADD PUSH2 0x565 SWAP1 PUSH2 0xB31 JUMP JUMPDEST PUSH1 0x40 MLOAD DUP1 SWAP2 SUB SWAP1 REVERT JUMPDEST PUSH1 0x2 PUSH1 0x0 DUP4 DUP2 MSTORE PUSH1 0x20 ADD SWAP1 DUP2 MSTORE PUSH1 0x20 ADD PUSH1 0x0 KECCAK256 PUSH1 0x9 ADD SLOAD NUMBER LT PUSH2 0x5C6 JUMPI PUSH1 0x40 MLOAD PUSH32 0x8C379A000000000000000000000000000000000000000000000000000000000 DUP2 MSTORE PUSH1 0x4 ADD PUSH2 0x5BD SWAP1 PUSH2 0xAB1 JUMP JUMPDEST PUSH1 0x40 MLOAD DUP1 SWAP2 SUB SWAP1 REVERT JUMPDEST DUP1 ISZERO PUSH2 0x60E JUMPI PUSH1 0x1 PUSH1 0x2 PUSH1 0x0 DUP5 DUP2 MSTORE PUSH1 0x20 ADD SWAP1 DUP2 MSTORE PUSH1 0x20 ADD PUSH1 0x0 KECCAK256 PUSH1 0x7 ADD SLOAD PUSH2 0x5EF SWAP2 SWAP1 PUSH2 0xBE9 JUMP JUMPDEST PUSH1 0x2 PUSH1 0x0 DUP5 DUP2 MSTORE PUSH1 0x20 ADD SWAP1 DUP2 MSTORE PUSH1 0x20 ADD PUSH1 0x0 KECCAK256 PUSH1 0x7 ADD DUP2 SWAP1 SSTORE POP PUSH2 0x64C JUMP JUMPDEST PUSH1 0x1 PUSH1 0x2 PUSH1 0x0 DUP5 DUP2 MSTORE PUSH1 0x20 ADD SWAP1 DUP2 MSTORE PUSH1 0x20 ADD PUSH1 0x0 KECCAK256 PUSH1 0x8 ADD SLOAD PUSH2 0x631 SWAP2 SWAP1 PUSH2 0xBE9 JUMP JUMPDEST PUSH1 0x2 PUSH1 0x0 DUP5 DUP2 MSTORE PUSH1 0x20 ADD SWAP1 DUP2 MSTORE PUSH1 0x20 ADD PUSH1 0x0 KECCAK256 PUSH1 0x8 ADD DUP2 SWAP1 SSTORE POP JUMPDEST CALLER PUSH20 0xFFFFFFFFFFFFFFFFFFFFFFFFFFFFFFFFFFFFFFFF AND PUSH2 0x8FC PUSH1 0x2 PUSH1 0x0 DUP6 DUP2 MSTORE PUSH1 0x20 ADD SWAP1 DUP2 MSTORE PUSH1 0x20 ADD PUSH1 0x0 KECCAK256 PUSH1 0x5 ADD SLOAD PUSH8 0xDE0B6B3A7640000 PUSH2 0x690 SWAP2 SWAP1 PUSH2 0xBE9 JUMP JUMPDEST SWAP1 DUP2 ISZERO MUL SWAP1 PUSH1 0x40 MLOAD PUSH1 0x0 PUSH1 0x40 MLOAD DUP1 DUP4 SUB DUP2 DUP6 DUP9 DUP9 CALL SWAP4 POP POP POP POP ISZERO DUP1 ISZERO PUSH2 0x6BB JUMPI RETURNDATASIZE PUSH1 0x0 DUP1 RETURNDATACOPY RETURNDATASIZE PUSH1 0x0 REVERT JUMPDEST POP PUSH1 0x0 ISZERO ISZERO PUSH1 0x2 PUSH1 0x0 DUP5 DUP2 MSTORE PUSH1 0x20 ADD SWAP1 DUP2 MSTORE PUSH1 0x20 ADD PUSH1 0x0 KECCAK256 PUSH1 0x2 ADD PUSH1 0x0 CALLER PUSH20 0xFFFFFFFFFFFFFFFFFFFFFFFFFFFFFFFFFFFFFFFF AND PUSH20 0xFFFFFFFFFFFFFFFFFFFFFFFFFFFFFFFFFFFFFFFF AND DUP2 MSTORE PUSH1 0x20 ADD SWAP1 DUP2 MSTORE PUSH1 0x20 ADD PUSH1 0x0 KECCAK256 PUSH1 0x0 SWAP1 SLOAD SWAP1 PUSH2 0x100 EXP SWAP1 POP POP POP POP POP JUMP JUMPDEST POP JUMP JUMPDEST DUP3 DUP1 SLOAD PUSH2 0x733 SWAP1 PUSH2 0xD07 JUMP JUMPDEST SWAP1 PUSH1 0x0 MSTORE PUSH1 0x20 PUSH1 0x0 KECCAK256 SWAP1 PUSH1 0x1F ADD PUSH1 0x20 SWAP1 DIV DUP2 ADD SWAP3 DUP3 PUSH2 0x755 JUMPI PUSH1 0x0 DUP6 SSTORE PUSH2 0x79C JUMP JUMPDEST DUP3 PUSH1 0x1F LT PUSH2 0x76E JUMPI DUP1 MLOAD PUSH1 0xFF NOT AND DUP4 DUP1 ADD OR DUP6 SSTORE PUSH2 0x79C JUMP JUMPDEST DUP3 DUP1 ADD PUSH1 0x1 ADD DUP6 SSTORE DUP3 ISZERO PUSH2 0x79C JUMPI SWAP2 DUP3 ADD JUMPDEST DUP3 DUP2 GT ISZERO PUSH2 0x79B JUMPI DUP3 MLOAD DUP3 SSTORE SWAP2 PUSH1 0x20 ADD SWAP2 SWAP1 PUSH1 0x1 ADD SWAP1 PUSH2 0x780 JUMP JUMPDEST JUMPDEST POP SWAP1 POP PUSH2 0x7A9 SWAP2 SWAP1 PUSH2 0x7AD JUMP JUMPDEST POP SWAP1 JUMP JUMPDEST JUMPDEST DUP1 DUP3 GT ISZERO PUSH2 0x7C6 JUMPI PUSH1 0x0 DUP2 PUSH1 0x0 SWAP1 SSTORE POP PUSH1 0x1 ADD PUSH2 0x7AE JUMP JUMPDEST POP SWAP1 JUMP JUMPDEST PUSH1 0x0 PUSH2 0x7DD PUSH2 0x7D8 DUP5 PUSH2 0xB91 JUMP JUMPDEST PUSH2 0xB6C JUMP JUMPDEST SWAP1 POP DUP3 DUP2 MSTORE PUSH1 0x20 DUP2 ADD DUP5 DUP5 DUP5 ADD GT ISZERO PUSH2 0x7F9 JUMPI PUSH2 0x7F8 PUSH2 0xE2A JUMP JUMPDEST JUMPDEST PUSH2 0x804 DUP5 DUP3 DUP6 PUSH2 0xCC5 JUMP JUMPDEST POP SWAP4 SWAP3 POP POP POP JUMP JUMPDEST PUSH1 0x0 DUP2 CALLDATALOAD SWAP1 POP PUSH2 0x81B DUP2 PUSH2 0xF70 JUMP JUMPDEST SWAP3 SWAP2 POP POP JUMP JUMPDEST PUSH1 0x0 DUP2 MLOAD SWAP1 POP PUSH2 0x830 DUP2 PUSH2 0xF87 JUMP JUMPDEST SWAP3 SWAP2 POP POP JUMP JUMPDEST PUSH1 0x0 DUP3 PUSH1 0x1F DUP4 ADD SLT PUSH2 0x84B JUMPI PUSH2 0x84A PUSH2 0xE25 JUMP JUMPDEST JUMPDEST DUP2 CALLDATALOAD PUSH2 0x85B DUP5 DUP3 PUSH1 0x20 DUP7 ADD PUSH2 0x7CA JUMP JUMPDEST SWAP2 POP POP SWAP3 SWAP2 POP POP JUMP JUMPDEST PUSH1 0x0 DUP2 CALLDATALOAD SWAP1 POP PUSH2 0x873 DUP2 PUSH2 0xF9E JUMP JUMPDEST SWAP3 SWAP2 POP POP JUMP JUMPDEST PUSH1 0x0 PUSH1 0x20 DUP3 DUP5 SUB SLT ISZERO PUSH2 0x88F JUMPI PUSH2 0x88E PUSH2 0xE34 JUMP JUMPDEST JUMPDEST PUSH1 0x0 PUSH2 0x89D DUP5 DUP3 DUP6 ADD PUSH2 0x821 JUMP JUMPDEST SWAP2 POP POP SWAP3 SWAP2 POP POP JUMP JUMPDEST PUSH1 0x0 PUSH1 0x20 DUP3 DUP5 SUB SLT ISZERO PUSH2 0x8BC JUMPI PUSH2 0x8BB PUSH2 0xE34 JUMP JUMPDEST JUMPDEST PUSH1 0x0 DUP3 ADD CALLDATALOAD PUSH8 0xFFFFFFFFFFFFFFFF DUP2 GT ISZERO PUSH2 0x8DA JUMPI PUSH2 0x8D9 PUSH2 0xE2F JUMP JUMPDEST JUMPDEST PUSH2 0x8E6 DUP5 DUP3 DUP6 ADD PUSH2 0x836 JUMP JUMPDEST SWAP2 POP POP SWAP3 SWAP2 POP POP JUMP JUMPDEST PUSH1 0x0 DUP1 PUSH1 0x40 DUP4 DUP6 SUB SLT ISZERO PUSH2 0x906 JUMPI PUSH2 0x905 PUSH2 0xE34 JUMP JUMPDEST JUMPDEST PUSH1 0x0 PUSH2 0x914 DUP6 DUP3 DUP7 ADD PUSH2 0x864 JUMP JUMPDEST SWAP3 POP POP PUSH1 0x20 PUSH2 0x925 DUP6 DUP3 DUP7 ADD PUSH2 0x80C JUMP JUMPDEST SWAP2 POP POP SWAP3 POP SWAP3 SWAP1 POP JUMP JUMPDEST PUSH2 0x940 PUSH2 0x93B DUP3 PUSH2 0xC73 JUMP JUMPDEST PUSH2 0xD6A JUMP JUMPDEST DUP3 MSTORE POP POP JUMP JUMPDEST PUSH1 0x0 PUSH2 0x951 DUP3 PUSH2 0xBC2 JUMP JUMPDEST PUSH2 0x95B DUP2 DUP6 PUSH2 0xBCD JUMP JUMPDEST SWAP4 POP PUSH2 0x96B DUP2 DUP6 PUSH1 0x20 DUP7 ADD PUSH2 0xCD4 JUMP JUMPDEST DUP1 DUP5 ADD SWAP2 POP POP SWAP3 SWAP2 POP POP JUMP JUMPDEST PUSH1 0x0 PUSH2 0x984 PUSH1 0x11 DUP4 PUSH2 0xBD8 JUMP JUMPDEST SWAP2 POP PUSH2 0x98F DUP3 PUSH2 0xE57 JUMP JUMPDEST PUSH1 0x20 DUP3 ADD SWAP1 POP SWAP2 SWAP1 POP JUMP JUMPDEST PUSH1 0x0 PUSH2 0x9A7 PUSH1 0x12 DUP4 PUSH2 0xBD8 JUMP JUMPDEST SWAP2 POP PUSH2 0x9B2 DUP3 PUSH2 0xE80 JUMP JUMPDEST PUSH1 0x20 DUP3 ADD SWAP1 POP SWAP2 SWAP1 POP JUMP JUMPDEST PUSH1 0x0 PUSH2 0x9CA PUSH1 0x28 DUP4 PUSH2 0xBD8 JUMP JUMPDEST SWAP2 POP PUSH2 0x9D5 DUP3 PUSH2 0xEA9 JUMP JUMPDEST PUSH1 0x40 DUP3 ADD SWAP1 POP SWAP2 SWAP1 POP JUMP JUMPDEST PUSH1 0x0 PUSH2 0x9ED PUSH1 0xE DUP4 PUSH2 0xBD8 JUMP JUMPDEST SWAP2 POP PUSH2 0x9F8 DUP3 PUSH2 0xEF8 JUMP JUMPDEST PUSH1 0x20 DUP3 ADD SWAP1 POP SWAP2 SWAP1 POP JUMP JUMPDEST PUSH1 0x0 PUSH2 0xA10 PUSH1 0x21 DUP4 PUSH2 0xBD8 JUMP JUMPDEST SWAP2 POP PUSH2 0xA1B DUP3 PUSH2 0xF21 JUMP JUMPDEST PUSH1 0x40 DUP3 ADD SWAP1 POP SWAP2 SWAP1 POP JUMP JUMPDEST PUSH2 0xA2F DUP2 PUSH2 0xCBB JUMP JUMPDEST DUP3 MSTORE POP POP JUMP JUMPDEST PUSH2 0xA46 PUSH2 0xA41 DUP3 PUSH2 0xCBB JUMP JUMPDEST PUSH2 0xD8E JUMP JUMPDEST DUP3 MSTORE POP POP JUMP JUMPDEST PUSH1 0x0 PUSH2 0xA58 DUP3 DUP5 PUSH2 0x946 JUMP JUMPDEST SWAP2 POP DUP2 SWAP1 POP SWAP3 SWAP2 POP POP JUMP JUMPDEST PUSH1 0x0 PUSH2 0xA6F DUP3 DUP8 PUSH2 0xA35 JUMP JUMPDEST PUSH1 0x20 DUP3 ADD SWAP2 POP PUSH2 0xA7F DUP3 DUP7 PUSH2 0xA35 JUMP JUMPDEST PUSH1 0x20 DUP3 ADD SWAP2 POP PUSH2 0xA8F DUP3 DUP6 PUSH2 0x92F JUMP JUMPDEST PUSH1 0x14 DUP3 ADD SWAP2 POP PUSH2 0xA9F DUP3 DUP5 PUSH2 0xA35 JUMP JUMPDEST PUSH1 0x20 DUP3 ADD SWAP2 POP DUP2 SWAP1 POP SWAP6 SWAP5 POP POP POP POP POP JUMP JUMPDEST PUSH1 0x0 PUSH1 0x20 DUP3 ADD SWAP1 POP DUP2 DUP2 SUB PUSH1 0x0 DUP4 ADD MSTORE PUSH2 0xACA DUP2 PUSH2 0x977 JUMP JUMPDEST SWAP1 POP SWAP2 SWAP1 POP JUMP JUMPDEST PUSH1 0x0 PUSH1 0x20 DUP3 ADD SWAP1 POP DUP2 DUP2 SUB PUSH1 0x0 DUP4 ADD MSTORE PUSH2 0xAEA DUP2 PUSH2 0x99A JUMP JUMPDEST SWAP1 POP SWAP2 SWAP1 POP JUMP JUMPDEST PUSH1 0x0 PUSH1 0x20 DUP3 ADD SWAP1 POP DUP2 DUP2 SUB PUSH1 0x0 DUP4 ADD MSTORE PUSH2 0xB0A DUP2 PUSH2 0x9BD JUMP JUMPDEST SWAP1 POP SWAP2 SWAP1 POP JUMP JUMPDEST PUSH1 0x0 PUSH1 0x20 DUP3 ADD SWAP1 POP DUP2 DUP2 SUB PUSH1 0x0 DUP4 ADD MSTORE PUSH2 0xB2A DUP2 PUSH2 0x9E0 JUMP JUMPDEST SWAP1 POP SWAP2 SWAP1 POP JUMP JUMPDEST PUSH1 0x0 PUSH1 0x20 DUP3 ADD SWAP1 POP DUP2 DUP2 SUB PUSH1 0x0 DUP4 ADD MSTORE PUSH2 0xB4A DUP2 PUSH2 0xA03 JUMP JUMPDEST SWAP1 POP SWAP2 SWAP1 POP JUMP JUMPDEST PUSH1 0x0 PUSH1 0x20 DUP3 ADD SWAP1 POP PUSH2 0xB66 PUSH1 0x0 DUP4 ADD DUP5 PUSH2 0xA26 JUMP JUMPDEST SWAP3 SWAP2 POP POP JUMP JUMPDEST PUSH1 0x0 PUSH2 0xB76 PUSH2 0xB87 JUMP JUMPDEST SWAP1 POP PUSH2 0xB82 DUP3 DUP3 PUSH2 0xD39 JUMP JUMPDEST SWAP2 SWAP1 POP JUMP JUMPDEST PUSH1 0x0 PUSH1 0x40 MLOAD SWAP1 POP SWAP1 JUMP JUMPDEST PUSH1 0x0 PUSH8 0xFFFFFFFFFFFFFFFF DUP3 GT ISZERO PUSH2 0xBAC JUMPI PUSH2 0xBAB PUSH2 0xDF6 JUMP JUMPDEST JUMPDEST PUSH2 0xBB5 DUP3 PUSH2 0xE39 JUMP JUMPDEST SWAP1 POP PUSH1 0x20 DUP2 ADD SWAP1 POP SWAP2 SWAP1 POP JUMP JUMPDEST PUSH1 0x0 DUP2 MLOAD SWAP1 POP SWAP2 SWAP1 POP JUMP JUMPDEST PUSH1 0x0 DUP2 SWAP1 POP SWAP3 SWAP2 POP POP JUMP JUMPDEST PUSH1 0x0 DUP3 DUP3 MSTORE PUSH1 0x20 DUP3 ADD SWAP1 POP SWAP3 SWAP2 POP POP JUMP JUMPDEST PUSH1 0x0 PUSH2 0xBF4 DUP3 PUSH2 0xCBB JUMP JUMPDEST SWAP2 POP PUSH2 0xBFF DUP4 PUSH2 0xCBB JUMP JUMPDEST SWAP3 POP DUP3 PUSH32 0xFFFFFFFFFFFFFFFFFFFFFFFFFFFFFFFFFFFFFFFFFFFFFFFFFFFFFFFFFFFFFFFF SUB DUP3 GT ISZERO PUSH2 0xC34 JUMPI PUSH2 0xC33 PUSH2 0xD98 JUMP JUMPDEST JUMPDEST DUP3 DUP3 ADD SWAP1 POP SWAP3 SWAP2 POP POP JUMP JUMPDEST PUSH1 0x0 PUSH2 0xC4A DUP3 PUSH2 0xCBB JUMP JUMPDEST SWAP2 POP PUSH2 0xC55 DUP4 PUSH2 0xCBB JUMP JUMPDEST SWAP3 POP DUP3 DUP3 LT ISZERO PUSH2 0xC68 JUMPI PUSH2 0xC67 PUSH2 0xD98 JUMP JUMPDEST JUMPDEST DUP3 DUP3 SUB SWAP1 POP SWAP3 SWAP2 POP POP JUMP JUMPDEST PUSH1 0x0 PUSH2 0xC7E DUP3 PUSH2 0xC9B JUMP JUMPDEST SWAP1 POP SWAP2 SWAP1 POP JUMP JUMPDEST PUSH1 0x0 DUP2 ISZERO ISZERO SWAP1 POP SWAP2 SWAP1 POP JUMP JUMPDEST PUSH1 0x0 DUP2 SWAP1 POP SWAP2 SWAP1 POP JUMP JUMPDEST PUSH1 0x0 PUSH20 0xFFFFFFFFFFFFFFFFFFFFFFFFFFFFFFFFFFFFFFFF DUP3 AND SWAP1 POP SWAP2 SWAP1 POP JUMP JUMPDEST PUSH1 0x0 DUP2 SWAP1 POP SWAP2 SWAP1 POP JUMP JUMPDEST DUP3 DUP2 DUP4 CALLDATACOPY PUSH1 0x0 DUP4 DUP4 ADD MSTORE POP POP POP JUMP JUMPDEST PUSH1 0x0 JUMPDEST DUP4 DUP2 LT ISZERO PUSH2 0xCF2 JUMPI DUP1 DUP3 ADD MLOAD DUP2 DUP5 ADD MSTORE PUSH1 0x20 DUP2 ADD SWAP1 POP PUSH2 0xCD7 JUMP JUMPDEST DUP4 DUP2 GT ISZERO PUSH2 0xD01 JUMPI PUSH1 0x0 DUP5 DUP5 ADD MSTORE JUMPDEST POP POP POP POP JUMP JUMPDEST PUSH1 0x0 PUSH1 0x2 DUP3 DIV SWAP1 POP PUSH1 0x1 DUP3 AND DUP1 PUSH2 0xD1F JUMPI PUSH1 0x7F DUP3 AND SWAP2 POP JUMPDEST PUSH1 0x20 DUP3 LT DUP2 EQ ISZERO PUSH2 0xD33 JUMPI PUSH2 0xD32 PUSH2 0xDC7 JUMP JUMPDEST JUMPDEST POP SWAP2 SWAP1 POP JUMP JUMPDEST PUSH2 0xD42 DUP3 PUSH2 0xE39 JUMP JUMPDEST DUP2 ADD DUP2 DUP2 LT PUSH8 0xFFFFFFFFFFFFFFFF DUP3 GT OR ISZERO PUSH2 0xD61 JUMPI PUSH2 0xD60 PUSH2 0xDF6 JUMP JUMPDEST JUMPDEST DUP1 PUSH1 0x40 MSTORE POP POP POP JUMP JUMPDEST PUSH1 0x0 PUSH2 0xD75 DUP3 PUSH2 0xD7C JUMP JUMPDEST SWAP1 POP SWAP2 SWAP1 POP JUMP JUMPDEST PUSH1 0x0 PUSH2 0xD87 DUP3 PUSH2 0xE4A JUMP JUMPDEST SWAP1 POP SWAP2 SWAP1 POP JUMP JUMPDEST PUSH1 0x0 DUP2 SWAP1 POP SWAP2 SWAP1 POP JUMP JUMPDEST PUSH32 0x4E487B7100000000000000000000000000000000000000000000000000000000 PUSH1 0x0 MSTORE PUSH1 0x11 PUSH1 0x4 MSTORE PUSH1 0x24 PUSH1 0x0 REVERT JUMPDEST PUSH32 0x4E487B7100000000000000000000000000000000000000000000000000000000 PUSH1 0x0 MSTORE PUSH1 0x22 PUSH1 0x4 MSTORE PUSH1 0x24 PUSH1 0x0 REVERT JUMPDEST PUSH32 0x4E487B7100000000000000000000000000000000000000000000000000000000 PUSH1 0x0 MSTORE PUSH1 0x41 PUSH1 0x4 MSTORE PUSH1 0x24 PUSH1 0x0 REVERT JUMPDEST PUSH1 0x0 DUP1 REVERT JUMPDEST PUSH1 0x0 DUP1 REVERT JUMPDEST PUSH1 0x0 DUP1 REVERT JUMPDEST PUSH1 0x0 DUP1 REVERT JUMPDEST PUSH1 0x0 PUSH1 0x1F NOT PUSH1 0x1F DUP4 ADD AND SWAP1 POP SWAP2 SWAP1 POP JUMP JUMPDEST PUSH1 0x0 DUP2 PUSH1 0x60 SHL SWAP1 POP SWAP2 SWAP1 POP JUMP JUMPDEST PUSH32 0x566F74696E672068617320636C6F736564000000000000000000000000000000 PUSH1 0x0 DUP3 ADD MSTORE POP JUMP JUMPDEST PUSH32 0x416C7265616479207369676E6564207570210000000000000000000000000000 PUSH1 0x0 DUP3 ADD MSTORE POP JUMP JUMPDEST PUSH32 0x5369676E2D75702072656A65637465642120496E616465717561746520737461 PUSH1 0x0 DUP3 ADD MSTORE PUSH32 0x6B652076616C7565000000000000000000000000000000000000000000000000 PUSH1 0x20 DUP3 ADD MSTORE POP JUMP JUMPDEST PUSH32 0x4E6F74207369676E656420757021000000000000000000000000000000000000 PUSH1 0x0 DUP3 ADD MSTORE POP JUMP JUMPDEST PUSH32 0x4E6F7420612076616C696461746F7220666F7220746869732072657175657374 PUSH1 0x0 DUP3 ADD MSTORE PUSH32 0x2100000000000000000000000000000000000000000000000000000000000000 PUSH1 0x20 DUP3 ADD MSTORE POP JUMP JUMPDEST PUSH2 0xF79 DUP2 PUSH2 0xC85 JUMP JUMPDEST DUP2 EQ PUSH2 0xF84 JUMPI PUSH1 0x0 DUP1 REVERT JUMPDEST POP JUMP JUMPDEST PUSH2 0xF90 DUP2 PUSH2 0xC91 JUMP JUMPDEST DUP2 EQ PUSH2 0xF9B JUMPI PUSH1 0x0 DUP1 REVERT JUMPDEST POP JUMP JUMPDEST PUSH2 0xFA7 DUP2 PUSH2 0xCBB JUMP JUMPDEST DUP2 EQ PUSH2 0xFB2 JUMPI PUSH1 0x0 DUP1 REVERT JUMPDEST POP JUMP INVALID LOG2 PUSH5 0x6970667358 0x22 SLT KECCAK256 0x4E SWAP16 PUSH32 0x9B1048AF894A1D3D43E8D095368EAA3B7943B2747A33AF0765BE83489E64736F PUSH13 0x63430008070033000000000000 "
				},
				"gasEstimates": {
					"creation": {
						"codeDepositCost": "815000",
						"executionCost": "851",
						"totalCost": "815851"
					},
					"external": {
						"cancel_signup()": "infinite",
						"request_verification(string)": "infinite",
						"sign_up()": "infinite",
						"vote(uint256,bool)": "infinite"
					},
					"internal": {
						"chooseValidators(uint256)": "11"
					}
				},
				"methodIdentifiers": {
					"cancel_signup()": "c09f8ff6",
					"request_verification(string)": "969b1567",
					"sign_up()": "c4fb3337",
					"vote(uint256,bool)": "c9d27afe"
				}
			},
			"userdoc": {
				"kind": "user",
				"methods": {},
				"version": 1
			}
		}
	}
}