{
	"Desktop/EthCA/blockchain/EthCA.sol": {
		"EthCA": {
			"abi": [
				{
					"inputs": [],
					"name": "request_verification",
					"outputs": [
						{
							"internalType": "uint256",
							"name": "",
							"type": "uint256"
						}
					],
					"stateMutability": "nonpayable",
					"type": "function"
				}
			],
			"devdoc": {
				"kind": "dev",
				"methods": {},
				"version": 1
			},
			"evm": {
				"assembly": "    /* \"Desktop/EthCA/blockchain/EthCA.sol\":143:859  contract EthCA {... */\n  mstore(0x40, 0x80)\n  callvalue\n  dup1\n  iszero\n  tag_1\n  jumpi\n  0x00\n  dup1\n  revert\ntag_1:\n  pop\n  dataSize(sub_0)\n  dup1\n  dataOffset(sub_0)\n  0x00\n  codecopy\n  0x00\n  return\nstop\n\nsub_0: assembly {\n        /* \"Desktop/EthCA/blockchain/EthCA.sol\":143:859  contract EthCA {... */\n      mstore(0x40, 0x80)\n      callvalue\n      dup1\n      iszero\n      tag_1\n      jumpi\n      0x00\n      dup1\n      revert\n    tag_1:\n      pop\n      jumpi(tag_2, lt(calldatasize, 0x04))\n      shr(0xe0, calldataload(0x00))\n      dup1\n      0x37f37487\n      eq\n      tag_3\n      jumpi\n    tag_2:\n      0x00\n      dup1\n      revert\n        /* \"Desktop/EthCA/blockchain/EthCA.sol\":589:857  function request_verification() public returns (uint) {... */\n    tag_3:\n      tag_4\n      tag_5\n      jump\t// in\n    tag_4:\n      mload(0x40)\n      tag_6\n      swap2\n      swap1\n      tag_7\n      jump\t// in\n    tag_6:\n      mload(0x40)\n      dup1\n      swap2\n      sub\n      swap1\n      return\n    tag_5:\n        /* \"Desktop/EthCA/blockchain/EthCA.sol\":637:641  uint */\n      0x00\n        /* \"Desktop/EthCA/blockchain/EthCA.sol\":653:663  uint nonce */\n      dup1\n        /* \"Desktop/EthCA/blockchain/EthCA.sol\":671:754  sha256(abi.encodePacked(block.timestamp, block.difficulty, msg.sender, numsignups)) */\n      0x02\n        /* \"Desktop/EthCA/blockchain/EthCA.sol\":695:710  block.timestamp */\n      timestamp\n        /* \"Desktop/EthCA/blockchain/EthCA.sol\":712:728  block.difficulty */\n      difficulty\n        /* \"Desktop/EthCA/blockchain/EthCA.sol\":730:740  msg.sender */\n      caller\n        /* \"Desktop/EthCA/blockchain/EthCA.sol\":742:752  numsignups */\n      sload(0x02)\n        /* \"Desktop/EthCA/blockchain/EthCA.sol\":678:753  abi.encodePacked(block.timestamp, block.difficulty, msg.sender, numsignups) */\n      add(0x20, mload(0x40))\n      tag_9\n      swap5\n      swap4\n      swap3\n      swap2\n      swap1\n      tag_10\n      jump\t// in\n    tag_9:\n      mload(0x40)\n      0x20\n      dup2\n      dup4\n      sub\n      sub\n      dup2\n      mstore\n      swap1\n      0x40\n      mstore\n        /* \"Desktop/EthCA/blockchain/EthCA.sol\":671:754  sha256(abi.encodePacked(block.timestamp, block.difficulty, msg.sender, numsignups)) */\n      mload(0x40)\n      tag_11\n      swap2\n      swap1\n      tag_12\n      jump\t// in\n    tag_11:\n      0x20\n      mload(0x40)\n      dup1\n      dup4\n      sub\n      dup2\n      dup6\n      gas\n      staticcall\n      iszero\n      dup1\n      iszero\n      tag_14\n      jumpi\n      returndatasize\n      0x00\n      dup1\n      returndatacopy\n      revert(0x00, returndatasize)\n    tag_14:\n      pop\n      pop\n      pop\n      mload(0x40)\n      returndatasize\n      not(0x1f)\n      0x1f\n      dup3\n      add\n      and\n      dup3\n      add\n      dup1\n      0x40\n      mstore\n      pop\n      dup2\n      add\n      swap1\n      tag_15\n      swap2\n      swap1\n      tag_16\n      jump\t// in\n    tag_15:\n        /* \"Desktop/EthCA/blockchain/EthCA.sol\":666:755  uint(sha256(abi.encodePacked(block.timestamp, block.difficulty, msg.sender, numsignups))) */\n      0x00\n      shr\n        /* \"Desktop/EthCA/blockchain/EthCA.sol\":653:755  uint nonce = uint(sha256(abi.encodePacked(block.timestamp, block.difficulty, msg.sender, numsignups))) */\n      swap1\n      pop\n        /* \"Desktop/EthCA/blockchain/EthCA.sol\":795:800  nonce */\n      dup1\n        /* \"Desktop/EthCA/blockchain/EthCA.sol\":765:773  requests */\n      0x01\n        /* \"Desktop/EthCA/blockchain/EthCA.sol\":765:786  requests[numRequests] */\n      0x00\n        /* \"Desktop/EthCA/blockchain/EthCA.sol\":774:785  numRequests */\n      sload(0x03)\n        /* \"Desktop/EthCA/blockchain/EthCA.sol\":765:786  requests[numRequests] */\n      dup2\n      mstore\n      0x20\n      add\n      swap1\n      dup2\n      mstore\n      0x20\n      add\n      0x00\n      keccak256\n        /* \"Desktop/EthCA/blockchain/EthCA.sol\":765:792  requests[numRequests].nonce */\n      0x01\n      add\n        /* \"Desktop/EthCA/blockchain/EthCA.sol\":765:800  requests[numRequests].nonce = nonce */\n      dup2\n      swap1\n      sstore\n      pop\n        /* \"Desktop/EthCA/blockchain/EthCA.sol\":837:848  numRequests */\n      sload(0x03)\n        /* \"Desktop/EthCA/blockchain/EthCA.sol\":810:818  requests */\n      0x01\n        /* \"Desktop/EthCA/blockchain/EthCA.sol\":810:831  requests[numRequests] */\n      0x00\n        /* \"Desktop/EthCA/blockchain/EthCA.sol\":819:830  numRequests */\n      sload(0x03)\n        /* \"Desktop/EthCA/blockchain/EthCA.sol\":810:831  requests[numRequests] */\n      dup2\n      mstore\n      0x20\n      add\n      swap1\n      dup2\n      mstore\n      0x20\n      add\n      0x00\n      keccak256\n        /* \"Desktop/EthCA/blockchain/EthCA.sol\":810:834  requests[numRequests].id */\n      0x00\n      add\n        /* \"Desktop/EthCA/blockchain/EthCA.sol\":810:848  requests[numRequests].id = numRequests */\n      dup2\n      swap1\n      sstore\n      pop\n        /* \"Desktop/EthCA/blockchain/EthCA.sol\":643:857  {... */\n      pop\n        /* \"Desktop/EthCA/blockchain/EthCA.sol\":589:857  function request_verification() public returns (uint) {... */\n      swap1\n      jump\t// out\n        /* \"#utility.yul\":7:150   */\n    tag_18:\n        /* \"#utility.yul\":64:69   */\n      0x00\n        /* \"#utility.yul\":95:101   */\n      dup2\n        /* \"#utility.yul\":89:102   */\n      mload\n        /* \"#utility.yul\":80:102   */\n      swap1\n      pop\n        /* \"#utility.yul\":111:144   */\n      tag_20\n        /* \"#utility.yul\":138:143   */\n      dup2\n        /* \"#utility.yul\":111:144   */\n      tag_21\n      jump\t// in\n    tag_20:\n        /* \"#utility.yul\":7:150   */\n      swap3\n      swap2\n      pop\n      pop\n      jump\t// out\n        /* \"#utility.yul\":156:507   */\n    tag_16:\n        /* \"#utility.yul\":226:232   */\n      0x00\n        /* \"#utility.yul\":275:277   */\n      0x20\n        /* \"#utility.yul\":263:272   */\n      dup3\n        /* \"#utility.yul\":254:261   */\n      dup5\n        /* \"#utility.yul\":250:273   */\n      sub\n        /* \"#utility.yul\":246:278   */\n      slt\n        /* \"#utility.yul\":243:362   */\n      iszero\n      tag_23\n      jumpi\n        /* \"#utility.yul\":281:360   */\n      tag_24\n      tag_25\n      jump\t// in\n    tag_24:\n        /* \"#utility.yul\":243:362   */\n    tag_23:\n        /* \"#utility.yul\":401:402   */\n      0x00\n        /* \"#utility.yul\":426:490   */\n      tag_26\n        /* \"#utility.yul\":482:489   */\n      dup5\n        /* \"#utility.yul\":473:479   */\n      dup3\n        /* \"#utility.yul\":462:471   */\n      dup6\n        /* \"#utility.yul\":458:480   */\n      add\n        /* \"#utility.yul\":426:490   */\n      tag_18\n      jump\t// in\n    tag_26:\n        /* \"#utility.yul\":416:490   */\n      swap2\n      pop\n        /* \"#utility.yul\":372:500   */\n      pop\n        /* \"#utility.yul\":156:507   */\n      swap3\n      swap2\n      pop\n      pop\n      jump\t// out\n        /* \"#utility.yul\":513:670   */\n    tag_27:\n        /* \"#utility.yul\":618:663   */\n      tag_29\n        /* \"#utility.yul\":638:662   */\n      tag_30\n        /* \"#utility.yul\":656:661   */\n      dup3\n        /* \"#utility.yul\":638:662   */\n      tag_31\n      jump\t// in\n    tag_30:\n        /* \"#utility.yul\":618:663   */\n      tag_32\n      jump\t// in\n    tag_29:\n        /* \"#utility.yul\":613:616   */\n      dup3\n        /* \"#utility.yul\":606:664   */\n      mstore\n        /* \"#utility.yul\":513:670   */\n      pop\n      pop\n      jump\t// out\n        /* \"#utility.yul\":676:1049   */\n    tag_33:\n        /* \"#utility.yul\":780:783   */\n      0x00\n        /* \"#utility.yul\":808:846   */\n      tag_35\n        /* \"#utility.yul\":840:845   */\n      dup3\n        /* \"#utility.yul\":808:846   */\n      tag_36\n      jump\t// in\n    tag_35:\n        /* \"#utility.yul\":862:950   */\n      tag_37\n        /* \"#utility.yul\":943:949   */\n      dup2\n        /* \"#utility.yul\":938:941   */\n      dup6\n        /* \"#utility.yul\":862:950   */\n      tag_38\n      jump\t// in\n    tag_37:\n        /* \"#utility.yul\":855:950   */\n      swap4\n      pop\n        /* \"#utility.yul\":959:1011   */\n      tag_39\n        /* \"#utility.yul\":1004:1010   */\n      dup2\n        /* \"#utility.yul\":999:1002   */\n      dup6\n        /* \"#utility.yul\":992:996   */\n      0x20\n        /* \"#utility.yul\":985:990   */\n      dup7\n        /* \"#utility.yul\":981:997   */\n      add\n        /* \"#utility.yul\":959:1011   */\n      tag_40\n      jump\t// in\n    tag_39:\n        /* \"#utility.yul\":1036:1042   */\n      dup1\n        /* \"#utility.yul\":1031:1034   */\n      dup5\n        /* \"#utility.yul\":1027:1043   */\n      add\n        /* \"#utility.yul\":1020:1043   */\n      swap2\n      pop\n        /* \"#utility.yul\":784:1049   */\n      pop\n        /* \"#utility.yul\":676:1049   */\n      swap3\n      swap2\n      pop\n      pop\n      jump\t// out\n        /* \"#utility.yul\":1055:1173   */\n    tag_41:\n        /* \"#utility.yul\":1142:1166   */\n      tag_43\n        /* \"#utility.yul\":1160:1165   */\n      dup2\n        /* \"#utility.yul\":1142:1166   */\n      tag_44\n      jump\t// in\n    tag_43:\n        /* \"#utility.yul\":1137:1140   */\n      dup3\n        /* \"#utility.yul\":1130:1167   */\n      mstore\n        /* \"#utility.yul\":1055:1173   */\n      pop\n      pop\n      jump\t// out\n        /* \"#utility.yul\":1179:1336   */\n    tag_45:\n        /* \"#utility.yul\":1284:1329   */\n      tag_47\n        /* \"#utility.yul\":1304:1328   */\n      tag_48\n        /* \"#utility.yul\":1322:1327   */\n      dup3\n        /* \"#utility.yul\":1304:1328   */\n      tag_44\n      jump\t// in\n    tag_48:\n        /* \"#utility.yul\":1284:1329   */\n      tag_49\n      jump\t// in\n    tag_47:\n        /* \"#utility.yul\":1279:1282   */\n      dup3\n        /* \"#utility.yul\":1272:1330   */\n      mstore\n        /* \"#utility.yul\":1179:1336   */\n      pop\n      pop\n      jump\t// out\n        /* \"#utility.yul\":1342:1613   */\n    tag_12:\n        /* \"#utility.yul\":1472:1475   */\n      0x00\n        /* \"#utility.yul\":1494:1587   */\n      tag_51\n        /* \"#utility.yul\":1583:1586   */\n      dup3\n        /* \"#utility.yul\":1574:1580   */\n      dup5\n        /* \"#utility.yul\":1494:1587   */\n      tag_33\n      jump\t// in\n    tag_51:\n        /* \"#utility.yul\":1487:1587   */\n      swap2\n      pop\n        /* \"#utility.yul\":1604:1607   */\n      dup2\n        /* \"#utility.yul\":1597:1607   */\n      swap1\n      pop\n        /* \"#utility.yul\":1342:1613   */\n      swap3\n      swap2\n      pop\n      pop\n      jump\t// out\n        /* \"#utility.yul\":1619:2298   */\n    tag_10:\n        /* \"#utility.yul\":1815:1818   */\n      0x00\n        /* \"#utility.yul\":1830:1905   */\n      tag_53\n        /* \"#utility.yul\":1901:1904   */\n      dup3\n        /* \"#utility.yul\":1892:1898   */\n      dup8\n        /* \"#utility.yul\":1830:1905   */\n      tag_45\n      jump\t// in\n    tag_53:\n        /* \"#utility.yul\":1930:1932   */\n      0x20\n        /* \"#utility.yul\":1925:1928   */\n      dup3\n        /* \"#utility.yul\":1921:1933   */\n      add\n        /* \"#utility.yul\":1914:1933   */\n      swap2\n      pop\n        /* \"#utility.yul\":1943:2018   */\n      tag_54\n        /* \"#utility.yul\":2014:2017   */\n      dup3\n        /* \"#utility.yul\":2005:2011   */\n      dup7\n        /* \"#utility.yul\":1943:2018   */\n      tag_45\n      jump\t// in\n    tag_54:\n        /* \"#utility.yul\":2043:2045   */\n      0x20\n        /* \"#utility.yul\":2038:2041   */\n      dup3\n        /* \"#utility.yul\":2034:2046   */\n      add\n        /* \"#utility.yul\":2027:2046   */\n      swap2\n      pop\n        /* \"#utility.yul\":2056:2131   */\n      tag_55\n        /* \"#utility.yul\":2127:2130   */\n      dup3\n        /* \"#utility.yul\":2118:2124   */\n      dup6\n        /* \"#utility.yul\":2056:2131   */\n      tag_27\n      jump\t// in\n    tag_55:\n        /* \"#utility.yul\":2156:2158   */\n      0x14\n        /* \"#utility.yul\":2151:2154   */\n      dup3\n        /* \"#utility.yul\":2147:2159   */\n      add\n        /* \"#utility.yul\":2140:2159   */\n      swap2\n      pop\n        /* \"#utility.yul\":2169:2244   */\n      tag_56\n        /* \"#utility.yul\":2240:2243   */\n      dup3\n        /* \"#utility.yul\":2231:2237   */\n      dup5\n        /* \"#utility.yul\":2169:2244   */\n      tag_45\n      jump\t// in\n    tag_56:\n        /* \"#utility.yul\":2269:2271   */\n      0x20\n        /* \"#utility.yul\":2264:2267   */\n      dup3\n        /* \"#utility.yul\":2260:2272   */\n      add\n        /* \"#utility.yul\":2253:2272   */\n      swap2\n      pop\n        /* \"#utility.yul\":2289:2292   */\n      dup2\n        /* \"#utility.yul\":2282:2292   */\n      swap1\n      pop\n        /* \"#utility.yul\":1619:2298   */\n      swap6\n      swap5\n      pop\n      pop\n      pop\n      pop\n      pop\n      jump\t// out\n        /* \"#utility.yul\":2304:2526   */\n    tag_7:\n        /* \"#utility.yul\":2397:2401   */\n      0x00\n        /* \"#utility.yul\":2435:2437   */\n      0x20\n        /* \"#utility.yul\":2424:2433   */\n      dup3\n        /* \"#utility.yul\":2420:2438   */\n      add\n        /* \"#utility.yul\":2412:2438   */\n      swap1\n      pop\n        /* \"#utility.yul\":2448:2519   */\n      tag_58\n        /* \"#utility.yul\":2516:2517   */\n      0x00\n        /* \"#utility.yul\":2505:2514   */\n      dup4\n        /* \"#utility.yul\":2501:2518   */\n      add\n        /* \"#utility.yul\":2492:2498   */\n      dup5\n        /* \"#utility.yul\":2448:2519   */\n      tag_41\n      jump\t// in\n    tag_58:\n        /* \"#utility.yul\":2304:2526   */\n      swap3\n      swap2\n      pop\n      pop\n      jump\t// out\n        /* \"#utility.yul\":2613:2711   */\n    tag_36:\n        /* \"#utility.yul\":2664:2670   */\n      0x00\n        /* \"#utility.yul\":2698:2703   */\n      dup2\n        /* \"#utility.yul\":2692:2704   */\n      mload\n        /* \"#utility.yul\":2682:2704   */\n      swap1\n      pop\n        /* \"#utility.yul\":2613:2711   */\n      swap2\n      swap1\n      pop\n      jump\t// out\n        /* \"#utility.yul\":2717:2864   */\n    tag_38:\n        /* \"#utility.yul\":2818:2829   */\n      0x00\n        /* \"#utility.yul\":2855:2858   */\n      dup2\n        /* \"#utility.yul\":2840:2858   */\n      swap1\n      pop\n        /* \"#utility.yul\":2717:2864   */\n      swap3\n      swap2\n      pop\n      pop\n      jump\t// out\n        /* \"#utility.yul\":2870:2966   */\n    tag_31:\n        /* \"#utility.yul\":2907:2914   */\n      0x00\n        /* \"#utility.yul\":2936:2960   */\n      tag_64\n        /* \"#utility.yul\":2954:2959   */\n      dup3\n        /* \"#utility.yul\":2936:2960   */\n      tag_65\n      jump\t// in\n    tag_64:\n        /* \"#utility.yul\":2925:2960   */\n      swap1\n      pop\n        /* \"#utility.yul\":2870:2966   */\n      swap2\n      swap1\n      pop\n      jump\t// out\n        /* \"#utility.yul\":2972:3049   */\n    tag_66:\n        /* \"#utility.yul\":3009:3016   */\n      0x00\n        /* \"#utility.yul\":3038:3043   */\n      dup2\n        /* \"#utility.yul\":3027:3043   */\n      swap1\n      pop\n        /* \"#utility.yul\":2972:3049   */\n      swap2\n      swap1\n      pop\n      jump\t// out\n        /* \"#utility.yul\":3055:3181   */\n    tag_65:\n        /* \"#utility.yul\":3092:3099   */\n      0x00\n        /* \"#utility.yul\":3132:3174   */\n      0xffffffffffffffffffffffffffffffffffffffff\n        /* \"#utility.yul\":3125:3130   */\n      dup3\n        /* \"#utility.yul\":3121:3175   */\n      and\n        /* \"#utility.yul\":3110:3175   */\n      swap1\n      pop\n        /* \"#utility.yul\":3055:3181   */\n      swap2\n      swap1\n      pop\n      jump\t// out\n        /* \"#utility.yul\":3187:3264   */\n    tag_44:\n        /* \"#utility.yul\":3224:3231   */\n      0x00\n        /* \"#utility.yul\":3253:3258   */\n      dup2\n        /* \"#utility.yul\":3242:3258   */\n      swap1\n      pop\n        /* \"#utility.yul\":3187:3264   */\n      swap2\n      swap1\n      pop\n      jump\t// out\n        /* \"#utility.yul\":3270:3577   */\n    tag_40:\n        /* \"#utility.yul\":3338:3339   */\n      0x00\n        /* \"#utility.yul\":3348:3461   */\n    tag_71:\n        /* \"#utility.yul\":3362:3368   */\n      dup4\n        /* \"#utility.yul\":3359:3360   */\n      dup2\n        /* \"#utility.yul\":3356:3369   */\n      lt\n        /* \"#utility.yul\":3348:3461   */\n      iszero\n      tag_73\n      jumpi\n        /* \"#utility.yul\":3447:3448   */\n      dup1\n        /* \"#utility.yul\":3442:3445   */\n      dup3\n        /* \"#utility.yul\":3438:3449   */\n      add\n        /* \"#utility.yul\":3432:3450   */\n      mload\n        /* \"#utility.yul\":3428:3429   */\n      dup2\n        /* \"#utility.yul\":3423:3426   */\n      dup5\n        /* \"#utility.yul\":3419:3430   */\n      add\n        /* \"#utility.yul\":3412:3451   */\n      mstore\n        /* \"#utility.yul\":3384:3386   */\n      0x20\n        /* \"#utility.yul\":3381:3382   */\n      dup2\n        /* \"#utility.yul\":3377:3387   */\n      add\n        /* \"#utility.yul\":3372:3387   */\n      swap1\n      pop\n        /* \"#utility.yul\":3348:3461   */\n      jump(tag_71)\n    tag_73:\n        /* \"#utility.yul\":3479:3485   */\n      dup4\n        /* \"#utility.yul\":3476:3477   */\n      dup2\n        /* \"#utility.yul\":3473:3486   */\n      gt\n        /* \"#utility.yul\":3470:3571   */\n      iszero\n      tag_74\n      jumpi\n        /* \"#utility.yul\":3559:3560   */\n      0x00\n        /* \"#utility.yul\":3550:3556   */\n      dup5\n        /* \"#utility.yul\":3545:3548   */\n      dup5\n        /* \"#utility.yul\":3541:3557   */\n      add\n        /* \"#utility.yul\":3534:3561   */\n      mstore\n        /* \"#utility.yul\":3470:3571   */\n    tag_74:\n        /* \"#utility.yul\":3319:3577   */\n      pop\n        /* \"#utility.yul\":3270:3577   */\n      pop\n      pop\n      pop\n      jump\t// out\n        /* \"#utility.yul\":3583:3683   */\n    tag_32:\n        /* \"#utility.yul\":3622:3629   */\n      0x00\n        /* \"#utility.yul\":3651:3677   */\n      tag_76\n        /* \"#utility.yul\":3671:3676   */\n      dup3\n        /* \"#utility.yul\":3651:3677   */\n      tag_77\n      jump\t// in\n    tag_76:\n        /* \"#utility.yul\":3640:3677   */\n      swap1\n      pop\n        /* \"#utility.yul\":3583:3683   */\n      swap2\n      swap1\n      pop\n      jump\t// out\n        /* \"#utility.yul\":3689:3783   */\n    tag_77:\n        /* \"#utility.yul\":3728:3735   */\n      0x00\n        /* \"#utility.yul\":3757:3777   */\n      tag_79\n        /* \"#utility.yul\":3771:3776   */\n      dup3\n        /* \"#utility.yul\":3757:3777   */\n      tag_80\n      jump\t// in\n    tag_79:\n        /* \"#utility.yul\":3746:3777   */\n      swap1\n      pop\n        /* \"#utility.yul\":3689:3783   */\n      swap2\n      swap1\n      pop\n      jump\t// out\n        /* \"#utility.yul\":3789:3868   */\n    tag_49:\n        /* \"#utility.yul\":3828:3835   */\n      0x00\n        /* \"#utility.yul\":3857:3862   */\n      dup2\n        /* \"#utility.yul\":3846:3862   */\n      swap1\n      pop\n        /* \"#utility.yul\":3789:3868   */\n      swap2\n      swap1\n      pop\n      jump\t// out\n        /* \"#utility.yul\":3997:4114   */\n    tag_25:\n        /* \"#utility.yul\":4106:4107   */\n      0x00\n        /* \"#utility.yul\":4103:4104   */\n      dup1\n        /* \"#utility.yul\":4096:4108   */\n      revert\n        /* \"#utility.yul\":4120:4214   */\n    tag_80:\n        /* \"#utility.yul\":4153:4161   */\n      0x00\n        /* \"#utility.yul\":4201:4206   */\n      dup2\n        /* \"#utility.yul\":4197:4199   */\n      0x60\n        /* \"#utility.yul\":4193:4207   */\n      shl\n        /* \"#utility.yul\":4172:4207   */\n      swap1\n      pop\n        /* \"#utility.yul\":4120:4214   */\n      swap2\n      swap1\n      pop\n      jump\t// out\n        /* \"#utility.yul\":4220:4342   */\n    tag_21:\n        /* \"#utility.yul\":4293:4317   */\n      tag_87\n        /* \"#utility.yul\":4311:4316   */\n      dup2\n        /* \"#utility.yul\":4293:4317   */\n      tag_66\n      jump\t// in\n    tag_87:\n        /* \"#utility.yul\":4286:4291   */\n      dup2\n        /* \"#utility.yul\":4283:4318   */\n      eq\n        /* \"#utility.yul\":4273:4336   */\n      tag_88\n      jumpi\n        /* \"#utility.yul\":4332:4333   */\n      0x00\n        /* \"#utility.yul\":4329:4330   */\n      dup1\n        /* \"#utility.yul\":4322:4334   */\n      revert\n        /* \"#utility.yul\":4273:4336   */\n    tag_88:\n        /* \"#utility.yul\":4220:4342   */\n      pop\n      jump\t// out\n\n    auxdata: 0xa2646970667358221220be5aabed41751bc8c4085ae299ebc94cf908945d4ec891d7bd3cc8b2fee1df6a64736f6c63430008070033\n}\n",
				"bytecode": {
					"linkReferences": {},
					"object": "608060405234801561001057600080fd5b50610359806100206000396000f3fe608060405234801561001057600080fd5b506004361061002b5760003560e01c806337f3748714610030575b600080fd5b61003861004e565b6040516100459190610222565b60405180910390f35b600080600242443360025460405160200161006c94939291906101d4565b60405160208183030381529060405260405161008891906101bd565b602060405180830381855afa1580156100a5573d6000803e3d6000fd5b5050506040513d601f19601f820116820180604052508101906100c89190610122565b60001c90508060016000600354815260200190815260200160002060010181905550600354600160006003548152602001908152602001600020600001819055505090565b60008151905061011c8161030c565b92915050565b600060208284031215610138576101376102fa565b5b60006101468482850161010d565b91505092915050565b61016061015b82610253565b6102cc565b82525050565b60006101718261023d565b61017b8185610248565b935061018b818560208601610299565b80840191505092915050565b6101a08161028f565b82525050565b6101b76101b28261028f565b6102f0565b82525050565b60006101c98284610166565b915081905092915050565b60006101e082876101a6565b6020820191506101f082866101a6565b602082019150610200828561014f565b60148201915061021082846101a6565b60208201915081905095945050505050565b60006020820190506102376000830184610197565b92915050565b600081519050919050565b600081905092915050565b600061025e8261026f565b9050919050565b6000819050919050565b600073ffffffffffffffffffffffffffffffffffffffff82169050919050565b6000819050919050565b60005b838110156102b757808201518184015260208101905061029c565b838111156102c6576000848401525b50505050565b60006102d7826102de565b9050919050565b60006102e9826102ff565b9050919050565b6000819050919050565b600080fd5b60008160601b9050919050565b61031581610265565b811461032057600080fd5b5056fea2646970667358221220be5aabed41751bc8c4085ae299ebc94cf908945d4ec891d7bd3cc8b2fee1df6a64736f6c63430008070033",
					"opcodes": "PUSH1 0x80 PUSH1 0x40 MSTORE CALLVALUE DUP1 ISZERO PUSH2 0x10 JUMPI PUSH1 0x0 DUP1 REVERT JUMPDEST POP PUSH2 0x359 DUP1 PUSH2 0x20 PUSH1 0x0 CODECOPY PUSH1 0x0 RETURN INVALID PUSH1 0x80 PUSH1 0x40 MSTORE CALLVALUE DUP1 ISZERO PUSH2 0x10 JUMPI PUSH1 0x0 DUP1 REVERT JUMPDEST POP PUSH1 0x4 CALLDATASIZE LT PUSH2 0x2B JUMPI PUSH1 0x0 CALLDATALOAD PUSH1 0xE0 SHR DUP1 PUSH4 0x37F37487 EQ PUSH2 0x30 JUMPI JUMPDEST PUSH1 0x0 DUP1 REVERT JUMPDEST PUSH2 0x38 PUSH2 0x4E JUMP JUMPDEST PUSH1 0x40 MLOAD PUSH2 0x45 SWAP2 SWAP1 PUSH2 0x222 JUMP JUMPDEST PUSH1 0x40 MLOAD DUP1 SWAP2 SUB SWAP1 RETURN JUMPDEST PUSH1 0x0 DUP1 PUSH1 0x2 TIMESTAMP DIFFICULTY CALLER PUSH1 0x2 SLOAD PUSH1 0x40 MLOAD PUSH1 0x20 ADD PUSH2 0x6C SWAP5 SWAP4 SWAP3 SWAP2 SWAP1 PUSH2 0x1D4 JUMP JUMPDEST PUSH1 0x40 MLOAD PUSH1 0x20 DUP2 DUP4 SUB SUB DUP2 MSTORE SWAP1 PUSH1 0x40 MSTORE PUSH1 0x40 MLOAD PUSH2 0x88 SWAP2 SWAP1 PUSH2 0x1BD JUMP JUMPDEST PUSH1 0x20 PUSH1 0x40 MLOAD DUP1 DUP4 SUB DUP2 DUP6 GAS STATICCALL ISZERO DUP1 ISZERO PUSH2 0xA5 JUMPI RETURNDATASIZE PUSH1 0x0 DUP1 RETURNDATACOPY RETURNDATASIZE PUSH1 0x0 REVERT JUMPDEST POP POP POP PUSH1 0x40 MLOAD RETURNDATASIZE PUSH1 0x1F NOT PUSH1 0x1F DUP3 ADD AND DUP3 ADD DUP1 PUSH1 0x40 MSTORE POP DUP2 ADD SWAP1 PUSH2 0xC8 SWAP2 SWAP1 PUSH2 0x122 JUMP JUMPDEST PUSH1 0x0 SHR SWAP1 POP DUP1 PUSH1 0x1 PUSH1 0x0 PUSH1 0x3 SLOAD DUP2 MSTORE PUSH1 0x20 ADD SWAP1 DUP2 MSTORE PUSH1 0x20 ADD PUSH1 0x0 KECCAK256 PUSH1 0x1 ADD DUP2 SWAP1 SSTORE POP PUSH1 0x3 SLOAD PUSH1 0x1 PUSH1 0x0 PUSH1 0x3 SLOAD DUP2 MSTORE PUSH1 0x20 ADD SWAP1 DUP2 MSTORE PUSH1 0x20 ADD PUSH1 0x0 KECCAK256 PUSH1 0x0 ADD DUP2 SWAP1 SSTORE POP POP SWAP1 JUMP JUMPDEST PUSH1 0x0 DUP2 MLOAD SWAP1 POP PUSH2 0x11C DUP2 PUSH2 0x30C JUMP JUMPDEST SWAP3 SWAP2 POP POP JUMP JUMPDEST PUSH1 0x0 PUSH1 0x20 DUP3 DUP5 SUB SLT ISZERO PUSH2 0x138 JUMPI PUSH2 0x137 PUSH2 0x2FA JUMP JUMPDEST JUMPDEST PUSH1 0x0 PUSH2 0x146 DUP5 DUP3 DUP6 ADD PUSH2 0x10D JUMP JUMPDEST SWAP2 POP POP SWAP3 SWAP2 POP POP JUMP JUMPDEST PUSH2 0x160 PUSH2 0x15B DUP3 PUSH2 0x253 JUMP JUMPDEST PUSH2 0x2CC JUMP JUMPDEST DUP3 MSTORE POP POP JUMP JUMPDEST PUSH1 0x0 PUSH2 0x171 DUP3 PUSH2 0x23D JUMP JUMPDEST PUSH2 0x17B DUP2 DUP6 PUSH2 0x248 JUMP JUMPDEST SWAP4 POP PUSH2 0x18B DUP2 DUP6 PUSH1 0x20 DUP7 ADD PUSH2 0x299 JUMP JUMPDEST DUP1 DUP5 ADD SWAP2 POP POP SWAP3 SWAP2 POP POP JUMP JUMPDEST PUSH2 0x1A0 DUP2 PUSH2 0x28F JUMP JUMPDEST DUP3 MSTORE POP POP JUMP JUMPDEST PUSH2 0x1B7 PUSH2 0x1B2 DUP3 PUSH2 0x28F JUMP JUMPDEST PUSH2 0x2F0 JUMP JUMPDEST DUP3 MSTORE POP POP JUMP JUMPDEST PUSH1 0x0 PUSH2 0x1C9 DUP3 DUP5 PUSH2 0x166 JUMP JUMPDEST SWAP2 POP DUP2 SWAP1 POP SWAP3 SWAP2 POP POP JUMP JUMPDEST PUSH1 0x0 PUSH2 0x1E0 DUP3 DUP8 PUSH2 0x1A6 JUMP JUMPDEST PUSH1 0x20 DUP3 ADD SWAP2 POP PUSH2 0x1F0 DUP3 DUP7 PUSH2 0x1A6 JUMP JUMPDEST PUSH1 0x20 DUP3 ADD SWAP2 POP PUSH2 0x200 DUP3 DUP6 PUSH2 0x14F JUMP JUMPDEST PUSH1 0x14 DUP3 ADD SWAP2 POP PUSH2 0x210 DUP3 DUP5 PUSH2 0x1A6 JUMP JUMPDEST PUSH1 0x20 DUP3 ADD SWAP2 POP DUP2 SWAP1 POP SWAP6 SWAP5 POP POP POP POP POP JUMP JUMPDEST PUSH1 0x0 PUSH1 0x20 DUP3 ADD SWAP1 POP PUSH2 0x237 PUSH1 0x0 DUP4 ADD DUP5 PUSH2 0x197 JUMP JUMPDEST SWAP3 SWAP2 POP POP JUMP JUMPDEST PUSH1 0x0 DUP2 MLOAD SWAP1 POP SWAP2 SWAP1 POP JUMP JUMPDEST PUSH1 0x0 DUP2 SWAP1 POP SWAP3 SWAP2 POP POP JUMP JUMPDEST PUSH1 0x0 PUSH2 0x25E DUP3 PUSH2 0x26F JUMP JUMPDEST SWAP1 POP SWAP2 SWAP1 POP JUMP JUMPDEST PUSH1 0x0 DUP2 SWAP1 POP SWAP2 SWAP1 POP JUMP JUMPDEST PUSH1 0x0 PUSH20 0xFFFFFFFFFFFFFFFFFFFFFFFFFFFFFFFFFFFFFFFF DUP3 AND SWAP1 POP SWAP2 SWAP1 POP JUMP JUMPDEST PUSH1 0x0 DUP2 SWAP1 POP SWAP2 SWAP1 POP JUMP JUMPDEST PUSH1 0x0 JUMPDEST DUP4 DUP2 LT ISZERO PUSH2 0x2B7 JUMPI DUP1 DUP3 ADD MLOAD DUP2 DUP5 ADD MSTORE PUSH1 0x20 DUP2 ADD SWAP1 POP PUSH2 0x29C JUMP JUMPDEST DUP4 DUP2 GT ISZERO PUSH2 0x2C6 JUMPI PUSH1 0x0 DUP5 DUP5 ADD MSTORE JUMPDEST POP POP POP POP JUMP JUMPDEST PUSH1 0x0 PUSH2 0x2D7 DUP3 PUSH2 0x2DE JUMP JUMPDEST SWAP1 POP SWAP2 SWAP1 POP JUMP JUMPDEST PUSH1 0x0 PUSH2 0x2E9 DUP3 PUSH2 0x2FF JUMP JUMPDEST SWAP1 POP SWAP2 SWAP1 POP JUMP JUMPDEST PUSH1 0x0 DUP2 SWAP1 POP SWAP2 SWAP1 POP JUMP JUMPDEST PUSH1 0x0 DUP1 REVERT JUMPDEST PUSH1 0x0 DUP2 PUSH1 0x60 SHL SWAP1 POP SWAP2 SWAP1 POP JUMP JUMPDEST PUSH2 0x315 DUP2 PUSH2 0x265 JUMP JUMPDEST DUP2 EQ PUSH2 0x320 JUMPI PUSH1 0x0 DUP1 REVERT JUMPDEST POP JUMP INVALID LOG2 PUSH5 0x6970667358 0x22 SLT KECCAK256 0xBE GAS 0xAB 0xED COINBASE PUSH22 0x1BC8C4085AE299EBC94CF908945D4EC891D7BD3CC8B2 INVALID 0xE1 0xDF PUSH11 0x64736F6C63430008070033 "
				},
				"gasEstimates": {
					"creation": {
						"codeDepositCost": "171400",
						"executionCost": "214",
						"totalCost": "171614"
					},
					"external": {
						"request_verification()": "infinite"
					}
				},
				"methodIdentifiers": {
					"request_verification()": "37f37487"
				}
			},
			"userdoc": {
				"kind": "user",
				"methods": {},
				"version": 1
			}
		}
	}
}