{
	"Desktop/EthCA/blockchain/EthCA.sol": {
		"EthCA": {
			"abi": [
				{
					"inputs": [
						{
							"internalType": "uint256",
							"name": "pubkey1",
							"type": "uint256"
						},
						{
							"internalType": "uint256",
							"name": "pubkey2",
							"type": "uint256"
						},
						{
							"internalType": "uint256",
							"name": "pubkey3",
							"type": "uint256"
						}
					],
					"name": "request_verification",
					"outputs": [
						{
							"internalType": "uint256",
							"name": "",
							"type": "uint256"
						}
					],
					"stateMutability": "nonpayable",
					"type": "function"
				}
			],
			"devdoc": {
				"kind": "dev",
				"methods": {},
				"version": 1
			},
			"evm": {
				"assembly": "    /* \"Desktop/EthCA/blockchain/EthCA.sol\":110:404  contract EthCA {... */\n  mstore(0x40, 0x80)\n  callvalue\n  dup1\n  iszero\n  tag_1\n  jumpi\n  0x00\n  dup1\n  revert\ntag_1:\n  pop\n  dataSize(sub_0)\n  dup1\n  dataOffset(sub_0)\n  0x00\n  codecopy\n  0x00\n  return\nstop\n\nsub_0: assembly {\n        /* \"Desktop/EthCA/blockchain/EthCA.sol\":110:404  contract EthCA {... */\n      mstore(0x40, 0x80)\n      callvalue\n      dup1\n      iszero\n      tag_1\n      jumpi\n      0x00\n      dup1\n      revert\n    tag_1:\n      pop\n      jumpi(tag_2, lt(calldatasize, 0x04))\n      shr(0xe0, calldataload(0x00))\n      dup1\n      0x85dc3b14\n      eq\n      tag_3\n      jumpi\n    tag_2:\n      0x00\n      dup1\n      revert\n        /* \"Desktop/EthCA/blockchain/EthCA.sol\":300:402  function request_verification(uint pubkey1, uint pubkey2, uint pubkey3) public returns (uint) {... */\n    tag_3:\n      tag_4\n      0x04\n      dup1\n      calldatasize\n      sub\n      dup2\n      add\n      swap1\n      tag_5\n      swap2\n      swap1\n      tag_6\n      jump\t// in\n    tag_5:\n      tag_7\n      jump\t// in\n    tag_4:\n      mload(0x40)\n      tag_8\n      swap2\n      swap1\n      tag_9\n      jump\t// in\n    tag_8:\n      mload(0x40)\n      dup1\n      swap2\n      sub\n      swap1\n      return\n    tag_7:\n        /* \"Desktop/EthCA/blockchain/EthCA.sol\":388:392  uint */\n      0x00\n        /* \"Desktop/EthCA/blockchain/EthCA.sol\":300:402  function request_verification(uint pubkey1, uint pubkey2, uint pubkey3) public returns (uint) {... */\n      swap4\n      swap3\n      pop\n      pop\n      pop\n      jump\t// out\n        /* \"#utility.yul\":7:146   */\n    tag_12:\n        /* \"#utility.yul\":53:58   */\n      0x00\n        /* \"#utility.yul\":91:97   */\n      dup2\n        /* \"#utility.yul\":78:98   */\n      calldataload\n        /* \"#utility.yul\":69:98   */\n      swap1\n      pop\n        /* \"#utility.yul\":107:140   */\n      tag_14\n        /* \"#utility.yul\":134:139   */\n      dup2\n        /* \"#utility.yul\":107:140   */\n      tag_15\n      jump\t// in\n    tag_14:\n        /* \"#utility.yul\":7:146   */\n      swap3\n      swap2\n      pop\n      pop\n      jump\t// out\n        /* \"#utility.yul\":152:771   */\n    tag_6:\n        /* \"#utility.yul\":229:235   */\n      0x00\n        /* \"#utility.yul\":237:243   */\n      dup1\n        /* \"#utility.yul\":245:251   */\n      0x00\n        /* \"#utility.yul\":294:296   */\n      0x60\n        /* \"#utility.yul\":282:291   */\n      dup5\n        /* \"#utility.yul\":273:280   */\n      dup7\n        /* \"#utility.yul\":269:292   */\n      sub\n        /* \"#utility.yul\":265:297   */\n      slt\n        /* \"#utility.yul\":262:381   */\n      iszero\n      tag_17\n      jumpi\n        /* \"#utility.yul\":300:379   */\n      tag_18\n      tag_19\n      jump\t// in\n    tag_18:\n        /* \"#utility.yul\":262:381   */\n    tag_17:\n        /* \"#utility.yul\":420:421   */\n      0x00\n        /* \"#utility.yul\":445:498   */\n      tag_20\n        /* \"#utility.yul\":490:497   */\n      dup7\n        /* \"#utility.yul\":481:487   */\n      dup3\n        /* \"#utility.yul\":470:479   */\n      dup8\n        /* \"#utility.yul\":466:488   */\n      add\n        /* \"#utility.yul\":445:498   */\n      tag_12\n      jump\t// in\n    tag_20:\n        /* \"#utility.yul\":435:498   */\n      swap4\n      pop\n        /* \"#utility.yul\":391:508   */\n      pop\n        /* \"#utility.yul\":547:549   */\n      0x20\n        /* \"#utility.yul\":573:626   */\n      tag_21\n        /* \"#utility.yul\":618:625   */\n      dup7\n        /* \"#utility.yul\":609:615   */\n      dup3\n        /* \"#utility.yul\":598:607   */\n      dup8\n        /* \"#utility.yul\":594:616   */\n      add\n        /* \"#utility.yul\":573:626   */\n      tag_12\n      jump\t// in\n    tag_21:\n        /* \"#utility.yul\":563:626   */\n      swap3\n      pop\n        /* \"#utility.yul\":518:636   */\n      pop\n        /* \"#utility.yul\":675:677   */\n      0x40\n        /* \"#utility.yul\":701:754   */\n      tag_22\n        /* \"#utility.yul\":746:753   */\n      dup7\n        /* \"#utility.yul\":737:743   */\n      dup3\n        /* \"#utility.yul\":726:735   */\n      dup8\n        /* \"#utility.yul\":722:744   */\n      add\n        /* \"#utility.yul\":701:754   */\n      tag_12\n      jump\t// in\n    tag_22:\n        /* \"#utility.yul\":691:754   */\n      swap2\n      pop\n        /* \"#utility.yul\":646:764   */\n      pop\n        /* \"#utility.yul\":152:771   */\n      swap3\n      pop\n      swap3\n      pop\n      swap3\n      jump\t// out\n        /* \"#utility.yul\":777:895   */\n    tag_23:\n        /* \"#utility.yul\":864:888   */\n      tag_25\n        /* \"#utility.yul\":882:887   */\n      dup2\n        /* \"#utility.yul\":864:888   */\n      tag_26\n      jump\t// in\n    tag_25:\n        /* \"#utility.yul\":859:862   */\n      dup3\n        /* \"#utility.yul\":852:889   */\n      mstore\n        /* \"#utility.yul\":777:895   */\n      pop\n      pop\n      jump\t// out\n        /* \"#utility.yul\":901:1123   */\n    tag_9:\n        /* \"#utility.yul\":994:998   */\n      0x00\n        /* \"#utility.yul\":1032:1034   */\n      0x20\n        /* \"#utility.yul\":1021:1030   */\n      dup3\n        /* \"#utility.yul\":1017:1035   */\n      add\n        /* \"#utility.yul\":1009:1035   */\n      swap1\n      pop\n        /* \"#utility.yul\":1045:1116   */\n      tag_28\n        /* \"#utility.yul\":1113:1114   */\n      0x00\n        /* \"#utility.yul\":1102:1111   */\n      dup4\n        /* \"#utility.yul\":1098:1115   */\n      add\n        /* \"#utility.yul\":1089:1095   */\n      dup5\n        /* \"#utility.yul\":1045:1116   */\n      tag_23\n      jump\t// in\n    tag_28:\n        /* \"#utility.yul\":901:1123   */\n      swap3\n      swap2\n      pop\n      pop\n      jump\t// out\n        /* \"#utility.yul\":1210:1287   */\n    tag_26:\n        /* \"#utility.yul\":1247:1254   */\n      0x00\n        /* \"#utility.yul\":1276:1281   */\n      dup2\n        /* \"#utility.yul\":1265:1281   */\n      swap1\n      pop\n        /* \"#utility.yul\":1210:1287   */\n      swap2\n      swap1\n      pop\n      jump\t// out\n        /* \"#utility.yul\":1416:1533   */\n    tag_19:\n        /* \"#utility.yul\":1525:1526   */\n      0x00\n        /* \"#utility.yul\":1522:1523   */\n      dup1\n        /* \"#utility.yul\":1515:1527   */\n      revert\n        /* \"#utility.yul\":1539:1661   */\n    tag_15:\n        /* \"#utility.yul\":1612:1636   */\n      tag_36\n        /* \"#utility.yul\":1630:1635   */\n      dup2\n        /* \"#utility.yul\":1612:1636   */\n      tag_26\n      jump\t// in\n    tag_36:\n        /* \"#utility.yul\":1605:1610   */\n      dup2\n        /* \"#utility.yul\":1602:1637   */\n      eq\n        /* \"#utility.yul\":1592:1655   */\n      tag_37\n      jumpi\n        /* \"#utility.yul\":1651:1652   */\n      0x00\n        /* \"#utility.yul\":1648:1649   */\n      dup1\n        /* \"#utility.yul\":1641:1653   */\n      revert\n        /* \"#utility.yul\":1592:1655   */\n    tag_37:\n        /* \"#utility.yul\":1539:1661   */\n      pop\n      jump\t// out\n\n    auxdata: 0xa26469706673582212204dd9be51b53ec3ed21dc77a38c241b2b67557bbe5b08478a706ff990bbc9a07a64736f6c63430008070033\n}\n",
				"bytecode": {
					"linkReferences": {},
					"object": "608060405234801561001057600080fd5b50610157806100206000396000f3fe608060405234801561001057600080fd5b506004361061002b5760003560e01c806385dc3b1414610030575b600080fd5b61004a6004803603810190610045919061007e565b610060565b60405161005791906100e0565b60405180910390f35b60009392505050565b6000813590506100788161010a565b92915050565b60008060006060848603121561009757610096610105565b5b60006100a586828701610069565b93505060206100b686828701610069565b92505060406100c786828701610069565b9150509250925092565b6100da816100fb565b82525050565b60006020820190506100f560008301846100d1565b92915050565b6000819050919050565b600080fd5b610113816100fb565b811461011e57600080fd5b5056fea26469706673582212204dd9be51b53ec3ed21dc77a38c241b2b67557bbe5b08478a706ff990bbc9a07a64736f6c63430008070033",
					"opcodes": "PUSH1 0x80 PUSH1 0x40 MSTORE CALLVALUE DUP1 ISZERO PUSH2 0x10 JUMPI PUSH1 0x0 DUP1 REVERT JUMPDEST POP PUSH2 0x157 DUP1 PUSH2 0x20 PUSH1 0x0 CODECOPY PUSH1 0x0 RETURN INVALID PUSH1 0x80 PUSH1 0x40 MSTORE CALLVALUE DUP1 ISZERO PUSH2 0x10 JUMPI PUSH1 0x0 DUP1 REVERT JUMPDEST POP PUSH1 0x4 CALLDATASIZE LT PUSH2 0x2B JUMPI PUSH1 0x0 CALLDATALOAD PUSH1 0xE0 SHR DUP1 PUSH4 0x85DC3B14 EQ PUSH2 0x30 JUMPI JUMPDEST PUSH1 0x0 DUP1 REVERT JUMPDEST PUSH2 0x4A PUSH1 0x4 DUP1 CALLDATASIZE SUB DUP2 ADD SWAP1 PUSH2 0x45 SWAP2 SWAP1 PUSH2 0x7E JUMP JUMPDEST PUSH2 0x60 JUMP JUMPDEST PUSH1 0x40 MLOAD PUSH2 0x57 SWAP2 SWAP1 PUSH2 0xE0 JUMP JUMPDEST PUSH1 0x40 MLOAD DUP1 SWAP2 SUB SWAP1 RETURN JUMPDEST PUSH1 0x0 SWAP4 SWAP3 POP POP POP JUMP JUMPDEST PUSH1 0x0 DUP2 CALLDATALOAD SWAP1 POP PUSH2 0x78 DUP2 PUSH2 0x10A JUMP JUMPDEST SWAP3 SWAP2 POP POP JUMP JUMPDEST PUSH1 0x0 DUP1 PUSH1 0x0 PUSH1 0x60 DUP5 DUP7 SUB SLT ISZERO PUSH2 0x97 JUMPI PUSH2 0x96 PUSH2 0x105 JUMP JUMPDEST JUMPDEST PUSH1 0x0 PUSH2 0xA5 DUP7 DUP3 DUP8 ADD PUSH2 0x69 JUMP JUMPDEST SWAP4 POP POP PUSH1 0x20 PUSH2 0xB6 DUP7 DUP3 DUP8 ADD PUSH2 0x69 JUMP JUMPDEST SWAP3 POP POP PUSH1 0x40 PUSH2 0xC7 DUP7 DUP3 DUP8 ADD PUSH2 0x69 JUMP JUMPDEST SWAP2 POP POP SWAP3 POP SWAP3 POP SWAP3 JUMP JUMPDEST PUSH2 0xDA DUP2 PUSH2 0xFB JUMP JUMPDEST DUP3 MSTORE POP POP JUMP JUMPDEST PUSH1 0x0 PUSH1 0x20 DUP3 ADD SWAP1 POP PUSH2 0xF5 PUSH1 0x0 DUP4 ADD DUP5 PUSH2 0xD1 JUMP JUMPDEST SWAP3 SWAP2 POP POP JUMP JUMPDEST PUSH1 0x0 DUP2 SWAP1 POP SWAP2 SWAP1 POP JUMP JUMPDEST PUSH1 0x0 DUP1 REVERT JUMPDEST PUSH2 0x113 DUP2 PUSH2 0xFB JUMP JUMPDEST DUP2 EQ PUSH2 0x11E JUMPI PUSH1 0x0 DUP1 REVERT JUMPDEST POP JUMP INVALID LOG2 PUSH5 0x6970667358 0x22 SLT KECCAK256 0x4D 0xD9 0xBE MLOAD 0xB5 RETURNDATACOPY 0xC3 0xED 0x21 0xDC PUSH24 0xA38C241B2B67557BBE5B08478A706FF990BBC9A07A64736F PUSH13 0x63430008070033000000000000 "
				},
				"gasEstimates": {
					"creation": {
						"codeDepositCost": "68600",
						"executionCost": "117",
						"totalCost": "68717"
					},
					"external": {
						"request_verification(uint256,uint256,uint256)": "infinite"
					}
				},
				"methodIdentifiers": {
					"request_verification(uint256,uint256,uint256)": "85dc3b14"
				}
			},
			"userdoc": {
				"kind": "user",
				"methods": {},
				"version": 1
			}
		}
	}
}