{
	"Desktop/EthCA/blockchain/EthCA.sol": {
		"EthCA": {
			"abi": [
				{
					"inputs": [
						{
							"internalType": "string",
							"name": "domain",
							"type": "string"
						}
					],
					"name": "request_verification",
					"outputs": [
						{
							"internalType": "uint256",
							"name": "",
							"type": "uint256"
						}
					],
					"stateMutability": "nonpayable",
					"type": "function"
				}
			],
			"devdoc": {
				"kind": "dev",
				"methods": {},
				"version": 1
			},
			"evm": {
				"assembly": "    /* \"Desktop/EthCA/blockchain/EthCA.sol\":143:1000  contract EthCA {... */\n  mstore(0x40, 0x80)\n  callvalue\n  dup1\n  iszero\n  tag_1\n  jumpi\n  0x00\n  dup1\n  revert\ntag_1:\n  pop\n  dataSize(sub_0)\n  dup1\n  dataOffset(sub_0)\n  0x00\n  codecopy\n  0x00\n  return\nstop\n\nsub_0: assembly {\n        /* \"Desktop/EthCA/blockchain/EthCA.sol\":143:1000  contract EthCA {... */\n      mstore(0x40, 0x80)\n      callvalue\n      dup1\n      iszero\n      tag_1\n      jumpi\n      0x00\n      dup1\n      revert\n    tag_1:\n      pop\n      jumpi(tag_2, lt(calldatasize, 0x04))\n      shr(0xe0, calldataload(0x00))\n      dup1\n      0x969b1567\n      eq\n      tag_3\n      jumpi\n    tag_2:\n      0x00\n      dup1\n      revert\n        /* \"Desktop/EthCA/blockchain/EthCA.sol\":613:998  function request_verification(string memory domain) public returns (uint) {... */\n    tag_3:\n      tag_4\n      0x04\n      dup1\n      calldatasize\n      sub\n      dup2\n      add\n      swap1\n      tag_5\n      swap2\n      swap1\n      tag_6\n      jump\t// in\n    tag_5:\n      tag_7\n      jump\t// in\n    tag_4:\n      mload(0x40)\n      tag_8\n      swap2\n      swap1\n      tag_9\n      jump\t// in\n    tag_8:\n      mload(0x40)\n      dup1\n      swap2\n      sub\n      swap1\n      return\n    tag_7:\n        /* \"Desktop/EthCA/blockchain/EthCA.sol\":681:685  uint */\n      0x00\n        /* \"Desktop/EthCA/blockchain/EthCA.sol\":697:707  uint nonce */\n      dup1\n        /* \"Desktop/EthCA/blockchain/EthCA.sol\":715:798  sha256(abi.encodePacked(block.timestamp, block.difficulty, msg.sender, numsignups)) */\n      0x02\n        /* \"Desktop/EthCA/blockchain/EthCA.sol\":739:754  block.timestamp */\n      timestamp\n        /* \"Desktop/EthCA/blockchain/EthCA.sol\":756:772  block.difficulty */\n      difficulty\n        /* \"Desktop/EthCA/blockchain/EthCA.sol\":774:784  msg.sender */\n      caller\n        /* \"Desktop/EthCA/blockchain/EthCA.sol\":786:796  numsignups */\n      sload(0x02)\n        /* \"Desktop/EthCA/blockchain/EthCA.sol\":722:797  abi.encodePacked(block.timestamp, block.difficulty, msg.sender, numsignups) */\n      add(0x20, mload(0x40))\n      tag_11\n      swap5\n      swap4\n      swap3\n      swap2\n      swap1\n      tag_12\n      jump\t// in\n    tag_11:\n      mload(0x40)\n      0x20\n      dup2\n      dup4\n      sub\n      sub\n      dup2\n      mstore\n      swap1\n      0x40\n      mstore\n        /* \"Desktop/EthCA/blockchain/EthCA.sol\":715:798  sha256(abi.encodePacked(block.timestamp, block.difficulty, msg.sender, numsignups)) */\n      mload(0x40)\n      tag_13\n      swap2\n      swap1\n      tag_14\n      jump\t// in\n    tag_13:\n      0x20\n      mload(0x40)\n      dup1\n      dup4\n      sub\n      dup2\n      dup6\n      gas\n      staticcall\n      iszero\n      dup1\n      iszero\n      tag_16\n      jumpi\n      returndatasize\n      0x00\n      dup1\n      returndatacopy\n      revert(0x00, returndatasize)\n    tag_16:\n      pop\n      pop\n      pop\n      mload(0x40)\n      returndatasize\n      not(0x1f)\n      0x1f\n      dup3\n      add\n      and\n      dup3\n      add\n      dup1\n      0x40\n      mstore\n      pop\n      dup2\n      add\n      swap1\n      tag_17\n      swap2\n      swap1\n      tag_18\n      jump\t// in\n    tag_17:\n        /* \"Desktop/EthCA/blockchain/EthCA.sol\":710:799  uint(sha256(abi.encodePacked(block.timestamp, block.difficulty, msg.sender, numsignups))) */\n      0x00\n      shr\n        /* \"Desktop/EthCA/blockchain/EthCA.sol\":697:799  uint nonce = uint(sha256(abi.encodePacked(block.timestamp, block.difficulty, msg.sender, numsignups))) */\n      swap1\n      pop\n        /* \"Desktop/EthCA/blockchain/EthCA.sol\":839:844  nonce */\n      dup1\n        /* \"Desktop/EthCA/blockchain/EthCA.sol\":809:817  requests */\n      0x01\n        /* \"Desktop/EthCA/blockchain/EthCA.sol\":809:830  requests[numRequests] */\n      0x00\n        /* \"Desktop/EthCA/blockchain/EthCA.sol\":818:829  numRequests */\n      sload(0x03)\n        /* \"Desktop/EthCA/blockchain/EthCA.sol\":809:830  requests[numRequests] */\n      dup2\n      mstore\n      0x20\n      add\n      swap1\n      dup2\n      mstore\n      0x20\n      add\n      0x00\n      keccak256\n        /* \"Desktop/EthCA/blockchain/EthCA.sol\":809:836  requests[numRequests].nonce */\n      0x01\n      add\n        /* \"Desktop/EthCA/blockchain/EthCA.sol\":809:844  requests[numRequests].nonce = nonce */\n      dup2\n      swap1\n      sstore\n      pop\n        /* \"Desktop/EthCA/blockchain/EthCA.sol\":881:892  numRequests */\n      sload(0x03)\n        /* \"Desktop/EthCA/blockchain/EthCA.sol\":854:862  requests */\n      0x01\n        /* \"Desktop/EthCA/blockchain/EthCA.sol\":854:875  requests[numRequests] */\n      0x00\n        /* \"Desktop/EthCA/blockchain/EthCA.sol\":863:874  numRequests */\n      sload(0x03)\n        /* \"Desktop/EthCA/blockchain/EthCA.sol\":854:875  requests[numRequests] */\n      dup2\n      mstore\n      0x20\n      add\n      swap1\n      dup2\n      mstore\n      0x20\n      add\n      0x00\n      keccak256\n        /* \"Desktop/EthCA/blockchain/EthCA.sol\":854:878  requests[numRequests].id */\n      0x00\n      add\n        /* \"Desktop/EthCA/blockchain/EthCA.sol\":854:892  requests[numRequests].id = numRequests */\n      dup2\n      swap1\n      sstore\n      pop\n        /* \"Desktop/EthCA/blockchain/EthCA.sol\":933:943  msg.sender */\n      caller\n        /* \"Desktop/EthCA/blockchain/EthCA.sol\":902:910  requests */\n      0x01\n        /* \"Desktop/EthCA/blockchain/EthCA.sol\":902:923  requests[numRequests] */\n      0x00\n        /* \"Desktop/EthCA/blockchain/EthCA.sol\":911:922  numRequests */\n      sload(0x03)\n        /* \"Desktop/EthCA/blockchain/EthCA.sol\":902:923  requests[numRequests] */\n      dup2\n      mstore\n      0x20\n      add\n      swap1\n      dup2\n      mstore\n      0x20\n      add\n      0x00\n      keccak256\n        /* \"Desktop/EthCA/blockchain/EthCA.sol\":902:930  requests[numRequests].sender */\n      0x04\n      add\n      0x00\n        /* \"Desktop/EthCA/blockchain/EthCA.sol\":902:943  requests[numRequests].sender = msg.sender */\n      0x0100\n      exp\n      dup2\n      sload\n      dup2\n      0xffffffffffffffffffffffffffffffffffffffff\n      mul\n      not\n      and\n      swap1\n      dup4\n      0xffffffffffffffffffffffffffffffffffffffff\n      and\n      mul\n      or\n      swap1\n      sstore\n      pop\n        /* \"Desktop/EthCA/blockchain/EthCA.sol\":984:990  domain */\n      dup3\n        /* \"Desktop/EthCA/blockchain/EthCA.sol\":953:961  requests */\n      0x01\n        /* \"Desktop/EthCA/blockchain/EthCA.sol\":953:974  requests[numRequests] */\n      0x00\n        /* \"Desktop/EthCA/blockchain/EthCA.sol\":962:973  numRequests */\n      sload(0x03)\n        /* \"Desktop/EthCA/blockchain/EthCA.sol\":953:974  requests[numRequests] */\n      dup2\n      mstore\n      0x20\n      add\n      swap1\n      dup2\n      mstore\n      0x20\n      add\n      0x00\n      keccak256\n        /* \"Desktop/EthCA/blockchain/EthCA.sol\":953:981  requests[numRequests].domain */\n      0x03\n      add\n        /* \"Desktop/EthCA/blockchain/EthCA.sol\":953:990  requests[numRequests].domain = domain */\n      swap1\n      dup1\n      mload\n      swap1\n      0x20\n      add\n      swap1\n      tag_19\n      swap3\n      swap2\n      swap1\n      tag_20\n      jump\t// in\n    tag_19:\n      pop\n        /* \"Desktop/EthCA/blockchain/EthCA.sol\":687:998  {... */\n      pop\n        /* \"Desktop/EthCA/blockchain/EthCA.sol\":613:998  function request_verification(string memory domain) public returns (uint) {... */\n      swap2\n      swap1\n      pop\n      jump\t// out\n    tag_20:\n      dup3\n      dup1\n      sload\n      tag_21\n      swap1\n      tag_22\n      jump\t// in\n    tag_21:\n      swap1\n      0x00\n      mstore\n      keccak256(0x00, 0x20)\n      swap1\n      0x1f\n      add\n      0x20\n      swap1\n      div\n      dup2\n      add\n      swap3\n      dup3\n      tag_24\n      jumpi\n      0x00\n      dup6\n      sstore\n      jump(tag_23)\n    tag_24:\n      dup3\n      0x1f\n      lt\n      tag_25\n      jumpi\n      dup1\n      mload\n      not(0xff)\n      and\n      dup4\n      dup1\n      add\n      or\n      dup6\n      sstore\n      jump(tag_23)\n    tag_25:\n      dup3\n      dup1\n      add\n      0x01\n      add\n      dup6\n      sstore\n      dup3\n      iszero\n      tag_23\n      jumpi\n      swap2\n      dup3\n      add\n    tag_26:\n      dup3\n      dup2\n      gt\n      iszero\n      tag_27\n      jumpi\n      dup3\n      mload\n      dup3\n      sstore\n      swap2\n      0x20\n      add\n      swap2\n      swap1\n      0x01\n      add\n      swap1\n      jump(tag_26)\n    tag_27:\n    tag_23:\n      pop\n      swap1\n      pop\n      tag_28\n      swap2\n      swap1\n      tag_29\n      jump\t// in\n    tag_28:\n      pop\n      swap1\n      jump\t// out\n    tag_29:\n    tag_30:\n      dup1\n      dup3\n      gt\n      iszero\n      tag_31\n      jumpi\n      0x00\n      dup2\n      0x00\n      swap1\n      sstore\n      pop\n      0x01\n      add\n      jump(tag_30)\n    tag_31:\n      pop\n      swap1\n      jump\t// out\n        /* \"#utility.yul\":7:419   */\n    tag_33:\n        /* \"#utility.yul\":85:90   */\n      0x00\n        /* \"#utility.yul\":110:176   */\n      tag_35\n        /* \"#utility.yul\":126:175   */\n      tag_36\n        /* \"#utility.yul\":168:174   */\n      dup5\n        /* \"#utility.yul\":126:175   */\n      tag_37\n      jump\t// in\n    tag_36:\n        /* \"#utility.yul\":110:176   */\n      tag_38\n      jump\t// in\n    tag_35:\n        /* \"#utility.yul\":101:176   */\n      swap1\n      pop\n        /* \"#utility.yul\":199:205   */\n      dup3\n        /* \"#utility.yul\":192:197   */\n      dup2\n        /* \"#utility.yul\":185:206   */\n      mstore\n        /* \"#utility.yul\":237:241   */\n      0x20\n        /* \"#utility.yul\":230:235   */\n      dup2\n        /* \"#utility.yul\":226:242   */\n      add\n        /* \"#utility.yul\":275:278   */\n      dup5\n        /* \"#utility.yul\":266:272   */\n      dup5\n        /* \"#utility.yul\":261:264   */\n      dup5\n        /* \"#utility.yul\":257:273   */\n      add\n        /* \"#utility.yul\":254:279   */\n      gt\n        /* \"#utility.yul\":251:363   */\n      iszero\n      tag_39\n      jumpi\n        /* \"#utility.yul\":282:361   */\n      tag_40\n      tag_41\n      jump\t// in\n    tag_40:\n        /* \"#utility.yul\":251:363   */\n    tag_39:\n        /* \"#utility.yul\":372:413   */\n      tag_42\n        /* \"#utility.yul\":406:412   */\n      dup5\n        /* \"#utility.yul\":401:404   */\n      dup3\n        /* \"#utility.yul\":396:399   */\n      dup6\n        /* \"#utility.yul\":372:413   */\n      tag_43\n      jump\t// in\n    tag_42:\n        /* \"#utility.yul\":91:419   */\n      pop\n        /* \"#utility.yul\":7:419   */\n      swap4\n      swap3\n      pop\n      pop\n      pop\n      jump\t// out\n        /* \"#utility.yul\":425:568   */\n    tag_44:\n        /* \"#utility.yul\":482:487   */\n      0x00\n        /* \"#utility.yul\":513:519   */\n      dup2\n        /* \"#utility.yul\":507:520   */\n      mload\n        /* \"#utility.yul\":498:520   */\n      swap1\n      pop\n        /* \"#utility.yul\":529:562   */\n      tag_46\n        /* \"#utility.yul\":556:561   */\n      dup2\n        /* \"#utility.yul\":529:562   */\n      tag_47\n      jump\t// in\n    tag_46:\n        /* \"#utility.yul\":425:568   */\n      swap3\n      swap2\n      pop\n      pop\n      jump\t// out\n        /* \"#utility.yul\":588:928   */\n    tag_48:\n        /* \"#utility.yul\":644:649   */\n      0x00\n        /* \"#utility.yul\":693:696   */\n      dup3\n        /* \"#utility.yul\":686:690   */\n      0x1f\n        /* \"#utility.yul\":678:684   */\n      dup4\n        /* \"#utility.yul\":674:691   */\n      add\n        /* \"#utility.yul\":670:697   */\n      slt\n        /* \"#utility.yul\":660:782   */\n      tag_50\n      jumpi\n        /* \"#utility.yul\":701:780   */\n      tag_51\n      tag_52\n      jump\t// in\n    tag_51:\n        /* \"#utility.yul\":660:782   */\n    tag_50:\n        /* \"#utility.yul\":818:824   */\n      dup2\n        /* \"#utility.yul\":805:825   */\n      calldataload\n        /* \"#utility.yul\":843:922   */\n      tag_53\n        /* \"#utility.yul\":918:921   */\n      dup5\n        /* \"#utility.yul\":910:916   */\n      dup3\n        /* \"#utility.yul\":903:907   */\n      0x20\n        /* \"#utility.yul\":895:901   */\n      dup7\n        /* \"#utility.yul\":891:908   */\n      add\n        /* \"#utility.yul\":843:922   */\n      tag_33\n      jump\t// in\n    tag_53:\n        /* \"#utility.yul\":834:922   */\n      swap2\n      pop\n        /* \"#utility.yul\":650:928   */\n      pop\n        /* \"#utility.yul\":588:928   */\n      swap3\n      swap2\n      pop\n      pop\n      jump\t// out\n        /* \"#utility.yul\":934:1285   */\n    tag_18:\n        /* \"#utility.yul\":1004:1010   */\n      0x00\n        /* \"#utility.yul\":1053:1055   */\n      0x20\n        /* \"#utility.yul\":1041:1050   */\n      dup3\n        /* \"#utility.yul\":1032:1039   */\n      dup5\n        /* \"#utility.yul\":1028:1051   */\n      sub\n        /* \"#utility.yul\":1024:1056   */\n      slt\n        /* \"#utility.yul\":1021:1140   */\n      iszero\n      tag_55\n      jumpi\n        /* \"#utility.yul\":1059:1138   */\n      tag_56\n      tag_57\n      jump\t// in\n    tag_56:\n        /* \"#utility.yul\":1021:1140   */\n    tag_55:\n        /* \"#utility.yul\":1179:1180   */\n      0x00\n        /* \"#utility.yul\":1204:1268   */\n      tag_58\n        /* \"#utility.yul\":1260:1267   */\n      dup5\n        /* \"#utility.yul\":1251:1257   */\n      dup3\n        /* \"#utility.yul\":1240:1249   */\n      dup6\n        /* \"#utility.yul\":1236:1258   */\n      add\n        /* \"#utility.yul\":1204:1268   */\n      tag_44\n      jump\t// in\n    tag_58:\n        /* \"#utility.yul\":1194:1268   */\n      swap2\n      pop\n        /* \"#utility.yul\":1150:1278   */\n      pop\n        /* \"#utility.yul\":934:1285   */\n      swap3\n      swap2\n      pop\n      pop\n      jump\t// out\n        /* \"#utility.yul\":1291:1800   */\n    tag_6:\n        /* \"#utility.yul\":1360:1366   */\n      0x00\n        /* \"#utility.yul\":1409:1411   */\n      0x20\n        /* \"#utility.yul\":1397:1406   */\n      dup3\n        /* \"#utility.yul\":1388:1395   */\n      dup5\n        /* \"#utility.yul\":1384:1407   */\n      sub\n        /* \"#utility.yul\":1380:1412   */\n      slt\n        /* \"#utility.yul\":1377:1496   */\n      iszero\n      tag_60\n      jumpi\n        /* \"#utility.yul\":1415:1494   */\n      tag_61\n      tag_57\n      jump\t// in\n    tag_61:\n        /* \"#utility.yul\":1377:1496   */\n    tag_60:\n        /* \"#utility.yul\":1563:1564   */\n      0x00\n        /* \"#utility.yul\":1552:1561   */\n      dup3\n        /* \"#utility.yul\":1548:1565   */\n      add\n        /* \"#utility.yul\":1535:1566   */\n      calldataload\n        /* \"#utility.yul\":1593:1611   */\n      0xffffffffffffffff\n        /* \"#utility.yul\":1585:1591   */\n      dup2\n        /* \"#utility.yul\":1582:1612   */\n      gt\n        /* \"#utility.yul\":1579:1696   */\n      iszero\n      tag_62\n      jumpi\n        /* \"#utility.yul\":1615:1694   */\n      tag_63\n      tag_64\n      jump\t// in\n    tag_63:\n        /* \"#utility.yul\":1579:1696   */\n    tag_62:\n        /* \"#utility.yul\":1720:1783   */\n      tag_65\n        /* \"#utility.yul\":1775:1782   */\n      dup5\n        /* \"#utility.yul\":1766:1772   */\n      dup3\n        /* \"#utility.yul\":1755:1764   */\n      dup6\n        /* \"#utility.yul\":1751:1773   */\n      add\n        /* \"#utility.yul\":1720:1783   */\n      tag_48\n      jump\t// in\n    tag_65:\n        /* \"#utility.yul\":1710:1783   */\n      swap2\n      pop\n        /* \"#utility.yul\":1506:1793   */\n      pop\n        /* \"#utility.yul\":1291:1800   */\n      swap3\n      swap2\n      pop\n      pop\n      jump\t// out\n        /* \"#utility.yul\":1806:1963   */\n    tag_66:\n        /* \"#utility.yul\":1911:1956   */\n      tag_68\n        /* \"#utility.yul\":1931:1955   */\n      tag_69\n        /* \"#utility.yul\":1949:1954   */\n      dup3\n        /* \"#utility.yul\":1931:1955   */\n      tag_70\n      jump\t// in\n    tag_69:\n        /* \"#utility.yul\":1911:1956   */\n      tag_71\n      jump\t// in\n    tag_68:\n        /* \"#utility.yul\":1906:1909   */\n      dup3\n        /* \"#utility.yul\":1899:1957   */\n      mstore\n        /* \"#utility.yul\":1806:1963   */\n      pop\n      pop\n      jump\t// out\n        /* \"#utility.yul\":1969:2342   */\n    tag_72:\n        /* \"#utility.yul\":2073:2076   */\n      0x00\n        /* \"#utility.yul\":2101:2139   */\n      tag_74\n        /* \"#utility.yul\":2133:2138   */\n      dup3\n        /* \"#utility.yul\":2101:2139   */\n      tag_75\n      jump\t// in\n    tag_74:\n        /* \"#utility.yul\":2155:2243   */\n      tag_76\n        /* \"#utility.yul\":2236:2242   */\n      dup2\n        /* \"#utility.yul\":2231:2234   */\n      dup6\n        /* \"#utility.yul\":2155:2243   */\n      tag_77\n      jump\t// in\n    tag_76:\n        /* \"#utility.yul\":2148:2243   */\n      swap4\n      pop\n        /* \"#utility.yul\":2252:2304   */\n      tag_78\n        /* \"#utility.yul\":2297:2303   */\n      dup2\n        /* \"#utility.yul\":2292:2295   */\n      dup6\n        /* \"#utility.yul\":2285:2289   */\n      0x20\n        /* \"#utility.yul\":2278:2283   */\n      dup7\n        /* \"#utility.yul\":2274:2290   */\n      add\n        /* \"#utility.yul\":2252:2304   */\n      tag_79\n      jump\t// in\n    tag_78:\n        /* \"#utility.yul\":2329:2335   */\n      dup1\n        /* \"#utility.yul\":2324:2327   */\n      dup5\n        /* \"#utility.yul\":2320:2336   */\n      add\n        /* \"#utility.yul\":2313:2336   */\n      swap2\n      pop\n        /* \"#utility.yul\":2077:2342   */\n      pop\n        /* \"#utility.yul\":1969:2342   */\n      swap3\n      swap2\n      pop\n      pop\n      jump\t// out\n        /* \"#utility.yul\":2348:2466   */\n    tag_80:\n        /* \"#utility.yul\":2435:2459   */\n      tag_82\n        /* \"#utility.yul\":2453:2458   */\n      dup2\n        /* \"#utility.yul\":2435:2459   */\n      tag_83\n      jump\t// in\n    tag_82:\n        /* \"#utility.yul\":2430:2433   */\n      dup3\n        /* \"#utility.yul\":2423:2460   */\n      mstore\n        /* \"#utility.yul\":2348:2466   */\n      pop\n      pop\n      jump\t// out\n        /* \"#utility.yul\":2472:2629   */\n    tag_84:\n        /* \"#utility.yul\":2577:2622   */\n      tag_86\n        /* \"#utility.yul\":2597:2621   */\n      tag_87\n        /* \"#utility.yul\":2615:2620   */\n      dup3\n        /* \"#utility.yul\":2597:2621   */\n      tag_83\n      jump\t// in\n    tag_87:\n        /* \"#utility.yul\":2577:2622   */\n      tag_88\n      jump\t// in\n    tag_86:\n        /* \"#utility.yul\":2572:2575   */\n      dup3\n        /* \"#utility.yul\":2565:2623   */\n      mstore\n        /* \"#utility.yul\":2472:2629   */\n      pop\n      pop\n      jump\t// out\n        /* \"#utility.yul\":2635:2906   */\n    tag_14:\n        /* \"#utility.yul\":2765:2768   */\n      0x00\n        /* \"#utility.yul\":2787:2880   */\n      tag_90\n        /* \"#utility.yul\":2876:2879   */\n      dup3\n        /* \"#utility.yul\":2867:2873   */\n      dup5\n        /* \"#utility.yul\":2787:2880   */\n      tag_72\n      jump\t// in\n    tag_90:\n        /* \"#utility.yul\":2780:2880   */\n      swap2\n      pop\n        /* \"#utility.yul\":2897:2900   */\n      dup2\n        /* \"#utility.yul\":2890:2900   */\n      swap1\n      pop\n        /* \"#utility.yul\":2635:2906   */\n      swap3\n      swap2\n      pop\n      pop\n      jump\t// out\n        /* \"#utility.yul\":2912:3591   */\n    tag_12:\n        /* \"#utility.yul\":3108:3111   */\n      0x00\n        /* \"#utility.yul\":3123:3198   */\n      tag_92\n        /* \"#utility.yul\":3194:3197   */\n      dup3\n        /* \"#utility.yul\":3185:3191   */\n      dup8\n        /* \"#utility.yul\":3123:3198   */\n      tag_84\n      jump\t// in\n    tag_92:\n        /* \"#utility.yul\":3223:3225   */\n      0x20\n        /* \"#utility.yul\":3218:3221   */\n      dup3\n        /* \"#utility.yul\":3214:3226   */\n      add\n        /* \"#utility.yul\":3207:3226   */\n      swap2\n      pop\n        /* \"#utility.yul\":3236:3311   */\n      tag_93\n        /* \"#utility.yul\":3307:3310   */\n      dup3\n        /* \"#utility.yul\":3298:3304   */\n      dup7\n        /* \"#utility.yul\":3236:3311   */\n      tag_84\n      jump\t// in\n    tag_93:\n        /* \"#utility.yul\":3336:3338   */\n      0x20\n        /* \"#utility.yul\":3331:3334   */\n      dup3\n        /* \"#utility.yul\":3327:3339   */\n      add\n        /* \"#utility.yul\":3320:3339   */\n      swap2\n      pop\n        /* \"#utility.yul\":3349:3424   */\n      tag_94\n        /* \"#utility.yul\":3420:3423   */\n      dup3\n        /* \"#utility.yul\":3411:3417   */\n      dup6\n        /* \"#utility.yul\":3349:3424   */\n      tag_66\n      jump\t// in\n    tag_94:\n        /* \"#utility.yul\":3449:3451   */\n      0x14\n        /* \"#utility.yul\":3444:3447   */\n      dup3\n        /* \"#utility.yul\":3440:3452   */\n      add\n        /* \"#utility.yul\":3433:3452   */\n      swap2\n      pop\n        /* \"#utility.yul\":3462:3537   */\n      tag_95\n        /* \"#utility.yul\":3533:3536   */\n      dup3\n        /* \"#utility.yul\":3524:3530   */\n      dup5\n        /* \"#utility.yul\":3462:3537   */\n      tag_84\n      jump\t// in\n    tag_95:\n        /* \"#utility.yul\":3562:3564   */\n      0x20\n        /* \"#utility.yul\":3557:3560   */\n      dup3\n        /* \"#utility.yul\":3553:3565   */\n      add\n        /* \"#utility.yul\":3546:3565   */\n      swap2\n      pop\n        /* \"#utility.yul\":3582:3585   */\n      dup2\n        /* \"#utility.yul\":3575:3585   */\n      swap1\n      pop\n        /* \"#utility.yul\":2912:3591   */\n      swap6\n      swap5\n      pop\n      pop\n      pop\n      pop\n      pop\n      jump\t// out\n        /* \"#utility.yul\":3597:3819   */\n    tag_9:\n        /* \"#utility.yul\":3690:3694   */\n      0x00\n        /* \"#utility.yul\":3728:3730   */\n      0x20\n        /* \"#utility.yul\":3717:3726   */\n      dup3\n        /* \"#utility.yul\":3713:3731   */\n      add\n        /* \"#utility.yul\":3705:3731   */\n      swap1\n      pop\n        /* \"#utility.yul\":3741:3812   */\n      tag_97\n        /* \"#utility.yul\":3809:3810   */\n      0x00\n        /* \"#utility.yul\":3798:3807   */\n      dup4\n        /* \"#utility.yul\":3794:3811   */\n      add\n        /* \"#utility.yul\":3785:3791   */\n      dup5\n        /* \"#utility.yul\":3741:3812   */\n      tag_80\n      jump\t// in\n    tag_97:\n        /* \"#utility.yul\":3597:3819   */\n      swap3\n      swap2\n      pop\n      pop\n      jump\t// out\n        /* \"#utility.yul\":3825:3954   */\n    tag_38:\n        /* \"#utility.yul\":3859:3865   */\n      0x00\n        /* \"#utility.yul\":3886:3906   */\n      tag_99\n      tag_100\n      jump\t// in\n    tag_99:\n        /* \"#utility.yul\":3876:3906   */\n      swap1\n      pop\n        /* \"#utility.yul\":3915:3948   */\n      tag_101\n        /* \"#utility.yul\":3943:3947   */\n      dup3\n        /* \"#utility.yul\":3935:3941   */\n      dup3\n        /* \"#utility.yul\":3915:3948   */\n      tag_102\n      jump\t// in\n    tag_101:\n        /* \"#utility.yul\":3825:3954   */\n      swap2\n      swap1\n      pop\n      jump\t// out\n        /* \"#utility.yul\":3960:4035   */\n    tag_100:\n        /* \"#utility.yul\":3993:3999   */\n      0x00\n        /* \"#utility.yul\":4026:4028   */\n      0x40\n        /* \"#utility.yul\":4020:4029   */\n      mload\n        /* \"#utility.yul\":4010:4029   */\n      swap1\n      pop\n        /* \"#utility.yul\":3960:4035   */\n      swap1\n      jump\t// out\n        /* \"#utility.yul\":4041:4349   */\n    tag_37:\n        /* \"#utility.yul\":4103:4107   */\n      0x00\n        /* \"#utility.yul\":4193:4211   */\n      0xffffffffffffffff\n        /* \"#utility.yul\":4185:4191   */\n      dup3\n        /* \"#utility.yul\":4182:4212   */\n      gt\n        /* \"#utility.yul\":4179:4235   */\n      iszero\n      tag_105\n      jumpi\n        /* \"#utility.yul\":4215:4233   */\n      tag_106\n      tag_107\n      jump\t// in\n    tag_106:\n        /* \"#utility.yul\":4179:4235   */\n    tag_105:\n        /* \"#utility.yul\":4253:4282   */\n      tag_108\n        /* \"#utility.yul\":4275:4281   */\n      dup3\n        /* \"#utility.yul\":4253:4282   */\n      tag_109\n      jump\t// in\n    tag_108:\n        /* \"#utility.yul\":4245:4282   */\n      swap1\n      pop\n        /* \"#utility.yul\":4337:4341   */\n      0x20\n        /* \"#utility.yul\":4331:4335   */\n      dup2\n        /* \"#utility.yul\":4327:4342   */\n      add\n        /* \"#utility.yul\":4319:4342   */\n      swap1\n      pop\n        /* \"#utility.yul\":4041:4349   */\n      swap2\n      swap1\n      pop\n      jump\t// out\n        /* \"#utility.yul\":4355:4453   */\n    tag_75:\n        /* \"#utility.yul\":4406:4412   */\n      0x00\n        /* \"#utility.yul\":4440:4445   */\n      dup2\n        /* \"#utility.yul\":4434:4446   */\n      mload\n        /* \"#utility.yul\":4424:4446   */\n      swap1\n      pop\n        /* \"#utility.yul\":4355:4453   */\n      swap2\n      swap1\n      pop\n      jump\t// out\n        /* \"#utility.yul\":4459:4606   */\n    tag_77:\n        /* \"#utility.yul\":4560:4571   */\n      0x00\n        /* \"#utility.yul\":4597:4600   */\n      dup2\n        /* \"#utility.yul\":4582:4600   */\n      swap1\n      pop\n        /* \"#utility.yul\":4459:4606   */\n      swap3\n      swap2\n      pop\n      pop\n      jump\t// out\n        /* \"#utility.yul\":4612:4708   */\n    tag_70:\n        /* \"#utility.yul\":4649:4656   */\n      0x00\n        /* \"#utility.yul\":4678:4702   */\n      tag_113\n        /* \"#utility.yul\":4696:4701   */\n      dup3\n        /* \"#utility.yul\":4678:4702   */\n      tag_114\n      jump\t// in\n    tag_113:\n        /* \"#utility.yul\":4667:4702   */\n      swap1\n      pop\n        /* \"#utility.yul\":4612:4708   */\n      swap2\n      swap1\n      pop\n      jump\t// out\n        /* \"#utility.yul\":4714:4791   */\n    tag_115:\n        /* \"#utility.yul\":4751:4758   */\n      0x00\n        /* \"#utility.yul\":4780:4785   */\n      dup2\n        /* \"#utility.yul\":4769:4785   */\n      swap1\n      pop\n        /* \"#utility.yul\":4714:4791   */\n      swap2\n      swap1\n      pop\n      jump\t// out\n        /* \"#utility.yul\":4797:4923   */\n    tag_114:\n        /* \"#utility.yul\":4834:4841   */\n      0x00\n        /* \"#utility.yul\":4874:4916   */\n      0xffffffffffffffffffffffffffffffffffffffff\n        /* \"#utility.yul\":4867:4872   */\n      dup3\n        /* \"#utility.yul\":4863:4917   */\n      and\n        /* \"#utility.yul\":4852:4917   */\n      swap1\n      pop\n        /* \"#utility.yul\":4797:4923   */\n      swap2\n      swap1\n      pop\n      jump\t// out\n        /* \"#utility.yul\":4929:5006   */\n    tag_83:\n        /* \"#utility.yul\":4966:4973   */\n      0x00\n        /* \"#utility.yul\":4995:5000   */\n      dup2\n        /* \"#utility.yul\":4984:5000   */\n      swap1\n      pop\n        /* \"#utility.yul\":4929:5006   */\n      swap2\n      swap1\n      pop\n      jump\t// out\n        /* \"#utility.yul\":5012:5166   */\n    tag_43:\n        /* \"#utility.yul\":5096:5102   */\n      dup3\n        /* \"#utility.yul\":5091:5094   */\n      dup2\n        /* \"#utility.yul\":5086:5089   */\n      dup4\n        /* \"#utility.yul\":5073:5103   */\n      calldatacopy\n        /* \"#utility.yul\":5158:5159   */\n      0x00\n        /* \"#utility.yul\":5149:5155   */\n      dup4\n        /* \"#utility.yul\":5144:5147   */\n      dup4\n        /* \"#utility.yul\":5140:5156   */\n      add\n        /* \"#utility.yul\":5133:5160   */\n      mstore\n        /* \"#utility.yul\":5012:5166   */\n      pop\n      pop\n      pop\n      jump\t// out\n        /* \"#utility.yul\":5172:5479   */\n    tag_79:\n        /* \"#utility.yul\":5240:5241   */\n      0x00\n        /* \"#utility.yul\":5250:5363   */\n    tag_121:\n        /* \"#utility.yul\":5264:5270   */\n      dup4\n        /* \"#utility.yul\":5261:5262   */\n      dup2\n        /* \"#utility.yul\":5258:5271   */\n      lt\n        /* \"#utility.yul\":5250:5363   */\n      iszero\n      tag_123\n      jumpi\n        /* \"#utility.yul\":5349:5350   */\n      dup1\n        /* \"#utility.yul\":5344:5347   */\n      dup3\n        /* \"#utility.yul\":5340:5351   */\n      add\n        /* \"#utility.yul\":5334:5352   */\n      mload\n        /* \"#utility.yul\":5330:5331   */\n      dup2\n        /* \"#utility.yul\":5325:5328   */\n      dup5\n        /* \"#utility.yul\":5321:5332   */\n      add\n        /* \"#utility.yul\":5314:5353   */\n      mstore\n        /* \"#utility.yul\":5286:5288   */\n      0x20\n        /* \"#utility.yul\":5283:5284   */\n      dup2\n        /* \"#utility.yul\":5279:5289   */\n      add\n        /* \"#utility.yul\":5274:5289   */\n      swap1\n      pop\n        /* \"#utility.yul\":5250:5363   */\n      jump(tag_121)\n    tag_123:\n        /* \"#utility.yul\":5381:5387   */\n      dup4\n        /* \"#utility.yul\":5378:5379   */\n      dup2\n        /* \"#utility.yul\":5375:5388   */\n      gt\n        /* \"#utility.yul\":5372:5473   */\n      iszero\n      tag_124\n      jumpi\n        /* \"#utility.yul\":5461:5462   */\n      0x00\n        /* \"#utility.yul\":5452:5458   */\n      dup5\n        /* \"#utility.yul\":5447:5450   */\n      dup5\n        /* \"#utility.yul\":5443:5459   */\n      add\n        /* \"#utility.yul\":5436:5463   */\n      mstore\n        /* \"#utility.yul\":5372:5473   */\n    tag_124:\n        /* \"#utility.yul\":5221:5479   */\n      pop\n        /* \"#utility.yul\":5172:5479   */\n      pop\n      pop\n      pop\n      jump\t// out\n        /* \"#utility.yul\":5485:5805   */\n    tag_22:\n        /* \"#utility.yul\":5529:5535   */\n      0x00\n        /* \"#utility.yul\":5566:5567   */\n      0x02\n        /* \"#utility.yul\":5560:5564   */\n      dup3\n        /* \"#utility.yul\":5556:5568   */\n      div\n        /* \"#utility.yul\":5546:5568   */\n      swap1\n      pop\n        /* \"#utility.yul\":5613:5614   */\n      0x01\n        /* \"#utility.yul\":5607:5611   */\n      dup3\n        /* \"#utility.yul\":5603:5615   */\n      and\n        /* \"#utility.yul\":5634:5652   */\n      dup1\n        /* \"#utility.yul\":5624:5705   */\n      tag_126\n      jumpi\n        /* \"#utility.yul\":5690:5694   */\n      0x7f\n        /* \"#utility.yul\":5682:5688   */\n      dup3\n        /* \"#utility.yul\":5678:5695   */\n      and\n        /* \"#utility.yul\":5668:5695   */\n      swap2\n      pop\n        /* \"#utility.yul\":5624:5705   */\n    tag_126:\n        /* \"#utility.yul\":5752:5754   */\n      0x20\n        /* \"#utility.yul\":5744:5750   */\n      dup3\n        /* \"#utility.yul\":5741:5755   */\n      lt\n        /* \"#utility.yul\":5721:5739   */\n      dup2\n        /* \"#utility.yul\":5718:5756   */\n      eq\n        /* \"#utility.yul\":5715:5799   */\n      iszero\n      tag_127\n      jumpi\n        /* \"#utility.yul\":5771:5789   */\n      tag_128\n      tag_129\n      jump\t// in\n    tag_128:\n        /* \"#utility.yul\":5715:5799   */\n    tag_127:\n        /* \"#utility.yul\":5536:5805   */\n      pop\n        /* \"#utility.yul\":5485:5805   */\n      swap2\n      swap1\n      pop\n      jump\t// out\n        /* \"#utility.yul\":5811:6092   */\n    tag_102:\n        /* \"#utility.yul\":5894:5921   */\n      tag_131\n        /* \"#utility.yul\":5916:5920   */\n      dup3\n        /* \"#utility.yul\":5894:5921   */\n      tag_109\n      jump\t// in\n    tag_131:\n        /* \"#utility.yul\":5886:5892   */\n      dup2\n        /* \"#utility.yul\":5882:5922   */\n      add\n        /* \"#utility.yul\":6024:6030   */\n      dup2\n        /* \"#utility.yul\":6012:6022   */\n      dup2\n        /* \"#utility.yul\":6009:6031   */\n      lt\n        /* \"#utility.yul\":5988:6006   */\n      0xffffffffffffffff\n        /* \"#utility.yul\":5976:5986   */\n      dup3\n        /* \"#utility.yul\":5973:6007   */\n      gt\n        /* \"#utility.yul\":5970:6032   */\n      or\n        /* \"#utility.yul\":5967:6055   */\n      iszero\n      tag_132\n      jumpi\n        /* \"#utility.yul\":6035:6053   */\n      tag_133\n      tag_107\n      jump\t// in\n    tag_133:\n        /* \"#utility.yul\":5967:6055   */\n    tag_132:\n        /* \"#utility.yul\":6075:6085   */\n      dup1\n        /* \"#utility.yul\":6071:6073   */\n      0x40\n        /* \"#utility.yul\":6064:6086   */\n      mstore\n        /* \"#utility.yul\":5854:6092   */\n      pop\n        /* \"#utility.yul\":5811:6092   */\n      pop\n      pop\n      jump\t// out\n        /* \"#utility.yul\":6098:6198   */\n    tag_71:\n        /* \"#utility.yul\":6137:6144   */\n      0x00\n        /* \"#utility.yul\":6166:6192   */\n      tag_135\n        /* \"#utility.yul\":6186:6191   */\n      dup3\n        /* \"#utility.yul\":6166:6192   */\n      tag_136\n      jump\t// in\n    tag_135:\n        /* \"#utility.yul\":6155:6192   */\n      swap1\n      pop\n        /* \"#utility.yul\":6098:6198   */\n      swap2\n      swap1\n      pop\n      jump\t// out\n        /* \"#utility.yul\":6204:6298   */\n    tag_136:\n        /* \"#utility.yul\":6243:6250   */\n      0x00\n        /* \"#utility.yul\":6272:6292   */\n      tag_138\n        /* \"#utility.yul\":6286:6291   */\n      dup3\n        /* \"#utility.yul\":6272:6292   */\n      tag_139\n      jump\t// in\n    tag_138:\n        /* \"#utility.yul\":6261:6292   */\n      swap1\n      pop\n        /* \"#utility.yul\":6204:6298   */\n      swap2\n      swap1\n      pop\n      jump\t// out\n        /* \"#utility.yul\":6304:6383   */\n    tag_88:\n        /* \"#utility.yul\":6343:6350   */\n      0x00\n        /* \"#utility.yul\":6372:6377   */\n      dup2\n        /* \"#utility.yul\":6361:6377   */\n      swap1\n      pop\n        /* \"#utility.yul\":6304:6383   */\n      swap2\n      swap1\n      pop\n      jump\t// out\n        /* \"#utility.yul\":6389:6569   */\n    tag_129:\n        /* \"#utility.yul\":6437:6514   */\n      0x4e487b7100000000000000000000000000000000000000000000000000000000\n        /* \"#utility.yul\":6434:6435   */\n      0x00\n        /* \"#utility.yul\":6427:6515   */\n      mstore\n        /* \"#utility.yul\":6534:6538   */\n      0x22\n        /* \"#utility.yul\":6531:6532   */\n      0x04\n        /* \"#utility.yul\":6524:6539   */\n      mstore\n        /* \"#utility.yul\":6558:6562   */\n      0x24\n        /* \"#utility.yul\":6555:6556   */\n      0x00\n        /* \"#utility.yul\":6548:6563   */\n      revert\n        /* \"#utility.yul\":6575:6755   */\n    tag_107:\n        /* \"#utility.yul\":6623:6700   */\n      0x4e487b7100000000000000000000000000000000000000000000000000000000\n        /* \"#utility.yul\":6620:6621   */\n      0x00\n        /* \"#utility.yul\":6613:6701   */\n      mstore\n        /* \"#utility.yul\":6720:6724   */\n      0x41\n        /* \"#utility.yul\":6717:6718   */\n      0x04\n        /* \"#utility.yul\":6710:6725   */\n      mstore\n        /* \"#utility.yul\":6744:6748   */\n      0x24\n        /* \"#utility.yul\":6741:6742   */\n      0x00\n        /* \"#utility.yul\":6734:6749   */\n      revert\n        /* \"#utility.yul\":6761:6878   */\n    tag_52:\n        /* \"#utility.yul\":6870:6871   */\n      0x00\n        /* \"#utility.yul\":6867:6868   */\n      dup1\n        /* \"#utility.yul\":6860:6872   */\n      revert\n        /* \"#utility.yul\":6884:7001   */\n    tag_41:\n        /* \"#utility.yul\":6993:6994   */\n      0x00\n        /* \"#utility.yul\":6990:6991   */\n      dup1\n        /* \"#utility.yul\":6983:6995   */\n      revert\n        /* \"#utility.yul\":7007:7124   */\n    tag_64:\n        /* \"#utility.yul\":7116:7117   */\n      0x00\n        /* \"#utility.yul\":7113:7114   */\n      dup1\n        /* \"#utility.yul\":7106:7118   */\n      revert\n        /* \"#utility.yul\":7130:7247   */\n    tag_57:\n        /* \"#utility.yul\":7239:7240   */\n      0x00\n        /* \"#utility.yul\":7236:7237   */\n      dup1\n        /* \"#utility.yul\":7229:7241   */\n      revert\n        /* \"#utility.yul\":7253:7355   */\n    tag_109:\n        /* \"#utility.yul\":7294:7300   */\n      0x00\n        /* \"#utility.yul\":7345:7347   */\n      0x1f\n        /* \"#utility.yul\":7341:7348   */\n      not\n        /* \"#utility.yul\":7336:7338   */\n      0x1f\n        /* \"#utility.yul\":7329:7334   */\n      dup4\n        /* \"#utility.yul\":7325:7339   */\n      add\n        /* \"#utility.yul\":7321:7349   */\n      and\n        /* \"#utility.yul\":7311:7349   */\n      swap1\n      pop\n        /* \"#utility.yul\":7253:7355   */\n      swap2\n      swap1\n      pop\n      jump\t// out\n        /* \"#utility.yul\":7361:7455   */\n    tag_139:\n        /* \"#utility.yul\":7394:7402   */\n      0x00\n        /* \"#utility.yul\":7442:7447   */\n      dup2\n        /* \"#utility.yul\":7438:7440   */\n      0x60\n        /* \"#utility.yul\":7434:7448   */\n      shl\n        /* \"#utility.yul\":7413:7448   */\n      swap1\n      pop\n        /* \"#utility.yul\":7361:7455   */\n      swap2\n      swap1\n      pop\n      jump\t// out\n        /* \"#utility.yul\":7461:7583   */\n    tag_47:\n        /* \"#utility.yul\":7534:7558   */\n      tag_150\n        /* \"#utility.yul\":7552:7557   */\n      dup2\n        /* \"#utility.yul\":7534:7558   */\n      tag_115\n      jump\t// in\n    tag_150:\n        /* \"#utility.yul\":7527:7532   */\n      dup2\n        /* \"#utility.yul\":7524:7559   */\n      eq\n        /* \"#utility.yul\":7514:7577   */\n      tag_151\n      jumpi\n        /* \"#utility.yul\":7573:7574   */\n      0x00\n        /* \"#utility.yul\":7570:7571   */\n      dup1\n        /* \"#utility.yul\":7563:7575   */\n      revert\n        /* \"#utility.yul\":7514:7577   */\n    tag_151:\n        /* \"#utility.yul\":7461:7583   */\n      pop\n      jump\t// out\n\n    auxdata: 0xa26469706673582212205a9899ca35cb8ea13311047aa388391bfb708a0195d677a006b295db2155dc4064736f6c63430008070033\n}\n",
				"bytecode": {
					"linkReferences": {},
					"object": "608060405234801561001057600080fd5b50610693806100206000396000f3fe608060405234801561001057600080fd5b506004361061002b5760003560e01c8063969b156714610030575b600080fd5b61004a600480360381019061004591906102fa565b610060565b6040516100579190610416565b60405180910390f35b600080600242443360025460405160200161007e94939291906103c8565b60405160208183030381529060405260405161009a91906103b1565b602060405180830381855afa1580156100b7573d6000803e3d6000fd5b5050506040513d601f19601f820116820180604052508101906100da91906102cd565b60001c90508060016000600354815260200190815260200160002060010181905550600354600160006003548152602001908152602001600020600001819055503360016000600354815260200190815260200160002060040160006101000a81548173ffffffffffffffffffffffffffffffffffffffff021916908373ffffffffffffffffffffffffffffffffffffffff16021790555082600160006003548152602001908152602001600020600301908051906020019061019e9291906101a5565b5050919050565b8280546101b190610525565b90600052602060002090601f0160209004810192826101d3576000855561021a565b82601f106101ec57805160ff191683800117855561021a565b8280016001018555821561021a579182015b828111156102195782518255916020019190600101906101fe565b5b509050610227919061022b565b5090565b5b8082111561024457600081600090555060010161022c565b5090565b600061025b61025684610456565b610431565b90508281526020810184848401111561027757610276610619565b5b6102828482856104e3565b509392505050565b60008151905061029981610646565b92915050565b600082601f8301126102b4576102b3610614565b5b81356102c4848260208601610248565b91505092915050565b6000602082840312156102e3576102e2610623565b5b60006102f18482850161028a565b91505092915050565b6000602082840312156103105761030f610623565b5b600082013567ffffffffffffffff81111561032e5761032d61061e565b5b61033a8482850161029f565b91505092915050565b61035461034f8261049d565b610588565b82525050565b600061036582610487565b61036f8185610492565b935061037f8185602086016104f2565b80840191505092915050565b610394816104d9565b82525050565b6103ab6103a6826104d9565b6105ac565b82525050565b60006103bd828461035a565b915081905092915050565b60006103d4828761039a565b6020820191506103e4828661039a565b6020820191506103f48285610343565b601482019150610404828461039a565b60208201915081905095945050505050565b600060208201905061042b600083018461038b565b92915050565b600061043b61044c565b90506104478282610557565b919050565b6000604051905090565b600067ffffffffffffffff821115610471576104706105e5565b5b61047a82610628565b9050602081019050919050565b600081519050919050565b600081905092915050565b60006104a8826104b9565b9050919050565b6000819050919050565b600073ffffffffffffffffffffffffffffffffffffffff82169050919050565b6000819050919050565b82818337600083830152505050565b60005b838110156105105780820151818401526020810190506104f5565b8381111561051f576000848401525b50505050565b6000600282049050600182168061053d57607f821691505b60208210811415610551576105506105b6565b5b50919050565b61056082610628565b810181811067ffffffffffffffff8211171561057f5761057e6105e5565b5b80604052505050565b60006105938261059a565b9050919050565b60006105a582610639565b9050919050565b6000819050919050565b7f4e487b7100000000000000000000000000000000000000000000000000000000600052602260045260246000fd5b7f4e487b7100000000000000000000000000000000000000000000000000000000600052604160045260246000fd5b600080fd5b600080fd5b600080fd5b600080fd5b6000601f19601f8301169050919050565b60008160601b9050919050565b61064f816104af565b811461065a57600080fd5b5056fea26469706673582212205a9899ca35cb8ea13311047aa388391bfb708a0195d677a006b295db2155dc4064736f6c63430008070033",
					"opcodes": "PUSH1 0x80 PUSH1 0x40 MSTORE CALLVALUE DUP1 ISZERO PUSH2 0x10 JUMPI PUSH1 0x0 DUP1 REVERT JUMPDEST POP PUSH2 0x693 DUP1 PUSH2 0x20 PUSH1 0x0 CODECOPY PUSH1 0x0 RETURN INVALID PUSH1 0x80 PUSH1 0x40 MSTORE CALLVALUE DUP1 ISZERO PUSH2 0x10 JUMPI PUSH1 0x0 DUP1 REVERT JUMPDEST POP PUSH1 0x4 CALLDATASIZE LT PUSH2 0x2B JUMPI PUSH1 0x0 CALLDATALOAD PUSH1 0xE0 SHR DUP1 PUSH4 0x969B1567 EQ PUSH2 0x30 JUMPI JUMPDEST PUSH1 0x0 DUP1 REVERT JUMPDEST PUSH2 0x4A PUSH1 0x4 DUP1 CALLDATASIZE SUB DUP2 ADD SWAP1 PUSH2 0x45 SWAP2 SWAP1 PUSH2 0x2FA JUMP JUMPDEST PUSH2 0x60 JUMP JUMPDEST PUSH1 0x40 MLOAD PUSH2 0x57 SWAP2 SWAP1 PUSH2 0x416 JUMP JUMPDEST PUSH1 0x40 MLOAD DUP1 SWAP2 SUB SWAP1 RETURN JUMPDEST PUSH1 0x0 DUP1 PUSH1 0x2 TIMESTAMP DIFFICULTY CALLER PUSH1 0x2 SLOAD PUSH1 0x40 MLOAD PUSH1 0x20 ADD PUSH2 0x7E SWAP5 SWAP4 SWAP3 SWAP2 SWAP1 PUSH2 0x3C8 JUMP JUMPDEST PUSH1 0x40 MLOAD PUSH1 0x20 DUP2 DUP4 SUB SUB DUP2 MSTORE SWAP1 PUSH1 0x40 MSTORE PUSH1 0x40 MLOAD PUSH2 0x9A SWAP2 SWAP1 PUSH2 0x3B1 JUMP JUMPDEST PUSH1 0x20 PUSH1 0x40 MLOAD DUP1 DUP4 SUB DUP2 DUP6 GAS STATICCALL ISZERO DUP1 ISZERO PUSH2 0xB7 JUMPI RETURNDATASIZE PUSH1 0x0 DUP1 RETURNDATACOPY RETURNDATASIZE PUSH1 0x0 REVERT JUMPDEST POP POP POP PUSH1 0x40 MLOAD RETURNDATASIZE PUSH1 0x1F NOT PUSH1 0x1F DUP3 ADD AND DUP3 ADD DUP1 PUSH1 0x40 MSTORE POP DUP2 ADD SWAP1 PUSH2 0xDA SWAP2 SWAP1 PUSH2 0x2CD JUMP JUMPDEST PUSH1 0x0 SHR SWAP1 POP DUP1 PUSH1 0x1 PUSH1 0x0 PUSH1 0x3 SLOAD DUP2 MSTORE PUSH1 0x20 ADD SWAP1 DUP2 MSTORE PUSH1 0x20 ADD PUSH1 0x0 KECCAK256 PUSH1 0x1 ADD DUP2 SWAP1 SSTORE POP PUSH1 0x3 SLOAD PUSH1 0x1 PUSH1 0x0 PUSH1 0x3 SLOAD DUP2 MSTORE PUSH1 0x20 ADD SWAP1 DUP2 MSTORE PUSH1 0x20 ADD PUSH1 0x0 KECCAK256 PUSH1 0x0 ADD DUP2 SWAP1 SSTORE POP CALLER PUSH1 0x1 PUSH1 0x0 PUSH1 0x3 SLOAD DUP2 MSTORE PUSH1 0x20 ADD SWAP1 DUP2 MSTORE PUSH1 0x20 ADD PUSH1 0x0 KECCAK256 PUSH1 0x4 ADD PUSH1 0x0 PUSH2 0x100 EXP DUP2 SLOAD DUP2 PUSH20 0xFFFFFFFFFFFFFFFFFFFFFFFFFFFFFFFFFFFFFFFF MUL NOT AND SWAP1 DUP4 PUSH20 0xFFFFFFFFFFFFFFFFFFFFFFFFFFFFFFFFFFFFFFFF AND MUL OR SWAP1 SSTORE POP DUP3 PUSH1 0x1 PUSH1 0x0 PUSH1 0x3 SLOAD DUP2 MSTORE PUSH1 0x20 ADD SWAP1 DUP2 MSTORE PUSH1 0x20 ADD PUSH1 0x0 KECCAK256 PUSH1 0x3 ADD SWAP1 DUP1 MLOAD SWAP1 PUSH1 0x20 ADD SWAP1 PUSH2 0x19E SWAP3 SWAP2 SWAP1 PUSH2 0x1A5 JUMP JUMPDEST POP POP SWAP2 SWAP1 POP JUMP JUMPDEST DUP3 DUP1 SLOAD PUSH2 0x1B1 SWAP1 PUSH2 0x525 JUMP JUMPDEST SWAP1 PUSH1 0x0 MSTORE PUSH1 0x20 PUSH1 0x0 KECCAK256 SWAP1 PUSH1 0x1F ADD PUSH1 0x20 SWAP1 DIV DUP2 ADD SWAP3 DUP3 PUSH2 0x1D3 JUMPI PUSH1 0x0 DUP6 SSTORE PUSH2 0x21A JUMP JUMPDEST DUP3 PUSH1 0x1F LT PUSH2 0x1EC JUMPI DUP1 MLOAD PUSH1 0xFF NOT AND DUP4 DUP1 ADD OR DUP6 SSTORE PUSH2 0x21A JUMP JUMPDEST DUP3 DUP1 ADD PUSH1 0x1 ADD DUP6 SSTORE DUP3 ISZERO PUSH2 0x21A JUMPI SWAP2 DUP3 ADD JUMPDEST DUP3 DUP2 GT ISZERO PUSH2 0x219 JUMPI DUP3 MLOAD DUP3 SSTORE SWAP2 PUSH1 0x20 ADD SWAP2 SWAP1 PUSH1 0x1 ADD SWAP1 PUSH2 0x1FE JUMP JUMPDEST JUMPDEST POP SWAP1 POP PUSH2 0x227 SWAP2 SWAP1 PUSH2 0x22B JUMP JUMPDEST POP SWAP1 JUMP JUMPDEST JUMPDEST DUP1 DUP3 GT ISZERO PUSH2 0x244 JUMPI PUSH1 0x0 DUP2 PUSH1 0x0 SWAP1 SSTORE POP PUSH1 0x1 ADD PUSH2 0x22C JUMP JUMPDEST POP SWAP1 JUMP JUMPDEST PUSH1 0x0 PUSH2 0x25B PUSH2 0x256 DUP5 PUSH2 0x456 JUMP JUMPDEST PUSH2 0x431 JUMP JUMPDEST SWAP1 POP DUP3 DUP2 MSTORE PUSH1 0x20 DUP2 ADD DUP5 DUP5 DUP5 ADD GT ISZERO PUSH2 0x277 JUMPI PUSH2 0x276 PUSH2 0x619 JUMP JUMPDEST JUMPDEST PUSH2 0x282 DUP5 DUP3 DUP6 PUSH2 0x4E3 JUMP JUMPDEST POP SWAP4 SWAP3 POP POP POP JUMP JUMPDEST PUSH1 0x0 DUP2 MLOAD SWAP1 POP PUSH2 0x299 DUP2 PUSH2 0x646 JUMP JUMPDEST SWAP3 SWAP2 POP POP JUMP JUMPDEST PUSH1 0x0 DUP3 PUSH1 0x1F DUP4 ADD SLT PUSH2 0x2B4 JUMPI PUSH2 0x2B3 PUSH2 0x614 JUMP JUMPDEST JUMPDEST DUP2 CALLDATALOAD PUSH2 0x2C4 DUP5 DUP3 PUSH1 0x20 DUP7 ADD PUSH2 0x248 JUMP JUMPDEST SWAP2 POP POP SWAP3 SWAP2 POP POP JUMP JUMPDEST PUSH1 0x0 PUSH1 0x20 DUP3 DUP5 SUB SLT ISZERO PUSH2 0x2E3 JUMPI PUSH2 0x2E2 PUSH2 0x623 JUMP JUMPDEST JUMPDEST PUSH1 0x0 PUSH2 0x2F1 DUP5 DUP3 DUP6 ADD PUSH2 0x28A JUMP JUMPDEST SWAP2 POP POP SWAP3 SWAP2 POP POP JUMP JUMPDEST PUSH1 0x0 PUSH1 0x20 DUP3 DUP5 SUB SLT ISZERO PUSH2 0x310 JUMPI PUSH2 0x30F PUSH2 0x623 JUMP JUMPDEST JUMPDEST PUSH1 0x0 DUP3 ADD CALLDATALOAD PUSH8 0xFFFFFFFFFFFFFFFF DUP2 GT ISZERO PUSH2 0x32E JUMPI PUSH2 0x32D PUSH2 0x61E JUMP JUMPDEST JUMPDEST PUSH2 0x33A DUP5 DUP3 DUP6 ADD PUSH2 0x29F JUMP JUMPDEST SWAP2 POP POP SWAP3 SWAP2 POP POP JUMP JUMPDEST PUSH2 0x354 PUSH2 0x34F DUP3 PUSH2 0x49D JUMP JUMPDEST PUSH2 0x588 JUMP JUMPDEST DUP3 MSTORE POP POP JUMP JUMPDEST PUSH1 0x0 PUSH2 0x365 DUP3 PUSH2 0x487 JUMP JUMPDEST PUSH2 0x36F DUP2 DUP6 PUSH2 0x492 JUMP JUMPDEST SWAP4 POP PUSH2 0x37F DUP2 DUP6 PUSH1 0x20 DUP7 ADD PUSH2 0x4F2 JUMP JUMPDEST DUP1 DUP5 ADD SWAP2 POP POP SWAP3 SWAP2 POP POP JUMP JUMPDEST PUSH2 0x394 DUP2 PUSH2 0x4D9 JUMP JUMPDEST DUP3 MSTORE POP POP JUMP JUMPDEST PUSH2 0x3AB PUSH2 0x3A6 DUP3 PUSH2 0x4D9 JUMP JUMPDEST PUSH2 0x5AC JUMP JUMPDEST DUP3 MSTORE POP POP JUMP JUMPDEST PUSH1 0x0 PUSH2 0x3BD DUP3 DUP5 PUSH2 0x35A JUMP JUMPDEST SWAP2 POP DUP2 SWAP1 POP SWAP3 SWAP2 POP POP JUMP JUMPDEST PUSH1 0x0 PUSH2 0x3D4 DUP3 DUP8 PUSH2 0x39A JUMP JUMPDEST PUSH1 0x20 DUP3 ADD SWAP2 POP PUSH2 0x3E4 DUP3 DUP7 PUSH2 0x39A JUMP JUMPDEST PUSH1 0x20 DUP3 ADD SWAP2 POP PUSH2 0x3F4 DUP3 DUP6 PUSH2 0x343 JUMP JUMPDEST PUSH1 0x14 DUP3 ADD SWAP2 POP PUSH2 0x404 DUP3 DUP5 PUSH2 0x39A JUMP JUMPDEST PUSH1 0x20 DUP3 ADD SWAP2 POP DUP2 SWAP1 POP SWAP6 SWAP5 POP POP POP POP POP JUMP JUMPDEST PUSH1 0x0 PUSH1 0x20 DUP3 ADD SWAP1 POP PUSH2 0x42B PUSH1 0x0 DUP4 ADD DUP5 PUSH2 0x38B JUMP JUMPDEST SWAP3 SWAP2 POP POP JUMP JUMPDEST PUSH1 0x0 PUSH2 0x43B PUSH2 0x44C JUMP JUMPDEST SWAP1 POP PUSH2 0x447 DUP3 DUP3 PUSH2 0x557 JUMP JUMPDEST SWAP2 SWAP1 POP JUMP JUMPDEST PUSH1 0x0 PUSH1 0x40 MLOAD SWAP1 POP SWAP1 JUMP JUMPDEST PUSH1 0x0 PUSH8 0xFFFFFFFFFFFFFFFF DUP3 GT ISZERO PUSH2 0x471 JUMPI PUSH2 0x470 PUSH2 0x5E5 JUMP JUMPDEST JUMPDEST PUSH2 0x47A DUP3 PUSH2 0x628 JUMP JUMPDEST SWAP1 POP PUSH1 0x20 DUP2 ADD SWAP1 POP SWAP2 SWAP1 POP JUMP JUMPDEST PUSH1 0x0 DUP2 MLOAD SWAP1 POP SWAP2 SWAP1 POP JUMP JUMPDEST PUSH1 0x0 DUP2 SWAP1 POP SWAP3 SWAP2 POP POP JUMP JUMPDEST PUSH1 0x0 PUSH2 0x4A8 DUP3 PUSH2 0x4B9 JUMP JUMPDEST SWAP1 POP SWAP2 SWAP1 POP JUMP JUMPDEST PUSH1 0x0 DUP2 SWAP1 POP SWAP2 SWAP1 POP JUMP JUMPDEST PUSH1 0x0 PUSH20 0xFFFFFFFFFFFFFFFFFFFFFFFFFFFFFFFFFFFFFFFF DUP3 AND SWAP1 POP SWAP2 SWAP1 POP JUMP JUMPDEST PUSH1 0x0 DUP2 SWAP1 POP SWAP2 SWAP1 POP JUMP JUMPDEST DUP3 DUP2 DUP4 CALLDATACOPY PUSH1 0x0 DUP4 DUP4 ADD MSTORE POP POP POP JUMP JUMPDEST PUSH1 0x0 JUMPDEST DUP4 DUP2 LT ISZERO PUSH2 0x510 JUMPI DUP1 DUP3 ADD MLOAD DUP2 DUP5 ADD MSTORE PUSH1 0x20 DUP2 ADD SWAP1 POP PUSH2 0x4F5 JUMP JUMPDEST DUP4 DUP2 GT ISZERO PUSH2 0x51F JUMPI PUSH1 0x0 DUP5 DUP5 ADD MSTORE JUMPDEST POP POP POP POP JUMP JUMPDEST PUSH1 0x0 PUSH1 0x2 DUP3 DIV SWAP1 POP PUSH1 0x1 DUP3 AND DUP1 PUSH2 0x53D JUMPI PUSH1 0x7F DUP3 AND SWAP2 POP JUMPDEST PUSH1 0x20 DUP3 LT DUP2 EQ ISZERO PUSH2 0x551 JUMPI PUSH2 0x550 PUSH2 0x5B6 JUMP JUMPDEST JUMPDEST POP SWAP2 SWAP1 POP JUMP JUMPDEST PUSH2 0x560 DUP3 PUSH2 0x628 JUMP JUMPDEST DUP2 ADD DUP2 DUP2 LT PUSH8 0xFFFFFFFFFFFFFFFF DUP3 GT OR ISZERO PUSH2 0x57F JUMPI PUSH2 0x57E PUSH2 0x5E5 JUMP JUMPDEST JUMPDEST DUP1 PUSH1 0x40 MSTORE POP POP POP JUMP JUMPDEST PUSH1 0x0 PUSH2 0x593 DUP3 PUSH2 0x59A JUMP JUMPDEST SWAP1 POP SWAP2 SWAP1 POP JUMP JUMPDEST PUSH1 0x0 PUSH2 0x5A5 DUP3 PUSH2 0x639 JUMP JUMPDEST SWAP1 POP SWAP2 SWAP1 POP JUMP JUMPDEST PUSH1 0x0 DUP2 SWAP1 POP SWAP2 SWAP1 POP JUMP JUMPDEST PUSH32 0x4E487B7100000000000000000000000000000000000000000000000000000000 PUSH1 0x0 MSTORE PUSH1 0x22 PUSH1 0x4 MSTORE PUSH1 0x24 PUSH1 0x0 REVERT JUMPDEST PUSH32 0x4E487B7100000000000000000000000000000000000000000000000000000000 PUSH1 0x0 MSTORE PUSH1 0x41 PUSH1 0x4 MSTORE PUSH1 0x24 PUSH1 0x0 REVERT JUMPDEST PUSH1 0x0 DUP1 REVERT JUMPDEST PUSH1 0x0 DUP1 REVERT JUMPDEST PUSH1 0x0 DUP1 REVERT JUMPDEST PUSH1 0x0 DUP1 REVERT JUMPDEST PUSH1 0x0 PUSH1 0x1F NOT PUSH1 0x1F DUP4 ADD AND SWAP1 POP SWAP2 SWAP1 POP JUMP JUMPDEST PUSH1 0x0 DUP2 PUSH1 0x60 SHL SWAP1 POP SWAP2 SWAP1 POP JUMP JUMPDEST PUSH2 0x64F DUP2 PUSH2 0x4AF JUMP JUMPDEST DUP2 EQ PUSH2 0x65A JUMPI PUSH1 0x0 DUP1 REVERT JUMPDEST POP JUMP INVALID LOG2 PUSH5 0x6970667358 0x22 SLT KECCAK256 GAS SWAP9 SWAP10 0xCA CALLDATALOAD 0xCB DUP15 LOG1 CALLER GT DIV PUSH27 0xA388391BFB708A0195D677A006B295DB2155DC4064736F6C634300 ADDMOD SMOD STOP CALLER "
				},
				"gasEstimates": {
					"creation": {
						"codeDepositCost": "336600",
						"executionCost": "374",
						"totalCost": "336974"
					},
					"external": {
						"request_verification(string)": "infinite"
					}
				},
				"methodIdentifiers": {
					"request_verification(string)": "969b1567"
				}
			},
			"userdoc": {
				"kind": "user",
				"methods": {},
				"version": 1
			}
		}
	}
}