{
	"Desktop/EthCA/blockchain/EthCA.sol": {
		"EthCA": {
			"abi": [
				{
					"inputs": [],
					"name": "cancel_signup",
					"outputs": [],
					"stateMutability": "nonpayable",
					"type": "function"
				},
				{
					"inputs": [
						{
							"internalType": "string",
							"name": "domain",
							"type": "string"
						}
					],
					"name": "request_verification",
					"outputs": [
						{
							"internalType": "uint256",
							"name": "",
							"type": "uint256"
						}
					],
					"stateMutability": "payable",
					"type": "function"
				},
				{
					"inputs": [],
					"name": "sign_up",
					"outputs": [
						{
							"internalType": "uint256",
							"name": "",
							"type": "uint256"
						}
					],
					"stateMutability": "payable",
					"type": "function"
				},
				{
					"inputs": [
						{
							"internalType": "bool",
							"name": "vote",
							"type": "bool"
						}
					],
					"name": "vote",
					"outputs": [],
					"stateMutability": "nonpayable",
					"type": "function"
				}
			],
			"devdoc": {
				"kind": "dev",
				"methods": {},
				"version": 1
			},
			"evm": {
				"assembly": "    /* \"Desktop/EthCA/blockchain/EthCA.sol\":143:2026  contract EthCA {... */\n  mstore(0x40, 0x80)\n  callvalue\n  dup1\n  iszero\n  tag_1\n  jumpi\n  0x00\n  dup1\n  revert\ntag_1:\n  pop\n  dataSize(sub_0)\n  dup1\n  dataOffset(sub_0)\n  0x00\n  codecopy\n  0x00\n  return\nstop\n\nsub_0: assembly {\n        /* \"Desktop/EthCA/blockchain/EthCA.sol\":143:2026  contract EthCA {... */\n      mstore(0x40, 0x80)\n      jumpi(tag_1, lt(calldatasize, 0x04))\n      shr(0xe0, calldataload(0x00))\n      dup1\n      0x4b9f5c98\n      eq\n      tag_2\n      jumpi\n      dup1\n      0x969b1567\n      eq\n      tag_3\n      jumpi\n      dup1\n      0xc09f8ff6\n      eq\n      tag_4\n      jumpi\n      dup1\n      0xc4fb3337\n      eq\n      tag_5\n      jumpi\n    tag_1:\n      0x00\n      dup1\n      revert\n        /* \"Desktop/EthCA/blockchain/EthCA.sol\":1976:2024  function vote(bool vote) public {... */\n    tag_2:\n      callvalue\n      dup1\n      iszero\n      tag_6\n      jumpi\n      0x00\n      dup1\n      revert\n    tag_6:\n      pop\n      tag_7\n      0x04\n      dup1\n      calldatasize\n      sub\n      dup2\n      add\n      swap1\n      tag_8\n      swap2\n      swap1\n      tag_9\n      jump\t// in\n    tag_8:\n      tag_10\n      jump\t// in\n    tag_7:\n      stop\n        /* \"Desktop/EthCA/blockchain/EthCA.sol\":936:1370  function request_verification(string memory domain) public payable returns (uint) {... */\n    tag_3:\n      tag_11\n      0x04\n      dup1\n      calldatasize\n      sub\n      dup2\n      add\n      swap1\n      tag_12\n      swap2\n      swap1\n      tag_13\n      jump\t// in\n    tag_12:\n      tag_14\n      jump\t// in\n    tag_11:\n      mload(0x40)\n      tag_15\n      swap2\n      swap1\n      tag_16\n      jump\t// in\n    tag_15:\n      mload(0x40)\n      dup1\n      swap2\n      sub\n      swap1\n      return\n        /* \"Desktop/EthCA/blockchain/EthCA.sol\":1781:1971  function cancel_signup() public {... */\n    tag_4:\n      callvalue\n      dup1\n      iszero\n      tag_17\n      jumpi\n      0x00\n      dup1\n      revert\n    tag_17:\n      pop\n      tag_18\n      tag_19\n      jump\t// in\n    tag_18:\n      stop\n        /* \"Desktop/EthCA/blockchain/EthCA.sol\":1375:1694  function sign_up() public payable returns (uint) {... */\n    tag_5:\n      tag_20\n      tag_21\n      jump\t// in\n    tag_20:\n      mload(0x40)\n      tag_22\n      swap2\n      swap1\n      tag_16\n      jump\t// in\n    tag_22:\n      mload(0x40)\n      dup1\n      swap2\n      sub\n      swap1\n      return\n        /* \"Desktop/EthCA/blockchain/EthCA.sol\":1976:2024  function vote(bool vote) public {... */\n    tag_10:\n      pop\n      jump\t// out\n        /* \"Desktop/EthCA/blockchain/EthCA.sol\":936:1370  function request_verification(string memory domain) public payable returns (uint) {... */\n    tag_14:\n        /* \"Desktop/EthCA/blockchain/EthCA.sol\":1012:1016  uint */\n      0x00\n        /* \"Desktop/EthCA/blockchain/EthCA.sol\":1049:1057  10 ether */\n      0x8ac7230489e80000\n        /* \"Desktop/EthCA/blockchain/EthCA.sol\":1036:1045  msg.value */\n      callvalue\n        /* \"Desktop/EthCA/blockchain/EthCA.sol\":1036:1057  msg.value >= 10 ether */\n      lt\n      iszero\n        /* \"Desktop/EthCA/blockchain/EthCA.sol\":1028:1058  require(msg.value >= 10 ether) */\n      tag_25\n      jumpi\n      0x00\n      dup1\n      revert\n    tag_25:\n        /* \"Desktop/EthCA/blockchain/EthCA.sol\":1068:1078  uint nonce */\n      0x00\n        /* \"Desktop/EthCA/blockchain/EthCA.sol\":1086:1169  sha256(abi.encodePacked(block.timestamp, block.difficulty, msg.sender, numsignups)) */\n      0x02\n        /* \"Desktop/EthCA/blockchain/EthCA.sol\":1110:1125  block.timestamp */\n      timestamp\n        /* \"Desktop/EthCA/blockchain/EthCA.sol\":1127:1143  block.difficulty */\n      difficulty\n        /* \"Desktop/EthCA/blockchain/EthCA.sol\":1145:1155  msg.sender */\n      caller\n        /* \"Desktop/EthCA/blockchain/EthCA.sol\":1157:1167  numsignups */\n      sload(0x03)\n        /* \"Desktop/EthCA/blockchain/EthCA.sol\":1093:1168  abi.encodePacked(block.timestamp, block.difficulty, msg.sender, numsignups) */\n      add(0x20, mload(0x40))\n      tag_26\n      swap5\n      swap4\n      swap3\n      swap2\n      swap1\n      tag_27\n      jump\t// in\n    tag_26:\n      mload(0x40)\n      0x20\n      dup2\n      dup4\n      sub\n      sub\n      dup2\n      mstore\n      swap1\n      0x40\n      mstore\n        /* \"Desktop/EthCA/blockchain/EthCA.sol\":1086:1169  sha256(abi.encodePacked(block.timestamp, block.difficulty, msg.sender, numsignups)) */\n      mload(0x40)\n      tag_28\n      swap2\n      swap1\n      tag_29\n      jump\t// in\n    tag_28:\n      0x20\n      mload(0x40)\n      dup1\n      dup4\n      sub\n      dup2\n      dup6\n      gas\n      staticcall\n      iszero\n      dup1\n      iszero\n      tag_31\n      jumpi\n      returndatasize\n      0x00\n      dup1\n      returndatacopy\n      revert(0x00, returndatasize)\n    tag_31:\n      pop\n      pop\n      pop\n      mload(0x40)\n      returndatasize\n      not(0x1f)\n      0x1f\n      dup3\n      add\n      and\n      dup3\n      add\n      dup1\n      0x40\n      mstore\n      pop\n      dup2\n      add\n      swap1\n      tag_32\n      swap2\n      swap1\n      tag_33\n      jump\t// in\n    tag_32:\n        /* \"Desktop/EthCA/blockchain/EthCA.sol\":1081:1170  uint(sha256(abi.encodePacked(block.timestamp, block.difficulty, msg.sender, numsignups))) */\n      0x00\n      shr\n        /* \"Desktop/EthCA/blockchain/EthCA.sol\":1068:1170  uint nonce = uint(sha256(abi.encodePacked(block.timestamp, block.difficulty, msg.sender, numsignups))) */\n      swap1\n      pop\n        /* \"Desktop/EthCA/blockchain/EthCA.sol\":1210:1215  nonce */\n      dup1\n        /* \"Desktop/EthCA/blockchain/EthCA.sol\":1180:1188  requests */\n      0x01\n        /* \"Desktop/EthCA/blockchain/EthCA.sol\":1180:1201  requests[numRequests] */\n      0x00\n        /* \"Desktop/EthCA/blockchain/EthCA.sol\":1189:1200  numRequests */\n      sload(0x04)\n        /* \"Desktop/EthCA/blockchain/EthCA.sol\":1180:1201  requests[numRequests] */\n      dup2\n      mstore\n      0x20\n      add\n      swap1\n      dup2\n      mstore\n      0x20\n      add\n      0x00\n      keccak256\n        /* \"Desktop/EthCA/blockchain/EthCA.sol\":1180:1207  requests[numRequests].nonce */\n      0x01\n      add\n        /* \"Desktop/EthCA/blockchain/EthCA.sol\":1180:1215  requests[numRequests].nonce = nonce */\n      dup2\n      swap1\n      sstore\n      pop\n        /* \"Desktop/EthCA/blockchain/EthCA.sol\":1252:1263  numRequests */\n      sload(0x04)\n        /* \"Desktop/EthCA/blockchain/EthCA.sol\":1225:1233  requests */\n      0x01\n        /* \"Desktop/EthCA/blockchain/EthCA.sol\":1225:1246  requests[numRequests] */\n      0x00\n        /* \"Desktop/EthCA/blockchain/EthCA.sol\":1234:1245  numRequests */\n      sload(0x04)\n        /* \"Desktop/EthCA/blockchain/EthCA.sol\":1225:1246  requests[numRequests] */\n      dup2\n      mstore\n      0x20\n      add\n      swap1\n      dup2\n      mstore\n      0x20\n      add\n      0x00\n      keccak256\n        /* \"Desktop/EthCA/blockchain/EthCA.sol\":1225:1249  requests[numRequests].id */\n      0x00\n      add\n        /* \"Desktop/EthCA/blockchain/EthCA.sol\":1225:1263  requests[numRequests].id = numRequests */\n      dup2\n      swap1\n      sstore\n      pop\n        /* \"Desktop/EthCA/blockchain/EthCA.sol\":1304:1314  msg.sender */\n      caller\n        /* \"Desktop/EthCA/blockchain/EthCA.sol\":1273:1281  requests */\n      0x01\n        /* \"Desktop/EthCA/blockchain/EthCA.sol\":1273:1294  requests[numRequests] */\n      0x00\n        /* \"Desktop/EthCA/blockchain/EthCA.sol\":1282:1293  numRequests */\n      sload(0x04)\n        /* \"Desktop/EthCA/blockchain/EthCA.sol\":1273:1294  requests[numRequests] */\n      dup2\n      mstore\n      0x20\n      add\n      swap1\n      dup2\n      mstore\n      0x20\n      add\n      0x00\n      keccak256\n        /* \"Desktop/EthCA/blockchain/EthCA.sol\":1273:1301  requests[numRequests].sender */\n      0x04\n      add\n      0x00\n        /* \"Desktop/EthCA/blockchain/EthCA.sol\":1273:1314  requests[numRequests].sender = msg.sender */\n      0x0100\n      exp\n      dup2\n      sload\n      dup2\n      0xffffffffffffffffffffffffffffffffffffffff\n      mul\n      not\n      and\n      swap1\n      dup4\n      0xffffffffffffffffffffffffffffffffffffffff\n      and\n      mul\n      or\n      swap1\n      sstore\n      pop\n        /* \"Desktop/EthCA/blockchain/EthCA.sol\":1355:1361  domain */\n      dup3\n        /* \"Desktop/EthCA/blockchain/EthCA.sol\":1324:1332  requests */\n      0x01\n        /* \"Desktop/EthCA/blockchain/EthCA.sol\":1324:1345  requests[numRequests] */\n      0x00\n        /* \"Desktop/EthCA/blockchain/EthCA.sol\":1333:1344  numRequests */\n      sload(0x04)\n        /* \"Desktop/EthCA/blockchain/EthCA.sol\":1324:1345  requests[numRequests] */\n      dup2\n      mstore\n      0x20\n      add\n      swap1\n      dup2\n      mstore\n      0x20\n      add\n      0x00\n      keccak256\n        /* \"Desktop/EthCA/blockchain/EthCA.sol\":1324:1352  requests[numRequests].domain */\n      0x03\n      add\n        /* \"Desktop/EthCA/blockchain/EthCA.sol\":1324:1361  requests[numRequests].domain = domain */\n      swap1\n      dup1\n      mload\n      swap1\n      0x20\n      add\n      swap1\n      tag_34\n      swap3\n      swap2\n      swap1\n      tag_35\n      jump\t// in\n    tag_34:\n      pop\n        /* \"Desktop/EthCA/blockchain/EthCA.sol\":1018:1370  {... */\n      pop\n        /* \"Desktop/EthCA/blockchain/EthCA.sol\":936:1370  function request_verification(string memory domain) public payable returns (uint) {... */\n      swap2\n      swap1\n      pop\n      jump\t// out\n        /* \"Desktop/EthCA/blockchain/EthCA.sol\":1781:1971  function cancel_signup() public {... */\n    tag_19:\n        /* \"Desktop/EthCA/blockchain/EthCA.sol\":1855:1859  true */\n      0x01\n        /* \"Desktop/EthCA/blockchain/EthCA.sol\":1831:1859  signedup[msg.sender] == true */\n      iszero\n      iszero\n        /* \"Desktop/EthCA/blockchain/EthCA.sol\":1831:1839  signedup */\n      0x00\n        /* \"Desktop/EthCA/blockchain/EthCA.sol\":1831:1851  signedup[msg.sender] */\n      dup1\n        /* \"Desktop/EthCA/blockchain/EthCA.sol\":1840:1850  msg.sender */\n      caller\n        /* \"Desktop/EthCA/blockchain/EthCA.sol\":1831:1851  signedup[msg.sender] */\n      0xffffffffffffffffffffffffffffffffffffffff\n      and\n      0xffffffffffffffffffffffffffffffffffffffff\n      and\n      dup2\n      mstore\n      0x20\n      add\n      swap1\n      dup2\n      mstore\n      0x20\n      add\n      0x00\n      keccak256\n      0x00\n      swap1\n      sload\n      swap1\n      0x0100\n      exp\n      swap1\n      div\n      0xff\n      and\n        /* \"Desktop/EthCA/blockchain/EthCA.sol\":1831:1859  signedup[msg.sender] == true */\n      iszero\n      iszero\n      eq\n        /* \"Desktop/EthCA/blockchain/EthCA.sol\":1823:1878  require(signedup[msg.sender] == true, \"Not signed up!\") */\n      tag_37\n      jumpi\n      mload(0x40)\n      0x08c379a000000000000000000000000000000000000000000000000000000000\n      dup2\n      mstore\n      0x04\n      add\n      tag_38\n      swap1\n      tag_39\n      jump\t// in\n    tag_38:\n      mload(0x40)\n      dup1\n      swap2\n      sub\n      swap1\n      revert\n    tag_37:\n        /* \"Desktop/EthCA/blockchain/EthCA.sol\":1912:1917  false */\n      0x00\n        /* \"Desktop/EthCA/blockchain/EthCA.sol\":1888:1917  signedup[msg.sender] == false */\n      iszero\n      iszero\n        /* \"Desktop/EthCA/blockchain/EthCA.sol\":1888:1896  signedup */\n      0x00\n        /* \"Desktop/EthCA/blockchain/EthCA.sol\":1888:1908  signedup[msg.sender] */\n      dup1\n        /* \"Desktop/EthCA/blockchain/EthCA.sol\":1897:1907  msg.sender */\n      caller\n        /* \"Desktop/EthCA/blockchain/EthCA.sol\":1888:1908  signedup[msg.sender] */\n      0xffffffffffffffffffffffffffffffffffffffff\n      and\n      0xffffffffffffffffffffffffffffffffffffffff\n      and\n      dup2\n      mstore\n      0x20\n      add\n      swap1\n      dup2\n      mstore\n      0x20\n      add\n      0x00\n      keccak256\n      0x00\n      swap1\n      sload\n      swap1\n      0x0100\n      exp\n      swap1\n      pop\n      pop\n        /* \"Desktop/EthCA/blockchain/EthCA.sol\":1888:1917  signedup[msg.sender] == false */\n      pop\n        /* \"Desktop/EthCA/blockchain/EthCA.sol\":1935:1945  msg.sender */\n      caller\n        /* \"Desktop/EthCA/blockchain/EthCA.sol\":1927:1955  payable(msg.sender).transfer */\n      0xffffffffffffffffffffffffffffffffffffffff\n      and\n        /* \"Desktop/EthCA/blockchain/EthCA.sol\":1927:1964  payable(msg.sender).transfer(1 ether) */\n      0x08fc\n        /* \"Desktop/EthCA/blockchain/EthCA.sol\":1956:1963  1 ether */\n      0x0de0b6b3a7640000\n        /* \"Desktop/EthCA/blockchain/EthCA.sol\":1927:1964  payable(msg.sender).transfer(1 ether) */\n      swap1\n      dup2\n      iszero\n      mul\n      swap1\n      mload(0x40)\n      0x00\n      mload(0x40)\n      dup1\n      dup4\n      sub\n      dup2\n      dup6\n      dup9\n      dup9\n      call\n      swap4\n      pop\n      pop\n      pop\n      pop\n      iszero\n      dup1\n      iszero\n      tag_41\n      jumpi\n      returndatasize\n      0x00\n      dup1\n      returndatacopy\n      revert(0x00, returndatasize)\n    tag_41:\n      pop\n        /* \"Desktop/EthCA/blockchain/EthCA.sol\":1781:1971  function cancel_signup() public {... */\n      jump\t// out\n        /* \"Desktop/EthCA/blockchain/EthCA.sol\":1375:1694  function sign_up() public payable returns (uint) {... */\n    tag_21:\n        /* \"Desktop/EthCA/blockchain/EthCA.sol\":1418:1422  uint */\n      0x00\n        /* \"Desktop/EthCA/blockchain/EthCA.sol\":1505:1512  1 ether */\n      0x0de0b6b3a7640000\n        /* \"Desktop/EthCA/blockchain/EthCA.sol\":1492:1501  msg.value */\n      callvalue\n        /* \"Desktop/EthCA/blockchain/EthCA.sol\":1492:1512  msg.value == 1 ether */\n      eq\n        /* \"Desktop/EthCA/blockchain/EthCA.sol\":1484:1557  require(msg.value == 1 ether, \"Sign-up rejected! Inadequate stake value\") */\n      tag_43\n      jumpi\n      mload(0x40)\n      0x08c379a000000000000000000000000000000000000000000000000000000000\n      dup2\n      mstore\n      0x04\n      add\n      tag_44\n      swap1\n      tag_45\n      jump\t// in\n    tag_44:\n      mload(0x40)\n      dup1\n      swap2\n      sub\n      swap1\n      revert\n    tag_43:\n        /* \"Desktop/EthCA/blockchain/EthCA.sol\":1658:1663  false */\n      0x00\n        /* \"Desktop/EthCA/blockchain/EthCA.sol\":1634:1663  signedup[msg.sender] == false */\n      iszero\n      iszero\n        /* \"Desktop/EthCA/blockchain/EthCA.sol\":1634:1642  signedup */\n      0x00\n        /* \"Desktop/EthCA/blockchain/EthCA.sol\":1634:1654  signedup[msg.sender] */\n      dup1\n        /* \"Desktop/EthCA/blockchain/EthCA.sol\":1643:1653  msg.sender */\n      caller\n        /* \"Desktop/EthCA/blockchain/EthCA.sol\":1634:1654  signedup[msg.sender] */\n      0xffffffffffffffffffffffffffffffffffffffff\n      and\n      0xffffffffffffffffffffffffffffffffffffffff\n      and\n      dup2\n      mstore\n      0x20\n      add\n      swap1\n      dup2\n      mstore\n      0x20\n      add\n      0x00\n      keccak256\n      0x00\n      swap1\n      sload\n      swap1\n      0x0100\n      exp\n      swap1\n      div\n      0xff\n      and\n        /* \"Desktop/EthCA/blockchain/EthCA.sol\":1634:1663  signedup[msg.sender] == false */\n      iszero\n      iszero\n      eq\n        /* \"Desktop/EthCA/blockchain/EthCA.sol\":1626:1686  require(signedup[msg.sender] == false, \"Already Signed up!\") */\n      tag_46\n      jumpi\n      mload(0x40)\n      0x08c379a000000000000000000000000000000000000000000000000000000000\n      dup2\n      mstore\n      0x04\n      add\n      tag_47\n      swap1\n      tag_48\n      jump\t// in\n    tag_47:\n      mload(0x40)\n      dup1\n      swap2\n      sub\n      swap1\n      revert\n    tag_46:\n        /* \"Desktop/EthCA/blockchain/EthCA.sol\":1375:1694  function sign_up() public payable returns (uint) {... */\n      swap1\n      jump\t// out\n    tag_35:\n      dup3\n      dup1\n      sload\n      tag_49\n      swap1\n      tag_50\n      jump\t// in\n    tag_49:\n      swap1\n      0x00\n      mstore\n      keccak256(0x00, 0x20)\n      swap1\n      0x1f\n      add\n      0x20\n      swap1\n      div\n      dup2\n      add\n      swap3\n      dup3\n      tag_52\n      jumpi\n      0x00\n      dup6\n      sstore\n      jump(tag_51)\n    tag_52:\n      dup3\n      0x1f\n      lt\n      tag_53\n      jumpi\n      dup1\n      mload\n      not(0xff)\n      and\n      dup4\n      dup1\n      add\n      or\n      dup6\n      sstore\n      jump(tag_51)\n    tag_53:\n      dup3\n      dup1\n      add\n      0x01\n      add\n      dup6\n      sstore\n      dup3\n      iszero\n      tag_51\n      jumpi\n      swap2\n      dup3\n      add\n    tag_54:\n      dup3\n      dup2\n      gt\n      iszero\n      tag_55\n      jumpi\n      dup3\n      mload\n      dup3\n      sstore\n      swap2\n      0x20\n      add\n      swap2\n      swap1\n      0x01\n      add\n      swap1\n      jump(tag_54)\n    tag_55:\n    tag_51:\n      pop\n      swap1\n      pop\n      tag_56\n      swap2\n      swap1\n      tag_57\n      jump\t// in\n    tag_56:\n      pop\n      swap1\n      jump\t// out\n    tag_57:\n    tag_58:\n      dup1\n      dup3\n      gt\n      iszero\n      tag_59\n      jumpi\n      0x00\n      dup2\n      0x00\n      swap1\n      sstore\n      pop\n      0x01\n      add\n      jump(tag_58)\n    tag_59:\n      pop\n      swap1\n      jump\t// out\n        /* \"#utility.yul\":7:419   */\n    tag_61:\n        /* \"#utility.yul\":85:90   */\n      0x00\n        /* \"#utility.yul\":110:176   */\n      tag_63\n        /* \"#utility.yul\":126:175   */\n      tag_64\n        /* \"#utility.yul\":168:174   */\n      dup5\n        /* \"#utility.yul\":126:175   */\n      tag_65\n      jump\t// in\n    tag_64:\n        /* \"#utility.yul\":110:176   */\n      tag_66\n      jump\t// in\n    tag_63:\n        /* \"#utility.yul\":101:176   */\n      swap1\n      pop\n        /* \"#utility.yul\":199:205   */\n      dup3\n        /* \"#utility.yul\":192:197   */\n      dup2\n        /* \"#utility.yul\":185:206   */\n      mstore\n        /* \"#utility.yul\":237:241   */\n      0x20\n        /* \"#utility.yul\":230:235   */\n      dup2\n        /* \"#utility.yul\":226:242   */\n      add\n        /* \"#utility.yul\":275:278   */\n      dup5\n        /* \"#utility.yul\":266:272   */\n      dup5\n        /* \"#utility.yul\":261:264   */\n      dup5\n        /* \"#utility.yul\":257:273   */\n      add\n        /* \"#utility.yul\":254:279   */\n      gt\n        /* \"#utility.yul\":251:363   */\n      iszero\n      tag_67\n      jumpi\n        /* \"#utility.yul\":282:361   */\n      tag_68\n      tag_69\n      jump\t// in\n    tag_68:\n        /* \"#utility.yul\":251:363   */\n    tag_67:\n        /* \"#utility.yul\":372:413   */\n      tag_70\n        /* \"#utility.yul\":406:412   */\n      dup5\n        /* \"#utility.yul\":401:404   */\n      dup3\n        /* \"#utility.yul\":396:399   */\n      dup6\n        /* \"#utility.yul\":372:413   */\n      tag_71\n      jump\t// in\n    tag_70:\n        /* \"#utility.yul\":91:419   */\n      pop\n        /* \"#utility.yul\":7:419   */\n      swap4\n      swap3\n      pop\n      pop\n      pop\n      jump\t// out\n        /* \"#utility.yul\":425:558   */\n    tag_72:\n        /* \"#utility.yul\":468:473   */\n      0x00\n        /* \"#utility.yul\":506:512   */\n      dup2\n        /* \"#utility.yul\":493:513   */\n      calldataload\n        /* \"#utility.yul\":484:513   */\n      swap1\n      pop\n        /* \"#utility.yul\":522:552   */\n      tag_74\n        /* \"#utility.yul\":546:551   */\n      dup2\n        /* \"#utility.yul\":522:552   */\n      tag_75\n      jump\t// in\n    tag_74:\n        /* \"#utility.yul\":425:558   */\n      swap3\n      swap2\n      pop\n      pop\n      jump\t// out\n        /* \"#utility.yul\":564:707   */\n    tag_76:\n        /* \"#utility.yul\":621:626   */\n      0x00\n        /* \"#utility.yul\":652:658   */\n      dup2\n        /* \"#utility.yul\":646:659   */\n      mload\n        /* \"#utility.yul\":637:659   */\n      swap1\n      pop\n        /* \"#utility.yul\":668:701   */\n      tag_78\n        /* \"#utility.yul\":695:700   */\n      dup2\n        /* \"#utility.yul\":668:701   */\n      tag_79\n      jump\t// in\n    tag_78:\n        /* \"#utility.yul\":564:707   */\n      swap3\n      swap2\n      pop\n      pop\n      jump\t// out\n        /* \"#utility.yul\":727:1067   */\n    tag_80:\n        /* \"#utility.yul\":783:788   */\n      0x00\n        /* \"#utility.yul\":832:835   */\n      dup3\n        /* \"#utility.yul\":825:829   */\n      0x1f\n        /* \"#utility.yul\":817:823   */\n      dup4\n        /* \"#utility.yul\":813:830   */\n      add\n        /* \"#utility.yul\":809:836   */\n      slt\n        /* \"#utility.yul\":799:921   */\n      tag_82\n      jumpi\n        /* \"#utility.yul\":840:919   */\n      tag_83\n      tag_84\n      jump\t// in\n    tag_83:\n        /* \"#utility.yul\":799:921   */\n    tag_82:\n        /* \"#utility.yul\":957:963   */\n      dup2\n        /* \"#utility.yul\":944:964   */\n      calldataload\n        /* \"#utility.yul\":982:1061   */\n      tag_85\n        /* \"#utility.yul\":1057:1060   */\n      dup5\n        /* \"#utility.yul\":1049:1055   */\n      dup3\n        /* \"#utility.yul\":1042:1046   */\n      0x20\n        /* \"#utility.yul\":1034:1040   */\n      dup7\n        /* \"#utility.yul\":1030:1047   */\n      add\n        /* \"#utility.yul\":982:1061   */\n      tag_61\n      jump\t// in\n    tag_85:\n        /* \"#utility.yul\":973:1061   */\n      swap2\n      pop\n        /* \"#utility.yul\":789:1067   */\n      pop\n        /* \"#utility.yul\":727:1067   */\n      swap3\n      swap2\n      pop\n      pop\n      jump\t// out\n        /* \"#utility.yul\":1073:1396   */\n    tag_9:\n        /* \"#utility.yul\":1129:1135   */\n      0x00\n        /* \"#utility.yul\":1178:1180   */\n      0x20\n        /* \"#utility.yul\":1166:1175   */\n      dup3\n        /* \"#utility.yul\":1157:1164   */\n      dup5\n        /* \"#utility.yul\":1153:1176   */\n      sub\n        /* \"#utility.yul\":1149:1181   */\n      slt\n        /* \"#utility.yul\":1146:1265   */\n      iszero\n      tag_87\n      jumpi\n        /* \"#utility.yul\":1184:1263   */\n      tag_88\n      tag_89\n      jump\t// in\n    tag_88:\n        /* \"#utility.yul\":1146:1265   */\n    tag_87:\n        /* \"#utility.yul\":1304:1305   */\n      0x00\n        /* \"#utility.yul\":1329:1379   */\n      tag_90\n        /* \"#utility.yul\":1371:1378   */\n      dup5\n        /* \"#utility.yul\":1362:1368   */\n      dup3\n        /* \"#utility.yul\":1351:1360   */\n      dup6\n        /* \"#utility.yul\":1347:1369   */\n      add\n        /* \"#utility.yul\":1329:1379   */\n      tag_72\n      jump\t// in\n    tag_90:\n        /* \"#utility.yul\":1319:1379   */\n      swap2\n      pop\n        /* \"#utility.yul\":1275:1389   */\n      pop\n        /* \"#utility.yul\":1073:1396   */\n      swap3\n      swap2\n      pop\n      pop\n      jump\t// out\n        /* \"#utility.yul\":1402:1753   */\n    tag_33:\n        /* \"#utility.yul\":1472:1478   */\n      0x00\n        /* \"#utility.yul\":1521:1523   */\n      0x20\n        /* \"#utility.yul\":1509:1518   */\n      dup3\n        /* \"#utility.yul\":1500:1507   */\n      dup5\n        /* \"#utility.yul\":1496:1519   */\n      sub\n        /* \"#utility.yul\":1492:1524   */\n      slt\n        /* \"#utility.yul\":1489:1608   */\n      iszero\n      tag_92\n      jumpi\n        /* \"#utility.yul\":1527:1606   */\n      tag_93\n      tag_89\n      jump\t// in\n    tag_93:\n        /* \"#utility.yul\":1489:1608   */\n    tag_92:\n        /* \"#utility.yul\":1647:1648   */\n      0x00\n        /* \"#utility.yul\":1672:1736   */\n      tag_94\n        /* \"#utility.yul\":1728:1735   */\n      dup5\n        /* \"#utility.yul\":1719:1725   */\n      dup3\n        /* \"#utility.yul\":1708:1717   */\n      dup6\n        /* \"#utility.yul\":1704:1726   */\n      add\n        /* \"#utility.yul\":1672:1736   */\n      tag_76\n      jump\t// in\n    tag_94:\n        /* \"#utility.yul\":1662:1736   */\n      swap2\n      pop\n        /* \"#utility.yul\":1618:1746   */\n      pop\n        /* \"#utility.yul\":1402:1753   */\n      swap3\n      swap2\n      pop\n      pop\n      jump\t// out\n        /* \"#utility.yul\":1759:2268   */\n    tag_13:\n        /* \"#utility.yul\":1828:1834   */\n      0x00\n        /* \"#utility.yul\":1877:1879   */\n      0x20\n        /* \"#utility.yul\":1865:1874   */\n      dup3\n        /* \"#utility.yul\":1856:1863   */\n      dup5\n        /* \"#utility.yul\":1852:1875   */\n      sub\n        /* \"#utility.yul\":1848:1880   */\n      slt\n        /* \"#utility.yul\":1845:1964   */\n      iszero\n      tag_96\n      jumpi\n        /* \"#utility.yul\":1883:1962   */\n      tag_97\n      tag_89\n      jump\t// in\n    tag_97:\n        /* \"#utility.yul\":1845:1964   */\n    tag_96:\n        /* \"#utility.yul\":2031:2032   */\n      0x00\n        /* \"#utility.yul\":2020:2029   */\n      dup3\n        /* \"#utility.yul\":2016:2033   */\n      add\n        /* \"#utility.yul\":2003:2034   */\n      calldataload\n        /* \"#utility.yul\":2061:2079   */\n      0xffffffffffffffff\n        /* \"#utility.yul\":2053:2059   */\n      dup2\n        /* \"#utility.yul\":2050:2080   */\n      gt\n        /* \"#utility.yul\":2047:2164   */\n      iszero\n      tag_98\n      jumpi\n        /* \"#utility.yul\":2083:2162   */\n      tag_99\n      tag_100\n      jump\t// in\n    tag_99:\n        /* \"#utility.yul\":2047:2164   */\n    tag_98:\n        /* \"#utility.yul\":2188:2251   */\n      tag_101\n        /* \"#utility.yul\":2243:2250   */\n      dup5\n        /* \"#utility.yul\":2234:2240   */\n      dup3\n        /* \"#utility.yul\":2223:2232   */\n      dup6\n        /* \"#utility.yul\":2219:2241   */\n      add\n        /* \"#utility.yul\":2188:2251   */\n      tag_80\n      jump\t// in\n    tag_101:\n        /* \"#utility.yul\":2178:2251   */\n      swap2\n      pop\n        /* \"#utility.yul\":1974:2261   */\n      pop\n        /* \"#utility.yul\":1759:2268   */\n      swap3\n      swap2\n      pop\n      pop\n      jump\t// out\n        /* \"#utility.yul\":2274:2431   */\n    tag_102:\n        /* \"#utility.yul\":2379:2424   */\n      tag_104\n        /* \"#utility.yul\":2399:2423   */\n      tag_105\n        /* \"#utility.yul\":2417:2422   */\n      dup3\n        /* \"#utility.yul\":2399:2423   */\n      tag_106\n      jump\t// in\n    tag_105:\n        /* \"#utility.yul\":2379:2424   */\n      tag_107\n      jump\t// in\n    tag_104:\n        /* \"#utility.yul\":2374:2377   */\n      dup3\n        /* \"#utility.yul\":2367:2425   */\n      mstore\n        /* \"#utility.yul\":2274:2431   */\n      pop\n      pop\n      jump\t// out\n        /* \"#utility.yul\":2437:2810   */\n    tag_108:\n        /* \"#utility.yul\":2541:2544   */\n      0x00\n        /* \"#utility.yul\":2569:2607   */\n      tag_110\n        /* \"#utility.yul\":2601:2606   */\n      dup3\n        /* \"#utility.yul\":2569:2607   */\n      tag_111\n      jump\t// in\n    tag_110:\n        /* \"#utility.yul\":2623:2711   */\n      tag_112\n        /* \"#utility.yul\":2704:2710   */\n      dup2\n        /* \"#utility.yul\":2699:2702   */\n      dup6\n        /* \"#utility.yul\":2623:2711   */\n      tag_113\n      jump\t// in\n    tag_112:\n        /* \"#utility.yul\":2616:2711   */\n      swap4\n      pop\n        /* \"#utility.yul\":2720:2772   */\n      tag_114\n        /* \"#utility.yul\":2765:2771   */\n      dup2\n        /* \"#utility.yul\":2760:2763   */\n      dup6\n        /* \"#utility.yul\":2753:2757   */\n      0x20\n        /* \"#utility.yul\":2746:2751   */\n      dup7\n        /* \"#utility.yul\":2742:2758   */\n      add\n        /* \"#utility.yul\":2720:2772   */\n      tag_115\n      jump\t// in\n    tag_114:\n        /* \"#utility.yul\":2797:2803   */\n      dup1\n        /* \"#utility.yul\":2792:2795   */\n      dup5\n        /* \"#utility.yul\":2788:2804   */\n      add\n        /* \"#utility.yul\":2781:2804   */\n      swap2\n      pop\n        /* \"#utility.yul\":2545:2810   */\n      pop\n        /* \"#utility.yul\":2437:2810   */\n      swap3\n      swap2\n      pop\n      pop\n      jump\t// out\n        /* \"#utility.yul\":2816:3182   */\n    tag_116:\n        /* \"#utility.yul\":2958:2961   */\n      0x00\n        /* \"#utility.yul\":2979:3046   */\n      tag_118\n        /* \"#utility.yul\":3043:3045   */\n      0x12\n        /* \"#utility.yul\":3038:3041   */\n      dup4\n        /* \"#utility.yul\":2979:3046   */\n      tag_119\n      jump\t// in\n    tag_118:\n        /* \"#utility.yul\":2972:3046   */\n      swap2\n      pop\n        /* \"#utility.yul\":3055:3148   */\n      tag_120\n        /* \"#utility.yul\":3144:3147   */\n      dup3\n        /* \"#utility.yul\":3055:3148   */\n      tag_121\n      jump\t// in\n    tag_120:\n        /* \"#utility.yul\":3173:3175   */\n      0x20\n        /* \"#utility.yul\":3168:3171   */\n      dup3\n        /* \"#utility.yul\":3164:3176   */\n      add\n        /* \"#utility.yul\":3157:3176   */\n      swap1\n      pop\n        /* \"#utility.yul\":2816:3182   */\n      swap2\n      swap1\n      pop\n      jump\t// out\n        /* \"#utility.yul\":3188:3554   */\n    tag_122:\n        /* \"#utility.yul\":3330:3333   */\n      0x00\n        /* \"#utility.yul\":3351:3418   */\n      tag_124\n        /* \"#utility.yul\":3415:3417   */\n      0x28\n        /* \"#utility.yul\":3410:3413   */\n      dup4\n        /* \"#utility.yul\":3351:3418   */\n      tag_119\n      jump\t// in\n    tag_124:\n        /* \"#utility.yul\":3344:3418   */\n      swap2\n      pop\n        /* \"#utility.yul\":3427:3520   */\n      tag_125\n        /* \"#utility.yul\":3516:3519   */\n      dup3\n        /* \"#utility.yul\":3427:3520   */\n      tag_126\n      jump\t// in\n    tag_125:\n        /* \"#utility.yul\":3545:3547   */\n      0x40\n        /* \"#utility.yul\":3540:3543   */\n      dup3\n        /* \"#utility.yul\":3536:3548   */\n      add\n        /* \"#utility.yul\":3529:3548   */\n      swap1\n      pop\n        /* \"#utility.yul\":3188:3554   */\n      swap2\n      swap1\n      pop\n      jump\t// out\n        /* \"#utility.yul\":3560:3926   */\n    tag_127:\n        /* \"#utility.yul\":3702:3705   */\n      0x00\n        /* \"#utility.yul\":3723:3790   */\n      tag_129\n        /* \"#utility.yul\":3787:3789   */\n      0x0e\n        /* \"#utility.yul\":3782:3785   */\n      dup4\n        /* \"#utility.yul\":3723:3790   */\n      tag_119\n      jump\t// in\n    tag_129:\n        /* \"#utility.yul\":3716:3790   */\n      swap2\n      pop\n        /* \"#utility.yul\":3799:3892   */\n      tag_130\n        /* \"#utility.yul\":3888:3891   */\n      dup3\n        /* \"#utility.yul\":3799:3892   */\n      tag_131\n      jump\t// in\n    tag_130:\n        /* \"#utility.yul\":3917:3919   */\n      0x20\n        /* \"#utility.yul\":3912:3915   */\n      dup3\n        /* \"#utility.yul\":3908:3920   */\n      add\n        /* \"#utility.yul\":3901:3920   */\n      swap1\n      pop\n        /* \"#utility.yul\":3560:3926   */\n      swap2\n      swap1\n      pop\n      jump\t// out\n        /* \"#utility.yul\":3932:4050   */\n    tag_132:\n        /* \"#utility.yul\":4019:4043   */\n      tag_134\n        /* \"#utility.yul\":4037:4042   */\n      dup2\n        /* \"#utility.yul\":4019:4043   */\n      tag_135\n      jump\t// in\n    tag_134:\n        /* \"#utility.yul\":4014:4017   */\n      dup3\n        /* \"#utility.yul\":4007:4044   */\n      mstore\n        /* \"#utility.yul\":3932:4050   */\n      pop\n      pop\n      jump\t// out\n        /* \"#utility.yul\":4056:4213   */\n    tag_136:\n        /* \"#utility.yul\":4161:4206   */\n      tag_138\n        /* \"#utility.yul\":4181:4205   */\n      tag_139\n        /* \"#utility.yul\":4199:4204   */\n      dup3\n        /* \"#utility.yul\":4181:4205   */\n      tag_135\n      jump\t// in\n    tag_139:\n        /* \"#utility.yul\":4161:4206   */\n      tag_140\n      jump\t// in\n    tag_138:\n        /* \"#utility.yul\":4156:4159   */\n      dup3\n        /* \"#utility.yul\":4149:4207   */\n      mstore\n        /* \"#utility.yul\":4056:4213   */\n      pop\n      pop\n      jump\t// out\n        /* \"#utility.yul\":4219:4490   */\n    tag_29:\n        /* \"#utility.yul\":4349:4352   */\n      0x00\n        /* \"#utility.yul\":4371:4464   */\n      tag_142\n        /* \"#utility.yul\":4460:4463   */\n      dup3\n        /* \"#utility.yul\":4451:4457   */\n      dup5\n        /* \"#utility.yul\":4371:4464   */\n      tag_108\n      jump\t// in\n    tag_142:\n        /* \"#utility.yul\":4364:4464   */\n      swap2\n      pop\n        /* \"#utility.yul\":4481:4484   */\n      dup2\n        /* \"#utility.yul\":4474:4484   */\n      swap1\n      pop\n        /* \"#utility.yul\":4219:4490   */\n      swap3\n      swap2\n      pop\n      pop\n      jump\t// out\n        /* \"#utility.yul\":4496:5175   */\n    tag_27:\n        /* \"#utility.yul\":4692:4695   */\n      0x00\n        /* \"#utility.yul\":4707:4782   */\n      tag_144\n        /* \"#utility.yul\":4778:4781   */\n      dup3\n        /* \"#utility.yul\":4769:4775   */\n      dup8\n        /* \"#utility.yul\":4707:4782   */\n      tag_136\n      jump\t// in\n    tag_144:\n        /* \"#utility.yul\":4807:4809   */\n      0x20\n        /* \"#utility.yul\":4802:4805   */\n      dup3\n        /* \"#utility.yul\":4798:4810   */\n      add\n        /* \"#utility.yul\":4791:4810   */\n      swap2\n      pop\n        /* \"#utility.yul\":4820:4895   */\n      tag_145\n        /* \"#utility.yul\":4891:4894   */\n      dup3\n        /* \"#utility.yul\":4882:4888   */\n      dup7\n        /* \"#utility.yul\":4820:4895   */\n      tag_136\n      jump\t// in\n    tag_145:\n        /* \"#utility.yul\":4920:4922   */\n      0x20\n        /* \"#utility.yul\":4915:4918   */\n      dup3\n        /* \"#utility.yul\":4911:4923   */\n      add\n        /* \"#utility.yul\":4904:4923   */\n      swap2\n      pop\n        /* \"#utility.yul\":4933:5008   */\n      tag_146\n        /* \"#utility.yul\":5004:5007   */\n      dup3\n        /* \"#utility.yul\":4995:5001   */\n      dup6\n        /* \"#utility.yul\":4933:5008   */\n      tag_102\n      jump\t// in\n    tag_146:\n        /* \"#utility.yul\":5033:5035   */\n      0x14\n        /* \"#utility.yul\":5028:5031   */\n      dup3\n        /* \"#utility.yul\":5024:5036   */\n      add\n        /* \"#utility.yul\":5017:5036   */\n      swap2\n      pop\n        /* \"#utility.yul\":5046:5121   */\n      tag_147\n        /* \"#utility.yul\":5117:5120   */\n      dup3\n        /* \"#utility.yul\":5108:5114   */\n      dup5\n        /* \"#utility.yul\":5046:5121   */\n      tag_136\n      jump\t// in\n    tag_147:\n        /* \"#utility.yul\":5146:5148   */\n      0x20\n        /* \"#utility.yul\":5141:5144   */\n      dup3\n        /* \"#utility.yul\":5137:5149   */\n      add\n        /* \"#utility.yul\":5130:5149   */\n      swap2\n      pop\n        /* \"#utility.yul\":5166:5169   */\n      dup2\n        /* \"#utility.yul\":5159:5169   */\n      swap1\n      pop\n        /* \"#utility.yul\":4496:5175   */\n      swap6\n      swap5\n      pop\n      pop\n      pop\n      pop\n      pop\n      jump\t// out\n        /* \"#utility.yul\":5181:5600   */\n    tag_48:\n        /* \"#utility.yul\":5347:5351   */\n      0x00\n        /* \"#utility.yul\":5385:5387   */\n      0x20\n        /* \"#utility.yul\":5374:5383   */\n      dup3\n        /* \"#utility.yul\":5370:5388   */\n      add\n        /* \"#utility.yul\":5362:5388   */\n      swap1\n      pop\n        /* \"#utility.yul\":5434:5443   */\n      dup2\n        /* \"#utility.yul\":5428:5432   */\n      dup2\n        /* \"#utility.yul\":5424:5444   */\n      sub\n        /* \"#utility.yul\":5420:5421   */\n      0x00\n        /* \"#utility.yul\":5409:5418   */\n      dup4\n        /* \"#utility.yul\":5405:5422   */\n      add\n        /* \"#utility.yul\":5398:5445   */\n      mstore\n        /* \"#utility.yul\":5462:5593   */\n      tag_149\n        /* \"#utility.yul\":5588:5592   */\n      dup2\n        /* \"#utility.yul\":5462:5593   */\n      tag_116\n      jump\t// in\n    tag_149:\n        /* \"#utility.yul\":5454:5593   */\n      swap1\n      pop\n        /* \"#utility.yul\":5181:5600   */\n      swap2\n      swap1\n      pop\n      jump\t// out\n        /* \"#utility.yul\":5606:6025   */\n    tag_45:\n        /* \"#utility.yul\":5772:5776   */\n      0x00\n        /* \"#utility.yul\":5810:5812   */\n      0x20\n        /* \"#utility.yul\":5799:5808   */\n      dup3\n        /* \"#utility.yul\":5795:5813   */\n      add\n        /* \"#utility.yul\":5787:5813   */\n      swap1\n      pop\n        /* \"#utility.yul\":5859:5868   */\n      dup2\n        /* \"#utility.yul\":5853:5857   */\n      dup2\n        /* \"#utility.yul\":5849:5869   */\n      sub\n        /* \"#utility.yul\":5845:5846   */\n      0x00\n        /* \"#utility.yul\":5834:5843   */\n      dup4\n        /* \"#utility.yul\":5830:5847   */\n      add\n        /* \"#utility.yul\":5823:5870   */\n      mstore\n        /* \"#utility.yul\":5887:6018   */\n      tag_151\n        /* \"#utility.yul\":6013:6017   */\n      dup2\n        /* \"#utility.yul\":5887:6018   */\n      tag_122\n      jump\t// in\n    tag_151:\n        /* \"#utility.yul\":5879:6018   */\n      swap1\n      pop\n        /* \"#utility.yul\":5606:6025   */\n      swap2\n      swap1\n      pop\n      jump\t// out\n        /* \"#utility.yul\":6031:6450   */\n    tag_39:\n        /* \"#utility.yul\":6197:6201   */\n      0x00\n        /* \"#utility.yul\":6235:6237   */\n      0x20\n        /* \"#utility.yul\":6224:6233   */\n      dup3\n        /* \"#utility.yul\":6220:6238   */\n      add\n        /* \"#utility.yul\":6212:6238   */\n      swap1\n      pop\n        /* \"#utility.yul\":6284:6293   */\n      dup2\n        /* \"#utility.yul\":6278:6282   */\n      dup2\n        /* \"#utility.yul\":6274:6294   */\n      sub\n        /* \"#utility.yul\":6270:6271   */\n      0x00\n        /* \"#utility.yul\":6259:6268   */\n      dup4\n        /* \"#utility.yul\":6255:6272   */\n      add\n        /* \"#utility.yul\":6248:6295   */\n      mstore\n        /* \"#utility.yul\":6312:6443   */\n      tag_153\n        /* \"#utility.yul\":6438:6442   */\n      dup2\n        /* \"#utility.yul\":6312:6443   */\n      tag_127\n      jump\t// in\n    tag_153:\n        /* \"#utility.yul\":6304:6443   */\n      swap1\n      pop\n        /* \"#utility.yul\":6031:6450   */\n      swap2\n      swap1\n      pop\n      jump\t// out\n        /* \"#utility.yul\":6456:6678   */\n    tag_16:\n        /* \"#utility.yul\":6549:6553   */\n      0x00\n        /* \"#utility.yul\":6587:6589   */\n      0x20\n        /* \"#utility.yul\":6576:6585   */\n      dup3\n        /* \"#utility.yul\":6572:6590   */\n      add\n        /* \"#utility.yul\":6564:6590   */\n      swap1\n      pop\n        /* \"#utility.yul\":6600:6671   */\n      tag_155\n        /* \"#utility.yul\":6668:6669   */\n      0x00\n        /* \"#utility.yul\":6657:6666   */\n      dup4\n        /* \"#utility.yul\":6653:6670   */\n      add\n        /* \"#utility.yul\":6644:6650   */\n      dup5\n        /* \"#utility.yul\":6600:6671   */\n      tag_132\n      jump\t// in\n    tag_155:\n        /* \"#utility.yul\":6456:6678   */\n      swap3\n      swap2\n      pop\n      pop\n      jump\t// out\n        /* \"#utility.yul\":6684:6813   */\n    tag_66:\n        /* \"#utility.yul\":6718:6724   */\n      0x00\n        /* \"#utility.yul\":6745:6765   */\n      tag_157\n      tag_158\n      jump\t// in\n    tag_157:\n        /* \"#utility.yul\":6735:6765   */\n      swap1\n      pop\n        /* \"#utility.yul\":6774:6807   */\n      tag_159\n        /* \"#utility.yul\":6802:6806   */\n      dup3\n        /* \"#utility.yul\":6794:6800   */\n      dup3\n        /* \"#utility.yul\":6774:6807   */\n      tag_160\n      jump\t// in\n    tag_159:\n        /* \"#utility.yul\":6684:6813   */\n      swap2\n      swap1\n      pop\n      jump\t// out\n        /* \"#utility.yul\":6819:6894   */\n    tag_158:\n        /* \"#utility.yul\":6852:6858   */\n      0x00\n        /* \"#utility.yul\":6885:6887   */\n      0x40\n        /* \"#utility.yul\":6879:6888   */\n      mload\n        /* \"#utility.yul\":6869:6888   */\n      swap1\n      pop\n        /* \"#utility.yul\":6819:6894   */\n      swap1\n      jump\t// out\n        /* \"#utility.yul\":6900:7208   */\n    tag_65:\n        /* \"#utility.yul\":6962:6966   */\n      0x00\n        /* \"#utility.yul\":7052:7070   */\n      0xffffffffffffffff\n        /* \"#utility.yul\":7044:7050   */\n      dup3\n        /* \"#utility.yul\":7041:7071   */\n      gt\n        /* \"#utility.yul\":7038:7094   */\n      iszero\n      tag_163\n      jumpi\n        /* \"#utility.yul\":7074:7092   */\n      tag_164\n      tag_165\n      jump\t// in\n    tag_164:\n        /* \"#utility.yul\":7038:7094   */\n    tag_163:\n        /* \"#utility.yul\":7112:7141   */\n      tag_166\n        /* \"#utility.yul\":7134:7140   */\n      dup3\n        /* \"#utility.yul\":7112:7141   */\n      tag_167\n      jump\t// in\n    tag_166:\n        /* \"#utility.yul\":7104:7141   */\n      swap1\n      pop\n        /* \"#utility.yul\":7196:7200   */\n      0x20\n        /* \"#utility.yul\":7190:7194   */\n      dup2\n        /* \"#utility.yul\":7186:7201   */\n      add\n        /* \"#utility.yul\":7178:7201   */\n      swap1\n      pop\n        /* \"#utility.yul\":6900:7208   */\n      swap2\n      swap1\n      pop\n      jump\t// out\n        /* \"#utility.yul\":7214:7312   */\n    tag_111:\n        /* \"#utility.yul\":7265:7271   */\n      0x00\n        /* \"#utility.yul\":7299:7304   */\n      dup2\n        /* \"#utility.yul\":7293:7305   */\n      mload\n        /* \"#utility.yul\":7283:7305   */\n      swap1\n      pop\n        /* \"#utility.yul\":7214:7312   */\n      swap2\n      swap1\n      pop\n      jump\t// out\n        /* \"#utility.yul\":7318:7465   */\n    tag_113:\n        /* \"#utility.yul\":7419:7430   */\n      0x00\n        /* \"#utility.yul\":7456:7459   */\n      dup2\n        /* \"#utility.yul\":7441:7459   */\n      swap1\n      pop\n        /* \"#utility.yul\":7318:7465   */\n      swap3\n      swap2\n      pop\n      pop\n      jump\t// out\n        /* \"#utility.yul\":7471:7640   */\n    tag_119:\n        /* \"#utility.yul\":7555:7566   */\n      0x00\n        /* \"#utility.yul\":7589:7595   */\n      dup3\n        /* \"#utility.yul\":7584:7587   */\n      dup3\n        /* \"#utility.yul\":7577:7596   */\n      mstore\n        /* \"#utility.yul\":7629:7633   */\n      0x20\n        /* \"#utility.yul\":7624:7627   */\n      dup3\n        /* \"#utility.yul\":7620:7634   */\n      add\n        /* \"#utility.yul\":7605:7634   */\n      swap1\n      pop\n        /* \"#utility.yul\":7471:7640   */\n      swap3\n      swap2\n      pop\n      pop\n      jump\t// out\n        /* \"#utility.yul\":7646:7742   */\n    tag_106:\n        /* \"#utility.yul\":7683:7690   */\n      0x00\n        /* \"#utility.yul\":7712:7736   */\n      tag_172\n        /* \"#utility.yul\":7730:7735   */\n      dup3\n        /* \"#utility.yul\":7712:7736   */\n      tag_173\n      jump\t// in\n    tag_172:\n        /* \"#utility.yul\":7701:7736   */\n      swap1\n      pop\n        /* \"#utility.yul\":7646:7742   */\n      swap2\n      swap1\n      pop\n      jump\t// out\n        /* \"#utility.yul\":7748:7838   */\n    tag_174:\n        /* \"#utility.yul\":7782:7789   */\n      0x00\n        /* \"#utility.yul\":7825:7830   */\n      dup2\n        /* \"#utility.yul\":7818:7831   */\n      iszero\n        /* \"#utility.yul\":7811:7832   */\n      iszero\n        /* \"#utility.yul\":7800:7832   */\n      swap1\n      pop\n        /* \"#utility.yul\":7748:7838   */\n      swap2\n      swap1\n      pop\n      jump\t// out\n        /* \"#utility.yul\":7844:7921   */\n    tag_176:\n        /* \"#utility.yul\":7881:7888   */\n      0x00\n        /* \"#utility.yul\":7910:7915   */\n      dup2\n        /* \"#utility.yul\":7899:7915   */\n      swap1\n      pop\n        /* \"#utility.yul\":7844:7921   */\n      swap2\n      swap1\n      pop\n      jump\t// out\n        /* \"#utility.yul\":7927:8053   */\n    tag_173:\n        /* \"#utility.yul\":7964:7971   */\n      0x00\n        /* \"#utility.yul\":8004:8046   */\n      0xffffffffffffffffffffffffffffffffffffffff\n        /* \"#utility.yul\":7997:8002   */\n      dup3\n        /* \"#utility.yul\":7993:8047   */\n      and\n        /* \"#utility.yul\":7982:8047   */\n      swap1\n      pop\n        /* \"#utility.yul\":7927:8053   */\n      swap2\n      swap1\n      pop\n      jump\t// out\n        /* \"#utility.yul\":8059:8136   */\n    tag_135:\n        /* \"#utility.yul\":8096:8103   */\n      0x00\n        /* \"#utility.yul\":8125:8130   */\n      dup2\n        /* \"#utility.yul\":8114:8130   */\n      swap1\n      pop\n        /* \"#utility.yul\":8059:8136   */\n      swap2\n      swap1\n      pop\n      jump\t// out\n        /* \"#utility.yul\":8142:8296   */\n    tag_71:\n        /* \"#utility.yul\":8226:8232   */\n      dup3\n        /* \"#utility.yul\":8221:8224   */\n      dup2\n        /* \"#utility.yul\":8216:8219   */\n      dup4\n        /* \"#utility.yul\":8203:8233   */\n      calldatacopy\n        /* \"#utility.yul\":8288:8289   */\n      0x00\n        /* \"#utility.yul\":8279:8285   */\n      dup4\n        /* \"#utility.yul\":8274:8277   */\n      dup4\n        /* \"#utility.yul\":8270:8286   */\n      add\n        /* \"#utility.yul\":8263:8290   */\n      mstore\n        /* \"#utility.yul\":8142:8296   */\n      pop\n      pop\n      pop\n      jump\t// out\n        /* \"#utility.yul\":8302:8609   */\n    tag_115:\n        /* \"#utility.yul\":8370:8371   */\n      0x00\n        /* \"#utility.yul\":8380:8493   */\n    tag_182:\n        /* \"#utility.yul\":8394:8400   */\n      dup4\n        /* \"#utility.yul\":8391:8392   */\n      dup2\n        /* \"#utility.yul\":8388:8401   */\n      lt\n        /* \"#utility.yul\":8380:8493   */\n      iszero\n      tag_184\n      jumpi\n        /* \"#utility.yul\":8479:8480   */\n      dup1\n        /* \"#utility.yul\":8474:8477   */\n      dup3\n        /* \"#utility.yul\":8470:8481   */\n      add\n        /* \"#utility.yul\":8464:8482   */\n      mload\n        /* \"#utility.yul\":8460:8461   */\n      dup2\n        /* \"#utility.yul\":8455:8458   */\n      dup5\n        /* \"#utility.yul\":8451:8462   */\n      add\n        /* \"#utility.yul\":8444:8483   */\n      mstore\n        /* \"#utility.yul\":8416:8418   */\n      0x20\n        /* \"#utility.yul\":8413:8414   */\n      dup2\n        /* \"#utility.yul\":8409:8419   */\n      add\n        /* \"#utility.yul\":8404:8419   */\n      swap1\n      pop\n        /* \"#utility.yul\":8380:8493   */\n      jump(tag_182)\n    tag_184:\n        /* \"#utility.yul\":8511:8517   */\n      dup4\n        /* \"#utility.yul\":8508:8509   */\n      dup2\n        /* \"#utility.yul\":8505:8518   */\n      gt\n        /* \"#utility.yul\":8502:8603   */\n      iszero\n      tag_185\n      jumpi\n        /* \"#utility.yul\":8591:8592   */\n      0x00\n        /* \"#utility.yul\":8582:8588   */\n      dup5\n        /* \"#utility.yul\":8577:8580   */\n      dup5\n        /* \"#utility.yul\":8573:8589   */\n      add\n        /* \"#utility.yul\":8566:8593   */\n      mstore\n        /* \"#utility.yul\":8502:8603   */\n    tag_185:\n        /* \"#utility.yul\":8351:8609   */\n      pop\n        /* \"#utility.yul\":8302:8609   */\n      pop\n      pop\n      pop\n      jump\t// out\n        /* \"#utility.yul\":8615:8935   */\n    tag_50:\n        /* \"#utility.yul\":8659:8665   */\n      0x00\n        /* \"#utility.yul\":8696:8697   */\n      0x02\n        /* \"#utility.yul\":8690:8694   */\n      dup3\n        /* \"#utility.yul\":8686:8698   */\n      div\n        /* \"#utility.yul\":8676:8698   */\n      swap1\n      pop\n        /* \"#utility.yul\":8743:8744   */\n      0x01\n        /* \"#utility.yul\":8737:8741   */\n      dup3\n        /* \"#utility.yul\":8733:8745   */\n      and\n        /* \"#utility.yul\":8764:8782   */\n      dup1\n        /* \"#utility.yul\":8754:8835   */\n      tag_187\n      jumpi\n        /* \"#utility.yul\":8820:8824   */\n      0x7f\n        /* \"#utility.yul\":8812:8818   */\n      dup3\n        /* \"#utility.yul\":8808:8825   */\n      and\n        /* \"#utility.yul\":8798:8825   */\n      swap2\n      pop\n        /* \"#utility.yul\":8754:8835   */\n    tag_187:\n        /* \"#utility.yul\":8882:8884   */\n      0x20\n        /* \"#utility.yul\":8874:8880   */\n      dup3\n        /* \"#utility.yul\":8871:8885   */\n      lt\n        /* \"#utility.yul\":8851:8869   */\n      dup2\n        /* \"#utility.yul\":8848:8886   */\n      eq\n        /* \"#utility.yul\":8845:8929   */\n      iszero\n      tag_188\n      jumpi\n        /* \"#utility.yul\":8901:8919   */\n      tag_189\n      tag_190\n      jump\t// in\n    tag_189:\n        /* \"#utility.yul\":8845:8929   */\n    tag_188:\n        /* \"#utility.yul\":8666:8935   */\n      pop\n        /* \"#utility.yul\":8615:8935   */\n      swap2\n      swap1\n      pop\n      jump\t// out\n        /* \"#utility.yul\":8941:9222   */\n    tag_160:\n        /* \"#utility.yul\":9024:9051   */\n      tag_192\n        /* \"#utility.yul\":9046:9050   */\n      dup3\n        /* \"#utility.yul\":9024:9051   */\n      tag_167\n      jump\t// in\n    tag_192:\n        /* \"#utility.yul\":9016:9022   */\n      dup2\n        /* \"#utility.yul\":9012:9052   */\n      add\n        /* \"#utility.yul\":9154:9160   */\n      dup2\n        /* \"#utility.yul\":9142:9152   */\n      dup2\n        /* \"#utility.yul\":9139:9161   */\n      lt\n        /* \"#utility.yul\":9118:9136   */\n      0xffffffffffffffff\n        /* \"#utility.yul\":9106:9116   */\n      dup3\n        /* \"#utility.yul\":9103:9137   */\n      gt\n        /* \"#utility.yul\":9100:9162   */\n      or\n        /* \"#utility.yul\":9097:9185   */\n      iszero\n      tag_193\n      jumpi\n        /* \"#utility.yul\":9165:9183   */\n      tag_194\n      tag_165\n      jump\t// in\n    tag_194:\n        /* \"#utility.yul\":9097:9185   */\n    tag_193:\n        /* \"#utility.yul\":9205:9215   */\n      dup1\n        /* \"#utility.yul\":9201:9203   */\n      0x40\n        /* \"#utility.yul\":9194:9216   */\n      mstore\n        /* \"#utility.yul\":8984:9222   */\n      pop\n        /* \"#utility.yul\":8941:9222   */\n      pop\n      pop\n      jump\t// out\n        /* \"#utility.yul\":9228:9328   */\n    tag_107:\n        /* \"#utility.yul\":9267:9274   */\n      0x00\n        /* \"#utility.yul\":9296:9322   */\n      tag_196\n        /* \"#utility.yul\":9316:9321   */\n      dup3\n        /* \"#utility.yul\":9296:9322   */\n      tag_197\n      jump\t// in\n    tag_196:\n        /* \"#utility.yul\":9285:9322   */\n      swap1\n      pop\n        /* \"#utility.yul\":9228:9328   */\n      swap2\n      swap1\n      pop\n      jump\t// out\n        /* \"#utility.yul\":9334:9428   */\n    tag_197:\n        /* \"#utility.yul\":9373:9380   */\n      0x00\n        /* \"#utility.yul\":9402:9422   */\n      tag_199\n        /* \"#utility.yul\":9416:9421   */\n      dup3\n        /* \"#utility.yul\":9402:9422   */\n      tag_200\n      jump\t// in\n    tag_199:\n        /* \"#utility.yul\":9391:9422   */\n      swap1\n      pop\n        /* \"#utility.yul\":9334:9428   */\n      swap2\n      swap1\n      pop\n      jump\t// out\n        /* \"#utility.yul\":9434:9513   */\n    tag_140:\n        /* \"#utility.yul\":9473:9480   */\n      0x00\n        /* \"#utility.yul\":9502:9507   */\n      dup2\n        /* \"#utility.yul\":9491:9507   */\n      swap1\n      pop\n        /* \"#utility.yul\":9434:9513   */\n      swap2\n      swap1\n      pop\n      jump\t// out\n        /* \"#utility.yul\":9519:9699   */\n    tag_190:\n        /* \"#utility.yul\":9567:9644   */\n      0x4e487b7100000000000000000000000000000000000000000000000000000000\n        /* \"#utility.yul\":9564:9565   */\n      0x00\n        /* \"#utility.yul\":9557:9645   */\n      mstore\n        /* \"#utility.yul\":9664:9668   */\n      0x22\n        /* \"#utility.yul\":9661:9662   */\n      0x04\n        /* \"#utility.yul\":9654:9669   */\n      mstore\n        /* \"#utility.yul\":9688:9692   */\n      0x24\n        /* \"#utility.yul\":9685:9686   */\n      0x00\n        /* \"#utility.yul\":9678:9693   */\n      revert\n        /* \"#utility.yul\":9705:9885   */\n    tag_165:\n        /* \"#utility.yul\":9753:9830   */\n      0x4e487b7100000000000000000000000000000000000000000000000000000000\n        /* \"#utility.yul\":9750:9751   */\n      0x00\n        /* \"#utility.yul\":9743:9831   */\n      mstore\n        /* \"#utility.yul\":9850:9854   */\n      0x41\n        /* \"#utility.yul\":9847:9848   */\n      0x04\n        /* \"#utility.yul\":9840:9855   */\n      mstore\n        /* \"#utility.yul\":9874:9878   */\n      0x24\n        /* \"#utility.yul\":9871:9872   */\n      0x00\n        /* \"#utility.yul\":9864:9879   */\n      revert\n        /* \"#utility.yul\":9891:10008   */\n    tag_84:\n        /* \"#utility.yul\":10000:10001   */\n      0x00\n        /* \"#utility.yul\":9997:9998   */\n      dup1\n        /* \"#utility.yul\":9990:10002   */\n      revert\n        /* \"#utility.yul\":10014:10131   */\n    tag_69:\n        /* \"#utility.yul\":10123:10124   */\n      0x00\n        /* \"#utility.yul\":10120:10121   */\n      dup1\n        /* \"#utility.yul\":10113:10125   */\n      revert\n        /* \"#utility.yul\":10137:10254   */\n    tag_100:\n        /* \"#utility.yul\":10246:10247   */\n      0x00\n        /* \"#utility.yul\":10243:10244   */\n      dup1\n        /* \"#utility.yul\":10236:10248   */\n      revert\n        /* \"#utility.yul\":10260:10377   */\n    tag_89:\n        /* \"#utility.yul\":10369:10370   */\n      0x00\n        /* \"#utility.yul\":10366:10367   */\n      dup1\n        /* \"#utility.yul\":10359:10371   */\n      revert\n        /* \"#utility.yul\":10383:10485   */\n    tag_167:\n        /* \"#utility.yul\":10424:10430   */\n      0x00\n        /* \"#utility.yul\":10475:10477   */\n      0x1f\n        /* \"#utility.yul\":10471:10478   */\n      not\n        /* \"#utility.yul\":10466:10468   */\n      0x1f\n        /* \"#utility.yul\":10459:10464   */\n      dup4\n        /* \"#utility.yul\":10455:10469   */\n      add\n        /* \"#utility.yul\":10451:10479   */\n      and\n        /* \"#utility.yul\":10441:10479   */\n      swap1\n      pop\n        /* \"#utility.yul\":10383:10485   */\n      swap2\n      swap1\n      pop\n      jump\t// out\n        /* \"#utility.yul\":10491:10585   */\n    tag_200:\n        /* \"#utility.yul\":10524:10532   */\n      0x00\n        /* \"#utility.yul\":10572:10577   */\n      dup2\n        /* \"#utility.yul\":10568:10570   */\n      0x60\n        /* \"#utility.yul\":10564:10578   */\n      shl\n        /* \"#utility.yul\":10543:10578   */\n      swap1\n      pop\n        /* \"#utility.yul\":10491:10585   */\n      swap2\n      swap1\n      pop\n      jump\t// out\n        /* \"#utility.yul\":10591:10759   */\n    tag_121:\n        /* \"#utility.yul\":10731:10751   */\n      0x416c7265616479205369676e6564207570210000000000000000000000000000\n        /* \"#utility.yul\":10727:10728   */\n      0x00\n        /* \"#utility.yul\":10719:10725   */\n      dup3\n        /* \"#utility.yul\":10715:10729   */\n      add\n        /* \"#utility.yul\":10708:10752   */\n      mstore\n        /* \"#utility.yul\":10591:10759   */\n      pop\n      jump\t// out\n        /* \"#utility.yul\":10765:10992   */\n    tag_126:\n        /* \"#utility.yul\":10905:10939   */\n      0x5369676e2d75702072656a65637465642120496e616465717561746520737461\n        /* \"#utility.yul\":10901:10902   */\n      0x00\n        /* \"#utility.yul\":10893:10899   */\n      dup3\n        /* \"#utility.yul\":10889:10903   */\n      add\n        /* \"#utility.yul\":10882:10940   */\n      mstore\n        /* \"#utility.yul\":10974:10984   */\n      0x6b652076616c7565000000000000000000000000000000000000000000000000\n        /* \"#utility.yul\":10969:10971   */\n      0x20\n        /* \"#utility.yul\":10961:10967   */\n      dup3\n        /* \"#utility.yul\":10957:10972   */\n      add\n        /* \"#utility.yul\":10950:10985   */\n      mstore\n        /* \"#utility.yul\":10765:10992   */\n      pop\n      jump\t// out\n        /* \"#utility.yul\":10998:11162   */\n    tag_131:\n        /* \"#utility.yul\":11138:11154   */\n      0x4e6f74207369676e656420757021000000000000000000000000000000000000\n        /* \"#utility.yul\":11134:11135   */\n      0x00\n        /* \"#utility.yul\":11126:11132   */\n      dup3\n        /* \"#utility.yul\":11122:11136   */\n      add\n        /* \"#utility.yul\":11115:11155   */\n      mstore\n        /* \"#utility.yul\":10998:11162   */\n      pop\n      jump\t// out\n        /* \"#utility.yul\":11168:11284   */\n    tag_75:\n        /* \"#utility.yul\":11238:11259   */\n      tag_214\n        /* \"#utility.yul\":11253:11258   */\n      dup2\n        /* \"#utility.yul\":11238:11259   */\n      tag_174\n      jump\t// in\n    tag_214:\n        /* \"#utility.yul\":11231:11236   */\n      dup2\n        /* \"#utility.yul\":11228:11260   */\n      eq\n        /* \"#utility.yul\":11218:11278   */\n      tag_215\n      jumpi\n        /* \"#utility.yul\":11274:11275   */\n      0x00\n        /* \"#utility.yul\":11271:11272   */\n      dup1\n        /* \"#utility.yul\":11264:11276   */\n      revert\n        /* \"#utility.yul\":11218:11278   */\n    tag_215:\n        /* \"#utility.yul\":11168:11284   */\n      pop\n      jump\t// out\n        /* \"#utility.yul\":11290:11412   */\n    tag_79:\n        /* \"#utility.yul\":11363:11387   */\n      tag_217\n        /* \"#utility.yul\":11381:11386   */\n      dup2\n        /* \"#utility.yul\":11363:11387   */\n      tag_176\n      jump\t// in\n    tag_217:\n        /* \"#utility.yul\":11356:11361   */\n      dup2\n        /* \"#utility.yul\":11353:11388   */\n      eq\n        /* \"#utility.yul\":11343:11406   */\n      tag_218\n      jumpi\n        /* \"#utility.yul\":11402:11403   */\n      0x00\n        /* \"#utility.yul\":11399:11400   */\n      dup1\n        /* \"#utility.yul\":11392:11404   */\n      revert\n        /* \"#utility.yul\":11343:11406   */\n    tag_218:\n        /* \"#utility.yul\":11290:11412   */\n      pop\n      jump\t// out\n\n    auxdata: 0xa26469706673582212201ef96d5e9328243e2298e0ad4bd0fc69e975aadeba928464e22dd82e3bf9891d64736f6c63430008070033\n}\n",
				"bytecode": {
					"linkReferences": {},
					"object": "608060405234801561001057600080fd5b50610b11806100206000396000f3fe60806040526004361061003f5760003560e01c80634b9f5c9814610044578063969b15671461006d578063c09f8ff61461009d578063c4fb3337146100b4575b600080fd5b34801561005057600080fd5b5061006b60048036038101906100669190610580565b6100d2565b005b610087600480360381019061008291906105da565b6100d5565b60405161009491906107bf565b60405180910390f35b3480156100a957600080fd5b506100b2610230565b005b6100bc610362565b6040516100c991906107bf565b60405180910390f35b50565b6000678ac7230489e800003410156100ec57600080fd5b600060024244336003546040516020016101099493929190610711565b60405160208183030381529060405260405161012591906106fa565b602060405180830381855afa158015610142573d6000803e3d6000fd5b5050506040513d601f19601f8201168201806040525081019061016591906105ad565b60001c90508060016000600454815260200190815260200160002060010181905550600454600160006004548152602001908152602001600020600001819055503360016000600454815260200190815260200160002060040160006101000a81548173ffffffffffffffffffffffffffffffffffffffff021916908373ffffffffffffffffffffffffffffffffffffffff160217905550826001600060045481526020019081526020016000206003019080519060200190610229929190610443565b5050919050565b600115156000803373ffffffffffffffffffffffffffffffffffffffff1673ffffffffffffffffffffffffffffffffffffffff16815260200190815260200160002060009054906101000a900460ff161515146102c2576040517f08c379a00000000000000000000000000000000000000000000000000000000081526004016102b99061079f565b60405180910390fd5b600015156000803373ffffffffffffffffffffffffffffffffffffffff1673ffffffffffffffffffffffffffffffffffffffff16815260200190815260200160002060009054906101000a905050503373ffffffffffffffffffffffffffffffffffffffff166108fc670de0b6b3a76400009081150290604051600060405180830381858888f1935050505015801561035f573d6000803e3d6000fd5b50565b6000670de0b6b3a764000034146103ae576040517f08c379a00000000000000000000000000000000000000000000000000000000081526004016103a59061077f565b60405180910390fd5b600015156000803373ffffffffffffffffffffffffffffffffffffffff1673ffffffffffffffffffffffffffffffffffffffff16815260200190815260200160002060009054906101000a900460ff16151514610440576040517f08c379a00000000000000000000000000000000000000000000000000000000081526004016104379061075f565b60405180910390fd5b90565b82805461044f906108eb565b90600052602060002090601f01602090048101928261047157600085556104b8565b82601f1061048a57805160ff19168380011785556104b8565b828001600101855582156104b8579182015b828111156104b757825182559160200191906001019061049c565b5b5090506104c591906104c9565b5090565b5b808211156104e25760008160009055506001016104ca565b5090565b60006104f96104f4846107ff565b6107da565b905082815260208101848484011115610515576105146109df565b5b6105208482856108a9565b509392505050565b60008135905061053781610aad565b92915050565b60008151905061054c81610ac4565b92915050565b600082601f830112610567576105666109da565b5b81356105778482602086016104e6565b91505092915050565b600060208284031215610596576105956109e9565b5b60006105a484828501610528565b91505092915050565b6000602082840312156105c3576105c26109e9565b5b60006105d18482850161053d565b91505092915050565b6000602082840312156105f0576105ef6109e9565b5b600082013567ffffffffffffffff81111561060e5761060d6109e4565b5b61061a84828501610552565b91505092915050565b61063461062f82610857565b61094e565b82525050565b600061064582610830565b61064f818561083b565b935061065f8185602086016108b8565b80840191505092915050565b6000610678601283610846565b915061068382610a0c565b602082019050919050565b600061069b602883610846565b91506106a682610a35565b604082019050919050565b60006106be600e83610846565b91506106c982610a84565b602082019050919050565b6106dd8161089f565b82525050565b6106f46106ef8261089f565b610972565b82525050565b6000610706828461063a565b915081905092915050565b600061071d82876106e3565b60208201915061072d82866106e3565b60208201915061073d8285610623565b60148201915061074d82846106e3565b60208201915081905095945050505050565b600060208201905081810360008301526107788161066b565b9050919050565b600060208201905081810360008301526107988161068e565b9050919050565b600060208201905081810360008301526107b8816106b1565b9050919050565b60006020820190506107d460008301846106d4565b92915050565b60006107e46107f5565b90506107f0828261091d565b919050565b6000604051905090565b600067ffffffffffffffff82111561081a576108196109ab565b5b610823826109ee565b9050602081019050919050565b600081519050919050565b600081905092915050565b600082825260208201905092915050565b60006108628261087f565b9050919050565b60008115159050919050565b6000819050919050565b600073ffffffffffffffffffffffffffffffffffffffff82169050919050565b6000819050919050565b82818337600083830152505050565b60005b838110156108d65780820151818401526020810190506108bb565b838111156108e5576000848401525b50505050565b6000600282049050600182168061090357607f821691505b602082108114156109175761091661097c565b5b50919050565b610926826109ee565b810181811067ffffffffffffffff82111715610945576109446109ab565b5b80604052505050565b600061095982610960565b9050919050565b600061096b826109ff565b9050919050565b6000819050919050565b7f4e487b7100000000000000000000000000000000000000000000000000000000600052602260045260246000fd5b7f4e487b7100000000000000000000000000000000000000000000000000000000600052604160045260246000fd5b600080fd5b600080fd5b600080fd5b600080fd5b6000601f19601f8301169050919050565b60008160601b9050919050565b7f416c7265616479205369676e6564207570210000000000000000000000000000600082015250565b7f5369676e2d75702072656a65637465642120496e61646571756174652073746160008201527f6b652076616c7565000000000000000000000000000000000000000000000000602082015250565b7f4e6f74207369676e656420757021000000000000000000000000000000000000600082015250565b610ab681610869565b8114610ac157600080fd5b50565b610acd81610875565b8114610ad857600080fd5b5056fea26469706673582212201ef96d5e9328243e2298e0ad4bd0fc69e975aadeba928464e22dd82e3bf9891d64736f6c63430008070033",
					"opcodes": "PUSH1 0x80 PUSH1 0x40 MSTORE CALLVALUE DUP1 ISZERO PUSH2 0x10 JUMPI PUSH1 0x0 DUP1 REVERT JUMPDEST POP PUSH2 0xB11 DUP1 PUSH2 0x20 PUSH1 0x0 CODECOPY PUSH1 0x0 RETURN INVALID PUSH1 0x80 PUSH1 0x40 MSTORE PUSH1 0x4 CALLDATASIZE LT PUSH2 0x3F JUMPI PUSH1 0x0 CALLDATALOAD PUSH1 0xE0 SHR DUP1 PUSH4 0x4B9F5C98 EQ PUSH2 0x44 JUMPI DUP1 PUSH4 0x969B1567 EQ PUSH2 0x6D JUMPI DUP1 PUSH4 0xC09F8FF6 EQ PUSH2 0x9D JUMPI DUP1 PUSH4 0xC4FB3337 EQ PUSH2 0xB4 JUMPI JUMPDEST PUSH1 0x0 DUP1 REVERT JUMPDEST CALLVALUE DUP1 ISZERO PUSH2 0x50 JUMPI PUSH1 0x0 DUP1 REVERT JUMPDEST POP PUSH2 0x6B PUSH1 0x4 DUP1 CALLDATASIZE SUB DUP2 ADD SWAP1 PUSH2 0x66 SWAP2 SWAP1 PUSH2 0x580 JUMP JUMPDEST PUSH2 0xD2 JUMP JUMPDEST STOP JUMPDEST PUSH2 0x87 PUSH1 0x4 DUP1 CALLDATASIZE SUB DUP2 ADD SWAP1 PUSH2 0x82 SWAP2 SWAP1 PUSH2 0x5DA JUMP JUMPDEST PUSH2 0xD5 JUMP JUMPDEST PUSH1 0x40 MLOAD PUSH2 0x94 SWAP2 SWAP1 PUSH2 0x7BF JUMP JUMPDEST PUSH1 0x40 MLOAD DUP1 SWAP2 SUB SWAP1 RETURN JUMPDEST CALLVALUE DUP1 ISZERO PUSH2 0xA9 JUMPI PUSH1 0x0 DUP1 REVERT JUMPDEST POP PUSH2 0xB2 PUSH2 0x230 JUMP JUMPDEST STOP JUMPDEST PUSH2 0xBC PUSH2 0x362 JUMP JUMPDEST PUSH1 0x40 MLOAD PUSH2 0xC9 SWAP2 SWAP1 PUSH2 0x7BF JUMP JUMPDEST PUSH1 0x40 MLOAD DUP1 SWAP2 SUB SWAP1 RETURN JUMPDEST POP JUMP JUMPDEST PUSH1 0x0 PUSH8 0x8AC7230489E80000 CALLVALUE LT ISZERO PUSH2 0xEC JUMPI PUSH1 0x0 DUP1 REVERT JUMPDEST PUSH1 0x0 PUSH1 0x2 TIMESTAMP DIFFICULTY CALLER PUSH1 0x3 SLOAD PUSH1 0x40 MLOAD PUSH1 0x20 ADD PUSH2 0x109 SWAP5 SWAP4 SWAP3 SWAP2 SWAP1 PUSH2 0x711 JUMP JUMPDEST PUSH1 0x40 MLOAD PUSH1 0x20 DUP2 DUP4 SUB SUB DUP2 MSTORE SWAP1 PUSH1 0x40 MSTORE PUSH1 0x40 MLOAD PUSH2 0x125 SWAP2 SWAP1 PUSH2 0x6FA JUMP JUMPDEST PUSH1 0x20 PUSH1 0x40 MLOAD DUP1 DUP4 SUB DUP2 DUP6 GAS STATICCALL ISZERO DUP1 ISZERO PUSH2 0x142 JUMPI RETURNDATASIZE PUSH1 0x0 DUP1 RETURNDATACOPY RETURNDATASIZE PUSH1 0x0 REVERT JUMPDEST POP POP POP PUSH1 0x40 MLOAD RETURNDATASIZE PUSH1 0x1F NOT PUSH1 0x1F DUP3 ADD AND DUP3 ADD DUP1 PUSH1 0x40 MSTORE POP DUP2 ADD SWAP1 PUSH2 0x165 SWAP2 SWAP1 PUSH2 0x5AD JUMP JUMPDEST PUSH1 0x0 SHR SWAP1 POP DUP1 PUSH1 0x1 PUSH1 0x0 PUSH1 0x4 SLOAD DUP2 MSTORE PUSH1 0x20 ADD SWAP1 DUP2 MSTORE PUSH1 0x20 ADD PUSH1 0x0 KECCAK256 PUSH1 0x1 ADD DUP2 SWAP1 SSTORE POP PUSH1 0x4 SLOAD PUSH1 0x1 PUSH1 0x0 PUSH1 0x4 SLOAD DUP2 MSTORE PUSH1 0x20 ADD SWAP1 DUP2 MSTORE PUSH1 0x20 ADD PUSH1 0x0 KECCAK256 PUSH1 0x0 ADD DUP2 SWAP1 SSTORE POP CALLER PUSH1 0x1 PUSH1 0x0 PUSH1 0x4 SLOAD DUP2 MSTORE PUSH1 0x20 ADD SWAP1 DUP2 MSTORE PUSH1 0x20 ADD PUSH1 0x0 KECCAK256 PUSH1 0x4 ADD PUSH1 0x0 PUSH2 0x100 EXP DUP2 SLOAD DUP2 PUSH20 0xFFFFFFFFFFFFFFFFFFFFFFFFFFFFFFFFFFFFFFFF MUL NOT AND SWAP1 DUP4 PUSH20 0xFFFFFFFFFFFFFFFFFFFFFFFFFFFFFFFFFFFFFFFF AND MUL OR SWAP1 SSTORE POP DUP3 PUSH1 0x1 PUSH1 0x0 PUSH1 0x4 SLOAD DUP2 MSTORE PUSH1 0x20 ADD SWAP1 DUP2 MSTORE PUSH1 0x20 ADD PUSH1 0x0 KECCAK256 PUSH1 0x3 ADD SWAP1 DUP1 MLOAD SWAP1 PUSH1 0x20 ADD SWAP1 PUSH2 0x229 SWAP3 SWAP2 SWAP1 PUSH2 0x443 JUMP JUMPDEST POP POP SWAP2 SWAP1 POP JUMP JUMPDEST PUSH1 0x1 ISZERO ISZERO PUSH1 0x0 DUP1 CALLER PUSH20 0xFFFFFFFFFFFFFFFFFFFFFFFFFFFFFFFFFFFFFFFF AND PUSH20 0xFFFFFFFFFFFFFFFFFFFFFFFFFFFFFFFFFFFFFFFF AND DUP2 MSTORE PUSH1 0x20 ADD SWAP1 DUP2 MSTORE PUSH1 0x20 ADD PUSH1 0x0 KECCAK256 PUSH1 0x0 SWAP1 SLOAD SWAP1 PUSH2 0x100 EXP SWAP1 DIV PUSH1 0xFF AND ISZERO ISZERO EQ PUSH2 0x2C2 JUMPI PUSH1 0x40 MLOAD PUSH32 0x8C379A000000000000000000000000000000000000000000000000000000000 DUP2 MSTORE PUSH1 0x4 ADD PUSH2 0x2B9 SWAP1 PUSH2 0x79F JUMP JUMPDEST PUSH1 0x40 MLOAD DUP1 SWAP2 SUB SWAP1 REVERT JUMPDEST PUSH1 0x0 ISZERO ISZERO PUSH1 0x0 DUP1 CALLER PUSH20 0xFFFFFFFFFFFFFFFFFFFFFFFFFFFFFFFFFFFFFFFF AND PUSH20 0xFFFFFFFFFFFFFFFFFFFFFFFFFFFFFFFFFFFFFFFF AND DUP2 MSTORE PUSH1 0x20 ADD SWAP1 DUP2 MSTORE PUSH1 0x20 ADD PUSH1 0x0 KECCAK256 PUSH1 0x0 SWAP1 SLOAD SWAP1 PUSH2 0x100 EXP SWAP1 POP POP POP CALLER PUSH20 0xFFFFFFFFFFFFFFFFFFFFFFFFFFFFFFFFFFFFFFFF AND PUSH2 0x8FC PUSH8 0xDE0B6B3A7640000 SWAP1 DUP2 ISZERO MUL SWAP1 PUSH1 0x40 MLOAD PUSH1 0x0 PUSH1 0x40 MLOAD DUP1 DUP4 SUB DUP2 DUP6 DUP9 DUP9 CALL SWAP4 POP POP POP POP ISZERO DUP1 ISZERO PUSH2 0x35F JUMPI RETURNDATASIZE PUSH1 0x0 DUP1 RETURNDATACOPY RETURNDATASIZE PUSH1 0x0 REVERT JUMPDEST POP JUMP JUMPDEST PUSH1 0x0 PUSH8 0xDE0B6B3A7640000 CALLVALUE EQ PUSH2 0x3AE JUMPI PUSH1 0x40 MLOAD PUSH32 0x8C379A000000000000000000000000000000000000000000000000000000000 DUP2 MSTORE PUSH1 0x4 ADD PUSH2 0x3A5 SWAP1 PUSH2 0x77F JUMP JUMPDEST PUSH1 0x40 MLOAD DUP1 SWAP2 SUB SWAP1 REVERT JUMPDEST PUSH1 0x0 ISZERO ISZERO PUSH1 0x0 DUP1 CALLER PUSH20 0xFFFFFFFFFFFFFFFFFFFFFFFFFFFFFFFFFFFFFFFF AND PUSH20 0xFFFFFFFFFFFFFFFFFFFFFFFFFFFFFFFFFFFFFFFF AND DUP2 MSTORE PUSH1 0x20 ADD SWAP1 DUP2 MSTORE PUSH1 0x20 ADD PUSH1 0x0 KECCAK256 PUSH1 0x0 SWAP1 SLOAD SWAP1 PUSH2 0x100 EXP SWAP1 DIV PUSH1 0xFF AND ISZERO ISZERO EQ PUSH2 0x440 JUMPI PUSH1 0x40 MLOAD PUSH32 0x8C379A000000000000000000000000000000000000000000000000000000000 DUP2 MSTORE PUSH1 0x4 ADD PUSH2 0x437 SWAP1 PUSH2 0x75F JUMP JUMPDEST PUSH1 0x40 MLOAD DUP1 SWAP2 SUB SWAP1 REVERT JUMPDEST SWAP1 JUMP JUMPDEST DUP3 DUP1 SLOAD PUSH2 0x44F SWAP1 PUSH2 0x8EB JUMP JUMPDEST SWAP1 PUSH1 0x0 MSTORE PUSH1 0x20 PUSH1 0x0 KECCAK256 SWAP1 PUSH1 0x1F ADD PUSH1 0x20 SWAP1 DIV DUP2 ADD SWAP3 DUP3 PUSH2 0x471 JUMPI PUSH1 0x0 DUP6 SSTORE PUSH2 0x4B8 JUMP JUMPDEST DUP3 PUSH1 0x1F LT PUSH2 0x48A JUMPI DUP1 MLOAD PUSH1 0xFF NOT AND DUP4 DUP1 ADD OR DUP6 SSTORE PUSH2 0x4B8 JUMP JUMPDEST DUP3 DUP1 ADD PUSH1 0x1 ADD DUP6 SSTORE DUP3 ISZERO PUSH2 0x4B8 JUMPI SWAP2 DUP3 ADD JUMPDEST DUP3 DUP2 GT ISZERO PUSH2 0x4B7 JUMPI DUP3 MLOAD DUP3 SSTORE SWAP2 PUSH1 0x20 ADD SWAP2 SWAP1 PUSH1 0x1 ADD SWAP1 PUSH2 0x49C JUMP JUMPDEST JUMPDEST POP SWAP1 POP PUSH2 0x4C5 SWAP2 SWAP1 PUSH2 0x4C9 JUMP JUMPDEST POP SWAP1 JUMP JUMPDEST JUMPDEST DUP1 DUP3 GT ISZERO PUSH2 0x4E2 JUMPI PUSH1 0x0 DUP2 PUSH1 0x0 SWAP1 SSTORE POP PUSH1 0x1 ADD PUSH2 0x4CA JUMP JUMPDEST POP SWAP1 JUMP JUMPDEST PUSH1 0x0 PUSH2 0x4F9 PUSH2 0x4F4 DUP5 PUSH2 0x7FF JUMP JUMPDEST PUSH2 0x7DA JUMP JUMPDEST SWAP1 POP DUP3 DUP2 MSTORE PUSH1 0x20 DUP2 ADD DUP5 DUP5 DUP5 ADD GT ISZERO PUSH2 0x515 JUMPI PUSH2 0x514 PUSH2 0x9DF JUMP JUMPDEST JUMPDEST PUSH2 0x520 DUP5 DUP3 DUP6 PUSH2 0x8A9 JUMP JUMPDEST POP SWAP4 SWAP3 POP POP POP JUMP JUMPDEST PUSH1 0x0 DUP2 CALLDATALOAD SWAP1 POP PUSH2 0x537 DUP2 PUSH2 0xAAD JUMP JUMPDEST SWAP3 SWAP2 POP POP JUMP JUMPDEST PUSH1 0x0 DUP2 MLOAD SWAP1 POP PUSH2 0x54C DUP2 PUSH2 0xAC4 JUMP JUMPDEST SWAP3 SWAP2 POP POP JUMP JUMPDEST PUSH1 0x0 DUP3 PUSH1 0x1F DUP4 ADD SLT PUSH2 0x567 JUMPI PUSH2 0x566 PUSH2 0x9DA JUMP JUMPDEST JUMPDEST DUP2 CALLDATALOAD PUSH2 0x577 DUP5 DUP3 PUSH1 0x20 DUP7 ADD PUSH2 0x4E6 JUMP JUMPDEST SWAP2 POP POP SWAP3 SWAP2 POP POP JUMP JUMPDEST PUSH1 0x0 PUSH1 0x20 DUP3 DUP5 SUB SLT ISZERO PUSH2 0x596 JUMPI PUSH2 0x595 PUSH2 0x9E9 JUMP JUMPDEST JUMPDEST PUSH1 0x0 PUSH2 0x5A4 DUP5 DUP3 DUP6 ADD PUSH2 0x528 JUMP JUMPDEST SWAP2 POP POP SWAP3 SWAP2 POP POP JUMP JUMPDEST PUSH1 0x0 PUSH1 0x20 DUP3 DUP5 SUB SLT ISZERO PUSH2 0x5C3 JUMPI PUSH2 0x5C2 PUSH2 0x9E9 JUMP JUMPDEST JUMPDEST PUSH1 0x0 PUSH2 0x5D1 DUP5 DUP3 DUP6 ADD PUSH2 0x53D JUMP JUMPDEST SWAP2 POP POP SWAP3 SWAP2 POP POP JUMP JUMPDEST PUSH1 0x0 PUSH1 0x20 DUP3 DUP5 SUB SLT ISZERO PUSH2 0x5F0 JUMPI PUSH2 0x5EF PUSH2 0x9E9 JUMP JUMPDEST JUMPDEST PUSH1 0x0 DUP3 ADD CALLDATALOAD PUSH8 0xFFFFFFFFFFFFFFFF DUP2 GT ISZERO PUSH2 0x60E JUMPI PUSH2 0x60D PUSH2 0x9E4 JUMP JUMPDEST JUMPDEST PUSH2 0x61A DUP5 DUP3 DUP6 ADD PUSH2 0x552 JUMP JUMPDEST SWAP2 POP POP SWAP3 SWAP2 POP POP JUMP JUMPDEST PUSH2 0x634 PUSH2 0x62F DUP3 PUSH2 0x857 JUMP JUMPDEST PUSH2 0x94E JUMP JUMPDEST DUP3 MSTORE POP POP JUMP JUMPDEST PUSH1 0x0 PUSH2 0x645 DUP3 PUSH2 0x830 JUMP JUMPDEST PUSH2 0x64F DUP2 DUP6 PUSH2 0x83B JUMP JUMPDEST SWAP4 POP PUSH2 0x65F DUP2 DUP6 PUSH1 0x20 DUP7 ADD PUSH2 0x8B8 JUMP JUMPDEST DUP1 DUP5 ADD SWAP2 POP POP SWAP3 SWAP2 POP POP JUMP JUMPDEST PUSH1 0x0 PUSH2 0x678 PUSH1 0x12 DUP4 PUSH2 0x846 JUMP JUMPDEST SWAP2 POP PUSH2 0x683 DUP3 PUSH2 0xA0C JUMP JUMPDEST PUSH1 0x20 DUP3 ADD SWAP1 POP SWAP2 SWAP1 POP JUMP JUMPDEST PUSH1 0x0 PUSH2 0x69B PUSH1 0x28 DUP4 PUSH2 0x846 JUMP JUMPDEST SWAP2 POP PUSH2 0x6A6 DUP3 PUSH2 0xA35 JUMP JUMPDEST PUSH1 0x40 DUP3 ADD SWAP1 POP SWAP2 SWAP1 POP JUMP JUMPDEST PUSH1 0x0 PUSH2 0x6BE PUSH1 0xE DUP4 PUSH2 0x846 JUMP JUMPDEST SWAP2 POP PUSH2 0x6C9 DUP3 PUSH2 0xA84 JUMP JUMPDEST PUSH1 0x20 DUP3 ADD SWAP1 POP SWAP2 SWAP1 POP JUMP JUMPDEST PUSH2 0x6DD DUP2 PUSH2 0x89F JUMP JUMPDEST DUP3 MSTORE POP POP JUMP JUMPDEST PUSH2 0x6F4 PUSH2 0x6EF DUP3 PUSH2 0x89F JUMP JUMPDEST PUSH2 0x972 JUMP JUMPDEST DUP3 MSTORE POP POP JUMP JUMPDEST PUSH1 0x0 PUSH2 0x706 DUP3 DUP5 PUSH2 0x63A JUMP JUMPDEST SWAP2 POP DUP2 SWAP1 POP SWAP3 SWAP2 POP POP JUMP JUMPDEST PUSH1 0x0 PUSH2 0x71D DUP3 DUP8 PUSH2 0x6E3 JUMP JUMPDEST PUSH1 0x20 DUP3 ADD SWAP2 POP PUSH2 0x72D DUP3 DUP7 PUSH2 0x6E3 JUMP JUMPDEST PUSH1 0x20 DUP3 ADD SWAP2 POP PUSH2 0x73D DUP3 DUP6 PUSH2 0x623 JUMP JUMPDEST PUSH1 0x14 DUP3 ADD SWAP2 POP PUSH2 0x74D DUP3 DUP5 PUSH2 0x6E3 JUMP JUMPDEST PUSH1 0x20 DUP3 ADD SWAP2 POP DUP2 SWAP1 POP SWAP6 SWAP5 POP POP POP POP POP JUMP JUMPDEST PUSH1 0x0 PUSH1 0x20 DUP3 ADD SWAP1 POP DUP2 DUP2 SUB PUSH1 0x0 DUP4 ADD MSTORE PUSH2 0x778 DUP2 PUSH2 0x66B JUMP JUMPDEST SWAP1 POP SWAP2 SWAP1 POP JUMP JUMPDEST PUSH1 0x0 PUSH1 0x20 DUP3 ADD SWAP1 POP DUP2 DUP2 SUB PUSH1 0x0 DUP4 ADD MSTORE PUSH2 0x798 DUP2 PUSH2 0x68E JUMP JUMPDEST SWAP1 POP SWAP2 SWAP1 POP JUMP JUMPDEST PUSH1 0x0 PUSH1 0x20 DUP3 ADD SWAP1 POP DUP2 DUP2 SUB PUSH1 0x0 DUP4 ADD MSTORE PUSH2 0x7B8 DUP2 PUSH2 0x6B1 JUMP JUMPDEST SWAP1 POP SWAP2 SWAP1 POP JUMP JUMPDEST PUSH1 0x0 PUSH1 0x20 DUP3 ADD SWAP1 POP PUSH2 0x7D4 PUSH1 0x0 DUP4 ADD DUP5 PUSH2 0x6D4 JUMP JUMPDEST SWAP3 SWAP2 POP POP JUMP JUMPDEST PUSH1 0x0 PUSH2 0x7E4 PUSH2 0x7F5 JUMP JUMPDEST SWAP1 POP PUSH2 0x7F0 DUP3 DUP3 PUSH2 0x91D JUMP JUMPDEST SWAP2 SWAP1 POP JUMP JUMPDEST PUSH1 0x0 PUSH1 0x40 MLOAD SWAP1 POP SWAP1 JUMP JUMPDEST PUSH1 0x0 PUSH8 0xFFFFFFFFFFFFFFFF DUP3 GT ISZERO PUSH2 0x81A JUMPI PUSH2 0x819 PUSH2 0x9AB JUMP JUMPDEST JUMPDEST PUSH2 0x823 DUP3 PUSH2 0x9EE JUMP JUMPDEST SWAP1 POP PUSH1 0x20 DUP2 ADD SWAP1 POP SWAP2 SWAP1 POP JUMP JUMPDEST PUSH1 0x0 DUP2 MLOAD SWAP1 POP SWAP2 SWAP1 POP JUMP JUMPDEST PUSH1 0x0 DUP2 SWAP1 POP SWAP3 SWAP2 POP POP JUMP JUMPDEST PUSH1 0x0 DUP3 DUP3 MSTORE PUSH1 0x20 DUP3 ADD SWAP1 POP SWAP3 SWAP2 POP POP JUMP JUMPDEST PUSH1 0x0 PUSH2 0x862 DUP3 PUSH2 0x87F JUMP JUMPDEST SWAP1 POP SWAP2 SWAP1 POP JUMP JUMPDEST PUSH1 0x0 DUP2 ISZERO ISZERO SWAP1 POP SWAP2 SWAP1 POP JUMP JUMPDEST PUSH1 0x0 DUP2 SWAP1 POP SWAP2 SWAP1 POP JUMP JUMPDEST PUSH1 0x0 PUSH20 0xFFFFFFFFFFFFFFFFFFFFFFFFFFFFFFFFFFFFFFFF DUP3 AND SWAP1 POP SWAP2 SWAP1 POP JUMP JUMPDEST PUSH1 0x0 DUP2 SWAP1 POP SWAP2 SWAP1 POP JUMP JUMPDEST DUP3 DUP2 DUP4 CALLDATACOPY PUSH1 0x0 DUP4 DUP4 ADD MSTORE POP POP POP JUMP JUMPDEST PUSH1 0x0 JUMPDEST DUP4 DUP2 LT ISZERO PUSH2 0x8D6 JUMPI DUP1 DUP3 ADD MLOAD DUP2 DUP5 ADD MSTORE PUSH1 0x20 DUP2 ADD SWAP1 POP PUSH2 0x8BB JUMP JUMPDEST DUP4 DUP2 GT ISZERO PUSH2 0x8E5 JUMPI PUSH1 0x0 DUP5 DUP5 ADD MSTORE JUMPDEST POP POP POP POP JUMP JUMPDEST PUSH1 0x0 PUSH1 0x2 DUP3 DIV SWAP1 POP PUSH1 0x1 DUP3 AND DUP1 PUSH2 0x903 JUMPI PUSH1 0x7F DUP3 AND SWAP2 POP JUMPDEST PUSH1 0x20 DUP3 LT DUP2 EQ ISZERO PUSH2 0x917 JUMPI PUSH2 0x916 PUSH2 0x97C JUMP JUMPDEST JUMPDEST POP SWAP2 SWAP1 POP JUMP JUMPDEST PUSH2 0x926 DUP3 PUSH2 0x9EE JUMP JUMPDEST DUP2 ADD DUP2 DUP2 LT PUSH8 0xFFFFFFFFFFFFFFFF DUP3 GT OR ISZERO PUSH2 0x945 JUMPI PUSH2 0x944 PUSH2 0x9AB JUMP JUMPDEST JUMPDEST DUP1 PUSH1 0x40 MSTORE POP POP POP JUMP JUMPDEST PUSH1 0x0 PUSH2 0x959 DUP3 PUSH2 0x960 JUMP JUMPDEST SWAP1 POP SWAP2 SWAP1 POP JUMP JUMPDEST PUSH1 0x0 PUSH2 0x96B DUP3 PUSH2 0x9FF JUMP JUMPDEST SWAP1 POP SWAP2 SWAP1 POP JUMP JUMPDEST PUSH1 0x0 DUP2 SWAP1 POP SWAP2 SWAP1 POP JUMP JUMPDEST PUSH32 0x4E487B7100000000000000000000000000000000000000000000000000000000 PUSH1 0x0 MSTORE PUSH1 0x22 PUSH1 0x4 MSTORE PUSH1 0x24 PUSH1 0x0 REVERT JUMPDEST PUSH32 0x4E487B7100000000000000000000000000000000000000000000000000000000 PUSH1 0x0 MSTORE PUSH1 0x41 PUSH1 0x4 MSTORE PUSH1 0x24 PUSH1 0x0 REVERT JUMPDEST PUSH1 0x0 DUP1 REVERT JUMPDEST PUSH1 0x0 DUP1 REVERT JUMPDEST PUSH1 0x0 DUP1 REVERT JUMPDEST PUSH1 0x0 DUP1 REVERT JUMPDEST PUSH1 0x0 PUSH1 0x1F NOT PUSH1 0x1F DUP4 ADD AND SWAP1 POP SWAP2 SWAP1 POP JUMP JUMPDEST PUSH1 0x0 DUP2 PUSH1 0x60 SHL SWAP1 POP SWAP2 SWAP1 POP JUMP JUMPDEST PUSH32 0x416C7265616479205369676E6564207570210000000000000000000000000000 PUSH1 0x0 DUP3 ADD MSTORE POP JUMP JUMPDEST PUSH32 0x5369676E2D75702072656A65637465642120496E616465717561746520737461 PUSH1 0x0 DUP3 ADD MSTORE PUSH32 0x6B652076616C7565000000000000000000000000000000000000000000000000 PUSH1 0x20 DUP3 ADD MSTORE POP JUMP JUMPDEST PUSH32 0x4E6F74207369676E656420757021000000000000000000000000000000000000 PUSH1 0x0 DUP3 ADD MSTORE POP JUMP JUMPDEST PUSH2 0xAB6 DUP2 PUSH2 0x869 JUMP JUMPDEST DUP2 EQ PUSH2 0xAC1 JUMPI PUSH1 0x0 DUP1 REVERT JUMPDEST POP JUMP JUMPDEST PUSH2 0xACD DUP2 PUSH2 0x875 JUMP JUMPDEST DUP2 EQ PUSH2 0xAD8 JUMPI PUSH1 0x0 DUP1 REVERT JUMPDEST POP JUMP INVALID LOG2 PUSH5 0x6970667358 0x22 SLT KECCAK256 0x1E 0xF9 PUSH14 0x5E9328243E2298E0AD4BD0FC69E9 PUSH22 0xAADEBA928464E22DD82E3BF9891D64736F6C63430008 SMOD STOP CALLER "
				},
				"gasEstimates": {
					"creation": {
						"codeDepositCost": "566600",
						"executionCost": "600",
						"totalCost": "567200"
					},
					"external": {
						"cancel_signup()": "infinite",
						"request_verification(string)": "infinite",
						"sign_up()": "2738",
						"vote(bool)": "390"
					}
				},
				"methodIdentifiers": {
					"cancel_signup()": "c09f8ff6",
					"request_verification(string)": "969b1567",
					"sign_up()": "c4fb3337",
					"vote(bool)": "4b9f5c98"
				}
			},
			"userdoc": {
				"kind": "user",
				"methods": {},
				"version": 1
			}
		}
	}
}