{
	"Desktop/EthCA/blockchain/EthCA.sol": {
		"EthCA": {
			"abi": [
				{
					"inputs": [
						{
							"internalType": "uint256",
							"name": "pubkey1",
							"type": "uint256"
						},
						{
							"internalType": "uint256",
							"name": "pubkey2",
							"type": "uint256"
						},
						{
							"internalType": "uint256",
							"name": "pubkey3",
							"type": "uint256"
						},
						{
							"internalType": "uint256",
							"name": "pubkey4",
							"type": "uint256"
						}
					],
					"name": "request_verification",
					"outputs": [
						{
							"internalType": "uint256",
							"name": "",
							"type": "uint256"
						}
					],
					"stateMutability": "nonpayable",
					"type": "function"
				}
			],
			"devdoc": {
				"kind": "dev",
				"methods": {},
				"version": 1
			},
			"evm": {
				"assembly": "    /* \"Desktop/EthCA/blockchain/EthCA.sol\":110:531  contract EthCA {... */\n  mstore(0x40, 0x80)\n  callvalue\n  dup1\n  iszero\n  tag_1\n  jumpi\n  0x00\n  dup1\n  revert\ntag_1:\n  pop\n  dataSize(sub_0)\n  dup1\n  dataOffset(sub_0)\n  0x00\n  codecopy\n  0x00\n  return\nstop\n\nsub_0: assembly {\n        /* \"Desktop/EthCA/blockchain/EthCA.sol\":110:531  contract EthCA {... */\n      mstore(0x40, 0x80)\n      callvalue\n      dup1\n      iszero\n      tag_1\n      jumpi\n      0x00\n      dup1\n      revert\n    tag_1:\n      pop\n      jumpi(tag_2, lt(calldatasize, 0x04))\n      shr(0xe0, calldataload(0x00))\n      dup1\n      0x89bcf928\n      eq\n      tag_3\n      jumpi\n    tag_2:\n      0x00\n      dup1\n      revert\n        /* \"Desktop/EthCA/blockchain/EthCA.sol\":413:529  function request_verification(uint pubkey1, uint pubkey2, uint pubkey3, uint pubkey4) public returns (uint) {... */\n    tag_3:\n      tag_4\n      0x04\n      dup1\n      calldatasize\n      sub\n      dup2\n      add\n      swap1\n      tag_5\n      swap2\n      swap1\n      tag_6\n      jump\t// in\n    tag_5:\n      tag_7\n      jump\t// in\n    tag_4:\n      mload(0x40)\n      tag_8\n      swap2\n      swap1\n      tag_9\n      jump\t// in\n    tag_8:\n      mload(0x40)\n      dup1\n      swap2\n      sub\n      swap1\n      return\n    tag_7:\n        /* \"Desktop/EthCA/blockchain/EthCA.sol\":515:519  uint */\n      0x00\n        /* \"Desktop/EthCA/blockchain/EthCA.sol\":413:529  function request_verification(uint pubkey1, uint pubkey2, uint pubkey3, uint pubkey4) public returns (uint) {... */\n      swap5\n      swap4\n      pop\n      pop\n      pop\n      pop\n      jump\t// out\n        /* \"#utility.yul\":7:146   */\n    tag_12:\n        /* \"#utility.yul\":53:58   */\n      0x00\n        /* \"#utility.yul\":91:97   */\n      dup2\n        /* \"#utility.yul\":78:98   */\n      calldataload\n        /* \"#utility.yul\":69:98   */\n      swap1\n      pop\n        /* \"#utility.yul\":107:140   */\n      tag_14\n        /* \"#utility.yul\":134:139   */\n      dup2\n        /* \"#utility.yul\":107:140   */\n      tag_15\n      jump\t// in\n    tag_14:\n        /* \"#utility.yul\":7:146   */\n      swap3\n      swap2\n      pop\n      pop\n      jump\t// out\n        /* \"#utility.yul\":152:917   */\n    tag_6:\n        /* \"#utility.yul\":238:244   */\n      0x00\n        /* \"#utility.yul\":246:252   */\n      dup1\n        /* \"#utility.yul\":254:260   */\n      0x00\n        /* \"#utility.yul\":262:268   */\n      dup1\n        /* \"#utility.yul\":311:314   */\n      0x80\n        /* \"#utility.yul\":299:308   */\n      dup6\n        /* \"#utility.yul\":290:297   */\n      dup8\n        /* \"#utility.yul\":286:309   */\n      sub\n        /* \"#utility.yul\":282:315   */\n      slt\n        /* \"#utility.yul\":279:399   */\n      iszero\n      tag_17\n      jumpi\n        /* \"#utility.yul\":318:397   */\n      tag_18\n      tag_19\n      jump\t// in\n    tag_18:\n        /* \"#utility.yul\":279:399   */\n    tag_17:\n        /* \"#utility.yul\":438:439   */\n      0x00\n        /* \"#utility.yul\":463:516   */\n      tag_20\n        /* \"#utility.yul\":508:515   */\n      dup8\n        /* \"#utility.yul\":499:505   */\n      dup3\n        /* \"#utility.yul\":488:497   */\n      dup9\n        /* \"#utility.yul\":484:506   */\n      add\n        /* \"#utility.yul\":463:516   */\n      tag_12\n      jump\t// in\n    tag_20:\n        /* \"#utility.yul\":453:516   */\n      swap5\n      pop\n        /* \"#utility.yul\":409:526   */\n      pop\n        /* \"#utility.yul\":565:567   */\n      0x20\n        /* \"#utility.yul\":591:644   */\n      tag_21\n        /* \"#utility.yul\":636:643   */\n      dup8\n        /* \"#utility.yul\":627:633   */\n      dup3\n        /* \"#utility.yul\":616:625   */\n      dup9\n        /* \"#utility.yul\":612:634   */\n      add\n        /* \"#utility.yul\":591:644   */\n      tag_12\n      jump\t// in\n    tag_21:\n        /* \"#utility.yul\":581:644   */\n      swap4\n      pop\n        /* \"#utility.yul\":536:654   */\n      pop\n        /* \"#utility.yul\":693:695   */\n      0x40\n        /* \"#utility.yul\":719:772   */\n      tag_22\n        /* \"#utility.yul\":764:771   */\n      dup8\n        /* \"#utility.yul\":755:761   */\n      dup3\n        /* \"#utility.yul\":744:753   */\n      dup9\n        /* \"#utility.yul\":740:762   */\n      add\n        /* \"#utility.yul\":719:772   */\n      tag_12\n      jump\t// in\n    tag_22:\n        /* \"#utility.yul\":709:772   */\n      swap3\n      pop\n        /* \"#utility.yul\":664:782   */\n      pop\n        /* \"#utility.yul\":821:823   */\n      0x60\n        /* \"#utility.yul\":847:900   */\n      tag_23\n        /* \"#utility.yul\":892:899   */\n      dup8\n        /* \"#utility.yul\":883:889   */\n      dup3\n        /* \"#utility.yul\":872:881   */\n      dup9\n        /* \"#utility.yul\":868:890   */\n      add\n        /* \"#utility.yul\":847:900   */\n      tag_12\n      jump\t// in\n    tag_23:\n        /* \"#utility.yul\":837:900   */\n      swap2\n      pop\n        /* \"#utility.yul\":792:910   */\n      pop\n        /* \"#utility.yul\":152:917   */\n      swap3\n      swap6\n      swap2\n      swap5\n      pop\n      swap3\n      pop\n      jump\t// out\n        /* \"#utility.yul\":923:1041   */\n    tag_24:\n        /* \"#utility.yul\":1010:1034   */\n      tag_26\n        /* \"#utility.yul\":1028:1033   */\n      dup2\n        /* \"#utility.yul\":1010:1034   */\n      tag_27\n      jump\t// in\n    tag_26:\n        /* \"#utility.yul\":1005:1008   */\n      dup3\n        /* \"#utility.yul\":998:1035   */\n      mstore\n        /* \"#utility.yul\":923:1041   */\n      pop\n      pop\n      jump\t// out\n        /* \"#utility.yul\":1047:1269   */\n    tag_9:\n        /* \"#utility.yul\":1140:1144   */\n      0x00\n        /* \"#utility.yul\":1178:1180   */\n      0x20\n        /* \"#utility.yul\":1167:1176   */\n      dup3\n        /* \"#utility.yul\":1163:1181   */\n      add\n        /* \"#utility.yul\":1155:1181   */\n      swap1\n      pop\n        /* \"#utility.yul\":1191:1262   */\n      tag_29\n        /* \"#utility.yul\":1259:1260   */\n      0x00\n        /* \"#utility.yul\":1248:1257   */\n      dup4\n        /* \"#utility.yul\":1244:1261   */\n      add\n        /* \"#utility.yul\":1235:1241   */\n      dup5\n        /* \"#utility.yul\":1191:1262   */\n      tag_24\n      jump\t// in\n    tag_29:\n        /* \"#utility.yul\":1047:1269   */\n      swap3\n      swap2\n      pop\n      pop\n      jump\t// out\n        /* \"#utility.yul\":1356:1433   */\n    tag_27:\n        /* \"#utility.yul\":1393:1400   */\n      0x00\n        /* \"#utility.yul\":1422:1427   */\n      dup2\n        /* \"#utility.yul\":1411:1427   */\n      swap1\n      pop\n        /* \"#utility.yul\":1356:1433   */\n      swap2\n      swap1\n      pop\n      jump\t// out\n        /* \"#utility.yul\":1562:1679   */\n    tag_19:\n        /* \"#utility.yul\":1671:1672   */\n      0x00\n        /* \"#utility.yul\":1668:1669   */\n      dup1\n        /* \"#utility.yul\":1661:1673   */\n      revert\n        /* \"#utility.yul\":1685:1807   */\n    tag_15:\n        /* \"#utility.yul\":1758:1782   */\n      tag_37\n        /* \"#utility.yul\":1776:1781   */\n      dup2\n        /* \"#utility.yul\":1758:1782   */\n      tag_27\n      jump\t// in\n    tag_37:\n        /* \"#utility.yul\":1751:1756   */\n      dup2\n        /* \"#utility.yul\":1748:1783   */\n      eq\n        /* \"#utility.yul\":1738:1801   */\n      tag_38\n      jumpi\n        /* \"#utility.yul\":1797:1798   */\n      0x00\n        /* \"#utility.yul\":1794:1795   */\n      dup1\n        /* \"#utility.yul\":1787:1799   */\n      revert\n        /* \"#utility.yul\":1738:1801   */\n    tag_38:\n        /* \"#utility.yul\":1685:1807   */\n      pop\n      jump\t// out\n\n    auxdata: 0xa26469706673582212209e1ee31dcd45f1de18eba42a19295c1d38334e1f118557f31a7beda93d86965164736f6c63430008070033\n}\n",
				"bytecode": {
					"linkReferences": {},
					"object": "608060405234801561001057600080fd5b5061016c806100206000396000f3fe608060405234801561001057600080fd5b506004361061002b5760003560e01c806389bcf92814610030575b600080fd5b61004a6004803603810190610045919061007f565b610060565b60405161005791906100f5565b60405180910390f35b6000949350505050565b6000813590506100798161011f565b92915050565b600080600080608085870312156100995761009861011a565b5b60006100a78782880161006a565b94505060206100b88782880161006a565b93505060406100c98782880161006a565b92505060606100da8782880161006a565b91505092959194509250565b6100ef81610110565b82525050565b600060208201905061010a60008301846100e6565b92915050565b6000819050919050565b600080fd5b61012881610110565b811461013357600080fd5b5056fea26469706673582212209e1ee31dcd45f1de18eba42a19295c1d38334e1f118557f31a7beda93d86965164736f6c63430008070033",
					"opcodes": "PUSH1 0x80 PUSH1 0x40 MSTORE CALLVALUE DUP1 ISZERO PUSH2 0x10 JUMPI PUSH1 0x0 DUP1 REVERT JUMPDEST POP PUSH2 0x16C DUP1 PUSH2 0x20 PUSH1 0x0 CODECOPY PUSH1 0x0 RETURN INVALID PUSH1 0x80 PUSH1 0x40 MSTORE CALLVALUE DUP1 ISZERO PUSH2 0x10 JUMPI PUSH1 0x0 DUP1 REVERT JUMPDEST POP PUSH1 0x4 CALLDATASIZE LT PUSH2 0x2B JUMPI PUSH1 0x0 CALLDATALOAD PUSH1 0xE0 SHR DUP1 PUSH4 0x89BCF928 EQ PUSH2 0x30 JUMPI JUMPDEST PUSH1 0x0 DUP1 REVERT JUMPDEST PUSH2 0x4A PUSH1 0x4 DUP1 CALLDATASIZE SUB DUP2 ADD SWAP1 PUSH2 0x45 SWAP2 SWAP1 PUSH2 0x7F JUMP JUMPDEST PUSH2 0x60 JUMP JUMPDEST PUSH1 0x40 MLOAD PUSH2 0x57 SWAP2 SWAP1 PUSH2 0xF5 JUMP JUMPDEST PUSH1 0x40 MLOAD DUP1 SWAP2 SUB SWAP1 RETURN JUMPDEST PUSH1 0x0 SWAP5 SWAP4 POP POP POP POP JUMP JUMPDEST PUSH1 0x0 DUP2 CALLDATALOAD SWAP1 POP PUSH2 0x79 DUP2 PUSH2 0x11F JUMP JUMPDEST SWAP3 SWAP2 POP POP JUMP JUMPDEST PUSH1 0x0 DUP1 PUSH1 0x0 DUP1 PUSH1 0x80 DUP6 DUP8 SUB SLT ISZERO PUSH2 0x99 JUMPI PUSH2 0x98 PUSH2 0x11A JUMP JUMPDEST JUMPDEST PUSH1 0x0 PUSH2 0xA7 DUP8 DUP3 DUP9 ADD PUSH2 0x6A JUMP JUMPDEST SWAP5 POP POP PUSH1 0x20 PUSH2 0xB8 DUP8 DUP3 DUP9 ADD PUSH2 0x6A JUMP JUMPDEST SWAP4 POP POP PUSH1 0x40 PUSH2 0xC9 DUP8 DUP3 DUP9 ADD PUSH2 0x6A JUMP JUMPDEST SWAP3 POP POP PUSH1 0x60 PUSH2 0xDA DUP8 DUP3 DUP9 ADD PUSH2 0x6A JUMP JUMPDEST SWAP2 POP POP SWAP3 SWAP6 SWAP2 SWAP5 POP SWAP3 POP JUMP JUMPDEST PUSH2 0xEF DUP2 PUSH2 0x110 JUMP JUMPDEST DUP3 MSTORE POP POP JUMP JUMPDEST PUSH1 0x0 PUSH1 0x20 DUP3 ADD SWAP1 POP PUSH2 0x10A PUSH1 0x0 DUP4 ADD DUP5 PUSH2 0xE6 JUMP JUMPDEST SWAP3 SWAP2 POP POP JUMP JUMPDEST PUSH1 0x0 DUP2 SWAP1 POP SWAP2 SWAP1 POP JUMP JUMPDEST PUSH1 0x0 DUP1 REVERT JUMPDEST PUSH2 0x128 DUP2 PUSH2 0x110 JUMP JUMPDEST DUP2 EQ PUSH2 0x133 JUMPI PUSH1 0x0 DUP1 REVERT JUMPDEST POP JUMP INVALID LOG2 PUSH5 0x6970667358 0x22 SLT KECCAK256 SWAP15 0x1E 0xE3 SAR 0xCD GASLIMIT CALL 0xDE XOR 0xEB LOG4 0x2A NOT 0x29 0x5C SAR CODESIZE CALLER 0x4E 0x1F GT DUP6 JUMPI RETURN BYTE PUSH28 0xEDA93D86965164736F6C634300080700330000000000000000000000 "
				},
				"gasEstimates": {
					"creation": {
						"codeDepositCost": "72800",
						"executionCost": "123",
						"totalCost": "72923"
					},
					"external": {
						"request_verification(uint256,uint256,uint256,uint256)": "infinite"
					}
				},
				"methodIdentifiers": {
					"request_verification(uint256,uint256,uint256,uint256)": "89bcf928"
				}
			},
			"userdoc": {
				"kind": "user",
				"methods": {},
				"version": 1
			}
		}
	}
}