{
	"Desktop/EthCA/blockchain/EthCA.sol": {
		"EthCA": {
			"abi": [
				{
					"inputs": [
						{
							"internalType": "uint256",
							"name": "id",
							"type": "uint256"
						}
					],
					"name": "cancel_signup",
					"outputs": [],
					"stateMutability": "nonpayable",
					"type": "function"
				},
				{
					"inputs": [
						{
							"internalType": "string",
							"name": "domain",
							"type": "string"
						}
					],
					"name": "request_verification",
					"outputs": [
						{
							"internalType": "uint256",
							"name": "",
							"type": "uint256"
						}
					],
					"stateMutability": "payable",
					"type": "function"
				},
				{
					"inputs": [],
					"name": "sign_up",
					"outputs": [
						{
							"internalType": "uint256",
							"name": "",
							"type": "uint256"
						}
					],
					"stateMutability": "payable",
					"type": "function"
				},
				{
					"inputs": [
						{
							"internalType": "uint256",
							"name": "requestID",
							"type": "uint256"
						},
						{
							"internalType": "bool",
							"name": "voteIn",
							"type": "bool"
						}
					],
					"name": "vote",
					"outputs": [],
					"stateMutability": "nonpayable",
					"type": "function"
				}
			],
			"devdoc": {
				"kind": "dev",
				"methods": {},
				"version": 1
			},
			"evm": {
				"assembly": "    /* \"Desktop/EthCA/blockchain/EthCA.sol\":204:4244  contract EthCA {... */\n  mstore(0x40, 0x80)\n  callvalue\n  dup1\n  iszero\n  tag_1\n  jumpi\n  0x00\n  dup1\n  revert\ntag_1:\n  pop\n  dataSize(sub_0)\n  dup1\n  dataOffset(sub_0)\n  0x00\n  codecopy\n  0x00\n  return\nstop\n\nsub_0: assembly {\n        /* \"Desktop/EthCA/blockchain/EthCA.sol\":204:4244  contract EthCA {... */\n      mstore(0x40, 0x80)\n      jumpi(tag_1, lt(calldatasize, 0x04))\n      shr(0xe0, calldataload(0x00))\n      dup1\n      0x969b1567\n      eq\n      tag_2\n      jumpi\n      dup1\n      0xc4fb3337\n      eq\n      tag_3\n      jumpi\n      dup1\n      0xc9d27afe\n      eq\n      tag_4\n      jumpi\n      dup1\n      0xf5c7996c\n      eq\n      tag_5\n      jumpi\n    tag_1:\n      0x00\n      dup1\n      revert\n        /* \"Desktop/EthCA/blockchain/EthCA.sol\":1868:2495  function request_verification(string memory domain) public payable returns (uint) {... */\n    tag_2:\n      tag_6\n      0x04\n      dup1\n      calldatasize\n      sub\n      dup2\n      add\n      swap1\n      tag_7\n      swap2\n      swap1\n      tag_8\n      jump\t// in\n    tag_7:\n      tag_9\n      jump\t// in\n    tag_6:\n      mload(0x40)\n      tag_10\n      swap2\n      swap1\n      tag_11\n      jump\t// in\n    tag_10:\n      mload(0x40)\n      dup1\n      swap2\n      sub\n      swap1\n      return\n        /* \"Desktop/EthCA/blockchain/EthCA.sol\":2500:2937  function sign_up() public payable returns (uint) {... */\n    tag_3:\n      tag_12\n      tag_13\n      jump\t// in\n    tag_12:\n      mload(0x40)\n      tag_14\n      swap2\n      swap1\n      tag_11\n      jump\t// in\n    tag_14:\n      mload(0x40)\n      dup1\n      swap2\n      sub\n      swap1\n      return\n        /* \"Desktop/EthCA/blockchain/EthCA.sol\":3410:4242  function vote(uint requestID, bool voteIn) public {... */\n    tag_4:\n      callvalue\n      dup1\n      iszero\n      tag_15\n      jumpi\n      0x00\n      dup1\n      revert\n    tag_15:\n      pop\n      tag_16\n      0x04\n      dup1\n      calldatasize\n      sub\n      dup2\n      add\n      swap1\n      tag_17\n      swap2\n      swap1\n      tag_18\n      jump\t// in\n    tag_17:\n      tag_19\n      jump\t// in\n    tag_16:\n      stop\n        /* \"Desktop/EthCA/blockchain/EthCA.sol\":3024:3334  function cancel_signup(uint id) public {... */\n    tag_5:\n      callvalue\n      dup1\n      iszero\n      tag_20\n      jumpi\n      0x00\n      dup1\n      revert\n    tag_20:\n      pop\n      tag_21\n      0x04\n      dup1\n      calldatasize\n      sub\n      dup2\n      add\n      swap1\n      tag_22\n      swap2\n      swap1\n      tag_23\n      jump\t// in\n    tag_22:\n      tag_24\n      jump\t// in\n    tag_21:\n      stop\n        /* \"Desktop/EthCA/blockchain/EthCA.sol\":1868:2495  function request_verification(string memory domain) public payable returns (uint) {... */\n    tag_9:\n        /* \"Desktop/EthCA/blockchain/EthCA.sol\":1944:1948  uint */\n      0x00\n        /* \"Desktop/EthCA/blockchain/EthCA.sol\":1981:1989  10 ether */\n      0x8ac7230489e80000\n        /* \"Desktop/EthCA/blockchain/EthCA.sol\":1968:1977  msg.value */\n      callvalue\n        /* \"Desktop/EthCA/blockchain/EthCA.sol\":1968:1989  msg.value >= 10 ether */\n      lt\n      iszero\n        /* \"Desktop/EthCA/blockchain/EthCA.sol\":1960:1990  require(msg.value >= 10 ether) */\n      tag_26\n      jumpi\n      0x00\n      dup1\n      revert\n    tag_26:\n        /* \"Desktop/EthCA/blockchain/EthCA.sol\":2076:2086  uint nonce */\n      0x00\n        /* \"Desktop/EthCA/blockchain/EthCA.sol\":2094:2177  sha256(abi.encodePacked(block.timestamp, block.difficulty, msg.sender, numsignups)) */\n      0x02\n        /* \"Desktop/EthCA/blockchain/EthCA.sol\":2118:2133  block.timestamp */\n      timestamp\n        /* \"Desktop/EthCA/blockchain/EthCA.sol\":2135:2151  block.difficulty */\n      difficulty\n        /* \"Desktop/EthCA/blockchain/EthCA.sol\":2153:2163  msg.sender */\n      caller\n        /* \"Desktop/EthCA/blockchain/EthCA.sol\":2165:2175  numsignups */\n      sload(0x04)\n        /* \"Desktop/EthCA/blockchain/EthCA.sol\":2101:2176  abi.encodePacked(block.timestamp, block.difficulty, msg.sender, numsignups) */\n      add(0x20, mload(0x40))\n      tag_27\n      swap5\n      swap4\n      swap3\n      swap2\n      swap1\n      tag_28\n      jump\t// in\n    tag_27:\n      mload(0x40)\n      0x20\n      dup2\n      dup4\n      sub\n      sub\n      dup2\n      mstore\n      swap1\n      0x40\n      mstore\n        /* \"Desktop/EthCA/blockchain/EthCA.sol\":2094:2177  sha256(abi.encodePacked(block.timestamp, block.difficulty, msg.sender, numsignups)) */\n      mload(0x40)\n      tag_29\n      swap2\n      swap1\n      tag_30\n      jump\t// in\n    tag_29:\n      0x20\n      mload(0x40)\n      dup1\n      dup4\n      sub\n      dup2\n      dup6\n      gas\n      staticcall\n      iszero\n      dup1\n      iszero\n      tag_32\n      jumpi\n      returndatasize\n      0x00\n      dup1\n      returndatacopy\n      revert(0x00, returndatasize)\n    tag_32:\n      pop\n      pop\n      pop\n      mload(0x40)\n      returndatasize\n      not(0x1f)\n      0x1f\n      dup3\n      add\n      and\n      dup3\n      add\n      dup1\n      0x40\n      mstore\n      pop\n      dup2\n      add\n      swap1\n      tag_33\n      swap2\n      swap1\n      tag_34\n      jump\t// in\n    tag_33:\n        /* \"Desktop/EthCA/blockchain/EthCA.sol\":2089:2178  uint(sha256(abi.encodePacked(block.timestamp, block.difficulty, msg.sender, numsignups))) */\n      0x00\n      shr\n        /* \"Desktop/EthCA/blockchain/EthCA.sol\":2076:2178  uint nonce = uint(sha256(abi.encodePacked(block.timestamp, block.difficulty, msg.sender, numsignups))) */\n      swap1\n      pop\n        /* \"Desktop/EthCA/blockchain/EthCA.sol\":2256:2261  nonce */\n      dup1\n        /* \"Desktop/EthCA/blockchain/EthCA.sol\":2226:2234  requests */\n      0x02\n        /* \"Desktop/EthCA/blockchain/EthCA.sol\":2235:2246  numRequests */\n      sload(0x05)\n        /* \"Desktop/EthCA/blockchain/EthCA.sol\":2226:2247  requests[numRequests] */\n      dup2\n      sload\n      dup2\n      lt\n      tag_35\n      jumpi\n      tag_36\n      tag_37\n      jump\t// in\n    tag_36:\n    tag_35:\n      swap1\n      0x00\n      mstore\n      keccak256(0x00, 0x20)\n      swap1\n      0x0d\n      mul\n      add\n        /* \"Desktop/EthCA/blockchain/EthCA.sol\":2226:2253  requests[numRequests].nonce */\n      0x01\n      add\n        /* \"Desktop/EthCA/blockchain/EthCA.sol\":2226:2261  requests[numRequests].nonce = nonce */\n      dup2\n      swap1\n      sstore\n      pop\n        /* \"Desktop/EthCA/blockchain/EthCA.sol\":2298:2309  numRequests */\n      sload(0x05)\n        /* \"Desktop/EthCA/blockchain/EthCA.sol\":2271:2279  requests */\n      0x02\n        /* \"Desktop/EthCA/blockchain/EthCA.sol\":2280:2291  numRequests */\n      sload(0x05)\n        /* \"Desktop/EthCA/blockchain/EthCA.sol\":2271:2292  requests[numRequests] */\n      dup2\n      sload\n      dup2\n      lt\n      tag_39\n      jumpi\n      tag_40\n      tag_37\n      jump\t// in\n    tag_40:\n    tag_39:\n      swap1\n      0x00\n      mstore\n      keccak256(0x00, 0x20)\n      swap1\n      0x0d\n      mul\n      add\n        /* \"Desktop/EthCA/blockchain/EthCA.sol\":2271:2295  requests[numRequests].id */\n      0x00\n      add\n        /* \"Desktop/EthCA/blockchain/EthCA.sol\":2271:2309  requests[numRequests].id = numRequests */\n      dup2\n      swap1\n      sstore\n      pop\n        /* \"Desktop/EthCA/blockchain/EthCA.sol\":2350:2360  msg.sender */\n      caller\n        /* \"Desktop/EthCA/blockchain/EthCA.sol\":2319:2327  requests */\n      0x02\n        /* \"Desktop/EthCA/blockchain/EthCA.sol\":2328:2339  numRequests */\n      sload(0x05)\n        /* \"Desktop/EthCA/blockchain/EthCA.sol\":2319:2340  requests[numRequests] */\n      dup2\n      sload\n      dup2\n      lt\n      tag_42\n      jumpi\n      tag_43\n      tag_37\n      jump\t// in\n    tag_43:\n    tag_42:\n      swap1\n      0x00\n      mstore\n      keccak256(0x00, 0x20)\n      swap1\n      0x0d\n      mul\n      add\n        /* \"Desktop/EthCA/blockchain/EthCA.sol\":2319:2347  requests[numRequests].sender */\n      0x05\n      add\n      0x00\n        /* \"Desktop/EthCA/blockchain/EthCA.sol\":2319:2360  requests[numRequests].sender = msg.sender */\n      0x0100\n      exp\n      dup2\n      sload\n      dup2\n      0xffffffffffffffffffffffffffffffffffffffff\n      mul\n      not\n      and\n      swap1\n      dup4\n      0xffffffffffffffffffffffffffffffffffffffff\n      and\n      mul\n      or\n      swap1\n      sstore\n      pop\n        /* \"Desktop/EthCA/blockchain/EthCA.sol\":2401:2407  domain */\n      dup3\n        /* \"Desktop/EthCA/blockchain/EthCA.sol\":2370:2378  requests */\n      0x02\n        /* \"Desktop/EthCA/blockchain/EthCA.sol\":2379:2390  numRequests */\n      sload(0x05)\n        /* \"Desktop/EthCA/blockchain/EthCA.sol\":2370:2391  requests[numRequests] */\n      dup2\n      sload\n      dup2\n      lt\n      tag_45\n      jumpi\n      tag_46\n      tag_37\n      jump\t// in\n    tag_46:\n    tag_45:\n      swap1\n      0x00\n      mstore\n      keccak256(0x00, 0x20)\n      swap1\n      0x0d\n      mul\n      add\n        /* \"Desktop/EthCA/blockchain/EthCA.sol\":2370:2398  requests[numRequests].domain */\n      0x04\n      add\n        /* \"Desktop/EthCA/blockchain/EthCA.sol\":2370:2407  requests[numRequests].domain = domain */\n      swap1\n      dup1\n      mload\n      swap1\n      0x20\n      add\n      swap1\n      tag_48\n      swap3\n      swap2\n      swap1\n      tag_49\n      jump\t// in\n    tag_48:\n      pop\n        /* \"Desktop/EthCA/blockchain/EthCA.sol\":2457:2486  chooseValidators(numRequests) */\n      tag_50\n        /* \"Desktop/EthCA/blockchain/EthCA.sol\":2474:2485  numRequests */\n      sload(0x05)\n        /* \"Desktop/EthCA/blockchain/EthCA.sol\":2457:2473  chooseValidators */\n      tag_51\n        /* \"Desktop/EthCA/blockchain/EthCA.sol\":2457:2486  chooseValidators(numRequests) */\n      jump\t// in\n    tag_50:\n        /* \"Desktop/EthCA/blockchain/EthCA.sol\":1950:2495  {... */\n      pop\n        /* \"Desktop/EthCA/blockchain/EthCA.sol\":1868:2495  function request_verification(string memory domain) public payable returns (uint) {... */\n      swap2\n      swap1\n      pop\n      jump\t// out\n        /* \"Desktop/EthCA/blockchain/EthCA.sol\":2500:2937  function sign_up() public payable returns (uint) {... */\n    tag_13:\n        /* \"Desktop/EthCA/blockchain/EthCA.sol\":2543:2547  uint */\n      0x00\n        /* \"Desktop/EthCA/blockchain/EthCA.sol\":2630:2637  1 ether */\n      0x0de0b6b3a7640000\n        /* \"Desktop/EthCA/blockchain/EthCA.sol\":2617:2626  msg.value */\n      callvalue\n        /* \"Desktop/EthCA/blockchain/EthCA.sol\":2617:2637  msg.value == 1 ether */\n      eq\n        /* \"Desktop/EthCA/blockchain/EthCA.sol\":2609:2682  require(msg.value == 1 ether, \"Sign-up rejected! Inadequate stake value\") */\n      tag_53\n      jumpi\n      mload(0x40)\n      0x08c379a000000000000000000000000000000000000000000000000000000000\n      dup2\n      mstore\n      0x04\n      add\n      tag_54\n      swap1\n      tag_55\n      jump\t// in\n    tag_54:\n      mload(0x40)\n      dup1\n      swap2\n      sub\n      swap1\n      revert\n    tag_53:\n        /* \"Desktop/EthCA/blockchain/EthCA.sol\":2783:2788  false */\n      0x00\n        /* \"Desktop/EthCA/blockchain/EthCA.sol\":2759:2788  signedup[msg.sender] == false */\n      iszero\n      iszero\n        /* \"Desktop/EthCA/blockchain/EthCA.sol\":2759:2767  signedup */\n      0x01\n        /* \"Desktop/EthCA/blockchain/EthCA.sol\":2759:2779  signedup[msg.sender] */\n      0x00\n        /* \"Desktop/EthCA/blockchain/EthCA.sol\":2768:2778  msg.sender */\n      caller\n        /* \"Desktop/EthCA/blockchain/EthCA.sol\":2759:2779  signedup[msg.sender] */\n      0xffffffffffffffffffffffffffffffffffffffff\n      and\n      0xffffffffffffffffffffffffffffffffffffffff\n      and\n      dup2\n      mstore\n      0x20\n      add\n      swap1\n      dup2\n      mstore\n      0x20\n      add\n      0x00\n      keccak256\n      0x00\n      swap1\n      sload\n      swap1\n      0x0100\n      exp\n      swap1\n      div\n      0xff\n      and\n        /* \"Desktop/EthCA/blockchain/EthCA.sol\":2759:2788  signedup[msg.sender] == false */\n      iszero\n      iszero\n      eq\n        /* \"Desktop/EthCA/blockchain/EthCA.sol\":2751:2811  require(signedup[msg.sender] == false, \"Already signed up!\") */\n      tag_56\n      jumpi\n      mload(0x40)\n      0x08c379a000000000000000000000000000000000000000000000000000000000\n      dup2\n      mstore\n      0x04\n      add\n      tag_57\n      swap1\n      tag_58\n      jump\t// in\n    tag_57:\n      mload(0x40)\n      dup1\n      swap2\n      sub\n      swap1\n      revert\n    tag_56:\n        /* \"Desktop/EthCA/blockchain/EthCA.sol\":2851:2861  msg.sender */\n      caller\n        /* \"Desktop/EthCA/blockchain/EthCA.sol\":2821:2828  signups */\n      0x00\n        /* \"Desktop/EthCA/blockchain/EthCA.sol\":2829:2839  numsignups */\n      sload(0x04)\n        /* \"Desktop/EthCA/blockchain/EthCA.sol\":2821:2840  signups[numsignups] */\n      dup2\n      sload\n      dup2\n      lt\n      tag_59\n      jumpi\n      tag_60\n      tag_37\n      jump\t// in\n    tag_60:\n    tag_59:\n      swap1\n      0x00\n      mstore\n      keccak256(0x00, 0x20)\n      add\n      0x00\n        /* \"Desktop/EthCA/blockchain/EthCA.sol\":2821:2862  signups[numsignups] = payable(msg.sender) */\n      0x0100\n      exp\n      dup2\n      sload\n      dup2\n      0xffffffffffffffffffffffffffffffffffffffff\n      mul\n      not\n      and\n      swap1\n      dup4\n      0xffffffffffffffffffffffffffffffffffffffff\n      and\n      mul\n      or\n      swap1\n      sstore\n      pop\n        /* \"Desktop/EthCA/blockchain/EthCA.sol\":2898:2899  1 */\n      0x01\n        /* \"Desktop/EthCA/blockchain/EthCA.sol\":2885:2895  numsignups */\n      sload(0x04)\n        /* \"Desktop/EthCA/blockchain/EthCA.sol\":2885:2899  numsignups + 1 */\n      tag_62\n      swap2\n      swap1\n      tag_63\n      jump\t// in\n    tag_62:\n        /* \"Desktop/EthCA/blockchain/EthCA.sol\":2872:2882  numsignups */\n      0x04\n        /* \"Desktop/EthCA/blockchain/EthCA.sol\":2872:2899  numsignups = numsignups + 1 */\n      dup2\n      swap1\n      sstore\n      pop\n        /* \"Desktop/EthCA/blockchain/EthCA.sol\":2929:2930  1 */\n      0x01\n        /* \"Desktop/EthCA/blockchain/EthCA.sol\":2916:2926  numsignups */\n      sload(0x04)\n        /* \"Desktop/EthCA/blockchain/EthCA.sol\":2916:2930  numsignups - 1 */\n      tag_64\n      swap2\n      swap1\n      tag_65\n      jump\t// in\n    tag_64:\n        /* \"Desktop/EthCA/blockchain/EthCA.sol\":2909:2930  return numsignups - 1 */\n      swap1\n      pop\n        /* \"Desktop/EthCA/blockchain/EthCA.sol\":2500:2937  function sign_up() public payable returns (uint) {... */\n      swap1\n      jump\t// out\n        /* \"Desktop/EthCA/blockchain/EthCA.sol\":3410:4242  function vote(uint requestID, bool voteIn) public {... */\n    tag_19:\n        /* \"Desktop/EthCA/blockchain/EthCA.sol\":3600:3604  true */\n      0x01\n        /* \"Desktop/EthCA/blockchain/EthCA.sol\":3554:3604  requests[requestID].validators[msg.sender] == true */\n      iszero\n      iszero\n        /* \"Desktop/EthCA/blockchain/EthCA.sol\":3554:3562  requests */\n      0x02\n        /* \"Desktop/EthCA/blockchain/EthCA.sol\":3563:3572  requestID */\n      dup4\n        /* \"Desktop/EthCA/blockchain/EthCA.sol\":3554:3573  requests[requestID] */\n      dup2\n      sload\n      dup2\n      lt\n      tag_67\n      jumpi\n      tag_68\n      tag_37\n      jump\t// in\n    tag_68:\n    tag_67:\n      swap1\n      0x00\n      mstore\n      keccak256(0x00, 0x20)\n      swap1\n      0x0d\n      mul\n      add\n        /* \"Desktop/EthCA/blockchain/EthCA.sol\":3554:3584  requests[requestID].validators */\n      0x02\n      add\n        /* \"Desktop/EthCA/blockchain/EthCA.sol\":3554:3596  requests[requestID].validators[msg.sender] */\n      0x00\n        /* \"Desktop/EthCA/blockchain/EthCA.sol\":3585:3595  msg.sender */\n      caller\n        /* \"Desktop/EthCA/blockchain/EthCA.sol\":3554:3596  requests[requestID].validators[msg.sender] */\n      0xffffffffffffffffffffffffffffffffffffffff\n      and\n      0xffffffffffffffffffffffffffffffffffffffff\n      and\n      dup2\n      mstore\n      0x20\n      add\n      swap1\n      dup2\n      mstore\n      0x20\n      add\n      0x00\n      keccak256\n      0x00\n      swap1\n      sload\n      swap1\n      0x0100\n      exp\n      swap1\n      div\n      0xff\n      and\n        /* \"Desktop/EthCA/blockchain/EthCA.sol\":3554:3604  requests[requestID].validators[msg.sender] == true */\n      iszero\n      iszero\n      eq\n        /* \"Desktop/EthCA/blockchain/EthCA.sol\":3546:3642  require(requests[requestID].validators[msg.sender] == true, \"Not a validator for this request!\") */\n      tag_70\n      jumpi\n      mload(0x40)\n      0x08c379a000000000000000000000000000000000000000000000000000000000\n      dup2\n      mstore\n      0x04\n      add\n      tag_71\n      swap1\n      tag_72\n      jump\t// in\n    tag_71:\n      mload(0x40)\n      dup1\n      swap2\n      sub\n      swap1\n      revert\n    tag_70:\n        /* \"Desktop/EthCA/blockchain/EthCA.sol\":3718:3726  requests */\n      0x02\n        /* \"Desktop/EthCA/blockchain/EthCA.sol\":3727:3736  requestID */\n      dup3\n        /* \"Desktop/EthCA/blockchain/EthCA.sol\":3718:3737  requests[requestID] */\n      dup2\n      sload\n      dup2\n      lt\n      tag_73\n      jumpi\n      tag_74\n      tag_37\n      jump\t// in\n    tag_74:\n    tag_73:\n      swap1\n      0x00\n      mstore\n      keccak256(0x00, 0x20)\n      swap1\n      0x0d\n      mul\n      add\n        /* \"Desktop/EthCA/blockchain/EthCA.sol\":3718:3746  requests[requestID].deadline */\n      0x0a\n      add\n      sload\n        /* \"Desktop/EthCA/blockchain/EthCA.sol\":3703:3715  block.number */\n      number\n        /* \"Desktop/EthCA/blockchain/EthCA.sol\":3703:3746  block.number < requests[requestID].deadline */\n      lt\n        /* \"Desktop/EthCA/blockchain/EthCA.sol\":3695:3768  require(block.number < requests[requestID].deadline, \"Voting has closed\") */\n      tag_76\n      jumpi\n      mload(0x40)\n      0x08c379a000000000000000000000000000000000000000000000000000000000\n      dup2\n      mstore\n      0x04\n      add\n      tag_77\n      swap1\n      tag_78\n      jump\t// in\n    tag_77:\n      mload(0x40)\n      dup1\n      swap2\n      sub\n      swap1\n      revert\n    tag_76:\n        /* \"Desktop/EthCA/blockchain/EthCA.sol\":3800:3806  voteIn */\n      dup1\n        /* \"Desktop/EthCA/blockchain/EthCA.sol\":3797:3988  if(voteIn) {... */\n      iszero\n      tag_79\n      jumpi\n        /* \"Desktop/EthCA/blockchain/EthCA.sol\":3884:3885  1 */\n      0x01\n        /* \"Desktop/EthCA/blockchain/EthCA.sol\":3853:3861  requests */\n      0x02\n        /* \"Desktop/EthCA/blockchain/EthCA.sol\":3862:3871  requestID */\n      dup4\n        /* \"Desktop/EthCA/blockchain/EthCA.sol\":3853:3872  requests[requestID] */\n      dup2\n      sload\n      dup2\n      lt\n      tag_80\n      jumpi\n      tag_81\n      tag_37\n      jump\t// in\n    tag_81:\n    tag_80:\n      swap1\n      0x00\n      mstore\n      keccak256(0x00, 0x20)\n      swap1\n      0x0d\n      mul\n      add\n        /* \"Desktop/EthCA/blockchain/EthCA.sol\":3853:3881  requests[requestID].yesVotes */\n      0x08\n      add\n      sload\n        /* \"Desktop/EthCA/blockchain/EthCA.sol\":3853:3885  requests[requestID].yesVotes + 1 */\n      tag_83\n      swap2\n      swap1\n      tag_63\n      jump\t// in\n    tag_83:\n        /* \"Desktop/EthCA/blockchain/EthCA.sol\":3822:3830  requests */\n      0x02\n        /* \"Desktop/EthCA/blockchain/EthCA.sol\":3831:3840  requestID */\n      dup4\n        /* \"Desktop/EthCA/blockchain/EthCA.sol\":3822:3841  requests[requestID] */\n      dup2\n      sload\n      dup2\n      lt\n      tag_84\n      jumpi\n      tag_85\n      tag_37\n      jump\t// in\n    tag_85:\n    tag_84:\n      swap1\n      0x00\n      mstore\n      keccak256(0x00, 0x20)\n      swap1\n      0x0d\n      mul\n      add\n        /* \"Desktop/EthCA/blockchain/EthCA.sol\":3822:3850  requests[requestID].yesVotes */\n      0x08\n      add\n        /* \"Desktop/EthCA/blockchain/EthCA.sol\":3822:3885  requests[requestID].yesVotes = requests[requestID].yesVotes + 1 */\n      dup2\n      swap1\n      sstore\n      pop\n        /* \"Desktop/EthCA/blockchain/EthCA.sol\":3797:3988  if(voteIn) {... */\n      jump(tag_87)\n    tag_79:\n        /* \"Desktop/EthCA/blockchain/EthCA.sol\":3976:3977  1 */\n      0x01\n        /* \"Desktop/EthCA/blockchain/EthCA.sol\":3946:3954  requests */\n      0x02\n        /* \"Desktop/EthCA/blockchain/EthCA.sol\":3955:3964  requestID */\n      dup4\n        /* \"Desktop/EthCA/blockchain/EthCA.sol\":3946:3965  requests[requestID] */\n      dup2\n      sload\n      dup2\n      lt\n      tag_88\n      jumpi\n      tag_89\n      tag_37\n      jump\t// in\n    tag_89:\n    tag_88:\n      swap1\n      0x00\n      mstore\n      keccak256(0x00, 0x20)\n      swap1\n      0x0d\n      mul\n      add\n        /* \"Desktop/EthCA/blockchain/EthCA.sol\":3946:3973  requests[requestID].noVotes */\n      0x09\n      add\n      sload\n        /* \"Desktop/EthCA/blockchain/EthCA.sol\":3946:3977  requests[requestID].noVotes + 1 */\n      tag_91\n      swap2\n      swap1\n      tag_63\n      jump\t// in\n    tag_91:\n        /* \"Desktop/EthCA/blockchain/EthCA.sol\":3916:3924  requests */\n      0x02\n        /* \"Desktop/EthCA/blockchain/EthCA.sol\":3925:3934  requestID */\n      dup4\n        /* \"Desktop/EthCA/blockchain/EthCA.sol\":3916:3935  requests[requestID] */\n      dup2\n      sload\n      dup2\n      lt\n      tag_92\n      jumpi\n      tag_93\n      tag_37\n      jump\t// in\n    tag_93:\n    tag_92:\n      swap1\n      0x00\n      mstore\n      keccak256(0x00, 0x20)\n      swap1\n      0x0d\n      mul\n      add\n        /* \"Desktop/EthCA/blockchain/EthCA.sol\":3916:3943  requests[requestID].noVotes */\n      0x09\n      add\n        /* \"Desktop/EthCA/blockchain/EthCA.sol\":3916:3977  requests[requestID].noVotes = requests[requestID].noVotes + 1 */\n      dup2\n      swap1\n      sstore\n      pop\n        /* \"Desktop/EthCA/blockchain/EthCA.sol\":3797:3988  if(voteIn) {... */\n    tag_87:\n        /* \"Desktop/EthCA/blockchain/EthCA.sol\":4047:4057  msg.sender */\n      caller\n        /* \"Desktop/EthCA/blockchain/EthCA.sol\":4039:4067  payable(msg.sender).transfer */\n      0xffffffffffffffffffffffffffffffffffffffff\n      and\n        /* \"Desktop/EthCA/blockchain/EthCA.sol\":4039:4105  payable(msg.sender).transfer(1 ether + requests[requestID].reward) */\n      0x08fc\n        /* \"Desktop/EthCA/blockchain/EthCA.sol\":4078:4086  requests */\n      0x02\n        /* \"Desktop/EthCA/blockchain/EthCA.sol\":4087:4096  requestID */\n      dup5\n        /* \"Desktop/EthCA/blockchain/EthCA.sol\":4078:4097  requests[requestID] */\n      dup2\n      sload\n      dup2\n      lt\n      tag_95\n      jumpi\n      tag_96\n      tag_37\n      jump\t// in\n    tag_96:\n    tag_95:\n      swap1\n      0x00\n      mstore\n      keccak256(0x00, 0x20)\n      swap1\n      0x0d\n      mul\n      add\n        /* \"Desktop/EthCA/blockchain/EthCA.sol\":4078:4104  requests[requestID].reward */\n      0x06\n      add\n      sload\n        /* \"Desktop/EthCA/blockchain/EthCA.sol\":4068:4075  1 ether */\n      0x0de0b6b3a7640000\n        /* \"Desktop/EthCA/blockchain/EthCA.sol\":4068:4104  1 ether + requests[requestID].reward */\n      tag_98\n      swap2\n      swap1\n      tag_63\n      jump\t// in\n    tag_98:\n        /* \"Desktop/EthCA/blockchain/EthCA.sol\":4039:4105  payable(msg.sender).transfer(1 ether + requests[requestID].reward) */\n      swap1\n      dup2\n      iszero\n      mul\n      swap1\n      mload(0x40)\n      0x00\n      mload(0x40)\n      dup1\n      dup4\n      sub\n      dup2\n      dup6\n      dup9\n      dup9\n      call\n      swap4\n      pop\n      pop\n      pop\n      pop\n      iszero\n      dup1\n      iszero\n      tag_100\n      jumpi\n      returndatasize\n      0x00\n      dup1\n      returndatacopy\n      revert(0x00, returndatasize)\n    tag_100:\n      pop\n        /* \"Desktop/EthCA/blockchain/EthCA.sol\":4230:4235  false */\n      0x00\n        /* \"Desktop/EthCA/blockchain/EthCA.sol\":4184:4235  requests[requestID].validators[msg.sender] == false */\n      iszero\n      iszero\n        /* \"Desktop/EthCA/blockchain/EthCA.sol\":4184:4192  requests */\n      0x02\n        /* \"Desktop/EthCA/blockchain/EthCA.sol\":4193:4202  requestID */\n      dup4\n        /* \"Desktop/EthCA/blockchain/EthCA.sol\":4184:4203  requests[requestID] */\n      dup2\n      sload\n      dup2\n      lt\n      tag_101\n      jumpi\n      tag_102\n      tag_37\n      jump\t// in\n    tag_102:\n    tag_101:\n      swap1\n      0x00\n      mstore\n      keccak256(0x00, 0x20)\n      swap1\n      0x0d\n      mul\n      add\n        /* \"Desktop/EthCA/blockchain/EthCA.sol\":4184:4214  requests[requestID].validators */\n      0x02\n      add\n        /* \"Desktop/EthCA/blockchain/EthCA.sol\":4184:4226  requests[requestID].validators[msg.sender] */\n      0x00\n        /* \"Desktop/EthCA/blockchain/EthCA.sol\":4215:4225  msg.sender */\n      caller\n        /* \"Desktop/EthCA/blockchain/EthCA.sol\":4184:4226  requests[requestID].validators[msg.sender] */\n      0xffffffffffffffffffffffffffffffffffffffff\n      and\n      0xffffffffffffffffffffffffffffffffffffffff\n      and\n      dup2\n      mstore\n      0x20\n      add\n      swap1\n      dup2\n      mstore\n      0x20\n      add\n      0x00\n      keccak256\n      0x00\n      swap1\n      sload\n      swap1\n      0x0100\n      exp\n      swap1\n      pop\n      pop\n        /* \"Desktop/EthCA/blockchain/EthCA.sol\":4184:4235  requests[requestID].validators[msg.sender] == false */\n      pop\n        /* \"Desktop/EthCA/blockchain/EthCA.sol\":3410:4242  function vote(uint requestID, bool voteIn) public {... */\n      pop\n      pop\n      jump\t// out\n        /* \"Desktop/EthCA/blockchain/EthCA.sol\":3024:3334  function cancel_signup(uint id) public {... */\n    tag_24:\n        /* \"Desktop/EthCA/blockchain/EthCA.sol\":3096:3106  msg.sender */\n      caller\n        /* \"Desktop/EthCA/blockchain/EthCA.sol\":3081:3106  signups[id] == msg.sender */\n      0xffffffffffffffffffffffffffffffffffffffff\n      and\n        /* \"Desktop/EthCA/blockchain/EthCA.sol\":3081:3088  signups */\n      0x00\n        /* \"Desktop/EthCA/blockchain/EthCA.sol\":3089:3091  id */\n      dup3\n        /* \"Desktop/EthCA/blockchain/EthCA.sol\":3081:3092  signups[id] */\n      dup2\n      sload\n      dup2\n      lt\n      tag_105\n      jumpi\n      tag_106\n      tag_37\n      jump\t// in\n    tag_106:\n    tag_105:\n      swap1\n      0x00\n      mstore\n      keccak256(0x00, 0x20)\n      add\n      0x00\n      swap1\n      sload\n      swap1\n      0x0100\n      exp\n      swap1\n      div\n      0xffffffffffffffffffffffffffffffffffffffff\n      and\n        /* \"Desktop/EthCA/blockchain/EthCA.sol\":3081:3106  signups[id] == msg.sender */\n      0xffffffffffffffffffffffffffffffffffffffff\n      and\n      eq\n        /* \"Desktop/EthCA/blockchain/EthCA.sol\":3073:3141  require(signups[id] == msg.sender, \"ID doesn't match your address!\") */\n      tag_108\n      jumpi\n      mload(0x40)\n      0x08c379a000000000000000000000000000000000000000000000000000000000\n      dup2\n      mstore\n      0x04\n      add\n      tag_109\n      swap1\n      tag_110\n      jump\t// in\n    tag_109:\n      mload(0x40)\n      dup1\n      swap2\n      sub\n      swap1\n      revert\n    tag_108:\n        /* \"Desktop/EthCA/blockchain/EthCA.sol\":3183:3187  true */\n      0x01\n        /* \"Desktop/EthCA/blockchain/EthCA.sol\":3159:3187  signedup[msg.sender] == true */\n      iszero\n      iszero\n        /* \"Desktop/EthCA/blockchain/EthCA.sol\":3159:3167  signedup */\n      0x01\n        /* \"Desktop/EthCA/blockchain/EthCA.sol\":3159:3179  signedup[msg.sender] */\n      0x00\n        /* \"Desktop/EthCA/blockchain/EthCA.sol\":3168:3178  msg.sender */\n      caller\n        /* \"Desktop/EthCA/blockchain/EthCA.sol\":3159:3179  signedup[msg.sender] */\n      0xffffffffffffffffffffffffffffffffffffffff\n      and\n      0xffffffffffffffffffffffffffffffffffffffff\n      and\n      dup2\n      mstore\n      0x20\n      add\n      swap1\n      dup2\n      mstore\n      0x20\n      add\n      0x00\n      keccak256\n      0x00\n      swap1\n      sload\n      swap1\n      0x0100\n      exp\n      swap1\n      div\n      0xff\n      and\n        /* \"Desktop/EthCA/blockchain/EthCA.sol\":3159:3187  signedup[msg.sender] == true */\n      iszero\n      iszero\n      eq\n        /* \"Desktop/EthCA/blockchain/EthCA.sol\":3151:3206  require(signedup[msg.sender] == true, \"Not signed up!\") */\n      tag_111\n      jumpi\n      mload(0x40)\n      0x08c379a000000000000000000000000000000000000000000000000000000000\n      dup2\n      mstore\n      0x04\n      add\n      tag_112\n      swap1\n      tag_113\n      jump\t// in\n    tag_112:\n      mload(0x40)\n      dup1\n      swap2\n      sub\n      swap1\n      revert\n    tag_111:\n        /* \"Desktop/EthCA/blockchain/EthCA.sol\":3240:3245  false */\n      0x00\n        /* \"Desktop/EthCA/blockchain/EthCA.sol\":3216:3245  signedup[msg.sender] == false */\n      iszero\n      iszero\n        /* \"Desktop/EthCA/blockchain/EthCA.sol\":3216:3224  signedup */\n      0x01\n        /* \"Desktop/EthCA/blockchain/EthCA.sol\":3216:3236  signedup[msg.sender] */\n      0x00\n        /* \"Desktop/EthCA/blockchain/EthCA.sol\":3225:3235  msg.sender */\n      caller\n        /* \"Desktop/EthCA/blockchain/EthCA.sol\":3216:3236  signedup[msg.sender] */\n      0xffffffffffffffffffffffffffffffffffffffff\n      and\n      0xffffffffffffffffffffffffffffffffffffffff\n      and\n      dup2\n      mstore\n      0x20\n      add\n      swap1\n      dup2\n      mstore\n      0x20\n      add\n      0x00\n      keccak256\n      0x00\n      swap1\n      sload\n      swap1\n      0x0100\n      exp\n      swap1\n      pop\n      pop\n        /* \"Desktop/EthCA/blockchain/EthCA.sol\":3216:3245  signedup[msg.sender] == false */\n      pop\n        /* \"Desktop/EthCA/blockchain/EthCA.sol\":3278:3279  0 */\n      0x00\n        /* \"Desktop/EthCA/blockchain/EthCA.sol\":3255:3280  signups[id] == address(0) */\n      0xffffffffffffffffffffffffffffffffffffffff\n      and\n        /* \"Desktop/EthCA/blockchain/EthCA.sol\":3255:3262  signups */\n      0x00\n        /* \"Desktop/EthCA/blockchain/EthCA.sol\":3263:3265  id */\n      dup3\n        /* \"Desktop/EthCA/blockchain/EthCA.sol\":3255:3266  signups[id] */\n      dup2\n      sload\n      dup2\n      lt\n      tag_114\n      jumpi\n      tag_115\n      tag_37\n      jump\t// in\n    tag_115:\n    tag_114:\n      swap1\n      0x00\n      mstore\n      keccak256(0x00, 0x20)\n      add\n      0x00\n      swap1\n      sload\n      swap1\n      0x0100\n      exp\n      swap1\n      pop\n      pop\n        /* \"Desktop/EthCA/blockchain/EthCA.sol\":3255:3280  signups[id] == address(0) */\n      pop\n        /* \"Desktop/EthCA/blockchain/EthCA.sol\":3298:3308  msg.sender */\n      caller\n        /* \"Desktop/EthCA/blockchain/EthCA.sol\":3290:3318  payable(msg.sender).transfer */\n      0xffffffffffffffffffffffffffffffffffffffff\n      and\n        /* \"Desktop/EthCA/blockchain/EthCA.sol\":3290:3327  payable(msg.sender).transfer(1 ether) */\n      0x08fc\n        /* \"Desktop/EthCA/blockchain/EthCA.sol\":3319:3326  1 ether */\n      0x0de0b6b3a7640000\n        /* \"Desktop/EthCA/blockchain/EthCA.sol\":3290:3327  payable(msg.sender).transfer(1 ether) */\n      swap1\n      dup2\n      iszero\n      mul\n      swap1\n      mload(0x40)\n      0x00\n      mload(0x40)\n      dup1\n      dup4\n      sub\n      dup2\n      dup6\n      dup9\n      dup9\n      call\n      swap4\n      pop\n      pop\n      pop\n      pop\n      iszero\n      dup1\n      iszero\n      tag_118\n      jumpi\n      returndatasize\n      0x00\n      dup1\n      returndatacopy\n      revert(0x00, returndatasize)\n    tag_118:\n      pop\n        /* \"Desktop/EthCA/blockchain/EthCA.sol\":3024:3334  function cancel_signup(uint id) public {... */\n      pop\n      jump\t// out\n        /* \"Desktop/EthCA/blockchain/EthCA.sol\":1044:1740  function chooseValidators(uint id) private {... */\n    tag_51:\n        /* \"Desktop/EthCA/blockchain/EthCA.sol\":1101:1107  uint i */\n      0x00\n        /* \"Desktop/EthCA/blockchain/EthCA.sol\":1097:1734  for(uint i = 0; i < requests[id].validatorNum; i++) {... */\n    tag_120:\n        /* \"Desktop/EthCA/blockchain/EthCA.sol\":1117:1125  requests */\n      0x02\n        /* \"Desktop/EthCA/blockchain/EthCA.sol\":1126:1128  id */\n      dup3\n        /* \"Desktop/EthCA/blockchain/EthCA.sol\":1117:1129  requests[id] */\n      dup2\n      sload\n      dup2\n      lt\n      tag_123\n      jumpi\n      tag_124\n      tag_37\n      jump\t// in\n    tag_124:\n    tag_123:\n      swap1\n      0x00\n      mstore\n      keccak256(0x00, 0x20)\n      swap1\n      0x0d\n      mul\n      add\n        /* \"Desktop/EthCA/blockchain/EthCA.sol\":1117:1142  requests[id].validatorNum */\n      0x0b\n      add\n      sload\n        /* \"Desktop/EthCA/blockchain/EthCA.sol\":1113:1114  i */\n      dup2\n        /* \"Desktop/EthCA/blockchain/EthCA.sol\":1113:1142  i < requests[id].validatorNum */\n      lt\n        /* \"Desktop/EthCA/blockchain/EthCA.sol\":1097:1734  for(uint i = 0; i < requests[id].validatorNum; i++) {... */\n      iszero\n      tag_121\n      jumpi\n        /* \"Desktop/EthCA/blockchain/EthCA.sol\":1236:1246  uint index */\n      0x00\n        /* \"Desktop/EthCA/blockchain/EthCA.sol\":1298:1305  signups */\n      dup1\n        /* \"Desktop/EthCA/blockchain/EthCA.sol\":1298:1312  signups.length */\n      dup1\n      sload\n      swap1\n      pop\n        /* \"Desktop/EthCA/blockchain/EthCA.sol\":1254:1294  sha256(abi.encodePacked(signups.length)) */\n      0x02\n        /* \"Desktop/EthCA/blockchain/EthCA.sol\":1278:1285  signups */\n      0x00\n        /* \"Desktop/EthCA/blockchain/EthCA.sol\":1278:1292  signups.length */\n      dup1\n      sload\n      swap1\n      pop\n        /* \"Desktop/EthCA/blockchain/EthCA.sol\":1261:1293  abi.encodePacked(signups.length) */\n      add(0x20, mload(0x40))\n      tag_126\n      swap2\n      swap1\n      tag_127\n      jump\t// in\n    tag_126:\n      mload(0x40)\n      0x20\n      dup2\n      dup4\n      sub\n      sub\n      dup2\n      mstore\n      swap1\n      0x40\n      mstore\n        /* \"Desktop/EthCA/blockchain/EthCA.sol\":1254:1294  sha256(abi.encodePacked(signups.length)) */\n      mload(0x40)\n      tag_128\n      swap2\n      swap1\n      tag_30\n      jump\t// in\n    tag_128:\n      0x20\n      mload(0x40)\n      dup1\n      dup4\n      sub\n      dup2\n      dup6\n      gas\n      staticcall\n      iszero\n      dup1\n      iszero\n      tag_130\n      jumpi\n      returndatasize\n      0x00\n      dup1\n      returndatacopy\n      revert(0x00, returndatasize)\n    tag_130:\n      pop\n      pop\n      pop\n      mload(0x40)\n      returndatasize\n      not(0x1f)\n      0x1f\n      dup3\n      add\n      and\n      dup3\n      add\n      dup1\n      0x40\n      mstore\n      pop\n      dup2\n      add\n      swap1\n      tag_131\n      swap2\n      swap1\n      tag_34\n      jump\t// in\n    tag_131:\n        /* \"Desktop/EthCA/blockchain/EthCA.sol\":1249:1295  uint(sha256(abi.encodePacked(signups.length))) */\n      0x00\n      shr\n        /* \"Desktop/EthCA/blockchain/EthCA.sol\":1249:1312  uint(sha256(abi.encodePacked(signups.length))) % signups.length */\n      tag_132\n      swap2\n      swap1\n      tag_133\n      jump\t// in\n    tag_132:\n        /* \"Desktop/EthCA/blockchain/EthCA.sol\":1236:1312  uint index = uint(sha256(abi.encodePacked(signups.length))) % signups.length */\n      swap1\n      pop\n        /* \"Desktop/EthCA/blockchain/EthCA.sol\":1326:1346  address payable val1 */\n      0x00\n        /* \"Desktop/EthCA/blockchain/EthCA.sol\":1349:1356  signups */\n      dup1\n        /* \"Desktop/EthCA/blockchain/EthCA.sol\":1357:1362  index */\n      dup3\n        /* \"Desktop/EthCA/blockchain/EthCA.sol\":1349:1363  signups[index] */\n      dup2\n      sload\n      dup2\n      lt\n      tag_134\n      jumpi\n      tag_135\n      tag_37\n      jump\t// in\n    tag_135:\n    tag_134:\n      swap1\n      0x00\n      mstore\n      keccak256(0x00, 0x20)\n      add\n      0x00\n      swap1\n      sload\n      swap1\n      0x0100\n      exp\n      swap1\n      div\n      0xffffffffffffffffffffffffffffffffffffffff\n      and\n        /* \"Desktop/EthCA/blockchain/EthCA.sol\":1326:1363  address payable val1 = signups[index] */\n      swap1\n      pop\n        /* \"Desktop/EthCA/blockchain/EthCA.sol\":1394:1399  false */\n      0x00\n        /* \"Desktop/EthCA/blockchain/EthCA.sol\":1377:1385  signedup */\n      0x01\n        /* \"Desktop/EthCA/blockchain/EthCA.sol\":1377:1391  signedup[val1] */\n      0x00\n        /* \"Desktop/EthCA/blockchain/EthCA.sol\":1386:1390  val1 */\n      dup4\n        /* \"Desktop/EthCA/blockchain/EthCA.sol\":1377:1391  signedup[val1] */\n      0xffffffffffffffffffffffffffffffffffffffff\n      and\n      0xffffffffffffffffffffffffffffffffffffffff\n      and\n      dup2\n      mstore\n      0x20\n      add\n      swap1\n      dup2\n      mstore\n      0x20\n      add\n      0x00\n      keccak256\n      0x00\n        /* \"Desktop/EthCA/blockchain/EthCA.sol\":1377:1399  signedup[val1] = false */\n      0x0100\n      exp\n      dup2\n      sload\n      dup2\n      0xff\n      mul\n      not\n      and\n      swap1\n      dup4\n      iszero\n      iszero\n      mul\n      or\n      swap1\n      sstore\n      pop\n        /* \"Desktop/EthCA/blockchain/EthCA.sol\":1497:1504  signups */\n      0x00\n        /* \"Desktop/EthCA/blockchain/EthCA.sol\":1522:1523  1 */\n      0x01\n        /* \"Desktop/EthCA/blockchain/EthCA.sol\":1505:1512  signups */\n      0x00\n        /* \"Desktop/EthCA/blockchain/EthCA.sol\":1505:1519  signups.length */\n      dup1\n      sload\n      swap1\n      pop\n        /* \"Desktop/EthCA/blockchain/EthCA.sol\":1505:1523  signups.length - 1 */\n      tag_137\n      swap2\n      swap1\n      tag_65\n      jump\t// in\n    tag_137:\n        /* \"Desktop/EthCA/blockchain/EthCA.sol\":1497:1524  signups[signups.length - 1] */\n      dup2\n      sload\n      dup2\n      lt\n      tag_138\n      jumpi\n      tag_139\n      tag_37\n      jump\t// in\n    tag_139:\n    tag_138:\n      swap1\n      0x00\n      mstore\n      keccak256(0x00, 0x20)\n      add\n      0x00\n      swap1\n      sload\n      swap1\n      0x0100\n      exp\n      swap1\n      div\n      0xffffffffffffffffffffffffffffffffffffffff\n      and\n        /* \"Desktop/EthCA/blockchain/EthCA.sol\":1480:1487  signups */\n      0x00\n        /* \"Desktop/EthCA/blockchain/EthCA.sol\":1488:1493  index */\n      dup4\n        /* \"Desktop/EthCA/blockchain/EthCA.sol\":1480:1494  signups[index] */\n      dup2\n      sload\n      dup2\n      lt\n      tag_141\n      jumpi\n      tag_142\n      tag_37\n      jump\t// in\n    tag_142:\n    tag_141:\n      swap1\n      0x00\n      mstore\n      keccak256(0x00, 0x20)\n      add\n      0x00\n        /* \"Desktop/EthCA/blockchain/EthCA.sol\":1480:1524  signups[index] = signups[signups.length - 1] */\n      0x0100\n      exp\n      dup2\n      sload\n      dup2\n      0xffffffffffffffffffffffffffffffffffffffff\n      mul\n      not\n      and\n      swap1\n      dup4\n      0xffffffffffffffffffffffffffffffffffffffff\n      and\n      mul\n      or\n      swap1\n      sstore\n      pop\n        /* \"Desktop/EthCA/blockchain/EthCA.sol\":1580:1587  signups */\n      0x00\n        /* \"Desktop/EthCA/blockchain/EthCA.sol\":1580:1593  signups.pop() */\n      dup1\n      sload\n      dup1\n      tag_144\n      jumpi\n      tag_145\n      tag_146\n      jump\t// in\n    tag_145:\n    tag_144:\n      0x01\n      swap1\n      sub\n      dup2\n      dup2\n      swap1\n      0x00\n      mstore\n      keccak256(0x00, 0x20)\n      add\n      exp(0x0100, 0x00)\n      dup2\n      sload\n      swap1\n      0xffffffffffffffffffffffffffffffffffffffff\n      mul\n      not\n      and\n      swap1\n      sstore\n      swap1\n      sstore\n        /* \"Desktop/EthCA/blockchain/EthCA.sol\":1675:1679  val1 */\n      dup1\n        /* \"Desktop/EthCA/blockchain/EthCA.sol\":1643:1651  requests */\n      0x02\n        /* \"Desktop/EthCA/blockchain/EthCA.sol\":1652:1654  id */\n      dup6\n        /* \"Desktop/EthCA/blockchain/EthCA.sol\":1643:1655  requests[id] */\n      dup2\n      sload\n      dup2\n      lt\n      tag_148\n      jumpi\n      tag_149\n      tag_37\n      jump\t// in\n    tag_149:\n    tag_148:\n      swap1\n      0x00\n      mstore\n      keccak256(0x00, 0x20)\n      swap1\n      0x0d\n      mul\n      add\n        /* \"Desktop/EthCA/blockchain/EthCA.sol\":1643:1669  requests[id].validatorlist */\n      0x03\n      add\n        /* \"Desktop/EthCA/blockchain/EthCA.sol\":1670:1671  i */\n      dup5\n        /* \"Desktop/EthCA/blockchain/EthCA.sol\":1643:1672  requests[id].validatorlist[i] */\n      dup2\n      sload\n      dup2\n      lt\n      tag_151\n      jumpi\n      tag_152\n      tag_37\n      jump\t// in\n    tag_152:\n    tag_151:\n      swap1\n      0x00\n      mstore\n      keccak256(0x00, 0x20)\n      add\n      0x00\n        /* \"Desktop/EthCA/blockchain/EthCA.sol\":1643:1679  requests[id].validatorlist[i] = val1 */\n      0x0100\n      exp\n      dup2\n      sload\n      dup2\n      0xffffffffffffffffffffffffffffffffffffffff\n      mul\n      not\n      and\n      swap1\n      dup4\n      0xffffffffffffffffffffffffffffffffffffffff\n      and\n      mul\n      or\n      swap1\n      sstore\n      pop\n        /* \"Desktop/EthCA/blockchain/EthCA.sol\":1149:1734  {... */\n      pop\n      pop\n        /* \"Desktop/EthCA/blockchain/EthCA.sol\":1144:1147  i++ */\n      dup1\n      dup1\n      tag_154\n      swap1\n      tag_155\n      jump\t// in\n    tag_154:\n      swap2\n      pop\n      pop\n        /* \"Desktop/EthCA/blockchain/EthCA.sol\":1097:1734  for(uint i = 0; i < requests[id].validatorNum; i++) {... */\n      jump(tag_120)\n    tag_121:\n      pop\n        /* \"Desktop/EthCA/blockchain/EthCA.sol\":1044:1740  function chooseValidators(uint id) private {... */\n      pop\n      jump\t// out\n    tag_49:\n      dup3\n      dup1\n      sload\n      tag_156\n      swap1\n      tag_157\n      jump\t// in\n    tag_156:\n      swap1\n      0x00\n      mstore\n      keccak256(0x00, 0x20)\n      swap1\n      0x1f\n      add\n      0x20\n      swap1\n      div\n      dup2\n      add\n      swap3\n      dup3\n      tag_159\n      jumpi\n      0x00\n      dup6\n      sstore\n      jump(tag_158)\n    tag_159:\n      dup3\n      0x1f\n      lt\n      tag_160\n      jumpi\n      dup1\n      mload\n      not(0xff)\n      and\n      dup4\n      dup1\n      add\n      or\n      dup6\n      sstore\n      jump(tag_158)\n    tag_160:\n      dup3\n      dup1\n      add\n      0x01\n      add\n      dup6\n      sstore\n      dup3\n      iszero\n      tag_158\n      jumpi\n      swap2\n      dup3\n      add\n    tag_161:\n      dup3\n      dup2\n      gt\n      iszero\n      tag_162\n      jumpi\n      dup3\n      mload\n      dup3\n      sstore\n      swap2\n      0x20\n      add\n      swap2\n      swap1\n      0x01\n      add\n      swap1\n      jump(tag_161)\n    tag_162:\n    tag_158:\n      pop\n      swap1\n      pop\n      tag_163\n      swap2\n      swap1\n      tag_164\n      jump\t// in\n    tag_163:\n      pop\n      swap1\n      jump\t// out\n    tag_164:\n    tag_165:\n      dup1\n      dup3\n      gt\n      iszero\n      tag_166\n      jumpi\n      0x00\n      dup2\n      0x00\n      swap1\n      sstore\n      pop\n      0x01\n      add\n      jump(tag_165)\n    tag_166:\n      pop\n      swap1\n      jump\t// out\n        /* \"#utility.yul\":7:419   */\n    tag_168:\n        /* \"#utility.yul\":85:90   */\n      0x00\n        /* \"#utility.yul\":110:176   */\n      tag_170\n        /* \"#utility.yul\":126:175   */\n      tag_171\n        /* \"#utility.yul\":168:174   */\n      dup5\n        /* \"#utility.yul\":126:175   */\n      tag_172\n      jump\t// in\n    tag_171:\n        /* \"#utility.yul\":110:176   */\n      tag_173\n      jump\t// in\n    tag_170:\n        /* \"#utility.yul\":101:176   */\n      swap1\n      pop\n        /* \"#utility.yul\":199:205   */\n      dup3\n        /* \"#utility.yul\":192:197   */\n      dup2\n        /* \"#utility.yul\":185:206   */\n      mstore\n        /* \"#utility.yul\":237:241   */\n      0x20\n        /* \"#utility.yul\":230:235   */\n      dup2\n        /* \"#utility.yul\":226:242   */\n      add\n        /* \"#utility.yul\":275:278   */\n      dup5\n        /* \"#utility.yul\":266:272   */\n      dup5\n        /* \"#utility.yul\":261:264   */\n      dup5\n        /* \"#utility.yul\":257:273   */\n      add\n        /* \"#utility.yul\":254:279   */\n      gt\n        /* \"#utility.yul\":251:363   */\n      iszero\n      tag_174\n      jumpi\n        /* \"#utility.yul\":282:361   */\n      tag_175\n      tag_176\n      jump\t// in\n    tag_175:\n        /* \"#utility.yul\":251:363   */\n    tag_174:\n        /* \"#utility.yul\":372:413   */\n      tag_177\n        /* \"#utility.yul\":406:412   */\n      dup5\n        /* \"#utility.yul\":401:404   */\n      dup3\n        /* \"#utility.yul\":396:399   */\n      dup6\n        /* \"#utility.yul\":372:413   */\n      tag_178\n      jump\t// in\n    tag_177:\n        /* \"#utility.yul\":91:419   */\n      pop\n        /* \"#utility.yul\":7:419   */\n      swap4\n      swap3\n      pop\n      pop\n      pop\n      jump\t// out\n        /* \"#utility.yul\":425:558   */\n    tag_179:\n        /* \"#utility.yul\":468:473   */\n      0x00\n        /* \"#utility.yul\":506:512   */\n      dup2\n        /* \"#utility.yul\":493:513   */\n      calldataload\n        /* \"#utility.yul\":484:513   */\n      swap1\n      pop\n        /* \"#utility.yul\":522:552   */\n      tag_181\n        /* \"#utility.yul\":546:551   */\n      dup2\n        /* \"#utility.yul\":522:552   */\n      tag_182\n      jump\t// in\n    tag_181:\n        /* \"#utility.yul\":425:558   */\n      swap3\n      swap2\n      pop\n      pop\n      jump\t// out\n        /* \"#utility.yul\":564:707   */\n    tag_183:\n        /* \"#utility.yul\":621:626   */\n      0x00\n        /* \"#utility.yul\":652:658   */\n      dup2\n        /* \"#utility.yul\":646:659   */\n      mload\n        /* \"#utility.yul\":637:659   */\n      swap1\n      pop\n        /* \"#utility.yul\":668:701   */\n      tag_185\n        /* \"#utility.yul\":695:700   */\n      dup2\n        /* \"#utility.yul\":668:701   */\n      tag_186\n      jump\t// in\n    tag_185:\n        /* \"#utility.yul\":564:707   */\n      swap3\n      swap2\n      pop\n      pop\n      jump\t// out\n        /* \"#utility.yul\":727:1067   */\n    tag_187:\n        /* \"#utility.yul\":783:788   */\n      0x00\n        /* \"#utility.yul\":832:835   */\n      dup3\n        /* \"#utility.yul\":825:829   */\n      0x1f\n        /* \"#utility.yul\":817:823   */\n      dup4\n        /* \"#utility.yul\":813:830   */\n      add\n        /* \"#utility.yul\":809:836   */\n      slt\n        /* \"#utility.yul\":799:921   */\n      tag_189\n      jumpi\n        /* \"#utility.yul\":840:919   */\n      tag_190\n      tag_191\n      jump\t// in\n    tag_190:\n        /* \"#utility.yul\":799:921   */\n    tag_189:\n        /* \"#utility.yul\":957:963   */\n      dup2\n        /* \"#utility.yul\":944:964   */\n      calldataload\n        /* \"#utility.yul\":982:1061   */\n      tag_192\n        /* \"#utility.yul\":1057:1060   */\n      dup5\n        /* \"#utility.yul\":1049:1055   */\n      dup3\n        /* \"#utility.yul\":1042:1046   */\n      0x20\n        /* \"#utility.yul\":1034:1040   */\n      dup7\n        /* \"#utility.yul\":1030:1047   */\n      add\n        /* \"#utility.yul\":982:1061   */\n      tag_168\n      jump\t// in\n    tag_192:\n        /* \"#utility.yul\":973:1061   */\n      swap2\n      pop\n        /* \"#utility.yul\":789:1067   */\n      pop\n        /* \"#utility.yul\":727:1067   */\n      swap3\n      swap2\n      pop\n      pop\n      jump\t// out\n        /* \"#utility.yul\":1073:1212   */\n    tag_193:\n        /* \"#utility.yul\":1119:1124   */\n      0x00\n        /* \"#utility.yul\":1157:1163   */\n      dup2\n        /* \"#utility.yul\":1144:1164   */\n      calldataload\n        /* \"#utility.yul\":1135:1164   */\n      swap1\n      pop\n        /* \"#utility.yul\":1173:1206   */\n      tag_195\n        /* \"#utility.yul\":1200:1205   */\n      dup2\n        /* \"#utility.yul\":1173:1206   */\n      tag_196\n      jump\t// in\n    tag_195:\n        /* \"#utility.yul\":1073:1212   */\n      swap3\n      swap2\n      pop\n      pop\n      jump\t// out\n        /* \"#utility.yul\":1218:1569   */\n    tag_34:\n        /* \"#utility.yul\":1288:1294   */\n      0x00\n        /* \"#utility.yul\":1337:1339   */\n      0x20\n        /* \"#utility.yul\":1325:1334   */\n      dup3\n        /* \"#utility.yul\":1316:1323   */\n      dup5\n        /* \"#utility.yul\":1312:1335   */\n      sub\n        /* \"#utility.yul\":1308:1340   */\n      slt\n        /* \"#utility.yul\":1305:1424   */\n      iszero\n      tag_198\n      jumpi\n        /* \"#utility.yul\":1343:1422   */\n      tag_199\n      tag_200\n      jump\t// in\n    tag_199:\n        /* \"#utility.yul\":1305:1424   */\n    tag_198:\n        /* \"#utility.yul\":1463:1464   */\n      0x00\n        /* \"#utility.yul\":1488:1552   */\n      tag_201\n        /* \"#utility.yul\":1544:1551   */\n      dup5\n        /* \"#utility.yul\":1535:1541   */\n      dup3\n        /* \"#utility.yul\":1524:1533   */\n      dup6\n        /* \"#utility.yul\":1520:1542   */\n      add\n        /* \"#utility.yul\":1488:1552   */\n      tag_183\n      jump\t// in\n    tag_201:\n        /* \"#utility.yul\":1478:1552   */\n      swap2\n      pop\n        /* \"#utility.yul\":1434:1562   */\n      pop\n        /* \"#utility.yul\":1218:1569   */\n      swap3\n      swap2\n      pop\n      pop\n      jump\t// out\n        /* \"#utility.yul\":1575:2084   */\n    tag_8:\n        /* \"#utility.yul\":1644:1650   */\n      0x00\n        /* \"#utility.yul\":1693:1695   */\n      0x20\n        /* \"#utility.yul\":1681:1690   */\n      dup3\n        /* \"#utility.yul\":1672:1679   */\n      dup5\n        /* \"#utility.yul\":1668:1691   */\n      sub\n        /* \"#utility.yul\":1664:1696   */\n      slt\n        /* \"#utility.yul\":1661:1780   */\n      iszero\n      tag_203\n      jumpi\n        /* \"#utility.yul\":1699:1778   */\n      tag_204\n      tag_200\n      jump\t// in\n    tag_204:\n        /* \"#utility.yul\":1661:1780   */\n    tag_203:\n        /* \"#utility.yul\":1847:1848   */\n      0x00\n        /* \"#utility.yul\":1836:1845   */\n      dup3\n        /* \"#utility.yul\":1832:1849   */\n      add\n        /* \"#utility.yul\":1819:1850   */\n      calldataload\n        /* \"#utility.yul\":1877:1895   */\n      0xffffffffffffffff\n        /* \"#utility.yul\":1869:1875   */\n      dup2\n        /* \"#utility.yul\":1866:1896   */\n      gt\n        /* \"#utility.yul\":1863:1980   */\n      iszero\n      tag_205\n      jumpi\n        /* \"#utility.yul\":1899:1978   */\n      tag_206\n      tag_207\n      jump\t// in\n    tag_206:\n        /* \"#utility.yul\":1863:1980   */\n    tag_205:\n        /* \"#utility.yul\":2004:2067   */\n      tag_208\n        /* \"#utility.yul\":2059:2066   */\n      dup5\n        /* \"#utility.yul\":2050:2056   */\n      dup3\n        /* \"#utility.yul\":2039:2048   */\n      dup6\n        /* \"#utility.yul\":2035:2057   */\n      add\n        /* \"#utility.yul\":2004:2067   */\n      tag_187\n      jump\t// in\n    tag_208:\n        /* \"#utility.yul\":1994:2067   */\n      swap2\n      pop\n        /* \"#utility.yul\":1790:2077   */\n      pop\n        /* \"#utility.yul\":1575:2084   */\n      swap3\n      swap2\n      pop\n      pop\n      jump\t// out\n        /* \"#utility.yul\":2090:2419   */\n    tag_23:\n        /* \"#utility.yul\":2149:2155   */\n      0x00\n        /* \"#utility.yul\":2198:2200   */\n      0x20\n        /* \"#utility.yul\":2186:2195   */\n      dup3\n        /* \"#utility.yul\":2177:2184   */\n      dup5\n        /* \"#utility.yul\":2173:2196   */\n      sub\n        /* \"#utility.yul\":2169:2201   */\n      slt\n        /* \"#utility.yul\":2166:2285   */\n      iszero\n      tag_210\n      jumpi\n        /* \"#utility.yul\":2204:2283   */\n      tag_211\n      tag_200\n      jump\t// in\n    tag_211:\n        /* \"#utility.yul\":2166:2285   */\n    tag_210:\n        /* \"#utility.yul\":2324:2325   */\n      0x00\n        /* \"#utility.yul\":2349:2402   */\n      tag_212\n        /* \"#utility.yul\":2394:2401   */\n      dup5\n        /* \"#utility.yul\":2385:2391   */\n      dup3\n        /* \"#utility.yul\":2374:2383   */\n      dup6\n        /* \"#utility.yul\":2370:2392   */\n      add\n        /* \"#utility.yul\":2349:2402   */\n      tag_193\n      jump\t// in\n    tag_212:\n        /* \"#utility.yul\":2339:2402   */\n      swap2\n      pop\n        /* \"#utility.yul\":2295:2412   */\n      pop\n        /* \"#utility.yul\":2090:2419   */\n      swap3\n      swap2\n      pop\n      pop\n      jump\t// out\n        /* \"#utility.yul\":2425:2893   */\n    tag_18:\n        /* \"#utility.yul\":2490:2496   */\n      0x00\n        /* \"#utility.yul\":2498:2504   */\n      dup1\n        /* \"#utility.yul\":2547:2549   */\n      0x40\n        /* \"#utility.yul\":2535:2544   */\n      dup4\n        /* \"#utility.yul\":2526:2533   */\n      dup6\n        /* \"#utility.yul\":2522:2545   */\n      sub\n        /* \"#utility.yul\":2518:2550   */\n      slt\n        /* \"#utility.yul\":2515:2634   */\n      iszero\n      tag_214\n      jumpi\n        /* \"#utility.yul\":2553:2632   */\n      tag_215\n      tag_200\n      jump\t// in\n    tag_215:\n        /* \"#utility.yul\":2515:2634   */\n    tag_214:\n        /* \"#utility.yul\":2673:2674   */\n      0x00\n        /* \"#utility.yul\":2698:2751   */\n      tag_216\n        /* \"#utility.yul\":2743:2750   */\n      dup6\n        /* \"#utility.yul\":2734:2740   */\n      dup3\n        /* \"#utility.yul\":2723:2732   */\n      dup7\n        /* \"#utility.yul\":2719:2741   */\n      add\n        /* \"#utility.yul\":2698:2751   */\n      tag_193\n      jump\t// in\n    tag_216:\n        /* \"#utility.yul\":2688:2751   */\n      swap3\n      pop\n        /* \"#utility.yul\":2644:2761   */\n      pop\n        /* \"#utility.yul\":2800:2802   */\n      0x20\n        /* \"#utility.yul\":2826:2876   */\n      tag_217\n        /* \"#utility.yul\":2868:2875   */\n      dup6\n        /* \"#utility.yul\":2859:2865   */\n      dup3\n        /* \"#utility.yul\":2848:2857   */\n      dup7\n        /* \"#utility.yul\":2844:2866   */\n      add\n        /* \"#utility.yul\":2826:2876   */\n      tag_179\n      jump\t// in\n    tag_217:\n        /* \"#utility.yul\":2816:2876   */\n      swap2\n      pop\n        /* \"#utility.yul\":2771:2886   */\n      pop\n        /* \"#utility.yul\":2425:2893   */\n      swap3\n      pop\n      swap3\n      swap1\n      pop\n      jump\t// out\n        /* \"#utility.yul\":2899:3056   */\n    tag_218:\n        /* \"#utility.yul\":3004:3049   */\n      tag_220\n        /* \"#utility.yul\":3024:3048   */\n      tag_221\n        /* \"#utility.yul\":3042:3047   */\n      dup3\n        /* \"#utility.yul\":3024:3048   */\n      tag_222\n      jump\t// in\n    tag_221:\n        /* \"#utility.yul\":3004:3049   */\n      tag_223\n      jump\t// in\n    tag_220:\n        /* \"#utility.yul\":2999:3002   */\n      dup3\n        /* \"#utility.yul\":2992:3050   */\n      mstore\n        /* \"#utility.yul\":2899:3056   */\n      pop\n      pop\n      jump\t// out\n        /* \"#utility.yul\":3062:3435   */\n    tag_224:\n        /* \"#utility.yul\":3166:3169   */\n      0x00\n        /* \"#utility.yul\":3194:3232   */\n      tag_226\n        /* \"#utility.yul\":3226:3231   */\n      dup3\n        /* \"#utility.yul\":3194:3232   */\n      tag_227\n      jump\t// in\n    tag_226:\n        /* \"#utility.yul\":3248:3336   */\n      tag_228\n        /* \"#utility.yul\":3329:3335   */\n      dup2\n        /* \"#utility.yul\":3324:3327   */\n      dup6\n        /* \"#utility.yul\":3248:3336   */\n      tag_229\n      jump\t// in\n    tag_228:\n        /* \"#utility.yul\":3241:3336   */\n      swap4\n      pop\n        /* \"#utility.yul\":3345:3397   */\n      tag_230\n        /* \"#utility.yul\":3390:3396   */\n      dup2\n        /* \"#utility.yul\":3385:3388   */\n      dup6\n        /* \"#utility.yul\":3378:3382   */\n      0x20\n        /* \"#utility.yul\":3371:3376   */\n      dup7\n        /* \"#utility.yul\":3367:3383   */\n      add\n        /* \"#utility.yul\":3345:3397   */\n      tag_231\n      jump\t// in\n    tag_230:\n        /* \"#utility.yul\":3422:3428   */\n      dup1\n        /* \"#utility.yul\":3417:3420   */\n      dup5\n        /* \"#utility.yul\":3413:3429   */\n      add\n        /* \"#utility.yul\":3406:3429   */\n      swap2\n      pop\n        /* \"#utility.yul\":3170:3435   */\n      pop\n        /* \"#utility.yul\":3062:3435   */\n      swap3\n      swap2\n      pop\n      pop\n      jump\t// out\n        /* \"#utility.yul\":3441:3807   */\n    tag_232:\n        /* \"#utility.yul\":3583:3586   */\n      0x00\n        /* \"#utility.yul\":3604:3671   */\n      tag_234\n        /* \"#utility.yul\":3668:3670   */\n      0x11\n        /* \"#utility.yul\":3663:3666   */\n      dup4\n        /* \"#utility.yul\":3604:3671   */\n      tag_235\n      jump\t// in\n    tag_234:\n        /* \"#utility.yul\":3597:3671   */\n      swap2\n      pop\n        /* \"#utility.yul\":3680:3773   */\n      tag_236\n        /* \"#utility.yul\":3769:3772   */\n      dup3\n        /* \"#utility.yul\":3680:3773   */\n      tag_237\n      jump\t// in\n    tag_236:\n        /* \"#utility.yul\":3798:3800   */\n      0x20\n        /* \"#utility.yul\":3793:3796   */\n      dup3\n        /* \"#utility.yul\":3789:3801   */\n      add\n        /* \"#utility.yul\":3782:3801   */\n      swap1\n      pop\n        /* \"#utility.yul\":3441:3807   */\n      swap2\n      swap1\n      pop\n      jump\t// out\n        /* \"#utility.yul\":3813:4179   */\n    tag_238:\n        /* \"#utility.yul\":3955:3958   */\n      0x00\n        /* \"#utility.yul\":3976:4043   */\n      tag_240\n        /* \"#utility.yul\":4040:4042   */\n      0x12\n        /* \"#utility.yul\":4035:4038   */\n      dup4\n        /* \"#utility.yul\":3976:4043   */\n      tag_235\n      jump\t// in\n    tag_240:\n        /* \"#utility.yul\":3969:4043   */\n      swap2\n      pop\n        /* \"#utility.yul\":4052:4145   */\n      tag_241\n        /* \"#utility.yul\":4141:4144   */\n      dup3\n        /* \"#utility.yul\":4052:4145   */\n      tag_242\n      jump\t// in\n    tag_241:\n        /* \"#utility.yul\":4170:4172   */\n      0x20\n        /* \"#utility.yul\":4165:4168   */\n      dup3\n        /* \"#utility.yul\":4161:4173   */\n      add\n        /* \"#utility.yul\":4154:4173   */\n      swap1\n      pop\n        /* \"#utility.yul\":3813:4179   */\n      swap2\n      swap1\n      pop\n      jump\t// out\n        /* \"#utility.yul\":4185:4551   */\n    tag_243:\n        /* \"#utility.yul\":4327:4330   */\n      0x00\n        /* \"#utility.yul\":4348:4415   */\n      tag_245\n        /* \"#utility.yul\":4412:4414   */\n      0x28\n        /* \"#utility.yul\":4407:4410   */\n      dup4\n        /* \"#utility.yul\":4348:4415   */\n      tag_235\n      jump\t// in\n    tag_245:\n        /* \"#utility.yul\":4341:4415   */\n      swap2\n      pop\n        /* \"#utility.yul\":4424:4517   */\n      tag_246\n        /* \"#utility.yul\":4513:4516   */\n      dup3\n        /* \"#utility.yul\":4424:4517   */\n      tag_247\n      jump\t// in\n    tag_246:\n        /* \"#utility.yul\":4542:4544   */\n      0x40\n        /* \"#utility.yul\":4537:4540   */\n      dup3\n        /* \"#utility.yul\":4533:4545   */\n      add\n        /* \"#utility.yul\":4526:4545   */\n      swap1\n      pop\n        /* \"#utility.yul\":4185:4551   */\n      swap2\n      swap1\n      pop\n      jump\t// out\n        /* \"#utility.yul\":4557:4923   */\n    tag_248:\n        /* \"#utility.yul\":4699:4702   */\n      0x00\n        /* \"#utility.yul\":4720:4787   */\n      tag_250\n        /* \"#utility.yul\":4784:4786   */\n      0x0e\n        /* \"#utility.yul\":4779:4782   */\n      dup4\n        /* \"#utility.yul\":4720:4787   */\n      tag_235\n      jump\t// in\n    tag_250:\n        /* \"#utility.yul\":4713:4787   */\n      swap2\n      pop\n        /* \"#utility.yul\":4796:4889   */\n      tag_251\n        /* \"#utility.yul\":4885:4888   */\n      dup3\n        /* \"#utility.yul\":4796:4889   */\n      tag_252\n      jump\t// in\n    tag_251:\n        /* \"#utility.yul\":4914:4916   */\n      0x20\n        /* \"#utility.yul\":4909:4912   */\n      dup3\n        /* \"#utility.yul\":4905:4917   */\n      add\n        /* \"#utility.yul\":4898:4917   */\n      swap1\n      pop\n        /* \"#utility.yul\":4557:4923   */\n      swap2\n      swap1\n      pop\n      jump\t// out\n        /* \"#utility.yul\":4929:5295   */\n    tag_253:\n        /* \"#utility.yul\":5071:5074   */\n      0x00\n        /* \"#utility.yul\":5092:5159   */\n      tag_255\n        /* \"#utility.yul\":5156:5158   */\n      0x21\n        /* \"#utility.yul\":5151:5154   */\n      dup4\n        /* \"#utility.yul\":5092:5159   */\n      tag_235\n      jump\t// in\n    tag_255:\n        /* \"#utility.yul\":5085:5159   */\n      swap2\n      pop\n        /* \"#utility.yul\":5168:5261   */\n      tag_256\n        /* \"#utility.yul\":5257:5260   */\n      dup3\n        /* \"#utility.yul\":5168:5261   */\n      tag_257\n      jump\t// in\n    tag_256:\n        /* \"#utility.yul\":5286:5288   */\n      0x40\n        /* \"#utility.yul\":5281:5284   */\n      dup3\n        /* \"#utility.yul\":5277:5289   */\n      add\n        /* \"#utility.yul\":5270:5289   */\n      swap1\n      pop\n        /* \"#utility.yul\":4929:5295   */\n      swap2\n      swap1\n      pop\n      jump\t// out\n        /* \"#utility.yul\":5301:5667   */\n    tag_258:\n        /* \"#utility.yul\":5443:5446   */\n      0x00\n        /* \"#utility.yul\":5464:5531   */\n      tag_260\n        /* \"#utility.yul\":5528:5530   */\n      0x1e\n        /* \"#utility.yul\":5523:5526   */\n      dup4\n        /* \"#utility.yul\":5464:5531   */\n      tag_235\n      jump\t// in\n    tag_260:\n        /* \"#utility.yul\":5457:5531   */\n      swap2\n      pop\n        /* \"#utility.yul\":5540:5633   */\n      tag_261\n        /* \"#utility.yul\":5629:5632   */\n      dup3\n        /* \"#utility.yul\":5540:5633   */\n      tag_262\n      jump\t// in\n    tag_261:\n        /* \"#utility.yul\":5658:5660   */\n      0x20\n        /* \"#utility.yul\":5653:5656   */\n      dup3\n        /* \"#utility.yul\":5649:5661   */\n      add\n        /* \"#utility.yul\":5642:5661   */\n      swap1\n      pop\n        /* \"#utility.yul\":5301:5667   */\n      swap2\n      swap1\n      pop\n      jump\t// out\n        /* \"#utility.yul\":5673:5791   */\n    tag_263:\n        /* \"#utility.yul\":5760:5784   */\n      tag_265\n        /* \"#utility.yul\":5778:5783   */\n      dup2\n        /* \"#utility.yul\":5760:5784   */\n      tag_266\n      jump\t// in\n    tag_265:\n        /* \"#utility.yul\":5755:5758   */\n      dup3\n        /* \"#utility.yul\":5748:5785   */\n      mstore\n        /* \"#utility.yul\":5673:5791   */\n      pop\n      pop\n      jump\t// out\n        /* \"#utility.yul\":5797:5954   */\n    tag_267:\n        /* \"#utility.yul\":5902:5947   */\n      tag_269\n        /* \"#utility.yul\":5922:5946   */\n      tag_270\n        /* \"#utility.yul\":5940:5945   */\n      dup3\n        /* \"#utility.yul\":5922:5946   */\n      tag_266\n      jump\t// in\n    tag_270:\n        /* \"#utility.yul\":5902:5947   */\n      tag_271\n      jump\t// in\n    tag_269:\n        /* \"#utility.yul\":5897:5900   */\n      dup3\n        /* \"#utility.yul\":5890:5948   */\n      mstore\n        /* \"#utility.yul\":5797:5954   */\n      pop\n      pop\n      jump\t// out\n        /* \"#utility.yul\":5960:6231   */\n    tag_30:\n        /* \"#utility.yul\":6090:6093   */\n      0x00\n        /* \"#utility.yul\":6112:6205   */\n      tag_273\n        /* \"#utility.yul\":6201:6204   */\n      dup3\n        /* \"#utility.yul\":6192:6198   */\n      dup5\n        /* \"#utility.yul\":6112:6205   */\n      tag_224\n      jump\t// in\n    tag_273:\n        /* \"#utility.yul\":6105:6205   */\n      swap2\n      pop\n        /* \"#utility.yul\":6222:6225   */\n      dup2\n        /* \"#utility.yul\":6215:6225   */\n      swap1\n      pop\n        /* \"#utility.yul\":5960:6231   */\n      swap3\n      swap2\n      pop\n      pop\n      jump\t// out\n        /* \"#utility.yul\":6237:6493   */\n    tag_127:\n        /* \"#utility.yul\":6349:6352   */\n      0x00\n        /* \"#utility.yul\":6364:6439   */\n      tag_275\n        /* \"#utility.yul\":6435:6438   */\n      dup3\n        /* \"#utility.yul\":6426:6432   */\n      dup5\n        /* \"#utility.yul\":6364:6439   */\n      tag_267\n      jump\t// in\n    tag_275:\n        /* \"#utility.yul\":6464:6466   */\n      0x20\n        /* \"#utility.yul\":6459:6462   */\n      dup3\n        /* \"#utility.yul\":6455:6467   */\n      add\n        /* \"#utility.yul\":6448:6467   */\n      swap2\n      pop\n        /* \"#utility.yul\":6484:6487   */\n      dup2\n        /* \"#utility.yul\":6477:6487   */\n      swap1\n      pop\n        /* \"#utility.yul\":6237:6493   */\n      swap3\n      swap2\n      pop\n      pop\n      jump\t// out\n        /* \"#utility.yul\":6499:7178   */\n    tag_28:\n        /* \"#utility.yul\":6695:6698   */\n      0x00\n        /* \"#utility.yul\":6710:6785   */\n      tag_277\n        /* \"#utility.yul\":6781:6784   */\n      dup3\n        /* \"#utility.yul\":6772:6778   */\n      dup8\n        /* \"#utility.yul\":6710:6785   */\n      tag_267\n      jump\t// in\n    tag_277:\n        /* \"#utility.yul\":6810:6812   */\n      0x20\n        /* \"#utility.yul\":6805:6808   */\n      dup3\n        /* \"#utility.yul\":6801:6813   */\n      add\n        /* \"#utility.yul\":6794:6813   */\n      swap2\n      pop\n        /* \"#utility.yul\":6823:6898   */\n      tag_278\n        /* \"#utility.yul\":6894:6897   */\n      dup3\n        /* \"#utility.yul\":6885:6891   */\n      dup7\n        /* \"#utility.yul\":6823:6898   */\n      tag_267\n      jump\t// in\n    tag_278:\n        /* \"#utility.yul\":6923:6925   */\n      0x20\n        /* \"#utility.yul\":6918:6921   */\n      dup3\n        /* \"#utility.yul\":6914:6926   */\n      add\n        /* \"#utility.yul\":6907:6926   */\n      swap2\n      pop\n        /* \"#utility.yul\":6936:7011   */\n      tag_279\n        /* \"#utility.yul\":7007:7010   */\n      dup3\n        /* \"#utility.yul\":6998:7004   */\n      dup6\n        /* \"#utility.yul\":6936:7011   */\n      tag_218\n      jump\t// in\n    tag_279:\n        /* \"#utility.yul\":7036:7038   */\n      0x14\n        /* \"#utility.yul\":7031:7034   */\n      dup3\n        /* \"#utility.yul\":7027:7039   */\n      add\n        /* \"#utility.yul\":7020:7039   */\n      swap2\n      pop\n        /* \"#utility.yul\":7049:7124   */\n      tag_280\n        /* \"#utility.yul\":7120:7123   */\n      dup3\n        /* \"#utility.yul\":7111:7117   */\n      dup5\n        /* \"#utility.yul\":7049:7124   */\n      tag_267\n      jump\t// in\n    tag_280:\n        /* \"#utility.yul\":7149:7151   */\n      0x20\n        /* \"#utility.yul\":7144:7147   */\n      dup3\n        /* \"#utility.yul\":7140:7152   */\n      add\n        /* \"#utility.yul\":7133:7152   */\n      swap2\n      pop\n        /* \"#utility.yul\":7169:7172   */\n      dup2\n        /* \"#utility.yul\":7162:7172   */\n      swap1\n      pop\n        /* \"#utility.yul\":6499:7178   */\n      swap6\n      swap5\n      pop\n      pop\n      pop\n      pop\n      pop\n      jump\t// out\n        /* \"#utility.yul\":7184:7603   */\n    tag_78:\n        /* \"#utility.yul\":7350:7354   */\n      0x00\n        /* \"#utility.yul\":7388:7390   */\n      0x20\n        /* \"#utility.yul\":7377:7386   */\n      dup3\n        /* \"#utility.yul\":7373:7391   */\n      add\n        /* \"#utility.yul\":7365:7391   */\n      swap1\n      pop\n        /* \"#utility.yul\":7437:7446   */\n      dup2\n        /* \"#utility.yul\":7431:7435   */\n      dup2\n        /* \"#utility.yul\":7427:7447   */\n      sub\n        /* \"#utility.yul\":7423:7424   */\n      0x00\n        /* \"#utility.yul\":7412:7421   */\n      dup4\n        /* \"#utility.yul\":7408:7425   */\n      add\n        /* \"#utility.yul\":7401:7448   */\n      mstore\n        /* \"#utility.yul\":7465:7596   */\n      tag_282\n        /* \"#utility.yul\":7591:7595   */\n      dup2\n        /* \"#utility.yul\":7465:7596   */\n      tag_232\n      jump\t// in\n    tag_282:\n        /* \"#utility.yul\":7457:7596   */\n      swap1\n      pop\n        /* \"#utility.yul\":7184:7603   */\n      swap2\n      swap1\n      pop\n      jump\t// out\n        /* \"#utility.yul\":7609:8028   */\n    tag_58:\n        /* \"#utility.yul\":7775:7779   */\n      0x00\n        /* \"#utility.yul\":7813:7815   */\n      0x20\n        /* \"#utility.yul\":7802:7811   */\n      dup3\n        /* \"#utility.yul\":7798:7816   */\n      add\n        /* \"#utility.yul\":7790:7816   */\n      swap1\n      pop\n        /* \"#utility.yul\":7862:7871   */\n      dup2\n        /* \"#utility.yul\":7856:7860   */\n      dup2\n        /* \"#utility.yul\":7852:7872   */\n      sub\n        /* \"#utility.yul\":7848:7849   */\n      0x00\n        /* \"#utility.yul\":7837:7846   */\n      dup4\n        /* \"#utility.yul\":7833:7850   */\n      add\n        /* \"#utility.yul\":7826:7873   */\n      mstore\n        /* \"#utility.yul\":7890:8021   */\n      tag_284\n        /* \"#utility.yul\":8016:8020   */\n      dup2\n        /* \"#utility.yul\":7890:8021   */\n      tag_238\n      jump\t// in\n    tag_284:\n        /* \"#utility.yul\":7882:8021   */\n      swap1\n      pop\n        /* \"#utility.yul\":7609:8028   */\n      swap2\n      swap1\n      pop\n      jump\t// out\n        /* \"#utility.yul\":8034:8453   */\n    tag_55:\n        /* \"#utility.yul\":8200:8204   */\n      0x00\n        /* \"#utility.yul\":8238:8240   */\n      0x20\n        /* \"#utility.yul\":8227:8236   */\n      dup3\n        /* \"#utility.yul\":8223:8241   */\n      add\n        /* \"#utility.yul\":8215:8241   */\n      swap1\n      pop\n        /* \"#utility.yul\":8287:8296   */\n      dup2\n        /* \"#utility.yul\":8281:8285   */\n      dup2\n        /* \"#utility.yul\":8277:8297   */\n      sub\n        /* \"#utility.yul\":8273:8274   */\n      0x00\n        /* \"#utility.yul\":8262:8271   */\n      dup4\n        /* \"#utility.yul\":8258:8275   */\n      add\n        /* \"#utility.yul\":8251:8298   */\n      mstore\n        /* \"#utility.yul\":8315:8446   */\n      tag_286\n        /* \"#utility.yul\":8441:8445   */\n      dup2\n        /* \"#utility.yul\":8315:8446   */\n      tag_243\n      jump\t// in\n    tag_286:\n        /* \"#utility.yul\":8307:8446   */\n      swap1\n      pop\n        /* \"#utility.yul\":8034:8453   */\n      swap2\n      swap1\n      pop\n      jump\t// out\n        /* \"#utility.yul\":8459:8878   */\n    tag_113:\n        /* \"#utility.yul\":8625:8629   */\n      0x00\n        /* \"#utility.yul\":8663:8665   */\n      0x20\n        /* \"#utility.yul\":8652:8661   */\n      dup3\n        /* \"#utility.yul\":8648:8666   */\n      add\n        /* \"#utility.yul\":8640:8666   */\n      swap1\n      pop\n        /* \"#utility.yul\":8712:8721   */\n      dup2\n        /* \"#utility.yul\":8706:8710   */\n      dup2\n        /* \"#utility.yul\":8702:8722   */\n      sub\n        /* \"#utility.yul\":8698:8699   */\n      0x00\n        /* \"#utility.yul\":8687:8696   */\n      dup4\n        /* \"#utility.yul\":8683:8700   */\n      add\n        /* \"#utility.yul\":8676:8723   */\n      mstore\n        /* \"#utility.yul\":8740:8871   */\n      tag_288\n        /* \"#utility.yul\":8866:8870   */\n      dup2\n        /* \"#utility.yul\":8740:8871   */\n      tag_248\n      jump\t// in\n    tag_288:\n        /* \"#utility.yul\":8732:8871   */\n      swap1\n      pop\n        /* \"#utility.yul\":8459:8878   */\n      swap2\n      swap1\n      pop\n      jump\t// out\n        /* \"#utility.yul\":8884:9303   */\n    tag_72:\n        /* \"#utility.yul\":9050:9054   */\n      0x00\n        /* \"#utility.yul\":9088:9090   */\n      0x20\n        /* \"#utility.yul\":9077:9086   */\n      dup3\n        /* \"#utility.yul\":9073:9091   */\n      add\n        /* \"#utility.yul\":9065:9091   */\n      swap1\n      pop\n        /* \"#utility.yul\":9137:9146   */\n      dup2\n        /* \"#utility.yul\":9131:9135   */\n      dup2\n        /* \"#utility.yul\":9127:9147   */\n      sub\n        /* \"#utility.yul\":9123:9124   */\n      0x00\n        /* \"#utility.yul\":9112:9121   */\n      dup4\n        /* \"#utility.yul\":9108:9125   */\n      add\n        /* \"#utility.yul\":9101:9148   */\n      mstore\n        /* \"#utility.yul\":9165:9296   */\n      tag_290\n        /* \"#utility.yul\":9291:9295   */\n      dup2\n        /* \"#utility.yul\":9165:9296   */\n      tag_253\n      jump\t// in\n    tag_290:\n        /* \"#utility.yul\":9157:9296   */\n      swap1\n      pop\n        /* \"#utility.yul\":8884:9303   */\n      swap2\n      swap1\n      pop\n      jump\t// out\n        /* \"#utility.yul\":9309:9728   */\n    tag_110:\n        /* \"#utility.yul\":9475:9479   */\n      0x00\n        /* \"#utility.yul\":9513:9515   */\n      0x20\n        /* \"#utility.yul\":9502:9511   */\n      dup3\n        /* \"#utility.yul\":9498:9516   */\n      add\n        /* \"#utility.yul\":9490:9516   */\n      swap1\n      pop\n        /* \"#utility.yul\":9562:9571   */\n      dup2\n        /* \"#utility.yul\":9556:9560   */\n      dup2\n        /* \"#utility.yul\":9552:9572   */\n      sub\n        /* \"#utility.yul\":9548:9549   */\n      0x00\n        /* \"#utility.yul\":9537:9546   */\n      dup4\n        /* \"#utility.yul\":9533:9550   */\n      add\n        /* \"#utility.yul\":9526:9573   */\n      mstore\n        /* \"#utility.yul\":9590:9721   */\n      tag_292\n        /* \"#utility.yul\":9716:9720   */\n      dup2\n        /* \"#utility.yul\":9590:9721   */\n      tag_258\n      jump\t// in\n    tag_292:\n        /* \"#utility.yul\":9582:9721   */\n      swap1\n      pop\n        /* \"#utility.yul\":9309:9728   */\n      swap2\n      swap1\n      pop\n      jump\t// out\n        /* \"#utility.yul\":9734:9956   */\n    tag_11:\n        /* \"#utility.yul\":9827:9831   */\n      0x00\n        /* \"#utility.yul\":9865:9867   */\n      0x20\n        /* \"#utility.yul\":9854:9863   */\n      dup3\n        /* \"#utility.yul\":9850:9868   */\n      add\n        /* \"#utility.yul\":9842:9868   */\n      swap1\n      pop\n        /* \"#utility.yul\":9878:9949   */\n      tag_294\n        /* \"#utility.yul\":9946:9947   */\n      0x00\n        /* \"#utility.yul\":9935:9944   */\n      dup4\n        /* \"#utility.yul\":9931:9948   */\n      add\n        /* \"#utility.yul\":9922:9928   */\n      dup5\n        /* \"#utility.yul\":9878:9949   */\n      tag_263\n      jump\t// in\n    tag_294:\n        /* \"#utility.yul\":9734:9956   */\n      swap3\n      swap2\n      pop\n      pop\n      jump\t// out\n        /* \"#utility.yul\":9962:10091   */\n    tag_173:\n        /* \"#utility.yul\":9996:10002   */\n      0x00\n        /* \"#utility.yul\":10023:10043   */\n      tag_296\n      tag_297\n      jump\t// in\n    tag_296:\n        /* \"#utility.yul\":10013:10043   */\n      swap1\n      pop\n        /* \"#utility.yul\":10052:10085   */\n      tag_298\n        /* \"#utility.yul\":10080:10084   */\n      dup3\n        /* \"#utility.yul\":10072:10078   */\n      dup3\n        /* \"#utility.yul\":10052:10085   */\n      tag_299\n      jump\t// in\n    tag_298:\n        /* \"#utility.yul\":9962:10091   */\n      swap2\n      swap1\n      pop\n      jump\t// out\n        /* \"#utility.yul\":10097:10172   */\n    tag_297:\n        /* \"#utility.yul\":10130:10136   */\n      0x00\n        /* \"#utility.yul\":10163:10165   */\n      0x40\n        /* \"#utility.yul\":10157:10166   */\n      mload\n        /* \"#utility.yul\":10147:10166   */\n      swap1\n      pop\n        /* \"#utility.yul\":10097:10172   */\n      swap1\n      jump\t// out\n        /* \"#utility.yul\":10178:10486   */\n    tag_172:\n        /* \"#utility.yul\":10240:10244   */\n      0x00\n        /* \"#utility.yul\":10330:10348   */\n      0xffffffffffffffff\n        /* \"#utility.yul\":10322:10328   */\n      dup3\n        /* \"#utility.yul\":10319:10349   */\n      gt\n        /* \"#utility.yul\":10316:10372   */\n      iszero\n      tag_302\n      jumpi\n        /* \"#utility.yul\":10352:10370   */\n      tag_303\n      tag_304\n      jump\t// in\n    tag_303:\n        /* \"#utility.yul\":10316:10372   */\n    tag_302:\n        /* \"#utility.yul\":10390:10419   */\n      tag_305\n        /* \"#utility.yul\":10412:10418   */\n      dup3\n        /* \"#utility.yul\":10390:10419   */\n      tag_306\n      jump\t// in\n    tag_305:\n        /* \"#utility.yul\":10382:10419   */\n      swap1\n      pop\n        /* \"#utility.yul\":10474:10478   */\n      0x20\n        /* \"#utility.yul\":10468:10472   */\n      dup2\n        /* \"#utility.yul\":10464:10479   */\n      add\n        /* \"#utility.yul\":10456:10479   */\n      swap1\n      pop\n        /* \"#utility.yul\":10178:10486   */\n      swap2\n      swap1\n      pop\n      jump\t// out\n        /* \"#utility.yul\":10492:10590   */\n    tag_227:\n        /* \"#utility.yul\":10543:10549   */\n      0x00\n        /* \"#utility.yul\":10577:10582   */\n      dup2\n        /* \"#utility.yul\":10571:10583   */\n      mload\n        /* \"#utility.yul\":10561:10583   */\n      swap1\n      pop\n        /* \"#utility.yul\":10492:10590   */\n      swap2\n      swap1\n      pop\n      jump\t// out\n        /* \"#utility.yul\":10596:10743   */\n    tag_229:\n        /* \"#utility.yul\":10697:10708   */\n      0x00\n        /* \"#utility.yul\":10734:10737   */\n      dup2\n        /* \"#utility.yul\":10719:10737   */\n      swap1\n      pop\n        /* \"#utility.yul\":10596:10743   */\n      swap3\n      swap2\n      pop\n      pop\n      jump\t// out\n        /* \"#utility.yul\":10749:10918   */\n    tag_235:\n        /* \"#utility.yul\":10833:10844   */\n      0x00\n        /* \"#utility.yul\":10867:10873   */\n      dup3\n        /* \"#utility.yul\":10862:10865   */\n      dup3\n        /* \"#utility.yul\":10855:10874   */\n      mstore\n        /* \"#utility.yul\":10907:10911   */\n      0x20\n        /* \"#utility.yul\":10902:10905   */\n      dup3\n        /* \"#utility.yul\":10898:10912   */\n      add\n        /* \"#utility.yul\":10883:10912   */\n      swap1\n      pop\n        /* \"#utility.yul\":10749:10918   */\n      swap3\n      swap2\n      pop\n      pop\n      jump\t// out\n        /* \"#utility.yul\":10924:11229   */\n    tag_63:\n        /* \"#utility.yul\":10964:10967   */\n      0x00\n        /* \"#utility.yul\":10983:11003   */\n      tag_311\n        /* \"#utility.yul\":11001:11002   */\n      dup3\n        /* \"#utility.yul\":10983:11003   */\n      tag_266\n      jump\t// in\n    tag_311:\n        /* \"#utility.yul\":10978:11003   */\n      swap2\n      pop\n        /* \"#utility.yul\":11017:11037   */\n      tag_312\n        /* \"#utility.yul\":11035:11036   */\n      dup4\n        /* \"#utility.yul\":11017:11037   */\n      tag_266\n      jump\t// in\n    tag_312:\n        /* \"#utility.yul\":11012:11037   */\n      swap3\n      pop\n        /* \"#utility.yul\":11171:11172   */\n      dup3\n        /* \"#utility.yul\":11103:11169   */\n      0xffffffffffffffffffffffffffffffffffffffffffffffffffffffffffffffff\n        /* \"#utility.yul\":11099:11173   */\n      sub\n        /* \"#utility.yul\":11096:11097   */\n      dup3\n        /* \"#utility.yul\":11093:11174   */\n      gt\n        /* \"#utility.yul\":11090:11197   */\n      iszero\n      tag_313\n      jumpi\n        /* \"#utility.yul\":11177:11195   */\n      tag_314\n      tag_315\n      jump\t// in\n    tag_314:\n        /* \"#utility.yul\":11090:11197   */\n    tag_313:\n        /* \"#utility.yul\":11221:11222   */\n      dup3\n        /* \"#utility.yul\":11218:11219   */\n      dup3\n        /* \"#utility.yul\":11214:11223   */\n      add\n        /* \"#utility.yul\":11207:11223   */\n      swap1\n      pop\n        /* \"#utility.yul\":10924:11229   */\n      swap3\n      swap2\n      pop\n      pop\n      jump\t// out\n        /* \"#utility.yul\":11235:11426   */\n    tag_65:\n        /* \"#utility.yul\":11275:11279   */\n      0x00\n        /* \"#utility.yul\":11295:11315   */\n      tag_317\n        /* \"#utility.yul\":11313:11314   */\n      dup3\n        /* \"#utility.yul\":11295:11315   */\n      tag_266\n      jump\t// in\n    tag_317:\n        /* \"#utility.yul\":11290:11315   */\n      swap2\n      pop\n        /* \"#utility.yul\":11329:11349   */\n      tag_318\n        /* \"#utility.yul\":11347:11348   */\n      dup4\n        /* \"#utility.yul\":11329:11349   */\n      tag_266\n      jump\t// in\n    tag_318:\n        /* \"#utility.yul\":11324:11349   */\n      swap3\n      pop\n        /* \"#utility.yul\":11368:11369   */\n      dup3\n        /* \"#utility.yul\":11365:11366   */\n      dup3\n        /* \"#utility.yul\":11362:11370   */\n      lt\n        /* \"#utility.yul\":11359:11393   */\n      iszero\n      tag_319\n      jumpi\n        /* \"#utility.yul\":11373:11391   */\n      tag_320\n      tag_315\n      jump\t// in\n    tag_320:\n        /* \"#utility.yul\":11359:11393   */\n    tag_319:\n        /* \"#utility.yul\":11418:11419   */\n      dup3\n        /* \"#utility.yul\":11415:11416   */\n      dup3\n        /* \"#utility.yul\":11411:11420   */\n      sub\n        /* \"#utility.yul\":11403:11420   */\n      swap1\n      pop\n        /* \"#utility.yul\":11235:11426   */\n      swap3\n      swap2\n      pop\n      pop\n      jump\t// out\n        /* \"#utility.yul\":11432:11528   */\n    tag_222:\n        /* \"#utility.yul\":11469:11476   */\n      0x00\n        /* \"#utility.yul\":11498:11522   */\n      tag_322\n        /* \"#utility.yul\":11516:11521   */\n      dup3\n        /* \"#utility.yul\":11498:11522   */\n      tag_323\n      jump\t// in\n    tag_322:\n        /* \"#utility.yul\":11487:11522   */\n      swap1\n      pop\n        /* \"#utility.yul\":11432:11528   */\n      swap2\n      swap1\n      pop\n      jump\t// out\n        /* \"#utility.yul\":11534:11624   */\n    tag_324:\n        /* \"#utility.yul\":11568:11575   */\n      0x00\n        /* \"#utility.yul\":11611:11616   */\n      dup2\n        /* \"#utility.yul\":11604:11617   */\n      iszero\n        /* \"#utility.yul\":11597:11618   */\n      iszero\n        /* \"#utility.yul\":11586:11618   */\n      swap1\n      pop\n        /* \"#utility.yul\":11534:11624   */\n      swap2\n      swap1\n      pop\n      jump\t// out\n        /* \"#utility.yul\":11630:11707   */\n    tag_326:\n        /* \"#utility.yul\":11667:11674   */\n      0x00\n        /* \"#utility.yul\":11696:11701   */\n      dup2\n        /* \"#utility.yul\":11685:11701   */\n      swap1\n      pop\n        /* \"#utility.yul\":11630:11707   */\n      swap2\n      swap1\n      pop\n      jump\t// out\n        /* \"#utility.yul\":11713:11839   */\n    tag_323:\n        /* \"#utility.yul\":11750:11757   */\n      0x00\n        /* \"#utility.yul\":11790:11832   */\n      0xffffffffffffffffffffffffffffffffffffffff\n        /* \"#utility.yul\":11783:11788   */\n      dup3\n        /* \"#utility.yul\":11779:11833   */\n      and\n        /* \"#utility.yul\":11768:11833   */\n      swap1\n      pop\n        /* \"#utility.yul\":11713:11839   */\n      swap2\n      swap1\n      pop\n      jump\t// out\n        /* \"#utility.yul\":11845:11922   */\n    tag_266:\n        /* \"#utility.yul\":11882:11889   */\n      0x00\n        /* \"#utility.yul\":11911:11916   */\n      dup2\n        /* \"#utility.yul\":11900:11916   */\n      swap1\n      pop\n        /* \"#utility.yul\":11845:11922   */\n      swap2\n      swap1\n      pop\n      jump\t// out\n        /* \"#utility.yul\":11928:12082   */\n    tag_178:\n        /* \"#utility.yul\":12012:12018   */\n      dup3\n        /* \"#utility.yul\":12007:12010   */\n      dup2\n        /* \"#utility.yul\":12002:12005   */\n      dup4\n        /* \"#utility.yul\":11989:12019   */\n      calldatacopy\n        /* \"#utility.yul\":12074:12075   */\n      0x00\n        /* \"#utility.yul\":12065:12071   */\n      dup4\n        /* \"#utility.yul\":12060:12063   */\n      dup4\n        /* \"#utility.yul\":12056:12072   */\n      add\n        /* \"#utility.yul\":12049:12076   */\n      mstore\n        /* \"#utility.yul\":11928:12082   */\n      pop\n      pop\n      pop\n      jump\t// out\n        /* \"#utility.yul\":12088:12395   */\n    tag_231:\n        /* \"#utility.yul\":12156:12157   */\n      0x00\n        /* \"#utility.yul\":12166:12279   */\n    tag_332:\n        /* \"#utility.yul\":12180:12186   */\n      dup4\n        /* \"#utility.yul\":12177:12178   */\n      dup2\n        /* \"#utility.yul\":12174:12187   */\n      lt\n        /* \"#utility.yul\":12166:12279   */\n      iszero\n      tag_334\n      jumpi\n        /* \"#utility.yul\":12265:12266   */\n      dup1\n        /* \"#utility.yul\":12260:12263   */\n      dup3\n        /* \"#utility.yul\":12256:12267   */\n      add\n        /* \"#utility.yul\":12250:12268   */\n      mload\n        /* \"#utility.yul\":12246:12247   */\n      dup2\n        /* \"#utility.yul\":12241:12244   */\n      dup5\n        /* \"#utility.yul\":12237:12248   */\n      add\n        /* \"#utility.yul\":12230:12269   */\n      mstore\n        /* \"#utility.yul\":12202:12204   */\n      0x20\n        /* \"#utility.yul\":12199:12200   */\n      dup2\n        /* \"#utility.yul\":12195:12205   */\n      add\n        /* \"#utility.yul\":12190:12205   */\n      swap1\n      pop\n        /* \"#utility.yul\":12166:12279   */\n      jump(tag_332)\n    tag_334:\n        /* \"#utility.yul\":12297:12303   */\n      dup4\n        /* \"#utility.yul\":12294:12295   */\n      dup2\n        /* \"#utility.yul\":12291:12304   */\n      gt\n        /* \"#utility.yul\":12288:12389   */\n      iszero\n      tag_335\n      jumpi\n        /* \"#utility.yul\":12377:12378   */\n      0x00\n        /* \"#utility.yul\":12368:12374   */\n      dup5\n        /* \"#utility.yul\":12363:12366   */\n      dup5\n        /* \"#utility.yul\":12359:12375   */\n      add\n        /* \"#utility.yul\":12352:12379   */\n      mstore\n        /* \"#utility.yul\":12288:12389   */\n    tag_335:\n        /* \"#utility.yul\":12137:12395   */\n      pop\n        /* \"#utility.yul\":12088:12395   */\n      pop\n      pop\n      pop\n      jump\t// out\n        /* \"#utility.yul\":12401:12721   */\n    tag_157:\n        /* \"#utility.yul\":12445:12451   */\n      0x00\n        /* \"#utility.yul\":12482:12483   */\n      0x02\n        /* \"#utility.yul\":12476:12480   */\n      dup3\n        /* \"#utility.yul\":12472:12484   */\n      div\n        /* \"#utility.yul\":12462:12484   */\n      swap1\n      pop\n        /* \"#utility.yul\":12529:12530   */\n      0x01\n        /* \"#utility.yul\":12523:12527   */\n      dup3\n        /* \"#utility.yul\":12519:12531   */\n      and\n        /* \"#utility.yul\":12550:12568   */\n      dup1\n        /* \"#utility.yul\":12540:12621   */\n      tag_337\n      jumpi\n        /* \"#utility.yul\":12606:12610   */\n      0x7f\n        /* \"#utility.yul\":12598:12604   */\n      dup3\n        /* \"#utility.yul\":12594:12611   */\n      and\n        /* \"#utility.yul\":12584:12611   */\n      swap2\n      pop\n        /* \"#utility.yul\":12540:12621   */\n    tag_337:\n        /* \"#utility.yul\":12668:12670   */\n      0x20\n        /* \"#utility.yul\":12660:12666   */\n      dup3\n        /* \"#utility.yul\":12657:12671   */\n      lt\n        /* \"#utility.yul\":12637:12655   */\n      dup2\n        /* \"#utility.yul\":12634:12672   */\n      eq\n        /* \"#utility.yul\":12631:12715   */\n      iszero\n      tag_338\n      jumpi\n        /* \"#utility.yul\":12687:12705   */\n      tag_339\n      tag_340\n      jump\t// in\n    tag_339:\n        /* \"#utility.yul\":12631:12715   */\n    tag_338:\n        /* \"#utility.yul\":12452:12721   */\n      pop\n        /* \"#utility.yul\":12401:12721   */\n      swap2\n      swap1\n      pop\n      jump\t// out\n        /* \"#utility.yul\":12727:13008   */\n    tag_299:\n        /* \"#utility.yul\":12810:12837   */\n      tag_342\n        /* \"#utility.yul\":12832:12836   */\n      dup3\n        /* \"#utility.yul\":12810:12837   */\n      tag_306\n      jump\t// in\n    tag_342:\n        /* \"#utility.yul\":12802:12808   */\n      dup2\n        /* \"#utility.yul\":12798:12838   */\n      add\n        /* \"#utility.yul\":12940:12946   */\n      dup2\n        /* \"#utility.yul\":12928:12938   */\n      dup2\n        /* \"#utility.yul\":12925:12947   */\n      lt\n        /* \"#utility.yul\":12904:12922   */\n      0xffffffffffffffff\n        /* \"#utility.yul\":12892:12902   */\n      dup3\n        /* \"#utility.yul\":12889:12923   */\n      gt\n        /* \"#utility.yul\":12886:12948   */\n      or\n        /* \"#utility.yul\":12883:12971   */\n      iszero\n      tag_343\n      jumpi\n        /* \"#utility.yul\":12951:12969   */\n      tag_344\n      tag_304\n      jump\t// in\n    tag_344:\n        /* \"#utility.yul\":12883:12971   */\n    tag_343:\n        /* \"#utility.yul\":12991:13001   */\n      dup1\n        /* \"#utility.yul\":12987:12989   */\n      0x40\n        /* \"#utility.yul\":12980:13002   */\n      mstore\n        /* \"#utility.yul\":12770:13008   */\n      pop\n        /* \"#utility.yul\":12727:13008   */\n      pop\n      pop\n      jump\t// out\n        /* \"#utility.yul\":13014:13247   */\n    tag_155:\n        /* \"#utility.yul\":13053:13056   */\n      0x00\n        /* \"#utility.yul\":13076:13100   */\n      tag_346\n        /* \"#utility.yul\":13094:13099   */\n      dup3\n        /* \"#utility.yul\":13076:13100   */\n      tag_266\n      jump\t// in\n    tag_346:\n        /* \"#utility.yul\":13067:13100   */\n      swap2\n      pop\n        /* \"#utility.yul\":13122:13188   */\n      0xffffffffffffffffffffffffffffffffffffffffffffffffffffffffffffffff\n        /* \"#utility.yul\":13115:13120   */\n      dup3\n        /* \"#utility.yul\":13112:13189   */\n      eq\n        /* \"#utility.yul\":13109:13212   */\n      iszero\n      tag_347\n      jumpi\n        /* \"#utility.yul\":13192:13210   */\n      tag_348\n      tag_315\n      jump\t// in\n    tag_348:\n        /* \"#utility.yul\":13109:13212   */\n    tag_347:\n        /* \"#utility.yul\":13239:13240   */\n      0x01\n        /* \"#utility.yul\":13232:13237   */\n      dup3\n        /* \"#utility.yul\":13228:13241   */\n      add\n        /* \"#utility.yul\":13221:13241   */\n      swap1\n      pop\n        /* \"#utility.yul\":13014:13247   */\n      swap2\n      swap1\n      pop\n      jump\t// out\n        /* \"#utility.yul\":13253:13353   */\n    tag_223:\n        /* \"#utility.yul\":13292:13299   */\n      0x00\n        /* \"#utility.yul\":13321:13347   */\n      tag_350\n        /* \"#utility.yul\":13341:13346   */\n      dup3\n        /* \"#utility.yul\":13321:13347   */\n      tag_351\n      jump\t// in\n    tag_350:\n        /* \"#utility.yul\":13310:13347   */\n      swap1\n      pop\n        /* \"#utility.yul\":13253:13353   */\n      swap2\n      swap1\n      pop\n      jump\t// out\n        /* \"#utility.yul\":13359:13453   */\n    tag_351:\n        /* \"#utility.yul\":13398:13405   */\n      0x00\n        /* \"#utility.yul\":13427:13447   */\n      tag_353\n        /* \"#utility.yul\":13441:13446   */\n      dup3\n        /* \"#utility.yul\":13427:13447   */\n      tag_354\n      jump\t// in\n    tag_353:\n        /* \"#utility.yul\":13416:13447   */\n      swap1\n      pop\n        /* \"#utility.yul\":13359:13453   */\n      swap2\n      swap1\n      pop\n      jump\t// out\n        /* \"#utility.yul\":13459:13538   */\n    tag_271:\n        /* \"#utility.yul\":13498:13505   */\n      0x00\n        /* \"#utility.yul\":13527:13532   */\n      dup2\n        /* \"#utility.yul\":13516:13532   */\n      swap1\n      pop\n        /* \"#utility.yul\":13459:13538   */\n      swap2\n      swap1\n      pop\n      jump\t// out\n        /* \"#utility.yul\":13544:13720   */\n    tag_133:\n        /* \"#utility.yul\":13576:13577   */\n      0x00\n        /* \"#utility.yul\":13593:13613   */\n      tag_357\n        /* \"#utility.yul\":13611:13612   */\n      dup3\n        /* \"#utility.yul\":13593:13613   */\n      tag_266\n      jump\t// in\n    tag_357:\n        /* \"#utility.yul\":13588:13613   */\n      swap2\n      pop\n        /* \"#utility.yul\":13627:13647   */\n      tag_358\n        /* \"#utility.yul\":13645:13646   */\n      dup4\n        /* \"#utility.yul\":13627:13647   */\n      tag_266\n      jump\t// in\n    tag_358:\n        /* \"#utility.yul\":13622:13647   */\n      swap3\n      pop\n        /* \"#utility.yul\":13666:13667   */\n      dup3\n        /* \"#utility.yul\":13656:13691   */\n      tag_359\n      jumpi\n        /* \"#utility.yul\":13671:13689   */\n      tag_360\n      tag_361\n      jump\t// in\n    tag_360:\n        /* \"#utility.yul\":13656:13691   */\n    tag_359:\n        /* \"#utility.yul\":13712:13713   */\n      dup3\n        /* \"#utility.yul\":13709:13710   */\n      dup3\n        /* \"#utility.yul\":13705:13714   */\n      mod\n        /* \"#utility.yul\":13700:13714   */\n      swap1\n      pop\n        /* \"#utility.yul\":13544:13720   */\n      swap3\n      swap2\n      pop\n      pop\n      jump\t// out\n        /* \"#utility.yul\":13726:13906   */\n    tag_315:\n        /* \"#utility.yul\":13774:13851   */\n      0x4e487b7100000000000000000000000000000000000000000000000000000000\n        /* \"#utility.yul\":13771:13772   */\n      0x00\n        /* \"#utility.yul\":13764:13852   */\n      mstore\n        /* \"#utility.yul\":13871:13875   */\n      0x11\n        /* \"#utility.yul\":13868:13869   */\n      0x04\n        /* \"#utility.yul\":13861:13876   */\n      mstore\n        /* \"#utility.yul\":13895:13899   */\n      0x24\n        /* \"#utility.yul\":13892:13893   */\n      0x00\n        /* \"#utility.yul\":13885:13900   */\n      revert\n        /* \"#utility.yul\":13912:14092   */\n    tag_361:\n        /* \"#utility.yul\":13960:14037   */\n      0x4e487b7100000000000000000000000000000000000000000000000000000000\n        /* \"#utility.yul\":13957:13958   */\n      0x00\n        /* \"#utility.yul\":13950:14038   */\n      mstore\n        /* \"#utility.yul\":14057:14061   */\n      0x12\n        /* \"#utility.yul\":14054:14055   */\n      0x04\n        /* \"#utility.yul\":14047:14062   */\n      mstore\n        /* \"#utility.yul\":14081:14085   */\n      0x24\n        /* \"#utility.yul\":14078:14079   */\n      0x00\n        /* \"#utility.yul\":14071:14086   */\n      revert\n        /* \"#utility.yul\":14098:14278   */\n    tag_340:\n        /* \"#utility.yul\":14146:14223   */\n      0x4e487b7100000000000000000000000000000000000000000000000000000000\n        /* \"#utility.yul\":14143:14144   */\n      0x00\n        /* \"#utility.yul\":14136:14224   */\n      mstore\n        /* \"#utility.yul\":14243:14247   */\n      0x22\n        /* \"#utility.yul\":14240:14241   */\n      0x04\n        /* \"#utility.yul\":14233:14248   */\n      mstore\n        /* \"#utility.yul\":14267:14271   */\n      0x24\n        /* \"#utility.yul\":14264:14265   */\n      0x00\n        /* \"#utility.yul\":14257:14272   */\n      revert\n        /* \"#utility.yul\":14284:14464   */\n    tag_146:\n        /* \"#utility.yul\":14332:14409   */\n      0x4e487b7100000000000000000000000000000000000000000000000000000000\n        /* \"#utility.yul\":14329:14330   */\n      0x00\n        /* \"#utility.yul\":14322:14410   */\n      mstore\n        /* \"#utility.yul\":14429:14433   */\n      0x31\n        /* \"#utility.yul\":14426:14427   */\n      0x04\n        /* \"#utility.yul\":14419:14434   */\n      mstore\n        /* \"#utility.yul\":14453:14457   */\n      0x24\n        /* \"#utility.yul\":14450:14451   */\n      0x00\n        /* \"#utility.yul\":14443:14458   */\n      revert\n        /* \"#utility.yul\":14470:14650   */\n    tag_37:\n        /* \"#utility.yul\":14518:14595   */\n      0x4e487b7100000000000000000000000000000000000000000000000000000000\n        /* \"#utility.yul\":14515:14516   */\n      0x00\n        /* \"#utility.yul\":14508:14596   */\n      mstore\n        /* \"#utility.yul\":14615:14619   */\n      0x32\n        /* \"#utility.yul\":14612:14613   */\n      0x04\n        /* \"#utility.yul\":14605:14620   */\n      mstore\n        /* \"#utility.yul\":14639:14643   */\n      0x24\n        /* \"#utility.yul\":14636:14637   */\n      0x00\n        /* \"#utility.yul\":14629:14644   */\n      revert\n        /* \"#utility.yul\":14656:14836   */\n    tag_304:\n        /* \"#utility.yul\":14704:14781   */\n      0x4e487b7100000000000000000000000000000000000000000000000000000000\n        /* \"#utility.yul\":14701:14702   */\n      0x00\n        /* \"#utility.yul\":14694:14782   */\n      mstore\n        /* \"#utility.yul\":14801:14805   */\n      0x41\n        /* \"#utility.yul\":14798:14799   */\n      0x04\n        /* \"#utility.yul\":14791:14806   */\n      mstore\n        /* \"#utility.yul\":14825:14829   */\n      0x24\n        /* \"#utility.yul\":14822:14823   */\n      0x00\n        /* \"#utility.yul\":14815:14830   */\n      revert\n        /* \"#utility.yul\":14842:14959   */\n    tag_191:\n        /* \"#utility.yul\":14951:14952   */\n      0x00\n        /* \"#utility.yul\":14948:14949   */\n      dup1\n        /* \"#utility.yul\":14941:14953   */\n      revert\n        /* \"#utility.yul\":14965:15082   */\n    tag_176:\n        /* \"#utility.yul\":15074:15075   */\n      0x00\n        /* \"#utility.yul\":15071:15072   */\n      dup1\n        /* \"#utility.yul\":15064:15076   */\n      revert\n        /* \"#utility.yul\":15088:15205   */\n    tag_207:\n        /* \"#utility.yul\":15197:15198   */\n      0x00\n        /* \"#utility.yul\":15194:15195   */\n      dup1\n        /* \"#utility.yul\":15187:15199   */\n      revert\n        /* \"#utility.yul\":15211:15328   */\n    tag_200:\n        /* \"#utility.yul\":15320:15321   */\n      0x00\n        /* \"#utility.yul\":15317:15318   */\n      dup1\n        /* \"#utility.yul\":15310:15322   */\n      revert\n        /* \"#utility.yul\":15334:15436   */\n    tag_306:\n        /* \"#utility.yul\":15375:15381   */\n      0x00\n        /* \"#utility.yul\":15426:15428   */\n      0x1f\n        /* \"#utility.yul\":15422:15429   */\n      not\n        /* \"#utility.yul\":15417:15419   */\n      0x1f\n        /* \"#utility.yul\":15410:15415   */\n      dup4\n        /* \"#utility.yul\":15406:15420   */\n      add\n        /* \"#utility.yul\":15402:15430   */\n      and\n        /* \"#utility.yul\":15392:15430   */\n      swap1\n      pop\n        /* \"#utility.yul\":15334:15436   */\n      swap2\n      swap1\n      pop\n      jump\t// out\n        /* \"#utility.yul\":15442:15536   */\n    tag_354:\n        /* \"#utility.yul\":15475:15483   */\n      0x00\n        /* \"#utility.yul\":15523:15528   */\n      dup2\n        /* \"#utility.yul\":15519:15521   */\n      0x60\n        /* \"#utility.yul\":15515:15529   */\n      shl\n        /* \"#utility.yul\":15494:15529   */\n      swap1\n      pop\n        /* \"#utility.yul\":15442:15536   */\n      swap2\n      swap1\n      pop\n      jump\t// out\n        /* \"#utility.yul\":15542:15709   */\n    tag_237:\n        /* \"#utility.yul\":15682:15701   */\n      0x566f74696e672068617320636c6f736564000000000000000000000000000000\n        /* \"#utility.yul\":15678:15679   */\n      0x00\n        /* \"#utility.yul\":15670:15676   */\n      dup3\n        /* \"#utility.yul\":15666:15680   */\n      add\n        /* \"#utility.yul\":15659:15702   */\n      mstore\n        /* \"#utility.yul\":15542:15709   */\n      pop\n      jump\t// out\n        /* \"#utility.yul\":15715:15883   */\n    tag_242:\n        /* \"#utility.yul\":15855:15875   */\n      0x416c7265616479207369676e6564207570210000000000000000000000000000\n        /* \"#utility.yul\":15851:15852   */\n      0x00\n        /* \"#utility.yul\":15843:15849   */\n      dup3\n        /* \"#utility.yul\":15839:15853   */\n      add\n        /* \"#utility.yul\":15832:15876   */\n      mstore\n        /* \"#utility.yul\":15715:15883   */\n      pop\n      jump\t// out\n        /* \"#utility.yul\":15889:16116   */\n    tag_247:\n        /* \"#utility.yul\":16029:16063   */\n      0x5369676e2d75702072656a65637465642120496e616465717561746520737461\n        /* \"#utility.yul\":16025:16026   */\n      0x00\n        /* \"#utility.yul\":16017:16023   */\n      dup3\n        /* \"#utility.yul\":16013:16027   */\n      add\n        /* \"#utility.yul\":16006:16064   */\n      mstore\n        /* \"#utility.yul\":16098:16108   */\n      0x6b652076616c7565000000000000000000000000000000000000000000000000\n        /* \"#utility.yul\":16093:16095   */\n      0x20\n        /* \"#utility.yul\":16085:16091   */\n      dup3\n        /* \"#utility.yul\":16081:16096   */\n      add\n        /* \"#utility.yul\":16074:16109   */\n      mstore\n        /* \"#utility.yul\":15889:16116   */\n      pop\n      jump\t// out\n        /* \"#utility.yul\":16122:16286   */\n    tag_252:\n        /* \"#utility.yul\":16262:16278   */\n      0x4e6f74207369676e656420757021000000000000000000000000000000000000\n        /* \"#utility.yul\":16258:16259   */\n      0x00\n        /* \"#utility.yul\":16250:16256   */\n      dup3\n        /* \"#utility.yul\":16246:16260   */\n      add\n        /* \"#utility.yul\":16239:16279   */\n      mstore\n        /* \"#utility.yul\":16122:16286   */\n      pop\n      jump\t// out\n        /* \"#utility.yul\":16292:16512   */\n    tag_257:\n        /* \"#utility.yul\":16432:16466   */\n      0x4e6f7420612076616c696461746f7220666f7220746869732072657175657374\n        /* \"#utility.yul\":16428:16429   */\n      0x00\n        /* \"#utility.yul\":16420:16426   */\n      dup3\n        /* \"#utility.yul\":16416:16430   */\n      add\n        /* \"#utility.yul\":16409:16467   */\n      mstore\n        /* \"#utility.yul\":16501:16504   */\n      0x2100000000000000000000000000000000000000000000000000000000000000\n        /* \"#utility.yul\":16496:16498   */\n      0x20\n        /* \"#utility.yul\":16488:16494   */\n      dup3\n        /* \"#utility.yul\":16484:16499   */\n      add\n        /* \"#utility.yul\":16477:16505   */\n      mstore\n        /* \"#utility.yul\":16292:16512   */\n      pop\n      jump\t// out\n        /* \"#utility.yul\":16518:16698   */\n    tag_262:\n        /* \"#utility.yul\":16658:16690   */\n      0x494420646f65736e2774206d6174636820796f75722061646472657373210000\n        /* \"#utility.yul\":16654:16655   */\n      0x00\n        /* \"#utility.yul\":16646:16652   */\n      dup3\n        /* \"#utility.yul\":16642:16656   */\n      add\n        /* \"#utility.yul\":16635:16691   */\n      mstore\n        /* \"#utility.yul\":16518:16698   */\n      pop\n      jump\t// out\n        /* \"#utility.yul\":16704:16820   */\n    tag_182:\n        /* \"#utility.yul\":16774:16795   */\n      tag_381\n        /* \"#utility.yul\":16789:16794   */\n      dup2\n        /* \"#utility.yul\":16774:16795   */\n      tag_324\n      jump\t// in\n    tag_381:\n        /* \"#utility.yul\":16767:16772   */\n      dup2\n        /* \"#utility.yul\":16764:16796   */\n      eq\n        /* \"#utility.yul\":16754:16814   */\n      tag_382\n      jumpi\n        /* \"#utility.yul\":16810:16811   */\n      0x00\n        /* \"#utility.yul\":16807:16808   */\n      dup1\n        /* \"#utility.yul\":16800:16812   */\n      revert\n        /* \"#utility.yul\":16754:16814   */\n    tag_382:\n        /* \"#utility.yul\":16704:16820   */\n      pop\n      jump\t// out\n        /* \"#utility.yul\":16826:16948   */\n    tag_186:\n        /* \"#utility.yul\":16899:16923   */\n      tag_384\n        /* \"#utility.yul\":16917:16922   */\n      dup2\n        /* \"#utility.yul\":16899:16923   */\n      tag_326\n      jump\t// in\n    tag_384:\n        /* \"#utility.yul\":16892:16897   */\n      dup2\n        /* \"#utility.yul\":16889:16924   */\n      eq\n        /* \"#utility.yul\":16879:16942   */\n      tag_385\n      jumpi\n        /* \"#utility.yul\":16938:16939   */\n      0x00\n        /* \"#utility.yul\":16935:16936   */\n      dup1\n        /* \"#utility.yul\":16928:16940   */\n      revert\n        /* \"#utility.yul\":16879:16942   */\n    tag_385:\n        /* \"#utility.yul\":16826:16948   */\n      pop\n      jump\t// out\n        /* \"#utility.yul\":16954:17076   */\n    tag_196:\n        /* \"#utility.yul\":17027:17051   */\n      tag_387\n        /* \"#utility.yul\":17045:17050   */\n      dup2\n        /* \"#utility.yul\":17027:17051   */\n      tag_266\n      jump\t// in\n    tag_387:\n        /* \"#utility.yul\":17020:17025   */\n      dup2\n        /* \"#utility.yul\":17017:17052   */\n      eq\n        /* \"#utility.yul\":17007:17070   */\n      tag_388\n      jumpi\n        /* \"#utility.yul\":17066:17067   */\n      0x00\n        /* \"#utility.yul\":17063:17064   */\n      dup1\n        /* \"#utility.yul\":17056:17068   */\n      revert\n        /* \"#utility.yul\":17007:17070   */\n    tag_388:\n        /* \"#utility.yul\":16954:17076   */\n      pop\n      jump\t// out\n\n    auxdata: 0xa26469706673582212209591c399f4c6ca579d5852a78fdfa79fb7bdc23959591996336174057bf58b8c64736f6c63430008070033\n}\n",
				"bytecode": {
					"linkReferences": {},
					"object": "608060405234801561001057600080fd5b50611645806100206000396000f3fe60806040526004361061003f5760003560e01c8063969b156714610044578063c4fb333714610074578063c9d27afe14610092578063f5c7996c146100bb575b600080fd5b61005e60048036038101906100599190610d45565b6100e4565b60405161006b919061107b565b60405180910390f35b61007c610286565b604051610089919061107b565b60405180910390f35b34801561009e57600080fd5b506100b960048036038101906100b49190610dbb565b6103ed565b005b3480156100c757600080fd5b506100e260048036038101906100dd9190610d8e565b6106c2565b005b6000678ac7230489e800003410156100fb57600080fd5b600060024244336004546040516020016101189493929190610f6d565b6040516020818303038152906040526040516101349190610f3b565b602060405180830381855afa158015610151573d6000803e3d6000fd5b5050506040513d601f19601f820116820180604052508101906101749190610d18565b60001c9050806002600554815481106101905761018f6113f8565b5b90600052602060002090600d0201600101819055506005546002600554815481106101be576101bd6113f8565b5b90600052602060002090600d020160000181905550336002600554815481106101ea576101e96113f8565b5b90600052602060002090600d020160050160006101000a81548173ffffffffffffffffffffffffffffffffffffffff021916908373ffffffffffffffffffffffffffffffffffffffff160217905550826002600554815481106102505761024f6113f8565b5b90600052602060002090600d02016004019080519060200190610274929190610bc6565b506102806005546108e6565b50919050565b6000670de0b6b3a764000034146102d2576040517f08c379a00000000000000000000000000000000000000000000000000000000081526004016102c990610ffb565b60405180910390fd5b60001515600160003373ffffffffffffffffffffffffffffffffffffffff1673ffffffffffffffffffffffffffffffffffffffff16815260200190815260200160002060009054906101000a900460ff16151514610365576040517f08c379a000000000000000000000000000000000000000000000000000000000815260040161035c90610fdb565b60405180910390fd5b3360006004548154811061037c5761037b6113f8565b5b9060005260206000200160006101000a81548173ffffffffffffffffffffffffffffffffffffffff021916908373ffffffffffffffffffffffffffffffffffffffff16021790555060016004546103d39190611113565b60048190555060016004546103e89190611169565b905090565b6001151560028381548110610405576104046113f8565b5b90600052602060002090600d020160020160003373ffffffffffffffffffffffffffffffffffffffff1673ffffffffffffffffffffffffffffffffffffffff16815260200190815260200160002060009054906101000a900460ff161515146104a3576040517f08c379a000000000000000000000000000000000000000000000000000000000815260040161049a9061103b565b60405180910390fd5b600282815481106104b7576104b66113f8565b5b90600052602060002090600d0201600a0154431061050a576040517f08c379a000000000000000000000000000000000000000000000000000000000815260040161050190610fbb565b60405180910390fd5b801561057057600160028381548110610526576105256113f8565b5b90600052602060002090600d0201600801546105429190611113565b60028381548110610556576105556113f8565b5b90600052602060002090600d0201600801819055506105cc565b600160028381548110610586576105856113f8565b5b90600052602060002090600d0201600901546105a29190611113565b600283815481106105b6576105b56113f8565b5b90600052602060002090600d0201600901819055505b3373ffffffffffffffffffffffffffffffffffffffff166108fc600284815481106105fa576105f96113f8565b5b90600052602060002090600d020160060154670de0b6b3a764000061061f9190611113565b9081150290604051600060405180830381858888f1935050505015801561064a573d6000803e3d6000fd5b506000151560028381548110610663576106626113f8565b5b90600052602060002090600d020160020160003373ffffffffffffffffffffffffffffffffffffffff1673ffffffffffffffffffffffffffffffffffffffff16815260200190815260200160002060009054906101000a905050505050565b3373ffffffffffffffffffffffffffffffffffffffff16600082815481106106ed576106ec6113f8565b5b9060005260206000200160009054906101000a900473ffffffffffffffffffffffffffffffffffffffff1673ffffffffffffffffffffffffffffffffffffffff161461076e576040517f08c379a00000000000000000000000000000000000000000000000000000000081526004016107659061105b565b60405180910390fd5b60011515600160003373ffffffffffffffffffffffffffffffffffffffff1673ffffffffffffffffffffffffffffffffffffffff16815260200190815260200160002060009054906101000a900460ff16151514610801576040517f08c379a00000000000000000000000000000000000000000000000000000000081526004016107f89061101b565b60405180910390fd5b60001515600160003373ffffffffffffffffffffffffffffffffffffffff1673ffffffffffffffffffffffffffffffffffffffff16815260200190815260200160002060009054906101000a90505050600073ffffffffffffffffffffffffffffffffffffffff166000828154811061087d5761087c6113f8565b5b9060005260206000200160009054906101000a905050503373ffffffffffffffffffffffffffffffffffffffff166108fc670de0b6b3a76400009081150290604051600060405180830381858888f193505050501580156108e2573d6000803e3d6000fd5b5050565b60005b600282815481106108fd576108fc6113f8565b5b90600052602060002090600d0201600b0154811015610bc2576000808054905060026000805490506040516020016109359190610f52565b6040516020818303038152906040526040516109519190610f3b565b602060405180830381855afa15801561096e573d6000803e3d6000fd5b5050506040513d601f19601f820116820180604052508101906109919190610d18565b60001c61099e919061130b565b905060008082815481106109b5576109b46113f8565b5b9060005260206000200160009054906101000a900473ffffffffffffffffffffffffffffffffffffffff1690506000600160008373ffffffffffffffffffffffffffffffffffffffff1673ffffffffffffffffffffffffffffffffffffffff16815260200190815260200160002060006101000a81548160ff02191690831515021790555060006001600080549050610a4e9190611169565b81548110610a5f57610a5e6113f8565b5b9060005260206000200160009054906101000a900473ffffffffffffffffffffffffffffffffffffffff1660008381548110610a9e57610a9d6113f8565b5b9060005260206000200160006101000a81548173ffffffffffffffffffffffffffffffffffffffff021916908373ffffffffffffffffffffffffffffffffffffffff1602179055506000805480610af857610af76113c9565b5b6001900381819060005260206000200160006101000a81549073ffffffffffffffffffffffffffffffffffffffff021916905590558060028581548110610b4257610b416113f8565b5b90600052602060002090600d02016003018481548110610b6557610b646113f8565b5b9060005260206000200160006101000a81548173ffffffffffffffffffffffffffffffffffffffff021916908373ffffffffffffffffffffffffffffffffffffffff16021790555050508080610bba90611294565b9150506108e9565b5050565b828054610bd290611231565b90600052602060002090601f016020900481019282610bf45760008555610c3b565b82601f10610c0d57805160ff1916838001178555610c3b565b82800160010185558215610c3b579182015b82811115610c3a578251825591602001919060010190610c1f565b5b509050610c489190610c4c565b5090565b5b80821115610c65576000816000905550600101610c4d565b5090565b6000610c7c610c77846110bb565b611096565b905082815260208101848484011115610c9857610c9761145b565b5b610ca38482856111ef565b509392505050565b600081359050610cba816115ca565b92915050565b600081519050610ccf816115e1565b92915050565b600082601f830112610cea57610ce9611456565b5b8135610cfa848260208601610c69565b91505092915050565b600081359050610d12816115f8565b92915050565b600060208284031215610d2e57610d2d611465565b5b6000610d3c84828501610cc0565b91505092915050565b600060208284031215610d5b57610d5a611465565b5b600082013567ffffffffffffffff811115610d7957610d78611460565b5b610d8584828501610cd5565b91505092915050565b600060208284031215610da457610da3611465565b5b6000610db284828501610d03565b91505092915050565b60008060408385031215610dd257610dd1611465565b5b6000610de085828601610d03565b9250506020610df185828601610cab565b9150509250929050565b610e0c610e078261119d565b6112dd565b82525050565b6000610e1d826110ec565b610e2781856110f7565b9350610e378185602086016111fe565b80840191505092915050565b6000610e50601183611102565b9150610e5b82611488565b602082019050919050565b6000610e73601283611102565b9150610e7e826114b1565b602082019050919050565b6000610e96602883611102565b9150610ea1826114da565b604082019050919050565b6000610eb9600e83611102565b9150610ec482611529565b602082019050919050565b6000610edc602183611102565b9150610ee782611552565b604082019050919050565b6000610eff601e83611102565b9150610f0a826115a1565b602082019050919050565b610f1e816111e5565b82525050565b610f35610f30826111e5565b611301565b82525050565b6000610f478284610e12565b915081905092915050565b6000610f5e8284610f24565b60208201915081905092915050565b6000610f798287610f24565b602082019150610f898286610f24565b602082019150610f998285610dfb565b601482019150610fa98284610f24565b60208201915081905095945050505050565b60006020820190508181036000830152610fd481610e43565b9050919050565b60006020820190508181036000830152610ff481610e66565b9050919050565b6000602082019050818103600083015261101481610e89565b9050919050565b6000602082019050818103600083015261103481610eac565b9050919050565b6000602082019050818103600083015261105481610ecf565b9050919050565b6000602082019050818103600083015261107481610ef2565b9050919050565b60006020820190506110906000830184610f15565b92915050565b60006110a06110b1565b90506110ac8282611263565b919050565b6000604051905090565b600067ffffffffffffffff8211156110d6576110d5611427565b5b6110df8261146a565b9050602081019050919050565b600081519050919050565b600081905092915050565b600082825260208201905092915050565b600061111e826111e5565b9150611129836111e5565b9250827fffffffffffffffffffffffffffffffffffffffffffffffffffffffffffffffff0382111561115e5761115d61133c565b5b828201905092915050565b6000611174826111e5565b915061117f836111e5565b9250828210156111925761119161133c565b5b828203905092915050565b60006111a8826111c5565b9050919050565b60008115159050919050565b6000819050919050565b600073ffffffffffffffffffffffffffffffffffffffff82169050919050565b6000819050919050565b82818337600083830152505050565b60005b8381101561121c578082015181840152602081019050611201565b8381111561122b576000848401525b50505050565b6000600282049050600182168061124957607f821691505b6020821081141561125d5761125c61139a565b5b50919050565b61126c8261146a565b810181811067ffffffffffffffff8211171561128b5761128a611427565b5b80604052505050565b600061129f826111e5565b91507fffffffffffffffffffffffffffffffffffffffffffffffffffffffffffffffff8214156112d2576112d161133c565b5b600182019050919050565b60006112e8826112ef565b9050919050565b60006112fa8261147b565b9050919050565b6000819050919050565b6000611316826111e5565b9150611321836111e5565b9250826113315761133061136b565b5b828206905092915050565b7f4e487b7100000000000000000000000000000000000000000000000000000000600052601160045260246000fd5b7f4e487b7100000000000000000000000000000000000000000000000000000000600052601260045260246000fd5b7f4e487b7100000000000000000000000000000000000000000000000000000000600052602260045260246000fd5b7f4e487b7100000000000000000000000000000000000000000000000000000000600052603160045260246000fd5b7f4e487b7100000000000000000000000000000000000000000000000000000000600052603260045260246000fd5b7f4e487b7100000000000000000000000000000000000000000000000000000000600052604160045260246000fd5b600080fd5b600080fd5b600080fd5b600080fd5b6000601f19601f8301169050919050565b60008160601b9050919050565b7f566f74696e672068617320636c6f736564000000000000000000000000000000600082015250565b7f416c7265616479207369676e6564207570210000000000000000000000000000600082015250565b7f5369676e2d75702072656a65637465642120496e61646571756174652073746160008201527f6b652076616c7565000000000000000000000000000000000000000000000000602082015250565b7f4e6f74207369676e656420757021000000000000000000000000000000000000600082015250565b7f4e6f7420612076616c696461746f7220666f722074686973207265717565737460008201527f2100000000000000000000000000000000000000000000000000000000000000602082015250565b7f494420646f65736e2774206d6174636820796f75722061646472657373210000600082015250565b6115d3816111af565b81146115de57600080fd5b50565b6115ea816111bb565b81146115f557600080fd5b50565b611601816111e5565b811461160c57600080fd5b5056fea26469706673582212209591c399f4c6ca579d5852a78fdfa79fb7bdc23959591996336174057bf58b8c64736f6c63430008070033",
					"opcodes": "PUSH1 0x80 PUSH1 0x40 MSTORE CALLVALUE DUP1 ISZERO PUSH2 0x10 JUMPI PUSH1 0x0 DUP1 REVERT JUMPDEST POP PUSH2 0x1645 DUP1 PUSH2 0x20 PUSH1 0x0 CODECOPY PUSH1 0x0 RETURN INVALID PUSH1 0x80 PUSH1 0x40 MSTORE PUSH1 0x4 CALLDATASIZE LT PUSH2 0x3F JUMPI PUSH1 0x0 CALLDATALOAD PUSH1 0xE0 SHR DUP1 PUSH4 0x969B1567 EQ PUSH2 0x44 JUMPI DUP1 PUSH4 0xC4FB3337 EQ PUSH2 0x74 JUMPI DUP1 PUSH4 0xC9D27AFE EQ PUSH2 0x92 JUMPI DUP1 PUSH4 0xF5C7996C EQ PUSH2 0xBB JUMPI JUMPDEST PUSH1 0x0 DUP1 REVERT JUMPDEST PUSH2 0x5E PUSH1 0x4 DUP1 CALLDATASIZE SUB DUP2 ADD SWAP1 PUSH2 0x59 SWAP2 SWAP1 PUSH2 0xD45 JUMP JUMPDEST PUSH2 0xE4 JUMP JUMPDEST PUSH1 0x40 MLOAD PUSH2 0x6B SWAP2 SWAP1 PUSH2 0x107B JUMP JUMPDEST PUSH1 0x40 MLOAD DUP1 SWAP2 SUB SWAP1 RETURN JUMPDEST PUSH2 0x7C PUSH2 0x286 JUMP JUMPDEST PUSH1 0x40 MLOAD PUSH2 0x89 SWAP2 SWAP1 PUSH2 0x107B JUMP JUMPDEST PUSH1 0x40 MLOAD DUP1 SWAP2 SUB SWAP1 RETURN JUMPDEST CALLVALUE DUP1 ISZERO PUSH2 0x9E JUMPI PUSH1 0x0 DUP1 REVERT JUMPDEST POP PUSH2 0xB9 PUSH1 0x4 DUP1 CALLDATASIZE SUB DUP2 ADD SWAP1 PUSH2 0xB4 SWAP2 SWAP1 PUSH2 0xDBB JUMP JUMPDEST PUSH2 0x3ED JUMP JUMPDEST STOP JUMPDEST CALLVALUE DUP1 ISZERO PUSH2 0xC7 JUMPI PUSH1 0x0 DUP1 REVERT JUMPDEST POP PUSH2 0xE2 PUSH1 0x4 DUP1 CALLDATASIZE SUB DUP2 ADD SWAP1 PUSH2 0xDD SWAP2 SWAP1 PUSH2 0xD8E JUMP JUMPDEST PUSH2 0x6C2 JUMP JUMPDEST STOP JUMPDEST PUSH1 0x0 PUSH8 0x8AC7230489E80000 CALLVALUE LT ISZERO PUSH2 0xFB JUMPI PUSH1 0x0 DUP1 REVERT JUMPDEST PUSH1 0x0 PUSH1 0x2 TIMESTAMP DIFFICULTY CALLER PUSH1 0x4 SLOAD PUSH1 0x40 MLOAD PUSH1 0x20 ADD PUSH2 0x118 SWAP5 SWAP4 SWAP3 SWAP2 SWAP1 PUSH2 0xF6D JUMP JUMPDEST PUSH1 0x40 MLOAD PUSH1 0x20 DUP2 DUP4 SUB SUB DUP2 MSTORE SWAP1 PUSH1 0x40 MSTORE PUSH1 0x40 MLOAD PUSH2 0x134 SWAP2 SWAP1 PUSH2 0xF3B JUMP JUMPDEST PUSH1 0x20 PUSH1 0x40 MLOAD DUP1 DUP4 SUB DUP2 DUP6 GAS STATICCALL ISZERO DUP1 ISZERO PUSH2 0x151 JUMPI RETURNDATASIZE PUSH1 0x0 DUP1 RETURNDATACOPY RETURNDATASIZE PUSH1 0x0 REVERT JUMPDEST POP POP POP PUSH1 0x40 MLOAD RETURNDATASIZE PUSH1 0x1F NOT PUSH1 0x1F DUP3 ADD AND DUP3 ADD DUP1 PUSH1 0x40 MSTORE POP DUP2 ADD SWAP1 PUSH2 0x174 SWAP2 SWAP1 PUSH2 0xD18 JUMP JUMPDEST PUSH1 0x0 SHR SWAP1 POP DUP1 PUSH1 0x2 PUSH1 0x5 SLOAD DUP2 SLOAD DUP2 LT PUSH2 0x190 JUMPI PUSH2 0x18F PUSH2 0x13F8 JUMP JUMPDEST JUMPDEST SWAP1 PUSH1 0x0 MSTORE PUSH1 0x20 PUSH1 0x0 KECCAK256 SWAP1 PUSH1 0xD MUL ADD PUSH1 0x1 ADD DUP2 SWAP1 SSTORE POP PUSH1 0x5 SLOAD PUSH1 0x2 PUSH1 0x5 SLOAD DUP2 SLOAD DUP2 LT PUSH2 0x1BE JUMPI PUSH2 0x1BD PUSH2 0x13F8 JUMP JUMPDEST JUMPDEST SWAP1 PUSH1 0x0 MSTORE PUSH1 0x20 PUSH1 0x0 KECCAK256 SWAP1 PUSH1 0xD MUL ADD PUSH1 0x0 ADD DUP2 SWAP1 SSTORE POP CALLER PUSH1 0x2 PUSH1 0x5 SLOAD DUP2 SLOAD DUP2 LT PUSH2 0x1EA JUMPI PUSH2 0x1E9 PUSH2 0x13F8 JUMP JUMPDEST JUMPDEST SWAP1 PUSH1 0x0 MSTORE PUSH1 0x20 PUSH1 0x0 KECCAK256 SWAP1 PUSH1 0xD MUL ADD PUSH1 0x5 ADD PUSH1 0x0 PUSH2 0x100 EXP DUP2 SLOAD DUP2 PUSH20 0xFFFFFFFFFFFFFFFFFFFFFFFFFFFFFFFFFFFFFFFF MUL NOT AND SWAP1 DUP4 PUSH20 0xFFFFFFFFFFFFFFFFFFFFFFFFFFFFFFFFFFFFFFFF AND MUL OR SWAP1 SSTORE POP DUP3 PUSH1 0x2 PUSH1 0x5 SLOAD DUP2 SLOAD DUP2 LT PUSH2 0x250 JUMPI PUSH2 0x24F PUSH2 0x13F8 JUMP JUMPDEST JUMPDEST SWAP1 PUSH1 0x0 MSTORE PUSH1 0x20 PUSH1 0x0 KECCAK256 SWAP1 PUSH1 0xD MUL ADD PUSH1 0x4 ADD SWAP1 DUP1 MLOAD SWAP1 PUSH1 0x20 ADD SWAP1 PUSH2 0x274 SWAP3 SWAP2 SWAP1 PUSH2 0xBC6 JUMP JUMPDEST POP PUSH2 0x280 PUSH1 0x5 SLOAD PUSH2 0x8E6 JUMP JUMPDEST POP SWAP2 SWAP1 POP JUMP JUMPDEST PUSH1 0x0 PUSH8 0xDE0B6B3A7640000 CALLVALUE EQ PUSH2 0x2D2 JUMPI PUSH1 0x40 MLOAD PUSH32 0x8C379A000000000000000000000000000000000000000000000000000000000 DUP2 MSTORE PUSH1 0x4 ADD PUSH2 0x2C9 SWAP1 PUSH2 0xFFB JUMP JUMPDEST PUSH1 0x40 MLOAD DUP1 SWAP2 SUB SWAP1 REVERT JUMPDEST PUSH1 0x0 ISZERO ISZERO PUSH1 0x1 PUSH1 0x0 CALLER PUSH20 0xFFFFFFFFFFFFFFFFFFFFFFFFFFFFFFFFFFFFFFFF AND PUSH20 0xFFFFFFFFFFFFFFFFFFFFFFFFFFFFFFFFFFFFFFFF AND DUP2 MSTORE PUSH1 0x20 ADD SWAP1 DUP2 MSTORE PUSH1 0x20 ADD PUSH1 0x0 KECCAK256 PUSH1 0x0 SWAP1 SLOAD SWAP1 PUSH2 0x100 EXP SWAP1 DIV PUSH1 0xFF AND ISZERO ISZERO EQ PUSH2 0x365 JUMPI PUSH1 0x40 MLOAD PUSH32 0x8C379A000000000000000000000000000000000000000000000000000000000 DUP2 MSTORE PUSH1 0x4 ADD PUSH2 0x35C SWAP1 PUSH2 0xFDB JUMP JUMPDEST PUSH1 0x40 MLOAD DUP1 SWAP2 SUB SWAP1 REVERT JUMPDEST CALLER PUSH1 0x0 PUSH1 0x4 SLOAD DUP2 SLOAD DUP2 LT PUSH2 0x37C JUMPI PUSH2 0x37B PUSH2 0x13F8 JUMP JUMPDEST JUMPDEST SWAP1 PUSH1 0x0 MSTORE PUSH1 0x20 PUSH1 0x0 KECCAK256 ADD PUSH1 0x0 PUSH2 0x100 EXP DUP2 SLOAD DUP2 PUSH20 0xFFFFFFFFFFFFFFFFFFFFFFFFFFFFFFFFFFFFFFFF MUL NOT AND SWAP1 DUP4 PUSH20 0xFFFFFFFFFFFFFFFFFFFFFFFFFFFFFFFFFFFFFFFF AND MUL OR SWAP1 SSTORE POP PUSH1 0x1 PUSH1 0x4 SLOAD PUSH2 0x3D3 SWAP2 SWAP1 PUSH2 0x1113 JUMP JUMPDEST PUSH1 0x4 DUP2 SWAP1 SSTORE POP PUSH1 0x1 PUSH1 0x4 SLOAD PUSH2 0x3E8 SWAP2 SWAP1 PUSH2 0x1169 JUMP JUMPDEST SWAP1 POP SWAP1 JUMP JUMPDEST PUSH1 0x1 ISZERO ISZERO PUSH1 0x2 DUP4 DUP2 SLOAD DUP2 LT PUSH2 0x405 JUMPI PUSH2 0x404 PUSH2 0x13F8 JUMP JUMPDEST JUMPDEST SWAP1 PUSH1 0x0 MSTORE PUSH1 0x20 PUSH1 0x0 KECCAK256 SWAP1 PUSH1 0xD MUL ADD PUSH1 0x2 ADD PUSH1 0x0 CALLER PUSH20 0xFFFFFFFFFFFFFFFFFFFFFFFFFFFFFFFFFFFFFFFF AND PUSH20 0xFFFFFFFFFFFFFFFFFFFFFFFFFFFFFFFFFFFFFFFF AND DUP2 MSTORE PUSH1 0x20 ADD SWAP1 DUP2 MSTORE PUSH1 0x20 ADD PUSH1 0x0 KECCAK256 PUSH1 0x0 SWAP1 SLOAD SWAP1 PUSH2 0x100 EXP SWAP1 DIV PUSH1 0xFF AND ISZERO ISZERO EQ PUSH2 0x4A3 JUMPI PUSH1 0x40 MLOAD PUSH32 0x8C379A000000000000000000000000000000000000000000000000000000000 DUP2 MSTORE PUSH1 0x4 ADD PUSH2 0x49A SWAP1 PUSH2 0x103B JUMP JUMPDEST PUSH1 0x40 MLOAD DUP1 SWAP2 SUB SWAP1 REVERT JUMPDEST PUSH1 0x2 DUP3 DUP2 SLOAD DUP2 LT PUSH2 0x4B7 JUMPI PUSH2 0x4B6 PUSH2 0x13F8 JUMP JUMPDEST JUMPDEST SWAP1 PUSH1 0x0 MSTORE PUSH1 0x20 PUSH1 0x0 KECCAK256 SWAP1 PUSH1 0xD MUL ADD PUSH1 0xA ADD SLOAD NUMBER LT PUSH2 0x50A JUMPI PUSH1 0x40 MLOAD PUSH32 0x8C379A000000000000000000000000000000000000000000000000000000000 DUP2 MSTORE PUSH1 0x4 ADD PUSH2 0x501 SWAP1 PUSH2 0xFBB JUMP JUMPDEST PUSH1 0x40 MLOAD DUP1 SWAP2 SUB SWAP1 REVERT JUMPDEST DUP1 ISZERO PUSH2 0x570 JUMPI PUSH1 0x1 PUSH1 0x2 DUP4 DUP2 SLOAD DUP2 LT PUSH2 0x526 JUMPI PUSH2 0x525 PUSH2 0x13F8 JUMP JUMPDEST JUMPDEST SWAP1 PUSH1 0x0 MSTORE PUSH1 0x20 PUSH1 0x0 KECCAK256 SWAP1 PUSH1 0xD MUL ADD PUSH1 0x8 ADD SLOAD PUSH2 0x542 SWAP2 SWAP1 PUSH2 0x1113 JUMP JUMPDEST PUSH1 0x2 DUP4 DUP2 SLOAD DUP2 LT PUSH2 0x556 JUMPI PUSH2 0x555 PUSH2 0x13F8 JUMP JUMPDEST JUMPDEST SWAP1 PUSH1 0x0 MSTORE PUSH1 0x20 PUSH1 0x0 KECCAK256 SWAP1 PUSH1 0xD MUL ADD PUSH1 0x8 ADD DUP2 SWAP1 SSTORE POP PUSH2 0x5CC JUMP JUMPDEST PUSH1 0x1 PUSH1 0x2 DUP4 DUP2 SLOAD DUP2 LT PUSH2 0x586 JUMPI PUSH2 0x585 PUSH2 0x13F8 JUMP JUMPDEST JUMPDEST SWAP1 PUSH1 0x0 MSTORE PUSH1 0x20 PUSH1 0x0 KECCAK256 SWAP1 PUSH1 0xD MUL ADD PUSH1 0x9 ADD SLOAD PUSH2 0x5A2 SWAP2 SWAP1 PUSH2 0x1113 JUMP JUMPDEST PUSH1 0x2 DUP4 DUP2 SLOAD DUP2 LT PUSH2 0x5B6 JUMPI PUSH2 0x5B5 PUSH2 0x13F8 JUMP JUMPDEST JUMPDEST SWAP1 PUSH1 0x0 MSTORE PUSH1 0x20 PUSH1 0x0 KECCAK256 SWAP1 PUSH1 0xD MUL ADD PUSH1 0x9 ADD DUP2 SWAP1 SSTORE POP JUMPDEST CALLER PUSH20 0xFFFFFFFFFFFFFFFFFFFFFFFFFFFFFFFFFFFFFFFF AND PUSH2 0x8FC PUSH1 0x2 DUP5 DUP2 SLOAD DUP2 LT PUSH2 0x5FA JUMPI PUSH2 0x5F9 PUSH2 0x13F8 JUMP JUMPDEST JUMPDEST SWAP1 PUSH1 0x0 MSTORE PUSH1 0x20 PUSH1 0x0 KECCAK256 SWAP1 PUSH1 0xD MUL ADD PUSH1 0x6 ADD SLOAD PUSH8 0xDE0B6B3A7640000 PUSH2 0x61F SWAP2 SWAP1 PUSH2 0x1113 JUMP JUMPDEST SWAP1 DUP2 ISZERO MUL SWAP1 PUSH1 0x40 MLOAD PUSH1 0x0 PUSH1 0x40 MLOAD DUP1 DUP4 SUB DUP2 DUP6 DUP9 DUP9 CALL SWAP4 POP POP POP POP ISZERO DUP1 ISZERO PUSH2 0x64A JUMPI RETURNDATASIZE PUSH1 0x0 DUP1 RETURNDATACOPY RETURNDATASIZE PUSH1 0x0 REVERT JUMPDEST POP PUSH1 0x0 ISZERO ISZERO PUSH1 0x2 DUP4 DUP2 SLOAD DUP2 LT PUSH2 0x663 JUMPI PUSH2 0x662 PUSH2 0x13F8 JUMP JUMPDEST JUMPDEST SWAP1 PUSH1 0x0 MSTORE PUSH1 0x20 PUSH1 0x0 KECCAK256 SWAP1 PUSH1 0xD MUL ADD PUSH1 0x2 ADD PUSH1 0x0 CALLER PUSH20 0xFFFFFFFFFFFFFFFFFFFFFFFFFFFFFFFFFFFFFFFF AND PUSH20 0xFFFFFFFFFFFFFFFFFFFFFFFFFFFFFFFFFFFFFFFF AND DUP2 MSTORE PUSH1 0x20 ADD SWAP1 DUP2 MSTORE PUSH1 0x20 ADD PUSH1 0x0 KECCAK256 PUSH1 0x0 SWAP1 SLOAD SWAP1 PUSH2 0x100 EXP SWAP1 POP POP POP POP POP JUMP JUMPDEST CALLER PUSH20 0xFFFFFFFFFFFFFFFFFFFFFFFFFFFFFFFFFFFFFFFF AND PUSH1 0x0 DUP3 DUP2 SLOAD DUP2 LT PUSH2 0x6ED JUMPI PUSH2 0x6EC PUSH2 0x13F8 JUMP JUMPDEST JUMPDEST SWAP1 PUSH1 0x0 MSTORE PUSH1 0x20 PUSH1 0x0 KECCAK256 ADD PUSH1 0x0 SWAP1 SLOAD SWAP1 PUSH2 0x100 EXP SWAP1 DIV PUSH20 0xFFFFFFFFFFFFFFFFFFFFFFFFFFFFFFFFFFFFFFFF AND PUSH20 0xFFFFFFFFFFFFFFFFFFFFFFFFFFFFFFFFFFFFFFFF AND EQ PUSH2 0x76E JUMPI PUSH1 0x40 MLOAD PUSH32 0x8C379A000000000000000000000000000000000000000000000000000000000 DUP2 MSTORE PUSH1 0x4 ADD PUSH2 0x765 SWAP1 PUSH2 0x105B JUMP JUMPDEST PUSH1 0x40 MLOAD DUP1 SWAP2 SUB SWAP1 REVERT JUMPDEST PUSH1 0x1 ISZERO ISZERO PUSH1 0x1 PUSH1 0x0 CALLER PUSH20 0xFFFFFFFFFFFFFFFFFFFFFFFFFFFFFFFFFFFFFFFF AND PUSH20 0xFFFFFFFFFFFFFFFFFFFFFFFFFFFFFFFFFFFFFFFF AND DUP2 MSTORE PUSH1 0x20 ADD SWAP1 DUP2 MSTORE PUSH1 0x20 ADD PUSH1 0x0 KECCAK256 PUSH1 0x0 SWAP1 SLOAD SWAP1 PUSH2 0x100 EXP SWAP1 DIV PUSH1 0xFF AND ISZERO ISZERO EQ PUSH2 0x801 JUMPI PUSH1 0x40 MLOAD PUSH32 0x8C379A000000000000000000000000000000000000000000000000000000000 DUP2 MSTORE PUSH1 0x4 ADD PUSH2 0x7F8 SWAP1 PUSH2 0x101B JUMP JUMPDEST PUSH1 0x40 MLOAD DUP1 SWAP2 SUB SWAP1 REVERT JUMPDEST PUSH1 0x0 ISZERO ISZERO PUSH1 0x1 PUSH1 0x0 CALLER PUSH20 0xFFFFFFFFFFFFFFFFFFFFFFFFFFFFFFFFFFFFFFFF AND PUSH20 0xFFFFFFFFFFFFFFFFFFFFFFFFFFFFFFFFFFFFFFFF AND DUP2 MSTORE PUSH1 0x20 ADD SWAP1 DUP2 MSTORE PUSH1 0x20 ADD PUSH1 0x0 KECCAK256 PUSH1 0x0 SWAP1 SLOAD SWAP1 PUSH2 0x100 EXP SWAP1 POP POP POP PUSH1 0x0 PUSH20 0xFFFFFFFFFFFFFFFFFFFFFFFFFFFFFFFFFFFFFFFF AND PUSH1 0x0 DUP3 DUP2 SLOAD DUP2 LT PUSH2 0x87D JUMPI PUSH2 0x87C PUSH2 0x13F8 JUMP JUMPDEST JUMPDEST SWAP1 PUSH1 0x0 MSTORE PUSH1 0x20 PUSH1 0x0 KECCAK256 ADD PUSH1 0x0 SWAP1 SLOAD SWAP1 PUSH2 0x100 EXP SWAP1 POP POP POP CALLER PUSH20 0xFFFFFFFFFFFFFFFFFFFFFFFFFFFFFFFFFFFFFFFF AND PUSH2 0x8FC PUSH8 0xDE0B6B3A7640000 SWAP1 DUP2 ISZERO MUL SWAP1 PUSH1 0x40 MLOAD PUSH1 0x0 PUSH1 0x40 MLOAD DUP1 DUP4 SUB DUP2 DUP6 DUP9 DUP9 CALL SWAP4 POP POP POP POP ISZERO DUP1 ISZERO PUSH2 0x8E2 JUMPI RETURNDATASIZE PUSH1 0x0 DUP1 RETURNDATACOPY RETURNDATASIZE PUSH1 0x0 REVERT JUMPDEST POP POP JUMP JUMPDEST PUSH1 0x0 JUMPDEST PUSH1 0x2 DUP3 DUP2 SLOAD DUP2 LT PUSH2 0x8FD JUMPI PUSH2 0x8FC PUSH2 0x13F8 JUMP JUMPDEST JUMPDEST SWAP1 PUSH1 0x0 MSTORE PUSH1 0x20 PUSH1 0x0 KECCAK256 SWAP1 PUSH1 0xD MUL ADD PUSH1 0xB ADD SLOAD DUP2 LT ISZERO PUSH2 0xBC2 JUMPI PUSH1 0x0 DUP1 DUP1 SLOAD SWAP1 POP PUSH1 0x2 PUSH1 0x0 DUP1 SLOAD SWAP1 POP PUSH1 0x40 MLOAD PUSH1 0x20 ADD PUSH2 0x935 SWAP2 SWAP1 PUSH2 0xF52 JUMP JUMPDEST PUSH1 0x40 MLOAD PUSH1 0x20 DUP2 DUP4 SUB SUB DUP2 MSTORE SWAP1 PUSH1 0x40 MSTORE PUSH1 0x40 MLOAD PUSH2 0x951 SWAP2 SWAP1 PUSH2 0xF3B JUMP JUMPDEST PUSH1 0x20 PUSH1 0x40 MLOAD DUP1 DUP4 SUB DUP2 DUP6 GAS STATICCALL ISZERO DUP1 ISZERO PUSH2 0x96E JUMPI RETURNDATASIZE PUSH1 0x0 DUP1 RETURNDATACOPY RETURNDATASIZE PUSH1 0x0 REVERT JUMPDEST POP POP POP PUSH1 0x40 MLOAD RETURNDATASIZE PUSH1 0x1F NOT PUSH1 0x1F DUP3 ADD AND DUP3 ADD DUP1 PUSH1 0x40 MSTORE POP DUP2 ADD SWAP1 PUSH2 0x991 SWAP2 SWAP1 PUSH2 0xD18 JUMP JUMPDEST PUSH1 0x0 SHR PUSH2 0x99E SWAP2 SWAP1 PUSH2 0x130B JUMP JUMPDEST SWAP1 POP PUSH1 0x0 DUP1 DUP3 DUP2 SLOAD DUP2 LT PUSH2 0x9B5 JUMPI PUSH2 0x9B4 PUSH2 0x13F8 JUMP JUMPDEST JUMPDEST SWAP1 PUSH1 0x0 MSTORE PUSH1 0x20 PUSH1 0x0 KECCAK256 ADD PUSH1 0x0 SWAP1 SLOAD SWAP1 PUSH2 0x100 EXP SWAP1 DIV PUSH20 0xFFFFFFFFFFFFFFFFFFFFFFFFFFFFFFFFFFFFFFFF AND SWAP1 POP PUSH1 0x0 PUSH1 0x1 PUSH1 0x0 DUP4 PUSH20 0xFFFFFFFFFFFFFFFFFFFFFFFFFFFFFFFFFFFFFFFF AND PUSH20 0xFFFFFFFFFFFFFFFFFFFFFFFFFFFFFFFFFFFFFFFF AND DUP2 MSTORE PUSH1 0x20 ADD SWAP1 DUP2 MSTORE PUSH1 0x20 ADD PUSH1 0x0 KECCAK256 PUSH1 0x0 PUSH2 0x100 EXP DUP2 SLOAD DUP2 PUSH1 0xFF MUL NOT AND SWAP1 DUP4 ISZERO ISZERO MUL OR SWAP1 SSTORE POP PUSH1 0x0 PUSH1 0x1 PUSH1 0x0 DUP1 SLOAD SWAP1 POP PUSH2 0xA4E SWAP2 SWAP1 PUSH2 0x1169 JUMP JUMPDEST DUP2 SLOAD DUP2 LT PUSH2 0xA5F JUMPI PUSH2 0xA5E PUSH2 0x13F8 JUMP JUMPDEST JUMPDEST SWAP1 PUSH1 0x0 MSTORE PUSH1 0x20 PUSH1 0x0 KECCAK256 ADD PUSH1 0x0 SWAP1 SLOAD SWAP1 PUSH2 0x100 EXP SWAP1 DIV PUSH20 0xFFFFFFFFFFFFFFFFFFFFFFFFFFFFFFFFFFFFFFFF AND PUSH1 0x0 DUP4 DUP2 SLOAD DUP2 LT PUSH2 0xA9E JUMPI PUSH2 0xA9D PUSH2 0x13F8 JUMP JUMPDEST JUMPDEST SWAP1 PUSH1 0x0 MSTORE PUSH1 0x20 PUSH1 0x0 KECCAK256 ADD PUSH1 0x0 PUSH2 0x100 EXP DUP2 SLOAD DUP2 PUSH20 0xFFFFFFFFFFFFFFFFFFFFFFFFFFFFFFFFFFFFFFFF MUL NOT AND SWAP1 DUP4 PUSH20 0xFFFFFFFFFFFFFFFFFFFFFFFFFFFFFFFFFFFFFFFF AND MUL OR SWAP1 SSTORE POP PUSH1 0x0 DUP1 SLOAD DUP1 PUSH2 0xAF8 JUMPI PUSH2 0xAF7 PUSH2 0x13C9 JUMP JUMPDEST JUMPDEST PUSH1 0x1 SWAP1 SUB DUP2 DUP2 SWAP1 PUSH1 0x0 MSTORE PUSH1 0x20 PUSH1 0x0 KECCAK256 ADD PUSH1 0x0 PUSH2 0x100 EXP DUP2 SLOAD SWAP1 PUSH20 0xFFFFFFFFFFFFFFFFFFFFFFFFFFFFFFFFFFFFFFFF MUL NOT AND SWAP1 SSTORE SWAP1 SSTORE DUP1 PUSH1 0x2 DUP6 DUP2 SLOAD DUP2 LT PUSH2 0xB42 JUMPI PUSH2 0xB41 PUSH2 0x13F8 JUMP JUMPDEST JUMPDEST SWAP1 PUSH1 0x0 MSTORE PUSH1 0x20 PUSH1 0x0 KECCAK256 SWAP1 PUSH1 0xD MUL ADD PUSH1 0x3 ADD DUP5 DUP2 SLOAD DUP2 LT PUSH2 0xB65 JUMPI PUSH2 0xB64 PUSH2 0x13F8 JUMP JUMPDEST JUMPDEST SWAP1 PUSH1 0x0 MSTORE PUSH1 0x20 PUSH1 0x0 KECCAK256 ADD PUSH1 0x0 PUSH2 0x100 EXP DUP2 SLOAD DUP2 PUSH20 0xFFFFFFFFFFFFFFFFFFFFFFFFFFFFFFFFFFFFFFFF MUL NOT AND SWAP1 DUP4 PUSH20 0xFFFFFFFFFFFFFFFFFFFFFFFFFFFFFFFFFFFFFFFF AND MUL OR SWAP1 SSTORE POP POP POP DUP1 DUP1 PUSH2 0xBBA SWAP1 PUSH2 0x1294 JUMP JUMPDEST SWAP2 POP POP PUSH2 0x8E9 JUMP JUMPDEST POP POP JUMP JUMPDEST DUP3 DUP1 SLOAD PUSH2 0xBD2 SWAP1 PUSH2 0x1231 JUMP JUMPDEST SWAP1 PUSH1 0x0 MSTORE PUSH1 0x20 PUSH1 0x0 KECCAK256 SWAP1 PUSH1 0x1F ADD PUSH1 0x20 SWAP1 DIV DUP2 ADD SWAP3 DUP3 PUSH2 0xBF4 JUMPI PUSH1 0x0 DUP6 SSTORE PUSH2 0xC3B JUMP JUMPDEST DUP3 PUSH1 0x1F LT PUSH2 0xC0D JUMPI DUP1 MLOAD PUSH1 0xFF NOT AND DUP4 DUP1 ADD OR DUP6 SSTORE PUSH2 0xC3B JUMP JUMPDEST DUP3 DUP1 ADD PUSH1 0x1 ADD DUP6 SSTORE DUP3 ISZERO PUSH2 0xC3B JUMPI SWAP2 DUP3 ADD JUMPDEST DUP3 DUP2 GT ISZERO PUSH2 0xC3A JUMPI DUP3 MLOAD DUP3 SSTORE SWAP2 PUSH1 0x20 ADD SWAP2 SWAP1 PUSH1 0x1 ADD SWAP1 PUSH2 0xC1F JUMP JUMPDEST JUMPDEST POP SWAP1 POP PUSH2 0xC48 SWAP2 SWAP1 PUSH2 0xC4C JUMP JUMPDEST POP SWAP1 JUMP JUMPDEST JUMPDEST DUP1 DUP3 GT ISZERO PUSH2 0xC65 JUMPI PUSH1 0x0 DUP2 PUSH1 0x0 SWAP1 SSTORE POP PUSH1 0x1 ADD PUSH2 0xC4D JUMP JUMPDEST POP SWAP1 JUMP JUMPDEST PUSH1 0x0 PUSH2 0xC7C PUSH2 0xC77 DUP5 PUSH2 0x10BB JUMP JUMPDEST PUSH2 0x1096 JUMP JUMPDEST SWAP1 POP DUP3 DUP2 MSTORE PUSH1 0x20 DUP2 ADD DUP5 DUP5 DUP5 ADD GT ISZERO PUSH2 0xC98 JUMPI PUSH2 0xC97 PUSH2 0x145B JUMP JUMPDEST JUMPDEST PUSH2 0xCA3 DUP5 DUP3 DUP6 PUSH2 0x11EF JUMP JUMPDEST POP SWAP4 SWAP3 POP POP POP JUMP JUMPDEST PUSH1 0x0 DUP2 CALLDATALOAD SWAP1 POP PUSH2 0xCBA DUP2 PUSH2 0x15CA JUMP JUMPDEST SWAP3 SWAP2 POP POP JUMP JUMPDEST PUSH1 0x0 DUP2 MLOAD SWAP1 POP PUSH2 0xCCF DUP2 PUSH2 0x15E1 JUMP JUMPDEST SWAP3 SWAP2 POP POP JUMP JUMPDEST PUSH1 0x0 DUP3 PUSH1 0x1F DUP4 ADD SLT PUSH2 0xCEA JUMPI PUSH2 0xCE9 PUSH2 0x1456 JUMP JUMPDEST JUMPDEST DUP2 CALLDATALOAD PUSH2 0xCFA DUP5 DUP3 PUSH1 0x20 DUP7 ADD PUSH2 0xC69 JUMP JUMPDEST SWAP2 POP POP SWAP3 SWAP2 POP POP JUMP JUMPDEST PUSH1 0x0 DUP2 CALLDATALOAD SWAP1 POP PUSH2 0xD12 DUP2 PUSH2 0x15F8 JUMP JUMPDEST SWAP3 SWAP2 POP POP JUMP JUMPDEST PUSH1 0x0 PUSH1 0x20 DUP3 DUP5 SUB SLT ISZERO PUSH2 0xD2E JUMPI PUSH2 0xD2D PUSH2 0x1465 JUMP JUMPDEST JUMPDEST PUSH1 0x0 PUSH2 0xD3C DUP5 DUP3 DUP6 ADD PUSH2 0xCC0 JUMP JUMPDEST SWAP2 POP POP SWAP3 SWAP2 POP POP JUMP JUMPDEST PUSH1 0x0 PUSH1 0x20 DUP3 DUP5 SUB SLT ISZERO PUSH2 0xD5B JUMPI PUSH2 0xD5A PUSH2 0x1465 JUMP JUMPDEST JUMPDEST PUSH1 0x0 DUP3 ADD CALLDATALOAD PUSH8 0xFFFFFFFFFFFFFFFF DUP2 GT ISZERO PUSH2 0xD79 JUMPI PUSH2 0xD78 PUSH2 0x1460 JUMP JUMPDEST JUMPDEST PUSH2 0xD85 DUP5 DUP3 DUP6 ADD PUSH2 0xCD5 JUMP JUMPDEST SWAP2 POP POP SWAP3 SWAP2 POP POP JUMP JUMPDEST PUSH1 0x0 PUSH1 0x20 DUP3 DUP5 SUB SLT ISZERO PUSH2 0xDA4 JUMPI PUSH2 0xDA3 PUSH2 0x1465 JUMP JUMPDEST JUMPDEST PUSH1 0x0 PUSH2 0xDB2 DUP5 DUP3 DUP6 ADD PUSH2 0xD03 JUMP JUMPDEST SWAP2 POP POP SWAP3 SWAP2 POP POP JUMP JUMPDEST PUSH1 0x0 DUP1 PUSH1 0x40 DUP4 DUP6 SUB SLT ISZERO PUSH2 0xDD2 JUMPI PUSH2 0xDD1 PUSH2 0x1465 JUMP JUMPDEST JUMPDEST PUSH1 0x0 PUSH2 0xDE0 DUP6 DUP3 DUP7 ADD PUSH2 0xD03 JUMP JUMPDEST SWAP3 POP POP PUSH1 0x20 PUSH2 0xDF1 DUP6 DUP3 DUP7 ADD PUSH2 0xCAB JUMP JUMPDEST SWAP2 POP POP SWAP3 POP SWAP3 SWAP1 POP JUMP JUMPDEST PUSH2 0xE0C PUSH2 0xE07 DUP3 PUSH2 0x119D JUMP JUMPDEST PUSH2 0x12DD JUMP JUMPDEST DUP3 MSTORE POP POP JUMP JUMPDEST PUSH1 0x0 PUSH2 0xE1D DUP3 PUSH2 0x10EC JUMP JUMPDEST PUSH2 0xE27 DUP2 DUP6 PUSH2 0x10F7 JUMP JUMPDEST SWAP4 POP PUSH2 0xE37 DUP2 DUP6 PUSH1 0x20 DUP7 ADD PUSH2 0x11FE JUMP JUMPDEST DUP1 DUP5 ADD SWAP2 POP POP SWAP3 SWAP2 POP POP JUMP JUMPDEST PUSH1 0x0 PUSH2 0xE50 PUSH1 0x11 DUP4 PUSH2 0x1102 JUMP JUMPDEST SWAP2 POP PUSH2 0xE5B DUP3 PUSH2 0x1488 JUMP JUMPDEST PUSH1 0x20 DUP3 ADD SWAP1 POP SWAP2 SWAP1 POP JUMP JUMPDEST PUSH1 0x0 PUSH2 0xE73 PUSH1 0x12 DUP4 PUSH2 0x1102 JUMP JUMPDEST SWAP2 POP PUSH2 0xE7E DUP3 PUSH2 0x14B1 JUMP JUMPDEST PUSH1 0x20 DUP3 ADD SWAP1 POP SWAP2 SWAP1 POP JUMP JUMPDEST PUSH1 0x0 PUSH2 0xE96 PUSH1 0x28 DUP4 PUSH2 0x1102 JUMP JUMPDEST SWAP2 POP PUSH2 0xEA1 DUP3 PUSH2 0x14DA JUMP JUMPDEST PUSH1 0x40 DUP3 ADD SWAP1 POP SWAP2 SWAP1 POP JUMP JUMPDEST PUSH1 0x0 PUSH2 0xEB9 PUSH1 0xE DUP4 PUSH2 0x1102 JUMP JUMPDEST SWAP2 POP PUSH2 0xEC4 DUP3 PUSH2 0x1529 JUMP JUMPDEST PUSH1 0x20 DUP3 ADD SWAP1 POP SWAP2 SWAP1 POP JUMP JUMPDEST PUSH1 0x0 PUSH2 0xEDC PUSH1 0x21 DUP4 PUSH2 0x1102 JUMP JUMPDEST SWAP2 POP PUSH2 0xEE7 DUP3 PUSH2 0x1552 JUMP JUMPDEST PUSH1 0x40 DUP3 ADD SWAP1 POP SWAP2 SWAP1 POP JUMP JUMPDEST PUSH1 0x0 PUSH2 0xEFF PUSH1 0x1E DUP4 PUSH2 0x1102 JUMP JUMPDEST SWAP2 POP PUSH2 0xF0A DUP3 PUSH2 0x15A1 JUMP JUMPDEST PUSH1 0x20 DUP3 ADD SWAP1 POP SWAP2 SWAP1 POP JUMP JUMPDEST PUSH2 0xF1E DUP2 PUSH2 0x11E5 JUMP JUMPDEST DUP3 MSTORE POP POP JUMP JUMPDEST PUSH2 0xF35 PUSH2 0xF30 DUP3 PUSH2 0x11E5 JUMP JUMPDEST PUSH2 0x1301 JUMP JUMPDEST DUP3 MSTORE POP POP JUMP JUMPDEST PUSH1 0x0 PUSH2 0xF47 DUP3 DUP5 PUSH2 0xE12 JUMP JUMPDEST SWAP2 POP DUP2 SWAP1 POP SWAP3 SWAP2 POP POP JUMP JUMPDEST PUSH1 0x0 PUSH2 0xF5E DUP3 DUP5 PUSH2 0xF24 JUMP JUMPDEST PUSH1 0x20 DUP3 ADD SWAP2 POP DUP2 SWAP1 POP SWAP3 SWAP2 POP POP JUMP JUMPDEST PUSH1 0x0 PUSH2 0xF79 DUP3 DUP8 PUSH2 0xF24 JUMP JUMPDEST PUSH1 0x20 DUP3 ADD SWAP2 POP PUSH2 0xF89 DUP3 DUP7 PUSH2 0xF24 JUMP JUMPDEST PUSH1 0x20 DUP3 ADD SWAP2 POP PUSH2 0xF99 DUP3 DUP6 PUSH2 0xDFB JUMP JUMPDEST PUSH1 0x14 DUP3 ADD SWAP2 POP PUSH2 0xFA9 DUP3 DUP5 PUSH2 0xF24 JUMP JUMPDEST PUSH1 0x20 DUP3 ADD SWAP2 POP DUP2 SWAP1 POP SWAP6 SWAP5 POP POP POP POP POP JUMP JUMPDEST PUSH1 0x0 PUSH1 0x20 DUP3 ADD SWAP1 POP DUP2 DUP2 SUB PUSH1 0x0 DUP4 ADD MSTORE PUSH2 0xFD4 DUP2 PUSH2 0xE43 JUMP JUMPDEST SWAP1 POP SWAP2 SWAP1 POP JUMP JUMPDEST PUSH1 0x0 PUSH1 0x20 DUP3 ADD SWAP1 POP DUP2 DUP2 SUB PUSH1 0x0 DUP4 ADD MSTORE PUSH2 0xFF4 DUP2 PUSH2 0xE66 JUMP JUMPDEST SWAP1 POP SWAP2 SWAP1 POP JUMP JUMPDEST PUSH1 0x0 PUSH1 0x20 DUP3 ADD SWAP1 POP DUP2 DUP2 SUB PUSH1 0x0 DUP4 ADD MSTORE PUSH2 0x1014 DUP2 PUSH2 0xE89 JUMP JUMPDEST SWAP1 POP SWAP2 SWAP1 POP JUMP JUMPDEST PUSH1 0x0 PUSH1 0x20 DUP3 ADD SWAP1 POP DUP2 DUP2 SUB PUSH1 0x0 DUP4 ADD MSTORE PUSH2 0x1034 DUP2 PUSH2 0xEAC JUMP JUMPDEST SWAP1 POP SWAP2 SWAP1 POP JUMP JUMPDEST PUSH1 0x0 PUSH1 0x20 DUP3 ADD SWAP1 POP DUP2 DUP2 SUB PUSH1 0x0 DUP4 ADD MSTORE PUSH2 0x1054 DUP2 PUSH2 0xECF JUMP JUMPDEST SWAP1 POP SWAP2 SWAP1 POP JUMP JUMPDEST PUSH1 0x0 PUSH1 0x20 DUP3 ADD SWAP1 POP DUP2 DUP2 SUB PUSH1 0x0 DUP4 ADD MSTORE PUSH2 0x1074 DUP2 PUSH2 0xEF2 JUMP JUMPDEST SWAP1 POP SWAP2 SWAP1 POP JUMP JUMPDEST PUSH1 0x0 PUSH1 0x20 DUP3 ADD SWAP1 POP PUSH2 0x1090 PUSH1 0x0 DUP4 ADD DUP5 PUSH2 0xF15 JUMP JUMPDEST SWAP3 SWAP2 POP POP JUMP JUMPDEST PUSH1 0x0 PUSH2 0x10A0 PUSH2 0x10B1 JUMP JUMPDEST SWAP1 POP PUSH2 0x10AC DUP3 DUP3 PUSH2 0x1263 JUMP JUMPDEST SWAP2 SWAP1 POP JUMP JUMPDEST PUSH1 0x0 PUSH1 0x40 MLOAD SWAP1 POP SWAP1 JUMP JUMPDEST PUSH1 0x0 PUSH8 0xFFFFFFFFFFFFFFFF DUP3 GT ISZERO PUSH2 0x10D6 JUMPI PUSH2 0x10D5 PUSH2 0x1427 JUMP JUMPDEST JUMPDEST PUSH2 0x10DF DUP3 PUSH2 0x146A JUMP JUMPDEST SWAP1 POP PUSH1 0x20 DUP2 ADD SWAP1 POP SWAP2 SWAP1 POP JUMP JUMPDEST PUSH1 0x0 DUP2 MLOAD SWAP1 POP SWAP2 SWAP1 POP JUMP JUMPDEST PUSH1 0x0 DUP2 SWAP1 POP SWAP3 SWAP2 POP POP JUMP JUMPDEST PUSH1 0x0 DUP3 DUP3 MSTORE PUSH1 0x20 DUP3 ADD SWAP1 POP SWAP3 SWAP2 POP POP JUMP JUMPDEST PUSH1 0x0 PUSH2 0x111E DUP3 PUSH2 0x11E5 JUMP JUMPDEST SWAP2 POP PUSH2 0x1129 DUP4 PUSH2 0x11E5 JUMP JUMPDEST SWAP3 POP DUP3 PUSH32 0xFFFFFFFFFFFFFFFFFFFFFFFFFFFFFFFFFFFFFFFFFFFFFFFFFFFFFFFFFFFFFFFF SUB DUP3 GT ISZERO PUSH2 0x115E JUMPI PUSH2 0x115D PUSH2 0x133C JUMP JUMPDEST JUMPDEST DUP3 DUP3 ADD SWAP1 POP SWAP3 SWAP2 POP POP JUMP JUMPDEST PUSH1 0x0 PUSH2 0x1174 DUP3 PUSH2 0x11E5 JUMP JUMPDEST SWAP2 POP PUSH2 0x117F DUP4 PUSH2 0x11E5 JUMP JUMPDEST SWAP3 POP DUP3 DUP3 LT ISZERO PUSH2 0x1192 JUMPI PUSH2 0x1191 PUSH2 0x133C JUMP JUMPDEST JUMPDEST DUP3 DUP3 SUB SWAP1 POP SWAP3 SWAP2 POP POP JUMP JUMPDEST PUSH1 0x0 PUSH2 0x11A8 DUP3 PUSH2 0x11C5 JUMP JUMPDEST SWAP1 POP SWAP2 SWAP1 POP JUMP JUMPDEST PUSH1 0x0 DUP2 ISZERO ISZERO SWAP1 POP SWAP2 SWAP1 POP JUMP JUMPDEST PUSH1 0x0 DUP2 SWAP1 POP SWAP2 SWAP1 POP JUMP JUMPDEST PUSH1 0x0 PUSH20 0xFFFFFFFFFFFFFFFFFFFFFFFFFFFFFFFFFFFFFFFF DUP3 AND SWAP1 POP SWAP2 SWAP1 POP JUMP JUMPDEST PUSH1 0x0 DUP2 SWAP1 POP SWAP2 SWAP1 POP JUMP JUMPDEST DUP3 DUP2 DUP4 CALLDATACOPY PUSH1 0x0 DUP4 DUP4 ADD MSTORE POP POP POP JUMP JUMPDEST PUSH1 0x0 JUMPDEST DUP4 DUP2 LT ISZERO PUSH2 0x121C JUMPI DUP1 DUP3 ADD MLOAD DUP2 DUP5 ADD MSTORE PUSH1 0x20 DUP2 ADD SWAP1 POP PUSH2 0x1201 JUMP JUMPDEST DUP4 DUP2 GT ISZERO PUSH2 0x122B JUMPI PUSH1 0x0 DUP5 DUP5 ADD MSTORE JUMPDEST POP POP POP POP JUMP JUMPDEST PUSH1 0x0 PUSH1 0x2 DUP3 DIV SWAP1 POP PUSH1 0x1 DUP3 AND DUP1 PUSH2 0x1249 JUMPI PUSH1 0x7F DUP3 AND SWAP2 POP JUMPDEST PUSH1 0x20 DUP3 LT DUP2 EQ ISZERO PUSH2 0x125D JUMPI PUSH2 0x125C PUSH2 0x139A JUMP JUMPDEST JUMPDEST POP SWAP2 SWAP1 POP JUMP JUMPDEST PUSH2 0x126C DUP3 PUSH2 0x146A JUMP JUMPDEST DUP2 ADD DUP2 DUP2 LT PUSH8 0xFFFFFFFFFFFFFFFF DUP3 GT OR ISZERO PUSH2 0x128B JUMPI PUSH2 0x128A PUSH2 0x1427 JUMP JUMPDEST JUMPDEST DUP1 PUSH1 0x40 MSTORE POP POP POP JUMP JUMPDEST PUSH1 0x0 PUSH2 0x129F DUP3 PUSH2 0x11E5 JUMP JUMPDEST SWAP2 POP PUSH32 0xFFFFFFFFFFFFFFFFFFFFFFFFFFFFFFFFFFFFFFFFFFFFFFFFFFFFFFFFFFFFFFFF DUP3 EQ ISZERO PUSH2 0x12D2 JUMPI PUSH2 0x12D1 PUSH2 0x133C JUMP JUMPDEST JUMPDEST PUSH1 0x1 DUP3 ADD SWAP1 POP SWAP2 SWAP1 POP JUMP JUMPDEST PUSH1 0x0 PUSH2 0x12E8 DUP3 PUSH2 0x12EF JUMP JUMPDEST SWAP1 POP SWAP2 SWAP1 POP JUMP JUMPDEST PUSH1 0x0 PUSH2 0x12FA DUP3 PUSH2 0x147B JUMP JUMPDEST SWAP1 POP SWAP2 SWAP1 POP JUMP JUMPDEST PUSH1 0x0 DUP2 SWAP1 POP SWAP2 SWAP1 POP JUMP JUMPDEST PUSH1 0x0 PUSH2 0x1316 DUP3 PUSH2 0x11E5 JUMP JUMPDEST SWAP2 POP PUSH2 0x1321 DUP4 PUSH2 0x11E5 JUMP JUMPDEST SWAP3 POP DUP3 PUSH2 0x1331 JUMPI PUSH2 0x1330 PUSH2 0x136B JUMP JUMPDEST JUMPDEST DUP3 DUP3 MOD SWAP1 POP SWAP3 SWAP2 POP POP JUMP JUMPDEST PUSH32 0x4E487B7100000000000000000000000000000000000000000000000000000000 PUSH1 0x0 MSTORE PUSH1 0x11 PUSH1 0x4 MSTORE PUSH1 0x24 PUSH1 0x0 REVERT JUMPDEST PUSH32 0x4E487B7100000000000000000000000000000000000000000000000000000000 PUSH1 0x0 MSTORE PUSH1 0x12 PUSH1 0x4 MSTORE PUSH1 0x24 PUSH1 0x0 REVERT JUMPDEST PUSH32 0x4E487B7100000000000000000000000000000000000000000000000000000000 PUSH1 0x0 MSTORE PUSH1 0x22 PUSH1 0x4 MSTORE PUSH1 0x24 PUSH1 0x0 REVERT JUMPDEST PUSH32 0x4E487B7100000000000000000000000000000000000000000000000000000000 PUSH1 0x0 MSTORE PUSH1 0x31 PUSH1 0x4 MSTORE PUSH1 0x24 PUSH1 0x0 REVERT JUMPDEST PUSH32 0x4E487B7100000000000000000000000000000000000000000000000000000000 PUSH1 0x0 MSTORE PUSH1 0x32 PUSH1 0x4 MSTORE PUSH1 0x24 PUSH1 0x0 REVERT JUMPDEST PUSH32 0x4E487B7100000000000000000000000000000000000000000000000000000000 PUSH1 0x0 MSTORE PUSH1 0x41 PUSH1 0x4 MSTORE PUSH1 0x24 PUSH1 0x0 REVERT JUMPDEST PUSH1 0x0 DUP1 REVERT JUMPDEST PUSH1 0x0 DUP1 REVERT JUMPDEST PUSH1 0x0 DUP1 REVERT JUMPDEST PUSH1 0x0 DUP1 REVERT JUMPDEST PUSH1 0x0 PUSH1 0x1F NOT PUSH1 0x1F DUP4 ADD AND SWAP1 POP SWAP2 SWAP1 POP JUMP JUMPDEST PUSH1 0x0 DUP2 PUSH1 0x60 SHL SWAP1 POP SWAP2 SWAP1 POP JUMP JUMPDEST PUSH32 0x566F74696E672068617320636C6F736564000000000000000000000000000000 PUSH1 0x0 DUP3 ADD MSTORE POP JUMP JUMPDEST PUSH32 0x416C7265616479207369676E6564207570210000000000000000000000000000 PUSH1 0x0 DUP3 ADD MSTORE POP JUMP JUMPDEST PUSH32 0x5369676E2D75702072656A65637465642120496E616465717561746520737461 PUSH1 0x0 DUP3 ADD MSTORE PUSH32 0x6B652076616C7565000000000000000000000000000000000000000000000000 PUSH1 0x20 DUP3 ADD MSTORE POP JUMP JUMPDEST PUSH32 0x4E6F74207369676E656420757021000000000000000000000000000000000000 PUSH1 0x0 DUP3 ADD MSTORE POP JUMP JUMPDEST PUSH32 0x4E6F7420612076616C696461746F7220666F7220746869732072657175657374 PUSH1 0x0 DUP3 ADD MSTORE PUSH32 0x2100000000000000000000000000000000000000000000000000000000000000 PUSH1 0x20 DUP3 ADD MSTORE POP JUMP JUMPDEST PUSH32 0x494420646F65736E2774206D6174636820796F75722061646472657373210000 PUSH1 0x0 DUP3 ADD MSTORE POP JUMP JUMPDEST PUSH2 0x15D3 DUP2 PUSH2 0x11AF JUMP JUMPDEST DUP2 EQ PUSH2 0x15DE JUMPI PUSH1 0x0 DUP1 REVERT JUMPDEST POP JUMP JUMPDEST PUSH2 0x15EA DUP2 PUSH2 0x11BB JUMP JUMPDEST DUP2 EQ PUSH2 0x15F5 JUMPI PUSH1 0x0 DUP1 REVERT JUMPDEST POP JUMP JUMPDEST PUSH2 0x1601 DUP2 PUSH2 0x11E5 JUMP JUMPDEST DUP2 EQ PUSH2 0x160C JUMPI PUSH1 0x0 DUP1 REVERT JUMPDEST POP JUMP INVALID LOG2 PUSH5 0x6970667358 0x22 SLT KECCAK256 SWAP6 SWAP2 0xC3 SWAP10 DELEGATECALL 0xC6 0xCA JUMPI SWAP14 PC MSTORE 0xA7 DUP16 0xDF 0xA7 SWAP16 0xB7 0xBD 0xC2 CODECOPY MSIZE MSIZE NOT SWAP7 CALLER PUSH2 0x7405 PUSH28 0xF58B8C64736F6C634300080700330000000000000000000000000000 "
				},
				"gasEstimates": {
					"creation": {
						"codeDepositCost": "1140200",
						"executionCost": "1187",
						"totalCost": "1141387"
					},
					"external": {
						"cancel_signup(uint256)": "infinite",
						"request_verification(string)": "infinite",
						"sign_up()": "infinite",
						"vote(uint256,bool)": "infinite"
					},
					"internal": {
						"chooseValidators(uint256)": "infinite"
					}
				},
				"methodIdentifiers": {
					"cancel_signup(uint256)": "f5c7996c",
					"request_verification(string)": "969b1567",
					"sign_up()": "c4fb3337",
					"vote(uint256,bool)": "c9d27afe"
				}
			},
			"userdoc": {
				"kind": "user",
				"methods": {},
				"version": 1
			}
		}
	}
}