{
	"Desktop/EthCA/blockchain/EthCA.sol": {
		"EthCA": {
			"abi": [
				{
					"inputs": [
						{
							"internalType": "uint256",
							"name": "id",
							"type": "uint256"
						}
					],
					"name": "cancel_signup",
					"outputs": [],
					"stateMutability": "nonpayable",
					"type": "function"
				},
				{
					"inputs": [
						{
							"internalType": "uint256",
							"name": "requestID",
							"type": "uint256"
						}
					],
					"name": "endVerification",
					"outputs": [],
					"stateMutability": "nonpayable",
					"type": "function"
				},
				{
					"inputs": [
						{
							"internalType": "bytes[]",
							"name": "publicKey",
							"type": "bytes[]"
						},
						{
							"internalType": "string",
							"name": "domain",
							"type": "string"
						}
					],
					"name": "issueCertificate",
					"outputs": [],
					"stateMutability": "nonpayable",
					"type": "function"
				},
				{
					"inputs": [
						{
							"internalType": "string",
							"name": "domain",
							"type": "string"
						}
					],
					"name": "request_verification",
					"outputs": [
						{
							"internalType": "uint256",
							"name": "",
							"type": "uint256"
						}
					],
					"stateMutability": "payable",
					"type": "function"
				},
				{
					"inputs": [],
					"name": "sign_up",
					"outputs": [
						{
							"internalType": "uint256",
							"name": "",
							"type": "uint256"
						}
					],
					"stateMutability": "payable",
					"type": "function"
				},
				{
					"inputs": [
						{
							"internalType": "uint256",
							"name": "requestID",
							"type": "uint256"
						},
						{
							"internalType": "bool",
							"name": "voteIn",
							"type": "bool"
						}
					],
					"name": "vote",
					"outputs": [],
					"stateMutability": "nonpayable",
					"type": "function"
				}
			],
			"devdoc": {
				"kind": "dev",
				"methods": {},
				"version": 1
			},
			"evm": {
				"assembly": "    /* \"Desktop/EthCA/blockchain/EthCA.sol\":240:6817  contract EthCA {... */\n  mstore(0x40, 0x80)\n  callvalue\n  dup1\n  iszero\n  tag_1\n  jumpi\n  0x00\n  dup1\n  revert\ntag_1:\n  pop\n  dataSize(sub_0)\n  dup1\n  dataOffset(sub_0)\n  0x00\n  codecopy\n  0x00\n  return\nstop\n\nsub_0: assembly {\n        /* \"Desktop/EthCA/blockchain/EthCA.sol\":240:6817  contract EthCA {... */\n      mstore(0x40, 0x80)\n      jumpi(tag_1, lt(calldatasize, 0x04))\n      shr(0xe0, calldataload(0x00))\n      dup1\n      0x288f0938\n      eq\n      tag_2\n      jumpi\n      dup1\n      0x969b1567\n      eq\n      tag_3\n      jumpi\n      dup1\n      0xc4fb3337\n      eq\n      tag_4\n      jumpi\n      dup1\n      0xc9d27afe\n      eq\n      tag_5\n      jumpi\n      dup1\n      0xd78b0dac\n      eq\n      tag_6\n      jumpi\n      dup1\n      0xf5c7996c\n      eq\n      tag_7\n      jumpi\n    tag_1:\n      0x00\n      dup1\n      revert\n        /* \"Desktop/EthCA/blockchain/EthCA.sol\":5104:6599  function endVerification(uint requestID) public {... */\n    tag_2:\n      callvalue\n      dup1\n      iszero\n      tag_8\n      jumpi\n      0x00\n      dup1\n      revert\n    tag_8:\n      pop\n      tag_9\n      0x04\n      dup1\n      calldatasize\n      sub\n      dup2\n      add\n      swap1\n      tag_10\n      swap2\n      swap1\n      tag_11\n      jump\t// in\n    tag_10:\n      tag_12\n      jump\t// in\n    tag_9:\n      stop\n        /* \"Desktop/EthCA/blockchain/EthCA.sol\":2184:2819  function request_verification(string memory domain) public payable returns (uint) {... */\n    tag_3:\n      tag_13\n      0x04\n      dup1\n      calldatasize\n      sub\n      dup2\n      add\n      swap1\n      tag_14\n      swap2\n      swap1\n      tag_15\n      jump\t// in\n    tag_14:\n      tag_16\n      jump\t// in\n    tag_13:\n      mload(0x40)\n      tag_17\n      swap2\n      swap1\n      tag_18\n      jump\t// in\n    tag_17:\n      mload(0x40)\n      dup1\n      swap2\n      sub\n      swap1\n      return\n        /* \"Desktop/EthCA/blockchain/EthCA.sol\":2824:3261  function sign_up() public payable returns (uint) {... */\n    tag_4:\n      tag_19\n      tag_20\n      jump\t// in\n    tag_19:\n      mload(0x40)\n      tag_21\n      swap2\n      swap1\n      tag_18\n      jump\t// in\n    tag_21:\n      mload(0x40)\n      dup1\n      swap2\n      sub\n      swap1\n      return\n        /* \"Desktop/EthCA/blockchain/EthCA.sol\":3741:4960  function vote(uint requestID, bool voteIn) public {... */\n    tag_5:\n      callvalue\n      dup1\n      iszero\n      tag_22\n      jumpi\n      0x00\n      dup1\n      revert\n    tag_22:\n      pop\n      tag_23\n      0x04\n      dup1\n      calldatasize\n      sub\n      dup2\n      add\n      swap1\n      tag_24\n      swap2\n      swap1\n      tag_25\n      jump\t// in\n    tag_24:\n      tag_26\n      jump\t// in\n    tag_23:\n      stop\n        /* \"Desktop/EthCA/blockchain/EthCA.sol\":6718:6815  function issueCertificate(bytes[] memory publicKey, string memory domain) public {... */\n    tag_6:\n      callvalue\n      dup1\n      iszero\n      tag_27\n      jumpi\n      0x00\n      dup1\n      revert\n    tag_27:\n      pop\n      tag_28\n      0x04\n      dup1\n      calldatasize\n      sub\n      dup2\n      add\n      swap1\n      tag_29\n      swap2\n      swap1\n      tag_30\n      jump\t// in\n    tag_29:\n      tag_31\n      jump\t// in\n    tag_28:\n      stop\n        /* \"Desktop/EthCA/blockchain/EthCA.sol\":3348:3665  function cancel_signup(uint id) public {... */\n    tag_7:\n      callvalue\n      dup1\n      iszero\n      tag_32\n      jumpi\n      0x00\n      dup1\n      revert\n    tag_32:\n      pop\n      tag_33\n      0x04\n      dup1\n      calldatasize\n      sub\n      dup2\n      add\n      swap1\n      tag_34\n      swap2\n      swap1\n      tag_11\n      jump\t// in\n    tag_34:\n      tag_35\n      jump\t// in\n    tag_33:\n      stop\n        /* \"Desktop/EthCA/blockchain/EthCA.sol\":5104:6599  function endVerification(uint requestID) public {... */\n    tag_12:\n        /* \"Desktop/EthCA/blockchain/EthCA.sol\":5340:5344  true */\n      0x01\n        /* \"Desktop/EthCA/blockchain/EthCA.sol\":5294:5344  requests[requestID].validators[msg.sender] == true */\n      iszero\n      iszero\n        /* \"Desktop/EthCA/blockchain/EthCA.sol\":5294:5302  requests */\n      0x02\n        /* \"Desktop/EthCA/blockchain/EthCA.sol\":5303:5312  requestID */\n      dup3\n        /* \"Desktop/EthCA/blockchain/EthCA.sol\":5294:5313  requests[requestID] */\n      dup2\n      sload\n      dup2\n      lt\n      tag_37\n      jumpi\n      tag_38\n      tag_39\n      jump\t// in\n    tag_38:\n    tag_37:\n      swap1\n      0x00\n      mstore\n      keccak256(0x00, 0x20)\n      swap1\n      0x46\n      mul\n      add\n        /* \"Desktop/EthCA/blockchain/EthCA.sol\":5294:5324  requests[requestID].validators */\n      0x02\n      add\n        /* \"Desktop/EthCA/blockchain/EthCA.sol\":5294:5336  requests[requestID].validators[msg.sender] */\n      0x00\n        /* \"Desktop/EthCA/blockchain/EthCA.sol\":5325:5335  msg.sender */\n      caller\n        /* \"Desktop/EthCA/blockchain/EthCA.sol\":5294:5336  requests[requestID].validators[msg.sender] */\n      0xffffffffffffffffffffffffffffffffffffffff\n      and\n      0xffffffffffffffffffffffffffffffffffffffff\n      and\n      dup2\n      mstore\n      0x20\n      add\n      swap1\n      dup2\n      mstore\n      0x20\n      add\n      0x00\n      keccak256\n      0x00\n      swap1\n      sload\n      swap1\n      0x0100\n      exp\n      swap1\n      div\n      0xff\n      and\n        /* \"Desktop/EthCA/blockchain/EthCA.sol\":5294:5344  requests[requestID].validators[msg.sender] == true */\n      iszero\n      iszero\n      eq\n        /* \"Desktop/EthCA/blockchain/EthCA.sol\":5294:5388  requests[requestID].validators[msg.sender] == true || requests[requestID].sender == msg.sender */\n      dup1\n      tag_41\n      jumpi\n      pop\n        /* \"Desktop/EthCA/blockchain/EthCA.sol\":5378:5388  msg.sender */\n      caller\n        /* \"Desktop/EthCA/blockchain/EthCA.sol\":5348:5388  requests[requestID].sender == msg.sender */\n      0xffffffffffffffffffffffffffffffffffffffff\n      and\n        /* \"Desktop/EthCA/blockchain/EthCA.sol\":5348:5356  requests */\n      0x02\n        /* \"Desktop/EthCA/blockchain/EthCA.sol\":5357:5366  requestID */\n      dup3\n        /* \"Desktop/EthCA/blockchain/EthCA.sol\":5348:5367  requests[requestID] */\n      dup2\n      sload\n      dup2\n      lt\n      tag_42\n      jumpi\n      tag_43\n      tag_39\n      jump\t// in\n    tag_43:\n    tag_42:\n      swap1\n      0x00\n      mstore\n      keccak256(0x00, 0x20)\n      swap1\n      0x46\n      mul\n      add\n        /* \"Desktop/EthCA/blockchain/EthCA.sol\":5348:5374  requests[requestID].sender */\n      0x40\n      add\n      0x00\n      swap1\n      sload\n      swap1\n      0x0100\n      exp\n      swap1\n      div\n      0xffffffffffffffffffffffffffffffffffffffff\n      and\n        /* \"Desktop/EthCA/blockchain/EthCA.sol\":5348:5388  requests[requestID].sender == msg.sender */\n      0xffffffffffffffffffffffffffffffffffffffff\n      and\n      eq\n        /* \"Desktop/EthCA/blockchain/EthCA.sol\":5294:5388  requests[requestID].validators[msg.sender] == true || requests[requestID].sender == msg.sender */\n    tag_41:\n        /* \"Desktop/EthCA/blockchain/EthCA.sol\":5286:5433  require(requests[requestID].validators[msg.sender] == true || requests[requestID].sender == msg.sender, \"Not authorized to end this verification!\") */\n      tag_45\n      jumpi\n      mload(0x40)\n      0x08c379a000000000000000000000000000000000000000000000000000000000\n      dup2\n      mstore\n      0x04\n      add\n      tag_46\n      swap1\n      tag_47\n      jump\t// in\n    tag_46:\n      mload(0x40)\n      dup1\n      swap2\n      sub\n      swap1\n      revert\n    tag_45:\n        /* \"Desktop/EthCA/blockchain/EthCA.sol\":5466:5474  requests */\n      0x02\n        /* \"Desktop/EthCA/blockchain/EthCA.sol\":5475:5484  requestID */\n      dup2\n        /* \"Desktop/EthCA/blockchain/EthCA.sol\":5466:5485  requests[requestID] */\n      dup2\n      sload\n      dup2\n      lt\n      tag_48\n      jumpi\n      tag_49\n      tag_39\n      jump\t// in\n    tag_49:\n    tag_48:\n      swap1\n      0x00\n      mstore\n      keccak256(0x00, 0x20)\n      swap1\n      0x46\n      mul\n      add\n        /* \"Desktop/EthCA/blockchain/EthCA.sol\":5466:5494  requests[requestID].deadline */\n      0x45\n      add\n      sload\n        /* \"Desktop/EthCA/blockchain/EthCA.sol\":5451:5463  block.number */\n      number\n        /* \"Desktop/EthCA/blockchain/EthCA.sol\":5451:5494  block.number > requests[requestID].deadline */\n      gt\n        /* \"Desktop/EthCA/blockchain/EthCA.sol\":5443:5523  require(block.number > requests[requestID].deadline, \"Deadline not yet passed!\") */\n      tag_51\n      jumpi\n      mload(0x40)\n      0x08c379a000000000000000000000000000000000000000000000000000000000\n      dup2\n      mstore\n      0x04\n      add\n      tag_52\n      swap1\n      tag_53\n      jump\t// in\n    tag_52:\n      mload(0x40)\n      dup1\n      swap2\n      sub\n      swap1\n      revert\n    tag_51:\n        /* \"Desktop/EthCA/blockchain/EthCA.sol\":706:707  8 */\n      0x08\n        /* \"Desktop/EthCA/blockchain/EthCA.sol\":5567:5575  requests */\n      0x02\n        /* \"Desktop/EthCA/blockchain/EthCA.sol\":5576:5585  requestID */\n      dup3\n        /* \"Desktop/EthCA/blockchain/EthCA.sol\":5567:5586  requests[requestID] */\n      dup2\n      sload\n      dup2\n      lt\n      tag_54\n      jumpi\n      tag_55\n      tag_39\n      jump\t// in\n    tag_55:\n    tag_54:\n      swap1\n      0x00\n      mstore\n      keccak256(0x00, 0x20)\n      swap1\n      0x46\n      mul\n      add\n        /* \"Desktop/EthCA/blockchain/EthCA.sol\":5567:5594  requests[requestID].noVotes */\n      0x44\n      add\n      sload\n        /* \"Desktop/EthCA/blockchain/EthCA.sol\":5536:5544  requests */\n      0x02\n        /* \"Desktop/EthCA/blockchain/EthCA.sol\":5545:5554  requestID */\n      dup4\n        /* \"Desktop/EthCA/blockchain/EthCA.sol\":5536:5555  requests[requestID] */\n      dup2\n      sload\n      dup2\n      lt\n      tag_57\n      jumpi\n      tag_58\n      tag_39\n      jump\t// in\n    tag_58:\n    tag_57:\n      swap1\n      0x00\n      mstore\n      keccak256(0x00, 0x20)\n      swap1\n      0x46\n      mul\n      add\n        /* \"Desktop/EthCA/blockchain/EthCA.sol\":5536:5564  requests[requestID].yesVotes */\n      0x43\n      add\n      sload\n        /* \"Desktop/EthCA/blockchain/EthCA.sol\":5536:5594  requests[requestID].yesVotes + requests[requestID].noVotes */\n      tag_60\n      swap2\n      swap1\n      tag_61\n      jump\t// in\n    tag_60:\n        /* \"Desktop/EthCA/blockchain/EthCA.sol\":5536:5604  requests[requestID].yesVotes + requests[requestID].noVotes >= quorum */\n      lt\n        /* \"Desktop/EthCA/blockchain/EthCA.sol\":5533:6547  if(requests[requestID].yesVotes + requests[requestID].noVotes >= quorum) {... */\n      tag_62\n      jumpi\n        /* \"Desktop/EthCA/blockchain/EthCA.sol\":5654:5662  requests */\n      0x02\n        /* \"Desktop/EthCA/blockchain/EthCA.sol\":5663:5672  requestID */\n      dup2\n        /* \"Desktop/EthCA/blockchain/EthCA.sol\":5654:5673  requests[requestID] */\n      dup2\n      sload\n      dup2\n      lt\n      tag_63\n      jumpi\n      tag_64\n      tag_39\n      jump\t// in\n    tag_64:\n    tag_63:\n      swap1\n      0x00\n      mstore\n      keccak256(0x00, 0x20)\n      swap1\n      0x46\n      mul\n      add\n        /* \"Desktop/EthCA/blockchain/EthCA.sol\":5654:5681  requests[requestID].noVotes */\n      0x44\n      add\n      sload\n        /* \"Desktop/EthCA/blockchain/EthCA.sol\":5623:5631  requests */\n      0x02\n        /* \"Desktop/EthCA/blockchain/EthCA.sol\":5632:5641  requestID */\n      dup3\n        /* \"Desktop/EthCA/blockchain/EthCA.sol\":5623:5642  requests[requestID] */\n      dup2\n      sload\n      dup2\n      lt\n      tag_66\n      jumpi\n      tag_67\n      tag_39\n      jump\t// in\n    tag_67:\n    tag_66:\n      swap1\n      0x00\n      mstore\n      keccak256(0x00, 0x20)\n      swap1\n      0x46\n      mul\n      add\n        /* \"Desktop/EthCA/blockchain/EthCA.sol\":5623:5651  requests[requestID].yesVotes */\n      0x43\n      add\n      sload\n        /* \"Desktop/EthCA/blockchain/EthCA.sol\":5623:5681  requests[requestID].yesVotes > requests[requestID].noVotes */\n      gt\n        /* \"Desktop/EthCA/blockchain/EthCA.sol\":5620:6311  if(requests[requestID].yesVotes > requests[requestID].noVotes) {... */\n      iszero\n      tag_69\n      jumpi\n        /* \"Desktop/EthCA/blockchain/EthCA.sol\":5742:5748  uint i */\n      0x00\n        /* \"Desktop/EthCA/blockchain/EthCA.sol\":5738:5912  for(uint i = 0; i < requests[requestID].yesVotes; i++) {... */\n    tag_70:\n        /* \"Desktop/EthCA/blockchain/EthCA.sol\":5758:5766  requests */\n      0x02\n        /* \"Desktop/EthCA/blockchain/EthCA.sol\":5767:5776  requestID */\n      dup3\n        /* \"Desktop/EthCA/blockchain/EthCA.sol\":5758:5777  requests[requestID] */\n      dup2\n      sload\n      dup2\n      lt\n      tag_73\n      jumpi\n      tag_74\n      tag_39\n      jump\t// in\n    tag_74:\n    tag_73:\n      swap1\n      0x00\n      mstore\n      keccak256(0x00, 0x20)\n      swap1\n      0x46\n      mul\n      add\n        /* \"Desktop/EthCA/blockchain/EthCA.sol\":5758:5786  requests[requestID].yesVotes */\n      0x43\n      add\n      sload\n        /* \"Desktop/EthCA/blockchain/EthCA.sol\":5754:5755  i */\n      dup2\n        /* \"Desktop/EthCA/blockchain/EthCA.sol\":5754:5786  i < requests[requestID].yesVotes */\n      lt\n        /* \"Desktop/EthCA/blockchain/EthCA.sol\":5738:5912  for(uint i = 0; i < requests[requestID].yesVotes; i++) {... */\n      iszero\n      tag_71\n      jumpi\n        /* \"Desktop/EthCA/blockchain/EthCA.sol\":5815:5823  requests */\n      0x02\n        /* \"Desktop/EthCA/blockchain/EthCA.sol\":5824:5833  requestID */\n      dup3\n        /* \"Desktop/EthCA/blockchain/EthCA.sol\":5815:5834  requests[requestID] */\n      dup2\n      sload\n      dup2\n      lt\n      tag_76\n      jumpi\n      tag_77\n      tag_39\n      jump\t// in\n    tag_77:\n    tag_76:\n      swap1\n      0x00\n      mstore\n      keccak256(0x00, 0x20)\n      swap1\n      0x46\n      mul\n      add\n        /* \"Desktop/EthCA/blockchain/EthCA.sol\":5815:5843  requests[requestID].yesNodes */\n      0x17\n      add\n        /* \"Desktop/EthCA/blockchain/EthCA.sol\":5844:5845  i */\n      dup2\n        /* \"Desktop/EthCA/blockchain/EthCA.sol\":5815:5846  requests[requestID].yesNodes[i] */\n      0x14\n      dup2\n      lt\n      tag_79\n      jumpi\n      tag_80\n      tag_39\n      jump\t// in\n    tag_80:\n    tag_79:\n      add\n      0x00\n      swap1\n      sload\n      swap1\n      0x0100\n      exp\n      swap1\n      div\n      0xffffffffffffffffffffffffffffffffffffffff\n      and\n        /* \"Desktop/EthCA/blockchain/EthCA.sol\":5815:5855  requests[requestID].yesNodes[i].transfer */\n      0xffffffffffffffffffffffffffffffffffffffff\n      and\n        /* \"Desktop/EthCA/blockchain/EthCA.sol\":5815:5893  requests[requestID].yesNodes[i].transfer(1 ether + requests[requestID].reward) */\n      0x08fc\n        /* \"Desktop/EthCA/blockchain/EthCA.sol\":5866:5874  requests */\n      0x02\n        /* \"Desktop/EthCA/blockchain/EthCA.sol\":5875:5884  requestID */\n      dup5\n        /* \"Desktop/EthCA/blockchain/EthCA.sol\":5866:5885  requests[requestID] */\n      dup2\n      sload\n      dup2\n      lt\n      tag_82\n      jumpi\n      tag_83\n      tag_39\n      jump\t// in\n    tag_83:\n    tag_82:\n      swap1\n      0x00\n      mstore\n      keccak256(0x00, 0x20)\n      swap1\n      0x46\n      mul\n      add\n        /* \"Desktop/EthCA/blockchain/EthCA.sol\":5866:5892  requests[requestID].reward */\n      0x41\n      add\n      sload\n        /* \"Desktop/EthCA/blockchain/EthCA.sol\":5856:5863  1 ether */\n      0x0de0b6b3a7640000\n        /* \"Desktop/EthCA/blockchain/EthCA.sol\":5856:5892  1 ether + requests[requestID].reward */\n      tag_85\n      swap2\n      swap1\n      tag_61\n      jump\t// in\n    tag_85:\n        /* \"Desktop/EthCA/blockchain/EthCA.sol\":5815:5893  requests[requestID].yesNodes[i].transfer(1 ether + requests[requestID].reward) */\n      swap1\n      dup2\n      iszero\n      mul\n      swap1\n      mload(0x40)\n      0x00\n      mload(0x40)\n      dup1\n      dup4\n      sub\n      dup2\n      dup6\n      dup9\n      dup9\n      call\n      swap4\n      pop\n      pop\n      pop\n      pop\n      iszero\n      dup1\n      iszero\n      tag_87\n      jumpi\n      returndatasize\n      0x00\n      dup1\n      returndatacopy\n      revert(0x00, returndatasize)\n    tag_87:\n      pop\n        /* \"Desktop/EthCA/blockchain/EthCA.sol\":5788:5791  i++ */\n      dup1\n      dup1\n      tag_88\n      swap1\n      tag_89\n      jump\t// in\n    tag_88:\n      swap2\n      pop\n      pop\n        /* \"Desktop/EthCA/blockchain/EthCA.sol\":5738:5912  for(uint i = 0; i < requests[requestID].yesVotes; i++) {... */\n      jump(tag_70)\n    tag_71:\n      pop\n        /* \"Desktop/EthCA/blockchain/EthCA.sol\":6023:6031  requests */\n      0x02\n        /* \"Desktop/EthCA/blockchain/EthCA.sol\":6032:6041  requestID */\n      dup2\n        /* \"Desktop/EthCA/blockchain/EthCA.sol\":6023:6042  requests[requestID] */\n      dup2\n      sload\n      dup2\n      lt\n      tag_90\n      jumpi\n      tag_91\n      tag_39\n      jump\t// in\n    tag_91:\n    tag_90:\n      swap1\n      0x00\n      mstore\n      keccak256(0x00, 0x20)\n      swap1\n      0x46\n      mul\n      add\n        /* \"Desktop/EthCA/blockchain/EthCA.sol\":6023:6049  requests[requestID].sender */\n      0x40\n      add\n      0x00\n      swap1\n      sload\n      swap1\n      0x0100\n      exp\n      swap1\n      div\n      0xffffffffffffffffffffffffffffffffffffffff\n      and\n        /* \"Desktop/EthCA/blockchain/EthCA.sol\":5984:5992  verified */\n      0x03\n        /* \"Desktop/EthCA/blockchain/EthCA.sol\":5993:6001  requests */\n      0x02\n        /* \"Desktop/EthCA/blockchain/EthCA.sol\":6002:6011  requestID */\n      dup4\n        /* \"Desktop/EthCA/blockchain/EthCA.sol\":5993:6012  requests[requestID] */\n      dup2\n      sload\n      dup2\n      lt\n      tag_93\n      jumpi\n      tag_94\n      tag_39\n      jump\t// in\n    tag_94:\n    tag_93:\n      swap1\n      0x00\n      mstore\n      keccak256(0x00, 0x20)\n      swap1\n      0x46\n      mul\n      add\n        /* \"Desktop/EthCA/blockchain/EthCA.sol\":5993:6019  requests[requestID].domain */\n      0x3f\n      add\n        /* \"Desktop/EthCA/blockchain/EthCA.sol\":5984:6020  verified[requests[requestID].domain] */\n      mload(0x40)\n      tag_96\n      swap2\n      swap1\n      tag_97\n      jump\t// in\n    tag_96:\n      swap1\n      dup2\n      mstore\n      0x20\n      add\n      mload(0x40)\n      dup1\n      swap2\n      sub\n      swap1\n      keccak256\n      0x00\n        /* \"Desktop/EthCA/blockchain/EthCA.sol\":5984:6049  verified[requests[requestID].domain] = requests[requestID].sender */\n      0x0100\n      exp\n      dup2\n      sload\n      dup2\n      0xffffffffffffffffffffffffffffffffffffffff\n      mul\n      not\n      and\n      swap1\n      dup4\n      0xffffffffffffffffffffffffffffffffffffffff\n      and\n      mul\n      or\n      swap1\n      sstore\n      pop\n        /* \"Desktop/EthCA/blockchain/EthCA.sol\":5620:6311  if(requests[requestID].yesVotes > requests[requestID].noVotes) {... */\n      jump(tag_98)\n    tag_69:\n        /* \"Desktop/EthCA/blockchain/EthCA.sol\":6129:6135  uint i */\n      0x00\n        /* \"Desktop/EthCA/blockchain/EthCA.sol\":6125:6297  for(uint i = 0; i < requests[requestID].noVotes; i++) {... */\n    tag_99:\n        /* \"Desktop/EthCA/blockchain/EthCA.sol\":6145:6153  requests */\n      0x02\n        /* \"Desktop/EthCA/blockchain/EthCA.sol\":6154:6163  requestID */\n      dup3\n        /* \"Desktop/EthCA/blockchain/EthCA.sol\":6145:6164  requests[requestID] */\n      dup2\n      sload\n      dup2\n      lt\n      tag_102\n      jumpi\n      tag_103\n      tag_39\n      jump\t// in\n    tag_103:\n    tag_102:\n      swap1\n      0x00\n      mstore\n      keccak256(0x00, 0x20)\n      swap1\n      0x46\n      mul\n      add\n        /* \"Desktop/EthCA/blockchain/EthCA.sol\":6145:6172  requests[requestID].noVotes */\n      0x44\n      add\n      sload\n        /* \"Desktop/EthCA/blockchain/EthCA.sol\":6141:6142  i */\n      dup2\n        /* \"Desktop/EthCA/blockchain/EthCA.sol\":6141:6172  i < requests[requestID].noVotes */\n      lt\n        /* \"Desktop/EthCA/blockchain/EthCA.sol\":6125:6297  for(uint i = 0; i < requests[requestID].noVotes; i++) {... */\n      iszero\n      tag_100\n      jumpi\n        /* \"Desktop/EthCA/blockchain/EthCA.sol\":6201:6209  requests */\n      0x02\n        /* \"Desktop/EthCA/blockchain/EthCA.sol\":6210:6219  requestID */\n      dup3\n        /* \"Desktop/EthCA/blockchain/EthCA.sol\":6201:6220  requests[requestID] */\n      dup2\n      sload\n      dup2\n      lt\n      tag_105\n      jumpi\n      tag_106\n      tag_39\n      jump\t// in\n    tag_106:\n    tag_105:\n      swap1\n      0x00\n      mstore\n      keccak256(0x00, 0x20)\n      swap1\n      0x46\n      mul\n      add\n        /* \"Desktop/EthCA/blockchain/EthCA.sol\":6201:6228  requests[requestID].noNodes */\n      0x2b\n      add\n        /* \"Desktop/EthCA/blockchain/EthCA.sol\":6229:6230  i */\n      dup2\n        /* \"Desktop/EthCA/blockchain/EthCA.sol\":6201:6231  requests[requestID].noNodes[i] */\n      0x14\n      dup2\n      lt\n      tag_108\n      jumpi\n      tag_109\n      tag_39\n      jump\t// in\n    tag_109:\n    tag_108:\n      add\n      0x00\n      swap1\n      sload\n      swap1\n      0x0100\n      exp\n      swap1\n      div\n      0xffffffffffffffffffffffffffffffffffffffff\n      and\n        /* \"Desktop/EthCA/blockchain/EthCA.sol\":6201:6240  requests[requestID].noNodes[i].transfer */\n      0xffffffffffffffffffffffffffffffffffffffff\n      and\n        /* \"Desktop/EthCA/blockchain/EthCA.sol\":6201:6278  requests[requestID].noNodes[i].transfer(1 ether + requests[requestID].reward) */\n      0x08fc\n        /* \"Desktop/EthCA/blockchain/EthCA.sol\":6251:6259  requests */\n      0x02\n        /* \"Desktop/EthCA/blockchain/EthCA.sol\":6260:6269  requestID */\n      dup5\n        /* \"Desktop/EthCA/blockchain/EthCA.sol\":6251:6270  requests[requestID] */\n      dup2\n      sload\n      dup2\n      lt\n      tag_111\n      jumpi\n      tag_112\n      tag_39\n      jump\t// in\n    tag_112:\n    tag_111:\n      swap1\n      0x00\n      mstore\n      keccak256(0x00, 0x20)\n      swap1\n      0x46\n      mul\n      add\n        /* \"Desktop/EthCA/blockchain/EthCA.sol\":6251:6277  requests[requestID].reward */\n      0x41\n      add\n      sload\n        /* \"Desktop/EthCA/blockchain/EthCA.sol\":6241:6248  1 ether */\n      0x0de0b6b3a7640000\n        /* \"Desktop/EthCA/blockchain/EthCA.sol\":6241:6277  1 ether + requests[requestID].reward */\n      tag_114\n      swap2\n      swap1\n      tag_61\n      jump\t// in\n    tag_114:\n        /* \"Desktop/EthCA/blockchain/EthCA.sol\":6201:6278  requests[requestID].noNodes[i].transfer(1 ether + requests[requestID].reward) */\n      swap1\n      dup2\n      iszero\n      mul\n      swap1\n      mload(0x40)\n      0x00\n      mload(0x40)\n      dup1\n      dup4\n      sub\n      dup2\n      dup6\n      dup9\n      dup9\n      call\n      swap4\n      pop\n      pop\n      pop\n      pop\n      iszero\n      dup1\n      iszero\n      tag_116\n      jumpi\n      returndatasize\n      0x00\n      dup1\n      returndatacopy\n      revert(0x00, returndatasize)\n    tag_116:\n      pop\n        /* \"Desktop/EthCA/blockchain/EthCA.sol\":6174:6177  i++ */\n      dup1\n      dup1\n      tag_117\n      swap1\n      tag_89\n      jump\t// in\n    tag_117:\n      swap2\n      pop\n      pop\n        /* \"Desktop/EthCA/blockchain/EthCA.sol\":6125:6297  for(uint i = 0; i < requests[requestID].noVotes; i++) {... */\n      jump(tag_99)\n    tag_100:\n      pop\n        /* \"Desktop/EthCA/blockchain/EthCA.sol\":5620:6311  if(requests[requestID].yesVotes > requests[requestID].noVotes) {... */\n    tag_98:\n        /* \"Desktop/EthCA/blockchain/EthCA.sol\":5533:6547  if(requests[requestID].yesVotes + requests[requestID].noVotes >= quorum) {... */\n      jump(tag_118)\n    tag_62:\n    tag_118:\n        /* \"Desktop/EthCA/blockchain/EthCA.sol\":6588:6592  true */\n      0x01\n        /* \"Desktop/EthCA/blockchain/EthCA.sol\":6556:6564  requests */\n      0x02\n        /* \"Desktop/EthCA/blockchain/EthCA.sol\":6565:6574  requestID */\n      dup3\n        /* \"Desktop/EthCA/blockchain/EthCA.sol\":6556:6575  requests[requestID] */\n      dup2\n      sload\n      dup2\n      lt\n      tag_119\n      jumpi\n      tag_120\n      tag_39\n      jump\t// in\n    tag_120:\n    tag_119:\n      swap1\n      0x00\n      mstore\n      keccak256(0x00, 0x20)\n      swap1\n      0x46\n      mul\n      add\n        /* \"Desktop/EthCA/blockchain/EthCA.sol\":6556:6585  requests[requestID].completed */\n      0x42\n      add\n      0x00\n        /* \"Desktop/EthCA/blockchain/EthCA.sol\":6556:6592  requests[requestID].completed = true */\n      0x0100\n      exp\n      dup2\n      sload\n      dup2\n      0xff\n      mul\n      not\n      and\n      swap1\n      dup4\n      iszero\n      iszero\n      mul\n      or\n      swap1\n      sstore\n      pop\n        /* \"Desktop/EthCA/blockchain/EthCA.sol\":5104:6599  function endVerification(uint requestID) public {... */\n      pop\n      jump\t// out\n        /* \"Desktop/EthCA/blockchain/EthCA.sol\":2184:2819  function request_verification(string memory domain) public payable returns (uint) {... */\n    tag_16:\n        /* \"Desktop/EthCA/blockchain/EthCA.sol\":2260:2264  uint */\n      0x00\n        /* \"Desktop/EthCA/blockchain/EthCA.sol\":2297:2305  10 ether */\n      0x8ac7230489e80000\n        /* \"Desktop/EthCA/blockchain/EthCA.sol\":2284:2293  msg.value */\n      callvalue\n        /* \"Desktop/EthCA/blockchain/EthCA.sol\":2284:2305  msg.value >= 10 ether */\n      lt\n      iszero\n        /* \"Desktop/EthCA/blockchain/EthCA.sol\":2276:2306  require(msg.value >= 10 ether) */\n      tag_123\n      jumpi\n      0x00\n      dup1\n      revert\n    tag_123:\n        /* \"Desktop/EthCA/blockchain/EthCA.sol\":2392:2402  uint nonce */\n      0x00\n        /* \"Desktop/EthCA/blockchain/EthCA.sol\":2410:2493  sha256(abi.encodePacked(block.timestamp, block.difficulty, msg.sender, numsignups)) */\n      0x02\n        /* \"Desktop/EthCA/blockchain/EthCA.sol\":2434:2449  block.timestamp */\n      timestamp\n        /* \"Desktop/EthCA/blockchain/EthCA.sol\":2451:2467  block.difficulty */\n      difficulty\n        /* \"Desktop/EthCA/blockchain/EthCA.sol\":2469:2479  msg.sender */\n      caller\n        /* \"Desktop/EthCA/blockchain/EthCA.sol\":2481:2491  numsignups */\n      sload(0x04)\n        /* \"Desktop/EthCA/blockchain/EthCA.sol\":2417:2492  abi.encodePacked(block.timestamp, block.difficulty, msg.sender, numsignups) */\n      add(0x20, mload(0x40))\n      tag_124\n      swap5\n      swap4\n      swap3\n      swap2\n      swap1\n      tag_125\n      jump\t// in\n    tag_124:\n      mload(0x40)\n      0x20\n      dup2\n      dup4\n      sub\n      sub\n      dup2\n      mstore\n      swap1\n      0x40\n      mstore\n        /* \"Desktop/EthCA/blockchain/EthCA.sol\":2410:2493  sha256(abi.encodePacked(block.timestamp, block.difficulty, msg.sender, numsignups)) */\n      mload(0x40)\n      tag_126\n      swap2\n      swap1\n      tag_127\n      jump\t// in\n    tag_126:\n      0x20\n      mload(0x40)\n      dup1\n      dup4\n      sub\n      dup2\n      dup6\n      gas\n      staticcall\n      iszero\n      dup1\n      iszero\n      tag_129\n      jumpi\n      returndatasize\n      0x00\n      dup1\n      returndatacopy\n      revert(0x00, returndatasize)\n    tag_129:\n      pop\n      pop\n      pop\n      mload(0x40)\n      returndatasize\n      not(0x1f)\n      0x1f\n      dup3\n      add\n      and\n      dup3\n      add\n      dup1\n      0x40\n      mstore\n      pop\n      dup2\n      add\n      swap1\n      tag_130\n      swap2\n      swap1\n      tag_131\n      jump\t// in\n    tag_130:\n        /* \"Desktop/EthCA/blockchain/EthCA.sol\":2405:2494  uint(sha256(abi.encodePacked(block.timestamp, block.difficulty, msg.sender, numsignups))) */\n      0x00\n      shr\n        /* \"Desktop/EthCA/blockchain/EthCA.sol\":2392:2494  uint nonce = uint(sha256(abi.encodePacked(block.timestamp, block.difficulty, msg.sender, numsignups))) */\n      swap1\n      pop\n        /* \"Desktop/EthCA/blockchain/EthCA.sol\":2572:2577  nonce */\n      dup1\n        /* \"Desktop/EthCA/blockchain/EthCA.sol\":2542:2550  requests */\n      0x02\n        /* \"Desktop/EthCA/blockchain/EthCA.sol\":2551:2562  numRequests */\n      sload(0x05)\n        /* \"Desktop/EthCA/blockchain/EthCA.sol\":2542:2563  requests[numRequests] */\n      dup2\n      sload\n      dup2\n      lt\n      tag_132\n      jumpi\n      tag_133\n      tag_39\n      jump\t// in\n    tag_133:\n    tag_132:\n      swap1\n      0x00\n      mstore\n      keccak256(0x00, 0x20)\n      swap1\n      0x46\n      mul\n      add\n        /* \"Desktop/EthCA/blockchain/EthCA.sol\":2542:2569  requests[numRequests].nonce */\n      0x01\n      add\n        /* \"Desktop/EthCA/blockchain/EthCA.sol\":2542:2577  requests[numRequests].nonce = nonce */\n      dup2\n      swap1\n      sstore\n      pop\n        /* \"Desktop/EthCA/blockchain/EthCA.sol\":2614:2625  numRequests */\n      sload(0x05)\n        /* \"Desktop/EthCA/blockchain/EthCA.sol\":2587:2595  requests */\n      0x02\n        /* \"Desktop/EthCA/blockchain/EthCA.sol\":2596:2607  numRequests */\n      sload(0x05)\n        /* \"Desktop/EthCA/blockchain/EthCA.sol\":2587:2608  requests[numRequests] */\n      dup2\n      sload\n      dup2\n      lt\n      tag_135\n      jumpi\n      tag_136\n      tag_39\n      jump\t// in\n    tag_136:\n    tag_135:\n      swap1\n      0x00\n      mstore\n      keccak256(0x00, 0x20)\n      swap1\n      0x46\n      mul\n      add\n        /* \"Desktop/EthCA/blockchain/EthCA.sol\":2587:2611  requests[numRequests].id */\n      0x00\n      add\n        /* \"Desktop/EthCA/blockchain/EthCA.sol\":2587:2625  requests[numRequests].id = numRequests */\n      dup2\n      swap1\n      sstore\n      pop\n        /* \"Desktop/EthCA/blockchain/EthCA.sol\":2666:2676  msg.sender */\n      caller\n        /* \"Desktop/EthCA/blockchain/EthCA.sol\":2635:2643  requests */\n      0x02\n        /* \"Desktop/EthCA/blockchain/EthCA.sol\":2644:2655  numRequests */\n      sload(0x05)\n        /* \"Desktop/EthCA/blockchain/EthCA.sol\":2635:2656  requests[numRequests] */\n      dup2\n      sload\n      dup2\n      lt\n      tag_138\n      jumpi\n      tag_139\n      tag_39\n      jump\t// in\n    tag_139:\n    tag_138:\n      swap1\n      0x00\n      mstore\n      keccak256(0x00, 0x20)\n      swap1\n      0x46\n      mul\n      add\n        /* \"Desktop/EthCA/blockchain/EthCA.sol\":2635:2663  requests[numRequests].sender */\n      0x40\n      add\n      0x00\n        /* \"Desktop/EthCA/blockchain/EthCA.sol\":2635:2676  requests[numRequests].sender = msg.sender */\n      0x0100\n      exp\n      dup2\n      sload\n      dup2\n      0xffffffffffffffffffffffffffffffffffffffff\n      mul\n      not\n      and\n      swap1\n      dup4\n      0xffffffffffffffffffffffffffffffffffffffff\n      and\n      mul\n      or\n      swap1\n      sstore\n      pop\n        /* \"Desktop/EthCA/blockchain/EthCA.sol\":2717:2723  domain */\n      dup3\n        /* \"Desktop/EthCA/blockchain/EthCA.sol\":2686:2694  requests */\n      0x02\n        /* \"Desktop/EthCA/blockchain/EthCA.sol\":2695:2706  numRequests */\n      sload(0x05)\n        /* \"Desktop/EthCA/blockchain/EthCA.sol\":2686:2707  requests[numRequests] */\n      dup2\n      sload\n      dup2\n      lt\n      tag_141\n      jumpi\n      tag_142\n      tag_39\n      jump\t// in\n    tag_142:\n    tag_141:\n      swap1\n      0x00\n      mstore\n      keccak256(0x00, 0x20)\n      swap1\n      0x46\n      mul\n      add\n        /* \"Desktop/EthCA/blockchain/EthCA.sol\":2686:2714  requests[numRequests].domain */\n      0x3f\n      add\n        /* \"Desktop/EthCA/blockchain/EthCA.sol\":2686:2723  requests[numRequests].domain = domain */\n      swap1\n      dup1\n      mload\n      swap1\n      0x20\n      add\n      swap1\n      tag_144\n      swap3\n      swap2\n      swap1\n      tag_145\n      jump\t// in\n    tag_144:\n      pop\n        /* \"Desktop/EthCA/blockchain/EthCA.sol\":2773:2802  chooseValidators(numRequests) */\n      tag_146\n        /* \"Desktop/EthCA/blockchain/EthCA.sol\":2790:2801  numRequests */\n      sload(0x05)\n        /* \"Desktop/EthCA/blockchain/EthCA.sol\":2773:2789  chooseValidators */\n      tag_147\n        /* \"Desktop/EthCA/blockchain/EthCA.sol\":2773:2802  chooseValidators(numRequests) */\n      jump\t// in\n    tag_146:\n        /* \"Desktop/EthCA/blockchain/EthCA.sol\":2266:2819  {... */\n      pop\n        /* \"Desktop/EthCA/blockchain/EthCA.sol\":2184:2819  function request_verification(string memory domain) public payable returns (uint) {... */\n      swap2\n      swap1\n      pop\n      jump\t// out\n        /* \"Desktop/EthCA/blockchain/EthCA.sol\":2824:3261  function sign_up() public payable returns (uint) {... */\n    tag_20:\n        /* \"Desktop/EthCA/blockchain/EthCA.sol\":2867:2871  uint */\n      0x00\n        /* \"Desktop/EthCA/blockchain/EthCA.sol\":2954:2961  1 ether */\n      0x0de0b6b3a7640000\n        /* \"Desktop/EthCA/blockchain/EthCA.sol\":2941:2950  msg.value */\n      callvalue\n        /* \"Desktop/EthCA/blockchain/EthCA.sol\":2941:2961  msg.value == 1 ether */\n      eq\n        /* \"Desktop/EthCA/blockchain/EthCA.sol\":2933:3006  require(msg.value == 1 ether, \"Sign-up rejected! Inadequate stake value\") */\n      tag_149\n      jumpi\n      mload(0x40)\n      0x08c379a000000000000000000000000000000000000000000000000000000000\n      dup2\n      mstore\n      0x04\n      add\n      tag_150\n      swap1\n      tag_151\n      jump\t// in\n    tag_150:\n      mload(0x40)\n      dup1\n      swap2\n      sub\n      swap1\n      revert\n    tag_149:\n        /* \"Desktop/EthCA/blockchain/EthCA.sol\":3107:3112  false */\n      0x00\n        /* \"Desktop/EthCA/blockchain/EthCA.sol\":3083:3112  signedup[msg.sender] == false */\n      iszero\n      iszero\n        /* \"Desktop/EthCA/blockchain/EthCA.sol\":3083:3091  signedup */\n      0x01\n        /* \"Desktop/EthCA/blockchain/EthCA.sol\":3083:3103  signedup[msg.sender] */\n      0x00\n        /* \"Desktop/EthCA/blockchain/EthCA.sol\":3092:3102  msg.sender */\n      caller\n        /* \"Desktop/EthCA/blockchain/EthCA.sol\":3083:3103  signedup[msg.sender] */\n      0xffffffffffffffffffffffffffffffffffffffff\n      and\n      0xffffffffffffffffffffffffffffffffffffffff\n      and\n      dup2\n      mstore\n      0x20\n      add\n      swap1\n      dup2\n      mstore\n      0x20\n      add\n      0x00\n      keccak256\n      0x00\n      swap1\n      sload\n      swap1\n      0x0100\n      exp\n      swap1\n      div\n      0xff\n      and\n        /* \"Desktop/EthCA/blockchain/EthCA.sol\":3083:3112  signedup[msg.sender] == false */\n      iszero\n      iszero\n      eq\n        /* \"Desktop/EthCA/blockchain/EthCA.sol\":3075:3135  require(signedup[msg.sender] == false, \"Already signed up!\") */\n      tag_152\n      jumpi\n      mload(0x40)\n      0x08c379a000000000000000000000000000000000000000000000000000000000\n      dup2\n      mstore\n      0x04\n      add\n      tag_153\n      swap1\n      tag_154\n      jump\t// in\n    tag_153:\n      mload(0x40)\n      dup1\n      swap2\n      sub\n      swap1\n      revert\n    tag_152:\n        /* \"Desktop/EthCA/blockchain/EthCA.sol\":3175:3185  msg.sender */\n      caller\n        /* \"Desktop/EthCA/blockchain/EthCA.sol\":3145:3152  signups */\n      0x00\n        /* \"Desktop/EthCA/blockchain/EthCA.sol\":3153:3163  numsignups */\n      sload(0x04)\n        /* \"Desktop/EthCA/blockchain/EthCA.sol\":3145:3164  signups[numsignups] */\n      dup2\n      sload\n      dup2\n      lt\n      tag_155\n      jumpi\n      tag_156\n      tag_39\n      jump\t// in\n    tag_156:\n    tag_155:\n      swap1\n      0x00\n      mstore\n      keccak256(0x00, 0x20)\n      add\n      0x00\n        /* \"Desktop/EthCA/blockchain/EthCA.sol\":3145:3186  signups[numsignups] = payable(msg.sender) */\n      0x0100\n      exp\n      dup2\n      sload\n      dup2\n      0xffffffffffffffffffffffffffffffffffffffff\n      mul\n      not\n      and\n      swap1\n      dup4\n      0xffffffffffffffffffffffffffffffffffffffff\n      and\n      mul\n      or\n      swap1\n      sstore\n      pop\n        /* \"Desktop/EthCA/blockchain/EthCA.sol\":3222:3223  1 */\n      0x01\n        /* \"Desktop/EthCA/blockchain/EthCA.sol\":3209:3219  numsignups */\n      sload(0x04)\n        /* \"Desktop/EthCA/blockchain/EthCA.sol\":3209:3223  numsignups + 1 */\n      tag_158\n      swap2\n      swap1\n      tag_61\n      jump\t// in\n    tag_158:\n        /* \"Desktop/EthCA/blockchain/EthCA.sol\":3196:3206  numsignups */\n      0x04\n        /* \"Desktop/EthCA/blockchain/EthCA.sol\":3196:3223  numsignups = numsignups + 1 */\n      dup2\n      swap1\n      sstore\n      pop\n        /* \"Desktop/EthCA/blockchain/EthCA.sol\":3253:3254  1 */\n      0x01\n        /* \"Desktop/EthCA/blockchain/EthCA.sol\":3240:3250  numsignups */\n      sload(0x04)\n        /* \"Desktop/EthCA/blockchain/EthCA.sol\":3240:3254  numsignups - 1 */\n      tag_159\n      swap2\n      swap1\n      tag_160\n      jump\t// in\n    tag_159:\n        /* \"Desktop/EthCA/blockchain/EthCA.sol\":3233:3254  return numsignups - 1 */\n      swap1\n      pop\n        /* \"Desktop/EthCA/blockchain/EthCA.sol\":2824:3261  function sign_up() public payable returns (uint) {... */\n      swap1\n      jump\t// out\n        /* \"Desktop/EthCA/blockchain/EthCA.sol\":3741:4960  function vote(uint requestID, bool voteIn) public {... */\n    tag_26:\n        /* \"Desktop/EthCA/blockchain/EthCA.sol\":3931:3935  true */\n      0x01\n        /* \"Desktop/EthCA/blockchain/EthCA.sol\":3885:3935  requests[requestID].validators[msg.sender] == true */\n      iszero\n      iszero\n        /* \"Desktop/EthCA/blockchain/EthCA.sol\":3885:3893  requests */\n      0x02\n        /* \"Desktop/EthCA/blockchain/EthCA.sol\":3894:3903  requestID */\n      dup4\n        /* \"Desktop/EthCA/blockchain/EthCA.sol\":3885:3904  requests[requestID] */\n      dup2\n      sload\n      dup2\n      lt\n      tag_162\n      jumpi\n      tag_163\n      tag_39\n      jump\t// in\n    tag_163:\n    tag_162:\n      swap1\n      0x00\n      mstore\n      keccak256(0x00, 0x20)\n      swap1\n      0x46\n      mul\n      add\n        /* \"Desktop/EthCA/blockchain/EthCA.sol\":3885:3915  requests[requestID].validators */\n      0x02\n      add\n        /* \"Desktop/EthCA/blockchain/EthCA.sol\":3885:3927  requests[requestID].validators[msg.sender] */\n      0x00\n        /* \"Desktop/EthCA/blockchain/EthCA.sol\":3916:3926  msg.sender */\n      caller\n        /* \"Desktop/EthCA/blockchain/EthCA.sol\":3885:3927  requests[requestID].validators[msg.sender] */\n      0xffffffffffffffffffffffffffffffffffffffff\n      and\n      0xffffffffffffffffffffffffffffffffffffffff\n      and\n      dup2\n      mstore\n      0x20\n      add\n      swap1\n      dup2\n      mstore\n      0x20\n      add\n      0x00\n      keccak256\n      0x00\n      swap1\n      sload\n      swap1\n      0x0100\n      exp\n      swap1\n      div\n      0xff\n      and\n        /* \"Desktop/EthCA/blockchain/EthCA.sol\":3885:3935  requests[requestID].validators[msg.sender] == true */\n      iszero\n      iszero\n      eq\n        /* \"Desktop/EthCA/blockchain/EthCA.sol\":3877:3973  require(requests[requestID].validators[msg.sender] == true, \"Not a validator for this request!\") */\n      tag_165\n      jumpi\n      mload(0x40)\n      0x08c379a000000000000000000000000000000000000000000000000000000000\n      dup2\n      mstore\n      0x04\n      add\n      tag_166\n      swap1\n      tag_167\n      jump\t// in\n    tag_166:\n      mload(0x40)\n      dup1\n      swap2\n      sub\n      swap1\n      revert\n    tag_165:\n        /* \"Desktop/EthCA/blockchain/EthCA.sol\":4049:4057  requests */\n      0x02\n        /* \"Desktop/EthCA/blockchain/EthCA.sol\":4058:4067  requestID */\n      dup3\n        /* \"Desktop/EthCA/blockchain/EthCA.sol\":4049:4068  requests[requestID] */\n      dup2\n      sload\n      dup2\n      lt\n      tag_168\n      jumpi\n      tag_169\n      tag_39\n      jump\t// in\n    tag_169:\n    tag_168:\n      swap1\n      0x00\n      mstore\n      keccak256(0x00, 0x20)\n      swap1\n      0x46\n      mul\n      add\n        /* \"Desktop/EthCA/blockchain/EthCA.sol\":4049:4077  requests[requestID].deadline */\n      0x45\n      add\n      sload\n        /* \"Desktop/EthCA/blockchain/EthCA.sol\":4034:4046  block.number */\n      number\n        /* \"Desktop/EthCA/blockchain/EthCA.sol\":4034:4077  block.number < requests[requestID].deadline */\n      lt\n        /* \"Desktop/EthCA/blockchain/EthCA.sol\":4026:4099  require(block.number < requests[requestID].deadline, \"Voting has closed\") */\n      tag_171\n      jumpi\n      mload(0x40)\n      0x08c379a000000000000000000000000000000000000000000000000000000000\n      dup2\n      mstore\n      0x04\n      add\n      tag_172\n      swap1\n      tag_173\n      jump\t// in\n    tag_172:\n      mload(0x40)\n      dup1\n      swap2\n      sub\n      swap1\n      revert\n    tag_171:\n        /* \"Desktop/EthCA/blockchain/EthCA.sol\":4131:4137  voteIn */\n      dup1\n        /* \"Desktop/EthCA/blockchain/EthCA.sol\":4128:4662  if(voteIn) {... */\n      iszero\n      tag_174\n      jumpi\n        /* \"Desktop/EthCA/blockchain/EthCA.sol\":4301:4311  msg.sender */\n      caller\n        /* \"Desktop/EthCA/blockchain/EthCA.sol\":4232:4240  requests */\n      0x02\n        /* \"Desktop/EthCA/blockchain/EthCA.sol\":4241:4250  requestID */\n      dup4\n        /* \"Desktop/EthCA/blockchain/EthCA.sol\":4232:4251  requests[requestID] */\n      dup2\n      sload\n      dup2\n      lt\n      tag_175\n      jumpi\n      tag_176\n      tag_39\n      jump\t// in\n    tag_176:\n    tag_175:\n      swap1\n      0x00\n      mstore\n      keccak256(0x00, 0x20)\n      swap1\n      0x46\n      mul\n      add\n        /* \"Desktop/EthCA/blockchain/EthCA.sol\":4232:4260  requests[requestID].yesNodes */\n      0x17\n      add\n        /* \"Desktop/EthCA/blockchain/EthCA.sol\":4261:4269  requests */\n      0x02\n        /* \"Desktop/EthCA/blockchain/EthCA.sol\":4270:4279  requestID */\n      dup5\n        /* \"Desktop/EthCA/blockchain/EthCA.sol\":4261:4280  requests[requestID] */\n      dup2\n      sload\n      dup2\n      lt\n      tag_178\n      jumpi\n      tag_179\n      tag_39\n      jump\t// in\n    tag_179:\n    tag_178:\n      swap1\n      0x00\n      mstore\n      keccak256(0x00, 0x20)\n      swap1\n      0x46\n      mul\n      add\n        /* \"Desktop/EthCA/blockchain/EthCA.sol\":4261:4289  requests[requestID].yesVotes */\n      0x43\n      add\n      sload\n        /* \"Desktop/EthCA/blockchain/EthCA.sol\":4232:4290  requests[requestID].yesNodes[requests[requestID].yesVotes] */\n      0x14\n      dup2\n      lt\n      tag_181\n      jumpi\n      tag_182\n      tag_39\n      jump\t// in\n    tag_182:\n    tag_181:\n      add\n      0x00\n        /* \"Desktop/EthCA/blockchain/EthCA.sol\":4232:4312  requests[requestID].yesNodes[requests[requestID].yesVotes] = payable(msg.sender) */\n      0x0100\n      exp\n      dup2\n      sload\n      dup2\n      0xffffffffffffffffffffffffffffffffffffffff\n      mul\n      not\n      and\n      swap1\n      dup4\n      0xffffffffffffffffffffffffffffffffffffffff\n      and\n      mul\n      or\n      swap1\n      sstore\n      pop\n        /* \"Desktop/EthCA/blockchain/EthCA.sol\":4388:4389  1 */\n      0x01\n        /* \"Desktop/EthCA/blockchain/EthCA.sol\":4357:4365  requests */\n      0x02\n        /* \"Desktop/EthCA/blockchain/EthCA.sol\":4366:4375  requestID */\n      dup4\n        /* \"Desktop/EthCA/blockchain/EthCA.sol\":4357:4376  requests[requestID] */\n      dup2\n      sload\n      dup2\n      lt\n      tag_184\n      jumpi\n      tag_185\n      tag_39\n      jump\t// in\n    tag_185:\n    tag_184:\n      swap1\n      0x00\n      mstore\n      keccak256(0x00, 0x20)\n      swap1\n      0x46\n      mul\n      add\n        /* \"Desktop/EthCA/blockchain/EthCA.sol\":4357:4385  requests[requestID].yesVotes */\n      0x43\n      add\n      sload\n        /* \"Desktop/EthCA/blockchain/EthCA.sol\":4357:4389  requests[requestID].yesVotes + 1 */\n      tag_187\n      swap2\n      swap1\n      tag_61\n      jump\t// in\n    tag_187:\n        /* \"Desktop/EthCA/blockchain/EthCA.sol\":4326:4334  requests */\n      0x02\n        /* \"Desktop/EthCA/blockchain/EthCA.sol\":4335:4344  requestID */\n      dup4\n        /* \"Desktop/EthCA/blockchain/EthCA.sol\":4326:4345  requests[requestID] */\n      dup2\n      sload\n      dup2\n      lt\n      tag_188\n      jumpi\n      tag_189\n      tag_39\n      jump\t// in\n    tag_189:\n    tag_188:\n      swap1\n      0x00\n      mstore\n      keccak256(0x00, 0x20)\n      swap1\n      0x46\n      mul\n      add\n        /* \"Desktop/EthCA/blockchain/EthCA.sol\":4326:4354  requests[requestID].yesVotes */\n      0x43\n      add\n        /* \"Desktop/EthCA/blockchain/EthCA.sol\":4326:4389  requests[requestID].yesVotes = requests[requestID].yesVotes + 1 */\n      dup2\n      swap1\n      sstore\n      pop\n        /* \"Desktop/EthCA/blockchain/EthCA.sol\":4128:4662  if(voteIn) {... */\n      jump(tag_191)\n    tag_174:\n        /* \"Desktop/EthCA/blockchain/EthCA.sol\":4565:4575  msg.sender */\n      caller\n        /* \"Desktop/EthCA/blockchain/EthCA.sol\":4498:4506  requests */\n      0x02\n        /* \"Desktop/EthCA/blockchain/EthCA.sol\":4507:4516  requestID */\n      dup4\n        /* \"Desktop/EthCA/blockchain/EthCA.sol\":4498:4517  requests[requestID] */\n      dup2\n      sload\n      dup2\n      lt\n      tag_192\n      jumpi\n      tag_193\n      tag_39\n      jump\t// in\n    tag_193:\n    tag_192:\n      swap1\n      0x00\n      mstore\n      keccak256(0x00, 0x20)\n      swap1\n      0x46\n      mul\n      add\n        /* \"Desktop/EthCA/blockchain/EthCA.sol\":4498:4525  requests[requestID].noNodes */\n      0x2b\n      add\n        /* \"Desktop/EthCA/blockchain/EthCA.sol\":4526:4534  requests */\n      0x02\n        /* \"Desktop/EthCA/blockchain/EthCA.sol\":4535:4544  requestID */\n      dup5\n        /* \"Desktop/EthCA/blockchain/EthCA.sol\":4526:4545  requests[requestID] */\n      dup2\n      sload\n      dup2\n      lt\n      tag_195\n      jumpi\n      tag_196\n      tag_39\n      jump\t// in\n    tag_196:\n    tag_195:\n      swap1\n      0x00\n      mstore\n      keccak256(0x00, 0x20)\n      swap1\n      0x46\n      mul\n      add\n        /* \"Desktop/EthCA/blockchain/EthCA.sol\":4526:4553  requests[requestID].noVotes */\n      0x44\n      add\n      sload\n        /* \"Desktop/EthCA/blockchain/EthCA.sol\":4498:4554  requests[requestID].noNodes[requests[requestID].noVotes] */\n      0x14\n      dup2\n      lt\n      tag_198\n      jumpi\n      tag_199\n      tag_39\n      jump\t// in\n    tag_199:\n    tag_198:\n      add\n      0x00\n        /* \"Desktop/EthCA/blockchain/EthCA.sol\":4498:4576  requests[requestID].noNodes[requests[requestID].noVotes] = payable(msg.sender) */\n      0x0100\n      exp\n      dup2\n      sload\n      dup2\n      0xffffffffffffffffffffffffffffffffffffffff\n      mul\n      not\n      and\n      swap1\n      dup4\n      0xffffffffffffffffffffffffffffffffffffffff\n      and\n      mul\n      or\n      swap1\n      sstore\n      pop\n        /* \"Desktop/EthCA/blockchain/EthCA.sol\":4650:4651  1 */\n      0x01\n        /* \"Desktop/EthCA/blockchain/EthCA.sol\":4620:4628  requests */\n      0x02\n        /* \"Desktop/EthCA/blockchain/EthCA.sol\":4629:4638  requestID */\n      dup4\n        /* \"Desktop/EthCA/blockchain/EthCA.sol\":4620:4639  requests[requestID] */\n      dup2\n      sload\n      dup2\n      lt\n      tag_201\n      jumpi\n      tag_202\n      tag_39\n      jump\t// in\n    tag_202:\n    tag_201:\n      swap1\n      0x00\n      mstore\n      keccak256(0x00, 0x20)\n      swap1\n      0x46\n      mul\n      add\n        /* \"Desktop/EthCA/blockchain/EthCA.sol\":4620:4647  requests[requestID].noVotes */\n      0x44\n      add\n      sload\n        /* \"Desktop/EthCA/blockchain/EthCA.sol\":4620:4651  requests[requestID].noVotes + 1 */\n      tag_204\n      swap2\n      swap1\n      tag_61\n      jump\t// in\n    tag_204:\n        /* \"Desktop/EthCA/blockchain/EthCA.sol\":4590:4598  requests */\n      0x02\n        /* \"Desktop/EthCA/blockchain/EthCA.sol\":4599:4608  requestID */\n      dup4\n        /* \"Desktop/EthCA/blockchain/EthCA.sol\":4590:4609  requests[requestID] */\n      dup2\n      sload\n      dup2\n      lt\n      tag_205\n      jumpi\n      tag_206\n      tag_39\n      jump\t// in\n    tag_206:\n    tag_205:\n      swap1\n      0x00\n      mstore\n      keccak256(0x00, 0x20)\n      swap1\n      0x46\n      mul\n      add\n        /* \"Desktop/EthCA/blockchain/EthCA.sol\":4590:4617  requests[requestID].noVotes */\n      0x44\n      add\n        /* \"Desktop/EthCA/blockchain/EthCA.sol\":4590:4651  requests[requestID].noVotes = requests[requestID].noVotes + 1 */\n      dup2\n      swap1\n      sstore\n      pop\n        /* \"Desktop/EthCA/blockchain/EthCA.sol\":4128:4662  if(voteIn) {... */\n    tag_191:\n        /* \"Desktop/EthCA/blockchain/EthCA.sol\":4766:4776  msg.sender */\n      caller\n        /* \"Desktop/EthCA/blockchain/EthCA.sol\":4758:4786  payable(msg.sender).transfer */\n      0xffffffffffffffffffffffffffffffffffffffff\n      and\n        /* \"Desktop/EthCA/blockchain/EthCA.sol\":4758:4824  payable(msg.sender).transfer(1 ether + requests[requestID].reward) */\n      0x08fc\n        /* \"Desktop/EthCA/blockchain/EthCA.sol\":4797:4805  requests */\n      0x02\n        /* \"Desktop/EthCA/blockchain/EthCA.sol\":4806:4815  requestID */\n      dup5\n        /* \"Desktop/EthCA/blockchain/EthCA.sol\":4797:4816  requests[requestID] */\n      dup2\n      sload\n      dup2\n      lt\n      tag_208\n      jumpi\n      tag_209\n      tag_39\n      jump\t// in\n    tag_209:\n    tag_208:\n      swap1\n      0x00\n      mstore\n      keccak256(0x00, 0x20)\n      swap1\n      0x46\n      mul\n      add\n        /* \"Desktop/EthCA/blockchain/EthCA.sol\":4797:4823  requests[requestID].reward */\n      0x41\n      add\n      sload\n        /* \"Desktop/EthCA/blockchain/EthCA.sol\":4787:4794  1 ether */\n      0x0de0b6b3a7640000\n        /* \"Desktop/EthCA/blockchain/EthCA.sol\":4787:4823  1 ether + requests[requestID].reward */\n      tag_211\n      swap2\n      swap1\n      tag_61\n      jump\t// in\n    tag_211:\n        /* \"Desktop/EthCA/blockchain/EthCA.sol\":4758:4824  payable(msg.sender).transfer(1 ether + requests[requestID].reward) */\n      swap1\n      dup2\n      iszero\n      mul\n      swap1\n      mload(0x40)\n      0x00\n      mload(0x40)\n      dup1\n      dup4\n      sub\n      dup2\n      dup6\n      dup9\n      dup9\n      call\n      swap4\n      pop\n      pop\n      pop\n      pop\n      iszero\n      dup1\n      iszero\n      tag_213\n      jumpi\n      returndatasize\n      0x00\n      dup1\n      returndatacopy\n      revert(0x00, returndatasize)\n    tag_213:\n      pop\n        /* \"Desktop/EthCA/blockchain/EthCA.sol\":4948:4953  false */\n      0x00\n        /* \"Desktop/EthCA/blockchain/EthCA.sol\":4903:4911  requests */\n      0x02\n        /* \"Desktop/EthCA/blockchain/EthCA.sol\":4912:4921  requestID */\n      dup4\n        /* \"Desktop/EthCA/blockchain/EthCA.sol\":4903:4922  requests[requestID] */\n      dup2\n      sload\n      dup2\n      lt\n      tag_214\n      jumpi\n      tag_215\n      tag_39\n      jump\t// in\n    tag_215:\n    tag_214:\n      swap1\n      0x00\n      mstore\n      keccak256(0x00, 0x20)\n      swap1\n      0x46\n      mul\n      add\n        /* \"Desktop/EthCA/blockchain/EthCA.sol\":4903:4933  requests[requestID].validators */\n      0x02\n      add\n        /* \"Desktop/EthCA/blockchain/EthCA.sol\":4903:4945  requests[requestID].validators[msg.sender] */\n      0x00\n        /* \"Desktop/EthCA/blockchain/EthCA.sol\":4934:4944  msg.sender */\n      caller\n        /* \"Desktop/EthCA/blockchain/EthCA.sol\":4903:4945  requests[requestID].validators[msg.sender] */\n      0xffffffffffffffffffffffffffffffffffffffff\n      and\n      0xffffffffffffffffffffffffffffffffffffffff\n      and\n      dup2\n      mstore\n      0x20\n      add\n      swap1\n      dup2\n      mstore\n      0x20\n      add\n      0x00\n      keccak256\n      0x00\n        /* \"Desktop/EthCA/blockchain/EthCA.sol\":4903:4953  requests[requestID].validators[msg.sender] = false */\n      0x0100\n      exp\n      dup2\n      sload\n      dup2\n      0xff\n      mul\n      not\n      and\n      swap1\n      dup4\n      iszero\n      iszero\n      mul\n      or\n      swap1\n      sstore\n      pop\n        /* \"Desktop/EthCA/blockchain/EthCA.sol\":3741:4960  function vote(uint requestID, bool voteIn) public {... */\n      pop\n      pop\n      jump\t// out\n        /* \"Desktop/EthCA/blockchain/EthCA.sol\":6718:6815  function issueCertificate(bytes[] memory publicKey, string memory domain) public {... */\n    tag_31:\n      pop\n      pop\n      jump\t// out\n        /* \"Desktop/EthCA/blockchain/EthCA.sol\":3348:3665  function cancel_signup(uint id) public {... */\n    tag_35:\n        /* \"Desktop/EthCA/blockchain/EthCA.sol\":3420:3430  msg.sender */\n      caller\n        /* \"Desktop/EthCA/blockchain/EthCA.sol\":3405:3430  signups[id] == msg.sender */\n      0xffffffffffffffffffffffffffffffffffffffff\n      and\n        /* \"Desktop/EthCA/blockchain/EthCA.sol\":3405:3412  signups */\n      0x00\n        /* \"Desktop/EthCA/blockchain/EthCA.sol\":3413:3415  id */\n      dup3\n        /* \"Desktop/EthCA/blockchain/EthCA.sol\":3405:3416  signups[id] */\n      dup2\n      sload\n      dup2\n      lt\n      tag_219\n      jumpi\n      tag_220\n      tag_39\n      jump\t// in\n    tag_220:\n    tag_219:\n      swap1\n      0x00\n      mstore\n      keccak256(0x00, 0x20)\n      add\n      0x00\n      swap1\n      sload\n      swap1\n      0x0100\n      exp\n      swap1\n      div\n      0xffffffffffffffffffffffffffffffffffffffff\n      and\n        /* \"Desktop/EthCA/blockchain/EthCA.sol\":3405:3430  signups[id] == msg.sender */\n      0xffffffffffffffffffffffffffffffffffffffff\n      and\n      eq\n        /* \"Desktop/EthCA/blockchain/EthCA.sol\":3397:3465  require(signups[id] == msg.sender, \"ID doesn't match your address!\") */\n      tag_222\n      jumpi\n      mload(0x40)\n      0x08c379a000000000000000000000000000000000000000000000000000000000\n      dup2\n      mstore\n      0x04\n      add\n      tag_223\n      swap1\n      tag_224\n      jump\t// in\n    tag_223:\n      mload(0x40)\n      dup1\n      swap2\n      sub\n      swap1\n      revert\n    tag_222:\n        /* \"Desktop/EthCA/blockchain/EthCA.sol\":3507:3511  true */\n      0x01\n        /* \"Desktop/EthCA/blockchain/EthCA.sol\":3483:3511  signedup[msg.sender] == true */\n      iszero\n      iszero\n        /* \"Desktop/EthCA/blockchain/EthCA.sol\":3483:3491  signedup */\n      0x01\n        /* \"Desktop/EthCA/blockchain/EthCA.sol\":3483:3503  signedup[msg.sender] */\n      0x00\n        /* \"Desktop/EthCA/blockchain/EthCA.sol\":3492:3502  msg.sender */\n      caller\n        /* \"Desktop/EthCA/blockchain/EthCA.sol\":3483:3503  signedup[msg.sender] */\n      0xffffffffffffffffffffffffffffffffffffffff\n      and\n      0xffffffffffffffffffffffffffffffffffffffff\n      and\n      dup2\n      mstore\n      0x20\n      add\n      swap1\n      dup2\n      mstore\n      0x20\n      add\n      0x00\n      keccak256\n      0x00\n      swap1\n      sload\n      swap1\n      0x0100\n      exp\n      swap1\n      div\n      0xff\n      and\n        /* \"Desktop/EthCA/blockchain/EthCA.sol\":3483:3511  signedup[msg.sender] == true */\n      iszero\n      iszero\n      eq\n        /* \"Desktop/EthCA/blockchain/EthCA.sol\":3475:3530  require(signedup[msg.sender] == true, \"Not signed up!\") */\n      tag_225\n      jumpi\n      mload(0x40)\n      0x08c379a000000000000000000000000000000000000000000000000000000000\n      dup2\n      mstore\n      0x04\n      add\n      tag_226\n      swap1\n      tag_227\n      jump\t// in\n    tag_226:\n      mload(0x40)\n      dup1\n      swap2\n      sub\n      swap1\n      revert\n    tag_225:\n        /* \"Desktop/EthCA/blockchain/EthCA.sol\":3563:3568  false */\n      0x00\n        /* \"Desktop/EthCA/blockchain/EthCA.sol\":3540:3548  signedup */\n      0x01\n        /* \"Desktop/EthCA/blockchain/EthCA.sol\":3540:3560  signedup[msg.sender] */\n      0x00\n        /* \"Desktop/EthCA/blockchain/EthCA.sol\":3549:3559  msg.sender */\n      caller\n        /* \"Desktop/EthCA/blockchain/EthCA.sol\":3540:3560  signedup[msg.sender] */\n      0xffffffffffffffffffffffffffffffffffffffff\n      and\n      0xffffffffffffffffffffffffffffffffffffffff\n      and\n      dup2\n      mstore\n      0x20\n      add\n      swap1\n      dup2\n      mstore\n      0x20\n      add\n      0x00\n      keccak256\n      0x00\n        /* \"Desktop/EthCA/blockchain/EthCA.sol\":3540:3568  signedup[msg.sender] = false */\n      0x0100\n      exp\n      dup2\n      sload\n      dup2\n      0xff\n      mul\n      not\n      and\n      swap1\n      dup4\n      iszero\n      iszero\n      mul\n      or\n      swap1\n      sstore\n      pop\n        /* \"Desktop/EthCA/blockchain/EthCA.sol\":3608:3609  0 */\n      0x00\n        /* \"Desktop/EthCA/blockchain/EthCA.sol\":3578:3585  signups */\n      dup1\n        /* \"Desktop/EthCA/blockchain/EthCA.sol\":3586:3588  id */\n      dup3\n        /* \"Desktop/EthCA/blockchain/EthCA.sol\":3578:3589  signups[id] */\n      dup2\n      sload\n      dup2\n      lt\n      tag_228\n      jumpi\n      tag_229\n      tag_39\n      jump\t// in\n    tag_229:\n    tag_228:\n      swap1\n      0x00\n      mstore\n      keccak256(0x00, 0x20)\n      add\n      0x00\n        /* \"Desktop/EthCA/blockchain/EthCA.sol\":3578:3611  signups[id] = payable(address(0)) */\n      0x0100\n      exp\n      dup2\n      sload\n      dup2\n      0xffffffffffffffffffffffffffffffffffffffff\n      mul\n      not\n      and\n      swap1\n      dup4\n      0xffffffffffffffffffffffffffffffffffffffff\n      and\n      mul\n      or\n      swap1\n      sstore\n      pop\n        /* \"Desktop/EthCA/blockchain/EthCA.sol\":3629:3639  msg.sender */\n      caller\n        /* \"Desktop/EthCA/blockchain/EthCA.sol\":3621:3649  payable(msg.sender).transfer */\n      0xffffffffffffffffffffffffffffffffffffffff\n      and\n        /* \"Desktop/EthCA/blockchain/EthCA.sol\":3621:3658  payable(msg.sender).transfer(1 ether) */\n      0x08fc\n        /* \"Desktop/EthCA/blockchain/EthCA.sol\":3650:3657  1 ether */\n      0x0de0b6b3a7640000\n        /* \"Desktop/EthCA/blockchain/EthCA.sol\":3621:3658  payable(msg.sender).transfer(1 ether) */\n      swap1\n      dup2\n      iszero\n      mul\n      swap1\n      mload(0x40)\n      0x00\n      mload(0x40)\n      dup1\n      dup4\n      sub\n      dup2\n      dup6\n      dup9\n      dup9\n      call\n      swap4\n      pop\n      pop\n      pop\n      pop\n      iszero\n      dup1\n      iszero\n      tag_232\n      jumpi\n      returndatasize\n      0x00\n      dup1\n      returndatacopy\n      revert(0x00, returndatasize)\n    tag_232:\n      pop\n        /* \"Desktop/EthCA/blockchain/EthCA.sol\":3348:3665  function cancel_signup(uint id) public {... */\n      pop\n      jump\t// out\n        /* \"Desktop/EthCA/blockchain/EthCA.sol\":1210:2056  function chooseValidators(uint id) private {... */\n    tag_147:\n        /* \"Desktop/EthCA/blockchain/EthCA.sol\":1267:1273  uint i */\n      0x00\n        /* \"Desktop/EthCA/blockchain/EthCA.sol\":1263:2050  for(uint i = 0; i < numValidators; i++) {... */\n    tag_234:\n        /* \"Desktop/EthCA/blockchain/EthCA.sol\":675:677  20 */\n      0x14\n        /* \"Desktop/EthCA/blockchain/EthCA.sol\":1279:1280  i */\n      dup2\n        /* \"Desktop/EthCA/blockchain/EthCA.sol\":1279:1296  i < numValidators */\n      lt\n        /* \"Desktop/EthCA/blockchain/EthCA.sol\":1263:2050  for(uint i = 0; i < numValidators; i++) {... */\n      iszero\n      tag_235\n      jumpi\n        /* \"Desktop/EthCA/blockchain/EthCA.sol\":1468:1478  uint index */\n      0x00\n        /* \"Desktop/EthCA/blockchain/EthCA.sol\":1530:1537  signups */\n      dup1\n        /* \"Desktop/EthCA/blockchain/EthCA.sol\":1530:1544  signups.length */\n      dup1\n      sload\n      swap1\n      pop\n        /* \"Desktop/EthCA/blockchain/EthCA.sol\":1486:1526  sha256(abi.encodePacked(signups.length)) */\n      0x02\n        /* \"Desktop/EthCA/blockchain/EthCA.sol\":1510:1517  signups */\n      0x00\n        /* \"Desktop/EthCA/blockchain/EthCA.sol\":1510:1524  signups.length */\n      dup1\n      sload\n      swap1\n      pop\n        /* \"Desktop/EthCA/blockchain/EthCA.sol\":1493:1525  abi.encodePacked(signups.length) */\n      add(0x20, mload(0x40))\n      tag_237\n      swap2\n      swap1\n      tag_238\n      jump\t// in\n    tag_237:\n      mload(0x40)\n      0x20\n      dup2\n      dup4\n      sub\n      sub\n      dup2\n      mstore\n      swap1\n      0x40\n      mstore\n        /* \"Desktop/EthCA/blockchain/EthCA.sol\":1486:1526  sha256(abi.encodePacked(signups.length)) */\n      mload(0x40)\n      tag_239\n      swap2\n      swap1\n      tag_127\n      jump\t// in\n    tag_239:\n      0x20\n      mload(0x40)\n      dup1\n      dup4\n      sub\n      dup2\n      dup6\n      gas\n      staticcall\n      iszero\n      dup1\n      iszero\n      tag_241\n      jumpi\n      returndatasize\n      0x00\n      dup1\n      returndatacopy\n      revert(0x00, returndatasize)\n    tag_241:\n      pop\n      pop\n      pop\n      mload(0x40)\n      returndatasize\n      not(0x1f)\n      0x1f\n      dup3\n      add\n      and\n      dup3\n      add\n      dup1\n      0x40\n      mstore\n      pop\n      dup2\n      add\n      swap1\n      tag_242\n      swap2\n      swap1\n      tag_131\n      jump\t// in\n    tag_242:\n        /* \"Desktop/EthCA/blockchain/EthCA.sol\":1481:1527  uint(sha256(abi.encodePacked(signups.length))) */\n      0x00\n      shr\n        /* \"Desktop/EthCA/blockchain/EthCA.sol\":1481:1544  uint(sha256(abi.encodePacked(signups.length))) % signups.length */\n      tag_243\n      swap2\n      swap1\n      tag_244\n      jump\t// in\n    tag_243:\n        /* \"Desktop/EthCA/blockchain/EthCA.sol\":1468:1544  uint index = uint(sha256(abi.encodePacked(signups.length))) % signups.length */\n      swap1\n      pop\n        /* \"Desktop/EthCA/blockchain/EthCA.sol\":1619:1639  address payable val1 */\n      0x00\n        /* \"Desktop/EthCA/blockchain/EthCA.sol\":1642:1649  signups */\n      dup1\n        /* \"Desktop/EthCA/blockchain/EthCA.sol\":1650:1655  index */\n      dup3\n        /* \"Desktop/EthCA/blockchain/EthCA.sol\":1642:1656  signups[index] */\n      dup2\n      sload\n      dup2\n      lt\n      tag_245\n      jumpi\n      tag_246\n      tag_39\n      jump\t// in\n    tag_246:\n    tag_245:\n      swap1\n      0x00\n      mstore\n      keccak256(0x00, 0x20)\n      add\n      0x00\n      swap1\n      sload\n      swap1\n      0x0100\n      exp\n      swap1\n      div\n      0xffffffffffffffffffffffffffffffffffffffff\n      and\n        /* \"Desktop/EthCA/blockchain/EthCA.sol\":1619:1656  address payable val1 = signups[index] */\n      swap1\n      pop\n        /* \"Desktop/EthCA/blockchain/EthCA.sol\":1687:1692  false */\n      0x00\n        /* \"Desktop/EthCA/blockchain/EthCA.sol\":1670:1678  signedup */\n      0x01\n        /* \"Desktop/EthCA/blockchain/EthCA.sol\":1670:1684  signedup[val1] */\n      0x00\n        /* \"Desktop/EthCA/blockchain/EthCA.sol\":1679:1683  val1 */\n      dup4\n        /* \"Desktop/EthCA/blockchain/EthCA.sol\":1670:1684  signedup[val1] */\n      0xffffffffffffffffffffffffffffffffffffffff\n      and\n      0xffffffffffffffffffffffffffffffffffffffff\n      and\n      dup2\n      mstore\n      0x20\n      add\n      swap1\n      dup2\n      mstore\n      0x20\n      add\n      0x00\n      keccak256\n      0x00\n        /* \"Desktop/EthCA/blockchain/EthCA.sol\":1670:1692  signedup[val1] = false */\n      0x0100\n      exp\n      dup2\n      sload\n      dup2\n      0xff\n      mul\n      not\n      and\n      swap1\n      dup4\n      iszero\n      iszero\n      mul\n      or\n      swap1\n      sstore\n      pop\n        /* \"Desktop/EthCA/blockchain/EthCA.sol\":1790:1797  signups */\n      0x00\n        /* \"Desktop/EthCA/blockchain/EthCA.sol\":1815:1816  1 */\n      0x01\n        /* \"Desktop/EthCA/blockchain/EthCA.sol\":1798:1805  signups */\n      0x00\n        /* \"Desktop/EthCA/blockchain/EthCA.sol\":1798:1812  signups.length */\n      dup1\n      sload\n      swap1\n      pop\n        /* \"Desktop/EthCA/blockchain/EthCA.sol\":1798:1816  signups.length - 1 */\n      tag_248\n      swap2\n      swap1\n      tag_160\n      jump\t// in\n    tag_248:\n        /* \"Desktop/EthCA/blockchain/EthCA.sol\":1790:1817  signups[signups.length - 1] */\n      dup2\n      sload\n      dup2\n      lt\n      tag_249\n      jumpi\n      tag_250\n      tag_39\n      jump\t// in\n    tag_250:\n    tag_249:\n      swap1\n      0x00\n      mstore\n      keccak256(0x00, 0x20)\n      add\n      0x00\n      swap1\n      sload\n      swap1\n      0x0100\n      exp\n      swap1\n      div\n      0xffffffffffffffffffffffffffffffffffffffff\n      and\n        /* \"Desktop/EthCA/blockchain/EthCA.sol\":1773:1780  signups */\n      0x00\n        /* \"Desktop/EthCA/blockchain/EthCA.sol\":1781:1786  index */\n      dup4\n        /* \"Desktop/EthCA/blockchain/EthCA.sol\":1773:1787  signups[index] */\n      dup2\n      sload\n      dup2\n      lt\n      tag_252\n      jumpi\n      tag_253\n      tag_39\n      jump\t// in\n    tag_253:\n    tag_252:\n      swap1\n      0x00\n      mstore\n      keccak256(0x00, 0x20)\n      add\n      0x00\n        /* \"Desktop/EthCA/blockchain/EthCA.sol\":1773:1817  signups[index] = signups[signups.length - 1] */\n      0x0100\n      exp\n      dup2\n      sload\n      dup2\n      0xffffffffffffffffffffffffffffffffffffffff\n      mul\n      not\n      and\n      swap1\n      dup4\n      0xffffffffffffffffffffffffffffffffffffffff\n      and\n      mul\n      or\n      swap1\n      sstore\n      pop\n        /* \"Desktop/EthCA/blockchain/EthCA.sol\":1873:1880  signups */\n      0x00\n        /* \"Desktop/EthCA/blockchain/EthCA.sol\":1873:1886  signups.pop() */\n      dup1\n      sload\n      dup1\n      tag_255\n      jumpi\n      tag_256\n      tag_257\n      jump\t// in\n    tag_256:\n    tag_255:\n      0x01\n      swap1\n      sub\n      dup2\n      dup2\n      swap1\n      0x00\n      mstore\n      keccak256(0x00, 0x20)\n      add\n      exp(0x0100, 0x00)\n      dup2\n      sload\n      swap1\n      0xffffffffffffffffffffffffffffffffffffffff\n      mul\n      not\n      and\n      swap1\n      sstore\n      swap1\n      sstore\n        /* \"Desktop/EthCA/blockchain/EthCA.sol\":1968:1972  val1 */\n      dup1\n        /* \"Desktop/EthCA/blockchain/EthCA.sol\":1936:1944  requests */\n      0x02\n        /* \"Desktop/EthCA/blockchain/EthCA.sol\":1945:1947  id */\n      dup6\n        /* \"Desktop/EthCA/blockchain/EthCA.sol\":1936:1948  requests[id] */\n      dup2\n      sload\n      dup2\n      lt\n      tag_259\n      jumpi\n      tag_260\n      tag_39\n      jump\t// in\n    tag_260:\n    tag_259:\n      swap1\n      0x00\n      mstore\n      keccak256(0x00, 0x20)\n      swap1\n      0x46\n      mul\n      add\n        /* \"Desktop/EthCA/blockchain/EthCA.sol\":1936:1962  requests[id].validatorlist */\n      0x03\n      add\n        /* \"Desktop/EthCA/blockchain/EthCA.sol\":1963:1964  i */\n      dup5\n        /* \"Desktop/EthCA/blockchain/EthCA.sol\":1936:1965  requests[id].validatorlist[i] */\n      0x14\n      dup2\n      lt\n      tag_262\n      jumpi\n      tag_263\n      tag_39\n      jump\t// in\n    tag_263:\n    tag_262:\n      add\n      0x00\n        /* \"Desktop/EthCA/blockchain/EthCA.sol\":1936:1972  requests[id].validatorlist[i] = val1 */\n      0x0100\n      exp\n      dup2\n      sload\n      dup2\n      0xffffffffffffffffffffffffffffffffffffffff\n      mul\n      not\n      and\n      swap1\n      dup4\n      0xffffffffffffffffffffffffffffffffffffffff\n      and\n      mul\n      or\n      swap1\n      sstore\n      pop\n        /* \"Desktop/EthCA/blockchain/EthCA.sol\":1303:2050  {... */\n      pop\n      pop\n        /* \"Desktop/EthCA/blockchain/EthCA.sol\":1298:1301  i++ */\n      dup1\n      dup1\n      tag_265\n      swap1\n      tag_89\n      jump\t// in\n    tag_265:\n      swap2\n      pop\n      pop\n        /* \"Desktop/EthCA/blockchain/EthCA.sol\":1263:2050  for(uint i = 0; i < numValidators; i++) {... */\n      jump(tag_234)\n    tag_235:\n      pop\n        /* \"Desktop/EthCA/blockchain/EthCA.sol\":1210:2056  function chooseValidators(uint id) private {... */\n      pop\n      jump\t// out\n    tag_145:\n      dup3\n      dup1\n      sload\n      tag_266\n      swap1\n      tag_267\n      jump\t// in\n    tag_266:\n      swap1\n      0x00\n      mstore\n      keccak256(0x00, 0x20)\n      swap1\n      0x1f\n      add\n      0x20\n      swap1\n      div\n      dup2\n      add\n      swap3\n      dup3\n      tag_269\n      jumpi\n      0x00\n      dup6\n      sstore\n      jump(tag_268)\n    tag_269:\n      dup3\n      0x1f\n      lt\n      tag_270\n      jumpi\n      dup1\n      mload\n      not(0xff)\n      and\n      dup4\n      dup1\n      add\n      or\n      dup6\n      sstore\n      jump(tag_268)\n    tag_270:\n      dup3\n      dup1\n      add\n      0x01\n      add\n      dup6\n      sstore\n      dup3\n      iszero\n      tag_268\n      jumpi\n      swap2\n      dup3\n      add\n    tag_271:\n      dup3\n      dup2\n      gt\n      iszero\n      tag_272\n      jumpi\n      dup3\n      mload\n      dup3\n      sstore\n      swap2\n      0x20\n      add\n      swap2\n      swap1\n      0x01\n      add\n      swap1\n      jump(tag_271)\n    tag_272:\n    tag_268:\n      pop\n      swap1\n      pop\n      tag_273\n      swap2\n      swap1\n      tag_274\n      jump\t// in\n    tag_273:\n      pop\n      swap1\n      jump\t// out\n    tag_274:\n    tag_275:\n      dup1\n      dup3\n      gt\n      iszero\n      tag_276\n      jumpi\n      0x00\n      dup2\n      0x00\n      swap1\n      sstore\n      pop\n      0x01\n      add\n      jump(tag_275)\n    tag_276:\n      pop\n      swap1\n      jump\t// out\n        /* \"#utility.yul\":22:976   */\n    tag_278:\n        /* \"#utility.yul\":127:132   */\n      0x00\n        /* \"#utility.yul\":152:242   */\n      tag_280\n        /* \"#utility.yul\":168:241   */\n      tag_281\n        /* \"#utility.yul\":234:240   */\n      dup5\n        /* \"#utility.yul\":168:241   */\n      tag_282\n      jump\t// in\n    tag_281:\n        /* \"#utility.yul\":152:242   */\n      tag_283\n      jump\t// in\n    tag_280:\n        /* \"#utility.yul\":143:242   */\n      swap1\n      pop\n        /* \"#utility.yul\":262:267   */\n      dup1\n        /* \"#utility.yul\":291:297   */\n      dup4\n        /* \"#utility.yul\":284:289   */\n      dup3\n        /* \"#utility.yul\":277:298   */\n      mstore\n        /* \"#utility.yul\":325:329   */\n      0x20\n        /* \"#utility.yul\":318:323   */\n      dup3\n        /* \"#utility.yul\":314:330   */\n      add\n        /* \"#utility.yul\":307:330   */\n      swap1\n      pop\n        /* \"#utility.yul\":351:357   */\n      dup3\n        /* \"#utility.yul\":401:404   */\n      dup6\n        /* \"#utility.yul\":393:397   */\n      0x20\n        /* \"#utility.yul\":385:391   */\n      dup7\n        /* \"#utility.yul\":381:398   */\n      mul\n        /* \"#utility.yul\":376:379   */\n      dup3\n        /* \"#utility.yul\":372:399   */\n      add\n        /* \"#utility.yul\":369:405   */\n      gt\n        /* \"#utility.yul\":366:509   */\n      iszero\n      tag_284\n      jumpi\n        /* \"#utility.yul\":420:499   */\n      tag_285\n      tag_286\n      jump\t// in\n    tag_285:\n        /* \"#utility.yul\":366:509   */\n    tag_284:\n        /* \"#utility.yul\":533:534   */\n      0x00\n        /* \"#utility.yul\":518:970   */\n    tag_287:\n        /* \"#utility.yul\":543:549   */\n      dup6\n        /* \"#utility.yul\":540:541   */\n      dup2\n        /* \"#utility.yul\":537:550   */\n      lt\n        /* \"#utility.yul\":518:970   */\n      iszero\n      tag_289\n      jumpi\n        /* \"#utility.yul\":625:628   */\n      dup2\n        /* \"#utility.yul\":612:629   */\n      calldataload\n        /* \"#utility.yul\":661:679   */\n      0xffffffffffffffff\n        /* \"#utility.yul\":648:659   */\n      dup2\n        /* \"#utility.yul\":645:680   */\n      gt\n        /* \"#utility.yul\":642:764   */\n      iszero\n      tag_290\n      jumpi\n        /* \"#utility.yul\":683:762   */\n      tag_291\n      tag_292\n      jump\t// in\n    tag_291:\n        /* \"#utility.yul\":642:764   */\n    tag_290:\n        /* \"#utility.yul\":807:818   */\n      dup1\n        /* \"#utility.yul\":799:805   */\n      dup7\n        /* \"#utility.yul\":795:819   */\n      add\n        /* \"#utility.yul\":845:891   */\n      tag_293\n        /* \"#utility.yul\":887:890   */\n      dup10\n        /* \"#utility.yul\":875:885   */\n      dup3\n        /* \"#utility.yul\":845:891   */\n      tag_294\n      jump\t// in\n    tag_293:\n        /* \"#utility.yul\":840:843   */\n      dup6\n        /* \"#utility.yul\":833:892   */\n      mstore\n        /* \"#utility.yul\":921:925   */\n      0x20\n        /* \"#utility.yul\":916:919   */\n      dup6\n        /* \"#utility.yul\":912:926   */\n      add\n        /* \"#utility.yul\":905:926   */\n      swap5\n      pop\n        /* \"#utility.yul\":955:959   */\n      0x20\n        /* \"#utility.yul\":950:953   */\n      dup5\n        /* \"#utility.yul\":946:960   */\n      add\n        /* \"#utility.yul\":939:960   */\n      swap4\n      pop\n        /* \"#utility.yul\":578:970   */\n      pop\n      pop\n        /* \"#utility.yul\":565:566   */\n      0x01\n        /* \"#utility.yul\":562:563   */\n      dup2\n        /* \"#utility.yul\":558:567   */\n      add\n        /* \"#utility.yul\":553:567   */\n      swap1\n      pop\n        /* \"#utility.yul\":518:970   */\n      jump(tag_287)\n    tag_289:\n        /* \"#utility.yul\":522:536   */\n      pop\n        /* \"#utility.yul\":133:976   */\n      pop\n      pop\n        /* \"#utility.yul\":22:976   */\n      swap4\n      swap3\n      pop\n      pop\n      pop\n      jump\t// out\n        /* \"#utility.yul\":982:1392   */\n    tag_295:\n        /* \"#utility.yul\":1059:1064   */\n      0x00\n        /* \"#utility.yul\":1084:1149   */\n      tag_297\n        /* \"#utility.yul\":1100:1148   */\n      tag_298\n        /* \"#utility.yul\":1141:1147   */\n      dup5\n        /* \"#utility.yul\":1100:1148   */\n      tag_299\n      jump\t// in\n    tag_298:\n        /* \"#utility.yul\":1084:1149   */\n      tag_283\n      jump\t// in\n    tag_297:\n        /* \"#utility.yul\":1075:1149   */\n      swap1\n      pop\n        /* \"#utility.yul\":1172:1178   */\n      dup3\n        /* \"#utility.yul\":1165:1170   */\n      dup2\n        /* \"#utility.yul\":1158:1179   */\n      mstore\n        /* \"#utility.yul\":1210:1214   */\n      0x20\n        /* \"#utility.yul\":1203:1208   */\n      dup2\n        /* \"#utility.yul\":1199:1215   */\n      add\n        /* \"#utility.yul\":1248:1251   */\n      dup5\n        /* \"#utility.yul\":1239:1245   */\n      dup5\n        /* \"#utility.yul\":1234:1237   */\n      dup5\n        /* \"#utility.yul\":1230:1246   */\n      add\n        /* \"#utility.yul\":1227:1252   */\n      gt\n        /* \"#utility.yul\":1224:1336   */\n      iszero\n      tag_300\n      jumpi\n        /* \"#utility.yul\":1255:1334   */\n      tag_301\n      tag_302\n      jump\t// in\n    tag_301:\n        /* \"#utility.yul\":1224:1336   */\n    tag_300:\n        /* \"#utility.yul\":1345:1386   */\n      tag_303\n        /* \"#utility.yul\":1379:1385   */\n      dup5\n        /* \"#utility.yul\":1374:1377   */\n      dup3\n        /* \"#utility.yul\":1369:1372   */\n      dup6\n        /* \"#utility.yul\":1345:1386   */\n      tag_304\n      jump\t// in\n    tag_303:\n        /* \"#utility.yul\":1065:1392   */\n      pop\n        /* \"#utility.yul\":982:1392   */\n      swap4\n      swap3\n      pop\n      pop\n      pop\n      jump\t// out\n        /* \"#utility.yul\":1398:1810   */\n    tag_305:\n        /* \"#utility.yul\":1476:1481   */\n      0x00\n        /* \"#utility.yul\":1501:1567   */\n      tag_307\n        /* \"#utility.yul\":1517:1566   */\n      tag_308\n        /* \"#utility.yul\":1559:1565   */\n      dup5\n        /* \"#utility.yul\":1517:1566   */\n      tag_309\n      jump\t// in\n    tag_308:\n        /* \"#utility.yul\":1501:1567   */\n      tag_283\n      jump\t// in\n    tag_307:\n        /* \"#utility.yul\":1492:1567   */\n      swap1\n      pop\n        /* \"#utility.yul\":1590:1596   */\n      dup3\n        /* \"#utility.yul\":1583:1588   */\n      dup2\n        /* \"#utility.yul\":1576:1597   */\n      mstore\n        /* \"#utility.yul\":1628:1632   */\n      0x20\n        /* \"#utility.yul\":1621:1626   */\n      dup2\n        /* \"#utility.yul\":1617:1633   */\n      add\n        /* \"#utility.yul\":1666:1669   */\n      dup5\n        /* \"#utility.yul\":1657:1663   */\n      dup5\n        /* \"#utility.yul\":1652:1655   */\n      dup5\n        /* \"#utility.yul\":1648:1664   */\n      add\n        /* \"#utility.yul\":1645:1670   */\n      gt\n        /* \"#utility.yul\":1642:1754   */\n      iszero\n      tag_310\n      jumpi\n        /* \"#utility.yul\":1673:1752   */\n      tag_311\n      tag_302\n      jump\t// in\n    tag_311:\n        /* \"#utility.yul\":1642:1754   */\n    tag_310:\n        /* \"#utility.yul\":1763:1804   */\n      tag_312\n        /* \"#utility.yul\":1797:1803   */\n      dup5\n        /* \"#utility.yul\":1792:1795   */\n      dup3\n        /* \"#utility.yul\":1787:1790   */\n      dup6\n        /* \"#utility.yul\":1763:1804   */\n      tag_304\n      jump\t// in\n    tag_312:\n        /* \"#utility.yul\":1482:1810   */\n      pop\n        /* \"#utility.yul\":1398:1810   */\n      swap4\n      swap3\n      pop\n      pop\n      pop\n      jump\t// out\n        /* \"#utility.yul\":1831:2219   */\n    tag_313:\n        /* \"#utility.yul\":1911:1916   */\n      0x00\n        /* \"#utility.yul\":1960:1963   */\n      dup3\n        /* \"#utility.yul\":1953:1957   */\n      0x1f\n        /* \"#utility.yul\":1945:1951   */\n      dup4\n        /* \"#utility.yul\":1941:1958   */\n      add\n        /* \"#utility.yul\":1937:1964   */\n      slt\n        /* \"#utility.yul\":1927:2049   */\n      tag_315\n      jumpi\n        /* \"#utility.yul\":1968:2047   */\n      tag_316\n      tag_292\n      jump\t// in\n    tag_316:\n        /* \"#utility.yul\":1927:2049   */\n    tag_315:\n        /* \"#utility.yul\":2085:2091   */\n      dup2\n        /* \"#utility.yul\":2072:2092   */\n      calldataload\n        /* \"#utility.yul\":2110:2213   */\n      tag_317\n        /* \"#utility.yul\":2209:2212   */\n      dup5\n        /* \"#utility.yul\":2201:2207   */\n      dup3\n        /* \"#utility.yul\":2194:2198   */\n      0x20\n        /* \"#utility.yul\":2186:2192   */\n      dup7\n        /* \"#utility.yul\":2182:2199   */\n      add\n        /* \"#utility.yul\":2110:2213   */\n      tag_278\n      jump\t// in\n    tag_317:\n        /* \"#utility.yul\":2101:2213   */\n      swap2\n      pop\n        /* \"#utility.yul\":1917:2219   */\n      pop\n        /* \"#utility.yul\":1831:2219   */\n      swap3\n      swap2\n      pop\n      pop\n      jump\t// out\n        /* \"#utility.yul\":2225:2358   */\n    tag_318:\n        /* \"#utility.yul\":2268:2273   */\n      0x00\n        /* \"#utility.yul\":2306:2312   */\n      dup2\n        /* \"#utility.yul\":2293:2313   */\n      calldataload\n        /* \"#utility.yul\":2284:2313   */\n      swap1\n      pop\n        /* \"#utility.yul\":2322:2352   */\n      tag_320\n        /* \"#utility.yul\":2346:2351   */\n      dup2\n        /* \"#utility.yul\":2322:2352   */\n      tag_321\n      jump\t// in\n    tag_320:\n        /* \"#utility.yul\":2225:2358   */\n      swap3\n      swap2\n      pop\n      pop\n      jump\t// out\n        /* \"#utility.yul\":2364:2507   */\n    tag_322:\n        /* \"#utility.yul\":2421:2426   */\n      0x00\n        /* \"#utility.yul\":2452:2458   */\n      dup2\n        /* \"#utility.yul\":2446:2459   */\n      mload\n        /* \"#utility.yul\":2437:2459   */\n      swap1\n      pop\n        /* \"#utility.yul\":2468:2501   */\n      tag_324\n        /* \"#utility.yul\":2495:2500   */\n      dup2\n        /* \"#utility.yul\":2468:2501   */\n      tag_325\n      jump\t// in\n    tag_324:\n        /* \"#utility.yul\":2364:2507   */\n      swap3\n      swap2\n      pop\n      pop\n      jump\t// out\n        /* \"#utility.yul\":2526:2864   */\n    tag_294:\n        /* \"#utility.yul\":2581:2586   */\n      0x00\n        /* \"#utility.yul\":2630:2633   */\n      dup3\n        /* \"#utility.yul\":2623:2627   */\n      0x1f\n        /* \"#utility.yul\":2615:2621   */\n      dup4\n        /* \"#utility.yul\":2611:2628   */\n      add\n        /* \"#utility.yul\":2607:2634   */\n      slt\n        /* \"#utility.yul\":2597:2719   */\n      tag_327\n      jumpi\n        /* \"#utility.yul\":2638:2717   */\n      tag_328\n      tag_292\n      jump\t// in\n    tag_328:\n        /* \"#utility.yul\":2597:2719   */\n    tag_327:\n        /* \"#utility.yul\":2755:2761   */\n      dup2\n        /* \"#utility.yul\":2742:2762   */\n      calldataload\n        /* \"#utility.yul\":2780:2858   */\n      tag_329\n        /* \"#utility.yul\":2854:2857   */\n      dup5\n        /* \"#utility.yul\":2846:2852   */\n      dup3\n        /* \"#utility.yul\":2839:2843   */\n      0x20\n        /* \"#utility.yul\":2831:2837   */\n      dup7\n        /* \"#utility.yul\":2827:2844   */\n      add\n        /* \"#utility.yul\":2780:2858   */\n      tag_295\n      jump\t// in\n    tag_329:\n        /* \"#utility.yul\":2771:2858   */\n      swap2\n      pop\n        /* \"#utility.yul\":2587:2864   */\n      pop\n        /* \"#utility.yul\":2526:2864   */\n      swap3\n      swap2\n      pop\n      pop\n      jump\t// out\n        /* \"#utility.yul\":2884:3224   */\n    tag_330:\n        /* \"#utility.yul\":2940:2945   */\n      0x00\n        /* \"#utility.yul\":2989:2992   */\n      dup3\n        /* \"#utility.yul\":2982:2986   */\n      0x1f\n        /* \"#utility.yul\":2974:2980   */\n      dup4\n        /* \"#utility.yul\":2970:2987   */\n      add\n        /* \"#utility.yul\":2966:2993   */\n      slt\n        /* \"#utility.yul\":2956:3078   */\n      tag_332\n      jumpi\n        /* \"#utility.yul\":2997:3076   */\n      tag_333\n      tag_292\n      jump\t// in\n    tag_333:\n        /* \"#utility.yul\":2956:3078   */\n    tag_332:\n        /* \"#utility.yul\":3114:3120   */\n      dup2\n        /* \"#utility.yul\":3101:3121   */\n      calldataload\n        /* \"#utility.yul\":3139:3218   */\n      tag_334\n        /* \"#utility.yul\":3214:3217   */\n      dup5\n        /* \"#utility.yul\":3206:3212   */\n      dup3\n        /* \"#utility.yul\":3199:3203   */\n      0x20\n        /* \"#utility.yul\":3191:3197   */\n      dup7\n        /* \"#utility.yul\":3187:3204   */\n      add\n        /* \"#utility.yul\":3139:3218   */\n      tag_305\n      jump\t// in\n    tag_334:\n        /* \"#utility.yul\":3130:3218   */\n      swap2\n      pop\n        /* \"#utility.yul\":2946:3224   */\n      pop\n        /* \"#utility.yul\":2884:3224   */\n      swap3\n      swap2\n      pop\n      pop\n      jump\t// out\n        /* \"#utility.yul\":3230:3369   */\n    tag_335:\n        /* \"#utility.yul\":3276:3281   */\n      0x00\n        /* \"#utility.yul\":3314:3320   */\n      dup2\n        /* \"#utility.yul\":3301:3321   */\n      calldataload\n        /* \"#utility.yul\":3292:3321   */\n      swap1\n      pop\n        /* \"#utility.yul\":3330:3363   */\n      tag_337\n        /* \"#utility.yul\":3357:3362   */\n      dup2\n        /* \"#utility.yul\":3330:3363   */\n      tag_338\n      jump\t// in\n    tag_337:\n        /* \"#utility.yul\":3230:3369   */\n      swap3\n      swap2\n      pop\n      pop\n      jump\t// out\n        /* \"#utility.yul\":3375:4257   */\n    tag_30:\n        /* \"#utility.yul\":3487:3493   */\n      0x00\n        /* \"#utility.yul\":3495:3501   */\n      dup1\n        /* \"#utility.yul\":3544:3546   */\n      0x40\n        /* \"#utility.yul\":3532:3541   */\n      dup4\n        /* \"#utility.yul\":3523:3530   */\n      dup6\n        /* \"#utility.yul\":3519:3542   */\n      sub\n        /* \"#utility.yul\":3515:3547   */\n      slt\n        /* \"#utility.yul\":3512:3631   */\n      iszero\n      tag_340\n      jumpi\n        /* \"#utility.yul\":3550:3629   */\n      tag_341\n      tag_342\n      jump\t// in\n    tag_341:\n        /* \"#utility.yul\":3512:3631   */\n    tag_340:\n        /* \"#utility.yul\":3698:3699   */\n      0x00\n        /* \"#utility.yul\":3687:3696   */\n      dup4\n        /* \"#utility.yul\":3683:3700   */\n      add\n        /* \"#utility.yul\":3670:3701   */\n      calldataload\n        /* \"#utility.yul\":3728:3746   */\n      0xffffffffffffffff\n        /* \"#utility.yul\":3720:3726   */\n      dup2\n        /* \"#utility.yul\":3717:3747   */\n      gt\n        /* \"#utility.yul\":3714:3831   */\n      iszero\n      tag_343\n      jumpi\n        /* \"#utility.yul\":3750:3829   */\n      tag_344\n      tag_345\n      jump\t// in\n    tag_344:\n        /* \"#utility.yul\":3714:3831   */\n    tag_343:\n        /* \"#utility.yul\":3855:3942   */\n      tag_346\n        /* \"#utility.yul\":3934:3941   */\n      dup6\n        /* \"#utility.yul\":3925:3931   */\n      dup3\n        /* \"#utility.yul\":3914:3923   */\n      dup7\n        /* \"#utility.yul\":3910:3932   */\n      add\n        /* \"#utility.yul\":3855:3942   */\n      tag_313\n      jump\t// in\n    tag_346:\n        /* \"#utility.yul\":3845:3942   */\n      swap3\n      pop\n        /* \"#utility.yul\":3641:3952   */\n      pop\n        /* \"#utility.yul\":4019:4021   */\n      0x20\n        /* \"#utility.yul\":4008:4017   */\n      dup4\n        /* \"#utility.yul\":4004:4022   */\n      add\n        /* \"#utility.yul\":3991:4023   */\n      calldataload\n        /* \"#utility.yul\":4050:4068   */\n      0xffffffffffffffff\n        /* \"#utility.yul\":4042:4048   */\n      dup2\n        /* \"#utility.yul\":4039:4069   */\n      gt\n        /* \"#utility.yul\":4036:4153   */\n      iszero\n      tag_347\n      jumpi\n        /* \"#utility.yul\":4072:4151   */\n      tag_348\n      tag_345\n      jump\t// in\n    tag_348:\n        /* \"#utility.yul\":4036:4153   */\n    tag_347:\n        /* \"#utility.yul\":4177:4240   */\n      tag_349\n        /* \"#utility.yul\":4232:4239   */\n      dup6\n        /* \"#utility.yul\":4223:4229   */\n      dup3\n        /* \"#utility.yul\":4212:4221   */\n      dup7\n        /* \"#utility.yul\":4208:4230   */\n      add\n        /* \"#utility.yul\":4177:4240   */\n      tag_330\n      jump\t// in\n    tag_349:\n        /* \"#utility.yul\":4167:4240   */\n      swap2\n      pop\n        /* \"#utility.yul\":3962:4250   */\n      pop\n        /* \"#utility.yul\":3375:4257   */\n      swap3\n      pop\n      swap3\n      swap1\n      pop\n      jump\t// out\n        /* \"#utility.yul\":4263:4614   */\n    tag_131:\n        /* \"#utility.yul\":4333:4339   */\n      0x00\n        /* \"#utility.yul\":4382:4384   */\n      0x20\n        /* \"#utility.yul\":4370:4379   */\n      dup3\n        /* \"#utility.yul\":4361:4368   */\n      dup5\n        /* \"#utility.yul\":4357:4380   */\n      sub\n        /* \"#utility.yul\":4353:4385   */\n      slt\n        /* \"#utility.yul\":4350:4469   */\n      iszero\n      tag_351\n      jumpi\n        /* \"#utility.yul\":4388:4467   */\n      tag_352\n      tag_342\n      jump\t// in\n    tag_352:\n        /* \"#utility.yul\":4350:4469   */\n    tag_351:\n        /* \"#utility.yul\":4508:4509   */\n      0x00\n        /* \"#utility.yul\":4533:4597   */\n      tag_353\n        /* \"#utility.yul\":4589:4596   */\n      dup5\n        /* \"#utility.yul\":4580:4586   */\n      dup3\n        /* \"#utility.yul\":4569:4578   */\n      dup6\n        /* \"#utility.yul\":4565:4587   */\n      add\n        /* \"#utility.yul\":4533:4597   */\n      tag_322\n      jump\t// in\n    tag_353:\n        /* \"#utility.yul\":4523:4597   */\n      swap2\n      pop\n        /* \"#utility.yul\":4479:4607   */\n      pop\n        /* \"#utility.yul\":4263:4614   */\n      swap3\n      swap2\n      pop\n      pop\n      jump\t// out\n        /* \"#utility.yul\":4620:5129   */\n    tag_15:\n        /* \"#utility.yul\":4689:4695   */\n      0x00\n        /* \"#utility.yul\":4738:4740   */\n      0x20\n        /* \"#utility.yul\":4726:4735   */\n      dup3\n        /* \"#utility.yul\":4717:4724   */\n      dup5\n        /* \"#utility.yul\":4713:4736   */\n      sub\n        /* \"#utility.yul\":4709:4741   */\n      slt\n        /* \"#utility.yul\":4706:4825   */\n      iszero\n      tag_355\n      jumpi\n        /* \"#utility.yul\":4744:4823   */\n      tag_356\n      tag_342\n      jump\t// in\n    tag_356:\n        /* \"#utility.yul\":4706:4825   */\n    tag_355:\n        /* \"#utility.yul\":4892:4893   */\n      0x00\n        /* \"#utility.yul\":4881:4890   */\n      dup3\n        /* \"#utility.yul\":4877:4894   */\n      add\n        /* \"#utility.yul\":4864:4895   */\n      calldataload\n        /* \"#utility.yul\":4922:4940   */\n      0xffffffffffffffff\n        /* \"#utility.yul\":4914:4920   */\n      dup2\n        /* \"#utility.yul\":4911:4941   */\n      gt\n        /* \"#utility.yul\":4908:5025   */\n      iszero\n      tag_357\n      jumpi\n        /* \"#utility.yul\":4944:5023   */\n      tag_358\n      tag_345\n      jump\t// in\n    tag_358:\n        /* \"#utility.yul\":4908:5025   */\n    tag_357:\n        /* \"#utility.yul\":5049:5112   */\n      tag_359\n        /* \"#utility.yul\":5104:5111   */\n      dup5\n        /* \"#utility.yul\":5095:5101   */\n      dup3\n        /* \"#utility.yul\":5084:5093   */\n      dup6\n        /* \"#utility.yul\":5080:5102   */\n      add\n        /* \"#utility.yul\":5049:5112   */\n      tag_330\n      jump\t// in\n    tag_359:\n        /* \"#utility.yul\":5039:5112   */\n      swap2\n      pop\n        /* \"#utility.yul\":4835:5122   */\n      pop\n        /* \"#utility.yul\":4620:5129   */\n      swap3\n      swap2\n      pop\n      pop\n      jump\t// out\n        /* \"#utility.yul\":5135:5464   */\n    tag_11:\n        /* \"#utility.yul\":5194:5200   */\n      0x00\n        /* \"#utility.yul\":5243:5245   */\n      0x20\n        /* \"#utility.yul\":5231:5240   */\n      dup3\n        /* \"#utility.yul\":5222:5229   */\n      dup5\n        /* \"#utility.yul\":5218:5241   */\n      sub\n        /* \"#utility.yul\":5214:5246   */\n      slt\n        /* \"#utility.yul\":5211:5330   */\n      iszero\n      tag_361\n      jumpi\n        /* \"#utility.yul\":5249:5328   */\n      tag_362\n      tag_342\n      jump\t// in\n    tag_362:\n        /* \"#utility.yul\":5211:5330   */\n    tag_361:\n        /* \"#utility.yul\":5369:5370   */\n      0x00\n        /* \"#utility.yul\":5394:5447   */\n      tag_363\n        /* \"#utility.yul\":5439:5446   */\n      dup5\n        /* \"#utility.yul\":5430:5436   */\n      dup3\n        /* \"#utility.yul\":5419:5428   */\n      dup6\n        /* \"#utility.yul\":5415:5437   */\n      add\n        /* \"#utility.yul\":5394:5447   */\n      tag_335\n      jump\t// in\n    tag_363:\n        /* \"#utility.yul\":5384:5447   */\n      swap2\n      pop\n        /* \"#utility.yul\":5340:5457   */\n      pop\n        /* \"#utility.yul\":5135:5464   */\n      swap3\n      swap2\n      pop\n      pop\n      jump\t// out\n        /* \"#utility.yul\":5470:5938   */\n    tag_25:\n        /* \"#utility.yul\":5535:5541   */\n      0x00\n        /* \"#utility.yul\":5543:5549   */\n      dup1\n        /* \"#utility.yul\":5592:5594   */\n      0x40\n        /* \"#utility.yul\":5580:5589   */\n      dup4\n        /* \"#utility.yul\":5571:5578   */\n      dup6\n        /* \"#utility.yul\":5567:5590   */\n      sub\n        /* \"#utility.yul\":5563:5595   */\n      slt\n        /* \"#utility.yul\":5560:5679   */\n      iszero\n      tag_365\n      jumpi\n        /* \"#utility.yul\":5598:5677   */\n      tag_366\n      tag_342\n      jump\t// in\n    tag_366:\n        /* \"#utility.yul\":5560:5679   */\n    tag_365:\n        /* \"#utility.yul\":5718:5719   */\n      0x00\n        /* \"#utility.yul\":5743:5796   */\n      tag_367\n        /* \"#utility.yul\":5788:5795   */\n      dup6\n        /* \"#utility.yul\":5779:5785   */\n      dup3\n        /* \"#utility.yul\":5768:5777   */\n      dup7\n        /* \"#utility.yul\":5764:5786   */\n      add\n        /* \"#utility.yul\":5743:5796   */\n      tag_335\n      jump\t// in\n    tag_367:\n        /* \"#utility.yul\":5733:5796   */\n      swap3\n      pop\n        /* \"#utility.yul\":5689:5806   */\n      pop\n        /* \"#utility.yul\":5845:5847   */\n      0x20\n        /* \"#utility.yul\":5871:5921   */\n      tag_368\n        /* \"#utility.yul\":5913:5920   */\n      dup6\n        /* \"#utility.yul\":5904:5910   */\n      dup3\n        /* \"#utility.yul\":5893:5902   */\n      dup7\n        /* \"#utility.yul\":5889:5911   */\n      add\n        /* \"#utility.yul\":5871:5921   */\n      tag_318\n      jump\t// in\n    tag_368:\n        /* \"#utility.yul\":5861:5921   */\n      swap2\n      pop\n        /* \"#utility.yul\":5816:5931   */\n      pop\n        /* \"#utility.yul\":5470:5938   */\n      swap3\n      pop\n      swap3\n      swap1\n      pop\n      jump\t// out\n        /* \"#utility.yul\":5944:6101   */\n    tag_369:\n        /* \"#utility.yul\":6049:6094   */\n      tag_371\n        /* \"#utility.yul\":6069:6093   */\n      tag_372\n        /* \"#utility.yul\":6087:6092   */\n      dup3\n        /* \"#utility.yul\":6069:6093   */\n      tag_373\n      jump\t// in\n    tag_372:\n        /* \"#utility.yul\":6049:6094   */\n      tag_374\n      jump\t// in\n    tag_371:\n        /* \"#utility.yul\":6044:6047   */\n      dup3\n        /* \"#utility.yul\":6037:6095   */\n      mstore\n        /* \"#utility.yul\":5944:6101   */\n      pop\n      pop\n      jump\t// out\n        /* \"#utility.yul\":6107:6480   */\n    tag_375:\n        /* \"#utility.yul\":6211:6214   */\n      0x00\n        /* \"#utility.yul\":6239:6277   */\n      tag_377\n        /* \"#utility.yul\":6271:6276   */\n      dup3\n        /* \"#utility.yul\":6239:6277   */\n      tag_378\n      jump\t// in\n    tag_377:\n        /* \"#utility.yul\":6293:6381   */\n      tag_379\n        /* \"#utility.yul\":6374:6380   */\n      dup2\n        /* \"#utility.yul\":6369:6372   */\n      dup6\n        /* \"#utility.yul\":6293:6381   */\n      tag_380\n      jump\t// in\n    tag_379:\n        /* \"#utility.yul\":6286:6381   */\n      swap4\n      pop\n        /* \"#utility.yul\":6390:6442   */\n      tag_381\n        /* \"#utility.yul\":6435:6441   */\n      dup2\n        /* \"#utility.yul\":6430:6433   */\n      dup6\n        /* \"#utility.yul\":6423:6427   */\n      0x20\n        /* \"#utility.yul\":6416:6421   */\n      dup7\n        /* \"#utility.yul\":6412:6428   */\n      add\n        /* \"#utility.yul\":6390:6442   */\n      tag_382\n      jump\t// in\n    tag_381:\n        /* \"#utility.yul\":6467:6473   */\n      dup1\n        /* \"#utility.yul\":6462:6465   */\n      dup5\n        /* \"#utility.yul\":6458:6474   */\n      add\n        /* \"#utility.yul\":6451:6474   */\n      swap2\n      pop\n        /* \"#utility.yul\":6215:6480   */\n      pop\n        /* \"#utility.yul\":6107:6480   */\n      swap3\n      swap2\n      pop\n      pop\n      jump\t// out\n        /* \"#utility.yul\":6510:7355   */\n    tag_383:\n        /* \"#utility.yul\":6613:6616   */\n      0x00\n        /* \"#utility.yul\":6650:6655   */\n      dup2\n        /* \"#utility.yul\":6644:6656   */\n      sload\n        /* \"#utility.yul\":6679:6715   */\n      tag_385\n        /* \"#utility.yul\":6705:6714   */\n      dup2\n        /* \"#utility.yul\":6679:6715   */\n      tag_267\n      jump\t// in\n    tag_385:\n        /* \"#utility.yul\":6731:6820   */\n      tag_386\n        /* \"#utility.yul\":6813:6819   */\n      dup2\n        /* \"#utility.yul\":6808:6811   */\n      dup7\n        /* \"#utility.yul\":6731:6820   */\n      tag_387\n      jump\t// in\n    tag_386:\n        /* \"#utility.yul\":6724:6820   */\n      swap5\n      pop\n        /* \"#utility.yul\":6851:6852   */\n      0x01\n        /* \"#utility.yul\":6840:6849   */\n      dup3\n        /* \"#utility.yul\":6836:6853   */\n      and\n        /* \"#utility.yul\":6867:6868   */\n      0x00\n        /* \"#utility.yul\":6862:6999   */\n      dup2\n      eq\n      tag_389\n      jumpi\n        /* \"#utility.yul\":7013:7014   */\n      0x01\n        /* \"#utility.yul\":7008:7349   */\n      dup2\n      eq\n      tag_390\n      jumpi\n        /* \"#utility.yul\":6829:7349   */\n      jump(tag_388)\n        /* \"#utility.yul\":6862:6999   */\n    tag_389:\n        /* \"#utility.yul\":6946:6950   */\n      0xff\n        /* \"#utility.yul\":6942:6951   */\n      not\n        /* \"#utility.yul\":6931:6940   */\n      dup4\n        /* \"#utility.yul\":6927:6952   */\n      and\n        /* \"#utility.yul\":6922:6925   */\n      dup7\n        /* \"#utility.yul\":6915:6953   */\n      mstore\n        /* \"#utility.yul\":6982:6988   */\n      dup2\n        /* \"#utility.yul\":6977:6980   */\n      dup7\n        /* \"#utility.yul\":6973:6989   */\n      add\n        /* \"#utility.yul\":6966:6989   */\n      swap4\n      pop\n        /* \"#utility.yul\":6862:6999   */\n      jump(tag_388)\n        /* \"#utility.yul\":7008:7349   */\n    tag_390:\n        /* \"#utility.yul\":7075:7113   */\n      tag_391\n        /* \"#utility.yul\":7107:7112   */\n      dup6\n        /* \"#utility.yul\":7075:7113   */\n      tag_392\n      jump\t// in\n    tag_391:\n        /* \"#utility.yul\":7135:7136   */\n      0x00\n        /* \"#utility.yul\":7149:7303   */\n    tag_393:\n        /* \"#utility.yul\":7163:7169   */\n      dup4\n        /* \"#utility.yul\":7160:7161   */\n      dup2\n        /* \"#utility.yul\":7157:7170   */\n      lt\n        /* \"#utility.yul\":7149:7303   */\n      iszero\n      tag_395\n      jumpi\n        /* \"#utility.yul\":7237:7244   */\n      dup2\n        /* \"#utility.yul\":7231:7245   */\n      sload\n        /* \"#utility.yul\":7227:7228   */\n      dup2\n        /* \"#utility.yul\":7222:7225   */\n      dup10\n        /* \"#utility.yul\":7218:7229   */\n      add\n        /* \"#utility.yul\":7211:7246   */\n      mstore\n        /* \"#utility.yul\":7287:7288   */\n      0x01\n        /* \"#utility.yul\":7278:7285   */\n      dup3\n        /* \"#utility.yul\":7274:7289   */\n      add\n        /* \"#utility.yul\":7263:7289   */\n      swap2\n      pop\n        /* \"#utility.yul\":7185:7189   */\n      0x20\n        /* \"#utility.yul\":7182:7183   */\n      dup2\n        /* \"#utility.yul\":7178:7190   */\n      add\n        /* \"#utility.yul\":7173:7190   */\n      swap1\n      pop\n        /* \"#utility.yul\":7149:7303   */\n      jump(tag_393)\n    tag_395:\n        /* \"#utility.yul\":7332:7338   */\n      dup4\n        /* \"#utility.yul\":7327:7330   */\n      dup9\n        /* \"#utility.yul\":7323:7339   */\n      add\n        /* \"#utility.yul\":7316:7339   */\n      swap6\n      pop\n        /* \"#utility.yul\":7015:7349   */\n      pop\n      pop\n        /* \"#utility.yul\":6829:7349   */\n    tag_388:\n      pop\n        /* \"#utility.yul\":6617:7355   */\n      pop\n      pop\n        /* \"#utility.yul\":6510:7355   */\n      swap3\n      swap2\n      pop\n      pop\n      jump\t// out\n        /* \"#utility.yul\":7361:7727   */\n    tag_396:\n        /* \"#utility.yul\":7503:7506   */\n      0x00\n        /* \"#utility.yul\":7524:7591   */\n      tag_398\n        /* \"#utility.yul\":7588:7590   */\n      0x18\n        /* \"#utility.yul\":7583:7586   */\n      dup4\n        /* \"#utility.yul\":7524:7591   */\n      tag_399\n      jump\t// in\n    tag_398:\n        /* \"#utility.yul\":7517:7591   */\n      swap2\n      pop\n        /* \"#utility.yul\":7600:7693   */\n      tag_400\n        /* \"#utility.yul\":7689:7692   */\n      dup3\n        /* \"#utility.yul\":7600:7693   */\n      tag_401\n      jump\t// in\n    tag_400:\n        /* \"#utility.yul\":7718:7720   */\n      0x20\n        /* \"#utility.yul\":7713:7716   */\n      dup3\n        /* \"#utility.yul\":7709:7721   */\n      add\n        /* \"#utility.yul\":7702:7721   */\n      swap1\n      pop\n        /* \"#utility.yul\":7361:7727   */\n      swap2\n      swap1\n      pop\n      jump\t// out\n        /* \"#utility.yul\":7733:8099   */\n    tag_402:\n        /* \"#utility.yul\":7875:7878   */\n      0x00\n        /* \"#utility.yul\":7896:7963   */\n      tag_404\n        /* \"#utility.yul\":7960:7962   */\n      0x11\n        /* \"#utility.yul\":7955:7958   */\n      dup4\n        /* \"#utility.yul\":7896:7963   */\n      tag_399\n      jump\t// in\n    tag_404:\n        /* \"#utility.yul\":7889:7963   */\n      swap2\n      pop\n        /* \"#utility.yul\":7972:8065   */\n      tag_405\n        /* \"#utility.yul\":8061:8064   */\n      dup3\n        /* \"#utility.yul\":7972:8065   */\n      tag_406\n      jump\t// in\n    tag_405:\n        /* \"#utility.yul\":8090:8092   */\n      0x20\n        /* \"#utility.yul\":8085:8088   */\n      dup3\n        /* \"#utility.yul\":8081:8093   */\n      add\n        /* \"#utility.yul\":8074:8093   */\n      swap1\n      pop\n        /* \"#utility.yul\":7733:8099   */\n      swap2\n      swap1\n      pop\n      jump\t// out\n        /* \"#utility.yul\":8105:8471   */\n    tag_407:\n        /* \"#utility.yul\":8247:8250   */\n      0x00\n        /* \"#utility.yul\":8268:8335   */\n      tag_409\n        /* \"#utility.yul\":8332:8334   */\n      0x12\n        /* \"#utility.yul\":8327:8330   */\n      dup4\n        /* \"#utility.yul\":8268:8335   */\n      tag_399\n      jump\t// in\n    tag_409:\n        /* \"#utility.yul\":8261:8335   */\n      swap2\n      pop\n        /* \"#utility.yul\":8344:8437   */\n      tag_410\n        /* \"#utility.yul\":8433:8436   */\n      dup3\n        /* \"#utility.yul\":8344:8437   */\n      tag_411\n      jump\t// in\n    tag_410:\n        /* \"#utility.yul\":8462:8464   */\n      0x20\n        /* \"#utility.yul\":8457:8460   */\n      dup3\n        /* \"#utility.yul\":8453:8465   */\n      add\n        /* \"#utility.yul\":8446:8465   */\n      swap1\n      pop\n        /* \"#utility.yul\":8105:8471   */\n      swap2\n      swap1\n      pop\n      jump\t// out\n        /* \"#utility.yul\":8477:8843   */\n    tag_412:\n        /* \"#utility.yul\":8619:8622   */\n      0x00\n        /* \"#utility.yul\":8640:8707   */\n      tag_414\n        /* \"#utility.yul\":8704:8706   */\n      0x28\n        /* \"#utility.yul\":8699:8702   */\n      dup4\n        /* \"#utility.yul\":8640:8707   */\n      tag_399\n      jump\t// in\n    tag_414:\n        /* \"#utility.yul\":8633:8707   */\n      swap2\n      pop\n        /* \"#utility.yul\":8716:8809   */\n      tag_415\n        /* \"#utility.yul\":8805:8808   */\n      dup3\n        /* \"#utility.yul\":8716:8809   */\n      tag_416\n      jump\t// in\n    tag_415:\n        /* \"#utility.yul\":8834:8836   */\n      0x40\n        /* \"#utility.yul\":8829:8832   */\n      dup3\n        /* \"#utility.yul\":8825:8837   */\n      add\n        /* \"#utility.yul\":8818:8837   */\n      swap1\n      pop\n        /* \"#utility.yul\":8477:8843   */\n      swap2\n      swap1\n      pop\n      jump\t// out\n        /* \"#utility.yul\":8849:9215   */\n    tag_417:\n        /* \"#utility.yul\":8991:8994   */\n      0x00\n        /* \"#utility.yul\":9012:9079   */\n      tag_419\n        /* \"#utility.yul\":9076:9078   */\n      0x0e\n        /* \"#utility.yul\":9071:9074   */\n      dup4\n        /* \"#utility.yul\":9012:9079   */\n      tag_399\n      jump\t// in\n    tag_419:\n        /* \"#utility.yul\":9005:9079   */\n      swap2\n      pop\n        /* \"#utility.yul\":9088:9181   */\n      tag_420\n        /* \"#utility.yul\":9177:9180   */\n      dup3\n        /* \"#utility.yul\":9088:9181   */\n      tag_421\n      jump\t// in\n    tag_420:\n        /* \"#utility.yul\":9206:9208   */\n      0x20\n        /* \"#utility.yul\":9201:9204   */\n      dup3\n        /* \"#utility.yul\":9197:9209   */\n      add\n        /* \"#utility.yul\":9190:9209   */\n      swap1\n      pop\n        /* \"#utility.yul\":8849:9215   */\n      swap2\n      swap1\n      pop\n      jump\t// out\n        /* \"#utility.yul\":9221:9587   */\n    tag_422:\n        /* \"#utility.yul\":9363:9366   */\n      0x00\n        /* \"#utility.yul\":9384:9451   */\n      tag_424\n        /* \"#utility.yul\":9448:9450   */\n      0x21\n        /* \"#utility.yul\":9443:9446   */\n      dup4\n        /* \"#utility.yul\":9384:9451   */\n      tag_399\n      jump\t// in\n    tag_424:\n        /* \"#utility.yul\":9377:9451   */\n      swap2\n      pop\n        /* \"#utility.yul\":9460:9553   */\n      tag_425\n        /* \"#utility.yul\":9549:9552   */\n      dup3\n        /* \"#utility.yul\":9460:9553   */\n      tag_426\n      jump\t// in\n    tag_425:\n        /* \"#utility.yul\":9578:9580   */\n      0x40\n        /* \"#utility.yul\":9573:9576   */\n      dup3\n        /* \"#utility.yul\":9569:9581   */\n      add\n        /* \"#utility.yul\":9562:9581   */\n      swap1\n      pop\n        /* \"#utility.yul\":9221:9587   */\n      swap2\n      swap1\n      pop\n      jump\t// out\n        /* \"#utility.yul\":9593:9959   */\n    tag_427:\n        /* \"#utility.yul\":9735:9738   */\n      0x00\n        /* \"#utility.yul\":9756:9823   */\n      tag_429\n        /* \"#utility.yul\":9820:9822   */\n      0x1e\n        /* \"#utility.yul\":9815:9818   */\n      dup4\n        /* \"#utility.yul\":9756:9823   */\n      tag_399\n      jump\t// in\n    tag_429:\n        /* \"#utility.yul\":9749:9823   */\n      swap2\n      pop\n        /* \"#utility.yul\":9832:9925   */\n      tag_430\n        /* \"#utility.yul\":9921:9924   */\n      dup3\n        /* \"#utility.yul\":9832:9925   */\n      tag_431\n      jump\t// in\n    tag_430:\n        /* \"#utility.yul\":9950:9952   */\n      0x20\n        /* \"#utility.yul\":9945:9948   */\n      dup3\n        /* \"#utility.yul\":9941:9953   */\n      add\n        /* \"#utility.yul\":9934:9953   */\n      swap1\n      pop\n        /* \"#utility.yul\":9593:9959   */\n      swap2\n      swap1\n      pop\n      jump\t// out\n        /* \"#utility.yul\":9965:10331   */\n    tag_432:\n        /* \"#utility.yul\":10107:10110   */\n      0x00\n        /* \"#utility.yul\":10128:10195   */\n      tag_434\n        /* \"#utility.yul\":10192:10194   */\n      0x28\n        /* \"#utility.yul\":10187:10190   */\n      dup4\n        /* \"#utility.yul\":10128:10195   */\n      tag_399\n      jump\t// in\n    tag_434:\n        /* \"#utility.yul\":10121:10195   */\n      swap2\n      pop\n        /* \"#utility.yul\":10204:10297   */\n      tag_435\n        /* \"#utility.yul\":10293:10296   */\n      dup3\n        /* \"#utility.yul\":10204:10297   */\n      tag_436\n      jump\t// in\n    tag_435:\n        /* \"#utility.yul\":10322:10324   */\n      0x40\n        /* \"#utility.yul\":10317:10320   */\n      dup3\n        /* \"#utility.yul\":10313:10325   */\n      add\n        /* \"#utility.yul\":10306:10325   */\n      swap1\n      pop\n        /* \"#utility.yul\":9965:10331   */\n      swap2\n      swap1\n      pop\n      jump\t// out\n        /* \"#utility.yul\":10337:10455   */\n    tag_437:\n        /* \"#utility.yul\":10424:10448   */\n      tag_439\n        /* \"#utility.yul\":10442:10447   */\n      dup2\n        /* \"#utility.yul\":10424:10448   */\n      tag_440\n      jump\t// in\n    tag_439:\n        /* \"#utility.yul\":10419:10422   */\n      dup3\n        /* \"#utility.yul\":10412:10449   */\n      mstore\n        /* \"#utility.yul\":10337:10455   */\n      pop\n      pop\n      jump\t// out\n        /* \"#utility.yul\":10461:10618   */\n    tag_441:\n        /* \"#utility.yul\":10566:10611   */\n      tag_443\n        /* \"#utility.yul\":10586:10610   */\n      tag_444\n        /* \"#utility.yul\":10604:10609   */\n      dup3\n        /* \"#utility.yul\":10586:10610   */\n      tag_440\n      jump\t// in\n    tag_444:\n        /* \"#utility.yul\":10566:10611   */\n      tag_445\n      jump\t// in\n    tag_443:\n        /* \"#utility.yul\":10561:10564   */\n      dup3\n        /* \"#utility.yul\":10554:10612   */\n      mstore\n        /* \"#utility.yul\":10461:10618   */\n      pop\n      pop\n      jump\t// out\n        /* \"#utility.yul\":10624:10895   */\n    tag_127:\n        /* \"#utility.yul\":10754:10757   */\n      0x00\n        /* \"#utility.yul\":10776:10869   */\n      tag_447\n        /* \"#utility.yul\":10865:10868   */\n      dup3\n        /* \"#utility.yul\":10856:10862   */\n      dup5\n        /* \"#utility.yul\":10776:10869   */\n      tag_375\n      jump\t// in\n    tag_447:\n        /* \"#utility.yul\":10769:10869   */\n      swap2\n      pop\n        /* \"#utility.yul\":10886:10889   */\n      dup2\n        /* \"#utility.yul\":10879:10889   */\n      swap1\n      pop\n        /* \"#utility.yul\":10624:10895   */\n      swap3\n      swap2\n      pop\n      pop\n      jump\t// out\n        /* \"#utility.yul\":10901:11170   */\n    tag_97:\n        /* \"#utility.yul\":11030:11033   */\n      0x00\n        /* \"#utility.yul\":11052:11144   */\n      tag_449\n        /* \"#utility.yul\":11140:11143   */\n      dup3\n        /* \"#utility.yul\":11131:11137   */\n      dup5\n        /* \"#utility.yul\":11052:11144   */\n      tag_383\n      jump\t// in\n    tag_449:\n        /* \"#utility.yul\":11045:11144   */\n      swap2\n      pop\n        /* \"#utility.yul\":11161:11164   */\n      dup2\n        /* \"#utility.yul\":11154:11164   */\n      swap1\n      pop\n        /* \"#utility.yul\":10901:11170   */\n      swap3\n      swap2\n      pop\n      pop\n      jump\t// out\n        /* \"#utility.yul\":11176:11432   */\n    tag_238:\n        /* \"#utility.yul\":11288:11291   */\n      0x00\n        /* \"#utility.yul\":11303:11378   */\n      tag_451\n        /* \"#utility.yul\":11374:11377   */\n      dup3\n        /* \"#utility.yul\":11365:11371   */\n      dup5\n        /* \"#utility.yul\":11303:11378   */\n      tag_441\n      jump\t// in\n    tag_451:\n        /* \"#utility.yul\":11403:11405   */\n      0x20\n        /* \"#utility.yul\":11398:11401   */\n      dup3\n        /* \"#utility.yul\":11394:11406   */\n      add\n        /* \"#utility.yul\":11387:11406   */\n      swap2\n      pop\n        /* \"#utility.yul\":11423:11426   */\n      dup2\n        /* \"#utility.yul\":11416:11426   */\n      swap1\n      pop\n        /* \"#utility.yul\":11176:11432   */\n      swap3\n      swap2\n      pop\n      pop\n      jump\t// out\n        /* \"#utility.yul\":11438:12117   */\n    tag_125:\n        /* \"#utility.yul\":11634:11637   */\n      0x00\n        /* \"#utility.yul\":11649:11724   */\n      tag_453\n        /* \"#utility.yul\":11720:11723   */\n      dup3\n        /* \"#utility.yul\":11711:11717   */\n      dup8\n        /* \"#utility.yul\":11649:11724   */\n      tag_441\n      jump\t// in\n    tag_453:\n        /* \"#utility.yul\":11749:11751   */\n      0x20\n        /* \"#utility.yul\":11744:11747   */\n      dup3\n        /* \"#utility.yul\":11740:11752   */\n      add\n        /* \"#utility.yul\":11733:11752   */\n      swap2\n      pop\n        /* \"#utility.yul\":11762:11837   */\n      tag_454\n        /* \"#utility.yul\":11833:11836   */\n      dup3\n        /* \"#utility.yul\":11824:11830   */\n      dup7\n        /* \"#utility.yul\":11762:11837   */\n      tag_441\n      jump\t// in\n    tag_454:\n        /* \"#utility.yul\":11862:11864   */\n      0x20\n        /* \"#utility.yul\":11857:11860   */\n      dup3\n        /* \"#utility.yul\":11853:11865   */\n      add\n        /* \"#utility.yul\":11846:11865   */\n      swap2\n      pop\n        /* \"#utility.yul\":11875:11950   */\n      tag_455\n        /* \"#utility.yul\":11946:11949   */\n      dup3\n        /* \"#utility.yul\":11937:11943   */\n      dup6\n        /* \"#utility.yul\":11875:11950   */\n      tag_369\n      jump\t// in\n    tag_455:\n        /* \"#utility.yul\":11975:11977   */\n      0x14\n        /* \"#utility.yul\":11970:11973   */\n      dup3\n        /* \"#utility.yul\":11966:11978   */\n      add\n        /* \"#utility.yul\":11959:11978   */\n      swap2\n      pop\n        /* \"#utility.yul\":11988:12063   */\n      tag_456\n        /* \"#utility.yul\":12059:12062   */\n      dup3\n        /* \"#utility.yul\":12050:12056   */\n      dup5\n        /* \"#utility.yul\":11988:12063   */\n      tag_441\n      jump\t// in\n    tag_456:\n        /* \"#utility.yul\":12088:12090   */\n      0x20\n        /* \"#utility.yul\":12083:12086   */\n      dup3\n        /* \"#utility.yul\":12079:12091   */\n      add\n        /* \"#utility.yul\":12072:12091   */\n      swap2\n      pop\n        /* \"#utility.yul\":12108:12111   */\n      dup2\n        /* \"#utility.yul\":12101:12111   */\n      swap1\n      pop\n        /* \"#utility.yul\":11438:12117   */\n      swap6\n      swap5\n      pop\n      pop\n      pop\n      pop\n      pop\n      jump\t// out\n        /* \"#utility.yul\":12123:12542   */\n    tag_53:\n        /* \"#utility.yul\":12289:12293   */\n      0x00\n        /* \"#utility.yul\":12327:12329   */\n      0x20\n        /* \"#utility.yul\":12316:12325   */\n      dup3\n        /* \"#utility.yul\":12312:12330   */\n      add\n        /* \"#utility.yul\":12304:12330   */\n      swap1\n      pop\n        /* \"#utility.yul\":12376:12385   */\n      dup2\n        /* \"#utility.yul\":12370:12374   */\n      dup2\n        /* \"#utility.yul\":12366:12386   */\n      sub\n        /* \"#utility.yul\":12362:12363   */\n      0x00\n        /* \"#utility.yul\":12351:12360   */\n      dup4\n        /* \"#utility.yul\":12347:12364   */\n      add\n        /* \"#utility.yul\":12340:12387   */\n      mstore\n        /* \"#utility.yul\":12404:12535   */\n      tag_458\n        /* \"#utility.yul\":12530:12534   */\n      dup2\n        /* \"#utility.yul\":12404:12535   */\n      tag_396\n      jump\t// in\n    tag_458:\n        /* \"#utility.yul\":12396:12535   */\n      swap1\n      pop\n        /* \"#utility.yul\":12123:12542   */\n      swap2\n      swap1\n      pop\n      jump\t// out\n        /* \"#utility.yul\":12548:12967   */\n    tag_173:\n        /* \"#utility.yul\":12714:12718   */\n      0x00\n        /* \"#utility.yul\":12752:12754   */\n      0x20\n        /* \"#utility.yul\":12741:12750   */\n      dup3\n        /* \"#utility.yul\":12737:12755   */\n      add\n        /* \"#utility.yul\":12729:12755   */\n      swap1\n      pop\n        /* \"#utility.yul\":12801:12810   */\n      dup2\n        /* \"#utility.yul\":12795:12799   */\n      dup2\n        /* \"#utility.yul\":12791:12811   */\n      sub\n        /* \"#utility.yul\":12787:12788   */\n      0x00\n        /* \"#utility.yul\":12776:12785   */\n      dup4\n        /* \"#utility.yul\":12772:12789   */\n      add\n        /* \"#utility.yul\":12765:12812   */\n      mstore\n        /* \"#utility.yul\":12829:12960   */\n      tag_460\n        /* \"#utility.yul\":12955:12959   */\n      dup2\n        /* \"#utility.yul\":12829:12960   */\n      tag_402\n      jump\t// in\n    tag_460:\n        /* \"#utility.yul\":12821:12960   */\n      swap1\n      pop\n        /* \"#utility.yul\":12548:12967   */\n      swap2\n      swap1\n      pop\n      jump\t// out\n        /* \"#utility.yul\":12973:13392   */\n    tag_154:\n        /* \"#utility.yul\":13139:13143   */\n      0x00\n        /* \"#utility.yul\":13177:13179   */\n      0x20\n        /* \"#utility.yul\":13166:13175   */\n      dup3\n        /* \"#utility.yul\":13162:13180   */\n      add\n        /* \"#utility.yul\":13154:13180   */\n      swap1\n      pop\n        /* \"#utility.yul\":13226:13235   */\n      dup2\n        /* \"#utility.yul\":13220:13224   */\n      dup2\n        /* \"#utility.yul\":13216:13236   */\n      sub\n        /* \"#utility.yul\":13212:13213   */\n      0x00\n        /* \"#utility.yul\":13201:13210   */\n      dup4\n        /* \"#utility.yul\":13197:13214   */\n      add\n        /* \"#utility.yul\":13190:13237   */\n      mstore\n        /* \"#utility.yul\":13254:13385   */\n      tag_462\n        /* \"#utility.yul\":13380:13384   */\n      dup2\n        /* \"#utility.yul\":13254:13385   */\n      tag_407\n      jump\t// in\n    tag_462:\n        /* \"#utility.yul\":13246:13385   */\n      swap1\n      pop\n        /* \"#utility.yul\":12973:13392   */\n      swap2\n      swap1\n      pop\n      jump\t// out\n        /* \"#utility.yul\":13398:13817   */\n    tag_151:\n        /* \"#utility.yul\":13564:13568   */\n      0x00\n        /* \"#utility.yul\":13602:13604   */\n      0x20\n        /* \"#utility.yul\":13591:13600   */\n      dup3\n        /* \"#utility.yul\":13587:13605   */\n      add\n        /* \"#utility.yul\":13579:13605   */\n      swap1\n      pop\n        /* \"#utility.yul\":13651:13660   */\n      dup2\n        /* \"#utility.yul\":13645:13649   */\n      dup2\n        /* \"#utility.yul\":13641:13661   */\n      sub\n        /* \"#utility.yul\":13637:13638   */\n      0x00\n        /* \"#utility.yul\":13626:13635   */\n      dup4\n        /* \"#utility.yul\":13622:13639   */\n      add\n        /* \"#utility.yul\":13615:13662   */\n      mstore\n        /* \"#utility.yul\":13679:13810   */\n      tag_464\n        /* \"#utility.yul\":13805:13809   */\n      dup2\n        /* \"#utility.yul\":13679:13810   */\n      tag_412\n      jump\t// in\n    tag_464:\n        /* \"#utility.yul\":13671:13810   */\n      swap1\n      pop\n        /* \"#utility.yul\":13398:13817   */\n      swap2\n      swap1\n      pop\n      jump\t// out\n        /* \"#utility.yul\":13823:14242   */\n    tag_227:\n        /* \"#utility.yul\":13989:13993   */\n      0x00\n        /* \"#utility.yul\":14027:14029   */\n      0x20\n        /* \"#utility.yul\":14016:14025   */\n      dup3\n        /* \"#utility.yul\":14012:14030   */\n      add\n        /* \"#utility.yul\":14004:14030   */\n      swap1\n      pop\n        /* \"#utility.yul\":14076:14085   */\n      dup2\n        /* \"#utility.yul\":14070:14074   */\n      dup2\n        /* \"#utility.yul\":14066:14086   */\n      sub\n        /* \"#utility.yul\":14062:14063   */\n      0x00\n        /* \"#utility.yul\":14051:14060   */\n      dup4\n        /* \"#utility.yul\":14047:14064   */\n      add\n        /* \"#utility.yul\":14040:14087   */\n      mstore\n        /* \"#utility.yul\":14104:14235   */\n      tag_466\n        /* \"#utility.yul\":14230:14234   */\n      dup2\n        /* \"#utility.yul\":14104:14235   */\n      tag_417\n      jump\t// in\n    tag_466:\n        /* \"#utility.yul\":14096:14235   */\n      swap1\n      pop\n        /* \"#utility.yul\":13823:14242   */\n      swap2\n      swap1\n      pop\n      jump\t// out\n        /* \"#utility.yul\":14248:14667   */\n    tag_167:\n        /* \"#utility.yul\":14414:14418   */\n      0x00\n        /* \"#utility.yul\":14452:14454   */\n      0x20\n        /* \"#utility.yul\":14441:14450   */\n      dup3\n        /* \"#utility.yul\":14437:14455   */\n      add\n        /* \"#utility.yul\":14429:14455   */\n      swap1\n      pop\n        /* \"#utility.yul\":14501:14510   */\n      dup2\n        /* \"#utility.yul\":14495:14499   */\n      dup2\n        /* \"#utility.yul\":14491:14511   */\n      sub\n        /* \"#utility.yul\":14487:14488   */\n      0x00\n        /* \"#utility.yul\":14476:14485   */\n      dup4\n        /* \"#utility.yul\":14472:14489   */\n      add\n        /* \"#utility.yul\":14465:14512   */\n      mstore\n        /* \"#utility.yul\":14529:14660   */\n      tag_468\n        /* \"#utility.yul\":14655:14659   */\n      dup2\n        /* \"#utility.yul\":14529:14660   */\n      tag_422\n      jump\t// in\n    tag_468:\n        /* \"#utility.yul\":14521:14660   */\n      swap1\n      pop\n        /* \"#utility.yul\":14248:14667   */\n      swap2\n      swap1\n      pop\n      jump\t// out\n        /* \"#utility.yul\":14673:15092   */\n    tag_224:\n        /* \"#utility.yul\":14839:14843   */\n      0x00\n        /* \"#utility.yul\":14877:14879   */\n      0x20\n        /* \"#utility.yul\":14866:14875   */\n      dup3\n        /* \"#utility.yul\":14862:14880   */\n      add\n        /* \"#utility.yul\":14854:14880   */\n      swap1\n      pop\n        /* \"#utility.yul\":14926:14935   */\n      dup2\n        /* \"#utility.yul\":14920:14924   */\n      dup2\n        /* \"#utility.yul\":14916:14936   */\n      sub\n        /* \"#utility.yul\":14912:14913   */\n      0x00\n        /* \"#utility.yul\":14901:14910   */\n      dup4\n        /* \"#utility.yul\":14897:14914   */\n      add\n        /* \"#utility.yul\":14890:14937   */\n      mstore\n        /* \"#utility.yul\":14954:15085   */\n      tag_470\n        /* \"#utility.yul\":15080:15084   */\n      dup2\n        /* \"#utility.yul\":14954:15085   */\n      tag_427\n      jump\t// in\n    tag_470:\n        /* \"#utility.yul\":14946:15085   */\n      swap1\n      pop\n        /* \"#utility.yul\":14673:15092   */\n      swap2\n      swap1\n      pop\n      jump\t// out\n        /* \"#utility.yul\":15098:15517   */\n    tag_47:\n        /* \"#utility.yul\":15264:15268   */\n      0x00\n        /* \"#utility.yul\":15302:15304   */\n      0x20\n        /* \"#utility.yul\":15291:15300   */\n      dup3\n        /* \"#utility.yul\":15287:15305   */\n      add\n        /* \"#utility.yul\":15279:15305   */\n      swap1\n      pop\n        /* \"#utility.yul\":15351:15360   */\n      dup2\n        /* \"#utility.yul\":15345:15349   */\n      dup2\n        /* \"#utility.yul\":15341:15361   */\n      sub\n        /* \"#utility.yul\":15337:15338   */\n      0x00\n        /* \"#utility.yul\":15326:15335   */\n      dup4\n        /* \"#utility.yul\":15322:15339   */\n      add\n        /* \"#utility.yul\":15315:15362   */\n      mstore\n        /* \"#utility.yul\":15379:15510   */\n      tag_472\n        /* \"#utility.yul\":15505:15509   */\n      dup2\n        /* \"#utility.yul\":15379:15510   */\n      tag_432\n      jump\t// in\n    tag_472:\n        /* \"#utility.yul\":15371:15510   */\n      swap1\n      pop\n        /* \"#utility.yul\":15098:15517   */\n      swap2\n      swap1\n      pop\n      jump\t// out\n        /* \"#utility.yul\":15523:15745   */\n    tag_18:\n        /* \"#utility.yul\":15616:15620   */\n      0x00\n        /* \"#utility.yul\":15654:15656   */\n      0x20\n        /* \"#utility.yul\":15643:15652   */\n      dup3\n        /* \"#utility.yul\":15639:15657   */\n      add\n        /* \"#utility.yul\":15631:15657   */\n      swap1\n      pop\n        /* \"#utility.yul\":15667:15738   */\n      tag_474\n        /* \"#utility.yul\":15735:15736   */\n      0x00\n        /* \"#utility.yul\":15724:15733   */\n      dup4\n        /* \"#utility.yul\":15720:15737   */\n      add\n        /* \"#utility.yul\":15711:15717   */\n      dup5\n        /* \"#utility.yul\":15667:15738   */\n      tag_437\n      jump\t// in\n    tag_474:\n        /* \"#utility.yul\":15523:15745   */\n      swap3\n      swap2\n      pop\n      pop\n      jump\t// out\n        /* \"#utility.yul\":15751:15880   */\n    tag_283:\n        /* \"#utility.yul\":15785:15791   */\n      0x00\n        /* \"#utility.yul\":15812:15832   */\n      tag_476\n      tag_477\n      jump\t// in\n    tag_476:\n        /* \"#utility.yul\":15802:15832   */\n      swap1\n      pop\n        /* \"#utility.yul\":15841:15874   */\n      tag_478\n        /* \"#utility.yul\":15869:15873   */\n      dup3\n        /* \"#utility.yul\":15861:15867   */\n      dup3\n        /* \"#utility.yul\":15841:15874   */\n      tag_479\n      jump\t// in\n    tag_478:\n        /* \"#utility.yul\":15751:15880   */\n      swap2\n      swap1\n      pop\n      jump\t// out\n        /* \"#utility.yul\":15886:15961   */\n    tag_477:\n        /* \"#utility.yul\":15919:15925   */\n      0x00\n        /* \"#utility.yul\":15952:15954   */\n      0x40\n        /* \"#utility.yul\":15946:15955   */\n      mload\n        /* \"#utility.yul\":15936:15955   */\n      swap1\n      pop\n        /* \"#utility.yul\":15886:15961   */\n      swap1\n      jump\t// out\n        /* \"#utility.yul\":15967:16287   */\n    tag_282:\n        /* \"#utility.yul\":16053:16057   */\n      0x00\n        /* \"#utility.yul\":16143:16161   */\n      0xffffffffffffffff\n        /* \"#utility.yul\":16135:16141   */\n      dup3\n        /* \"#utility.yul\":16132:16162   */\n      gt\n        /* \"#utility.yul\":16129:16185   */\n      iszero\n      tag_482\n      jumpi\n        /* \"#utility.yul\":16165:16183   */\n      tag_483\n      tag_484\n      jump\t// in\n    tag_483:\n        /* \"#utility.yul\":16129:16185   */\n    tag_482:\n        /* \"#utility.yul\":16215:16219   */\n      0x20\n        /* \"#utility.yul\":16207:16213   */\n      dup3\n        /* \"#utility.yul\":16203:16220   */\n      mul\n        /* \"#utility.yul\":16195:16220   */\n      swap1\n      pop\n        /* \"#utility.yul\":16275:16279   */\n      0x20\n        /* \"#utility.yul\":16269:16273   */\n      dup2\n        /* \"#utility.yul\":16265:16280   */\n      add\n        /* \"#utility.yul\":16257:16280   */\n      swap1\n      pop\n        /* \"#utility.yul\":15967:16287   */\n      swap2\n      swap1\n      pop\n      jump\t// out\n        /* \"#utility.yul\":16293:16600   */\n    tag_299:\n        /* \"#utility.yul\":16354:16358   */\n      0x00\n        /* \"#utility.yul\":16444:16462   */\n      0xffffffffffffffff\n        /* \"#utility.yul\":16436:16442   */\n      dup3\n        /* \"#utility.yul\":16433:16463   */\n      gt\n        /* \"#utility.yul\":16430:16486   */\n      iszero\n      tag_486\n      jumpi\n        /* \"#utility.yul\":16466:16484   */\n      tag_487\n      tag_484\n      jump\t// in\n    tag_487:\n        /* \"#utility.yul\":16430:16486   */\n    tag_486:\n        /* \"#utility.yul\":16504:16533   */\n      tag_488\n        /* \"#utility.yul\":16526:16532   */\n      dup3\n        /* \"#utility.yul\":16504:16533   */\n      tag_489\n      jump\t// in\n    tag_488:\n        /* \"#utility.yul\":16496:16533   */\n      swap1\n      pop\n        /* \"#utility.yul\":16588:16592   */\n      0x20\n        /* \"#utility.yul\":16582:16586   */\n      dup2\n        /* \"#utility.yul\":16578:16593   */\n      add\n        /* \"#utility.yul\":16570:16593   */\n      swap1\n      pop\n        /* \"#utility.yul\":16293:16600   */\n      swap2\n      swap1\n      pop\n      jump\t// out\n        /* \"#utility.yul\":16606:16914   */\n    tag_309:\n        /* \"#utility.yul\":16668:16672   */\n      0x00\n        /* \"#utility.yul\":16758:16776   */\n      0xffffffffffffffff\n        /* \"#utility.yul\":16750:16756   */\n      dup3\n        /* \"#utility.yul\":16747:16777   */\n      gt\n        /* \"#utility.yul\":16744:16800   */\n      iszero\n      tag_491\n      jumpi\n        /* \"#utility.yul\":16780:16798   */\n      tag_492\n      tag_484\n      jump\t// in\n    tag_492:\n        /* \"#utility.yul\":16744:16800   */\n    tag_491:\n        /* \"#utility.yul\":16818:16847   */\n      tag_493\n        /* \"#utility.yul\":16840:16846   */\n      dup3\n        /* \"#utility.yul\":16818:16847   */\n      tag_489\n      jump\t// in\n    tag_493:\n        /* \"#utility.yul\":16810:16847   */\n      swap1\n      pop\n        /* \"#utility.yul\":16902:16906   */\n      0x20\n        /* \"#utility.yul\":16896:16900   */\n      dup2\n        /* \"#utility.yul\":16892:16907   */\n      add\n        /* \"#utility.yul\":16884:16907   */\n      swap1\n      pop\n        /* \"#utility.yul\":16606:16914   */\n      swap2\n      swap1\n      pop\n      jump\t// out\n        /* \"#utility.yul\":16920:17061   */\n    tag_392:\n        /* \"#utility.yul\":16969:16973   */\n      0x00\n        /* \"#utility.yul\":16992:16995   */\n      dup2\n        /* \"#utility.yul\":16984:16995   */\n      swap1\n      pop\n        /* \"#utility.yul\":17015:17018   */\n      dup2\n        /* \"#utility.yul\":17012:17013   */\n      0x00\n        /* \"#utility.yul\":17005:17019   */\n      mstore\n        /* \"#utility.yul\":17049:17053   */\n      0x20\n        /* \"#utility.yul\":17046:17047   */\n      0x00\n        /* \"#utility.yul\":17036:17054   */\n      keccak256\n        /* \"#utility.yul\":17028:17054   */\n      swap1\n      pop\n        /* \"#utility.yul\":16920:17061   */\n      swap2\n      swap1\n      pop\n      jump\t// out\n        /* \"#utility.yul\":17067:17165   */\n    tag_378:\n        /* \"#utility.yul\":17118:17124   */\n      0x00\n        /* \"#utility.yul\":17152:17157   */\n      dup2\n        /* \"#utility.yul\":17146:17158   */\n      mload\n        /* \"#utility.yul\":17136:17158   */\n      swap1\n      pop\n        /* \"#utility.yul\":17067:17165   */\n      swap2\n      swap1\n      pop\n      jump\t// out\n        /* \"#utility.yul\":17171:17318   */\n    tag_380:\n        /* \"#utility.yul\":17272:17283   */\n      0x00\n        /* \"#utility.yul\":17309:17312   */\n      dup2\n        /* \"#utility.yul\":17294:17312   */\n      swap1\n      pop\n        /* \"#utility.yul\":17171:17318   */\n      swap3\n      swap2\n      pop\n      pop\n      jump\t// out\n        /* \"#utility.yul\":17324:17493   */\n    tag_399:\n        /* \"#utility.yul\":17408:17419   */\n      0x00\n        /* \"#utility.yul\":17442:17448   */\n      dup3\n        /* \"#utility.yul\":17437:17440   */\n      dup3\n        /* \"#utility.yul\":17430:17449   */\n      mstore\n        /* \"#utility.yul\":17482:17486   */\n      0x20\n        /* \"#utility.yul\":17477:17480   */\n      dup3\n        /* \"#utility.yul\":17473:17487   */\n      add\n        /* \"#utility.yul\":17458:17487   */\n      swap1\n      pop\n        /* \"#utility.yul\":17324:17493   */\n      swap3\n      swap2\n      pop\n      pop\n      jump\t// out\n        /* \"#utility.yul\":17499:17647   */\n    tag_387:\n        /* \"#utility.yul\":17601:17612   */\n      0x00\n        /* \"#utility.yul\":17638:17641   */\n      dup2\n        /* \"#utility.yul\":17623:17641   */\n      swap1\n      pop\n        /* \"#utility.yul\":17499:17647   */\n      swap3\n      swap2\n      pop\n      pop\n      jump\t// out\n        /* \"#utility.yul\":17653:17958   */\n    tag_61:\n        /* \"#utility.yul\":17693:17696   */\n      0x00\n        /* \"#utility.yul\":17712:17732   */\n      tag_500\n        /* \"#utility.yul\":17730:17731   */\n      dup3\n        /* \"#utility.yul\":17712:17732   */\n      tag_440\n      jump\t// in\n    tag_500:\n        /* \"#utility.yul\":17707:17732   */\n      swap2\n      pop\n        /* \"#utility.yul\":17746:17766   */\n      tag_501\n        /* \"#utility.yul\":17764:17765   */\n      dup4\n        /* \"#utility.yul\":17746:17766   */\n      tag_440\n      jump\t// in\n    tag_501:\n        /* \"#utility.yul\":17741:17766   */\n      swap3\n      pop\n        /* \"#utility.yul\":17900:17901   */\n      dup3\n        /* \"#utility.yul\":17832:17898   */\n      0xffffffffffffffffffffffffffffffffffffffffffffffffffffffffffffffff\n        /* \"#utility.yul\":17828:17902   */\n      sub\n        /* \"#utility.yul\":17825:17826   */\n      dup3\n        /* \"#utility.yul\":17822:17903   */\n      gt\n        /* \"#utility.yul\":17819:17926   */\n      iszero\n      tag_502\n      jumpi\n        /* \"#utility.yul\":17906:17924   */\n      tag_503\n      tag_504\n      jump\t// in\n    tag_503:\n        /* \"#utility.yul\":17819:17926   */\n    tag_502:\n        /* \"#utility.yul\":17950:17951   */\n      dup3\n        /* \"#utility.yul\":17947:17948   */\n      dup3\n        /* \"#utility.yul\":17943:17952   */\n      add\n        /* \"#utility.yul\":17936:17952   */\n      swap1\n      pop\n        /* \"#utility.yul\":17653:17958   */\n      swap3\n      swap2\n      pop\n      pop\n      jump\t// out\n        /* \"#utility.yul\":17964:18155   */\n    tag_160:\n        /* \"#utility.yul\":18004:18008   */\n      0x00\n        /* \"#utility.yul\":18024:18044   */\n      tag_506\n        /* \"#utility.yul\":18042:18043   */\n      dup3\n        /* \"#utility.yul\":18024:18044   */\n      tag_440\n      jump\t// in\n    tag_506:\n        /* \"#utility.yul\":18019:18044   */\n      swap2\n      pop\n        /* \"#utility.yul\":18058:18078   */\n      tag_507\n        /* \"#utility.yul\":18076:18077   */\n      dup4\n        /* \"#utility.yul\":18058:18078   */\n      tag_440\n      jump\t// in\n    tag_507:\n        /* \"#utility.yul\":18053:18078   */\n      swap3\n      pop\n        /* \"#utility.yul\":18097:18098   */\n      dup3\n        /* \"#utility.yul\":18094:18095   */\n      dup3\n        /* \"#utility.yul\":18091:18099   */\n      lt\n        /* \"#utility.yul\":18088:18122   */\n      iszero\n      tag_508\n      jumpi\n        /* \"#utility.yul\":18102:18120   */\n      tag_509\n      tag_504\n      jump\t// in\n    tag_509:\n        /* \"#utility.yul\":18088:18122   */\n    tag_508:\n        /* \"#utility.yul\":18147:18148   */\n      dup3\n        /* \"#utility.yul\":18144:18145   */\n      dup3\n        /* \"#utility.yul\":18140:18149   */\n      sub\n        /* \"#utility.yul\":18132:18149   */\n      swap1\n      pop\n        /* \"#utility.yul\":17964:18155   */\n      swap3\n      swap2\n      pop\n      pop\n      jump\t// out\n        /* \"#utility.yul\":18161:18257   */\n    tag_373:\n        /* \"#utility.yul\":18198:18205   */\n      0x00\n        /* \"#utility.yul\":18227:18251   */\n      tag_511\n        /* \"#utility.yul\":18245:18250   */\n      dup3\n        /* \"#utility.yul\":18227:18251   */\n      tag_512\n      jump\t// in\n    tag_511:\n        /* \"#utility.yul\":18216:18251   */\n      swap1\n      pop\n        /* \"#utility.yul\":18161:18257   */\n      swap2\n      swap1\n      pop\n      jump\t// out\n        /* \"#utility.yul\":18263:18353   */\n    tag_513:\n        /* \"#utility.yul\":18297:18304   */\n      0x00\n        /* \"#utility.yul\":18340:18345   */\n      dup2\n        /* \"#utility.yul\":18333:18346   */\n      iszero\n        /* \"#utility.yul\":18326:18347   */\n      iszero\n        /* \"#utility.yul\":18315:18347   */\n      swap1\n      pop\n        /* \"#utility.yul\":18263:18353   */\n      swap2\n      swap1\n      pop\n      jump\t// out\n        /* \"#utility.yul\":18359:18436   */\n    tag_515:\n        /* \"#utility.yul\":18396:18403   */\n      0x00\n        /* \"#utility.yul\":18425:18430   */\n      dup2\n        /* \"#utility.yul\":18414:18430   */\n      swap1\n      pop\n        /* \"#utility.yul\":18359:18436   */\n      swap2\n      swap1\n      pop\n      jump\t// out\n        /* \"#utility.yul\":18442:18568   */\n    tag_512:\n        /* \"#utility.yul\":18479:18486   */\n      0x00\n        /* \"#utility.yul\":18519:18561   */\n      0xffffffffffffffffffffffffffffffffffffffff\n        /* \"#utility.yul\":18512:18517   */\n      dup3\n        /* \"#utility.yul\":18508:18562   */\n      and\n        /* \"#utility.yul\":18497:18562   */\n      swap1\n      pop\n        /* \"#utility.yul\":18442:18568   */\n      swap2\n      swap1\n      pop\n      jump\t// out\n        /* \"#utility.yul\":18574:18651   */\n    tag_440:\n        /* \"#utility.yul\":18611:18618   */\n      0x00\n        /* \"#utility.yul\":18640:18645   */\n      dup2\n        /* \"#utility.yul\":18629:18645   */\n      swap1\n      pop\n        /* \"#utility.yul\":18574:18651   */\n      swap2\n      swap1\n      pop\n      jump\t// out\n        /* \"#utility.yul\":18657:18811   */\n    tag_304:\n        /* \"#utility.yul\":18741:18747   */\n      dup3\n        /* \"#utility.yul\":18736:18739   */\n      dup2\n        /* \"#utility.yul\":18731:18734   */\n      dup4\n        /* \"#utility.yul\":18718:18748   */\n      calldatacopy\n        /* \"#utility.yul\":18803:18804   */\n      0x00\n        /* \"#utility.yul\":18794:18800   */\n      dup4\n        /* \"#utility.yul\":18789:18792   */\n      dup4\n        /* \"#utility.yul\":18785:18801   */\n      add\n        /* \"#utility.yul\":18778:18805   */\n      mstore\n        /* \"#utility.yul\":18657:18811   */\n      pop\n      pop\n      pop\n      jump\t// out\n        /* \"#utility.yul\":18817:19124   */\n    tag_382:\n        /* \"#utility.yul\":18885:18886   */\n      0x00\n        /* \"#utility.yul\":18895:19008   */\n    tag_521:\n        /* \"#utility.yul\":18909:18915   */\n      dup4\n        /* \"#utility.yul\":18906:18907   */\n      dup2\n        /* \"#utility.yul\":18903:18916   */\n      lt\n        /* \"#utility.yul\":18895:19008   */\n      iszero\n      tag_523\n      jumpi\n        /* \"#utility.yul\":18994:18995   */\n      dup1\n        /* \"#utility.yul\":18989:18992   */\n      dup3\n        /* \"#utility.yul\":18985:18996   */\n      add\n        /* \"#utility.yul\":18979:18997   */\n      mload\n        /* \"#utility.yul\":18975:18976   */\n      dup2\n        /* \"#utility.yul\":18970:18973   */\n      dup5\n        /* \"#utility.yul\":18966:18977   */\n      add\n        /* \"#utility.yul\":18959:18998   */\n      mstore\n        /* \"#utility.yul\":18931:18933   */\n      0x20\n        /* \"#utility.yul\":18928:18929   */\n      dup2\n        /* \"#utility.yul\":18924:18934   */\n      add\n        /* \"#utility.yul\":18919:18934   */\n      swap1\n      pop\n        /* \"#utility.yul\":18895:19008   */\n      jump(tag_521)\n    tag_523:\n        /* \"#utility.yul\":19026:19032   */\n      dup4\n        /* \"#utility.yul\":19023:19024   */\n      dup2\n        /* \"#utility.yul\":19020:19033   */\n      gt\n        /* \"#utility.yul\":19017:19118   */\n      iszero\n      tag_524\n      jumpi\n        /* \"#utility.yul\":19106:19107   */\n      0x00\n        /* \"#utility.yul\":19097:19103   */\n      dup5\n        /* \"#utility.yul\":19092:19095   */\n      dup5\n        /* \"#utility.yul\":19088:19104   */\n      add\n        /* \"#utility.yul\":19081:19108   */\n      mstore\n        /* \"#utility.yul\":19017:19118   */\n    tag_524:\n        /* \"#utility.yul\":18866:19124   */\n      pop\n        /* \"#utility.yul\":18817:19124   */\n      pop\n      pop\n      pop\n      jump\t// out\n        /* \"#utility.yul\":19130:19450   */\n    tag_267:\n        /* \"#utility.yul\":19174:19180   */\n      0x00\n        /* \"#utility.yul\":19211:19212   */\n      0x02\n        /* \"#utility.yul\":19205:19209   */\n      dup3\n        /* \"#utility.yul\":19201:19213   */\n      div\n        /* \"#utility.yul\":19191:19213   */\n      swap1\n      pop\n        /* \"#utility.yul\":19258:19259   */\n      0x01\n        /* \"#utility.yul\":19252:19256   */\n      dup3\n        /* \"#utility.yul\":19248:19260   */\n      and\n        /* \"#utility.yul\":19279:19297   */\n      dup1\n        /* \"#utility.yul\":19269:19350   */\n      tag_526\n      jumpi\n        /* \"#utility.yul\":19335:19339   */\n      0x7f\n        /* \"#utility.yul\":19327:19333   */\n      dup3\n        /* \"#utility.yul\":19323:19340   */\n      and\n        /* \"#utility.yul\":19313:19340   */\n      swap2\n      pop\n        /* \"#utility.yul\":19269:19350   */\n    tag_526:\n        /* \"#utility.yul\":19397:19399   */\n      0x20\n        /* \"#utility.yul\":19389:19395   */\n      dup3\n        /* \"#utility.yul\":19386:19400   */\n      lt\n        /* \"#utility.yul\":19366:19384   */\n      dup2\n        /* \"#utility.yul\":19363:19401   */\n      eq\n        /* \"#utility.yul\":19360:19444   */\n      iszero\n      tag_527\n      jumpi\n        /* \"#utility.yul\":19416:19434   */\n      tag_528\n      tag_529\n      jump\t// in\n    tag_528:\n        /* \"#utility.yul\":19360:19444   */\n    tag_527:\n        /* \"#utility.yul\":19181:19450   */\n      pop\n        /* \"#utility.yul\":19130:19450   */\n      swap2\n      swap1\n      pop\n      jump\t// out\n        /* \"#utility.yul\":19456:19737   */\n    tag_479:\n        /* \"#utility.yul\":19539:19566   */\n      tag_531\n        /* \"#utility.yul\":19561:19565   */\n      dup3\n        /* \"#utility.yul\":19539:19566   */\n      tag_489\n      jump\t// in\n    tag_531:\n        /* \"#utility.yul\":19531:19537   */\n      dup2\n        /* \"#utility.yul\":19527:19567   */\n      add\n        /* \"#utility.yul\":19669:19675   */\n      dup2\n        /* \"#utility.yul\":19657:19667   */\n      dup2\n        /* \"#utility.yul\":19654:19676   */\n      lt\n        /* \"#utility.yul\":19633:19651   */\n      0xffffffffffffffff\n        /* \"#utility.yul\":19621:19631   */\n      dup3\n        /* \"#utility.yul\":19618:19652   */\n      gt\n        /* \"#utility.yul\":19615:19677   */\n      or\n        /* \"#utility.yul\":19612:19700   */\n      iszero\n      tag_532\n      jumpi\n        /* \"#utility.yul\":19680:19698   */\n      tag_533\n      tag_484\n      jump\t// in\n    tag_533:\n        /* \"#utility.yul\":19612:19700   */\n    tag_532:\n        /* \"#utility.yul\":19720:19730   */\n      dup1\n        /* \"#utility.yul\":19716:19718   */\n      0x40\n        /* \"#utility.yul\":19709:19731   */\n      mstore\n        /* \"#utility.yul\":19499:19737   */\n      pop\n        /* \"#utility.yul\":19456:19737   */\n      pop\n      pop\n      jump\t// out\n        /* \"#utility.yul\":19743:19976   */\n    tag_89:\n        /* \"#utility.yul\":19782:19785   */\n      0x00\n        /* \"#utility.yul\":19805:19829   */\n      tag_535\n        /* \"#utility.yul\":19823:19828   */\n      dup3\n        /* \"#utility.yul\":19805:19829   */\n      tag_440\n      jump\t// in\n    tag_535:\n        /* \"#utility.yul\":19796:19829   */\n      swap2\n      pop\n        /* \"#utility.yul\":19851:19917   */\n      0xffffffffffffffffffffffffffffffffffffffffffffffffffffffffffffffff\n        /* \"#utility.yul\":19844:19849   */\n      dup3\n        /* \"#utility.yul\":19841:19918   */\n      eq\n        /* \"#utility.yul\":19838:19941   */\n      iszero\n      tag_536\n      jumpi\n        /* \"#utility.yul\":19921:19939   */\n      tag_537\n      tag_504\n      jump\t// in\n    tag_537:\n        /* \"#utility.yul\":19838:19941   */\n    tag_536:\n        /* \"#utility.yul\":19968:19969   */\n      0x01\n        /* \"#utility.yul\":19961:19966   */\n      dup3\n        /* \"#utility.yul\":19957:19970   */\n      add\n        /* \"#utility.yul\":19950:19970   */\n      swap1\n      pop\n        /* \"#utility.yul\":19743:19976   */\n      swap2\n      swap1\n      pop\n      jump\t// out\n        /* \"#utility.yul\":19982:20082   */\n    tag_374:\n        /* \"#utility.yul\":20021:20028   */\n      0x00\n        /* \"#utility.yul\":20050:20076   */\n      tag_539\n        /* \"#utility.yul\":20070:20075   */\n      dup3\n        /* \"#utility.yul\":20050:20076   */\n      tag_540\n      jump\t// in\n    tag_539:\n        /* \"#utility.yul\":20039:20076   */\n      swap1\n      pop\n        /* \"#utility.yul\":19982:20082   */\n      swap2\n      swap1\n      pop\n      jump\t// out\n        /* \"#utility.yul\":20088:20182   */\n    tag_540:\n        /* \"#utility.yul\":20127:20134   */\n      0x00\n        /* \"#utility.yul\":20156:20176   */\n      tag_542\n        /* \"#utility.yul\":20170:20175   */\n      dup3\n        /* \"#utility.yul\":20156:20176   */\n      tag_543\n      jump\t// in\n    tag_542:\n        /* \"#utility.yul\":20145:20176   */\n      swap1\n      pop\n        /* \"#utility.yul\":20088:20182   */\n      swap2\n      swap1\n      pop\n      jump\t// out\n        /* \"#utility.yul\":20188:20267   */\n    tag_445:\n        /* \"#utility.yul\":20227:20234   */\n      0x00\n        /* \"#utility.yul\":20256:20261   */\n      dup2\n        /* \"#utility.yul\":20245:20261   */\n      swap1\n      pop\n        /* \"#utility.yul\":20188:20267   */\n      swap2\n      swap1\n      pop\n      jump\t// out\n        /* \"#utility.yul\":20273:20449   */\n    tag_244:\n        /* \"#utility.yul\":20305:20306   */\n      0x00\n        /* \"#utility.yul\":20322:20342   */\n      tag_546\n        /* \"#utility.yul\":20340:20341   */\n      dup3\n        /* \"#utility.yul\":20322:20342   */\n      tag_440\n      jump\t// in\n    tag_546:\n        /* \"#utility.yul\":20317:20342   */\n      swap2\n      pop\n        /* \"#utility.yul\":20356:20376   */\n      tag_547\n        /* \"#utility.yul\":20374:20375   */\n      dup4\n        /* \"#utility.yul\":20356:20376   */\n      tag_440\n      jump\t// in\n    tag_547:\n        /* \"#utility.yul\":20351:20376   */\n      swap3\n      pop\n        /* \"#utility.yul\":20395:20396   */\n      dup3\n        /* \"#utility.yul\":20385:20420   */\n      tag_548\n      jumpi\n        /* \"#utility.yul\":20400:20418   */\n      tag_549\n      tag_550\n      jump\t// in\n    tag_549:\n        /* \"#utility.yul\":20385:20420   */\n    tag_548:\n        /* \"#utility.yul\":20441:20442   */\n      dup3\n        /* \"#utility.yul\":20438:20439   */\n      dup3\n        /* \"#utility.yul\":20434:20443   */\n      mod\n        /* \"#utility.yul\":20429:20443   */\n      swap1\n      pop\n        /* \"#utility.yul\":20273:20449   */\n      swap3\n      swap2\n      pop\n      pop\n      jump\t// out\n        /* \"#utility.yul\":20455:20635   */\n    tag_504:\n        /* \"#utility.yul\":20503:20580   */\n      0x4e487b7100000000000000000000000000000000000000000000000000000000\n        /* \"#utility.yul\":20500:20501   */\n      0x00\n        /* \"#utility.yul\":20493:20581   */\n      mstore\n        /* \"#utility.yul\":20600:20604   */\n      0x11\n        /* \"#utility.yul\":20597:20598   */\n      0x04\n        /* \"#utility.yul\":20590:20605   */\n      mstore\n        /* \"#utility.yul\":20624:20628   */\n      0x24\n        /* \"#utility.yul\":20621:20622   */\n      0x00\n        /* \"#utility.yul\":20614:20629   */\n      revert\n        /* \"#utility.yul\":20641:20821   */\n    tag_550:\n        /* \"#utility.yul\":20689:20766   */\n      0x4e487b7100000000000000000000000000000000000000000000000000000000\n        /* \"#utility.yul\":20686:20687   */\n      0x00\n        /* \"#utility.yul\":20679:20767   */\n      mstore\n        /* \"#utility.yul\":20786:20790   */\n      0x12\n        /* \"#utility.yul\":20783:20784   */\n      0x04\n        /* \"#utility.yul\":20776:20791   */\n      mstore\n        /* \"#utility.yul\":20810:20814   */\n      0x24\n        /* \"#utility.yul\":20807:20808   */\n      0x00\n        /* \"#utility.yul\":20800:20815   */\n      revert\n        /* \"#utility.yul\":20827:21007   */\n    tag_529:\n        /* \"#utility.yul\":20875:20952   */\n      0x4e487b7100000000000000000000000000000000000000000000000000000000\n        /* \"#utility.yul\":20872:20873   */\n      0x00\n        /* \"#utility.yul\":20865:20953   */\n      mstore\n        /* \"#utility.yul\":20972:20976   */\n      0x22\n        /* \"#utility.yul\":20969:20970   */\n      0x04\n        /* \"#utility.yul\":20962:20977   */\n      mstore\n        /* \"#utility.yul\":20996:21000   */\n      0x24\n        /* \"#utility.yul\":20993:20994   */\n      0x00\n        /* \"#utility.yul\":20986:21001   */\n      revert\n        /* \"#utility.yul\":21013:21193   */\n    tag_257:\n        /* \"#utility.yul\":21061:21138   */\n      0x4e487b7100000000000000000000000000000000000000000000000000000000\n        /* \"#utility.yul\":21058:21059   */\n      0x00\n        /* \"#utility.yul\":21051:21139   */\n      mstore\n        /* \"#utility.yul\":21158:21162   */\n      0x31\n        /* \"#utility.yul\":21155:21156   */\n      0x04\n        /* \"#utility.yul\":21148:21163   */\n      mstore\n        /* \"#utility.yul\":21182:21186   */\n      0x24\n        /* \"#utility.yul\":21179:21180   */\n      0x00\n        /* \"#utility.yul\":21172:21187   */\n      revert\n        /* \"#utility.yul\":21199:21379   */\n    tag_39:\n        /* \"#utility.yul\":21247:21324   */\n      0x4e487b7100000000000000000000000000000000000000000000000000000000\n        /* \"#utility.yul\":21244:21245   */\n      0x00\n        /* \"#utility.yul\":21237:21325   */\n      mstore\n        /* \"#utility.yul\":21344:21348   */\n      0x32\n        /* \"#utility.yul\":21341:21342   */\n      0x04\n        /* \"#utility.yul\":21334:21349   */\n      mstore\n        /* \"#utility.yul\":21368:21372   */\n      0x24\n        /* \"#utility.yul\":21365:21366   */\n      0x00\n        /* \"#utility.yul\":21358:21373   */\n      revert\n        /* \"#utility.yul\":21385:21565   */\n    tag_484:\n        /* \"#utility.yul\":21433:21510   */\n      0x4e487b7100000000000000000000000000000000000000000000000000000000\n        /* \"#utility.yul\":21430:21431   */\n      0x00\n        /* \"#utility.yul\":21423:21511   */\n      mstore\n        /* \"#utility.yul\":21530:21534   */\n      0x41\n        /* \"#utility.yul\":21527:21528   */\n      0x04\n        /* \"#utility.yul\":21520:21535   */\n      mstore\n        /* \"#utility.yul\":21554:21558   */\n      0x24\n        /* \"#utility.yul\":21551:21552   */\n      0x00\n        /* \"#utility.yul\":21544:21559   */\n      revert\n        /* \"#utility.yul\":21571:21688   */\n    tag_292:\n        /* \"#utility.yul\":21680:21681   */\n      0x00\n        /* \"#utility.yul\":21677:21678   */\n      dup1\n        /* \"#utility.yul\":21670:21682   */\n      revert\n        /* \"#utility.yul\":21694:21811   */\n    tag_286:\n        /* \"#utility.yul\":21803:21804   */\n      0x00\n        /* \"#utility.yul\":21800:21801   */\n      dup1\n        /* \"#utility.yul\":21793:21805   */\n      revert\n        /* \"#utility.yul\":21817:21934   */\n    tag_302:\n        /* \"#utility.yul\":21926:21927   */\n      0x00\n        /* \"#utility.yul\":21923:21924   */\n      dup1\n        /* \"#utility.yul\":21916:21928   */\n      revert\n        /* \"#utility.yul\":21940:22057   */\n    tag_345:\n        /* \"#utility.yul\":22049:22050   */\n      0x00\n        /* \"#utility.yul\":22046:22047   */\n      dup1\n        /* \"#utility.yul\":22039:22051   */\n      revert\n        /* \"#utility.yul\":22063:22180   */\n    tag_342:\n        /* \"#utility.yul\":22172:22173   */\n      0x00\n        /* \"#utility.yul\":22169:22170   */\n      dup1\n        /* \"#utility.yul\":22162:22174   */\n      revert\n        /* \"#utility.yul\":22186:22288   */\n    tag_489:\n        /* \"#utility.yul\":22227:22233   */\n      0x00\n        /* \"#utility.yul\":22278:22280   */\n      0x1f\n        /* \"#utility.yul\":22274:22281   */\n      not\n        /* \"#utility.yul\":22269:22271   */\n      0x1f\n        /* \"#utility.yul\":22262:22267   */\n      dup4\n        /* \"#utility.yul\":22258:22272   */\n      add\n        /* \"#utility.yul\":22254:22282   */\n      and\n        /* \"#utility.yul\":22244:22282   */\n      swap1\n      pop\n        /* \"#utility.yul\":22186:22288   */\n      swap2\n      swap1\n      pop\n      jump\t// out\n        /* \"#utility.yul\":22294:22388   */\n    tag_543:\n        /* \"#utility.yul\":22327:22335   */\n      0x00\n        /* \"#utility.yul\":22375:22380   */\n      dup2\n        /* \"#utility.yul\":22371:22373   */\n      0x60\n        /* \"#utility.yul\":22367:22381   */\n      shl\n        /* \"#utility.yul\":22346:22381   */\n      swap1\n      pop\n        /* \"#utility.yul\":22294:22388   */\n      swap2\n      swap1\n      pop\n      jump\t// out\n        /* \"#utility.yul\":22394:22568   */\n    tag_401:\n        /* \"#utility.yul\":22534:22560   */\n      0x446561646c696e65206e6f742079657420706173736564210000000000000000\n        /* \"#utility.yul\":22530:22531   */\n      0x00\n        /* \"#utility.yul\":22522:22528   */\n      dup3\n        /* \"#utility.yul\":22518:22532   */\n      add\n        /* \"#utility.yul\":22511:22561   */\n      mstore\n        /* \"#utility.yul\":22394:22568   */\n      pop\n      jump\t// out\n        /* \"#utility.yul\":22574:22741   */\n    tag_406:\n        /* \"#utility.yul\":22714:22733   */\n      0x566f74696e672068617320636c6f736564000000000000000000000000000000\n        /* \"#utility.yul\":22710:22711   */\n      0x00\n        /* \"#utility.yul\":22702:22708   */\n      dup3\n        /* \"#utility.yul\":22698:22712   */\n      add\n        /* \"#utility.yul\":22691:22734   */\n      mstore\n        /* \"#utility.yul\":22574:22741   */\n      pop\n      jump\t// out\n        /* \"#utility.yul\":22747:22915   */\n    tag_411:\n        /* \"#utility.yul\":22887:22907   */\n      0x416c7265616479207369676e6564207570210000000000000000000000000000\n        /* \"#utility.yul\":22883:22884   */\n      0x00\n        /* \"#utility.yul\":22875:22881   */\n      dup3\n        /* \"#utility.yul\":22871:22885   */\n      add\n        /* \"#utility.yul\":22864:22908   */\n      mstore\n        /* \"#utility.yul\":22747:22915   */\n      pop\n      jump\t// out\n        /* \"#utility.yul\":22921:23148   */\n    tag_416:\n        /* \"#utility.yul\":23061:23095   */\n      0x5369676e2d75702072656a65637465642120496e616465717561746520737461\n        /* \"#utility.yul\":23057:23058   */\n      0x00\n        /* \"#utility.yul\":23049:23055   */\n      dup3\n        /* \"#utility.yul\":23045:23059   */\n      add\n        /* \"#utility.yul\":23038:23096   */\n      mstore\n        /* \"#utility.yul\":23130:23140   */\n      0x6b652076616c7565000000000000000000000000000000000000000000000000\n        /* \"#utility.yul\":23125:23127   */\n      0x20\n        /* \"#utility.yul\":23117:23123   */\n      dup3\n        /* \"#utility.yul\":23113:23128   */\n      add\n        /* \"#utility.yul\":23106:23141   */\n      mstore\n        /* \"#utility.yul\":22921:23148   */\n      pop\n      jump\t// out\n        /* \"#utility.yul\":23154:23318   */\n    tag_421:\n        /* \"#utility.yul\":23294:23310   */\n      0x4e6f74207369676e656420757021000000000000000000000000000000000000\n        /* \"#utility.yul\":23290:23291   */\n      0x00\n        /* \"#utility.yul\":23282:23288   */\n      dup3\n        /* \"#utility.yul\":23278:23292   */\n      add\n        /* \"#utility.yul\":23271:23311   */\n      mstore\n        /* \"#utility.yul\":23154:23318   */\n      pop\n      jump\t// out\n        /* \"#utility.yul\":23324:23544   */\n    tag_426:\n        /* \"#utility.yul\":23464:23498   */\n      0x4e6f7420612076616c696461746f7220666f7220746869732072657175657374\n        /* \"#utility.yul\":23460:23461   */\n      0x00\n        /* \"#utility.yul\":23452:23458   */\n      dup3\n        /* \"#utility.yul\":23448:23462   */\n      add\n        /* \"#utility.yul\":23441:23499   */\n      mstore\n        /* \"#utility.yul\":23533:23536   */\n      0x2100000000000000000000000000000000000000000000000000000000000000\n        /* \"#utility.yul\":23528:23530   */\n      0x20\n        /* \"#utility.yul\":23520:23526   */\n      dup3\n        /* \"#utility.yul\":23516:23531   */\n      add\n        /* \"#utility.yul\":23509:23537   */\n      mstore\n        /* \"#utility.yul\":23324:23544   */\n      pop\n      jump\t// out\n        /* \"#utility.yul\":23550:23730   */\n    tag_431:\n        /* \"#utility.yul\":23690:23722   */\n      0x494420646f65736e2774206d6174636820796f75722061646472657373210000\n        /* \"#utility.yul\":23686:23687   */\n      0x00\n        /* \"#utility.yul\":23678:23684   */\n      dup3\n        /* \"#utility.yul\":23674:23688   */\n      add\n        /* \"#utility.yul\":23667:23723   */\n      mstore\n        /* \"#utility.yul\":23550:23730   */\n      pop\n      jump\t// out\n        /* \"#utility.yul\":23736:23963   */\n    tag_436:\n        /* \"#utility.yul\":23876:23910   */\n      0x4e6f7420617574686f72697a656420746f20656e642074686973207665726966\n        /* \"#utility.yul\":23872:23873   */\n      0x00\n        /* \"#utility.yul\":23864:23870   */\n      dup3\n        /* \"#utility.yul\":23860:23874   */\n      add\n        /* \"#utility.yul\":23853:23911   */\n      mstore\n        /* \"#utility.yul\":23945:23955   */\n      0x69636174696f6e21000000000000000000000000000000000000000000000000\n        /* \"#utility.yul\":23940:23942   */\n      0x20\n        /* \"#utility.yul\":23932:23938   */\n      dup3\n        /* \"#utility.yul\":23928:23943   */\n      add\n        /* \"#utility.yul\":23921:23956   */\n      mstore\n        /* \"#utility.yul\":23736:23963   */\n      pop\n      jump\t// out\n        /* \"#utility.yul\":23969:24085   */\n    tag_321:\n        /* \"#utility.yul\":24039:24060   */\n      tag_573\n        /* \"#utility.yul\":24054:24059   */\n      dup2\n        /* \"#utility.yul\":24039:24060   */\n      tag_513\n      jump\t// in\n    tag_573:\n        /* \"#utility.yul\":24032:24037   */\n      dup2\n        /* \"#utility.yul\":24029:24061   */\n      eq\n        /* \"#utility.yul\":24019:24079   */\n      tag_574\n      jumpi\n        /* \"#utility.yul\":24075:24076   */\n      0x00\n        /* \"#utility.yul\":24072:24073   */\n      dup1\n        /* \"#utility.yul\":24065:24077   */\n      revert\n        /* \"#utility.yul\":24019:24079   */\n    tag_574:\n        /* \"#utility.yul\":23969:24085   */\n      pop\n      jump\t// out\n        /* \"#utility.yul\":24091:24213   */\n    tag_325:\n        /* \"#utility.yul\":24164:24188   */\n      tag_576\n        /* \"#utility.yul\":24182:24187   */\n      dup2\n        /* \"#utility.yul\":24164:24188   */\n      tag_515\n      jump\t// in\n    tag_576:\n        /* \"#utility.yul\":24157:24162   */\n      dup2\n        /* \"#utility.yul\":24154:24189   */\n      eq\n        /* \"#utility.yul\":24144:24207   */\n      tag_577\n      jumpi\n        /* \"#utility.yul\":24203:24204   */\n      0x00\n        /* \"#utility.yul\":24200:24201   */\n      dup1\n        /* \"#utility.yul\":24193:24205   */\n      revert\n        /* \"#utility.yul\":24144:24207   */\n    tag_577:\n        /* \"#utility.yul\":24091:24213   */\n      pop\n      jump\t// out\n        /* \"#utility.yul\":24219:24341   */\n    tag_338:\n        /* \"#utility.yul\":24292:24316   */\n      tag_579\n        /* \"#utility.yul\":24310:24315   */\n      dup2\n        /* \"#utility.yul\":24292:24316   */\n      tag_440\n      jump\t// in\n    tag_579:\n        /* \"#utility.yul\":24285:24290   */\n      dup2\n        /* \"#utility.yul\":24282:24317   */\n      eq\n        /* \"#utility.yul\":24272:24335   */\n      tag_580\n      jumpi\n        /* \"#utility.yul\":24331:24332   */\n      0x00\n        /* \"#utility.yul\":24328:24329   */\n      dup1\n        /* \"#utility.yul\":24321:24333   */\n      revert\n        /* \"#utility.yul\":24272:24335   */\n    tag_580:\n        /* \"#utility.yul\":24219:24341   */\n      pop\n      jump\t// out\n\n    auxdata: 0xa26469706673582212208439133ab75d0373f624269823bdc01f74a2cbff2ba574a401244ce67090046964736f6c63430008070033\n}\n",
				"bytecode": {
					"linkReferences": {},
					"object": "608060405234801561001057600080fd5b50612130806100206000396000f3fe6080604052600436106100555760003560e01c8063288f09381461005a578063969b156714610083578063c4fb3337146100b3578063c9d27afe146100d1578063d78b0dac146100fa578063f5c7996c14610123575b600080fd5b34801561006657600080fd5b50610081600480360381019061007c9190611663565b61014c565b005b61009d6004803603810190610098919061161a565b6106dc565b6040516100aa9190611a6c565b60405180910390f35b6100bb61087e565b6040516100c89190611a6c565b60405180910390f35b3480156100dd57600080fd5b506100f860048036038101906100f39190611690565b6109e5565b005b34801561010657600080fd5b50610121600480360381019061011c9190611575565b610dfa565b005b34801561012f57600080fd5b5061014a60048036038101906101459190611663565b610dfe565b005b600115156002828154811061016457610163611e66565b5b906000526020600020906046020160020160003373ffffffffffffffffffffffffffffffffffffffff1673ffffffffffffffffffffffffffffffffffffffff16815260200190815260200160002060009054906101000a900460ff161515148061023e57503373ffffffffffffffffffffffffffffffffffffffff16600282815481106101f4576101f3611e66565b5b906000526020600020906046020160400160009054906101000a900473ffffffffffffffffffffffffffffffffffffffff1673ffffffffffffffffffffffffffffffffffffffff16145b61027d576040517f08c379a000000000000000000000000000000000000000000000000000000000815260040161027490611a4c565b60405180910390fd5b6002818154811061029157610290611e66565b5b90600052602060002090604602016045015443116102e4576040517f08c379a00000000000000000000000000000000000000000000000000000000081526004016102db9061196c565b60405180910390fd5b6008600282815481106102fa576102f9611e66565b5b906000526020600020906046020160440154600283815481106103205761031f611e66565b5b90600052602060002090604602016043015461033c9190611b81565b1061069a576002818154811061035557610354611e66565b5b9060005260206000209060460201604401546002828154811061037b5761037a611e66565b5b90600052602060002090604602016043015411156105795760005b600282815481106103aa576103a9611e66565b5b9060005260206000209060460201604301548110156104ad57600282815481106103d7576103d6611e66565b5b906000526020600020906046020160170181601481106103fa576103f9611e66565b5b0160009054906101000a900473ffffffffffffffffffffffffffffffffffffffff1673ffffffffffffffffffffffffffffffffffffffff166108fc6002848154811061044957610448611e66565b5b906000526020600020906046020160410154670de0b6b3a764000061046e9190611b81565b9081150290604051600060405180830381858888f19350505050158015610499573d6000803e3d6000fd5b5080806104a590611d02565b915050610396565b50600281815481106104c2576104c1611e66565b5b906000526020600020906046020160400160009054906101000a900473ffffffffffffffffffffffffffffffffffffffff1660036002838154811061050a57610509611e66565b5b9060005260206000209060460201603f0160405161052891906118ec565b908152602001604051809103902060006101000a81548173ffffffffffffffffffffffffffffffffffffffff021916908373ffffffffffffffffffffffffffffffffffffffff160217905550610695565b60005b600282815481106105905761058f611e66565b5b90600052602060002090604602016044015481101561069357600282815481106105bd576105bc611e66565b5b9060005260206000209060460201602b0181601481106105e0576105df611e66565b5b0160009054906101000a900473ffffffffffffffffffffffffffffffffffffffff1673ffffffffffffffffffffffffffffffffffffffff166108fc6002848154811061062f5761062e611e66565b5b906000526020600020906046020160410154670de0b6b3a76400006106549190611b81565b9081150290604051600060405180830381858888f1935050505015801561067f573d6000803e3d6000fd5b50808061068b90611d02565b91505061057c565b505b61069b565b5b6001600282815481106106b1576106b0611e66565b5b906000526020600020906046020160420160006101000a81548160ff02191690831515021790555050565b6000678ac7230489e800003410156106f357600080fd5b60006002424433600454604051602001610710949392919061191e565b60405160208183030381529060405260405161072c91906118d5565b602060405180830381855afa158015610749573d6000803e3d6000fd5b5050506040513d601f19601f8201168201806040525081019061076c91906115ed565b60001c90508060026005548154811061078857610787611e66565b5b9060005260206000209060460201600101819055506005546002600554815481106107b6576107b5611e66565b5b906000526020600020906046020160000181905550336002600554815481106107e2576107e1611e66565b5b906000526020600020906046020160400160006101000a81548173ffffffffffffffffffffffffffffffffffffffff021916908373ffffffffffffffffffffffffffffffffffffffff1602179055508260026005548154811061084857610847611e66565b5b9060005260206000209060460201603f01908051906020019061086c9291906112f7565b50610878600554611044565b50919050565b6000670de0b6b3a764000034146108ca576040517f08c379a00000000000000000000000000000000000000000000000000000000081526004016108c1906119cc565b60405180910390fd5b60001515600160003373ffffffffffffffffffffffffffffffffffffffff1673ffffffffffffffffffffffffffffffffffffffff16815260200190815260200160002060009054906101000a900460ff1615151461095d576040517f08c379a0000000000000000000000000000000000000000000000000000000008152600401610954906119ac565b60405180910390fd5b3360006004548154811061097457610973611e66565b5b9060005260206000200160006101000a81548173ffffffffffffffffffffffffffffffffffffffff021916908373ffffffffffffffffffffffffffffffffffffffff16021790555060016004546109cb9190611b81565b60048190555060016004546109e09190611bd7565b905090565b60011515600283815481106109fd576109fc611e66565b5b906000526020600020906046020160020160003373ffffffffffffffffffffffffffffffffffffffff1673ffffffffffffffffffffffffffffffffffffffff16815260200190815260200160002060009054906101000a900460ff16151514610a9b576040517f08c379a0000000000000000000000000000000000000000000000000000000008152600401610a9290611a0c565b60405180910390fd5b60028281548110610aaf57610aae611e66565b5b9060005260206000209060460201604501544310610b02576040517f08c379a0000000000000000000000000000000000000000000000000000000008152600401610af99061198c565b60405180910390fd5b8015610c04573360028381548110610b1d57610b1c611e66565b5b906000526020600020906046020160170160028481548110610b4257610b41611e66565b5b90600052602060002090604602016043015460148110610b6557610b64611e66565b5b0160006101000a81548173ffffffffffffffffffffffffffffffffffffffff021916908373ffffffffffffffffffffffffffffffffffffffff160217905550600160028381548110610bba57610bb9611e66565b5b906000526020600020906046020160430154610bd69190611b81565b60028381548110610bea57610be9611e66565b5b906000526020600020906046020160430181905550610cfc565b3360028381548110610c1957610c18611e66565b5b9060005260206000209060460201602b0160028481548110610c3e57610c3d611e66565b5b90600052602060002090604602016044015460148110610c6157610c60611e66565b5b0160006101000a81548173ffffffffffffffffffffffffffffffffffffffff021916908373ffffffffffffffffffffffffffffffffffffffff160217905550600160028381548110610cb657610cb5611e66565b5b906000526020600020906046020160440154610cd29190611b81565b60028381548110610ce657610ce5611e66565b5b9060005260206000209060460201604401819055505b3373ffffffffffffffffffffffffffffffffffffffff166108fc60028481548110610d2a57610d29611e66565b5b906000526020600020906046020160410154670de0b6b3a7640000610d4f9190611b81565b9081150290604051600060405180830381858888f19350505050158015610d7a573d6000803e3d6000fd5b50600060028381548110610d9157610d90611e66565b5b906000526020600020906046020160020160003373ffffffffffffffffffffffffffffffffffffffff1673ffffffffffffffffffffffffffffffffffffffff16815260200190815260200160002060006101000a81548160ff0219169083151502179055505050565b5050565b3373ffffffffffffffffffffffffffffffffffffffff1660008281548110610e2957610e28611e66565b5b9060005260206000200160009054906101000a900473ffffffffffffffffffffffffffffffffffffffff1673ffffffffffffffffffffffffffffffffffffffff1614610eaa576040517f08c379a0000000000000000000000000000000000000000000000000000000008152600401610ea190611a2c565b60405180910390fd5b60011515600160003373ffffffffffffffffffffffffffffffffffffffff1673ffffffffffffffffffffffffffffffffffffffff16815260200190815260200160002060009054906101000a900460ff16151514610f3d576040517f08c379a0000000000000000000000000000000000000000000000000000000008152600401610f34906119ec565b60405180910390fd5b6000600160003373ffffffffffffffffffffffffffffffffffffffff1673ffffffffffffffffffffffffffffffffffffffff16815260200190815260200160002060006101000a81548160ff0219169083151502179055506000808281548110610faa57610fa9611e66565b5b9060005260206000200160006101000a81548173ffffffffffffffffffffffffffffffffffffffff021916908373ffffffffffffffffffffffffffffffffffffffff1602179055503373ffffffffffffffffffffffffffffffffffffffff166108fc670de0b6b3a76400009081150290604051600060405180830381858888f19350505050158015611040573d6000803e3d6000fd5b5050565b60005b60148110156112f35760008080549050600260008054905060405160200161106f9190611903565b60405160208183030381529060405260405161108b91906118d5565b602060405180830381855afa1580156110a8573d6000803e3d6000fd5b5050506040513d601f19601f820116820180604052508101906110cb91906115ed565b60001c6110d89190611d79565b905060008082815481106110ef576110ee611e66565b5b9060005260206000200160009054906101000a900473ffffffffffffffffffffffffffffffffffffffff1690506000600160008373ffffffffffffffffffffffffffffffffffffffff1673ffffffffffffffffffffffffffffffffffffffff16815260200190815260200160002060006101000a81548160ff021916908315150217905550600060016000805490506111889190611bd7565b8154811061119957611198611e66565b5b9060005260206000200160009054906101000a900473ffffffffffffffffffffffffffffffffffffffff16600083815481106111d8576111d7611e66565b5b9060005260206000200160006101000a81548173ffffffffffffffffffffffffffffffffffffffff021916908373ffffffffffffffffffffffffffffffffffffffff160217905550600080548061123257611231611e37565b5b6001900381819060005260206000200160006101000a81549073ffffffffffffffffffffffffffffffffffffffff02191690559055806002858154811061127c5761127b611e66565b5b9060005260206000209060460201600301846014811061129f5761129e611e66565b5b0160006101000a81548173ffffffffffffffffffffffffffffffffffffffff021916908373ffffffffffffffffffffffffffffffffffffffff160217905550505080806112eb90611d02565b915050611047565b5050565b82805461130390611c9f565b90600052602060002090601f016020900481019282611325576000855561136c565b82601f1061133e57805160ff191683800117855561136c565b8280016001018555821561136c579182015b8281111561136b578251825591602001919060010190611350565b5b509050611379919061137d565b5090565b5b8082111561139657600081600090555060010161137e565b5090565b60006113ad6113a884611aac565b611a87565b905080838252602082019050828560208602820111156113d0576113cf611ec9565b5b60005b8581101561141e57813567ffffffffffffffff8111156113f6576113f5611ec4565b5b8086016114038982611504565b855260208501945060208401935050506001810190506113d3565b5050509392505050565b600061143b61143684611ad8565b611a87565b90508281526020810184848401111561145757611456611ece565b5b611462848285611c5d565b509392505050565b600061147d61147884611b09565b611a87565b90508281526020810184848401111561149957611498611ece565b5b6114a4848285611c5d565b509392505050565b600082601f8301126114c1576114c0611ec4565b5b81356114d184826020860161139a565b91505092915050565b6000813590506114e9816120b5565b92915050565b6000815190506114fe816120cc565b92915050565b600082601f83011261151957611518611ec4565b5b8135611529848260208601611428565b91505092915050565b600082601f83011261154757611546611ec4565b5b813561155784826020860161146a565b91505092915050565b60008135905061156f816120e3565b92915050565b6000806040838503121561158c5761158b611ed8565b5b600083013567ffffffffffffffff8111156115aa576115a9611ed3565b5b6115b6858286016114ac565b925050602083013567ffffffffffffffff8111156115d7576115d6611ed3565b5b6115e385828601611532565b9150509250929050565b60006020828403121561160357611602611ed8565b5b6000611611848285016114ef565b91505092915050565b6000602082840312156116305761162f611ed8565b5b600082013567ffffffffffffffff81111561164e5761164d611ed3565b5b61165a84828501611532565b91505092915050565b60006020828403121561167957611678611ed8565b5b600061168784828501611560565b91505092915050565b600080604083850312156116a7576116a6611ed8565b5b60006116b585828601611560565b92505060206116c6858286016114da565b9150509250929050565b6116e16116dc82611c0b565b611d4b565b82525050565b60006116f282611b4f565b6116fc8185611b5a565b935061170c818560208601611c6c565b80840191505092915050565b6000815461172581611c9f565b61172f8186611b76565b9450600182166000811461174a576001811461175b5761178e565b60ff1983168652818601935061178e565b61176485611b3a565b60005b8381101561178657815481890152600182019150602081019050611767565b838801955050505b50505092915050565b60006117a4601883611b65565b91506117af82611efb565b602082019050919050565b60006117c7601183611b65565b91506117d282611f24565b602082019050919050565b60006117ea601283611b65565b91506117f582611f4d565b602082019050919050565b600061180d602883611b65565b915061181882611f76565b604082019050919050565b6000611830600e83611b65565b915061183b82611fc5565b602082019050919050565b6000611853602183611b65565b915061185e82611fee565b604082019050919050565b6000611876601e83611b65565b91506118818261203d565b602082019050919050565b6000611899602883611b65565b91506118a482612066565b604082019050919050565b6118b881611c53565b82525050565b6118cf6118ca82611c53565b611d6f565b82525050565b60006118e182846116e7565b915081905092915050565b60006118f88284611718565b915081905092915050565b600061190f82846118be565b60208201915081905092915050565b600061192a82876118be565b60208201915061193a82866118be565b60208201915061194a82856116d0565b60148201915061195a82846118be565b60208201915081905095945050505050565b6000602082019050818103600083015261198581611797565b9050919050565b600060208201905081810360008301526119a5816117ba565b9050919050565b600060208201905081810360008301526119c5816117dd565b9050919050565b600060208201905081810360008301526119e581611800565b9050919050565b60006020820190508181036000830152611a0581611823565b9050919050565b60006020820190508181036000830152611a2581611846565b9050919050565b60006020820190508181036000830152611a4581611869565b9050919050565b60006020820190508181036000830152611a658161188c565b9050919050565b6000602082019050611a8160008301846118af565b92915050565b6000611a91611aa2565b9050611a9d8282611cd1565b919050565b6000604051905090565b600067ffffffffffffffff821115611ac757611ac6611e95565b5b602082029050602081019050919050565b600067ffffffffffffffff821115611af357611af2611e95565b5b611afc82611edd565b9050602081019050919050565b600067ffffffffffffffff821115611b2457611b23611e95565b5b611b2d82611edd565b9050602081019050919050565b60008190508160005260206000209050919050565b600081519050919050565b600081905092915050565b600082825260208201905092915050565b600081905092915050565b6000611b8c82611c53565b9150611b9783611c53565b9250827fffffffffffffffffffffffffffffffffffffffffffffffffffffffffffffffff03821115611bcc57611bcb611daa565b5b828201905092915050565b6000611be282611c53565b9150611bed83611c53565b925082821015611c0057611bff611daa565b5b828203905092915050565b6000611c1682611c33565b9050919050565b60008115159050919050565b6000819050919050565b600073ffffffffffffffffffffffffffffffffffffffff82169050919050565b6000819050919050565b82818337600083830152505050565b60005b83811015611c8a578082015181840152602081019050611c6f565b83811115611c99576000848401525b50505050565b60006002820490506001821680611cb757607f821691505b60208210811415611ccb57611cca611e08565b5b50919050565b611cda82611edd565b810181811067ffffffffffffffff82111715611cf957611cf8611e95565b5b80604052505050565b6000611d0d82611c53565b91507fffffffffffffffffffffffffffffffffffffffffffffffffffffffffffffffff821415611d4057611d3f611daa565b5b600182019050919050565b6000611d5682611d5d565b9050919050565b6000611d6882611eee565b9050919050565b6000819050919050565b6000611d8482611c53565b9150611d8f83611c53565b925082611d9f57611d9e611dd9565b5b828206905092915050565b7f4e487b7100000000000000000000000000000000000000000000000000000000600052601160045260246000fd5b7f4e487b7100000000000000000000000000000000000000000000000000000000600052601260045260246000fd5b7f4e487b7100000000000000000000000000000000000000000000000000000000600052602260045260246000fd5b7f4e487b7100000000000000000000000000000000000000000000000000000000600052603160045260246000fd5b7f4e487b7100000000000000000000000000000000000000000000000000000000600052603260045260246000fd5b7f4e487b7100000000000000000000000000000000000000000000000000000000600052604160045260246000fd5b600080fd5b600080fd5b600080fd5b600080fd5b600080fd5b6000601f19601f8301169050919050565b60008160601b9050919050565b7f446561646c696e65206e6f742079657420706173736564210000000000000000600082015250565b7f566f74696e672068617320636c6f736564000000000000000000000000000000600082015250565b7f416c7265616479207369676e6564207570210000000000000000000000000000600082015250565b7f5369676e2d75702072656a65637465642120496e61646571756174652073746160008201527f6b652076616c7565000000000000000000000000000000000000000000000000602082015250565b7f4e6f74207369676e656420757021000000000000000000000000000000000000600082015250565b7f4e6f7420612076616c696461746f7220666f722074686973207265717565737460008201527f2100000000000000000000000000000000000000000000000000000000000000602082015250565b7f494420646f65736e2774206d6174636820796f75722061646472657373210000600082015250565b7f4e6f7420617574686f72697a656420746f20656e64207468697320766572696660008201527f69636174696f6e21000000000000000000000000000000000000000000000000602082015250565b6120be81611c1d565b81146120c957600080fd5b50565b6120d581611c29565b81146120e057600080fd5b50565b6120ec81611c53565b81146120f757600080fd5b5056fea26469706673582212208439133ab75d0373f624269823bdc01f74a2cbff2ba574a401244ce67090046964736f6c63430008070033",
					"opcodes": "PUSH1 0x80 PUSH1 0x40 MSTORE CALLVALUE DUP1 ISZERO PUSH2 0x10 JUMPI PUSH1 0x0 DUP1 REVERT JUMPDEST POP PUSH2 0x2130 DUP1 PUSH2 0x20 PUSH1 0x0 CODECOPY PUSH1 0x0 RETURN INVALID PUSH1 0x80 PUSH1 0x40 MSTORE PUSH1 0x4 CALLDATASIZE LT PUSH2 0x55 JUMPI PUSH1 0x0 CALLDATALOAD PUSH1 0xE0 SHR DUP1 PUSH4 0x288F0938 EQ PUSH2 0x5A JUMPI DUP1 PUSH4 0x969B1567 EQ PUSH2 0x83 JUMPI DUP1 PUSH4 0xC4FB3337 EQ PUSH2 0xB3 JUMPI DUP1 PUSH4 0xC9D27AFE EQ PUSH2 0xD1 JUMPI DUP1 PUSH4 0xD78B0DAC EQ PUSH2 0xFA JUMPI DUP1 PUSH4 0xF5C7996C EQ PUSH2 0x123 JUMPI JUMPDEST PUSH1 0x0 DUP1 REVERT JUMPDEST CALLVALUE DUP1 ISZERO PUSH2 0x66 JUMPI PUSH1 0x0 DUP1 REVERT JUMPDEST POP PUSH2 0x81 PUSH1 0x4 DUP1 CALLDATASIZE SUB DUP2 ADD SWAP1 PUSH2 0x7C SWAP2 SWAP1 PUSH2 0x1663 JUMP JUMPDEST PUSH2 0x14C JUMP JUMPDEST STOP JUMPDEST PUSH2 0x9D PUSH1 0x4 DUP1 CALLDATASIZE SUB DUP2 ADD SWAP1 PUSH2 0x98 SWAP2 SWAP1 PUSH2 0x161A JUMP JUMPDEST PUSH2 0x6DC JUMP JUMPDEST PUSH1 0x40 MLOAD PUSH2 0xAA SWAP2 SWAP1 PUSH2 0x1A6C JUMP JUMPDEST PUSH1 0x40 MLOAD DUP1 SWAP2 SUB SWAP1 RETURN JUMPDEST PUSH2 0xBB PUSH2 0x87E JUMP JUMPDEST PUSH1 0x40 MLOAD PUSH2 0xC8 SWAP2 SWAP1 PUSH2 0x1A6C JUMP JUMPDEST PUSH1 0x40 MLOAD DUP1 SWAP2 SUB SWAP1 RETURN JUMPDEST CALLVALUE DUP1 ISZERO PUSH2 0xDD JUMPI PUSH1 0x0 DUP1 REVERT JUMPDEST POP PUSH2 0xF8 PUSH1 0x4 DUP1 CALLDATASIZE SUB DUP2 ADD SWAP1 PUSH2 0xF3 SWAP2 SWAP1 PUSH2 0x1690 JUMP JUMPDEST PUSH2 0x9E5 JUMP JUMPDEST STOP JUMPDEST CALLVALUE DUP1 ISZERO PUSH2 0x106 JUMPI PUSH1 0x0 DUP1 REVERT JUMPDEST POP PUSH2 0x121 PUSH1 0x4 DUP1 CALLDATASIZE SUB DUP2 ADD SWAP1 PUSH2 0x11C SWAP2 SWAP1 PUSH2 0x1575 JUMP JUMPDEST PUSH2 0xDFA JUMP JUMPDEST STOP JUMPDEST CALLVALUE DUP1 ISZERO PUSH2 0x12F JUMPI PUSH1 0x0 DUP1 REVERT JUMPDEST POP PUSH2 0x14A PUSH1 0x4 DUP1 CALLDATASIZE SUB DUP2 ADD SWAP1 PUSH2 0x145 SWAP2 SWAP1 PUSH2 0x1663 JUMP JUMPDEST PUSH2 0xDFE JUMP JUMPDEST STOP JUMPDEST PUSH1 0x1 ISZERO ISZERO PUSH1 0x2 DUP3 DUP2 SLOAD DUP2 LT PUSH2 0x164 JUMPI PUSH2 0x163 PUSH2 0x1E66 JUMP JUMPDEST JUMPDEST SWAP1 PUSH1 0x0 MSTORE PUSH1 0x20 PUSH1 0x0 KECCAK256 SWAP1 PUSH1 0x46 MUL ADD PUSH1 0x2 ADD PUSH1 0x0 CALLER PUSH20 0xFFFFFFFFFFFFFFFFFFFFFFFFFFFFFFFFFFFFFFFF AND PUSH20 0xFFFFFFFFFFFFFFFFFFFFFFFFFFFFFFFFFFFFFFFF AND DUP2 MSTORE PUSH1 0x20 ADD SWAP1 DUP2 MSTORE PUSH1 0x20 ADD PUSH1 0x0 KECCAK256 PUSH1 0x0 SWAP1 SLOAD SWAP1 PUSH2 0x100 EXP SWAP1 DIV PUSH1 0xFF AND ISZERO ISZERO EQ DUP1 PUSH2 0x23E JUMPI POP CALLER PUSH20 0xFFFFFFFFFFFFFFFFFFFFFFFFFFFFFFFFFFFFFFFF AND PUSH1 0x2 DUP3 DUP2 SLOAD DUP2 LT PUSH2 0x1F4 JUMPI PUSH2 0x1F3 PUSH2 0x1E66 JUMP JUMPDEST JUMPDEST SWAP1 PUSH1 0x0 MSTORE PUSH1 0x20 PUSH1 0x0 KECCAK256 SWAP1 PUSH1 0x46 MUL ADD PUSH1 0x40 ADD PUSH1 0x0 SWAP1 SLOAD SWAP1 PUSH2 0x100 EXP SWAP1 DIV PUSH20 0xFFFFFFFFFFFFFFFFFFFFFFFFFFFFFFFFFFFFFFFF AND PUSH20 0xFFFFFFFFFFFFFFFFFFFFFFFFFFFFFFFFFFFFFFFF AND EQ JUMPDEST PUSH2 0x27D JUMPI PUSH1 0x40 MLOAD PUSH32 0x8C379A000000000000000000000000000000000000000000000000000000000 DUP2 MSTORE PUSH1 0x4 ADD PUSH2 0x274 SWAP1 PUSH2 0x1A4C JUMP JUMPDEST PUSH1 0x40 MLOAD DUP1 SWAP2 SUB SWAP1 REVERT JUMPDEST PUSH1 0x2 DUP2 DUP2 SLOAD DUP2 LT PUSH2 0x291 JUMPI PUSH2 0x290 PUSH2 0x1E66 JUMP JUMPDEST JUMPDEST SWAP1 PUSH1 0x0 MSTORE PUSH1 0x20 PUSH1 0x0 KECCAK256 SWAP1 PUSH1 0x46 MUL ADD PUSH1 0x45 ADD SLOAD NUMBER GT PUSH2 0x2E4 JUMPI PUSH1 0x40 MLOAD PUSH32 0x8C379A000000000000000000000000000000000000000000000000000000000 DUP2 MSTORE PUSH1 0x4 ADD PUSH2 0x2DB SWAP1 PUSH2 0x196C JUMP JUMPDEST PUSH1 0x40 MLOAD DUP1 SWAP2 SUB SWAP1 REVERT JUMPDEST PUSH1 0x8 PUSH1 0x2 DUP3 DUP2 SLOAD DUP2 LT PUSH2 0x2FA JUMPI PUSH2 0x2F9 PUSH2 0x1E66 JUMP JUMPDEST JUMPDEST SWAP1 PUSH1 0x0 MSTORE PUSH1 0x20 PUSH1 0x0 KECCAK256 SWAP1 PUSH1 0x46 MUL ADD PUSH1 0x44 ADD SLOAD PUSH1 0x2 DUP4 DUP2 SLOAD DUP2 LT PUSH2 0x320 JUMPI PUSH2 0x31F PUSH2 0x1E66 JUMP JUMPDEST JUMPDEST SWAP1 PUSH1 0x0 MSTORE PUSH1 0x20 PUSH1 0x0 KECCAK256 SWAP1 PUSH1 0x46 MUL ADD PUSH1 0x43 ADD SLOAD PUSH2 0x33C SWAP2 SWAP1 PUSH2 0x1B81 JUMP JUMPDEST LT PUSH2 0x69A JUMPI PUSH1 0x2 DUP2 DUP2 SLOAD DUP2 LT PUSH2 0x355 JUMPI PUSH2 0x354 PUSH2 0x1E66 JUMP JUMPDEST JUMPDEST SWAP1 PUSH1 0x0 MSTORE PUSH1 0x20 PUSH1 0x0 KECCAK256 SWAP1 PUSH1 0x46 MUL ADD PUSH1 0x44 ADD SLOAD PUSH1 0x2 DUP3 DUP2 SLOAD DUP2 LT PUSH2 0x37B JUMPI PUSH2 0x37A PUSH2 0x1E66 JUMP JUMPDEST JUMPDEST SWAP1 PUSH1 0x0 MSTORE PUSH1 0x20 PUSH1 0x0 KECCAK256 SWAP1 PUSH1 0x46 MUL ADD PUSH1 0x43 ADD SLOAD GT ISZERO PUSH2 0x579 JUMPI PUSH1 0x0 JUMPDEST PUSH1 0x2 DUP3 DUP2 SLOAD DUP2 LT PUSH2 0x3AA JUMPI PUSH2 0x3A9 PUSH2 0x1E66 JUMP JUMPDEST JUMPDEST SWAP1 PUSH1 0x0 MSTORE PUSH1 0x20 PUSH1 0x0 KECCAK256 SWAP1 PUSH1 0x46 MUL ADD PUSH1 0x43 ADD SLOAD DUP2 LT ISZERO PUSH2 0x4AD JUMPI PUSH1 0x2 DUP3 DUP2 SLOAD DUP2 LT PUSH2 0x3D7 JUMPI PUSH2 0x3D6 PUSH2 0x1E66 JUMP JUMPDEST JUMPDEST SWAP1 PUSH1 0x0 MSTORE PUSH1 0x20 PUSH1 0x0 KECCAK256 SWAP1 PUSH1 0x46 MUL ADD PUSH1 0x17 ADD DUP2 PUSH1 0x14 DUP2 LT PUSH2 0x3FA JUMPI PUSH2 0x3F9 PUSH2 0x1E66 JUMP JUMPDEST JUMPDEST ADD PUSH1 0x0 SWAP1 SLOAD SWAP1 PUSH2 0x100 EXP SWAP1 DIV PUSH20 0xFFFFFFFFFFFFFFFFFFFFFFFFFFFFFFFFFFFFFFFF AND PUSH20 0xFFFFFFFFFFFFFFFFFFFFFFFFFFFFFFFFFFFFFFFF AND PUSH2 0x8FC PUSH1 0x2 DUP5 DUP2 SLOAD DUP2 LT PUSH2 0x449 JUMPI PUSH2 0x448 PUSH2 0x1E66 JUMP JUMPDEST JUMPDEST SWAP1 PUSH1 0x0 MSTORE PUSH1 0x20 PUSH1 0x0 KECCAK256 SWAP1 PUSH1 0x46 MUL ADD PUSH1 0x41 ADD SLOAD PUSH8 0xDE0B6B3A7640000 PUSH2 0x46E SWAP2 SWAP1 PUSH2 0x1B81 JUMP JUMPDEST SWAP1 DUP2 ISZERO MUL SWAP1 PUSH1 0x40 MLOAD PUSH1 0x0 PUSH1 0x40 MLOAD DUP1 DUP4 SUB DUP2 DUP6 DUP9 DUP9 CALL SWAP4 POP POP POP POP ISZERO DUP1 ISZERO PUSH2 0x499 JUMPI RETURNDATASIZE PUSH1 0x0 DUP1 RETURNDATACOPY RETURNDATASIZE PUSH1 0x0 REVERT JUMPDEST POP DUP1 DUP1 PUSH2 0x4A5 SWAP1 PUSH2 0x1D02 JUMP JUMPDEST SWAP2 POP POP PUSH2 0x396 JUMP JUMPDEST POP PUSH1 0x2 DUP2 DUP2 SLOAD DUP2 LT PUSH2 0x4C2 JUMPI PUSH2 0x4C1 PUSH2 0x1E66 JUMP JUMPDEST JUMPDEST SWAP1 PUSH1 0x0 MSTORE PUSH1 0x20 PUSH1 0x0 KECCAK256 SWAP1 PUSH1 0x46 MUL ADD PUSH1 0x40 ADD PUSH1 0x0 SWAP1 SLOAD SWAP1 PUSH2 0x100 EXP SWAP1 DIV PUSH20 0xFFFFFFFFFFFFFFFFFFFFFFFFFFFFFFFFFFFFFFFF AND PUSH1 0x3 PUSH1 0x2 DUP4 DUP2 SLOAD DUP2 LT PUSH2 0x50A JUMPI PUSH2 0x509 PUSH2 0x1E66 JUMP JUMPDEST JUMPDEST SWAP1 PUSH1 0x0 MSTORE PUSH1 0x20 PUSH1 0x0 KECCAK256 SWAP1 PUSH1 0x46 MUL ADD PUSH1 0x3F ADD PUSH1 0x40 MLOAD PUSH2 0x528 SWAP2 SWAP1 PUSH2 0x18EC JUMP JUMPDEST SWAP1 DUP2 MSTORE PUSH1 0x20 ADD PUSH1 0x40 MLOAD DUP1 SWAP2 SUB SWAP1 KECCAK256 PUSH1 0x0 PUSH2 0x100 EXP DUP2 SLOAD DUP2 PUSH20 0xFFFFFFFFFFFFFFFFFFFFFFFFFFFFFFFFFFFFFFFF MUL NOT AND SWAP1 DUP4 PUSH20 0xFFFFFFFFFFFFFFFFFFFFFFFFFFFFFFFFFFFFFFFF AND MUL OR SWAP1 SSTORE POP PUSH2 0x695 JUMP JUMPDEST PUSH1 0x0 JUMPDEST PUSH1 0x2 DUP3 DUP2 SLOAD DUP2 LT PUSH2 0x590 JUMPI PUSH2 0x58F PUSH2 0x1E66 JUMP JUMPDEST JUMPDEST SWAP1 PUSH1 0x0 MSTORE PUSH1 0x20 PUSH1 0x0 KECCAK256 SWAP1 PUSH1 0x46 MUL ADD PUSH1 0x44 ADD SLOAD DUP2 LT ISZERO PUSH2 0x693 JUMPI PUSH1 0x2 DUP3 DUP2 SLOAD DUP2 LT PUSH2 0x5BD JUMPI PUSH2 0x5BC PUSH2 0x1E66 JUMP JUMPDEST JUMPDEST SWAP1 PUSH1 0x0 MSTORE PUSH1 0x20 PUSH1 0x0 KECCAK256 SWAP1 PUSH1 0x46 MUL ADD PUSH1 0x2B ADD DUP2 PUSH1 0x14 DUP2 LT PUSH2 0x5E0 JUMPI PUSH2 0x5DF PUSH2 0x1E66 JUMP JUMPDEST JUMPDEST ADD PUSH1 0x0 SWAP1 SLOAD SWAP1 PUSH2 0x100 EXP SWAP1 DIV PUSH20 0xFFFFFFFFFFFFFFFFFFFFFFFFFFFFFFFFFFFFFFFF AND PUSH20 0xFFFFFFFFFFFFFFFFFFFFFFFFFFFFFFFFFFFFFFFF AND PUSH2 0x8FC PUSH1 0x2 DUP5 DUP2 SLOAD DUP2 LT PUSH2 0x62F JUMPI PUSH2 0x62E PUSH2 0x1E66 JUMP JUMPDEST JUMPDEST SWAP1 PUSH1 0x0 MSTORE PUSH1 0x20 PUSH1 0x0 KECCAK256 SWAP1 PUSH1 0x46 MUL ADD PUSH1 0x41 ADD SLOAD PUSH8 0xDE0B6B3A7640000 PUSH2 0x654 SWAP2 SWAP1 PUSH2 0x1B81 JUMP JUMPDEST SWAP1 DUP2 ISZERO MUL SWAP1 PUSH1 0x40 MLOAD PUSH1 0x0 PUSH1 0x40 MLOAD DUP1 DUP4 SUB DUP2 DUP6 DUP9 DUP9 CALL SWAP4 POP POP POP POP ISZERO DUP1 ISZERO PUSH2 0x67F JUMPI RETURNDATASIZE PUSH1 0x0 DUP1 RETURNDATACOPY RETURNDATASIZE PUSH1 0x0 REVERT JUMPDEST POP DUP1 DUP1 PUSH2 0x68B SWAP1 PUSH2 0x1D02 JUMP JUMPDEST SWAP2 POP POP PUSH2 0x57C JUMP JUMPDEST POP JUMPDEST PUSH2 0x69B JUMP JUMPDEST JUMPDEST PUSH1 0x1 PUSH1 0x2 DUP3 DUP2 SLOAD DUP2 LT PUSH2 0x6B1 JUMPI PUSH2 0x6B0 PUSH2 0x1E66 JUMP JUMPDEST JUMPDEST SWAP1 PUSH1 0x0 MSTORE PUSH1 0x20 PUSH1 0x0 KECCAK256 SWAP1 PUSH1 0x46 MUL ADD PUSH1 0x42 ADD PUSH1 0x0 PUSH2 0x100 EXP DUP2 SLOAD DUP2 PUSH1 0xFF MUL NOT AND SWAP1 DUP4 ISZERO ISZERO MUL OR SWAP1 SSTORE POP POP JUMP JUMPDEST PUSH1 0x0 PUSH8 0x8AC7230489E80000 CALLVALUE LT ISZERO PUSH2 0x6F3 JUMPI PUSH1 0x0 DUP1 REVERT JUMPDEST PUSH1 0x0 PUSH1 0x2 TIMESTAMP DIFFICULTY CALLER PUSH1 0x4 SLOAD PUSH1 0x40 MLOAD PUSH1 0x20 ADD PUSH2 0x710 SWAP5 SWAP4 SWAP3 SWAP2 SWAP1 PUSH2 0x191E JUMP JUMPDEST PUSH1 0x40 MLOAD PUSH1 0x20 DUP2 DUP4 SUB SUB DUP2 MSTORE SWAP1 PUSH1 0x40 MSTORE PUSH1 0x40 MLOAD PUSH2 0x72C SWAP2 SWAP1 PUSH2 0x18D5 JUMP JUMPDEST PUSH1 0x20 PUSH1 0x40 MLOAD DUP1 DUP4 SUB DUP2 DUP6 GAS STATICCALL ISZERO DUP1 ISZERO PUSH2 0x749 JUMPI RETURNDATASIZE PUSH1 0x0 DUP1 RETURNDATACOPY RETURNDATASIZE PUSH1 0x0 REVERT JUMPDEST POP POP POP PUSH1 0x40 MLOAD RETURNDATASIZE PUSH1 0x1F NOT PUSH1 0x1F DUP3 ADD AND DUP3 ADD DUP1 PUSH1 0x40 MSTORE POP DUP2 ADD SWAP1 PUSH2 0x76C SWAP2 SWAP1 PUSH2 0x15ED JUMP JUMPDEST PUSH1 0x0 SHR SWAP1 POP DUP1 PUSH1 0x2 PUSH1 0x5 SLOAD DUP2 SLOAD DUP2 LT PUSH2 0x788 JUMPI PUSH2 0x787 PUSH2 0x1E66 JUMP JUMPDEST JUMPDEST SWAP1 PUSH1 0x0 MSTORE PUSH1 0x20 PUSH1 0x0 KECCAK256 SWAP1 PUSH1 0x46 MUL ADD PUSH1 0x1 ADD DUP2 SWAP1 SSTORE POP PUSH1 0x5 SLOAD PUSH1 0x2 PUSH1 0x5 SLOAD DUP2 SLOAD DUP2 LT PUSH2 0x7B6 JUMPI PUSH2 0x7B5 PUSH2 0x1E66 JUMP JUMPDEST JUMPDEST SWAP1 PUSH1 0x0 MSTORE PUSH1 0x20 PUSH1 0x0 KECCAK256 SWAP1 PUSH1 0x46 MUL ADD PUSH1 0x0 ADD DUP2 SWAP1 SSTORE POP CALLER PUSH1 0x2 PUSH1 0x5 SLOAD DUP2 SLOAD DUP2 LT PUSH2 0x7E2 JUMPI PUSH2 0x7E1 PUSH2 0x1E66 JUMP JUMPDEST JUMPDEST SWAP1 PUSH1 0x0 MSTORE PUSH1 0x20 PUSH1 0x0 KECCAK256 SWAP1 PUSH1 0x46 MUL ADD PUSH1 0x40 ADD PUSH1 0x0 PUSH2 0x100 EXP DUP2 SLOAD DUP2 PUSH20 0xFFFFFFFFFFFFFFFFFFFFFFFFFFFFFFFFFFFFFFFF MUL NOT AND SWAP1 DUP4 PUSH20 0xFFFFFFFFFFFFFFFFFFFFFFFFFFFFFFFFFFFFFFFF AND MUL OR SWAP1 SSTORE POP DUP3 PUSH1 0x2 PUSH1 0x5 SLOAD DUP2 SLOAD DUP2 LT PUSH2 0x848 JUMPI PUSH2 0x847 PUSH2 0x1E66 JUMP JUMPDEST JUMPDEST SWAP1 PUSH1 0x0 MSTORE PUSH1 0x20 PUSH1 0x0 KECCAK256 SWAP1 PUSH1 0x46 MUL ADD PUSH1 0x3F ADD SWAP1 DUP1 MLOAD SWAP1 PUSH1 0x20 ADD SWAP1 PUSH2 0x86C SWAP3 SWAP2 SWAP1 PUSH2 0x12F7 JUMP JUMPDEST POP PUSH2 0x878 PUSH1 0x5 SLOAD PUSH2 0x1044 JUMP JUMPDEST POP SWAP2 SWAP1 POP JUMP JUMPDEST PUSH1 0x0 PUSH8 0xDE0B6B3A7640000 CALLVALUE EQ PUSH2 0x8CA JUMPI PUSH1 0x40 MLOAD PUSH32 0x8C379A000000000000000000000000000000000000000000000000000000000 DUP2 MSTORE PUSH1 0x4 ADD PUSH2 0x8C1 SWAP1 PUSH2 0x19CC JUMP JUMPDEST PUSH1 0x40 MLOAD DUP1 SWAP2 SUB SWAP1 REVERT JUMPDEST PUSH1 0x0 ISZERO ISZERO PUSH1 0x1 PUSH1 0x0 CALLER PUSH20 0xFFFFFFFFFFFFFFFFFFFFFFFFFFFFFFFFFFFFFFFF AND PUSH20 0xFFFFFFFFFFFFFFFFFFFFFFFFFFFFFFFFFFFFFFFF AND DUP2 MSTORE PUSH1 0x20 ADD SWAP1 DUP2 MSTORE PUSH1 0x20 ADD PUSH1 0x0 KECCAK256 PUSH1 0x0 SWAP1 SLOAD SWAP1 PUSH2 0x100 EXP SWAP1 DIV PUSH1 0xFF AND ISZERO ISZERO EQ PUSH2 0x95D JUMPI PUSH1 0x40 MLOAD PUSH32 0x8C379A000000000000000000000000000000000000000000000000000000000 DUP2 MSTORE PUSH1 0x4 ADD PUSH2 0x954 SWAP1 PUSH2 0x19AC JUMP JUMPDEST PUSH1 0x40 MLOAD DUP1 SWAP2 SUB SWAP1 REVERT JUMPDEST CALLER PUSH1 0x0 PUSH1 0x4 SLOAD DUP2 SLOAD DUP2 LT PUSH2 0x974 JUMPI PUSH2 0x973 PUSH2 0x1E66 JUMP JUMPDEST JUMPDEST SWAP1 PUSH1 0x0 MSTORE PUSH1 0x20 PUSH1 0x0 KECCAK256 ADD PUSH1 0x0 PUSH2 0x100 EXP DUP2 SLOAD DUP2 PUSH20 0xFFFFFFFFFFFFFFFFFFFFFFFFFFFFFFFFFFFFFFFF MUL NOT AND SWAP1 DUP4 PUSH20 0xFFFFFFFFFFFFFFFFFFFFFFFFFFFFFFFFFFFFFFFF AND MUL OR SWAP1 SSTORE POP PUSH1 0x1 PUSH1 0x4 SLOAD PUSH2 0x9CB SWAP2 SWAP1 PUSH2 0x1B81 JUMP JUMPDEST PUSH1 0x4 DUP2 SWAP1 SSTORE POP PUSH1 0x1 PUSH1 0x4 SLOAD PUSH2 0x9E0 SWAP2 SWAP1 PUSH2 0x1BD7 JUMP JUMPDEST SWAP1 POP SWAP1 JUMP JUMPDEST PUSH1 0x1 ISZERO ISZERO PUSH1 0x2 DUP4 DUP2 SLOAD DUP2 LT PUSH2 0x9FD JUMPI PUSH2 0x9FC PUSH2 0x1E66 JUMP JUMPDEST JUMPDEST SWAP1 PUSH1 0x0 MSTORE PUSH1 0x20 PUSH1 0x0 KECCAK256 SWAP1 PUSH1 0x46 MUL ADD PUSH1 0x2 ADD PUSH1 0x0 CALLER PUSH20 0xFFFFFFFFFFFFFFFFFFFFFFFFFFFFFFFFFFFFFFFF AND PUSH20 0xFFFFFFFFFFFFFFFFFFFFFFFFFFFFFFFFFFFFFFFF AND DUP2 MSTORE PUSH1 0x20 ADD SWAP1 DUP2 MSTORE PUSH1 0x20 ADD PUSH1 0x0 KECCAK256 PUSH1 0x0 SWAP1 SLOAD SWAP1 PUSH2 0x100 EXP SWAP1 DIV PUSH1 0xFF AND ISZERO ISZERO EQ PUSH2 0xA9B JUMPI PUSH1 0x40 MLOAD PUSH32 0x8C379A000000000000000000000000000000000000000000000000000000000 DUP2 MSTORE PUSH1 0x4 ADD PUSH2 0xA92 SWAP1 PUSH2 0x1A0C JUMP JUMPDEST PUSH1 0x40 MLOAD DUP1 SWAP2 SUB SWAP1 REVERT JUMPDEST PUSH1 0x2 DUP3 DUP2 SLOAD DUP2 LT PUSH2 0xAAF JUMPI PUSH2 0xAAE PUSH2 0x1E66 JUMP JUMPDEST JUMPDEST SWAP1 PUSH1 0x0 MSTORE PUSH1 0x20 PUSH1 0x0 KECCAK256 SWAP1 PUSH1 0x46 MUL ADD PUSH1 0x45 ADD SLOAD NUMBER LT PUSH2 0xB02 JUMPI PUSH1 0x40 MLOAD PUSH32 0x8C379A000000000000000000000000000000000000000000000000000000000 DUP2 MSTORE PUSH1 0x4 ADD PUSH2 0xAF9 SWAP1 PUSH2 0x198C JUMP JUMPDEST PUSH1 0x40 MLOAD DUP1 SWAP2 SUB SWAP1 REVERT JUMPDEST DUP1 ISZERO PUSH2 0xC04 JUMPI CALLER PUSH1 0x2 DUP4 DUP2 SLOAD DUP2 LT PUSH2 0xB1D JUMPI PUSH2 0xB1C PUSH2 0x1E66 JUMP JUMPDEST JUMPDEST SWAP1 PUSH1 0x0 MSTORE PUSH1 0x20 PUSH1 0x0 KECCAK256 SWAP1 PUSH1 0x46 MUL ADD PUSH1 0x17 ADD PUSH1 0x2 DUP5 DUP2 SLOAD DUP2 LT PUSH2 0xB42 JUMPI PUSH2 0xB41 PUSH2 0x1E66 JUMP JUMPDEST JUMPDEST SWAP1 PUSH1 0x0 MSTORE PUSH1 0x20 PUSH1 0x0 KECCAK256 SWAP1 PUSH1 0x46 MUL ADD PUSH1 0x43 ADD SLOAD PUSH1 0x14 DUP2 LT PUSH2 0xB65 JUMPI PUSH2 0xB64 PUSH2 0x1E66 JUMP JUMPDEST JUMPDEST ADD PUSH1 0x0 PUSH2 0x100 EXP DUP2 SLOAD DUP2 PUSH20 0xFFFFFFFFFFFFFFFFFFFFFFFFFFFFFFFFFFFFFFFF MUL NOT AND SWAP1 DUP4 PUSH20 0xFFFFFFFFFFFFFFFFFFFFFFFFFFFFFFFFFFFFFFFF AND MUL OR SWAP1 SSTORE POP PUSH1 0x1 PUSH1 0x2 DUP4 DUP2 SLOAD DUP2 LT PUSH2 0xBBA JUMPI PUSH2 0xBB9 PUSH2 0x1E66 JUMP JUMPDEST JUMPDEST SWAP1 PUSH1 0x0 MSTORE PUSH1 0x20 PUSH1 0x0 KECCAK256 SWAP1 PUSH1 0x46 MUL ADD PUSH1 0x43 ADD SLOAD PUSH2 0xBD6 SWAP2 SWAP1 PUSH2 0x1B81 JUMP JUMPDEST PUSH1 0x2 DUP4 DUP2 SLOAD DUP2 LT PUSH2 0xBEA JUMPI PUSH2 0xBE9 PUSH2 0x1E66 JUMP JUMPDEST JUMPDEST SWAP1 PUSH1 0x0 MSTORE PUSH1 0x20 PUSH1 0x0 KECCAK256 SWAP1 PUSH1 0x46 MUL ADD PUSH1 0x43 ADD DUP2 SWAP1 SSTORE POP PUSH2 0xCFC JUMP JUMPDEST CALLER PUSH1 0x2 DUP4 DUP2 SLOAD DUP2 LT PUSH2 0xC19 JUMPI PUSH2 0xC18 PUSH2 0x1E66 JUMP JUMPDEST JUMPDEST SWAP1 PUSH1 0x0 MSTORE PUSH1 0x20 PUSH1 0x0 KECCAK256 SWAP1 PUSH1 0x46 MUL ADD PUSH1 0x2B ADD PUSH1 0x2 DUP5 DUP2 SLOAD DUP2 LT PUSH2 0xC3E JUMPI PUSH2 0xC3D PUSH2 0x1E66 JUMP JUMPDEST JUMPDEST SWAP1 PUSH1 0x0 MSTORE PUSH1 0x20 PUSH1 0x0 KECCAK256 SWAP1 PUSH1 0x46 MUL ADD PUSH1 0x44 ADD SLOAD PUSH1 0x14 DUP2 LT PUSH2 0xC61 JUMPI PUSH2 0xC60 PUSH2 0x1E66 JUMP JUMPDEST JUMPDEST ADD PUSH1 0x0 PUSH2 0x100 EXP DUP2 SLOAD DUP2 PUSH20 0xFFFFFFFFFFFFFFFFFFFFFFFFFFFFFFFFFFFFFFFF MUL NOT AND SWAP1 DUP4 PUSH20 0xFFFFFFFFFFFFFFFFFFFFFFFFFFFFFFFFFFFFFFFF AND MUL OR SWAP1 SSTORE POP PUSH1 0x1 PUSH1 0x2 DUP4 DUP2 SLOAD DUP2 LT PUSH2 0xCB6 JUMPI PUSH2 0xCB5 PUSH2 0x1E66 JUMP JUMPDEST JUMPDEST SWAP1 PUSH1 0x0 MSTORE PUSH1 0x20 PUSH1 0x0 KECCAK256 SWAP1 PUSH1 0x46 MUL ADD PUSH1 0x44 ADD SLOAD PUSH2 0xCD2 SWAP2 SWAP1 PUSH2 0x1B81 JUMP JUMPDEST PUSH1 0x2 DUP4 DUP2 SLOAD DUP2 LT PUSH2 0xCE6 JUMPI PUSH2 0xCE5 PUSH2 0x1E66 JUMP JUMPDEST JUMPDEST SWAP1 PUSH1 0x0 MSTORE PUSH1 0x20 PUSH1 0x0 KECCAK256 SWAP1 PUSH1 0x46 MUL ADD PUSH1 0x44 ADD DUP2 SWAP1 SSTORE POP JUMPDEST CALLER PUSH20 0xFFFFFFFFFFFFFFFFFFFFFFFFFFFFFFFFFFFFFFFF AND PUSH2 0x8FC PUSH1 0x2 DUP5 DUP2 SLOAD DUP2 LT PUSH2 0xD2A JUMPI PUSH2 0xD29 PUSH2 0x1E66 JUMP JUMPDEST JUMPDEST SWAP1 PUSH1 0x0 MSTORE PUSH1 0x20 PUSH1 0x0 KECCAK256 SWAP1 PUSH1 0x46 MUL ADD PUSH1 0x41 ADD SLOAD PUSH8 0xDE0B6B3A7640000 PUSH2 0xD4F SWAP2 SWAP1 PUSH2 0x1B81 JUMP JUMPDEST SWAP1 DUP2 ISZERO MUL SWAP1 PUSH1 0x40 MLOAD PUSH1 0x0 PUSH1 0x40 MLOAD DUP1 DUP4 SUB DUP2 DUP6 DUP9 DUP9 CALL SWAP4 POP POP POP POP ISZERO DUP1 ISZERO PUSH2 0xD7A JUMPI RETURNDATASIZE PUSH1 0x0 DUP1 RETURNDATACOPY RETURNDATASIZE PUSH1 0x0 REVERT JUMPDEST POP PUSH1 0x0 PUSH1 0x2 DUP4 DUP2 SLOAD DUP2 LT PUSH2 0xD91 JUMPI PUSH2 0xD90 PUSH2 0x1E66 JUMP JUMPDEST JUMPDEST SWAP1 PUSH1 0x0 MSTORE PUSH1 0x20 PUSH1 0x0 KECCAK256 SWAP1 PUSH1 0x46 MUL ADD PUSH1 0x2 ADD PUSH1 0x0 CALLER PUSH20 0xFFFFFFFFFFFFFFFFFFFFFFFFFFFFFFFFFFFFFFFF AND PUSH20 0xFFFFFFFFFFFFFFFFFFFFFFFFFFFFFFFFFFFFFFFF AND DUP2 MSTORE PUSH1 0x20 ADD SWAP1 DUP2 MSTORE PUSH1 0x20 ADD PUSH1 0x0 KECCAK256 PUSH1 0x0 PUSH2 0x100 EXP DUP2 SLOAD DUP2 PUSH1 0xFF MUL NOT AND SWAP1 DUP4 ISZERO ISZERO MUL OR SWAP1 SSTORE POP POP POP JUMP JUMPDEST POP POP JUMP JUMPDEST CALLER PUSH20 0xFFFFFFFFFFFFFFFFFFFFFFFFFFFFFFFFFFFFFFFF AND PUSH1 0x0 DUP3 DUP2 SLOAD DUP2 LT PUSH2 0xE29 JUMPI PUSH2 0xE28 PUSH2 0x1E66 JUMP JUMPDEST JUMPDEST SWAP1 PUSH1 0x0 MSTORE PUSH1 0x20 PUSH1 0x0 KECCAK256 ADD PUSH1 0x0 SWAP1 SLOAD SWAP1 PUSH2 0x100 EXP SWAP1 DIV PUSH20 0xFFFFFFFFFFFFFFFFFFFFFFFFFFFFFFFFFFFFFFFF AND PUSH20 0xFFFFFFFFFFFFFFFFFFFFFFFFFFFFFFFFFFFFFFFF AND EQ PUSH2 0xEAA JUMPI PUSH1 0x40 MLOAD PUSH32 0x8C379A000000000000000000000000000000000000000000000000000000000 DUP2 MSTORE PUSH1 0x4 ADD PUSH2 0xEA1 SWAP1 PUSH2 0x1A2C JUMP JUMPDEST PUSH1 0x40 MLOAD DUP1 SWAP2 SUB SWAP1 REVERT JUMPDEST PUSH1 0x1 ISZERO ISZERO PUSH1 0x1 PUSH1 0x0 CALLER PUSH20 0xFFFFFFFFFFFFFFFFFFFFFFFFFFFFFFFFFFFFFFFF AND PUSH20 0xFFFFFFFFFFFFFFFFFFFFFFFFFFFFFFFFFFFFFFFF AND DUP2 MSTORE PUSH1 0x20 ADD SWAP1 DUP2 MSTORE PUSH1 0x20 ADD PUSH1 0x0 KECCAK256 PUSH1 0x0 SWAP1 SLOAD SWAP1 PUSH2 0x100 EXP SWAP1 DIV PUSH1 0xFF AND ISZERO ISZERO EQ PUSH2 0xF3D JUMPI PUSH1 0x40 MLOAD PUSH32 0x8C379A000000000000000000000000000000000000000000000000000000000 DUP2 MSTORE PUSH1 0x4 ADD PUSH2 0xF34 SWAP1 PUSH2 0x19EC JUMP JUMPDEST PUSH1 0x40 MLOAD DUP1 SWAP2 SUB SWAP1 REVERT JUMPDEST PUSH1 0x0 PUSH1 0x1 PUSH1 0x0 CALLER PUSH20 0xFFFFFFFFFFFFFFFFFFFFFFFFFFFFFFFFFFFFFFFF AND PUSH20 0xFFFFFFFFFFFFFFFFFFFFFFFFFFFFFFFFFFFFFFFF AND DUP2 MSTORE PUSH1 0x20 ADD SWAP1 DUP2 MSTORE PUSH1 0x20 ADD PUSH1 0x0 KECCAK256 PUSH1 0x0 PUSH2 0x100 EXP DUP2 SLOAD DUP2 PUSH1 0xFF MUL NOT AND SWAP1 DUP4 ISZERO ISZERO MUL OR SWAP1 SSTORE POP PUSH1 0x0 DUP1 DUP3 DUP2 SLOAD DUP2 LT PUSH2 0xFAA JUMPI PUSH2 0xFA9 PUSH2 0x1E66 JUMP JUMPDEST JUMPDEST SWAP1 PUSH1 0x0 MSTORE PUSH1 0x20 PUSH1 0x0 KECCAK256 ADD PUSH1 0x0 PUSH2 0x100 EXP DUP2 SLOAD DUP2 PUSH20 0xFFFFFFFFFFFFFFFFFFFFFFFFFFFFFFFFFFFFFFFF MUL NOT AND SWAP1 DUP4 PUSH20 0xFFFFFFFFFFFFFFFFFFFFFFFFFFFFFFFFFFFFFFFF AND MUL OR SWAP1 SSTORE POP CALLER PUSH20 0xFFFFFFFFFFFFFFFFFFFFFFFFFFFFFFFFFFFFFFFF AND PUSH2 0x8FC PUSH8 0xDE0B6B3A7640000 SWAP1 DUP2 ISZERO MUL SWAP1 PUSH1 0x40 MLOAD PUSH1 0x0 PUSH1 0x40 MLOAD DUP1 DUP4 SUB DUP2 DUP6 DUP9 DUP9 CALL SWAP4 POP POP POP POP ISZERO DUP1 ISZERO PUSH2 0x1040 JUMPI RETURNDATASIZE PUSH1 0x0 DUP1 RETURNDATACOPY RETURNDATASIZE PUSH1 0x0 REVERT JUMPDEST POP POP JUMP JUMPDEST PUSH1 0x0 JUMPDEST PUSH1 0x14 DUP2 LT ISZERO PUSH2 0x12F3 JUMPI PUSH1 0x0 DUP1 DUP1 SLOAD SWAP1 POP PUSH1 0x2 PUSH1 0x0 DUP1 SLOAD SWAP1 POP PUSH1 0x40 MLOAD PUSH1 0x20 ADD PUSH2 0x106F SWAP2 SWAP1 PUSH2 0x1903 JUMP JUMPDEST PUSH1 0x40 MLOAD PUSH1 0x20 DUP2 DUP4 SUB SUB DUP2 MSTORE SWAP1 PUSH1 0x40 MSTORE PUSH1 0x40 MLOAD PUSH2 0x108B SWAP2 SWAP1 PUSH2 0x18D5 JUMP JUMPDEST PUSH1 0x20 PUSH1 0x40 MLOAD DUP1 DUP4 SUB DUP2 DUP6 GAS STATICCALL ISZERO DUP1 ISZERO PUSH2 0x10A8 JUMPI RETURNDATASIZE PUSH1 0x0 DUP1 RETURNDATACOPY RETURNDATASIZE PUSH1 0x0 REVERT JUMPDEST POP POP POP PUSH1 0x40 MLOAD RETURNDATASIZE PUSH1 0x1F NOT PUSH1 0x1F DUP3 ADD AND DUP3 ADD DUP1 PUSH1 0x40 MSTORE POP DUP2 ADD SWAP1 PUSH2 0x10CB SWAP2 SWAP1 PUSH2 0x15ED JUMP JUMPDEST PUSH1 0x0 SHR PUSH2 0x10D8 SWAP2 SWAP1 PUSH2 0x1D79 JUMP JUMPDEST SWAP1 POP PUSH1 0x0 DUP1 DUP3 DUP2 SLOAD DUP2 LT PUSH2 0x10EF JUMPI PUSH2 0x10EE PUSH2 0x1E66 JUMP JUMPDEST JUMPDEST SWAP1 PUSH1 0x0 MSTORE PUSH1 0x20 PUSH1 0x0 KECCAK256 ADD PUSH1 0x0 SWAP1 SLOAD SWAP1 PUSH2 0x100 EXP SWAP1 DIV PUSH20 0xFFFFFFFFFFFFFFFFFFFFFFFFFFFFFFFFFFFFFFFF AND SWAP1 POP PUSH1 0x0 PUSH1 0x1 PUSH1 0x0 DUP4 PUSH20 0xFFFFFFFFFFFFFFFFFFFFFFFFFFFFFFFFFFFFFFFF AND PUSH20 0xFFFFFFFFFFFFFFFFFFFFFFFFFFFFFFFFFFFFFFFF AND DUP2 MSTORE PUSH1 0x20 ADD SWAP1 DUP2 MSTORE PUSH1 0x20 ADD PUSH1 0x0 KECCAK256 PUSH1 0x0 PUSH2 0x100 EXP DUP2 SLOAD DUP2 PUSH1 0xFF MUL NOT AND SWAP1 DUP4 ISZERO ISZERO MUL OR SWAP1 SSTORE POP PUSH1 0x0 PUSH1 0x1 PUSH1 0x0 DUP1 SLOAD SWAP1 POP PUSH2 0x1188 SWAP2 SWAP1 PUSH2 0x1BD7 JUMP JUMPDEST DUP2 SLOAD DUP2 LT PUSH2 0x1199 JUMPI PUSH2 0x1198 PUSH2 0x1E66 JUMP JUMPDEST JUMPDEST SWAP1 PUSH1 0x0 MSTORE PUSH1 0x20 PUSH1 0x0 KECCAK256 ADD PUSH1 0x0 SWAP1 SLOAD SWAP1 PUSH2 0x100 EXP SWAP1 DIV PUSH20 0xFFFFFFFFFFFFFFFFFFFFFFFFFFFFFFFFFFFFFFFF AND PUSH1 0x0 DUP4 DUP2 SLOAD DUP2 LT PUSH2 0x11D8 JUMPI PUSH2 0x11D7 PUSH2 0x1E66 JUMP JUMPDEST JUMPDEST SWAP1 PUSH1 0x0 MSTORE PUSH1 0x20 PUSH1 0x0 KECCAK256 ADD PUSH1 0x0 PUSH2 0x100 EXP DUP2 SLOAD DUP2 PUSH20 0xFFFFFFFFFFFFFFFFFFFFFFFFFFFFFFFFFFFFFFFF MUL NOT AND SWAP1 DUP4 PUSH20 0xFFFFFFFFFFFFFFFFFFFFFFFFFFFFFFFFFFFFFFFF AND MUL OR SWAP1 SSTORE POP PUSH1 0x0 DUP1 SLOAD DUP1 PUSH2 0x1232 JUMPI PUSH2 0x1231 PUSH2 0x1E37 JUMP JUMPDEST JUMPDEST PUSH1 0x1 SWAP1 SUB DUP2 DUP2 SWAP1 PUSH1 0x0 MSTORE PUSH1 0x20 PUSH1 0x0 KECCAK256 ADD PUSH1 0x0 PUSH2 0x100 EXP DUP2 SLOAD SWAP1 PUSH20 0xFFFFFFFFFFFFFFFFFFFFFFFFFFFFFFFFFFFFFFFF MUL NOT AND SWAP1 SSTORE SWAP1 SSTORE DUP1 PUSH1 0x2 DUP6 DUP2 SLOAD DUP2 LT PUSH2 0x127C JUMPI PUSH2 0x127B PUSH2 0x1E66 JUMP JUMPDEST JUMPDEST SWAP1 PUSH1 0x0 MSTORE PUSH1 0x20 PUSH1 0x0 KECCAK256 SWAP1 PUSH1 0x46 MUL ADD PUSH1 0x3 ADD DUP5 PUSH1 0x14 DUP2 LT PUSH2 0x129F JUMPI PUSH2 0x129E PUSH2 0x1E66 JUMP JUMPDEST JUMPDEST ADD PUSH1 0x0 PUSH2 0x100 EXP DUP2 SLOAD DUP2 PUSH20 0xFFFFFFFFFFFFFFFFFFFFFFFFFFFFFFFFFFFFFFFF MUL NOT AND SWAP1 DUP4 PUSH20 0xFFFFFFFFFFFFFFFFFFFFFFFFFFFFFFFFFFFFFFFF AND MUL OR SWAP1 SSTORE POP POP POP DUP1 DUP1 PUSH2 0x12EB SWAP1 PUSH2 0x1D02 JUMP JUMPDEST SWAP2 POP POP PUSH2 0x1047 JUMP JUMPDEST POP POP JUMP JUMPDEST DUP3 DUP1 SLOAD PUSH2 0x1303 SWAP1 PUSH2 0x1C9F JUMP JUMPDEST SWAP1 PUSH1 0x0 MSTORE PUSH1 0x20 PUSH1 0x0 KECCAK256 SWAP1 PUSH1 0x1F ADD PUSH1 0x20 SWAP1 DIV DUP2 ADD SWAP3 DUP3 PUSH2 0x1325 JUMPI PUSH1 0x0 DUP6 SSTORE PUSH2 0x136C JUMP JUMPDEST DUP3 PUSH1 0x1F LT PUSH2 0x133E JUMPI DUP1 MLOAD PUSH1 0xFF NOT AND DUP4 DUP1 ADD OR DUP6 SSTORE PUSH2 0x136C JUMP JUMPDEST DUP3 DUP1 ADD PUSH1 0x1 ADD DUP6 SSTORE DUP3 ISZERO PUSH2 0x136C JUMPI SWAP2 DUP3 ADD JUMPDEST DUP3 DUP2 GT ISZERO PUSH2 0x136B JUMPI DUP3 MLOAD DUP3 SSTORE SWAP2 PUSH1 0x20 ADD SWAP2 SWAP1 PUSH1 0x1 ADD SWAP1 PUSH2 0x1350 JUMP JUMPDEST JUMPDEST POP SWAP1 POP PUSH2 0x1379 SWAP2 SWAP1 PUSH2 0x137D JUMP JUMPDEST POP SWAP1 JUMP JUMPDEST JUMPDEST DUP1 DUP3 GT ISZERO PUSH2 0x1396 JUMPI PUSH1 0x0 DUP2 PUSH1 0x0 SWAP1 SSTORE POP PUSH1 0x1 ADD PUSH2 0x137E JUMP JUMPDEST POP SWAP1 JUMP JUMPDEST PUSH1 0x0 PUSH2 0x13AD PUSH2 0x13A8 DUP5 PUSH2 0x1AAC JUMP JUMPDEST PUSH2 0x1A87 JUMP JUMPDEST SWAP1 POP DUP1 DUP4 DUP3 MSTORE PUSH1 0x20 DUP3 ADD SWAP1 POP DUP3 DUP6 PUSH1 0x20 DUP7 MUL DUP3 ADD GT ISZERO PUSH2 0x13D0 JUMPI PUSH2 0x13CF PUSH2 0x1EC9 JUMP JUMPDEST JUMPDEST PUSH1 0x0 JUMPDEST DUP6 DUP2 LT ISZERO PUSH2 0x141E JUMPI DUP2 CALLDATALOAD PUSH8 0xFFFFFFFFFFFFFFFF DUP2 GT ISZERO PUSH2 0x13F6 JUMPI PUSH2 0x13F5 PUSH2 0x1EC4 JUMP JUMPDEST JUMPDEST DUP1 DUP7 ADD PUSH2 0x1403 DUP10 DUP3 PUSH2 0x1504 JUMP JUMPDEST DUP6 MSTORE PUSH1 0x20 DUP6 ADD SWAP5 POP PUSH1 0x20 DUP5 ADD SWAP4 POP POP POP PUSH1 0x1 DUP2 ADD SWAP1 POP PUSH2 0x13D3 JUMP JUMPDEST POP POP POP SWAP4 SWAP3 POP POP POP JUMP JUMPDEST PUSH1 0x0 PUSH2 0x143B PUSH2 0x1436 DUP5 PUSH2 0x1AD8 JUMP JUMPDEST PUSH2 0x1A87 JUMP JUMPDEST SWAP1 POP DUP3 DUP2 MSTORE PUSH1 0x20 DUP2 ADD DUP5 DUP5 DUP5 ADD GT ISZERO PUSH2 0x1457 JUMPI PUSH2 0x1456 PUSH2 0x1ECE JUMP JUMPDEST JUMPDEST PUSH2 0x1462 DUP5 DUP3 DUP6 PUSH2 0x1C5D JUMP JUMPDEST POP SWAP4 SWAP3 POP POP POP JUMP JUMPDEST PUSH1 0x0 PUSH2 0x147D PUSH2 0x1478 DUP5 PUSH2 0x1B09 JUMP JUMPDEST PUSH2 0x1A87 JUMP JUMPDEST SWAP1 POP DUP3 DUP2 MSTORE PUSH1 0x20 DUP2 ADD DUP5 DUP5 DUP5 ADD GT ISZERO PUSH2 0x1499 JUMPI PUSH2 0x1498 PUSH2 0x1ECE JUMP JUMPDEST JUMPDEST PUSH2 0x14A4 DUP5 DUP3 DUP6 PUSH2 0x1C5D JUMP JUMPDEST POP SWAP4 SWAP3 POP POP POP JUMP JUMPDEST PUSH1 0x0 DUP3 PUSH1 0x1F DUP4 ADD SLT PUSH2 0x14C1 JUMPI PUSH2 0x14C0 PUSH2 0x1EC4 JUMP JUMPDEST JUMPDEST DUP2 CALLDATALOAD PUSH2 0x14D1 DUP5 DUP3 PUSH1 0x20 DUP7 ADD PUSH2 0x139A JUMP JUMPDEST SWAP2 POP POP SWAP3 SWAP2 POP POP JUMP JUMPDEST PUSH1 0x0 DUP2 CALLDATALOAD SWAP1 POP PUSH2 0x14E9 DUP2 PUSH2 0x20B5 JUMP JUMPDEST SWAP3 SWAP2 POP POP JUMP JUMPDEST PUSH1 0x0 DUP2 MLOAD SWAP1 POP PUSH2 0x14FE DUP2 PUSH2 0x20CC JUMP JUMPDEST SWAP3 SWAP2 POP POP JUMP JUMPDEST PUSH1 0x0 DUP3 PUSH1 0x1F DUP4 ADD SLT PUSH2 0x1519 JUMPI PUSH2 0x1518 PUSH2 0x1EC4 JUMP JUMPDEST JUMPDEST DUP2 CALLDATALOAD PUSH2 0x1529 DUP5 DUP3 PUSH1 0x20 DUP7 ADD PUSH2 0x1428 JUMP JUMPDEST SWAP2 POP POP SWAP3 SWAP2 POP POP JUMP JUMPDEST PUSH1 0x0 DUP3 PUSH1 0x1F DUP4 ADD SLT PUSH2 0x1547 JUMPI PUSH2 0x1546 PUSH2 0x1EC4 JUMP JUMPDEST JUMPDEST DUP2 CALLDATALOAD PUSH2 0x1557 DUP5 DUP3 PUSH1 0x20 DUP7 ADD PUSH2 0x146A JUMP JUMPDEST SWAP2 POP POP SWAP3 SWAP2 POP POP JUMP JUMPDEST PUSH1 0x0 DUP2 CALLDATALOAD SWAP1 POP PUSH2 0x156F DUP2 PUSH2 0x20E3 JUMP JUMPDEST SWAP3 SWAP2 POP POP JUMP JUMPDEST PUSH1 0x0 DUP1 PUSH1 0x40 DUP4 DUP6 SUB SLT ISZERO PUSH2 0x158C JUMPI PUSH2 0x158B PUSH2 0x1ED8 JUMP JUMPDEST JUMPDEST PUSH1 0x0 DUP4 ADD CALLDATALOAD PUSH8 0xFFFFFFFFFFFFFFFF DUP2 GT ISZERO PUSH2 0x15AA JUMPI PUSH2 0x15A9 PUSH2 0x1ED3 JUMP JUMPDEST JUMPDEST PUSH2 0x15B6 DUP6 DUP3 DUP7 ADD PUSH2 0x14AC JUMP JUMPDEST SWAP3 POP POP PUSH1 0x20 DUP4 ADD CALLDATALOAD PUSH8 0xFFFFFFFFFFFFFFFF DUP2 GT ISZERO PUSH2 0x15D7 JUMPI PUSH2 0x15D6 PUSH2 0x1ED3 JUMP JUMPDEST JUMPDEST PUSH2 0x15E3 DUP6 DUP3 DUP7 ADD PUSH2 0x1532 JUMP JUMPDEST SWAP2 POP POP SWAP3 POP SWAP3 SWAP1 POP JUMP JUMPDEST PUSH1 0x0 PUSH1 0x20 DUP3 DUP5 SUB SLT ISZERO PUSH2 0x1603 JUMPI PUSH2 0x1602 PUSH2 0x1ED8 JUMP JUMPDEST JUMPDEST PUSH1 0x0 PUSH2 0x1611 DUP5 DUP3 DUP6 ADD PUSH2 0x14EF JUMP JUMPDEST SWAP2 POP POP SWAP3 SWAP2 POP POP JUMP JUMPDEST PUSH1 0x0 PUSH1 0x20 DUP3 DUP5 SUB SLT ISZERO PUSH2 0x1630 JUMPI PUSH2 0x162F PUSH2 0x1ED8 JUMP JUMPDEST JUMPDEST PUSH1 0x0 DUP3 ADD CALLDATALOAD PUSH8 0xFFFFFFFFFFFFFFFF DUP2 GT ISZERO PUSH2 0x164E JUMPI PUSH2 0x164D PUSH2 0x1ED3 JUMP JUMPDEST JUMPDEST PUSH2 0x165A DUP5 DUP3 DUP6 ADD PUSH2 0x1532 JUMP JUMPDEST SWAP2 POP POP SWAP3 SWAP2 POP POP JUMP JUMPDEST PUSH1 0x0 PUSH1 0x20 DUP3 DUP5 SUB SLT ISZERO PUSH2 0x1679 JUMPI PUSH2 0x1678 PUSH2 0x1ED8 JUMP JUMPDEST JUMPDEST PUSH1 0x0 PUSH2 0x1687 DUP5 DUP3 DUP6 ADD PUSH2 0x1560 JUMP JUMPDEST SWAP2 POP POP SWAP3 SWAP2 POP POP JUMP JUMPDEST PUSH1 0x0 DUP1 PUSH1 0x40 DUP4 DUP6 SUB SLT ISZERO PUSH2 0x16A7 JUMPI PUSH2 0x16A6 PUSH2 0x1ED8 JUMP JUMPDEST JUMPDEST PUSH1 0x0 PUSH2 0x16B5 DUP6 DUP3 DUP7 ADD PUSH2 0x1560 JUMP JUMPDEST SWAP3 POP POP PUSH1 0x20 PUSH2 0x16C6 DUP6 DUP3 DUP7 ADD PUSH2 0x14DA JUMP JUMPDEST SWAP2 POP POP SWAP3 POP SWAP3 SWAP1 POP JUMP JUMPDEST PUSH2 0x16E1 PUSH2 0x16DC DUP3 PUSH2 0x1C0B JUMP JUMPDEST PUSH2 0x1D4B JUMP JUMPDEST DUP3 MSTORE POP POP JUMP JUMPDEST PUSH1 0x0 PUSH2 0x16F2 DUP3 PUSH2 0x1B4F JUMP JUMPDEST PUSH2 0x16FC DUP2 DUP6 PUSH2 0x1B5A JUMP JUMPDEST SWAP4 POP PUSH2 0x170C DUP2 DUP6 PUSH1 0x20 DUP7 ADD PUSH2 0x1C6C JUMP JUMPDEST DUP1 DUP5 ADD SWAP2 POP POP SWAP3 SWAP2 POP POP JUMP JUMPDEST PUSH1 0x0 DUP2 SLOAD PUSH2 0x1725 DUP2 PUSH2 0x1C9F JUMP JUMPDEST PUSH2 0x172F DUP2 DUP7 PUSH2 0x1B76 JUMP JUMPDEST SWAP5 POP PUSH1 0x1 DUP3 AND PUSH1 0x0 DUP2 EQ PUSH2 0x174A JUMPI PUSH1 0x1 DUP2 EQ PUSH2 0x175B JUMPI PUSH2 0x178E JUMP JUMPDEST PUSH1 0xFF NOT DUP4 AND DUP7 MSTORE DUP2 DUP7 ADD SWAP4 POP PUSH2 0x178E JUMP JUMPDEST PUSH2 0x1764 DUP6 PUSH2 0x1B3A JUMP JUMPDEST PUSH1 0x0 JUMPDEST DUP4 DUP2 LT ISZERO PUSH2 0x1786 JUMPI DUP2 SLOAD DUP2 DUP10 ADD MSTORE PUSH1 0x1 DUP3 ADD SWAP2 POP PUSH1 0x20 DUP2 ADD SWAP1 POP PUSH2 0x1767 JUMP JUMPDEST DUP4 DUP9 ADD SWAP6 POP POP POP JUMPDEST POP POP POP SWAP3 SWAP2 POP POP JUMP JUMPDEST PUSH1 0x0 PUSH2 0x17A4 PUSH1 0x18 DUP4 PUSH2 0x1B65 JUMP JUMPDEST SWAP2 POP PUSH2 0x17AF DUP3 PUSH2 0x1EFB JUMP JUMPDEST PUSH1 0x20 DUP3 ADD SWAP1 POP SWAP2 SWAP1 POP JUMP JUMPDEST PUSH1 0x0 PUSH2 0x17C7 PUSH1 0x11 DUP4 PUSH2 0x1B65 JUMP JUMPDEST SWAP2 POP PUSH2 0x17D2 DUP3 PUSH2 0x1F24 JUMP JUMPDEST PUSH1 0x20 DUP3 ADD SWAP1 POP SWAP2 SWAP1 POP JUMP JUMPDEST PUSH1 0x0 PUSH2 0x17EA PUSH1 0x12 DUP4 PUSH2 0x1B65 JUMP JUMPDEST SWAP2 POP PUSH2 0x17F5 DUP3 PUSH2 0x1F4D JUMP JUMPDEST PUSH1 0x20 DUP3 ADD SWAP1 POP SWAP2 SWAP1 POP JUMP JUMPDEST PUSH1 0x0 PUSH2 0x180D PUSH1 0x28 DUP4 PUSH2 0x1B65 JUMP JUMPDEST SWAP2 POP PUSH2 0x1818 DUP3 PUSH2 0x1F76 JUMP JUMPDEST PUSH1 0x40 DUP3 ADD SWAP1 POP SWAP2 SWAP1 POP JUMP JUMPDEST PUSH1 0x0 PUSH2 0x1830 PUSH1 0xE DUP4 PUSH2 0x1B65 JUMP JUMPDEST SWAP2 POP PUSH2 0x183B DUP3 PUSH2 0x1FC5 JUMP JUMPDEST PUSH1 0x20 DUP3 ADD SWAP1 POP SWAP2 SWAP1 POP JUMP JUMPDEST PUSH1 0x0 PUSH2 0x1853 PUSH1 0x21 DUP4 PUSH2 0x1B65 JUMP JUMPDEST SWAP2 POP PUSH2 0x185E DUP3 PUSH2 0x1FEE JUMP JUMPDEST PUSH1 0x40 DUP3 ADD SWAP1 POP SWAP2 SWAP1 POP JUMP JUMPDEST PUSH1 0x0 PUSH2 0x1876 PUSH1 0x1E DUP4 PUSH2 0x1B65 JUMP JUMPDEST SWAP2 POP PUSH2 0x1881 DUP3 PUSH2 0x203D JUMP JUMPDEST PUSH1 0x20 DUP3 ADD SWAP1 POP SWAP2 SWAP1 POP JUMP JUMPDEST PUSH1 0x0 PUSH2 0x1899 PUSH1 0x28 DUP4 PUSH2 0x1B65 JUMP JUMPDEST SWAP2 POP PUSH2 0x18A4 DUP3 PUSH2 0x2066 JUMP JUMPDEST PUSH1 0x40 DUP3 ADD SWAP1 POP SWAP2 SWAP1 POP JUMP JUMPDEST PUSH2 0x18B8 DUP2 PUSH2 0x1C53 JUMP JUMPDEST DUP3 MSTORE POP POP JUMP JUMPDEST PUSH2 0x18CF PUSH2 0x18CA DUP3 PUSH2 0x1C53 JUMP JUMPDEST PUSH2 0x1D6F JUMP JUMPDEST DUP3 MSTORE POP POP JUMP JUMPDEST PUSH1 0x0 PUSH2 0x18E1 DUP3 DUP5 PUSH2 0x16E7 JUMP JUMPDEST SWAP2 POP DUP2 SWAP1 POP SWAP3 SWAP2 POP POP JUMP JUMPDEST PUSH1 0x0 PUSH2 0x18F8 DUP3 DUP5 PUSH2 0x1718 JUMP JUMPDEST SWAP2 POP DUP2 SWAP1 POP SWAP3 SWAP2 POP POP JUMP JUMPDEST PUSH1 0x0 PUSH2 0x190F DUP3 DUP5 PUSH2 0x18BE JUMP JUMPDEST PUSH1 0x20 DUP3 ADD SWAP2 POP DUP2 SWAP1 POP SWAP3 SWAP2 POP POP JUMP JUMPDEST PUSH1 0x0 PUSH2 0x192A DUP3 DUP8 PUSH2 0x18BE JUMP JUMPDEST PUSH1 0x20 DUP3 ADD SWAP2 POP PUSH2 0x193A DUP3 DUP7 PUSH2 0x18BE JUMP JUMPDEST PUSH1 0x20 DUP3 ADD SWAP2 POP PUSH2 0x194A DUP3 DUP6 PUSH2 0x16D0 JUMP JUMPDEST PUSH1 0x14 DUP3 ADD SWAP2 POP PUSH2 0x195A DUP3 DUP5 PUSH2 0x18BE JUMP JUMPDEST PUSH1 0x20 DUP3 ADD SWAP2 POP DUP2 SWAP1 POP SWAP6 SWAP5 POP POP POP POP POP JUMP JUMPDEST PUSH1 0x0 PUSH1 0x20 DUP3 ADD SWAP1 POP DUP2 DUP2 SUB PUSH1 0x0 DUP4 ADD MSTORE PUSH2 0x1985 DUP2 PUSH2 0x1797 JUMP JUMPDEST SWAP1 POP SWAP2 SWAP1 POP JUMP JUMPDEST PUSH1 0x0 PUSH1 0x20 DUP3 ADD SWAP1 POP DUP2 DUP2 SUB PUSH1 0x0 DUP4 ADD MSTORE PUSH2 0x19A5 DUP2 PUSH2 0x17BA JUMP JUMPDEST SWAP1 POP SWAP2 SWAP1 POP JUMP JUMPDEST PUSH1 0x0 PUSH1 0x20 DUP3 ADD SWAP1 POP DUP2 DUP2 SUB PUSH1 0x0 DUP4 ADD MSTORE PUSH2 0x19C5 DUP2 PUSH2 0x17DD JUMP JUMPDEST SWAP1 POP SWAP2 SWAP1 POP JUMP JUMPDEST PUSH1 0x0 PUSH1 0x20 DUP3 ADD SWAP1 POP DUP2 DUP2 SUB PUSH1 0x0 DUP4 ADD MSTORE PUSH2 0x19E5 DUP2 PUSH2 0x1800 JUMP JUMPDEST SWAP1 POP SWAP2 SWAP1 POP JUMP JUMPDEST PUSH1 0x0 PUSH1 0x20 DUP3 ADD SWAP1 POP DUP2 DUP2 SUB PUSH1 0x0 DUP4 ADD MSTORE PUSH2 0x1A05 DUP2 PUSH2 0x1823 JUMP JUMPDEST SWAP1 POP SWAP2 SWAP1 POP JUMP JUMPDEST PUSH1 0x0 PUSH1 0x20 DUP3 ADD SWAP1 POP DUP2 DUP2 SUB PUSH1 0x0 DUP4 ADD MSTORE PUSH2 0x1A25 DUP2 PUSH2 0x1846 JUMP JUMPDEST SWAP1 POP SWAP2 SWAP1 POP JUMP JUMPDEST PUSH1 0x0 PUSH1 0x20 DUP3 ADD SWAP1 POP DUP2 DUP2 SUB PUSH1 0x0 DUP4 ADD MSTORE PUSH2 0x1A45 DUP2 PUSH2 0x1869 JUMP JUMPDEST SWAP1 POP SWAP2 SWAP1 POP JUMP JUMPDEST PUSH1 0x0 PUSH1 0x20 DUP3 ADD SWAP1 POP DUP2 DUP2 SUB PUSH1 0x0 DUP4 ADD MSTORE PUSH2 0x1A65 DUP2 PUSH2 0x188C JUMP JUMPDEST SWAP1 POP SWAP2 SWAP1 POP JUMP JUMPDEST PUSH1 0x0 PUSH1 0x20 DUP3 ADD SWAP1 POP PUSH2 0x1A81 PUSH1 0x0 DUP4 ADD DUP5 PUSH2 0x18AF JUMP JUMPDEST SWAP3 SWAP2 POP POP JUMP JUMPDEST PUSH1 0x0 PUSH2 0x1A91 PUSH2 0x1AA2 JUMP JUMPDEST SWAP1 POP PUSH2 0x1A9D DUP3 DUP3 PUSH2 0x1CD1 JUMP JUMPDEST SWAP2 SWAP1 POP JUMP JUMPDEST PUSH1 0x0 PUSH1 0x40 MLOAD SWAP1 POP SWAP1 JUMP JUMPDEST PUSH1 0x0 PUSH8 0xFFFFFFFFFFFFFFFF DUP3 GT ISZERO PUSH2 0x1AC7 JUMPI PUSH2 0x1AC6 PUSH2 0x1E95 JUMP JUMPDEST JUMPDEST PUSH1 0x20 DUP3 MUL SWAP1 POP PUSH1 0x20 DUP2 ADD SWAP1 POP SWAP2 SWAP1 POP JUMP JUMPDEST PUSH1 0x0 PUSH8 0xFFFFFFFFFFFFFFFF DUP3 GT ISZERO PUSH2 0x1AF3 JUMPI PUSH2 0x1AF2 PUSH2 0x1E95 JUMP JUMPDEST JUMPDEST PUSH2 0x1AFC DUP3 PUSH2 0x1EDD JUMP JUMPDEST SWAP1 POP PUSH1 0x20 DUP2 ADD SWAP1 POP SWAP2 SWAP1 POP JUMP JUMPDEST PUSH1 0x0 PUSH8 0xFFFFFFFFFFFFFFFF DUP3 GT ISZERO PUSH2 0x1B24 JUMPI PUSH2 0x1B23 PUSH2 0x1E95 JUMP JUMPDEST JUMPDEST PUSH2 0x1B2D DUP3 PUSH2 0x1EDD JUMP JUMPDEST SWAP1 POP PUSH1 0x20 DUP2 ADD SWAP1 POP SWAP2 SWAP1 POP JUMP JUMPDEST PUSH1 0x0 DUP2 SWAP1 POP DUP2 PUSH1 0x0 MSTORE PUSH1 0x20 PUSH1 0x0 KECCAK256 SWAP1 POP SWAP2 SWAP1 POP JUMP JUMPDEST PUSH1 0x0 DUP2 MLOAD SWAP1 POP SWAP2 SWAP1 POP JUMP JUMPDEST PUSH1 0x0 DUP2 SWAP1 POP SWAP3 SWAP2 POP POP JUMP JUMPDEST PUSH1 0x0 DUP3 DUP3 MSTORE PUSH1 0x20 DUP3 ADD SWAP1 POP SWAP3 SWAP2 POP POP JUMP JUMPDEST PUSH1 0x0 DUP2 SWAP1 POP SWAP3 SWAP2 POP POP JUMP JUMPDEST PUSH1 0x0 PUSH2 0x1B8C DUP3 PUSH2 0x1C53 JUMP JUMPDEST SWAP2 POP PUSH2 0x1B97 DUP4 PUSH2 0x1C53 JUMP JUMPDEST SWAP3 POP DUP3 PUSH32 0xFFFFFFFFFFFFFFFFFFFFFFFFFFFFFFFFFFFFFFFFFFFFFFFFFFFFFFFFFFFFFFFF SUB DUP3 GT ISZERO PUSH2 0x1BCC JUMPI PUSH2 0x1BCB PUSH2 0x1DAA JUMP JUMPDEST JUMPDEST DUP3 DUP3 ADD SWAP1 POP SWAP3 SWAP2 POP POP JUMP JUMPDEST PUSH1 0x0 PUSH2 0x1BE2 DUP3 PUSH2 0x1C53 JUMP JUMPDEST SWAP2 POP PUSH2 0x1BED DUP4 PUSH2 0x1C53 JUMP JUMPDEST SWAP3 POP DUP3 DUP3 LT ISZERO PUSH2 0x1C00 JUMPI PUSH2 0x1BFF PUSH2 0x1DAA JUMP JUMPDEST JUMPDEST DUP3 DUP3 SUB SWAP1 POP SWAP3 SWAP2 POP POP JUMP JUMPDEST PUSH1 0x0 PUSH2 0x1C16 DUP3 PUSH2 0x1C33 JUMP JUMPDEST SWAP1 POP SWAP2 SWAP1 POP JUMP JUMPDEST PUSH1 0x0 DUP2 ISZERO ISZERO SWAP1 POP SWAP2 SWAP1 POP JUMP JUMPDEST PUSH1 0x0 DUP2 SWAP1 POP SWAP2 SWAP1 POP JUMP JUMPDEST PUSH1 0x0 PUSH20 0xFFFFFFFFFFFFFFFFFFFFFFFFFFFFFFFFFFFFFFFF DUP3 AND SWAP1 POP SWAP2 SWAP1 POP JUMP JUMPDEST PUSH1 0x0 DUP2 SWAP1 POP SWAP2 SWAP1 POP JUMP JUMPDEST DUP3 DUP2 DUP4 CALLDATACOPY PUSH1 0x0 DUP4 DUP4 ADD MSTORE POP POP POP JUMP JUMPDEST PUSH1 0x0 JUMPDEST DUP4 DUP2 LT ISZERO PUSH2 0x1C8A JUMPI DUP1 DUP3 ADD MLOAD DUP2 DUP5 ADD MSTORE PUSH1 0x20 DUP2 ADD SWAP1 POP PUSH2 0x1C6F JUMP JUMPDEST DUP4 DUP2 GT ISZERO PUSH2 0x1C99 JUMPI PUSH1 0x0 DUP5 DUP5 ADD MSTORE JUMPDEST POP POP POP POP JUMP JUMPDEST PUSH1 0x0 PUSH1 0x2 DUP3 DIV SWAP1 POP PUSH1 0x1 DUP3 AND DUP1 PUSH2 0x1CB7 JUMPI PUSH1 0x7F DUP3 AND SWAP2 POP JUMPDEST PUSH1 0x20 DUP3 LT DUP2 EQ ISZERO PUSH2 0x1CCB JUMPI PUSH2 0x1CCA PUSH2 0x1E08 JUMP JUMPDEST JUMPDEST POP SWAP2 SWAP1 POP JUMP JUMPDEST PUSH2 0x1CDA DUP3 PUSH2 0x1EDD JUMP JUMPDEST DUP2 ADD DUP2 DUP2 LT PUSH8 0xFFFFFFFFFFFFFFFF DUP3 GT OR ISZERO PUSH2 0x1CF9 JUMPI PUSH2 0x1CF8 PUSH2 0x1E95 JUMP JUMPDEST JUMPDEST DUP1 PUSH1 0x40 MSTORE POP POP POP JUMP JUMPDEST PUSH1 0x0 PUSH2 0x1D0D DUP3 PUSH2 0x1C53 JUMP JUMPDEST SWAP2 POP PUSH32 0xFFFFFFFFFFFFFFFFFFFFFFFFFFFFFFFFFFFFFFFFFFFFFFFFFFFFFFFFFFFFFFFF DUP3 EQ ISZERO PUSH2 0x1D40 JUMPI PUSH2 0x1D3F PUSH2 0x1DAA JUMP JUMPDEST JUMPDEST PUSH1 0x1 DUP3 ADD SWAP1 POP SWAP2 SWAP1 POP JUMP JUMPDEST PUSH1 0x0 PUSH2 0x1D56 DUP3 PUSH2 0x1D5D JUMP JUMPDEST SWAP1 POP SWAP2 SWAP1 POP JUMP JUMPDEST PUSH1 0x0 PUSH2 0x1D68 DUP3 PUSH2 0x1EEE JUMP JUMPDEST SWAP1 POP SWAP2 SWAP1 POP JUMP JUMPDEST PUSH1 0x0 DUP2 SWAP1 POP SWAP2 SWAP1 POP JUMP JUMPDEST PUSH1 0x0 PUSH2 0x1D84 DUP3 PUSH2 0x1C53 JUMP JUMPDEST SWAP2 POP PUSH2 0x1D8F DUP4 PUSH2 0x1C53 JUMP JUMPDEST SWAP3 POP DUP3 PUSH2 0x1D9F JUMPI PUSH2 0x1D9E PUSH2 0x1DD9 JUMP JUMPDEST JUMPDEST DUP3 DUP3 MOD SWAP1 POP SWAP3 SWAP2 POP POP JUMP JUMPDEST PUSH32 0x4E487B7100000000000000000000000000000000000000000000000000000000 PUSH1 0x0 MSTORE PUSH1 0x11 PUSH1 0x4 MSTORE PUSH1 0x24 PUSH1 0x0 REVERT JUMPDEST PUSH32 0x4E487B7100000000000000000000000000000000000000000000000000000000 PUSH1 0x0 MSTORE PUSH1 0x12 PUSH1 0x4 MSTORE PUSH1 0x24 PUSH1 0x0 REVERT JUMPDEST PUSH32 0x4E487B7100000000000000000000000000000000000000000000000000000000 PUSH1 0x0 MSTORE PUSH1 0x22 PUSH1 0x4 MSTORE PUSH1 0x24 PUSH1 0x0 REVERT JUMPDEST PUSH32 0x4E487B7100000000000000000000000000000000000000000000000000000000 PUSH1 0x0 MSTORE PUSH1 0x31 PUSH1 0x4 MSTORE PUSH1 0x24 PUSH1 0x0 REVERT JUMPDEST PUSH32 0x4E487B7100000000000000000000000000000000000000000000000000000000 PUSH1 0x0 MSTORE PUSH1 0x32 PUSH1 0x4 MSTORE PUSH1 0x24 PUSH1 0x0 REVERT JUMPDEST PUSH32 0x4E487B7100000000000000000000000000000000000000000000000000000000 PUSH1 0x0 MSTORE PUSH1 0x41 PUSH1 0x4 MSTORE PUSH1 0x24 PUSH1 0x0 REVERT JUMPDEST PUSH1 0x0 DUP1 REVERT JUMPDEST PUSH1 0x0 DUP1 REVERT JUMPDEST PUSH1 0x0 DUP1 REVERT JUMPDEST PUSH1 0x0 DUP1 REVERT JUMPDEST PUSH1 0x0 DUP1 REVERT JUMPDEST PUSH1 0x0 PUSH1 0x1F NOT PUSH1 0x1F DUP4 ADD AND SWAP1 POP SWAP2 SWAP1 POP JUMP JUMPDEST PUSH1 0x0 DUP2 PUSH1 0x60 SHL SWAP1 POP SWAP2 SWAP1 POP JUMP JUMPDEST PUSH32 0x446561646C696E65206E6F742079657420706173736564210000000000000000 PUSH1 0x0 DUP3 ADD MSTORE POP JUMP JUMPDEST PUSH32 0x566F74696E672068617320636C6F736564000000000000000000000000000000 PUSH1 0x0 DUP3 ADD MSTORE POP JUMP JUMPDEST PUSH32 0x416C7265616479207369676E6564207570210000000000000000000000000000 PUSH1 0x0 DUP3 ADD MSTORE POP JUMP JUMPDEST PUSH32 0x5369676E2D75702072656A65637465642120496E616465717561746520737461 PUSH1 0x0 DUP3 ADD MSTORE PUSH32 0x6B652076616C7565000000000000000000000000000000000000000000000000 PUSH1 0x20 DUP3 ADD MSTORE POP JUMP JUMPDEST PUSH32 0x4E6F74207369676E656420757021000000000000000000000000000000000000 PUSH1 0x0 DUP3 ADD MSTORE POP JUMP JUMPDEST PUSH32 0x4E6F7420612076616C696461746F7220666F7220746869732072657175657374 PUSH1 0x0 DUP3 ADD MSTORE PUSH32 0x2100000000000000000000000000000000000000000000000000000000000000 PUSH1 0x20 DUP3 ADD MSTORE POP JUMP JUMPDEST PUSH32 0x494420646F65736E2774206D6174636820796F75722061646472657373210000 PUSH1 0x0 DUP3 ADD MSTORE POP JUMP JUMPDEST PUSH32 0x4E6F7420617574686F72697A656420746F20656E642074686973207665726966 PUSH1 0x0 DUP3 ADD MSTORE PUSH32 0x69636174696F6E21000000000000000000000000000000000000000000000000 PUSH1 0x20 DUP3 ADD MSTORE POP JUMP JUMPDEST PUSH2 0x20BE DUP2 PUSH2 0x1C1D JUMP JUMPDEST DUP2 EQ PUSH2 0x20C9 JUMPI PUSH1 0x0 DUP1 REVERT JUMPDEST POP JUMP JUMPDEST PUSH2 0x20D5 DUP2 PUSH2 0x1C29 JUMP JUMPDEST DUP2 EQ PUSH2 0x20E0 JUMPI PUSH1 0x0 DUP1 REVERT JUMPDEST POP JUMP JUMPDEST PUSH2 0x20EC DUP2 PUSH2 0x1C53 JUMP JUMPDEST DUP2 EQ PUSH2 0x20F7 JUMPI PUSH1 0x0 DUP1 REVERT JUMPDEST POP JUMP INVALID LOG2 PUSH5 0x6970667358 0x22 SLT KECCAK256 DUP5 CODECOPY SGT GASPRICE 0xB7 0x5D SUB PUSH20 0xF624269823BDC01F74A2CBFF2BA574A401244CE6 PUSH17 0x90046964736F6C63430008070033000000 "
				},
				"gasEstimates": {
					"creation": {
						"codeDepositCost": "1699200",
						"executionCost": "1785",
						"totalCost": "1700985"
					},
					"external": {
						"cancel_signup(uint256)": "infinite",
						"endVerification(uint256)": "infinite",
						"issueCertificate(bytes[],string)": "infinite",
						"request_verification(string)": "infinite",
						"sign_up()": "infinite",
						"vote(uint256,bool)": "infinite"
					},
					"internal": {
						"chooseValidators(uint256)": "infinite"
					}
				},
				"methodIdentifiers": {
					"cancel_signup(uint256)": "f5c7996c",
					"endVerification(uint256)": "288f0938",
					"issueCertificate(bytes[],string)": "d78b0dac",
					"request_verification(string)": "969b1567",
					"sign_up()": "c4fb3337",
					"vote(uint256,bool)": "c9d27afe"
				}
			},
			"userdoc": {
				"kind": "user",
				"methods": {},
				"version": 1
			}
		}
	}
}