{
	"data": {
		"bytecode": {
			"linkReferences": {},
			"object": "608060405234801561001057600080fd5b50612130806100206000396000f3fe6080604052600436106100555760003560e01c8063288f09381461005a578063969b156714610083578063c4fb3337146100b3578063c9d27afe146100d1578063d78b0dac146100fa578063f5c7996c14610123575b600080fd5b34801561006657600080fd5b50610081600480360381019061007c9190611663565b61014c565b005b61009d6004803603810190610098919061161a565b6106dc565b6040516100aa9190611a6c565b60405180910390f35b6100bb61087e565b6040516100c89190611a6c565b60405180910390f35b3480156100dd57600080fd5b506100f860048036038101906100f39190611690565b6109e5565b005b34801561010657600080fd5b50610121600480360381019061011c9190611575565b610dfa565b005b34801561012f57600080fd5b5061014a60048036038101906101459190611663565b610dfe565b005b600115156002828154811061016457610163611e66565b5b906000526020600020906046020160020160003373ffffffffffffffffffffffffffffffffffffffff1673ffffffffffffffffffffffffffffffffffffffff16815260200190815260200160002060009054906101000a900460ff161515148061023e57503373ffffffffffffffffffffffffffffffffffffffff16600282815481106101f4576101f3611e66565b5b906000526020600020906046020160400160009054906101000a900473ffffffffffffffffffffffffffffffffffffffff1673ffffffffffffffffffffffffffffffffffffffff16145b61027d576040517f08c379a000000000000000000000000000000000000000000000000000000000815260040161027490611a4c565b60405180910390fd5b6002818154811061029157610290611e66565b5b90600052602060002090604602016045015443116102e4576040517f08c379a00000000000000000000000000000000000000000000000000000000081526004016102db9061196c565b60405180910390fd5b6008600282815481106102fa576102f9611e66565b5b906000526020600020906046020160440154600283815481106103205761031f611e66565b5b90600052602060002090604602016043015461033c9190611b81565b1061069a576002818154811061035557610354611e66565b5b9060005260206000209060460201604401546002828154811061037b5761037a611e66565b5b90600052602060002090604602016043015411156105795760005b600282815481106103aa576103a9611e66565b5b9060005260206000209060460201604301548110156104ad57600282815481106103d7576103d6611e66565b5b906000526020600020906046020160170181601481106103fa576103f9611e66565b5b0160009054906101000a900473ffffffffffffffffffffffffffffffffffffffff1673ffffffffffffffffffffffffffffffffffffffff166108fc6002848154811061044957610448611e66565b5b906000526020600020906046020160410154670de0b6b3a764000061046e9190611b81565b9081150290604051600060405180830381858888f19350505050158015610499573d6000803e3d6000fd5b5080806104a590611d02565b915050610396565b50600281815481106104c2576104c1611e66565b5b906000526020600020906046020160400160009054906101000a900473ffffffffffffffffffffffffffffffffffffffff1660036002838154811061050a57610509611e66565b5b9060005260206000209060460201603f0160405161052891906118ec565b908152602001604051809103902060006101000a81548173ffffffffffffffffffffffffffffffffffffffff021916908373ffffffffffffffffffffffffffffffffffffffff160217905550610695565b60005b600282815481106105905761058f611e66565b5b90600052602060002090604602016044015481101561069357600282815481106105bd576105bc611e66565b5b9060005260206000209060460201602b0181601481106105e0576105df611e66565b5b0160009054906101000a900473ffffffffffffffffffffffffffffffffffffffff1673ffffffffffffffffffffffffffffffffffffffff166108fc6002848154811061062f5761062e611e66565b5b906000526020600020906046020160410154670de0b6b3a76400006106549190611b81565b9081150290604051600060405180830381858888f1935050505015801561067f573d6000803e3d6000fd5b50808061068b90611d02565b91505061057c565b505b61069b565b5b6001600282815481106106b1576106b0611e66565b5b906000526020600020906046020160420160006101000a81548160ff02191690831515021790555050565b6000678ac7230489e800003410156106f357600080fd5b60006002424433600454604051602001610710949392919061191e565b60405160208183030381529060405260405161072c91906118d5565b602060405180830381855afa158015610749573d6000803e3d6000fd5b5050506040513d601f19601f8201168201806040525081019061076c91906115ed565b60001c90508060026005548154811061078857610787611e66565b5b9060005260206000209060460201600101819055506005546002600554815481106107b6576107b5611e66565b5b906000526020600020906046020160000181905550336002600554815481106107e2576107e1611e66565b5b906000526020600020906046020160400160006101000a81548173ffffffffffffffffffffffffffffffffffffffff021916908373ffffffffffffffffffffffffffffffffffffffff1602179055508260026005548154811061084857610847611e66565b5b9060005260206000209060460201603f01908051906020019061086c9291906112f7565b50610878600554611044565b50919050565b6000670de0b6b3a764000034146108ca576040517f08c379a00000000000000000000000000000000000000000000000000000000081526004016108c1906119cc565b60405180910390fd5b60001515600160003373ffffffffffffffffffffffffffffffffffffffff1673ffffffffffffffffffffffffffffffffffffffff16815260200190815260200160002060009054906101000a900460ff1615151461095d576040517f08c379a0000000000000000000000000000000000000000000000000000000008152600401610954906119ac565b60405180910390fd5b3360006004548154811061097457610973611e66565b5b9060005260206000200160006101000a81548173ffffffffffffffffffffffffffffffffffffffff021916908373ffffffffffffffffffffffffffffffffffffffff16021790555060016004546109cb9190611b81565b60048190555060016004546109e09190611bd7565b905090565b60011515600283815481106109fd576109fc611e66565b5b906000526020600020906046020160020160003373ffffffffffffffffffffffffffffffffffffffff1673ffffffffffffffffffffffffffffffffffffffff16815260200190815260200160002060009054906101000a900460ff16151514610a9b576040517f08c379a0000000000000000000000000000000000000000000000000000000008152600401610a9290611a0c565b60405180910390fd5b60028281548110610aaf57610aae611e66565b5b9060005260206000209060460201604501544310610b02576040517f08c379a0000000000000000000000000000000000000000000000000000000008152600401610af99061198c565b60405180910390fd5b8015610c04573360028381548110610b1d57610b1c611e66565b5b906000526020600020906046020160170160028481548110610b4257610b41611e66565b5b90600052602060002090604602016043015460148110610b6557610b64611e66565b5b0160006101000a81548173ffffffffffffffffffffffffffffffffffffffff021916908373ffffffffffffffffffffffffffffffffffffffff160217905550600160028381548110610bba57610bb9611e66565b5b906000526020600020906046020160430154610bd69190611b81565b60028381548110610bea57610be9611e66565b5b906000526020600020906046020160430181905550610cfc565b3360028381548110610c1957610c18611e66565b5b9060005260206000209060460201602b0160028481548110610c3e57610c3d611e66565b5b90600052602060002090604602016044015460148110610c6157610c60611e66565b5b0160006101000a81548173ffffffffffffffffffffffffffffffffffffffff021916908373ffffffffffffffffffffffffffffffffffffffff160217905550600160028381548110610cb657610cb5611e66565b5b906000526020600020906046020160440154610cd29190611b81565b60028381548110610ce657610ce5611e66565b5b9060005260206000209060460201604401819055505b3373ffffffffffffffffffffffffffffffffffffffff166108fc60028481548110610d2a57610d29611e66565b5b906000526020600020906046020160410154670de0b6b3a7640000610d4f9190611b81565b9081150290604051600060405180830381858888f19350505050158015610d7a573d6000803e3d6000fd5b50600060028381548110610d9157610d90611e66565b5b906000526020600020906046020160020160003373ffffffffffffffffffffffffffffffffffffffff1673ffffffffffffffffffffffffffffffffffffffff16815260200190815260200160002060006101000a81548160ff0219169083151502179055505050565b5050565b3373ffffffffffffffffffffffffffffffffffffffff1660008281548110610e2957610e28611e66565b5b9060005260206000200160009054906101000a900473ffffffffffffffffffffffffffffffffffffffff1673ffffffffffffffffffffffffffffffffffffffff1614610eaa576040517f08c379a0000000000000000000000000000000000000000000000000000000008152600401610ea190611a2c565b60405180910390fd5b60011515600160003373ffffffffffffffffffffffffffffffffffffffff1673ffffffffffffffffffffffffffffffffffffffff16815260200190815260200160002060009054906101000a900460ff16151514610f3d576040517f08c379a0000000000000000000000000000000000000000000000000000000008152600401610f34906119ec565b60405180910390fd5b6000600160003373ffffffffffffffffffffffffffffffffffffffff1673ffffffffffffffffffffffffffffffffffffffff16815260200190815260200160002060006101000a81548160ff0219169083151502179055506000808281548110610faa57610fa9611e66565b5b9060005260206000200160006101000a81548173ffffffffffffffffffffffffffffffffffffffff021916908373ffffffffffffffffffffffffffffffffffffffff1602179055503373ffffffffffffffffffffffffffffffffffffffff166108fc670de0b6b3a76400009081150290604051600060405180830381858888f19350505050158015611040573d6000803e3d6000fd5b5050565b60005b60148110156112f35760008080549050600260008054905060405160200161106f9190611903565b60405160208183030381529060405260405161108b91906118d5565b602060405180830381855afa1580156110a8573d6000803e3d6000fd5b5050506040513d601f19601f820116820180604052508101906110cb91906115ed565b60001c6110d89190611d79565b905060008082815481106110ef576110ee611e66565b5b9060005260206000200160009054906101000a900473ffffffffffffffffffffffffffffffffffffffff1690506000600160008373ffffffffffffffffffffffffffffffffffffffff1673ffffffffffffffffffffffffffffffffffffffff16815260200190815260200160002060006101000a81548160ff021916908315150217905550600060016000805490506111889190611bd7565b8154811061119957611198611e66565b5b9060005260206000200160009054906101000a900473ffffffffffffffffffffffffffffffffffffffff16600083815481106111d8576111d7611e66565b5b9060005260206000200160006101000a81548173ffffffffffffffffffffffffffffffffffffffff021916908373ffffffffffffffffffffffffffffffffffffffff160217905550600080548061123257611231611e37565b5b6001900381819060005260206000200160006101000a81549073ffffffffffffffffffffffffffffffffffffffff02191690559055806002858154811061127c5761127b611e66565b5b9060005260206000209060460201600301846014811061129f5761129e611e66565b5b0160006101000a81548173ffffffffffffffffffffffffffffffffffffffff021916908373ffffffffffffffffffffffffffffffffffffffff160217905550505080806112eb90611d02565b915050611047565b5050565b82805461130390611c9f565b90600052602060002090601f016020900481019282611325576000855561136c565b82601f1061133e57805160ff191683800117855561136c565b8280016001018555821561136c579182015b8281111561136b578251825591602001919060010190611350565b5b509050611379919061137d565b5090565b5b8082111561139657600081600090555060010161137e565b5090565b60006113ad6113a884611aac565b611a87565b905080838252602082019050828560208602820111156113d0576113cf611ec9565b5b60005b8581101561141e57813567ffffffffffffffff8111156113f6576113f5611ec4565b5b8086016114038982611504565b855260208501945060208401935050506001810190506113d3565b5050509392505050565b600061143b61143684611ad8565b611a87565b90508281526020810184848401111561145757611456611ece565b5b611462848285611c5d565b509392505050565b600061147d61147884611b09565b611a87565b90508281526020810184848401111561149957611498611ece565b5b6114a4848285611c5d565b509392505050565b600082601f8301126114c1576114c0611ec4565b5b81356114d184826020860161139a565b91505092915050565b6000813590506114e9816120b5565b92915050565b6000815190506114fe816120cc565b92915050565b600082601f83011261151957611518611ec4565b5b8135611529848260208601611428565b91505092915050565b600082601f83011261154757611546611ec4565b5b813561155784826020860161146a565b91505092915050565b60008135905061156f816120e3565b92915050565b6000806040838503121561158c5761158b611ed8565b5b600083013567ffffffffffffffff8111156115aa576115a9611ed3565b5b6115b6858286016114ac565b925050602083013567ffffffffffffffff8111156115d7576115d6611ed3565b5b6115e385828601611532565b9150509250929050565b60006020828403121561160357611602611ed8565b5b6000611611848285016114ef565b91505092915050565b6000602082840312156116305761162f611ed8565b5b600082013567ffffffffffffffff81111561164e5761164d611ed3565b5b61165a84828501611532565b91505092915050565b60006020828403121561167957611678611ed8565b5b600061168784828501611560565b91505092915050565b600080604083850312156116a7576116a6611ed8565b5b60006116b585828601611560565b92505060206116c6858286016114da565b9150509250929050565b6116e16116dc82611c0b565b611d4b565b82525050565b60006116f282611b4f565b6116fc8185611b5a565b935061170c818560208601611c6c565b80840191505092915050565b6000815461172581611c9f565b61172f8186611b76565b9450600182166000811461174a576001811461175b5761178e565b60ff1983168652818601935061178e565b61176485611b3a565b60005b8381101561178657815481890152600182019150602081019050611767565b838801955050505b50505092915050565b60006117a4601883611b65565b91506117af82611efb565b602082019050919050565b60006117c7601183611b65565b91506117d282611f24565b602082019050919050565b60006117ea601283611b65565b91506117f582611f4d565b602082019050919050565b600061180d602883611b65565b915061181882611f76565b604082019050919050565b6000611830600e83611b65565b915061183b82611fc5565b602082019050919050565b6000611853602183611b65565b915061185e82611fee565b604082019050919050565b6000611876601e83611b65565b91506118818261203d565b602082019050919050565b6000611899602883611b65565b91506118a482612066565b604082019050919050565b6118b881611c53565b82525050565b6118cf6118ca82611c53565b611d6f565b82525050565b60006118e182846116e7565b915081905092915050565b60006118f88284611718565b915081905092915050565b600061190f82846118be565b60208201915081905092915050565b600061192a82876118be565b60208201915061193a82866118be565b60208201915061194a82856116d0565b60148201915061195a82846118be565b60208201915081905095945050505050565b6000602082019050818103600083015261198581611797565b9050919050565b600060208201905081810360008301526119a5816117ba565b9050919050565b600060208201905081810360008301526119c5816117dd565b9050919050565b600060208201905081810360008301526119e581611800565b9050919050565b60006020820190508181036000830152611a0581611823565b9050919050565b60006020820190508181036000830152611a2581611846565b9050919050565b60006020820190508181036000830152611a4581611869565b9050919050565b60006020820190508181036000830152611a658161188c565b9050919050565b6000602082019050611a8160008301846118af565b92915050565b6000611a91611aa2565b9050611a9d8282611cd1565b919050565b6000604051905090565b600067ffffffffffffffff821115611ac757611ac6611e95565b5b602082029050602081019050919050565b600067ffffffffffffffff821115611af357611af2611e95565b5b611afc82611edd565b9050602081019050919050565b600067ffffffffffffffff821115611b2457611b23611e95565b5b611b2d82611edd565b9050602081019050919050565b60008190508160005260206000209050919050565b600081519050919050565b600081905092915050565b600082825260208201905092915050565b600081905092915050565b6000611b8c82611c53565b9150611b9783611c53565b9250827fffffffffffffffffffffffffffffffffffffffffffffffffffffffffffffffff03821115611bcc57611bcb611daa565b5b828201905092915050565b6000611be282611c53565b9150611bed83611c53565b925082821015611c0057611bff611daa565b5b828203905092915050565b6000611c1682611c33565b9050919050565b60008115159050919050565b6000819050919050565b600073ffffffffffffffffffffffffffffffffffffffff82169050919050565b6000819050919050565b82818337600083830152505050565b60005b83811015611c8a578082015181840152602081019050611c6f565b83811115611c99576000848401525b50505050565b60006002820490506001821680611cb757607f821691505b60208210811415611ccb57611cca611e08565b5b50919050565b611cda82611edd565b810181811067ffffffffffffffff82111715611cf957611cf8611e95565b5b80604052505050565b6000611d0d82611c53565b91507fffffffffffffffffffffffffffffffffffffffffffffffffffffffffffffffff821415611d4057611d3f611daa565b5b600182019050919050565b6000611d5682611d5d565b9050919050565b6000611d6882611eee565b9050919050565b6000819050919050565b6000611d8482611c53565b9150611d8f83611c53565b925082611d9f57611d9e611dd9565b5b828206905092915050565b7f4e487b7100000000000000000000000000000000000000000000000000000000600052601160045260246000fd5b7f4e487b7100000000000000000000000000000000000000000000000000000000600052601260045260246000fd5b7f4e487b7100000000000000000000000000000000000000000000000000000000600052602260045260246000fd5b7f4e487b7100000000000000000000000000000000000000000000000000000000600052603160045260246000fd5b7f4e487b7100000000000000000000000000000000000000000000000000000000600052603260045260246000fd5b7f4e487b7100000000000000000000000000000000000000000000000000000000600052604160045260246000fd5b600080fd5b600080fd5b600080fd5b600080fd5b600080fd5b6000601f19601f8301169050919050565b60008160601b9050919050565b7f446561646c696e65206e6f742079657420706173736564210000000000000000600082015250565b7f566f74696e672068617320636c6f736564000000000000000000000000000000600082015250565b7f416c7265616479207369676e6564207570210000000000000000000000000000600082015250565b7f5369676e2d75702072656a65637465642120496e61646571756174652073746160008201527f6b652076616c7565000000000000000000000000000000000000000000000000602082015250565b7f4e6f74207369676e656420757021000000000000000000000000000000000000600082015250565b7f4e6f7420612076616c696461746f7220666f722074686973207265717565737460008201527f2100000000000000000000000000000000000000000000000000000000000000602082015250565b7f494420646f65736e2774206d6174636820796f75722061646472657373210000600082015250565b7f4e6f7420617574686f72697a656420746f20656e64207468697320766572696660008201527f69636174696f6e21000000000000000000000000000000000000000000000000602082015250565b6120be81611c1d565b81146120c957600080fd5b50565b6120d581611c29565b81146120e057600080fd5b50565b6120ec81611c53565b81146120f757600080fd5b5056fea2646970667358221220739dc9b6b7e434297641b8a57d40d979f60fe40d655c6098407c7070a05264f164736f6c63430008070033",
			"opcodes": "PUSH1 0x80 PUSH1 0x40 MSTORE CALLVALUE DUP1 ISZERO PUSH2 0x10 JUMPI PUSH1 0x0 DUP1 REVERT JUMPDEST POP PUSH2 0x2130 DUP1 PUSH2 0x20 PUSH1 0x0 CODECOPY PUSH1 0x0 RETURN INVALID PUSH1 0x80 PUSH1 0x40 MSTORE PUSH1 0x4 CALLDATASIZE LT PUSH2 0x55 JUMPI PUSH1 0x0 CALLDATALOAD PUSH1 0xE0 SHR DUP1 PUSH4 0x288F0938 EQ PUSH2 0x5A JUMPI DUP1 PUSH4 0x969B1567 EQ PUSH2 0x83 JUMPI DUP1 PUSH4 0xC4FB3337 EQ PUSH2 0xB3 JUMPI DUP1 PUSH4 0xC9D27AFE EQ PUSH2 0xD1 JUMPI DUP1 PUSH4 0xD78B0DAC EQ PUSH2 0xFA JUMPI DUP1 PUSH4 0xF5C7996C EQ PUSH2 0x123 JUMPI JUMPDEST PUSH1 0x0 DUP1 REVERT JUMPDEST CALLVALUE DUP1 ISZERO PUSH2 0x66 JUMPI PUSH1 0x0 DUP1 REVERT JUMPDEST POP PUSH2 0x81 PUSH1 0x4 DUP1 CALLDATASIZE SUB DUP2 ADD SWAP1 PUSH2 0x7C SWAP2 SWAP1 PUSH2 0x1663 JUMP JUMPDEST PUSH2 0x14C JUMP JUMPDEST STOP JUMPDEST PUSH2 0x9D PUSH1 0x4 DUP1 CALLDATASIZE SUB DUP2 ADD SWAP1 PUSH2 0x98 SWAP2 SWAP1 PUSH2 0x161A JUMP JUMPDEST PUSH2 0x6DC JUMP JUMPDEST PUSH1 0x40 MLOAD PUSH2 0xAA SWAP2 SWAP1 PUSH2 0x1A6C JUMP JUMPDEST PUSH1 0x40 MLOAD DUP1 SWAP2 SUB SWAP1 RETURN JUMPDEST PUSH2 0xBB PUSH2 0x87E JUMP JUMPDEST PUSH1 0x40 MLOAD PUSH2 0xC8 SWAP2 SWAP1 PUSH2 0x1A6C JUMP JUMPDEST PUSH1 0x40 MLOAD DUP1 SWAP2 SUB SWAP1 RETURN JUMPDEST CALLVALUE DUP1 ISZERO PUSH2 0xDD JUMPI PUSH1 0x0 DUP1 REVERT JUMPDEST POP PUSH2 0xF8 PUSH1 0x4 DUP1 CALLDATASIZE SUB DUP2 ADD SWAP1 PUSH2 0xF3 SWAP2 SWAP1 PUSH2 0x1690 JUMP JUMPDEST PUSH2 0x9E5 JUMP JUMPDEST STOP JUMPDEST CALLVALUE DUP1 ISZERO PUSH2 0x106 JUMPI PUSH1 0x0 DUP1 REVERT JUMPDEST POP PUSH2 0x121 PUSH1 0x4 DUP1 CALLDATASIZE SUB DUP2 ADD SWAP1 PUSH2 0x11C SWAP2 SWAP1 PUSH2 0x1575 JUMP JUMPDEST PUSH2 0xDFA JUMP JUMPDEST STOP JUMPDEST CALLVALUE DUP1 ISZERO PUSH2 0x12F JUMPI PUSH1 0x0 DUP1 REVERT JUMPDEST POP PUSH2 0x14A PUSH1 0x4 DUP1 CALLDATASIZE SUB DUP2 ADD SWAP1 PUSH2 0x145 SWAP2 SWAP1 PUSH2 0x1663 JUMP JUMPDEST PUSH2 0xDFE JUMP JUMPDEST STOP JUMPDEST PUSH1 0x1 ISZERO ISZERO PUSH1 0x2 DUP3 DUP2 SLOAD DUP2 LT PUSH2 0x164 JUMPI PUSH2 0x163 PUSH2 0x1E66 JUMP JUMPDEST JUMPDEST SWAP1 PUSH1 0x0 MSTORE PUSH1 0x20 PUSH1 0x0 KECCAK256 SWAP1 PUSH1 0x46 MUL ADD PUSH1 0x2 ADD PUSH1 0x0 CALLER PUSH20 0xFFFFFFFFFFFFFFFFFFFFFFFFFFFFFFFFFFFFFFFF AND PUSH20 0xFFFFFFFFFFFFFFFFFFFFFFFFFFFFFFFFFFFFFFFF AND DUP2 MSTORE PUSH1 0x20 ADD SWAP1 DUP2 MSTORE PUSH1 0x20 ADD PUSH1 0x0 KECCAK256 PUSH1 0x0 SWAP1 SLOAD SWAP1 PUSH2 0x100 EXP SWAP1 DIV PUSH1 0xFF AND ISZERO ISZERO EQ DUP1 PUSH2 0x23E JUMPI POP CALLER PUSH20 0xFFFFFFFFFFFFFFFFFFFFFFFFFFFFFFFFFFFFFFFF AND PUSH1 0x2 DUP3 DUP2 SLOAD DUP2 LT PUSH2 0x1F4 JUMPI PUSH2 0x1F3 PUSH2 0x1E66 JUMP JUMPDEST JUMPDEST SWAP1 PUSH1 0x0 MSTORE PUSH1 0x20 PUSH1 0x0 KECCAK256 SWAP1 PUSH1 0x46 MUL ADD PUSH1 0x40 ADD PUSH1 0x0 SWAP1 SLOAD SWAP1 PUSH2 0x100 EXP SWAP1 DIV PUSH20 0xFFFFFFFFFFFFFFFFFFFFFFFFFFFFFFFFFFFFFFFF AND PUSH20 0xFFFFFFFFFFFFFFFFFFFFFFFFFFFFFFFFFFFFFFFF AND EQ JUMPDEST PUSH2 0x27D JUMPI PUSH1 0x40 MLOAD PUSH32 0x8C379A000000000000000000000000000000000000000000000000000000000 DUP2 MSTORE PUSH1 0x4 ADD PUSH2 0x274 SWAP1 PUSH2 0x1A4C JUMP JUMPDEST PUSH1 0x40 MLOAD DUP1 SWAP2 SUB SWAP1 REVERT JUMPDEST PUSH1 0x2 DUP2 DUP2 SLOAD DUP2 LT PUSH2 0x291 JUMPI PUSH2 0x290 PUSH2 0x1E66 JUMP JUMPDEST JUMPDEST SWAP1 PUSH1 0x0 MSTORE PUSH1 0x20 PUSH1 0x0 KECCAK256 SWAP1 PUSH1 0x46 MUL ADD PUSH1 0x45 ADD SLOAD NUMBER GT PUSH2 0x2E4 JUMPI PUSH1 0x40 MLOAD PUSH32 0x8C379A000000000000000000000000000000000000000000000000000000000 DUP2 MSTORE PUSH1 0x4 ADD PUSH2 0x2DB SWAP1 PUSH2 0x196C JUMP JUMPDEST PUSH1 0x40 MLOAD DUP1 SWAP2 SUB SWAP1 REVERT JUMPDEST PUSH1 0x8 PUSH1 0x2 DUP3 DUP2 SLOAD DUP2 LT PUSH2 0x2FA JUMPI PUSH2 0x2F9 PUSH2 0x1E66 JUMP JUMPDEST JUMPDEST SWAP1 PUSH1 0x0 MSTORE PUSH1 0x20 PUSH1 0x0 KECCAK256 SWAP1 PUSH1 0x46 MUL ADD PUSH1 0x44 ADD SLOAD PUSH1 0x2 DUP4 DUP2 SLOAD DUP2 LT PUSH2 0x320 JUMPI PUSH2 0x31F PUSH2 0x1E66 JUMP JUMPDEST JUMPDEST SWAP1 PUSH1 0x0 MSTORE PUSH1 0x20 PUSH1 0x0 KECCAK256 SWAP1 PUSH1 0x46 MUL ADD PUSH1 0x43 ADD SLOAD PUSH2 0x33C SWAP2 SWAP1 PUSH2 0x1B81 JUMP JUMPDEST LT PUSH2 0x69A JUMPI PUSH1 0x2 DUP2 DUP2 SLOAD DUP2 LT PUSH2 0x355 JUMPI PUSH2 0x354 PUSH2 0x1E66 JUMP JUMPDEST JUMPDEST SWAP1 PUSH1 0x0 MSTORE PUSH1 0x20 PUSH1 0x0 KECCAK256 SWAP1 PUSH1 0x46 MUL ADD PUSH1 0x44 ADD SLOAD PUSH1 0x2 DUP3 DUP2 SLOAD DUP2 LT PUSH2 0x37B JUMPI PUSH2 0x37A PUSH2 0x1E66 JUMP JUMPDEST JUMPDEST SWAP1 PUSH1 0x0 MSTORE PUSH1 0x20 PUSH1 0x0 KECCAK256 SWAP1 PUSH1 0x46 MUL ADD PUSH1 0x43 ADD SLOAD GT ISZERO PUSH2 0x579 JUMPI PUSH1 0x0 JUMPDEST PUSH1 0x2 DUP3 DUP2 SLOAD DUP2 LT PUSH2 0x3AA JUMPI PUSH2 0x3A9 PUSH2 0x1E66 JUMP JUMPDEST JUMPDEST SWAP1 PUSH1 0x0 MSTORE PUSH1 0x20 PUSH1 0x0 KECCAK256 SWAP1 PUSH1 0x46 MUL ADD PUSH1 0x43 ADD SLOAD DUP2 LT ISZERO PUSH2 0x4AD JUMPI PUSH1 0x2 DUP3 DUP2 SLOAD DUP2 LT PUSH2 0x3D7 JUMPI PUSH2 0x3D6 PUSH2 0x1E66 JUMP JUMPDEST JUMPDEST SWAP1 PUSH1 0x0 MSTORE PUSH1 0x20 PUSH1 0x0 KECCAK256 SWAP1 PUSH1 0x46 MUL ADD PUSH1 0x17 ADD DUP2 PUSH1 0x14 DUP2 LT PUSH2 0x3FA JUMPI PUSH2 0x3F9 PUSH2 0x1E66 JUMP JUMPDEST JUMPDEST ADD PUSH1 0x0 SWAP1 SLOAD SWAP1 PUSH2 0x100 EXP SWAP1 DIV PUSH20 0xFFFFFFFFFFFFFFFFFFFFFFFFFFFFFFFFFFFFFFFF AND PUSH20 0xFFFFFFFFFFFFFFFFFFFFFFFFFFFFFFFFFFFFFFFF AND PUSH2 0x8FC PUSH1 0x2 DUP5 DUP2 SLOAD DUP2 LT PUSH2 0x449 JUMPI PUSH2 0x448 PUSH2 0x1E66 JUMP JUMPDEST JUMPDEST SWAP1 PUSH1 0x0 MSTORE PUSH1 0x20 PUSH1 0x0 KECCAK256 SWAP1 PUSH1 0x46 MUL ADD PUSH1 0x41 ADD SLOAD PUSH8 0xDE0B6B3A7640000 PUSH2 0x46E SWAP2 SWAP1 PUSH2 0x1B81 JUMP JUMPDEST SWAP1 DUP2 ISZERO MUL SWAP1 PUSH1 0x40 MLOAD PUSH1 0x0 PUSH1 0x40 MLOAD DUP1 DUP4 SUB DUP2 DUP6 DUP9 DUP9 CALL SWAP4 POP POP POP POP ISZERO DUP1 ISZERO PUSH2 0x499 JUMPI RETURNDATASIZE PUSH1 0x0 DUP1 RETURNDATACOPY RETURNDATASIZE PUSH1 0x0 REVERT JUMPDEST POP DUP1 DUP1 PUSH2 0x4A5 SWAP1 PUSH2 0x1D02 JUMP JUMPDEST SWAP2 POP POP PUSH2 0x396 JUMP JUMPDEST POP PUSH1 0x2 DUP2 DUP2 SLOAD DUP2 LT PUSH2 0x4C2 JUMPI PUSH2 0x4C1 PUSH2 0x1E66 JUMP JUMPDEST JUMPDEST SWAP1 PUSH1 0x0 MSTORE PUSH1 0x20 PUSH1 0x0 KECCAK256 SWAP1 PUSH1 0x46 MUL ADD PUSH1 0x40 ADD PUSH1 0x0 SWAP1 SLOAD SWAP1 PUSH2 0x100 EXP SWAP1 DIV PUSH20 0xFFFFFFFFFFFFFFFFFFFFFFFFFFFFFFFFFFFFFFFF AND PUSH1 0x3 PUSH1 0x2 DUP4 DUP2 SLOAD DUP2 LT PUSH2 0x50A JUMPI PUSH2 0x509 PUSH2 0x1E66 JUMP JUMPDEST JUMPDEST SWAP1 PUSH1 0x0 MSTORE PUSH1 0x20 PUSH1 0x0 KECCAK256 SWAP1 PUSH1 0x46 MUL ADD PUSH1 0x3F ADD PUSH1 0x40 MLOAD PUSH2 0x528 SWAP2 SWAP1 PUSH2 0x18EC JUMP JUMPDEST SWAP1 DUP2 MSTORE PUSH1 0x20 ADD PUSH1 0x40 MLOAD DUP1 SWAP2 SUB SWAP1 KECCAK256 PUSH1 0x0 PUSH2 0x100 EXP DUP2 SLOAD DUP2 PUSH20 0xFFFFFFFFFFFFFFFFFFFFFFFFFFFFFFFFFFFFFFFF MUL NOT AND SWAP1 DUP4 PUSH20 0xFFFFFFFFFFFFFFFFFFFFFFFFFFFFFFFFFFFFFFFF AND MUL OR SWAP1 SSTORE POP PUSH2 0x695 JUMP JUMPDEST PUSH1 0x0 JUMPDEST PUSH1 0x2 DUP3 DUP2 SLOAD DUP2 LT PUSH2 0x590 JUMPI PUSH2 0x58F PUSH2 0x1E66 JUMP JUMPDEST JUMPDEST SWAP1 PUSH1 0x0 MSTORE PUSH1 0x20 PUSH1 0x0 KECCAK256 SWAP1 PUSH1 0x46 MUL ADD PUSH1 0x44 ADD SLOAD DUP2 LT ISZERO PUSH2 0x693 JUMPI PUSH1 0x2 DUP3 DUP2 SLOAD DUP2 LT PUSH2 0x5BD JUMPI PUSH2 0x5BC PUSH2 0x1E66 JUMP JUMPDEST JUMPDEST SWAP1 PUSH1 0x0 MSTORE PUSH1 0x20 PUSH1 0x0 KECCAK256 SWAP1 PUSH1 0x46 MUL ADD PUSH1 0x2B ADD DUP2 PUSH1 0x14 DUP2 LT PUSH2 0x5E0 JUMPI PUSH2 0x5DF PUSH2 0x1E66 JUMP JUMPDEST JUMPDEST ADD PUSH1 0x0 SWAP1 SLOAD SWAP1 PUSH2 0x100 EXP SWAP1 DIV PUSH20 0xFFFFFFFFFFFFFFFFFFFFFFFFFFFFFFFFFFFFFFFF AND PUSH20 0xFFFFFFFFFFFFFFFFFFFFFFFFFFFFFFFFFFFFFFFF AND PUSH2 0x8FC PUSH1 0x2 DUP5 DUP2 SLOAD DUP2 LT PUSH2 0x62F JUMPI PUSH2 0x62E PUSH2 0x1E66 JUMP JUMPDEST JUMPDEST SWAP1 PUSH1 0x0 MSTORE PUSH1 0x20 PUSH1 0x0 KECCAK256 SWAP1 PUSH1 0x46 MUL ADD PUSH1 0x41 ADD SLOAD PUSH8 0xDE0B6B3A7640000 PUSH2 0x654 SWAP2 SWAP1 PUSH2 0x1B81 JUMP JUMPDEST SWAP1 DUP2 ISZERO MUL SWAP1 PUSH1 0x40 MLOAD PUSH1 0x0 PUSH1 0x40 MLOAD DUP1 DUP4 SUB DUP2 DUP6 DUP9 DUP9 CALL SWAP4 POP POP POP POP ISZERO DUP1 ISZERO PUSH2 0x67F JUMPI RETURNDATASIZE PUSH1 0x0 DUP1 RETURNDATACOPY RETURNDATASIZE PUSH1 0x0 REVERT JUMPDEST POP DUP1 DUP1 PUSH2 0x68B SWAP1 PUSH2 0x1D02 JUMP JUMPDEST SWAP2 POP POP PUSH2 0x57C JUMP JUMPDEST POP JUMPDEST PUSH2 0x69B JUMP JUMPDEST JUMPDEST PUSH1 0x1 PUSH1 0x2 DUP3 DUP2 SLOAD DUP2 LT PUSH2 0x6B1 JUMPI PUSH2 0x6B0 PUSH2 0x1E66 JUMP JUMPDEST JUMPDEST SWAP1 PUSH1 0x0 MSTORE PUSH1 0x20 PUSH1 0x0 KECCAK256 SWAP1 PUSH1 0x46 MUL ADD PUSH1 0x42 ADD PUSH1 0x0 PUSH2 0x100 EXP DUP2 SLOAD DUP2 PUSH1 0xFF MUL NOT AND SWAP1 DUP4 ISZERO ISZERO MUL OR SWAP1 SSTORE POP POP JUMP JUMPDEST PUSH1 0x0 PUSH8 0x8AC7230489E80000 CALLVALUE LT ISZERO PUSH2 0x6F3 JUMPI PUSH1 0x0 DUP1 REVERT JUMPDEST PUSH1 0x0 PUSH1 0x2 TIMESTAMP DIFFICULTY CALLER PUSH1 0x4 SLOAD PUSH1 0x40 MLOAD PUSH1 0x20 ADD PUSH2 0x710 SWAP5 SWAP4 SWAP3 SWAP2 SWAP1 PUSH2 0x191E JUMP JUMPDEST PUSH1 0x40 MLOAD PUSH1 0x20 DUP2 DUP4 SUB SUB DUP2 MSTORE SWAP1 PUSH1 0x40 MSTORE PUSH1 0x40 MLOAD PUSH2 0x72C SWAP2 SWAP1 PUSH2 0x18D5 JUMP JUMPDEST PUSH1 0x20 PUSH1 0x40 MLOAD DUP1 DUP4 SUB DUP2 DUP6 GAS STATICCALL ISZERO DUP1 ISZERO PUSH2 0x749 JUMPI RETURNDATASIZE PUSH1 0x0 DUP1 RETURNDATACOPY RETURNDATASIZE PUSH1 0x0 REVERT JUMPDEST POP POP POP PUSH1 0x40 MLOAD RETURNDATASIZE PUSH1 0x1F NOT PUSH1 0x1F DUP3 ADD AND DUP3 ADD DUP1 PUSH1 0x40 MSTORE POP DUP2 ADD SWAP1 PUSH2 0x76C SWAP2 SWAP1 PUSH2 0x15ED JUMP JUMPDEST PUSH1 0x0 SHR SWAP1 POP DUP1 PUSH1 0x2 PUSH1 0x5 SLOAD DUP2 SLOAD DUP2 LT PUSH2 0x788 JUMPI PUSH2 0x787 PUSH2 0x1E66 JUMP JUMPDEST JUMPDEST SWAP1 PUSH1 0x0 MSTORE PUSH1 0x20 PUSH1 0x0 KECCAK256 SWAP1 PUSH1 0x46 MUL ADD PUSH1 0x1 ADD DUP2 SWAP1 SSTORE POP PUSH1 0x5 SLOAD PUSH1 0x2 PUSH1 0x5 SLOAD DUP2 SLOAD DUP2 LT PUSH2 0x7B6 JUMPI PUSH2 0x7B5 PUSH2 0x1E66 JUMP JUMPDEST JUMPDEST SWAP1 PUSH1 0x0 MSTORE PUSH1 0x20 PUSH1 0x0 KECCAK256 SWAP1 PUSH1 0x46 MUL ADD PUSH1 0x0 ADD DUP2 SWAP1 SSTORE POP CALLER PUSH1 0x2 PUSH1 0x5 SLOAD DUP2 SLOAD DUP2 LT PUSH2 0x7E2 JUMPI PUSH2 0x7E1 PUSH2 0x1E66 JUMP JUMPDEST JUMPDEST SWAP1 PUSH1 0x0 MSTORE PUSH1 0x20 PUSH1 0x0 KECCAK256 SWAP1 PUSH1 0x46 MUL ADD PUSH1 0x40 ADD PUSH1 0x0 PUSH2 0x100 EXP DUP2 SLOAD DUP2 PUSH20 0xFFFFFFFFFFFFFFFFFFFFFFFFFFFFFFFFFFFFFFFF MUL NOT AND SWAP1 DUP4 PUSH20 0xFFFFFFFFFFFFFFFFFFFFFFFFFFFFFFFFFFFFFFFF AND MUL OR SWAP1 SSTORE POP DUP3 PUSH1 0x2 PUSH1 0x5 SLOAD DUP2 SLOAD DUP2 LT PUSH2 0x848 JUMPI PUSH2 0x847 PUSH2 0x1E66 JUMP JUMPDEST JUMPDEST SWAP1 PUSH1 0x0 MSTORE PUSH1 0x20 PUSH1 0x0 KECCAK256 SWAP1 PUSH1 0x46 MUL ADD PUSH1 0x3F ADD SWAP1 DUP1 MLOAD SWAP1 PUSH1 0x20 ADD SWAP1 PUSH2 0x86C SWAP3 SWAP2 SWAP1 PUSH2 0x12F7 JUMP JUMPDEST POP PUSH2 0x878 PUSH1 0x5 SLOAD PUSH2 0x1044 JUMP JUMPDEST POP SWAP2 SWAP1 POP JUMP JUMPDEST PUSH1 0x0 PUSH8 0xDE0B6B3A7640000 CALLVALUE EQ PUSH2 0x8CA JUMPI PUSH1 0x40 MLOAD PUSH32 0x8C379A000000000000000000000000000000000000000000000000000000000 DUP2 MSTORE PUSH1 0x4 ADD PUSH2 0x8C1 SWAP1 PUSH2 0x19CC JUMP JUMPDEST PUSH1 0x40 MLOAD DUP1 SWAP2 SUB SWAP1 REVERT JUMPDEST PUSH1 0x0 ISZERO ISZERO PUSH1 0x1 PUSH1 0x0 CALLER PUSH20 0xFFFFFFFFFFFFFFFFFFFFFFFFFFFFFFFFFFFFFFFF AND PUSH20 0xFFFFFFFFFFFFFFFFFFFFFFFFFFFFFFFFFFFFFFFF AND DUP2 MSTORE PUSH1 0x20 ADD SWAP1 DUP2 MSTORE PUSH1 0x20 ADD PUSH1 0x0 KECCAK256 PUSH1 0x0 SWAP1 SLOAD SWAP1 PUSH2 0x100 EXP SWAP1 DIV PUSH1 0xFF AND ISZERO ISZERO EQ PUSH2 0x95D JUMPI PUSH1 0x40 MLOAD PUSH32 0x8C379A000000000000000000000000000000000000000000000000000000000 DUP2 MSTORE PUSH1 0x4 ADD PUSH2 0x954 SWAP1 PUSH2 0x19AC JUMP JUMPDEST PUSH1 0x40 MLOAD DUP1 SWAP2 SUB SWAP1 REVERT JUMPDEST CALLER PUSH1 0x0 PUSH1 0x4 SLOAD DUP2 SLOAD DUP2 LT PUSH2 0x974 JUMPI PUSH2 0x973 PUSH2 0x1E66 JUMP JUMPDEST JUMPDEST SWAP1 PUSH1 0x0 MSTORE PUSH1 0x20 PUSH1 0x0 KECCAK256 ADD PUSH1 0x0 PUSH2 0x100 EXP DUP2 SLOAD DUP2 PUSH20 0xFFFFFFFFFFFFFFFFFFFFFFFFFFFFFFFFFFFFFFFF MUL NOT AND SWAP1 DUP4 PUSH20 0xFFFFFFFFFFFFFFFFFFFFFFFFFFFFFFFFFFFFFFFF AND MUL OR SWAP1 SSTORE POP PUSH1 0x1 PUSH1 0x4 SLOAD PUSH2 0x9CB SWAP2 SWAP1 PUSH2 0x1B81 JUMP JUMPDEST PUSH1 0x4 DUP2 SWAP1 SSTORE POP PUSH1 0x1 PUSH1 0x4 SLOAD PUSH2 0x9E0 SWAP2 SWAP1 PUSH2 0x1BD7 JUMP JUMPDEST SWAP1 POP SWAP1 JUMP JUMPDEST PUSH1 0x1 ISZERO ISZERO PUSH1 0x2 DUP4 DUP2 SLOAD DUP2 LT PUSH2 0x9FD JUMPI PUSH2 0x9FC PUSH2 0x1E66 JUMP JUMPDEST JUMPDEST SWAP1 PUSH1 0x0 MSTORE PUSH1 0x20 PUSH1 0x0 KECCAK256 SWAP1 PUSH1 0x46 MUL ADD PUSH1 0x2 ADD PUSH1 0x0 CALLER PUSH20 0xFFFFFFFFFFFFFFFFFFFFFFFFFFFFFFFFFFFFFFFF AND PUSH20 0xFFFFFFFFFFFFFFFFFFFFFFFFFFFFFFFFFFFFFFFF AND DUP2 MSTORE PUSH1 0x20 ADD SWAP1 DUP2 MSTORE PUSH1 0x20 ADD PUSH1 0x0 KECCAK256 PUSH1 0x0 SWAP1 SLOAD SWAP1 PUSH2 0x100 EXP SWAP1 DIV PUSH1 0xFF AND ISZERO ISZERO EQ PUSH2 0xA9B JUMPI PUSH1 0x40 MLOAD PUSH32 0x8C379A000000000000000000000000000000000000000000000000000000000 DUP2 MSTORE PUSH1 0x4 ADD PUSH2 0xA92 SWAP1 PUSH2 0x1A0C JUMP JUMPDEST PUSH1 0x40 MLOAD DUP1 SWAP2 SUB SWAP1 REVERT JUMPDEST PUSH1 0x2 DUP3 DUP2 SLOAD DUP2 LT PUSH2 0xAAF JUMPI PUSH2 0xAAE PUSH2 0x1E66 JUMP JUMPDEST JUMPDEST SWAP1 PUSH1 0x0 MSTORE PUSH1 0x20 PUSH1 0x0 KECCAK256 SWAP1 PUSH1 0x46 MUL ADD PUSH1 0x45 ADD SLOAD NUMBER LT PUSH2 0xB02 JUMPI PUSH1 0x40 MLOAD PUSH32 0x8C379A000000000000000000000000000000000000000000000000000000000 DUP2 MSTORE PUSH1 0x4 ADD PUSH2 0xAF9 SWAP1 PUSH2 0x198C JUMP JUMPDEST PUSH1 0x40 MLOAD DUP1 SWAP2 SUB SWAP1 REVERT JUMPDEST DUP1 ISZERO PUSH2 0xC04 JUMPI CALLER PUSH1 0x2 DUP4 DUP2 SLOAD DUP2 LT PUSH2 0xB1D JUMPI PUSH2 0xB1C PUSH2 0x1E66 JUMP JUMPDEST JUMPDEST SWAP1 PUSH1 0x0 MSTORE PUSH1 0x20 PUSH1 0x0 KECCAK256 SWAP1 PUSH1 0x46 MUL ADD PUSH1 0x17 ADD PUSH1 0x2 DUP5 DUP2 SLOAD DUP2 LT PUSH2 0xB42 JUMPI PUSH2 0xB41 PUSH2 0x1E66 JUMP JUMPDEST JUMPDEST SWAP1 PUSH1 0x0 MSTORE PUSH1 0x20 PUSH1 0x0 KECCAK256 SWAP1 PUSH1 0x46 MUL ADD PUSH1 0x43 ADD SLOAD PUSH1 0x14 DUP2 LT PUSH2 0xB65 JUMPI PUSH2 0xB64 PUSH2 0x1E66 JUMP JUMPDEST JUMPDEST ADD PUSH1 0x0 PUSH2 0x100 EXP DUP2 SLOAD DUP2 PUSH20 0xFFFFFFFFFFFFFFFFFFFFFFFFFFFFFFFFFFFFFFFF MUL NOT AND SWAP1 DUP4 PUSH20 0xFFFFFFFFFFFFFFFFFFFFFFFFFFFFFFFFFFFFFFFF AND MUL OR SWAP1 SSTORE POP PUSH1 0x1 PUSH1 0x2 DUP4 DUP2 SLOAD DUP2 LT PUSH2 0xBBA JUMPI PUSH2 0xBB9 PUSH2 0x1E66 JUMP JUMPDEST JUMPDEST SWAP1 PUSH1 0x0 MSTORE PUSH1 0x20 PUSH1 0x0 KECCAK256 SWAP1 PUSH1 0x46 MUL ADD PUSH1 0x43 ADD SLOAD PUSH2 0xBD6 SWAP2 SWAP1 PUSH2 0x1B81 JUMP JUMPDEST PUSH1 0x2 DUP4 DUP2 SLOAD DUP2 LT PUSH2 0xBEA JUMPI PUSH2 0xBE9 PUSH2 0x1E66 JUMP JUMPDEST JUMPDEST SWAP1 PUSH1 0x0 MSTORE PUSH1 0x20 PUSH1 0x0 KECCAK256 SWAP1 PUSH1 0x46 MUL ADD PUSH1 0x43 ADD DUP2 SWAP1 SSTORE POP PUSH2 0xCFC JUMP JUMPDEST CALLER PUSH1 0x2 DUP4 DUP2 SLOAD DUP2 LT PUSH2 0xC19 JUMPI PUSH2 0xC18 PUSH2 0x1E66 JUMP JUMPDEST JUMPDEST SWAP1 PUSH1 0x0 MSTORE PUSH1 0x20 PUSH1 0x0 KECCAK256 SWAP1 PUSH1 0x46 MUL ADD PUSH1 0x2B ADD PUSH1 0x2 DUP5 DUP2 SLOAD DUP2 LT PUSH2 0xC3E JUMPI PUSH2 0xC3D PUSH2 0x1E66 JUMP JUMPDEST JUMPDEST SWAP1 PUSH1 0x0 MSTORE PUSH1 0x20 PUSH1 0x0 KECCAK256 SWAP1 PUSH1 0x46 MUL ADD PUSH1 0x44 ADD SLOAD PUSH1 0x14 DUP2 LT PUSH2 0xC61 JUMPI PUSH2 0xC60 PUSH2 0x1E66 JUMP JUMPDEST JUMPDEST ADD PUSH1 0x0 PUSH2 0x100 EXP DUP2 SLOAD DUP2 PUSH20 0xFFFFFFFFFFFFFFFFFFFFFFFFFFFFFFFFFFFFFFFF MUL NOT AND SWAP1 DUP4 PUSH20 0xFFFFFFFFFFFFFFFFFFFFFFFFFFFFFFFFFFFFFFFF AND MUL OR SWAP1 SSTORE POP PUSH1 0x1 PUSH1 0x2 DUP4 DUP2 SLOAD DUP2 LT PUSH2 0xCB6 JUMPI PUSH2 0xCB5 PUSH2 0x1E66 JUMP JUMPDEST JUMPDEST SWAP1 PUSH1 0x0 MSTORE PUSH1 0x20 PUSH1 0x0 KECCAK256 SWAP1 PUSH1 0x46 MUL ADD PUSH1 0x44 ADD SLOAD PUSH2 0xCD2 SWAP2 SWAP1 PUSH2 0x1B81 JUMP JUMPDEST PUSH1 0x2 DUP4 DUP2 SLOAD DUP2 LT PUSH2 0xCE6 JUMPI PUSH2 0xCE5 PUSH2 0x1E66 JUMP JUMPDEST JUMPDEST SWAP1 PUSH1 0x0 MSTORE PUSH1 0x20 PUSH1 0x0 KECCAK256 SWAP1 PUSH1 0x46 MUL ADD PUSH1 0x44 ADD DUP2 SWAP1 SSTORE POP JUMPDEST CALLER PUSH20 0xFFFFFFFFFFFFFFFFFFFFFFFFFFFFFFFFFFFFFFFF AND PUSH2 0x8FC PUSH1 0x2 DUP5 DUP2 SLOAD DUP2 LT PUSH2 0xD2A JUMPI PUSH2 0xD29 PUSH2 0x1E66 JUMP JUMPDEST JUMPDEST SWAP1 PUSH1 0x0 MSTORE PUSH1 0x20 PUSH1 0x0 KECCAK256 SWAP1 PUSH1 0x46 MUL ADD PUSH1 0x41 ADD SLOAD PUSH8 0xDE0B6B3A7640000 PUSH2 0xD4F SWAP2 SWAP1 PUSH2 0x1B81 JUMP JUMPDEST SWAP1 DUP2 ISZERO MUL SWAP1 PUSH1 0x40 MLOAD PUSH1 0x0 PUSH1 0x40 MLOAD DUP1 DUP4 SUB DUP2 DUP6 DUP9 DUP9 CALL SWAP4 POP POP POP POP ISZERO DUP1 ISZERO PUSH2 0xD7A JUMPI RETURNDATASIZE PUSH1 0x0 DUP1 RETURNDATACOPY RETURNDATASIZE PUSH1 0x0 REVERT JUMPDEST POP PUSH1 0x0 PUSH1 0x2 DUP4 DUP2 SLOAD DUP2 LT PUSH2 0xD91 JUMPI PUSH2 0xD90 PUSH2 0x1E66 JUMP JUMPDEST JUMPDEST SWAP1 PUSH1 0x0 MSTORE PUSH1 0x20 PUSH1 0x0 KECCAK256 SWAP1 PUSH1 0x46 MUL ADD PUSH1 0x2 ADD PUSH1 0x0 CALLER PUSH20 0xFFFFFFFFFFFFFFFFFFFFFFFFFFFFFFFFFFFFFFFF AND PUSH20 0xFFFFFFFFFFFFFFFFFFFFFFFFFFFFFFFFFFFFFFFF AND DUP2 MSTORE PUSH1 0x20 ADD SWAP1 DUP2 MSTORE PUSH1 0x20 ADD PUSH1 0x0 KECCAK256 PUSH1 0x0 PUSH2 0x100 EXP DUP2 SLOAD DUP2 PUSH1 0xFF MUL NOT AND SWAP1 DUP4 ISZERO ISZERO MUL OR SWAP1 SSTORE POP POP POP JUMP JUMPDEST POP POP JUMP JUMPDEST CALLER PUSH20 0xFFFFFFFFFFFFFFFFFFFFFFFFFFFFFFFFFFFFFFFF AND PUSH1 0x0 DUP3 DUP2 SLOAD DUP2 LT PUSH2 0xE29 JUMPI PUSH2 0xE28 PUSH2 0x1E66 JUMP JUMPDEST JUMPDEST SWAP1 PUSH1 0x0 MSTORE PUSH1 0x20 PUSH1 0x0 KECCAK256 ADD PUSH1 0x0 SWAP1 SLOAD SWAP1 PUSH2 0x100 EXP SWAP1 DIV PUSH20 0xFFFFFFFFFFFFFFFFFFFFFFFFFFFFFFFFFFFFFFFF AND PUSH20 0xFFFFFFFFFFFFFFFFFFFFFFFFFFFFFFFFFFFFFFFF AND EQ PUSH2 0xEAA JUMPI PUSH1 0x40 MLOAD PUSH32 0x8C379A000000000000000000000000000000000000000000000000000000000 DUP2 MSTORE PUSH1 0x4 ADD PUSH2 0xEA1 SWAP1 PUSH2 0x1A2C JUMP JUMPDEST PUSH1 0x40 MLOAD DUP1 SWAP2 SUB SWAP1 REVERT JUMPDEST PUSH1 0x1 ISZERO ISZERO PUSH1 0x1 PUSH1 0x0 CALLER PUSH20 0xFFFFFFFFFFFFFFFFFFFFFFFFFFFFFFFFFFFFFFFF AND PUSH20 0xFFFFFFFFFFFFFFFFFFFFFFFFFFFFFFFFFFFFFFFF AND DUP2 MSTORE PUSH1 0x20 ADD SWAP1 DUP2 MSTORE PUSH1 0x20 ADD PUSH1 0x0 KECCAK256 PUSH1 0x0 SWAP1 SLOAD SWAP1 PUSH2 0x100 EXP SWAP1 DIV PUSH1 0xFF AND ISZERO ISZERO EQ PUSH2 0xF3D JUMPI PUSH1 0x40 MLOAD PUSH32 0x8C379A000000000000000000000000000000000000000000000000000000000 DUP2 MSTORE PUSH1 0x4 ADD PUSH2 0xF34 SWAP1 PUSH2 0x19EC JUMP JUMPDEST PUSH1 0x40 MLOAD DUP1 SWAP2 SUB SWAP1 REVERT JUMPDEST PUSH1 0x0 PUSH1 0x1 PUSH1 0x0 CALLER PUSH20 0xFFFFFFFFFFFFFFFFFFFFFFFFFFFFFFFFFFFFFFFF AND PUSH20 0xFFFFFFFFFFFFFFFFFFFFFFFFFFFFFFFFFFFFFFFF AND DUP2 MSTORE PUSH1 0x20 ADD SWAP1 DUP2 MSTORE PUSH1 0x20 ADD PUSH1 0x0 KECCAK256 PUSH1 0x0 PUSH2 0x100 EXP DUP2 SLOAD DUP2 PUSH1 0xFF MUL NOT AND SWAP1 DUP4 ISZERO ISZERO MUL OR SWAP1 SSTORE POP PUSH1 0x0 DUP1 DUP3 DUP2 SLOAD DUP2 LT PUSH2 0xFAA JUMPI PUSH2 0xFA9 PUSH2 0x1E66 JUMP JUMPDEST JUMPDEST SWAP1 PUSH1 0x0 MSTORE PUSH1 0x20 PUSH1 0x0 KECCAK256 ADD PUSH1 0x0 PUSH2 0x100 EXP DUP2 SLOAD DUP2 PUSH20 0xFFFFFFFFFFFFFFFFFFFFFFFFFFFFFFFFFFFFFFFF MUL NOT AND SWAP1 DUP4 PUSH20 0xFFFFFFFFFFFFFFFFFFFFFFFFFFFFFFFFFFFFFFFF AND MUL OR SWAP1 SSTORE POP CALLER PUSH20 0xFFFFFFFFFFFFFFFFFFFFFFFFFFFFFFFFFFFFFFFF AND PUSH2 0x8FC PUSH8 0xDE0B6B3A7640000 SWAP1 DUP2 ISZERO MUL SWAP1 PUSH1 0x40 MLOAD PUSH1 0x0 PUSH1 0x40 MLOAD DUP1 DUP4 SUB DUP2 DUP6 DUP9 DUP9 CALL SWAP4 POP POP POP POP ISZERO DUP1 ISZERO PUSH2 0x1040 JUMPI RETURNDATASIZE PUSH1 0x0 DUP1 RETURNDATACOPY RETURNDATASIZE PUSH1 0x0 REVERT JUMPDEST POP POP JUMP JUMPDEST PUSH1 0x0 JUMPDEST PUSH1 0x14 DUP2 LT ISZERO PUSH2 0x12F3 JUMPI PUSH1 0x0 DUP1 DUP1 SLOAD SWAP1 POP PUSH1 0x2 PUSH1 0x0 DUP1 SLOAD SWAP1 POP PUSH1 0x40 MLOAD PUSH1 0x20 ADD PUSH2 0x106F SWAP2 SWAP1 PUSH2 0x1903 JUMP JUMPDEST PUSH1 0x40 MLOAD PUSH1 0x20 DUP2 DUP4 SUB SUB DUP2 MSTORE SWAP1 PUSH1 0x40 MSTORE PUSH1 0x40 MLOAD PUSH2 0x108B SWAP2 SWAP1 PUSH2 0x18D5 JUMP JUMPDEST PUSH1 0x20 PUSH1 0x40 MLOAD DUP1 DUP4 SUB DUP2 DUP6 GAS STATICCALL ISZERO DUP1 ISZERO PUSH2 0x10A8 JUMPI RETURNDATASIZE PUSH1 0x0 DUP1 RETURNDATACOPY RETURNDATASIZE PUSH1 0x0 REVERT JUMPDEST POP POP POP PUSH1 0x40 MLOAD RETURNDATASIZE PUSH1 0x1F NOT PUSH1 0x1F DUP3 ADD AND DUP3 ADD DUP1 PUSH1 0x40 MSTORE POP DUP2 ADD SWAP1 PUSH2 0x10CB SWAP2 SWAP1 PUSH2 0x15ED JUMP JUMPDEST PUSH1 0x0 SHR PUSH2 0x10D8 SWAP2 SWAP1 PUSH2 0x1D79 JUMP JUMPDEST SWAP1 POP PUSH1 0x0 DUP1 DUP3 DUP2 SLOAD DUP2 LT PUSH2 0x10EF JUMPI PUSH2 0x10EE PUSH2 0x1E66 JUMP JUMPDEST JUMPDEST SWAP1 PUSH1 0x0 MSTORE PUSH1 0x20 PUSH1 0x0 KECCAK256 ADD PUSH1 0x0 SWAP1 SLOAD SWAP1 PUSH2 0x100 EXP SWAP1 DIV PUSH20 0xFFFFFFFFFFFFFFFFFFFFFFFFFFFFFFFFFFFFFFFF AND SWAP1 POP PUSH1 0x0 PUSH1 0x1 PUSH1 0x0 DUP4 PUSH20 0xFFFFFFFFFFFFFFFFFFFFFFFFFFFFFFFFFFFFFFFF AND PUSH20 0xFFFFFFFFFFFFFFFFFFFFFFFFFFFFFFFFFFFFFFFF AND DUP2 MSTORE PUSH1 0x20 ADD SWAP1 DUP2 MSTORE PUSH1 0x20 ADD PUSH1 0x0 KECCAK256 PUSH1 0x0 PUSH2 0x100 EXP DUP2 SLOAD DUP2 PUSH1 0xFF MUL NOT AND SWAP1 DUP4 ISZERO ISZERO MUL OR SWAP1 SSTORE POP PUSH1 0x0 PUSH1 0x1 PUSH1 0x0 DUP1 SLOAD SWAP1 POP PUSH2 0x1188 SWAP2 SWAP1 PUSH2 0x1BD7 JUMP JUMPDEST DUP2 SLOAD DUP2 LT PUSH2 0x1199 JUMPI PUSH2 0x1198 PUSH2 0x1E66 JUMP JUMPDEST JUMPDEST SWAP1 PUSH1 0x0 MSTORE PUSH1 0x20 PUSH1 0x0 KECCAK256 ADD PUSH1 0x0 SWAP1 SLOAD SWAP1 PUSH2 0x100 EXP SWAP1 DIV PUSH20 0xFFFFFFFFFFFFFFFFFFFFFFFFFFFFFFFFFFFFFFFF AND PUSH1 0x0 DUP4 DUP2 SLOAD DUP2 LT PUSH2 0x11D8 JUMPI PUSH2 0x11D7 PUSH2 0x1E66 JUMP JUMPDEST JUMPDEST SWAP1 PUSH1 0x0 MSTORE PUSH1 0x20 PUSH1 0x0 KECCAK256 ADD PUSH1 0x0 PUSH2 0x100 EXP DUP2 SLOAD DUP2 PUSH20 0xFFFFFFFFFFFFFFFFFFFFFFFFFFFFFFFFFFFFFFFF MUL NOT AND SWAP1 DUP4 PUSH20 0xFFFFFFFFFFFFFFFFFFFFFFFFFFFFFFFFFFFFFFFF AND MUL OR SWAP1 SSTORE POP PUSH1 0x0 DUP1 SLOAD DUP1 PUSH2 0x1232 JUMPI PUSH2 0x1231 PUSH2 0x1E37 JUMP JUMPDEST JUMPDEST PUSH1 0x1 SWAP1 SUB DUP2 DUP2 SWAP1 PUSH1 0x0 MSTORE PUSH1 0x20 PUSH1 0x0 KECCAK256 ADD PUSH1 0x0 PUSH2 0x100 EXP DUP2 SLOAD SWAP1 PUSH20 0xFFFFFFFFFFFFFFFFFFFFFFFFFFFFFFFFFFFFFFFF MUL NOT AND SWAP1 SSTORE SWAP1 SSTORE DUP1 PUSH1 0x2 DUP6 DUP2 SLOAD DUP2 LT PUSH2 0x127C JUMPI PUSH2 0x127B PUSH2 0x1E66 JUMP JUMPDEST JUMPDEST SWAP1 PUSH1 0x0 MSTORE PUSH1 0x20 PUSH1 0x0 KECCAK256 SWAP1 PUSH1 0x46 MUL ADD PUSH1 0x3 ADD DUP5 PUSH1 0x14 DUP2 LT PUSH2 0x129F JUMPI PUSH2 0x129E PUSH2 0x1E66 JUMP JUMPDEST JUMPDEST ADD PUSH1 0x0 PUSH2 0x100 EXP DUP2 SLOAD DUP2 PUSH20 0xFFFFFFFFFFFFFFFFFFFFFFFFFFFFFFFFFFFFFFFF MUL NOT AND SWAP1 DUP4 PUSH20 0xFFFFFFFFFFFFFFFFFFFFFFFFFFFFFFFFFFFFFFFF AND MUL OR SWAP1 SSTORE POP POP POP DUP1 DUP1 PUSH2 0x12EB SWAP1 PUSH2 0x1D02 JUMP JUMPDEST SWAP2 POP POP PUSH2 0x1047 JUMP JUMPDEST POP POP JUMP JUMPDEST DUP3 DUP1 SLOAD PUSH2 0x1303 SWAP1 PUSH2 0x1C9F JUMP JUMPDEST SWAP1 PUSH1 0x0 MSTORE PUSH1 0x20 PUSH1 0x0 KECCAK256 SWAP1 PUSH1 0x1F ADD PUSH1 0x20 SWAP1 DIV DUP2 ADD SWAP3 DUP3 PUSH2 0x1325 JUMPI PUSH1 0x0 DUP6 SSTORE PUSH2 0x136C JUMP JUMPDEST DUP3 PUSH1 0x1F LT PUSH2 0x133E JUMPI DUP1 MLOAD PUSH1 0xFF NOT AND DUP4 DUP1 ADD OR DUP6 SSTORE PUSH2 0x136C JUMP JUMPDEST DUP3 DUP1 ADD PUSH1 0x1 ADD DUP6 SSTORE DUP3 ISZERO PUSH2 0x136C JUMPI SWAP2 DUP3 ADD JUMPDEST DUP3 DUP2 GT ISZERO PUSH2 0x136B JUMPI DUP3 MLOAD DUP3 SSTORE SWAP2 PUSH1 0x20 ADD SWAP2 SWAP1 PUSH1 0x1 ADD SWAP1 PUSH2 0x1350 JUMP JUMPDEST JUMPDEST POP SWAP1 POP PUSH2 0x1379 SWAP2 SWAP1 PUSH2 0x137D JUMP JUMPDEST POP SWAP1 JUMP JUMPDEST JUMPDEST DUP1 DUP3 GT ISZERO PUSH2 0x1396 JUMPI PUSH1 0x0 DUP2 PUSH1 0x0 SWAP1 SSTORE POP PUSH1 0x1 ADD PUSH2 0x137E JUMP JUMPDEST POP SWAP1 JUMP JUMPDEST PUSH1 0x0 PUSH2 0x13AD PUSH2 0x13A8 DUP5 PUSH2 0x1AAC JUMP JUMPDEST PUSH2 0x1A87 JUMP JUMPDEST SWAP1 POP DUP1 DUP4 DUP3 MSTORE PUSH1 0x20 DUP3 ADD SWAP1 POP DUP3 DUP6 PUSH1 0x20 DUP7 MUL DUP3 ADD GT ISZERO PUSH2 0x13D0 JUMPI PUSH2 0x13CF PUSH2 0x1EC9 JUMP JUMPDEST JUMPDEST PUSH1 0x0 JUMPDEST DUP6 DUP2 LT ISZERO PUSH2 0x141E JUMPI DUP2 CALLDATALOAD PUSH8 0xFFFFFFFFFFFFFFFF DUP2 GT ISZERO PUSH2 0x13F6 JUMPI PUSH2 0x13F5 PUSH2 0x1EC4 JUMP JUMPDEST JUMPDEST DUP1 DUP7 ADD PUSH2 0x1403 DUP10 DUP3 PUSH2 0x1504 JUMP JUMPDEST DUP6 MSTORE PUSH1 0x20 DUP6 ADD SWAP5 POP PUSH1 0x20 DUP5 ADD SWAP4 POP POP POP PUSH1 0x1 DUP2 ADD SWAP1 POP PUSH2 0x13D3 JUMP JUMPDEST POP POP POP SWAP4 SWAP3 POP POP POP JUMP JUMPDEST PUSH1 0x0 PUSH2 0x143B PUSH2 0x1436 DUP5 PUSH2 0x1AD8 JUMP JUMPDEST PUSH2 0x1A87 JUMP JUMPDEST SWAP1 POP DUP3 DUP2 MSTORE PUSH1 0x20 DUP2 ADD DUP5 DUP5 DUP5 ADD GT ISZERO PUSH2 0x1457 JUMPI PUSH2 0x1456 PUSH2 0x1ECE JUMP JUMPDEST JUMPDEST PUSH2 0x1462 DUP5 DUP3 DUP6 PUSH2 0x1C5D JUMP JUMPDEST POP SWAP4 SWAP3 POP POP POP JUMP JUMPDEST PUSH1 0x0 PUSH2 0x147D PUSH2 0x1478 DUP5 PUSH2 0x1B09 JUMP JUMPDEST PUSH2 0x1A87 JUMP JUMPDEST SWAP1 POP DUP3 DUP2 MSTORE PUSH1 0x20 DUP2 ADD DUP5 DUP5 DUP5 ADD GT ISZERO PUSH2 0x1499 JUMPI PUSH2 0x1498 PUSH2 0x1ECE JUMP JUMPDEST JUMPDEST PUSH2 0x14A4 DUP5 DUP3 DUP6 PUSH2 0x1C5D JUMP JUMPDEST POP SWAP4 SWAP3 POP POP POP JUMP JUMPDEST PUSH1 0x0 DUP3 PUSH1 0x1F DUP4 ADD SLT PUSH2 0x14C1 JUMPI PUSH2 0x14C0 PUSH2 0x1EC4 JUMP JUMPDEST JUMPDEST DUP2 CALLDATALOAD PUSH2 0x14D1 DUP5 DUP3 PUSH1 0x20 DUP7 ADD PUSH2 0x139A JUMP JUMPDEST SWAP2 POP POP SWAP3 SWAP2 POP POP JUMP JUMPDEST PUSH1 0x0 DUP2 CALLDATALOAD SWAP1 POP PUSH2 0x14E9 DUP2 PUSH2 0x20B5 JUMP JUMPDEST SWAP3 SWAP2 POP POP JUMP JUMPDEST PUSH1 0x0 DUP2 MLOAD SWAP1 POP PUSH2 0x14FE DUP2 PUSH2 0x20CC JUMP JUMPDEST SWAP3 SWAP2 POP POP JUMP JUMPDEST PUSH1 0x0 DUP3 PUSH1 0x1F DUP4 ADD SLT PUSH2 0x1519 JUMPI PUSH2 0x1518 PUSH2 0x1EC4 JUMP JUMPDEST JUMPDEST DUP2 CALLDATALOAD PUSH2 0x1529 DUP5 DUP3 PUSH1 0x20 DUP7 ADD PUSH2 0x1428 JUMP JUMPDEST SWAP2 POP POP SWAP3 SWAP2 POP POP JUMP JUMPDEST PUSH1 0x0 DUP3 PUSH1 0x1F DUP4 ADD SLT PUSH2 0x1547 JUMPI PUSH2 0x1546 PUSH2 0x1EC4 JUMP JUMPDEST JUMPDEST DUP2 CALLDATALOAD PUSH2 0x1557 DUP5 DUP3 PUSH1 0x20 DUP7 ADD PUSH2 0x146A JUMP JUMPDEST SWAP2 POP POP SWAP3 SWAP2 POP POP JUMP JUMPDEST PUSH1 0x0 DUP2 CALLDATALOAD SWAP1 POP PUSH2 0x156F DUP2 PUSH2 0x20E3 JUMP JUMPDEST SWAP3 SWAP2 POP POP JUMP JUMPDEST PUSH1 0x0 DUP1 PUSH1 0x40 DUP4 DUP6 SUB SLT ISZERO PUSH2 0x158C JUMPI PUSH2 0x158B PUSH2 0x1ED8 JUMP JUMPDEST JUMPDEST PUSH1 0x0 DUP4 ADD CALLDATALOAD PUSH8 0xFFFFFFFFFFFFFFFF DUP2 GT ISZERO PUSH2 0x15AA JUMPI PUSH2 0x15A9 PUSH2 0x1ED3 JUMP JUMPDEST JUMPDEST PUSH2 0x15B6 DUP6 DUP3 DUP7 ADD PUSH2 0x14AC JUMP JUMPDEST SWAP3 POP POP PUSH1 0x20 DUP4 ADD CALLDATALOAD PUSH8 0xFFFFFFFFFFFFFFFF DUP2 GT ISZERO PUSH2 0x15D7 JUMPI PUSH2 0x15D6 PUSH2 0x1ED3 JUMP JUMPDEST JUMPDEST PUSH2 0x15E3 DUP6 DUP3 DUP7 ADD PUSH2 0x1532 JUMP JUMPDEST SWAP2 POP POP SWAP3 POP SWAP3 SWAP1 POP JUMP JUMPDEST PUSH1 0x0 PUSH1 0x20 DUP3 DUP5 SUB SLT ISZERO PUSH2 0x1603 JUMPI PUSH2 0x1602 PUSH2 0x1ED8 JUMP JUMPDEST JUMPDEST PUSH1 0x0 PUSH2 0x1611 DUP5 DUP3 DUP6 ADD PUSH2 0x14EF JUMP JUMPDEST SWAP2 POP POP SWAP3 SWAP2 POP POP JUMP JUMPDEST PUSH1 0x0 PUSH1 0x20 DUP3 DUP5 SUB SLT ISZERO PUSH2 0x1630 JUMPI PUSH2 0x162F PUSH2 0x1ED8 JUMP JUMPDEST JUMPDEST PUSH1 0x0 DUP3 ADD CALLDATALOAD PUSH8 0xFFFFFFFFFFFFFFFF DUP2 GT ISZERO PUSH2 0x164E JUMPI PUSH2 0x164D PUSH2 0x1ED3 JUMP JUMPDEST JUMPDEST PUSH2 0x165A DUP5 DUP3 DUP6 ADD PUSH2 0x1532 JUMP JUMPDEST SWAP2 POP POP SWAP3 SWAP2 POP POP JUMP JUMPDEST PUSH1 0x0 PUSH1 0x20 DUP3 DUP5 SUB SLT ISZERO PUSH2 0x1679 JUMPI PUSH2 0x1678 PUSH2 0x1ED8 JUMP JUMPDEST JUMPDEST PUSH1 0x0 PUSH2 0x1687 DUP5 DUP3 DUP6 ADD PUSH2 0x1560 JUMP JUMPDEST SWAP2 POP POP SWAP3 SWAP2 POP POP JUMP JUMPDEST PUSH1 0x0 DUP1 PUSH1 0x40 DUP4 DUP6 SUB SLT ISZERO PUSH2 0x16A7 JUMPI PUSH2 0x16A6 PUSH2 0x1ED8 JUMP JUMPDEST JUMPDEST PUSH1 0x0 PUSH2 0x16B5 DUP6 DUP3 DUP7 ADD PUSH2 0x1560 JUMP JUMPDEST SWAP3 POP POP PUSH1 0x20 PUSH2 0x16C6 DUP6 DUP3 DUP7 ADD PUSH2 0x14DA JUMP JUMPDEST SWAP2 POP POP SWAP3 POP SWAP3 SWAP1 POP JUMP JUMPDEST PUSH2 0x16E1 PUSH2 0x16DC DUP3 PUSH2 0x1C0B JUMP JUMPDEST PUSH2 0x1D4B JUMP JUMPDEST DUP3 MSTORE POP POP JUMP JUMPDEST PUSH1 0x0 PUSH2 0x16F2 DUP3 PUSH2 0x1B4F JUMP JUMPDEST PUSH2 0x16FC DUP2 DUP6 PUSH2 0x1B5A JUMP JUMPDEST SWAP4 POP PUSH2 0x170C DUP2 DUP6 PUSH1 0x20 DUP7 ADD PUSH2 0x1C6C JUMP JUMPDEST DUP1 DUP5 ADD SWAP2 POP POP SWAP3 SWAP2 POP POP JUMP JUMPDEST PUSH1 0x0 DUP2 SLOAD PUSH2 0x1725 DUP2 PUSH2 0x1C9F JUMP JUMPDEST PUSH2 0x172F DUP2 DUP7 PUSH2 0x1B76 JUMP JUMPDEST SWAP5 POP PUSH1 0x1 DUP3 AND PUSH1 0x0 DUP2 EQ PUSH2 0x174A JUMPI PUSH1 0x1 DUP2 EQ PUSH2 0x175B JUMPI PUSH2 0x178E JUMP JUMPDEST PUSH1 0xFF NOT DUP4 AND DUP7 MSTORE DUP2 DUP7 ADD SWAP4 POP PUSH2 0x178E JUMP JUMPDEST PUSH2 0x1764 DUP6 PUSH2 0x1B3A JUMP JUMPDEST PUSH1 0x0 JUMPDEST DUP4 DUP2 LT ISZERO PUSH2 0x1786 JUMPI DUP2 SLOAD DUP2 DUP10 ADD MSTORE PUSH1 0x1 DUP3 ADD SWAP2 POP PUSH1 0x20 DUP2 ADD SWAP1 POP PUSH2 0x1767 JUMP JUMPDEST DUP4 DUP9 ADD SWAP6 POP POP POP JUMPDEST POP POP POP SWAP3 SWAP2 POP POP JUMP JUMPDEST PUSH1 0x0 PUSH2 0x17A4 PUSH1 0x18 DUP4 PUSH2 0x1B65 JUMP JUMPDEST SWAP2 POP PUSH2 0x17AF DUP3 PUSH2 0x1EFB JUMP JUMPDEST PUSH1 0x20 DUP3 ADD SWAP1 POP SWAP2 SWAP1 POP JUMP JUMPDEST PUSH1 0x0 PUSH2 0x17C7 PUSH1 0x11 DUP4 PUSH2 0x1B65 JUMP JUMPDEST SWAP2 POP PUSH2 0x17D2 DUP3 PUSH2 0x1F24 JUMP JUMPDEST PUSH1 0x20 DUP3 ADD SWAP1 POP SWAP2 SWAP1 POP JUMP JUMPDEST PUSH1 0x0 PUSH2 0x17EA PUSH1 0x12 DUP4 PUSH2 0x1B65 JUMP JUMPDEST SWAP2 POP PUSH2 0x17F5 DUP3 PUSH2 0x1F4D JUMP JUMPDEST PUSH1 0x20 DUP3 ADD SWAP1 POP SWAP2 SWAP1 POP JUMP JUMPDEST PUSH1 0x0 PUSH2 0x180D PUSH1 0x28 DUP4 PUSH2 0x1B65 JUMP JUMPDEST SWAP2 POP PUSH2 0x1818 DUP3 PUSH2 0x1F76 JUMP JUMPDEST PUSH1 0x40 DUP3 ADD SWAP1 POP SWAP2 SWAP1 POP JUMP JUMPDEST PUSH1 0x0 PUSH2 0x1830 PUSH1 0xE DUP4 PUSH2 0x1B65 JUMP JUMPDEST SWAP2 POP PUSH2 0x183B DUP3 PUSH2 0x1FC5 JUMP JUMPDEST PUSH1 0x20 DUP3 ADD SWAP1 POP SWAP2 SWAP1 POP JUMP JUMPDEST PUSH1 0x0 PUSH2 0x1853 PUSH1 0x21 DUP4 PUSH2 0x1B65 JUMP JUMPDEST SWAP2 POP PUSH2 0x185E DUP3 PUSH2 0x1FEE JUMP JUMPDEST PUSH1 0x40 DUP3 ADD SWAP1 POP SWAP2 SWAP1 POP JUMP JUMPDEST PUSH1 0x0 PUSH2 0x1876 PUSH1 0x1E DUP4 PUSH2 0x1B65 JUMP JUMPDEST SWAP2 POP PUSH2 0x1881 DUP3 PUSH2 0x203D JUMP JUMPDEST PUSH1 0x20 DUP3 ADD SWAP1 POP SWAP2 SWAP1 POP JUMP JUMPDEST PUSH1 0x0 PUSH2 0x1899 PUSH1 0x28 DUP4 PUSH2 0x1B65 JUMP JUMPDEST SWAP2 POP PUSH2 0x18A4 DUP3 PUSH2 0x2066 JUMP JUMPDEST PUSH1 0x40 DUP3 ADD SWAP1 POP SWAP2 SWAP1 POP JUMP JUMPDEST PUSH2 0x18B8 DUP2 PUSH2 0x1C53 JUMP JUMPDEST DUP3 MSTORE POP POP JUMP JUMPDEST PUSH2 0x18CF PUSH2 0x18CA DUP3 PUSH2 0x1C53 JUMP JUMPDEST PUSH2 0x1D6F JUMP JUMPDEST DUP3 MSTORE POP POP JUMP JUMPDEST PUSH1 0x0 PUSH2 0x18E1 DUP3 DUP5 PUSH2 0x16E7 JUMP JUMPDEST SWAP2 POP DUP2 SWAP1 POP SWAP3 SWAP2 POP POP JUMP JUMPDEST PUSH1 0x0 PUSH2 0x18F8 DUP3 DUP5 PUSH2 0x1718 JUMP JUMPDEST SWAP2 POP DUP2 SWAP1 POP SWAP3 SWAP2 POP POP JUMP JUMPDEST PUSH1 0x0 PUSH2 0x190F DUP3 DUP5 PUSH2 0x18BE JUMP JUMPDEST PUSH1 0x20 DUP3 ADD SWAP2 POP DUP2 SWAP1 POP SWAP3 SWAP2 POP POP JUMP JUMPDEST PUSH1 0x0 PUSH2 0x192A DUP3 DUP8 PUSH2 0x18BE JUMP JUMPDEST PUSH1 0x20 DUP3 ADD SWAP2 POP PUSH2 0x193A DUP3 DUP7 PUSH2 0x18BE JUMP JUMPDEST PUSH1 0x20 DUP3 ADD SWAP2 POP PUSH2 0x194A DUP3 DUP6 PUSH2 0x16D0 JUMP JUMPDEST PUSH1 0x14 DUP3 ADD SWAP2 POP PUSH2 0x195A DUP3 DUP5 PUSH2 0x18BE JUMP JUMPDEST PUSH1 0x20 DUP3 ADD SWAP2 POP DUP2 SWAP1 POP SWAP6 SWAP5 POP POP POP POP POP JUMP JUMPDEST PUSH1 0x0 PUSH1 0x20 DUP3 ADD SWAP1 POP DUP2 DUP2 SUB PUSH1 0x0 DUP4 ADD MSTORE PUSH2 0x1985 DUP2 PUSH2 0x1797 JUMP JUMPDEST SWAP1 POP SWAP2 SWAP1 POP JUMP JUMPDEST PUSH1 0x0 PUSH1 0x20 DUP3 ADD SWAP1 POP DUP2 DUP2 SUB PUSH1 0x0 DUP4 ADD MSTORE PUSH2 0x19A5 DUP2 PUSH2 0x17BA JUMP JUMPDEST SWAP1 POP SWAP2 SWAP1 POP JUMP JUMPDEST PUSH1 0x0 PUSH1 0x20 DUP3 ADD SWAP1 POP DUP2 DUP2 SUB PUSH1 0x0 DUP4 ADD MSTORE PUSH2 0x19C5 DUP2 PUSH2 0x17DD JUMP JUMPDEST SWAP1 POP SWAP2 SWAP1 POP JUMP JUMPDEST PUSH1 0x0 PUSH1 0x20 DUP3 ADD SWAP1 POP DUP2 DUP2 SUB PUSH1 0x0 DUP4 ADD MSTORE PUSH2 0x19E5 DUP2 PUSH2 0x1800 JUMP JUMPDEST SWAP1 POP SWAP2 SWAP1 POP JUMP JUMPDEST PUSH1 0x0 PUSH1 0x20 DUP3 ADD SWAP1 POP DUP2 DUP2 SUB PUSH1 0x0 DUP4 ADD MSTORE PUSH2 0x1A05 DUP2 PUSH2 0x1823 JUMP JUMPDEST SWAP1 POP SWAP2 SWAP1 POP JUMP JUMPDEST PUSH1 0x0 PUSH1 0x20 DUP3 ADD SWAP1 POP DUP2 DUP2 SUB PUSH1 0x0 DUP4 ADD MSTORE PUSH2 0x1A25 DUP2 PUSH2 0x1846 JUMP JUMPDEST SWAP1 POP SWAP2 SWAP1 POP JUMP JUMPDEST PUSH1 0x0 PUSH1 0x20 DUP3 ADD SWAP1 POP DUP2 DUP2 SUB PUSH1 0x0 DUP4 ADD MSTORE PUSH2 0x1A45 DUP2 PUSH2 0x1869 JUMP JUMPDEST SWAP1 POP SWAP2 SWAP1 POP JUMP JUMPDEST PUSH1 0x0 PUSH1 0x20 DUP3 ADD SWAP1 POP DUP2 DUP2 SUB PUSH1 0x0 DUP4 ADD MSTORE PUSH2 0x1A65 DUP2 PUSH2 0x188C JUMP JUMPDEST SWAP1 POP SWAP2 SWAP1 POP JUMP JUMPDEST PUSH1 0x0 PUSH1 0x20 DUP3 ADD SWAP1 POP PUSH2 0x1A81 PUSH1 0x0 DUP4 ADD DUP5 PUSH2 0x18AF JUMP JUMPDEST SWAP3 SWAP2 POP POP JUMP JUMPDEST PUSH1 0x0 PUSH2 0x1A91 PUSH2 0x1AA2 JUMP JUMPDEST SWAP1 POP PUSH2 0x1A9D DUP3 DUP3 PUSH2 0x1CD1 JUMP JUMPDEST SWAP2 SWAP1 POP JUMP JUMPDEST PUSH1 0x0 PUSH1 0x40 MLOAD SWAP1 POP SWAP1 JUMP JUMPDEST PUSH1 0x0 PUSH8 0xFFFFFFFFFFFFFFFF DUP3 GT ISZERO PUSH2 0x1AC7 JUMPI PUSH2 0x1AC6 PUSH2 0x1E95 JUMP JUMPDEST JUMPDEST PUSH1 0x20 DUP3 MUL SWAP1 POP PUSH1 0x20 DUP2 ADD SWAP1 POP SWAP2 SWAP1 POP JUMP JUMPDEST PUSH1 0x0 PUSH8 0xFFFFFFFFFFFFFFFF DUP3 GT ISZERO PUSH2 0x1AF3 JUMPI PUSH2 0x1AF2 PUSH2 0x1E95 JUMP JUMPDEST JUMPDEST PUSH2 0x1AFC DUP3 PUSH2 0x1EDD JUMP JUMPDEST SWAP1 POP PUSH1 0x20 DUP2 ADD SWAP1 POP SWAP2 SWAP1 POP JUMP JUMPDEST PUSH1 0x0 PUSH8 0xFFFFFFFFFFFFFFFF DUP3 GT ISZERO PUSH2 0x1B24 JUMPI PUSH2 0x1B23 PUSH2 0x1E95 JUMP JUMPDEST JUMPDEST PUSH2 0x1B2D DUP3 PUSH2 0x1EDD JUMP JUMPDEST SWAP1 POP PUSH1 0x20 DUP2 ADD SWAP1 POP SWAP2 SWAP1 POP JUMP JUMPDEST PUSH1 0x0 DUP2 SWAP1 POP DUP2 PUSH1 0x0 MSTORE PUSH1 0x20 PUSH1 0x0 KECCAK256 SWAP1 POP SWAP2 SWAP1 POP JUMP JUMPDEST PUSH1 0x0 DUP2 MLOAD SWAP1 POP SWAP2 SWAP1 POP JUMP JUMPDEST PUSH1 0x0 DUP2 SWAP1 POP SWAP3 SWAP2 POP POP JUMP JUMPDEST PUSH1 0x0 DUP3 DUP3 MSTORE PUSH1 0x20 DUP3 ADD SWAP1 POP SWAP3 SWAP2 POP POP JUMP JUMPDEST PUSH1 0x0 DUP2 SWAP1 POP SWAP3 SWAP2 POP POP JUMP JUMPDEST PUSH1 0x0 PUSH2 0x1B8C DUP3 PUSH2 0x1C53 JUMP JUMPDEST SWAP2 POP PUSH2 0x1B97 DUP4 PUSH2 0x1C53 JUMP JUMPDEST SWAP3 POP DUP3 PUSH32 0xFFFFFFFFFFFFFFFFFFFFFFFFFFFFFFFFFFFFFFFFFFFFFFFFFFFFFFFFFFFFFFFF SUB DUP3 GT ISZERO PUSH2 0x1BCC JUMPI PUSH2 0x1BCB PUSH2 0x1DAA JUMP JUMPDEST JUMPDEST DUP3 DUP3 ADD SWAP1 POP SWAP3 SWAP2 POP POP JUMP JUMPDEST PUSH1 0x0 PUSH2 0x1BE2 DUP3 PUSH2 0x1C53 JUMP JUMPDEST SWAP2 POP PUSH2 0x1BED DUP4 PUSH2 0x1C53 JUMP JUMPDEST SWAP3 POP DUP3 DUP3 LT ISZERO PUSH2 0x1C00 JUMPI PUSH2 0x1BFF PUSH2 0x1DAA JUMP JUMPDEST JUMPDEST DUP3 DUP3 SUB SWAP1 POP SWAP3 SWAP2 POP POP JUMP JUMPDEST PUSH1 0x0 PUSH2 0x1C16 DUP3 PUSH2 0x1C33 JUMP JUMPDEST SWAP1 POP SWAP2 SWAP1 POP JUMP JUMPDEST PUSH1 0x0 DUP2 ISZERO ISZERO SWAP1 POP SWAP2 SWAP1 POP JUMP JUMPDEST PUSH1 0x0 DUP2 SWAP1 POP SWAP2 SWAP1 POP JUMP JUMPDEST PUSH1 0x0 PUSH20 0xFFFFFFFFFFFFFFFFFFFFFFFFFFFFFFFFFFFFFFFF DUP3 AND SWAP1 POP SWAP2 SWAP1 POP JUMP JUMPDEST PUSH1 0x0 DUP2 SWAP1 POP SWAP2 SWAP1 POP JUMP JUMPDEST DUP3 DUP2 DUP4 CALLDATACOPY PUSH1 0x0 DUP4 DUP4 ADD MSTORE POP POP POP JUMP JUMPDEST PUSH1 0x0 JUMPDEST DUP4 DUP2 LT ISZERO PUSH2 0x1C8A JUMPI DUP1 DUP3 ADD MLOAD DUP2 DUP5 ADD MSTORE PUSH1 0x20 DUP2 ADD SWAP1 POP PUSH2 0x1C6F JUMP JUMPDEST DUP4 DUP2 GT ISZERO PUSH2 0x1C99 JUMPI PUSH1 0x0 DUP5 DUP5 ADD MSTORE JUMPDEST POP POP POP POP JUMP JUMPDEST PUSH1 0x0 PUSH1 0x2 DUP3 DIV SWAP1 POP PUSH1 0x1 DUP3 AND DUP1 PUSH2 0x1CB7 JUMPI PUSH1 0x7F DUP3 AND SWAP2 POP JUMPDEST PUSH1 0x20 DUP3 LT DUP2 EQ ISZERO PUSH2 0x1CCB JUMPI PUSH2 0x1CCA PUSH2 0x1E08 JUMP JUMPDEST JUMPDEST POP SWAP2 SWAP1 POP JUMP JUMPDEST PUSH2 0x1CDA DUP3 PUSH2 0x1EDD JUMP JUMPDEST DUP2 ADD DUP2 DUP2 LT PUSH8 0xFFFFFFFFFFFFFFFF DUP3 GT OR ISZERO PUSH2 0x1CF9 JUMPI PUSH2 0x1CF8 PUSH2 0x1E95 JUMP JUMPDEST JUMPDEST DUP1 PUSH1 0x40 MSTORE POP POP POP JUMP JUMPDEST PUSH1 0x0 PUSH2 0x1D0D DUP3 PUSH2 0x1C53 JUMP JUMPDEST SWAP2 POP PUSH32 0xFFFFFFFFFFFFFFFFFFFFFFFFFFFFFFFFFFFFFFFFFFFFFFFFFFFFFFFFFFFFFFFF DUP3 EQ ISZERO PUSH2 0x1D40 JUMPI PUSH2 0x1D3F PUSH2 0x1DAA JUMP JUMPDEST JUMPDEST PUSH1 0x1 DUP3 ADD SWAP1 POP SWAP2 SWAP1 POP JUMP JUMPDEST PUSH1 0x0 PUSH2 0x1D56 DUP3 PUSH2 0x1D5D JUMP JUMPDEST SWAP1 POP SWAP2 SWAP1 POP JUMP JUMPDEST PUSH1 0x0 PUSH2 0x1D68 DUP3 PUSH2 0x1EEE JUMP JUMPDEST SWAP1 POP SWAP2 SWAP1 POP JUMP JUMPDEST PUSH1 0x0 DUP2 SWAP1 POP SWAP2 SWAP1 POP JUMP JUMPDEST PUSH1 0x0 PUSH2 0x1D84 DUP3 PUSH2 0x1C53 JUMP JUMPDEST SWAP2 POP PUSH2 0x1D8F DUP4 PUSH2 0x1C53 JUMP JUMPDEST SWAP3 POP DUP3 PUSH2 0x1D9F JUMPI PUSH2 0x1D9E PUSH2 0x1DD9 JUMP JUMPDEST JUMPDEST DUP3 DUP3 MOD SWAP1 POP SWAP3 SWAP2 POP POP JUMP JUMPDEST PUSH32 0x4E487B7100000000000000000000000000000000000000000000000000000000 PUSH1 0x0 MSTORE PUSH1 0x11 PUSH1 0x4 MSTORE PUSH1 0x24 PUSH1 0x0 REVERT JUMPDEST PUSH32 0x4E487B7100000000000000000000000000000000000000000000000000000000 PUSH1 0x0 MSTORE PUSH1 0x12 PUSH1 0x4 MSTORE PUSH1 0x24 PUSH1 0x0 REVERT JUMPDEST PUSH32 0x4E487B7100000000000000000000000000000000000000000000000000000000 PUSH1 0x0 MSTORE PUSH1 0x22 PUSH1 0x4 MSTORE PUSH1 0x24 PUSH1 0x0 REVERT JUMPDEST PUSH32 0x4E487B7100000000000000000000000000000000000000000000000000000000 PUSH1 0x0 MSTORE PUSH1 0x31 PUSH1 0x4 MSTORE PUSH1 0x24 PUSH1 0x0 REVERT JUMPDEST PUSH32 0x4E487B7100000000000000000000000000000000000000000000000000000000 PUSH1 0x0 MSTORE PUSH1 0x32 PUSH1 0x4 MSTORE PUSH1 0x24 PUSH1 0x0 REVERT JUMPDEST PUSH32 0x4E487B7100000000000000000000000000000000000000000000000000000000 PUSH1 0x0 MSTORE PUSH1 0x41 PUSH1 0x4 MSTORE PUSH1 0x24 PUSH1 0x0 REVERT JUMPDEST PUSH1 0x0 DUP1 REVERT JUMPDEST PUSH1 0x0 DUP1 REVERT JUMPDEST PUSH1 0x0 DUP1 REVERT JUMPDEST PUSH1 0x0 DUP1 REVERT JUMPDEST PUSH1 0x0 DUP1 REVERT JUMPDEST PUSH1 0x0 PUSH1 0x1F NOT PUSH1 0x1F DUP4 ADD AND SWAP1 POP SWAP2 SWAP1 POP JUMP JUMPDEST PUSH1 0x0 DUP2 PUSH1 0x60 SHL SWAP1 POP SWAP2 SWAP1 POP JUMP JUMPDEST PUSH32 0x446561646C696E65206E6F742079657420706173736564210000000000000000 PUSH1 0x0 DUP3 ADD MSTORE POP JUMP JUMPDEST PUSH32 0x566F74696E672068617320636C6F736564000000000000000000000000000000 PUSH1 0x0 DUP3 ADD MSTORE POP JUMP JUMPDEST PUSH32 0x416C7265616479207369676E6564207570210000000000000000000000000000 PUSH1 0x0 DUP3 ADD MSTORE POP JUMP JUMPDEST PUSH32 0x5369676E2D75702072656A65637465642120496E616465717561746520737461 PUSH1 0x0 DUP3 ADD MSTORE PUSH32 0x6B652076616C7565000000000000000000000000000000000000000000000000 PUSH1 0x20 DUP3 ADD MSTORE POP JUMP JUMPDEST PUSH32 0x4E6F74207369676E656420757021000000000000000000000000000000000000 PUSH1 0x0 DUP3 ADD MSTORE POP JUMP JUMPDEST PUSH32 0x4E6F7420612076616C696461746F7220666F7220746869732072657175657374 PUSH1 0x0 DUP3 ADD MSTORE PUSH32 0x2100000000000000000000000000000000000000000000000000000000000000 PUSH1 0x20 DUP3 ADD MSTORE POP JUMP JUMPDEST PUSH32 0x494420646F65736E2774206D6174636820796F75722061646472657373210000 PUSH1 0x0 DUP3 ADD MSTORE POP JUMP JUMPDEST PUSH32 0x4E6F7420617574686F72697A656420746F20656E642074686973207665726966 PUSH1 0x0 DUP3 ADD MSTORE PUSH32 0x69636174696F6E21000000000000000000000000000000000000000000000000 PUSH1 0x20 DUP3 ADD MSTORE POP JUMP JUMPDEST PUSH2 0x20BE DUP2 PUSH2 0x1C1D JUMP JUMPDEST DUP2 EQ PUSH2 0x20C9 JUMPI PUSH1 0x0 DUP1 REVERT JUMPDEST POP JUMP JUMPDEST PUSH2 0x20D5 DUP2 PUSH2 0x1C29 JUMP JUMPDEST DUP2 EQ PUSH2 0x20E0 JUMPI PUSH1 0x0 DUP1 REVERT JUMPDEST POP JUMP JUMPDEST PUSH2 0x20EC DUP2 PUSH2 0x1C53 JUMP JUMPDEST DUP2 EQ PUSH2 0x20F7 JUMPI PUSH1 0x0 DUP1 REVERT JUMPDEST POP JUMP INVALID LOG2 PUSH5 0x6970667358 0x22 SLT KECCAK256 PUSH20 0x9DC9B6B7E434297641B8A57D40D979F60FE40D65 0x5C PUSH1 0x98 BLOCKHASH PUSH29 0x7070A05264F164736F6C63430008070033000000000000000000000000 "
		},
		"gasEstimates": {
			"creation": {
				"codeDepositCost": "1699200",
				"executionCost": "1785",
				"totalCost": "1700985"
			},
			"external": {
				"cancel_signup(uint256)": "infinite",
				"endVerification(uint256)": "infinite",
				"issueCertificate(bytes[],string)": "infinite",
				"request_verification(string)": "infinite",
				"sign_up()": "infinite",
				"vote(uint256,bool)": "infinite"
			},
			"internal": {
				"chooseValidators(uint256)": "infinite"
			}
		},
		"methodIdentifiers": {
			"cancel_signup(uint256)": "f5c7996c",
			"endVerification(uint256)": "288f0938",
			"issueCertificate(bytes[],string)": "d78b0dac",
			"request_verification(string)": "969b1567",
			"sign_up()": "c4fb3337",
			"vote(uint256,bool)": "c9d27afe"
		}
	},
	"abi": [
		{
			"inputs": [
				{
					"internalType": "uint256",
					"name": "id",
					"type": "uint256"
				}
			],
			"name": "cancel_signup",
			"outputs": [],
			"stateMutability": "nonpayable",
			"type": "function"
		},
		{
			"inputs": [
				{
					"internalType": "uint256",
					"name": "requestID",
					"type": "uint256"
				}
			],
			"name": "endVerification",
			"outputs": [],
			"stateMutability": "nonpayable",
			"type": "function"
		},
		{
			"inputs": [
				{
					"internalType": "bytes[]",
					"name": "publicKey",
					"type": "bytes[]"
				},
				{
					"internalType": "string",
					"name": "domain",
					"type": "string"
				}
			],
			"name": "issueCertificate",
			"outputs": [],
			"stateMutability": "nonpayable",
			"type": "function"
		},
		{
			"inputs": [
				{
					"internalType": "string",
					"name": "domain",
					"type": "string"
				}
			],
			"name": "request_verification",
			"outputs": [
				{
					"internalType": "uint256",
					"name": "",
					"type": "uint256"
				}
			],
			"stateMutability": "payable",
			"type": "function"
		},
		{
			"inputs": [],
			"name": "sign_up",
			"outputs": [
				{
					"internalType": "uint256",
					"name": "",
					"type": "uint256"
				}
			],
			"stateMutability": "payable",
			"type": "function"
		},
		{
			"inputs": [
				{
					"internalType": "uint256",
					"name": "requestID",
					"type": "uint256"
				},
				{
					"internalType": "bool",
					"name": "voteIn",
					"type": "bool"
				}
			],
			"name": "vote",
			"outputs": [],
			"stateMutability": "nonpayable",
			"type": "function"
		}
	]
}